{
  "contractName": "NftFactory",
  "abi": [
    {
      "anonymous": false,
      "inputs": [
        {
          "indexed": true,
          "internalType": "address",
          "name": "owner",
          "type": "address"
        },
        {
          "indexed": true,
          "internalType": "address",
          "name": "approved",
          "type": "address"
        },
        {
          "indexed": true,
          "internalType": "uint256",
          "name": "tokenId",
          "type": "uint256"
        }
      ],
      "name": "Approval",
      "type": "event"
    },
    {
      "anonymous": false,
      "inputs": [
        {
          "indexed": true,
          "internalType": "address",
          "name": "owner",
          "type": "address"
        },
        {
          "indexed": true,
          "internalType": "address",
          "name": "operator",
          "type": "address"
        },
        {
          "indexed": false,
          "internalType": "bool",
          "name": "approved",
          "type": "bool"
        }
      ],
      "name": "ApprovalForAll",
      "type": "event"
    },
    {
      "anonymous": false,
      "inputs": [
        {
          "indexed": true,
          "internalType": "address",
          "name": "_owner",
          "type": "address"
        },
        {
          "indexed": false,
          "internalType": "uint256",
          "name": "_tokenId",
          "type": "uint256"
        },
        {
          "indexed": false,
          "internalType": "string",
          "name": "_url",
          "type": "string"
        }
      ],
      "name": "MetadataAssigned",
      "type": "event"
    },
    {
      "anonymous": false,
      "inputs": [
        {
          "indexed": true,
          "internalType": "address",
          "name": "from",
          "type": "address"
        },
        {
          "indexed": true,
          "internalType": "address",
          "name": "to",
          "type": "address"
        },
        {
          "indexed": true,
          "internalType": "uint256",
          "name": "tokenId",
          "type": "uint256"
        }
      ],
      "name": "Transfer",
      "type": "event"
    },
    {
      "inputs": [
        {
          "internalType": "address",
          "name": "to",
          "type": "address"
        },
        {
          "internalType": "uint256",
          "name": "tokenId",
          "type": "uint256"
        }
      ],
      "name": "approve",
      "outputs": [],
      "stateMutability": "nonpayable",
      "type": "function"
    },
    {
      "inputs": [
        {
          "internalType": "address",
          "name": "owner",
          "type": "address"
        }
      ],
      "name": "balanceOf",
      "outputs": [
        {
          "internalType": "uint256",
          "name": "",
          "type": "uint256"
        }
      ],
      "stateMutability": "view",
      "type": "function"
    },
    {
      "inputs": [],
      "name": "baseURI",
      "outputs": [
        {
          "internalType": "string",
          "name": "",
          "type": "string"
        }
      ],
      "stateMutability": "view",
      "type": "function"
    },
    {
      "inputs": [
        {
          "internalType": "uint256",
          "name": "tokenId",
          "type": "uint256"
        }
      ],
      "name": "getApproved",
      "outputs": [
        {
          "internalType": "address",
          "name": "",
          "type": "address"
        }
      ],
      "stateMutability": "view",
      "type": "function"
    },
    {
      "inputs": [
        {
          "internalType": "address",
          "name": "owner",
          "type": "address"
        },
        {
          "internalType": "address",
          "name": "operator",
          "type": "address"
        }
      ],
      "name": "isApprovedForAll",
      "outputs": [
        {
          "internalType": "bool",
          "name": "",
          "type": "bool"
        }
      ],
      "stateMutability": "view",
      "type": "function"
    },
    {
      "inputs": [],
      "name": "name",
      "outputs": [
        {
          "internalType": "string",
          "name": "",
          "type": "string"
        }
      ],
      "stateMutability": "view",
      "type": "function"
    },
    {
      "inputs": [
        {
          "internalType": "address",
          "name": "",
          "type": "address"
        },
        {
          "internalType": "uint256",
          "name": "",
          "type": "uint256"
        }
      ],
      "name": "ownedTokens",
      "outputs": [
        {
          "internalType": "uint256",
          "name": "",
          "type": "uint256"
        }
      ],
      "stateMutability": "view",
      "type": "function"
    },
    {
      "inputs": [
        {
          "internalType": "uint256",
          "name": "tokenId",
          "type": "uint256"
        }
      ],
      "name": "ownerOf",
      "outputs": [
        {
          "internalType": "address",
          "name": "",
          "type": "address"
        }
      ],
      "stateMutability": "view",
      "type": "function"
    },
    {
      "inputs": [
        {
          "internalType": "string",
          "name": "",
          "type": "string"
        }
      ],
      "name": "registries",
      "outputs": [
        {
          "internalType": "string",
          "name": "name",
          "type": "string"
        },
        {
          "internalType": "string",
          "name": "symbol",
          "type": "string"
        },
        {
          "internalType": "string",
          "name": "description",
          "type": "string"
        },
        {
          "internalType": "address",
          "name": "creator",
          "type": "address"
        }
      ],
      "stateMutability": "view",
      "type": "function"
    },
    {
      "inputs": [
        {
          "internalType": "address",
          "name": "operator",
          "type": "address"
        },
        {
          "internalType": "bool",
          "name": "approved",
          "type": "bool"
        }
      ],
      "name": "setApprovalForAll",
      "outputs": [],
      "stateMutability": "nonpayable",
      "type": "function"
    },
    {
      "inputs": [
        {
          "internalType": "bytes4",
          "name": "interfaceId",
          "type": "bytes4"
        }
      ],
      "name": "supportsInterface",
      "outputs": [
        {
          "internalType": "bool",
          "name": "",
          "type": "bool"
        }
      ],
      "stateMutability": "view",
      "type": "function"
    },
    {
      "inputs": [],
      "name": "symbol",
      "outputs": [
        {
          "internalType": "string",
          "name": "",
          "type": "string"
        }
      ],
      "stateMutability": "view",
      "type": "function"
    },
    {
      "inputs": [
        {
          "internalType": "uint256",
          "name": "index",
          "type": "uint256"
        }
      ],
      "name": "tokenByIndex",
      "outputs": [
        {
          "internalType": "uint256",
          "name": "",
          "type": "uint256"
        }
      ],
      "stateMutability": "view",
      "type": "function"
    },
    {
      "inputs": [
        {
          "internalType": "address",
          "name": "owner",
          "type": "address"
        },
        {
          "internalType": "uint256",
          "name": "index",
          "type": "uint256"
        }
      ],
      "name": "tokenOfOwnerByIndex",
      "outputs": [
        {
          "internalType": "uint256",
          "name": "",
          "type": "uint256"
        }
      ],
      "stateMutability": "view",
      "type": "function"
    },
    {
      "inputs": [
        {
          "internalType": "uint256",
          "name": "tokenId",
          "type": "uint256"
        }
      ],
      "name": "tokenURI",
      "outputs": [
        {
          "internalType": "string",
          "name": "",
          "type": "string"
        }
      ],
      "stateMutability": "view",
      "type": "function"
    },
    {
      "inputs": [],
      "name": "totalSupply",
      "outputs": [
        {
          "internalType": "uint256",
          "name": "",
          "type": "uint256"
        }
      ],
      "stateMutability": "view",
      "type": "function"
    },
    {
      "inputs": [
        {
          "internalType": "address",
          "name": "from",
          "type": "address"
        },
        {
          "internalType": "address",
          "name": "to",
          "type": "address"
        },
        {
          "internalType": "uint256",
          "name": "tokenId",
          "type": "uint256"
        }
      ],
      "name": "transferFrom",
      "outputs": [],
      "stateMutability": "nonpayable",
      "type": "function"
    },
    {
      "inputs": [
        {
          "internalType": "string",
          "name": "name",
          "type": "string"
        },
        {
          "internalType": "string",
          "name": "symbol",
          "type": "string"
        },
        {
          "internalType": "string",
          "name": "description",
          "type": "string"
        },
        {
          "internalType": "address",
          "name": "caller",
          "type": "address"
        }
      ],
      "name": "Registry",
      "outputs": [],
      "stateMutability": "nonpayable",
      "type": "function"
    },
    {
      "inputs": [
        {
          "internalType": "uint256",
          "name": "id",
          "type": "uint256"
        },
        {
          "internalType": "string",
          "name": "uri",
          "type": "string"
        }
      ],
      "name": "assignDataToToken",
      "outputs": [],
      "stateMutability": "nonpayable",
      "type": "function"
    },
    {
      "inputs": [
        {
          "internalType": "uint256",
          "name": "_tokenId",
          "type": "uint256"
        }
      ],
      "name": "getMetadataAtID",
      "outputs": [
        {
          "internalType": "string",
          "name": "",
          "type": "string"
        }
      ],
      "stateMutability": "view",
      "type": "function"
    },
    {
      "inputs": [
        {
          "internalType": "uint256",
          "name": "id",
          "type": "uint256"
        }
      ],
      "name": "getTokenOwner",
      "outputs": [
        {
          "internalType": "address",
          "name": "",
          "type": "address"
        }
      ],
      "stateMutability": "view",
      "type": "function"
    },
    {
      "inputs": [
        {
          "internalType": "address",
          "name": "_owner",
          "type": "address"
        }
      ],
      "name": "tokensOf",
      "outputs": [
        {
          "internalType": "uint256[]",
          "name": "",
          "type": "uint256[]"
        }
      ],
      "stateMutability": "view",
      "type": "function"
    },
    {
      "inputs": [
        {
          "internalType": "address",
          "name": "_to",
          "type": "address"
        },
        {
          "internalType": "uint256[]",
          "name": "_tokenIds",
          "type": "uint256[]"
        }
      ],
      "name": "approveMany",
      "outputs": [],
      "stateMutability": "nonpayable",
      "type": "function"
    },
    {
      "inputs": [
        {
          "internalType": "address",
          "name": "_to",
          "type": "address"
        }
      ],
      "name": "approveAll",
      "outputs": [],
      "stateMutability": "nonpayable",
      "type": "function"
    },
    {
      "inputs": [
        {
          "internalType": "address",
          "name": "from",
          "type": "address"
        },
        {
          "internalType": "address",
          "name": "to",
          "type": "address"
        },
        {
          "internalType": "uint256",
          "name": "tokenId",
          "type": "uint256"
        }
      ],
      "name": "safeTransferFrom",
      "outputs": [],
      "stateMutability": "nonpayable",
      "type": "function"
    },
    {
      "inputs": [
        {
          "internalType": "address",
          "name": "from",
          "type": "address"
        },
        {
          "internalType": "address",
          "name": "to",
          "type": "address"
        },
        {
          "internalType": "uint256",
          "name": "tokenId",
          "type": "uint256"
        },
        {
          "internalType": "bytes",
          "name": "_data",
          "type": "bytes"
        }
      ],
      "name": "safeTransferFrom",
      "outputs": [],
      "stateMutability": "nonpayable",
      "type": "function"
    },
    {
      "inputs": [
        {
          "internalType": "string",
          "name": "url",
          "type": "string"
        }
      ],
      "name": "Mint",
      "outputs": [],
      "stateMutability": "nonpayable",
      "type": "function"
    },
    {
      "inputs": [
        {
          "internalType": "address",
          "name": "newFeeAccount",
          "type": "address"
        }
      ],
      "name": "ChangeFeeAccount",
      "outputs": [
        {
          "internalType": "bool",
          "name": "",
          "type": "bool"
        }
      ],
      "stateMutability": "nonpayable",
      "type": "function"
    },
    {
      "inputs": [
        {
          "internalType": "uint256",
          "name": "newFeePercent",
          "type": "uint256"
        }
      ],
      "name": "ChangeFeePercent",
      "outputs": [
        {
          "internalType": "bool",
          "name": "",
          "type": "bool"
        }
      ],
      "stateMutability": "nonpayable",
      "type": "function"
    },
    {
      "inputs": [
        {
          "internalType": "string",
          "name": "symbol",
          "type": "string"
        },
        {
          "internalType": "uint256",
          "name": "_id",
          "type": "uint256"
        }
      ],
      "name": "burn",
      "outputs": [
        {
          "internalType": "bool",
          "name": "",
          "type": "bool"
        }
      ],
      "stateMutability": "nonpayable",
      "type": "function"
    }
  ],
  "bytecode": "0x60806040526000600d553480156200001657600080fd5b506200002f6301ffc9a760e01b6200003560201b60201c565b6200013e565b63ffffffff60e01b817bffffffffffffffffffffffffffffffffffffffffffffffffffffffff19161415620000d2576040517f08c379a000000000000000000000000000000000000000000000000000000000815260040180806020018281038252601c8152602001807f4552433136353a20696e76616c696420696e746572666163652069640000000081525060200191505060405180910390fd5b6001600080837bffffffffffffffffffffffffffffffffffffffffffffffffffffffff19167bffffffffffffffffffffffffffffffffffffffffffffffffffffffff1916815260200190815260200160002060006101000a81548160ff02191690831515021790555050565b614e66806200014e6000396000f3fe608060405234801561001057600080fd5b50600436106101da5760003560e01c806370a0823111610104578063c548e761116100a2578063e149f03611610071578063e149f0361461112e578063e268cd2414611190578063e69c20cf14611237578063e985e9c5146112fc576101da565b8063c548e76114610d49578063c5e1d73114610da3578063c87b56dd14610e5e578063df5cbf7d14610f05576101da565b8063a22cb465116100de578063a22cb46514610ac1578063a5cd761f14610b11578063b48272cc14610b69578063b88d4fde14610c44576101da565b806370a082311461090e57806395d89b411461096657806399bb8134146109e9576101da565b80632f745c591161017c5780635a3f26721161014b5780635a3f2672146107565780636352211e146107ef57806367cdadf4146108475780636c0360eb1461088b576101da565b80632f745c591461043b57806342842e0e1461049d57806346f62f6c1461050b5780634f6ccce714610714576101da565b8063081812fc116101b8578063081812fc14610309578063095ea7b31461036157806318160ddd146103af57806323b872dd146103cd576101da565b806301ffc9a7146101df5780630621472c1461024257806306fdde0314610286575b600080fd5b61022a600480360360208110156101f557600080fd5b8101908080357bffffffffffffffffffffffffffffffffffffffffffffffffffffffff19169060200190929190505050611376565b60405180821515815260200191505060405180910390f35b6102846004803603602081101561025857600080fd5b81019080803573ffffffffffffffffffffffffffffffffffffffff1690602001909291905050506113dd565b005b61028e611425565b6040518080602001828103825283818151815260200191508051906020019080838360005b838110156102ce5780820151818401526020810190506102b3565b50505050905090810190601f1680156102fb5780820380516001836020036101000a031916815260200191505b509250505060405180910390f35b6103356004803603602081101561031f57600080fd5b81019080803590602001909291905050506114c7565b604051808273ffffffffffffffffffffffffffffffffffffffff16815260200191505060405180910390f35b6103ad6004803603604081101561037757600080fd5b81019080803573ffffffffffffffffffffffffffffffffffffffff16906020019092919080359060200190929190505050611562565b005b6103b76116a6565b6040518082815260200191505060405180910390f35b610439600480360360608110156103e357600080fd5b81019080803573ffffffffffffffffffffffffffffffffffffffff169060200190929190803573ffffffffffffffffffffffffffffffffffffffff169060200190929190803590602001909291905050506116b7565b005b6104876004803603604081101561045157600080fd5b81019080803573ffffffffffffffffffffffffffffffffffffffff1690602001909291908035906020019092919050505061172d565b6040518082815260200191505060405180910390f35b610509600480360360608110156104b357600080fd5b81019080803573ffffffffffffffffffffffffffffffffffffffff169060200190929190803573ffffffffffffffffffffffffffffffffffffffff16906020019092919080359060200190929190505050611788565b005b6107126004803603608081101561052157600080fd5b810190808035906020019064010000000081111561053e57600080fd5b82018360208201111561055057600080fd5b8035906020019184600183028401116401000000008311171561057257600080fd5b91908080601f016020809104026020016040519081016040528093929190818152602001838380828437600081840152601f19601f820116905080830192505050505050509192919290803590602001906401000000008111156105d557600080fd5b8201836020820111156105e757600080fd5b8035906020019184600183028401116401000000008311171561060957600080fd5b91908080601f016020809104026020016040519081016040528093929190818152602001838380828437600081840152601f19601f8201169050808301925050505050505091929192908035906020019064010000000081111561066c57600080fd5b82018360208201111561067e57600080fd5b803590602001918460018302840111640100000000831117156106a057600080fd5b91908080601f016020809104026020016040519081016040528093929190818152602001838380828437600081840152601f19601f820116905080830192505050505050509192919290803573ffffffffffffffffffffffffffffffffffffffff1690602001909291905050506118ee565b005b6107406004803603602081101561072a57600080fd5b8101908080359060200190929190505050611ace565b6040518082815260200191505060405180910390f35b6107986004803603602081101561076c57600080fd5b81019080803573ffffffffffffffffffffffffffffffffffffffff169060200190929190505050611af1565b6040518080602001828103825283818151815260200191508051906020019060200280838360005b838110156107db5780820151818401526020810190506107c0565b505050509050019250505060405180910390f35b61081b6004803603602081101561080557600080fd5b8101908080359060200190929190505050611c2b565b604051808273ffffffffffffffffffffffffffffffffffffffff16815260200191505060405180910390f35b6108736004803603602081101561085d57600080fd5b8101908080359060200190929190505050611c62565b60405180821515815260200191505060405180910390f35b610893611c74565b6040518080602001828103825283818151815260200191508051906020019080838360005b838110156108d35780820151818401526020810190506108b8565b50505050905090810190601f1680156109005780820380516001836020036101000a031916815260200191505b509250505060405180910390f35b6109506004803603602081101561092457600080fd5b81019080803573ffffffffffffffffffffffffffffffffffffffff169060200190929190505050611d16565b6040518082815260200191505060405180910390f35b61096e611deb565b6040518080602001828103825283818151815260200191508051906020019080838360005b838110156109ae578082015181840152602081019050610993565b50505050905090810190601f1680156109db5780820380516001836020036101000a031916815260200191505b509250505060405180910390f35b610abf600480360360408110156109ff57600080fd5b81019080803573ffffffffffffffffffffffffffffffffffffffff16906020019092919080359060200190640100000000811115610a3c57600080fd5b820183602082011115610a4e57600080fd5b80359060200191846020830284011164010000000083111715610a7057600080fd5b919080806020026020016040519081016040528093929190818152602001838360200280828437600081840152601f19601f820116905080830192505050505050509192919290505050611e8d565b005b610b0f60048036036040811015610ad757600080fd5b81019080803573ffffffffffffffffffffffffffffffffffffffff169060200190929190803515159060200190929190505050611ec8565b005b610b3d60048036036020811015610b2757600080fd5b810190808035906020019092919050505061207e565b604051808273ffffffffffffffffffffffffffffffffffffffff16815260200191505060405180910390f35b610c2c60048036036040811015610b7f57600080fd5b8101908080359060200190640100000000811115610b9c57600080fd5b820183602082011115610bae57600080fd5b80359060200191846001830284011164010000000083111715610bd057600080fd5b91908080601f016020809104026020016040519081016040528093929190818152602001838380828437600081840152601f19601f820116905080830192505050505050509192919290803590602001909291905050506120bb565b60405180821515815260200191505060405180910390f35b610d4760048036036080811015610c5a57600080fd5b81019080803573ffffffffffffffffffffffffffffffffffffffff169060200190929190803573ffffffffffffffffffffffffffffffffffffffff1690602001909291908035906020019092919080359060200190640100000000811115610cc157600080fd5b820183602082011115610cd357600080fd5b80359060200191846001830284011164010000000083111715610cf557600080fd5b91908080601f016020809104026020016040519081016040528093929190818152602001838380828437600081840152601f19601f8201169050808301925050505050505091929192905050506121ca565b005b610d8b60048036036020811015610d5f57600080fd5b81019080803573ffffffffffffffffffffffffffffffffffffffff169060200190929190505050612635565b60405180821515815260200191505060405180910390f35b610e5c60048036036020811015610db957600080fd5b8101908080359060200190640100000000811115610dd657600080fd5b820183602082011115610de857600080fd5b80359060200191846001830284011164010000000083111715610e0a57600080fd5b91908080601f016020809104026020016040519081016040528093929190818152602001838380828437600081840152601f19601f820116905080830192505050505050509192919290505050612681565b005b610e8a60048036036020811015610e7457600080fd5b810190808035906020019092919050505061282a565b6040518080602001828103825283818151815260200191508051906020019080838360005b83811015610eca578082015181840152602081019050610eaf565b50505050905090810190601f168015610ef75780820380516001836020036101000a031916815260200191505b509250505060405180910390f35b610fbe60048036036020811015610f1b57600080fd5b8101908080359060200190640100000000811115610f3857600080fd5b820183602082011115610f4a57600080fd5b80359060200191846001830284011164010000000083111715610f6c57600080fd5b91908080601f016020809104026020016040519081016040528093929190818152602001838380828437600081840152601f19601f820116905080830192505050505050509192919290505050612afb565b604051808060200180602001806020018573ffffffffffffffffffffffffffffffffffffffff168152602001848103845288818151815260200191508051906020019080838360005b83811015611022578082015181840152602081019050611007565b50505050905090810190601f16801561104f5780820380516001836020036101000a031916815260200191505b50848103835287818151815260200191508051906020019080838360005b8381101561108857808201518184015260208101905061106d565b50505050905090810190601f1680156110b55780820380516001836020036101000a031916815260200191505b50848103825286818151815260200191508051906020019080838360005b838110156110ee5780820151818401526020810190506110d3565b50505050905090810190601f16801561111b5780820380516001836020036101000a031916815260200191505b5097505050505050505060405180910390f35b61117a6004803603604081101561114457600080fd5b81019080803573ffffffffffffffffffffffffffffffffffffffff16906020019092919080359060200190929190505050612d29565b6040518082815260200191505060405180910390f35b6111bc600480360360208110156111a657600080fd5b8101908080359060200190929190505050612d5a565b6040518080602001828103825283818151815260200191508051906020019080838360005b838110156111fc5780820151818401526020810190506111e1565b50505050905090810190601f1680156112295780820380516001836020036101000a031916815260200191505b509250505060405180910390f35b6112fa6004803603604081101561124d57600080fd5b81019080803590602001909291908035906020019064010000000081111561127457600080fd5b82018360208201111561128657600080fd5b803590602001918460018302840111640100000000831117156112a857600080fd5b91908080601f016020809104026020016040519081016040528093929190818152602001838380828437600081840152601f19601f820116905080830192505050505050509192919290505050612e0f565b005b61135e6004803603604081101561131257600080fd5b81019080803573ffffffffffffffffffffffffffffffffffffffff169060200190929190803573ffffffffffffffffffffffffffffffffffffffff169060200190929190505050613210565b60405180821515815260200191505060405180910390f35b6000806000837bffffffffffffffffffffffffffffffffffffffffffffffffffffffff19167bffffffffffffffffffffffffffffffffffffffffffffffffffffffff1916815260200190815260200160002060009054906101000a900460ff169050919050565b60606113e833611af1565b905060005b8151811015611420576114138383838151811061140657fe5b6020026020010151611562565b80806001019150506113ed565b505050565b606060068054600181600116156101000203166002900480601f0160208091040260200160405190810160405280929190818152602001828054600181600116156101000203166002900480156114bd5780601f10611492576101008083540402835291602001916114bd565b820191906000526020600020905b8154815290600101906020018083116114a057829003601f168201915b5050505050905090565b60006114d2826132a4565b611527576040517f08c379a000000000000000000000000000000000000000000000000000000000815260040180806020018281038252602c815260200180614d5b602c913960400191505060405180910390fd5b6004600083815260200190815260200160002060009054906101000a900473ffffffffffffffffffffffffffffffffffffffff169050919050565b600061156d82611c2b565b90508073ffffffffffffffffffffffffffffffffffffffff168373ffffffffffffffffffffffffffffffffffffffff1614156115f4576040517f08c379a0000000000000000000000000000000000000000000000000000000008152600401808060200182810382526021815260200180614ddf6021913960400191505060405180910390fd5b8073ffffffffffffffffffffffffffffffffffffffff166116136132c1565b73ffffffffffffffffffffffffffffffffffffffff16148061164257506116418161163c6132c1565b613210565b5b611697576040517f08c379a0000000000000000000000000000000000000000000000000000000008152600401808060200182810382526038815260200180614cae6038913960400191505060405180910390fd5b6116a183836132c9565b505050565b60006116b26002613382565b905090565b6116c86116c26132c1565b82613397565b61171d576040517f08c379a0000000000000000000000000000000000000000000000000000000008152600401808060200182810382526031815260200180614e006031913960400191505060405180910390fd5b61172883838361348b565b505050565b600061178082600160008673ffffffffffffffffffffffffffffffffffffffff1673ffffffffffffffffffffffffffffffffffffffff1681526020019081526020016000206136ce90919063ffffffff16565b905092915050565b600073ffffffffffffffffffffffffffffffffffffffff168373ffffffffffffffffffffffffffffffffffffffff16141561182b576040517f08c379a000000000000000000000000000000000000000000000000000000000815260040180806020018281038252600f8152602001807f696e76616c69642061646472657373000000000000000000000000000000000081525060200191505060405180910390fd5b600073ffffffffffffffffffffffffffffffffffffffff168273ffffffffffffffffffffffffffffffffffffffff1614156118ce576040517f08c379a000000000000000000000000000000000000000000000000000000000815260040180806020018281038252600f8152602001807f696e76616c69642061646472657373000000000000000000000000000000000081525060200191505060405180910390fd5b6118e9838383604051806020016040528060008152506121ca565b505050565b6118f7836136e8565b925083600a908051906020019061190f929190614a51565b5082600b9080519060200190611926929190614a51565b5081600c908051906020019061193d929190614a51565b5080600e60006101000a81548173ffffffffffffffffffffffffffffffffffffffff021916908373ffffffffffffffffffffffffffffffffffffffff1602179055506000600d8190555060405180608001604052808581526020018481526020018381526020013373ffffffffffffffffffffffffffffffffffffffff168152506015846040518082805190602001908083835b602083106119f457805182526020820191506020810190506020830392506119d1565b6001836020036101000a03801982511681845116808217855250505050505090500191505090815260200160405180910390206000820151816000019080519060200190611a43929190614a51565b506020820151816001019080519060200190611a60929190614a51565b506040820151816002019080519060200190611a7d929190614a51565b5060608201518160030160006101000a81548173ffffffffffffffffffffffffffffffffffffffff021916908373ffffffffffffffffffffffffffffffffffffffff16021790555090505050505050565b600080611ae583600261380990919063ffffffff16565b50905080915050919050565b6060600073ffffffffffffffffffffffffffffffffffffffff168273ffffffffffffffffffffffffffffffffffffffff161415611b96576040517f08c379a000000000000000000000000000000000000000000000000000000000815260040180806020018281038252600d8152602001807f696e76616c6964206f776e65720000000000000000000000000000000000000081525060200191505060405180910390fd5b601260008373ffffffffffffffffffffffffffffffffffffffff1673ffffffffffffffffffffffffffffffffffffffff168152602001908152602001600020805480602002602001604051908101604052809291908181526020018280548015611c1f57602002820191906000526020600020905b815481526020019060010190808311611c0b575b50505050509050919050565b6000611c5b82604051806060016040528060298152602001614d106029913960026138359092919063ffffffff16565b9050919050565b60008160108190555060019050919050565b606060098054600181600116156101000203166002900480601f016020809104026020016040519081016040528092919081815260200182805460018160011615610100020316600290048015611d0c5780601f10611ce157610100808354040283529160200191611d0c565b820191906000526020600020905b815481529060010190602001808311611cef57829003601f168201915b5050505050905090565b60008073ffffffffffffffffffffffffffffffffffffffff168273ffffffffffffffffffffffffffffffffffffffff161415611d9d576040517f08c379a000000000000000000000000000000000000000000000000000000000815260040180806020018281038252602a815260200180614ce6602a913960400191505060405180910390fd5b611de4600160008473ffffffffffffffffffffffffffffffffffffffff1673ffffffffffffffffffffffffffffffffffffffff168152602001908152602001600020613854565b9050919050565b606060078054600181600116156101000203166002900480601f016020809104026020016040519081016040528092919081815260200182805460018160011615610100020316600290048015611e835780601f10611e5857610100808354040283529160200191611e83565b820191906000526020600020905b815481529060010190602001808311611e6657829003601f168201915b5050505050905090565b60005b8151811015611ec357611eb683838381518110611ea957fe5b6020026020010151611562565b8080600101915050611e90565b505050565b611ed06132c1565b73ffffffffffffffffffffffffffffffffffffffff168273ffffffffffffffffffffffffffffffffffffffff161415611f71576040517f08c379a00000000000000000000000000000000000000000000000000000000081526004018080602001828103825260198152602001807f4552433732313a20617070726f766520746f2063616c6c65720000000000000081525060200191505060405180910390fd5b8060056000611f7e6132c1565b73ffffffffffffffffffffffffffffffffffffffff1673ffffffffffffffffffffffffffffffffffffffff16815260200190815260200160002060008473ffffffffffffffffffffffffffffffffffffffff1673ffffffffffffffffffffffffffffffffffffffff16815260200190815260200160002060006101000a81548160ff0219169083151502179055508173ffffffffffffffffffffffffffffffffffffffff1661202b6132c1565b73ffffffffffffffffffffffffffffffffffffffff167f17307eab39ab6107e8899845ad3d59bd9653f200f220920489ca2b5937696c318360405180821515815260200191505060405180910390a35050565b60006011600083815260200190815260200160002060009054906101000a900473ffffffffffffffffffffffffffffffffffffffff169050919050565b60003373ffffffffffffffffffffffffffffffffffffffff166015846040518082805190602001908083835b6020831061210a57805182526020820191506020810190506020830392506120e7565b6001836020036101000a038019825116818451168082178552505050505050905001915050908152602001604051809103902060030160009054906101000a900473ffffffffffffffffffffffffffffffffffffffff1673ffffffffffffffffffffffffffffffffffffffff161461218157600080fd5b61218a82613869565b6011600083815260200190815260200160002060006101000a81549073ffffffffffffffffffffffffffffffffffffffff02191690556001905092915050565b6121db6121d56132c1565b83613397565b612230576040517f08c379a0000000000000000000000000000000000000000000000000000000008152600401808060200182810382526031815260200180614e006031913960400191505060405180910390fd5b600073ffffffffffffffffffffffffffffffffffffffff168473ffffffffffffffffffffffffffffffffffffffff1614156122d3576040517f08c379a000000000000000000000000000000000000000000000000000000000815260040180806020018281038252600f8152602001807f696e76616c69642061646472657373000000000000000000000000000000000081525060200191505060405180910390fd5b600073ffffffffffffffffffffffffffffffffffffffff168373ffffffffffffffffffffffffffffffffffffffff161415612376576040517f08c379a000000000000000000000000000000000000000000000000000000000815260040180806020018281038252600f8152602001807f696e76616c69642061646472657373000000000000000000000000000000000081525060200191505060405180910390fd5b612382848484846139a3565b826011600084815260200190815260200160002060006101000a81548173ffffffffffffffffffffffffffffffffffffffff021916908373ffffffffffffffffffffffffffffffffffffffff1602179055506060601260008673ffffffffffffffffffffffffffffffffffffffff1673ffffffffffffffffffffffffffffffffffffffff16815260200190815260200160002080548060200260200160405190810160405280929190818152602001828054801561245f57602002820191906000526020600020905b81548152602001906001019080831161244b575b505050505090506060600182510367ffffffffffffffff8111801561248357600080fd5b506040519080825280602002602001820160405280156124b25781602001602082028036833780820191505090505b5090506000601260008773ffffffffffffffffffffffffffffffffffffffff1673ffffffffffffffffffffffffffffffffffffffff16815260200190815260200160002090508085908060018154018082558091505060019003906000526020600020016000909190919091505580601260008873ffffffffffffffffffffffffffffffffffffffff1673ffffffffffffffffffffffffffffffffffffffff16815260200190815260200160002090805461256e929190614adf565b506000805b84518110156125d6578685828151811061258957fe5b6020026020010151146125c9578481815181106125a257fe5b60200260200101518483806001019450815181106125bc57fe5b6020026020010181815250505b8080600101915050612573565b5082601260008a73ffffffffffffffffffffffffffffffffffffffff1673ffffffffffffffffffffffffffffffffffffffff168152602001908152602001600020908051906020019061262a929190614b31565b505050505050505050565b600081600f60006101000a81548173ffffffffffffffffffffffffffffffffffffffff021916908373ffffffffffffffffffffffffffffffffffffffff16021790555060019050919050565b600e60009054906101000a900473ffffffffffffffffffffffffffffffffffffffff1673ffffffffffffffffffffffffffffffffffffffff163373ffffffffffffffffffffffffffffffffffffffff16146126db57600080fd5b60006126e56116a6565b90506126f13382613a15565b336011600083815260200190815260200160002060006101000a81548173ffffffffffffffffffffffffffffffffffffffff021916908373ffffffffffffffffffffffffffffffffffffffff1602179055506000601260003373ffffffffffffffffffffffffffffffffffffffff1673ffffffffffffffffffffffffffffffffffffffff16815260200190815260200160002090508082908060018154018082558091505060019003906000526020600020016000909190919091505580601260003373ffffffffffffffffffffffffffffffffffffffff1673ffffffffffffffffffffffffffffffffffffffff1681526020019081526020016000209080546127fc929190614adf565b5082601460008481526020019081526020016000209080519060200190612824929190614a51565b50505050565b6060612835826132a4565b61288a576040517f08c379a000000000000000000000000000000000000000000000000000000000815260040180806020018281038252602f815260200180614db0602f913960400191505060405180910390fd5b6060600860008481526020019081526020016000208054600181600116156101000203166002900480601f0160208091040260200160405190810160405280929190818152602001828054600181600116156101000203166002900480156129335780601f1061290857610100808354040283529160200191612933565b820191906000526020600020905b81548152906001019060200180831161291657829003601f168201915b505050505090506060612944611c74565b905060008151141561295a578192505050612af6565b600082511115612a2b5780826040516020018083805190602001908083835b6020831061299c5780518252602082019150602081019050602083039250612979565b6001836020036101000a03801982511681845116808217855250505050505090500182805190602001908083835b602083106129ed57805182526020820191506020810190506020830392506129ca565b6001836020036101000a0380198251168184511680821785525050505050509050019250505060405160208183030381529060405292505050612af6565b80612a3585613c09565b6040516020018083805190602001908083835b60208310612a6b5780518252602082019150602081019050602083039250612a48565b6001836020036101000a03801982511681845116808217855250505050505090500182805190602001908083835b60208310612abc5780518252602082019150602081019050602083039250612a99565b6001836020036101000a03801982511681845116808217855250505050505090500192505050604051602081830303815290604052925050505b919050565b601581805160208101820180518482526020830160208501208183528095505050505050600091509050806000018054600181600116156101000203166002900480601f016020809104026020016040519081016040528092919081815260200182805460018160011615610100020316600290048015612bbd5780601f10612b9257610100808354040283529160200191612bbd565b820191906000526020600020905b815481529060010190602001808311612ba057829003601f168201915b505050505090806001018054600181600116156101000203166002900480601f016020809104026020016040519081016040528092919081815260200182805460018160011615610100020316600290048015612c5b5780601f10612c3057610100808354040283529160200191612c5b565b820191906000526020600020905b815481529060010190602001808311612c3e57829003601f168201915b505050505090806002018054600181600116156101000203166002900480601f016020809104026020016040519081016040528092919081815260200182805460018160011615610100020316600290048015612cf95780601f10612cce57610100808354040283529160200191612cf9565b820191906000526020600020905b815481529060010190602001808311612cdc57829003601f168201915b5050505050908060030160009054906101000a900473ffffffffffffffffffffffffffffffffffffffff16905084565b60126020528160005260406000208181548110612d4557600080fd5b90600052602060002001600091509150505481565b6060601460008381526020019081526020016000208054600181600116156101000203166002900480601f016020809104026020016040519081016040528092919081815260200182805460018160011615610100020316600290048015612e035780601f10612dd857610100808354040283529160200191612e03565b820191906000526020600020905b815481529060010190602001808311612de657829003601f168201915b50505050509050919050565b600e60009054906101000a900473ffffffffffffffffffffffffffffffffffffffff1673ffffffffffffffffffffffffffffffffffffffff163373ffffffffffffffffffffffffffffffffffffffff1614612e6957600080fd5b6060819050806040518060400160405280600181526020017f2f000000000000000000000000000000000000000000000000000000000000008152506040516020018083805190602001908083835b60208310612edb5780518252602082019150602081019050602083039250612eb8565b6001836020036101000a03801982511681845116808217855250505050505090500182805190602001908083835b60208310612f2c5780518252602082019150602081019050602083039250612f09565b6001836020036101000a03801982511681845116808217855250505050505090500192505050604051602081830303815290604052905080612f6d84613d50565b6040516020018083805190602001908083835b60208310612fa35780518252602082019150602081019050602083039250612f80565b6001836020036101000a03801982511681845116808217855250505050505090500182805190602001908083835b60208310612ff45780518252602082019150602081019050602083039250612fd1565b6001836020036101000a038019825116818451168082178552505050505050905001925050506040516020818303038152906040529050806040518060400160405280600581526020017f2e6a736f6e0000000000000000000000000000000000000000000000000000008152506040516020018083805190602001908083835b602083106130985780518252602082019150602081019050602083039250613075565b6001836020036101000a03801982511681845116808217855250505050505090500182805190602001908083835b602083106130e957805182526020820191506020810190506020830392506130c6565b6001836020036101000a03801982511681845116808217855250505050505090500192505050604051602081830303815290604052905080601460008581526020019081526020016000209080519060200190613147929190614a51565b5061315183611c2b565b73ffffffffffffffffffffffffffffffffffffffff167f533b52bf6683c1d8929816db9f4f8221ca670c6815cbd30bd5e92b4b8eb0957884836040518083815260200180602001828103825283818151815260200191508051906020019080838360005b838110156131d05780820151818401526020810190506131b5565b50505050905090810190601f1680156131fd5780820380516001836020036101000a031916815260200191505b50935050505060405180910390a2505050565b6000600560008473ffffffffffffffffffffffffffffffffffffffff1673ffffffffffffffffffffffffffffffffffffffff16815260200190815260200160002060008373ffffffffffffffffffffffffffffffffffffffff1673ffffffffffffffffffffffffffffffffffffffff16815260200190815260200160002060009054906101000a900460ff16905092915050565b60006132ba826002613f2f90919063ffffffff16565b9050919050565b600033905090565b816004600083815260200190815260200160002060006101000a81548173ffffffffffffffffffffffffffffffffffffffff021916908373ffffffffffffffffffffffffffffffffffffffff160217905550808273ffffffffffffffffffffffffffffffffffffffff1661333c83611c2b565b73ffffffffffffffffffffffffffffffffffffffff167f8c5be1e5ebec7d5bd14f71427d1e84f3dd0314c0f7b2291e5b200ac8c7c3b92560405160405180910390a45050565b600061339082600001613f49565b9050919050565b60006133a2826132a4565b6133f7576040517f08c379a000000000000000000000000000000000000000000000000000000000815260040180806020018281038252602c815260200180614c82602c913960400191505060405180910390fd5b600061340283611c2b565b90508073ffffffffffffffffffffffffffffffffffffffff168473ffffffffffffffffffffffffffffffffffffffff16148061347157508373ffffffffffffffffffffffffffffffffffffffff16613459846114c7565b73ffffffffffffffffffffffffffffffffffffffff16145b8061348257506134818185613210565b5b91505092915050565b8273ffffffffffffffffffffffffffffffffffffffff166134ab82611c2b565b73ffffffffffffffffffffffffffffffffffffffff1614613517576040517f08c379a0000000000000000000000000000000000000000000000000000000008152600401808060200182810382526029815260200180614d876029913960400191505060405180910390fd5b600073ffffffffffffffffffffffffffffffffffffffff168273ffffffffffffffffffffffffffffffffffffffff16141561359d576040517f08c379a0000000000000000000000000000000000000000000000000000000008152600401808060200182810382526024815260200180614c386024913960400191505060405180910390fd5b6135a8838383613f5a565b6135b36000826132c9565b61360481600160008673ffffffffffffffffffffffffffffffffffffffff1673ffffffffffffffffffffffffffffffffffffffff168152602001908152602001600020613f5f90919063ffffffff16565b5061365681600160008573ffffffffffffffffffffffffffffffffffffffff1673ffffffffffffffffffffffffffffffffffffffff168152602001908152602001600020613f7990919063ffffffff16565b5061366d81836002613f939092919063ffffffff16565b50808273ffffffffffffffffffffffffffffffffffffffff168473ffffffffffffffffffffffffffffffffffffffff167fddf252ad1be2c89b69c2b068fc378daa952ba7f163c4a11628f55a4df523b3ef60405160405180910390a4505050565b60006136dd8360000183613fc8565b60001c905092915050565b60608082905060005b81518110156137fc577f610000000000000000000000000000000000000000000000000000000000000060f81c60ff1682828151811061372d57fe5b602001015160f81c60f81b60f81c60ff161015801561378e57507f7a0000000000000000000000000000000000000000000000000000000000000060f81c60ff1682828151811061377a57fe5b602001015160f81c60f81b60f81c60ff1611155b156137ef5760208282815181106137a157fe5b602001015160f81c60f81b60f81c0360f81b8282815181106137bf57fe5b60200101907effffffffffffffffffffffffffffffffffffffffffffffffffffffffffffff1916908160001a9053505b80806001019150506136f1565b5080925082915050919050565b60008060008061381c866000018661404b565b915091508160001c8160001c9350935050509250929050565b6000613848846000018460001b846140e4565b60001c90509392505050565b6000613862826000016141da565b9050919050565b600061387482611c2b565b905061388281600084613f5a565b61388d6000836132c9565b600060086000848152602001908152602001600020805460018160011615610100020316600290049050146138dc576008600083815260200190815260200160002060006138db9190614b7e565b5b61392d82600160008473ffffffffffffffffffffffffffffffffffffffff1673ffffffffffffffffffffffffffffffffffffffff168152602001908152602001600020613f5f90919063ffffffff16565b506139428260026141eb90919063ffffffff16565b5081600073ffffffffffffffffffffffffffffffffffffffff168273ffffffffffffffffffffffffffffffffffffffff167fddf252ad1be2c89b69c2b068fc378daa952ba7f163c4a11628f55a4df523b3ef60405160405180910390a45050565b6139ae84848461348b565b6139ba84848484614205565b613a0f576040517f08c379a0000000000000000000000000000000000000000000000000000000008152600401808060200182810382526032815260200180614c066032913960400191505060405180910390fd5b50505050565b600073ffffffffffffffffffffffffffffffffffffffff168273ffffffffffffffffffffffffffffffffffffffff161415613ab8576040517f08c379a00000000000000000000000000000000000000000000000000000000081526004018080602001828103825260208152602001807f4552433732313a206d696e7420746f20746865207a65726f206164647265737381525060200191505060405180910390fd5b613ac1816132a4565b15613b34576040517f08c379a000000000000000000000000000000000000000000000000000000000815260040180806020018281038252601c8152602001807f4552433732313a20746f6b656e20616c7265616479206d696e7465640000000081525060200191505060405180910390fd5b613b4060008383613f5a565b613b9181600160008573ffffffffffffffffffffffffffffffffffffffff1673ffffffffffffffffffffffffffffffffffffffff168152602001908152602001600020613f7990919063ffffffff16565b50613ba881836002613f939092919063ffffffff16565b50808273ffffffffffffffffffffffffffffffffffffffff16600073ffffffffffffffffffffffffffffffffffffffff167fddf252ad1be2c89b69c2b068fc378daa952ba7f163c4a11628f55a4df523b3ef60405160405180910390a45050565b60606000821415613c51576040518060400160405280600181526020017f30000000000000000000000000000000000000000000000000000000000000008152509050613d4b565b600082905060005b60008214613c7b578080600101915050600a8281613c7357fe5b049150613c59565b60608167ffffffffffffffff81118015613c9457600080fd5b506040519080825280601f01601f191660200182016040528015613cc75781602001600182028036833780820191505090505b50905060006001830390508593505b60008414613d4357600a8481613ce857fe5b0660300160f81b82828060019003935081518110613d0257fe5b60200101907effffffffffffffffffffffffffffffffffffffffffffffffffffffffffffff1916908160001a905350600a8481613d3b57fe5b049350613cd6565b819450505050505b919050565b606060006064905060608167ffffffffffffffff81118015613d7157600080fd5b506040519080825280601f01601f191660200182016040528015613da45781602001600182028036833780820191505090505b509050600080851415613df1576040518060400160405280600181526020017f30000000000000000000000000000000000000000000000000000000000000008152509350505050613f2a565b5b60008514613e64576000600a8681613e0657fe5b069050600a8681613e1357fe5b0495508060300160f81b838380600101945081518110613e2f57fe5b60200101907effffffffffffffffffffffffffffffffffffffffffffffffffffffffffffff1916908160001a90535050613df2565b60606001820167ffffffffffffffff81118015613e8057600080fd5b506040519080825280601f01601f191660200182016040528015613eb35781602001600182028036833780820191505090505b50905060005b828111613f21578381840381518110613ece57fe5b602001015160f81c60f81b828281518110613ee557fe5b60200101907effffffffffffffffffffffffffffffffffffffffffffffffffffffffffffff1916908160001a9053508080600101915050613eb9565b50809450505050505b919050565b6000613f41836000018360001b61441e565b905092915050565b600081600001805490509050919050565b505050565b6000613f71836000018360001b614441565b905092915050565b6000613f8b836000018360001b614529565b905092915050565b6000613fbf846000018460001b8473ffffffffffffffffffffffffffffffffffffffff1660001b614599565b90509392505050565b600081836000018054905011614029576040517f08c379a0000000000000000000000000000000000000000000000000000000008152600401808060200182810382526022815260200180614be46022913960400191505060405180910390fd5b82600001828154811061403857fe5b9060005260206000200154905092915050565b600080828460000180549050116140ad576040517f08c379a0000000000000000000000000000000000000000000000000000000008152600401808060200182810382526022815260200180614d396022913960400191505060405180910390fd5b60008460000184815481106140be57fe5b906000526020600020906002020190508060000154816001015492509250509250929050565b600080846001016000858152602001908152602001600020549050600081141583906141ab576040517f08c379a00000000000000000000000000000000000000000000000000000000081526004018080602001828103825283818151815260200191508051906020019080838360005b83811015614170578082015181840152602081019050614155565b50505050905090810190601f16801561419d5780820380516001836020036101000a031916815260200191505b509250505060405180910390fd5b508460000160018203815481106141be57fe5b9060005260206000209060020201600101549150509392505050565b600081600001805490509050919050565b60006141fd836000018360001b614675565b905092915050565b60006142268473ffffffffffffffffffffffffffffffffffffffff1661478e565b6142335760019050614416565b606061439d63150b7a0260e01b6142486132c1565b888787604051602401808573ffffffffffffffffffffffffffffffffffffffff1681526020018473ffffffffffffffffffffffffffffffffffffffff16815260200183815260200180602001828103825283818151815260200191508051906020019080838360005b838110156142cc5780820151818401526020810190506142b1565b50505050905090810190601f1680156142f95780820380516001836020036101000a031916815260200191505b5095505050505050604051602081830303815290604052907bffffffffffffffffffffffffffffffffffffffffffffffffffffffff19166020820180517bffffffffffffffffffffffffffffffffffffffffffffffffffffffff8381831617835250505050604051806060016040528060328152602001614c06603291398773ffffffffffffffffffffffffffffffffffffffff166147a19092919063ffffffff16565b905060008180602001905160208110156143b657600080fd5b8101908080519060200190929190505050905063150b7a0260e01b7bffffffffffffffffffffffffffffffffffffffffffffffffffffffff1916817bffffffffffffffffffffffffffffffffffffffffffffffffffffffff191614925050505b949350505050565b600080836001016000848152602001908152602001600020541415905092915050565b6000808360010160008481526020019081526020016000205490506000811461451d576000600182039050600060018660000180549050039050600086600001828154811061448c57fe5b90600052602060002001549050808760000184815481106144a957fe5b90600052602060002001819055506001830187600101600083815260200190815260200160002081905550866000018054806144e157fe5b60019003818190600052602060002001600090559055866001016000878152602001908152602001600020600090556001945050505050614523565b60009150505b92915050565b600061453583836147b9565b61458e578260000182908060018154018082558091505060019003906000526020600020016000909190919091505582600001805490508360010160008481526020019081526020016000208190555060019050614593565b600090505b92915050565b60008084600101600085815260200190815260200160002054905060008114156146405784600001604051806040016040528086815260200185815250908060018154018082558091505060019003906000526020600020906002020160009091909190915060008201518160000155602082015181600101555050846000018054905085600101600086815260200190815260200160002081905550600191505061466e565b8285600001600183038154811061465357fe5b90600052602060002090600202016001018190555060009150505b9392505050565b6000808360010160008481526020019081526020016000205490506000811461478257600060018203905060006001866000018054905003905060008660000182815481106146c057fe5b90600052602060002090600202019050808760000184815481106146e057fe5b906000526020600020906002020160008201548160000155600182015481600101559050506001830187600101600083600001548152602001908152602001600020819055508660000180548061473357fe5b6001900381819060005260206000209060020201600080820160009055600182016000905550509055866001016000878152602001908152602001600020600090556001945050505050614788565b60009150505b92915050565b600080823b905060008111915050919050565b60606147b084846000856147dc565b90509392505050565b600080836001016000848152602001908152602001600020541415905092915050565b606082471015614837576040517f08c379a0000000000000000000000000000000000000000000000000000000008152600401808060200182810382526026815260200180614c5c6026913960400191505060405180910390fd5b6148408561478e565b6148b2576040517f08c379a000000000000000000000000000000000000000000000000000000000815260040180806020018281038252601d8152602001807f416464726573733a2063616c6c20746f206e6f6e2d636f6e747261637400000081525060200191505060405180910390fd5b600060608673ffffffffffffffffffffffffffffffffffffffff1685876040518082805190602001908083835b6020831061490257805182526020820191506020810190506020830392506148df565b6001836020036101000a03801982511681845116808217855250505050505090500191505060006040518083038185875af1925050503d8060008114614964576040519150601f19603f3d011682016040523d82523d6000602084013e614969565b606091505b5091509150614979828286614985565b92505050949350505050565b6060831561499557829050614a4a565b6000835111156149a85782518084602001fd5b816040517f08c379a00000000000000000000000000000000000000000000000000000000081526004018080602001828103825283818151815260200191508051906020019080838360005b83811015614a0f5780820151818401526020810190506149f4565b50505050905090810190601f168015614a3c5780820380516001836020036101000a031916815260200191505b509250505060405180910390fd5b9392505050565b828054600181600116156101000203166002900490600052602060002090601f016020900481019282614a875760008555614ace565b82601f10614aa057805160ff1916838001178555614ace565b82800160010185558215614ace579182015b82811115614acd578251825591602001919060010190614ab2565b5b509050614adb9190614bc6565b5090565b828054828255906000526020600020908101928215614b205760005260206000209182015b82811115614b1f578254825591600101919060010190614b04565b5b509050614b2d9190614bc6565b5090565b828054828255906000526020600020908101928215614b6d579160200282015b82811115614b6c578251825591602001919060010190614b51565b5b509050614b7a9190614bc6565b5090565b50805460018160011615610100020316600290046000825580601f10614ba45750614bc3565b601f016020900490600052602060002090810190614bc29190614bc6565b5b50565b5b80821115614bdf576000816000905550600101614bc7565b509056fe456e756d657261626c655365743a20696e646578206f7574206f6620626f756e64734552433732313a207472616e7366657220746f206e6f6e20455243373231526563656976657220696d706c656d656e7465724552433732313a207472616e7366657220746f20746865207a65726f2061646472657373416464726573733a20696e73756666696369656e742062616c616e636520666f722063616c6c4552433732313a206f70657261746f7220717565727920666f72206e6f6e6578697374656e7420746f6b656e4552433732313a20617070726f76652063616c6c6572206973206e6f74206f776e6572206e6f7220617070726f76656420666f7220616c6c4552433732313a2062616c616e636520717565727920666f7220746865207a65726f20616464726573734552433732313a206f776e657220717565727920666f72206e6f6e6578697374656e7420746f6b656e456e756d657261626c654d61703a20696e646578206f7574206f6620626f756e64734552433732313a20617070726f76656420717565727920666f72206e6f6e6578697374656e7420746f6b656e4552433732313a207472616e73666572206f6620746f6b656e2074686174206973206e6f74206f776e4552433732314d657461646174613a2055524920717565727920666f72206e6f6e6578697374656e7420746f6b656e4552433732313a20617070726f76616c20746f2063757272656e74206f776e65724552433732313a207472616e736665722063616c6c6572206973206e6f74206f776e6572206e6f7220617070726f766564a26469706673582212201b83c1ca0dc8e2a438af835c63d49b0eaadb62518e444599e4baf68952c9e15464736f6c63430007040033",
  "immutableReferences": {},
  "source": "// SPDX-License-Identifier: MIT\npragma solidity >=0.4.22 <0.8.4;\n\nimport \"./ERC721_FORKED.sol\";\n\ncontract NftFactory is ERC721_FORKED {\n  string internal _name;\n  string internal _symbol;\n  string internal _description;\n  // Total tokens starts at 0 because each new token must be minted and the\n  // _mint() call adds 1 to totalTokens\n  uint256 totalTokens = 0;\n\n  address internal _creator;\n\n  address internal feeAccount; // the account that receives exchange\n  uint256 internal feePercent; // the fee percentage\n\n  // Mapping from token ID to owner\n  mapping(uint256 => address) tokenOwner;\n\n  // Mapping from owner to list of owned token IDs\n  mapping(address => uint256[]) public ownedTokens;\n\n  // Mapping from token ID to index of the owner tokens list\n  mapping(uint256 => uint256) ownedTokensIndex;\n\n  // Metadata is a URL that points to a json dictionary\n  mapping(uint256 => string) tokenIdToMetadata;\n\n  // mapping from symbol to full registration info\n  mapping(string => REGISTRY) public registries;\n\n  event MetadataAssigned(address indexed _owner, uint256 _tokenId, string _url);\n\n  /**\n   * its a struct to save every registry been made and store it to fetch any registry by chosing the symbol only\n   * also good for making sure that symbols should be unique\n   */\n  struct REGISTRY {\n    string name;\n    string symbol;\n    string description;\n    address creator;\n  }\n\n  /**\n   * a registry function that iis been called by the NFT registry smart contract\n   */\n\n  function Registry(\n    string memory name,\n    string memory symbol,\n    string memory description,\n    address caller\n  ) public {\n    symbol = _upperCase(symbol);\n\n    _name = name;\n    _symbol = symbol;\n    _description = description;\n    _creator = caller;\n    totalTokens = 0;\n\n    registries[symbol] = REGISTRY(name, symbol, description, msg.sender);\n  }\n\n  /**\n   * a modifier to make sure that the address exists\n   */\n  modifier isOwnedToken(uint256 _tokenId) {\n    require(ownerOf(_tokenId) != address(0));\n    _;\n  }\n\n  /**\n   * this function assignes the URI to automaticlay add the id number at the end of the URI\n   */\n  function assignDataToToken(uint256 id, string memory uri) public {\n    require(msg.sender == _creator);\n    bytes memory _url = bytes(uri);\n\n    _url = abi.encodePacked(_url, bytes(\"/\"));\n    _url = abi.encodePacked(_url, _uintToBytes(id));\n    _url = abi.encodePacked(_url, bytes(\".json\"));\n\n    tokenIdToMetadata[id] = string(_url);\n    MetadataAssigned(ownerOf(id), id, string(_url));\n  }\n\n  /**\n   * this function helps with queries to Fetch the metadata for a givine token id\n   */\n  function getMetadataAtID(uint256 _tokenId)\n    public\n    view\n    returns (string memory)\n  {\n    return tokenIdToMetadata[_tokenId];\n  }\n\n  /**\n   * this function helps with queries to Fetch the owner address of the token by givine token id\n   */\n  function getTokenOwner(uint256 id) public view returns (address) {\n    return tokenOwner[id];\n  }\n\n  /**\n   * this function helps with queries to Fetch all the tokens that the address owns by givine address\n   */\n  function tokensOf(address _owner) public view returns (uint256[] memory) {\n    require(_owner != address(0), \"invalid owner\");\n    return ownedTokens[_owner];\n  }\n\n  /**\n   * this function allows to approve more than one token id at once\n   */\n  function approveMany(address _to, uint256[] memory _tokenIds) public {\n    /* Allows bulk-approval of many tokens. This function is useful for\n       exchanges where users can make a single tx to enable the call of\n       transferFrom for those tokens by an exchange contract. */\n    for (uint256 i = 0; i < _tokenIds.length; i++) {\n      // approve handles the check for if one who is approving is the owner.\n      approve(_to, _tokenIds[i]);\n    }\n  }\n\n  /**\n   * this function allows to approve all the tokens the address owns at once\n   */\n  function approveAll(address _to) public {\n    uint256[] memory tokens = tokensOf(msg.sender);\n    for (uint256 t = 0; t < tokens.length; t++) {\n      approve(_to, tokens[t]);\n    }\n  }\n\n  /**\n   * this overload function allows to transfer tokens and updates all the mapping queries(without filling the URI)  \n   */\n  function safeTransferFrom(\n    address from,\n    address to,\n    uint256 tokenId\n  ) public virtual override {\n    require(from != address(0), \"invalid address\");\n    require(to != address(0), \"invalid address\");\n    // add require to make sure that the tokenid exsistes\n    safeTransferFrom(from, to, tokenId, \"\");\n  }\n\n  /**\n   * this overload function allows to transfer tokens and updates all the mapping queries(with filling the URI)  \n   */\n  function safeTransferFrom(\n    address from,\n    address to,\n    uint256 tokenId,\n    bytes memory _data\n  ) public virtual override {\n    require(\n      _isApprovedOrOwner(_msgSender(), tokenId),\n      \"ERC721: transfer caller is not owner nor approved\"\n    );\n    require(from != address(0), \"invalid address\");\n    require(to != address(0), \"invalid address\");\n    _safeTransfer(from, to, tokenId, _data);\n    tokenOwner[tokenId] = to;\n    uint256[] memory fromIds = ownedTokens[from];\n    uint256[] memory newFromIds = new uint256[](fromIds.length - 1);\n    uint256[] storage toIds = ownedTokens[to];\n    toIds.push(tokenId);\n    ownedTokens[to] = toIds;\n    uint256 j = 0;\n    for (uint256 i = 0; i < fromIds.length; i++) {\n      if (fromIds[i] != tokenId) newFromIds[j++] = (fromIds[i]);\n    }\n    ownedTokens[from] = newFromIds;\n  }\n\n  /**\n   * this function allows to mint more of your NFT  \n   */\n  function Mint(string memory url) public {\n    require(msg.sender == _creator);\n    uint256 currentTokenCount = totalSupply();\n    // The index of the newest token is at the # totalTokens.\n    _mint(msg.sender, currentTokenCount);\n    // assign id to owner\n    tokenOwner[currentTokenCount] = msg.sender;\n    // assign address to array of owned tokens aned you can qury what ids the address owns\n    uint256[] storage ids = ownedTokens[msg.sender];\n    ids.push(currentTokenCount);\n    ownedTokens[msg.sender] = ids;\n    // _mint() call adds 1 to total tokens, but we want the token at index - 1\n    tokenIdToMetadata[currentTokenCount] = url;\n  }\n\n  /**\n   * this function allows you to change the address that is going to receive the fee amount  \n   */\n  function ChangeFeeAccount(address newFeeAccount) public returns (bool) {\n    feeAccount = newFeeAccount;\n    return true;\n  }\n\n  /**\n   * this function allows you to change the Fee percent  \n   */\n  function ChangeFeePercent(uint256 newFeePercent) public returns (bool) {\n    feePercent = newFeePercent;\n    return true;\n  }\n\n  /**\n   * this function allows you burn your NFT  \n   */\n  function burn(string memory symbol, uint256 _id) public returns (bool) {\n    require(registries[symbol].creator == msg.sender);\n    _burn(_id);\n    delete tokenOwner[_id];\n    return true;\n  }\n\n  /**\n   * this function is been created just to convert uint variable to bytes\n   *(private function only used in the \"assignDataToToken\" function in order to convert the uint variable to bytes\n   * in order to concatenate it )  \n   */\n  function _uintToBytes(uint256 _int) internal pure returns (bytes memory) {\n    uint256 maxlength = 100;\n    bytes memory reversed = new bytes(maxlength);\n    uint256 i = 0;\n    if (_int == 0) return bytes(\"0\");\n    while (_int != 0) {\n      uint256 remainder = _int % 10;\n      _int = _int / 10;\n      reversed[i++] = bytes1(uint8(48 + remainder));\n    }\n    bytes memory s = new bytes(i + 1);\n    for (uint256 j = 0; j <= i; j++) {\n      s[j] = reversed[i - j];\n    }\n    return s;\n  }\n\n  /**\n   * this function is been created just to convert small strings to capital \n   *(private function only used in functions that we want to make the symbol auto capital \n   * in order to concatenate it )  \n   */\n\n  function _upperCase(string memory enter)\n    internal\n    pure\n    returns (string memory)\n  {\n    bytes memory strbyte = bytes(enter);\n    for (uint256 i = 0; i < strbyte.length; i++) {\n      if (\n        uint8(strbyte[i]) >= uint8(bytes1(\"a\")) &&\n        uint8(strbyte[i]) <= uint8(bytes1(\"z\"))\n      ) strbyte[i] = bytes1(uint8(strbyte[i]) - 32);\n    }\n    enter = string(strbyte);\n    return enter;\n  }\n}\n",
  "sourcePath": "C:/Users/Zaid/Desktop/fix the problem/NFT_Contract_Factory-master/src/contracts/NftFactory.sol",
  "compiler": {
    "name": "solc",
    "version": "0.7.4+commit.3f05b770.Emscripten.clang"
  },
  "schemaVersion": "3.3.4",
  "updatedAt": "2021-04-04T19:07:09.613Z",
  "devdoc": {
    "kind": "dev",
    "methods": {
      "approve(address,uint256)": {
        "details": "See {IERC721-approve}."
      },
      "balanceOf(address)": {
        "details": "See {IERC721-balanceOf}."
      },
      "baseURI()": {
        "details": "Returns the base URI set via {_setBaseURI}. This will be automatically added as a prefix in {tokenURI} to each token's URI, or to the token ID if no specific URI is set for that token ID."
      },
      "getApproved(uint256)": {
        "details": "See {IERC721-getApproved}."
      },
      "isApprovedForAll(address,address)": {
        "details": "See {IERC721-isApprovedForAll}."
      },
      "name()": {
        "details": "See {IERC721Metadata-name}."
      },
      "ownerOf(uint256)": {
        "details": "See {IERC721-ownerOf}."
      },
      "setApprovalForAll(address,bool)": {
        "details": "See {IERC721-setApprovalForAll}."
      },
      "supportsInterface(bytes4)": {
        "details": "See {IERC165-supportsInterface}. Time complexity O(1), guaranteed to always use less than 30 000 gas."
      },
      "symbol()": {
        "details": "See {IERC721Metadata-symbol}."
      },
      "tokenByIndex(uint256)": {
        "details": "See {IERC721Enumerable-tokenByIndex}."
      },
      "tokenOfOwnerByIndex(address,uint256)": {
        "details": "See {IERC721Enumerable-tokenOfOwnerByIndex}."
      },
      "tokenURI(uint256)": {
        "details": "See {IERC721Metadata-tokenURI}."
      },
      "totalSupply()": {
        "details": "See {IERC721Enumerable-totalSupply}."
      },
      "transferFrom(address,address,uint256)": {
        "details": "See {IERC721-transferFrom}."
      }
    },
    "version": 1
  },
  "userdoc": {
    "kind": "user",
    "methods": {
      "ChangeFeeAccount(address)": {
        "notice": "this function allows you to change the address that is going to receive the fee amount  "
      },
      "ChangeFeePercent(uint256)": {
        "notice": "this function allows you to change the Fee percent  "
      },
      "Mint(string)": {
        "notice": "this function allows to mint more of your NFT  "
      },
      "Registry(string,string,string,address)": {
        "notice": "a registry function that iis been called by the NFT registry smart contract"
      },
      "approveAll(address)": {
        "notice": "this function allows to approve all the tokens the address owns at once"
      },
      "approveMany(address,uint256[])": {
        "notice": "this function allows to approve more than one token id at once"
      },
      "assignDataToToken(uint256,string)": {
        "notice": "this function assignes the URI to automaticlay add the id number at the end of the URI"
      },
      "burn(string,uint256)": {
        "notice": "this function allows you burn your NFT  "
      },
      "getMetadataAtID(uint256)": {
        "notice": "this function helps with queries to Fetch the metadata for a givine token id"
      },
      "getTokenOwner(uint256)": {
        "notice": "this function helps with queries to Fetch the owner address of the token by givine token id"
      },
      "safeTransferFrom(address,address,uint256)": {
        "notice": "this overload function allows to transfer tokens and updates all the mapping queries(without filling the URI)  "
      },
      "safeTransferFrom(address,address,uint256,bytes)": {
        "notice": "this overload function allows to transfer tokens and updates all the mapping queries(with filling the URI)  "
      },
      "tokensOf(address)": {
        "notice": "this function helps with queries to Fetch all the tokens that the address owns by givine address"
      }
    },
    "version": 1
  }
}