{
  "contractName": "NftRegistry",
  "abi": [
    {
      "inputs": [
        {
          "internalType": "address",
          "name": "_feeAccount",
          "type": "address"
        },
        {
          "internalType": "uint256",
          "name": "_feePercent",
          "type": "uint256"
        }
      ],
      "stateMutability": "nonpayable",
      "type": "constructor"
    },
    {
      "anonymous": false,
      "inputs": [
        {
          "indexed": true,
          "internalType": "address",
          "name": "owner",
          "type": "address"
        },
        {
          "indexed": true,
          "internalType": "address",
          "name": "approved",
          "type": "address"
        },
        {
          "indexed": true,
          "internalType": "uint256",
          "name": "tokenId",
          "type": "uint256"
        }
      ],
      "name": "Approval",
      "type": "event"
    },
    {
      "anonymous": false,
      "inputs": [
        {
          "indexed": true,
          "internalType": "address",
          "name": "owner",
          "type": "address"
        },
        {
          "indexed": true,
          "internalType": "address",
          "name": "operator",
          "type": "address"
        },
        {
          "indexed": false,
          "internalType": "bool",
          "name": "approved",
          "type": "bool"
        }
      ],
      "name": "ApprovalForAll",
      "type": "event"
    },
    {
      "anonymous": false,
      "inputs": [
        {
          "indexed": true,
          "internalType": "address",
          "name": "_owner",
          "type": "address"
        },
        {
          "indexed": false,
          "internalType": "uint256",
          "name": "_tokenId",
          "type": "uint256"
        },
        {
          "indexed": false,
          "internalType": "string",
          "name": "_url",
          "type": "string"
        }
      ],
      "name": "MetadataAssigned",
      "type": "event"
    },
    {
      "anonymous": false,
      "inputs": [
        {
          "indexed": false,
          "internalType": "string",
          "name": "name",
          "type": "string"
        },
        {
          "indexed": false,
          "internalType": "string",
          "name": "symbol",
          "type": "string"
        },
        {
          "indexed": false,
          "internalType": "string",
          "name": "description",
          "type": "string"
        },
        {
          "indexed": false,
          "internalType": "address",
          "name": "caller",
          "type": "address"
        }
      ],
      "name": "RegistryCreated",
      "type": "event"
    },
    {
      "anonymous": false,
      "inputs": [
        {
          "indexed": true,
          "internalType": "address",
          "name": "from",
          "type": "address"
        },
        {
          "indexed": true,
          "internalType": "address",
          "name": "to",
          "type": "address"
        },
        {
          "indexed": true,
          "internalType": "uint256",
          "name": "tokenId",
          "type": "uint256"
        }
      ],
      "name": "Transfer",
      "type": "event"
    },
    {
      "inputs": [
        {
          "internalType": "address",
          "name": "newFeeAccount",
          "type": "address"
        }
      ],
      "name": "ChangeFeeAccount",
      "outputs": [
        {
          "internalType": "bool",
          "name": "",
          "type": "bool"
        }
      ],
      "stateMutability": "nonpayable",
      "type": "function"
    },
    {
      "inputs": [
        {
          "internalType": "uint256",
          "name": "newFeePercent",
          "type": "uint256"
        }
      ],
      "name": "ChangeFeePercent",
      "outputs": [
        {
          "internalType": "bool",
          "name": "",
          "type": "bool"
        }
      ],
      "stateMutability": "nonpayable",
      "type": "function"
    },
    {
      "inputs": [
        {
          "internalType": "string",
          "name": "url",
          "type": "string"
        }
      ],
      "name": "Mint",
      "outputs": [],
      "stateMutability": "nonpayable",
      "type": "function"
    },
    {
      "inputs": [
        {
          "internalType": "string",
          "name": "name",
          "type": "string"
        },
        {
          "internalType": "string",
          "name": "symbol",
          "type": "string"
        },
        {
          "internalType": "string",
          "name": "description",
          "type": "string"
        },
        {
          "internalType": "address",
          "name": "caller",
          "type": "address"
        }
      ],
      "name": "Registry",
      "outputs": [],
      "stateMutability": "nonpayable",
      "type": "function"
    },
    {
      "inputs": [
        {
          "internalType": "address",
          "name": "to",
          "type": "address"
        },
        {
          "internalType": "uint256",
          "name": "tokenId",
          "type": "uint256"
        }
      ],
      "name": "approve",
      "outputs": [],
      "stateMutability": "nonpayable",
      "type": "function"
    },
    {
      "inputs": [
        {
          "internalType": "address",
          "name": "_to",
          "type": "address"
        }
      ],
      "name": "approveAll",
      "outputs": [],
      "stateMutability": "nonpayable",
      "type": "function"
    },
    {
      "inputs": [
        {
          "internalType": "address",
          "name": "_to",
          "type": "address"
        },
        {
          "internalType": "uint256[]",
          "name": "_tokenIds",
          "type": "uint256[]"
        }
      ],
      "name": "approveMany",
      "outputs": [],
      "stateMutability": "nonpayable",
      "type": "function"
    },
    {
      "inputs": [
        {
          "internalType": "uint256",
          "name": "id",
          "type": "uint256"
        },
        {
          "internalType": "string",
          "name": "uri",
          "type": "string"
        }
      ],
      "name": "assignDataToToken",
      "outputs": [],
      "stateMutability": "nonpayable",
      "type": "function"
    },
    {
      "inputs": [
        {
          "internalType": "address",
          "name": "owner",
          "type": "address"
        }
      ],
      "name": "balanceOf",
      "outputs": [
        {
          "internalType": "uint256",
          "name": "",
          "type": "uint256"
        }
      ],
      "stateMutability": "view",
      "type": "function",
      "constant": true
    },
    {
      "inputs": [],
      "name": "baseURI",
      "outputs": [
        {
          "internalType": "string",
          "name": "",
          "type": "string"
        }
      ],
      "stateMutability": "view",
      "type": "function",
      "constant": true
    },
    {
      "inputs": [
        {
          "internalType": "string",
          "name": "symbol",
          "type": "string"
        },
        {
          "internalType": "uint256",
          "name": "_id",
          "type": "uint256"
        }
      ],
      "name": "burn",
      "outputs": [
        {
          "internalType": "bool",
          "name": "",
          "type": "bool"
        }
      ],
      "stateMutability": "nonpayable",
      "type": "function"
    },
    {
      "inputs": [
        {
          "internalType": "uint256",
          "name": "tokenId",
          "type": "uint256"
        }
      ],
      "name": "getApproved",
      "outputs": [
        {
          "internalType": "address",
          "name": "",
          "type": "address"
        }
      ],
      "stateMutability": "view",
      "type": "function",
      "constant": true
    },
    {
      "inputs": [
        {
          "internalType": "uint256",
          "name": "_tokenId",
          "type": "uint256"
        }
      ],
      "name": "getMetadataAtID",
      "outputs": [
        {
          "internalType": "string",
          "name": "",
          "type": "string"
        }
      ],
      "stateMutability": "view",
      "type": "function",
      "constant": true
    },
    {
      "inputs": [
        {
          "internalType": "uint256",
          "name": "id",
          "type": "uint256"
        }
      ],
      "name": "getTokenOwner",
      "outputs": [
        {
          "internalType": "address",
          "name": "",
          "type": "address"
        }
      ],
      "stateMutability": "view",
      "type": "function",
      "constant": true
    },
    {
      "inputs": [
        {
          "internalType": "address",
          "name": "owner",
          "type": "address"
        },
        {
          "internalType": "address",
          "name": "operator",
          "type": "address"
        }
      ],
      "name": "isApprovedForAll",
      "outputs": [
        {
          "internalType": "bool",
          "name": "",
          "type": "bool"
        }
      ],
      "stateMutability": "view",
      "type": "function",
      "constant": true
    },
    {
      "inputs": [],
      "name": "name",
      "outputs": [
        {
          "internalType": "string",
          "name": "",
          "type": "string"
        }
      ],
      "stateMutability": "view",
      "type": "function",
      "constant": true
    },
    {
      "inputs": [
        {
          "internalType": "address",
          "name": "",
          "type": "address"
        },
        {
          "internalType": "uint256",
          "name": "",
          "type": "uint256"
        }
      ],
      "name": "ownedTokens",
      "outputs": [
        {
          "internalType": "uint256",
          "name": "",
          "type": "uint256"
        }
      ],
      "stateMutability": "view",
      "type": "function",
      "constant": true
    },
    {
      "inputs": [
        {
          "internalType": "uint256",
          "name": "tokenId",
          "type": "uint256"
        }
      ],
      "name": "ownerOf",
      "outputs": [
        {
          "internalType": "address",
          "name": "",
          "type": "address"
        }
      ],
      "stateMutability": "view",
      "type": "function",
      "constant": true
    },
    {
      "inputs": [
        {
          "internalType": "string",
          "name": "",
          "type": "string"
        }
      ],
      "name": "registries",
      "outputs": [
        {
          "internalType": "string",
          "name": "name",
          "type": "string"
        },
        {
          "internalType": "string",
          "name": "symbol",
          "type": "string"
        },
        {
          "internalType": "string",
          "name": "description",
          "type": "string"
        },
        {
          "internalType": "address",
          "name": "creator",
          "type": "address"
        }
      ],
      "stateMutability": "view",
      "type": "function",
      "constant": true
    },
    {
      "inputs": [
        {
          "internalType": "address",
          "name": "from",
          "type": "address"
        },
        {
          "internalType": "address",
          "name": "to",
          "type": "address"
        },
        {
          "internalType": "uint256",
          "name": "tokenId",
          "type": "uint256"
        }
      ],
      "name": "safeTransferFrom",
      "outputs": [],
      "stateMutability": "nonpayable",
      "type": "function"
    },
    {
      "inputs": [
        {
          "internalType": "address",
          "name": "from",
          "type": "address"
        },
        {
          "internalType": "address",
          "name": "to",
          "type": "address"
        },
        {
          "internalType": "uint256",
          "name": "tokenId",
          "type": "uint256"
        },
        {
          "internalType": "bytes",
          "name": "_data",
          "type": "bytes"
        }
      ],
      "name": "safeTransferFrom",
      "outputs": [],
      "stateMutability": "nonpayable",
      "type": "function"
    },
    {
      "inputs": [
        {
          "internalType": "address",
          "name": "operator",
          "type": "address"
        },
        {
          "internalType": "bool",
          "name": "approved",
          "type": "bool"
        }
      ],
      "name": "setApprovalForAll",
      "outputs": [],
      "stateMutability": "nonpayable",
      "type": "function"
    },
    {
      "inputs": [
        {
          "internalType": "bytes4",
          "name": "interfaceId",
          "type": "bytes4"
        }
      ],
      "name": "supportsInterface",
      "outputs": [
        {
          "internalType": "bool",
          "name": "",
          "type": "bool"
        }
      ],
      "stateMutability": "view",
      "type": "function",
      "constant": true
    },
    {
      "inputs": [],
      "name": "symbol",
      "outputs": [
        {
          "internalType": "string",
          "name": "",
          "type": "string"
        }
      ],
      "stateMutability": "view",
      "type": "function",
      "constant": true
    },
    {
      "inputs": [
        {
          "internalType": "uint256",
          "name": "index",
          "type": "uint256"
        }
      ],
      "name": "tokenByIndex",
      "outputs": [
        {
          "internalType": "uint256",
          "name": "",
          "type": "uint256"
        }
      ],
      "stateMutability": "view",
      "type": "function",
      "constant": true
    },
    {
      "inputs": [
        {
          "internalType": "address",
          "name": "owner",
          "type": "address"
        },
        {
          "internalType": "uint256",
          "name": "index",
          "type": "uint256"
        }
      ],
      "name": "tokenOfOwnerByIndex",
      "outputs": [
        {
          "internalType": "uint256",
          "name": "",
          "type": "uint256"
        }
      ],
      "stateMutability": "view",
      "type": "function",
      "constant": true
    },
    {
      "inputs": [
        {
          "internalType": "uint256",
          "name": "tokenId",
          "type": "uint256"
        }
      ],
      "name": "tokenURI",
      "outputs": [
        {
          "internalType": "string",
          "name": "",
          "type": "string"
        }
      ],
      "stateMutability": "view",
      "type": "function",
      "constant": true
    },
    {
      "inputs": [
        {
          "internalType": "address",
          "name": "_owner",
          "type": "address"
        }
      ],
      "name": "tokensOf",
      "outputs": [
        {
          "internalType": "uint256[]",
          "name": "",
          "type": "uint256[]"
        }
      ],
      "stateMutability": "view",
      "type": "function",
      "constant": true
    },
    {
      "inputs": [],
      "name": "totalSupply",
      "outputs": [
        {
          "internalType": "uint256",
          "name": "",
          "type": "uint256"
        }
      ],
      "stateMutability": "view",
      "type": "function",
      "constant": true
    },
    {
      "inputs": [
        {
          "internalType": "address",
          "name": "from",
          "type": "address"
        },
        {
          "internalType": "address",
          "name": "to",
          "type": "address"
        },
        {
          "internalType": "uint256",
          "name": "tokenId",
          "type": "uint256"
        }
      ],
      "name": "transferFrom",
      "outputs": [],
      "stateMutability": "nonpayable",
      "type": "function"
    },
    {
      "inputs": [
        {
          "internalType": "string",
          "name": "name",
          "type": "string"
        },
        {
          "internalType": "string",
          "name": "symbol",
          "type": "string"
        },
        {
          "internalType": "string",
          "name": "description",
          "type": "string"
        }
      ],
      "name": "createRegistry",
      "outputs": [
        {
          "internalType": "bool",
          "name": "",
          "type": "bool"
        }
      ],
      "stateMutability": "nonpayable",
      "type": "function"
    },
    {
      "inputs": [
        {
          "internalType": "string",
          "name": "symbol",
          "type": "string"
        }
      ],
      "name": "getRegistryAddress",
      "outputs": [
        {
          "internalType": "address",
          "name": "",
          "type": "address"
        }
      ],
      "stateMutability": "view",
      "type": "function",
      "constant": true
    }
  ],
  "bytecode": "0x60806040526000600d553480156200001657600080fd5b506040516200581838038062005818833981810160405260408110156200003c57600080fd5b8101908080519060200190929190805190602001909291905050506200006f6301ffc9a760e01b620000bf60201b60201c565b81600f60006101000a81548173ffffffffffffffffffffffffffffffffffffffff021916908373ffffffffffffffffffffffffffffffffffffffff160217905550806010819055505050620001c8565b63ffffffff60e01b817bffffffffffffffffffffffffffffffffffffffffffffffffffffffff191614156200015c576040517f08c379a000000000000000000000000000000000000000000000000000000000815260040180806020018281038252601c8152602001807f4552433136353a20696e76616c696420696e746572666163652069640000000081525060200191505060405180910390fd5b6001600080837bffffffffffffffffffffffffffffffffffffffffffffffffffffffff19167bffffffffffffffffffffffffffffffffffffffffffffffffffffffff1916815260200190815260200160002060006101000a81548160ff02191690831515021790555050565b61564080620001d86000396000f3fe608060405234801561001057600080fd5b50600436106101f05760003560e01c806370a082311161010f578063c548e761116100a2578063e149f03611610071578063e149f03614611428578063e268cd241461148a578063e69c20cf14611531578063e985e9c5146115f6576101f0565b8063c548e76114611043578063c5e1d7311461109d578063c87b56dd14611158578063df5cbf7d146111ff576101f0565b8063a22cb465116100de578063a22cb46514610dbb578063a5cd761f14610e0b578063b48272cc14610e63578063b88d4fde14610f3e576101f0565b806370a0823114610b2357806374b9982c14610b7b57806395d89b4114610c6057806399bb813414610ce3576101f0565b80632f745c59116101875780635a3f2672116101565780635a3f26721461096b5780636352211e14610a0457806367cdadf414610a5c5780636c0360eb14610aa0576101f0565b80632f745c591461065057806342842e0e146106b257806346f62f6c146107205780634f6ccce714610929576101f0565b8063081812fc116101c3578063081812fc1461051e578063095ea7b31461057657806318160ddd146105c457806323b872dd146105e2576101f0565b806301ffc9a7146101f5578063048a1792146102585780630621472c1461045757806306fdde031461049b575b600080fd5b6102406004803603602081101561020b57600080fd5b8101908080357bffffffffffffffffffffffffffffffffffffffffffffffffffffffff19169060200190929190505050611670565b60405180821515815260200191505060405180910390f35b61043f6004803603606081101561026e57600080fd5b810190808035906020019064010000000081111561028b57600080fd5b82018360208201111561029d57600080fd5b803590602001918460018302840111640100000000831117156102bf57600080fd5b91908080601f016020809104026020016040519081016040528093929190818152602001838380828437600081840152601f19601f8201169050808301925050505050505091929192908035906020019064010000000081111561032257600080fd5b82018360208201111561033457600080fd5b8035906020019184600183028401116401000000008311171561035657600080fd5b91908080601f016020809104026020016040519081016040528093929190818152602001838380828437600081840152601f19601f820116905080830192505050505050509192919290803590602001906401000000008111156103b957600080fd5b8201836020820111156103cb57600080fd5b803590602001918460018302840111640100000000831117156103ed57600080fd5b91908080601f016020809104026020016040519081016040528093929190818152602001838380828437600081840152601f19601f8201169050808301925050505050505091929192905050506116d7565b60405180821515815260200191505060405180910390f35b6104996004803603602081101561046d57600080fd5b81019080803573ffffffffffffffffffffffffffffffffffffffff1690602001909291905050506119d2565b005b6104a3611a1a565b6040518080602001828103825283818151815260200191508051906020019080838360005b838110156104e35780820151818401526020810190506104c8565b50505050905090810190601f1680156105105780820380516001836020036101000a031916815260200191505b509250505060405180910390f35b61054a6004803603602081101561053457600080fd5b8101908080359060200190929190505050611abc565b604051808273ffffffffffffffffffffffffffffffffffffffff16815260200191505060405180910390f35b6105c26004803603604081101561058c57600080fd5b81019080803573ffffffffffffffffffffffffffffffffffffffff16906020019092919080359060200190929190505050611b57565b005b6105cc611c9b565b6040518082815260200191505060405180910390f35b61064e600480360360608110156105f857600080fd5b81019080803573ffffffffffffffffffffffffffffffffffffffff169060200190929190803573ffffffffffffffffffffffffffffffffffffffff16906020019092919080359060200190929190505050611cac565b005b61069c6004803603604081101561066657600080fd5b81019080803573ffffffffffffffffffffffffffffffffffffffff16906020019092919080359060200190929190505050611d22565b6040518082815260200191505060405180910390f35b61071e600480360360608110156106c857600080fd5b81019080803573ffffffffffffffffffffffffffffffffffffffff169060200190929190803573ffffffffffffffffffffffffffffffffffffffff16906020019092919080359060200190929190505050611d7d565b005b6109276004803603608081101561073657600080fd5b810190808035906020019064010000000081111561075357600080fd5b82018360208201111561076557600080fd5b8035906020019184600183028401116401000000008311171561078757600080fd5b91908080601f016020809104026020016040519081016040528093929190818152602001838380828437600081840152601f19601f820116905080830192505050505050509192919290803590602001906401000000008111156107ea57600080fd5b8201836020820111156107fc57600080fd5b8035906020019184600183028401116401000000008311171561081e57600080fd5b91908080601f016020809104026020016040519081016040528093929190818152602001838380828437600081840152601f19601f8201169050808301925050505050505091929192908035906020019064010000000081111561088157600080fd5b82018360208201111561089357600080fd5b803590602001918460018302840111640100000000831117156108b557600080fd5b91908080601f016020809104026020016040519081016040528093929190818152602001838380828437600081840152601f19601f820116905080830192505050505050509192919290803573ffffffffffffffffffffffffffffffffffffffff169060200190929190505050611ee3565b005b6109556004803603602081101561093f57600080fd5b81019080803590602001909291905050506120c3565b6040518082815260200191505060405180910390f35b6109ad6004803603602081101561098157600080fd5b81019080803573ffffffffffffffffffffffffffffffffffffffff1690602001909291905050506120e6565b6040518080602001828103825283818151815260200191508051906020019060200280838360005b838110156109f05780820151818401526020810190506109d5565b505050509050019250505060405180910390f35b610a3060048036036020811015610a1a57600080fd5b8101908080359060200190929190505050612220565b604051808273ffffffffffffffffffffffffffffffffffffffff16815260200191505060405180910390f35b610a8860048036036020811015610a7257600080fd5b8101908080359060200190929190505050612257565b60405180821515815260200191505060405180910390f35b610aa8612269565b6040518080602001828103825283818151815260200191508051906020019080838360005b83811015610ae8578082015181840152602081019050610acd565b50505050905090810190601f168015610b155780820380516001836020036101000a031916815260200191505b509250505060405180910390f35b610b6560048036036020811015610b3957600080fd5b81019080803573ffffffffffffffffffffffffffffffffffffffff16906020019092919050505061230b565b6040518082815260200191505060405180910390f35b610c3460048036036020811015610b9157600080fd5b8101908080359060200190640100000000811115610bae57600080fd5b820183602082011115610bc057600080fd5b80359060200191846001830284011164010000000083111715610be257600080fd5b91908080601f016020809104026020016040519081016040528093929190818152602001838380828437600081840152601f19601f8201169050808301925050505050505091929192905050506123e0565b604051808273ffffffffffffffffffffffffffffffffffffffff16815260200191505060405180910390f35b610c686125c5565b6040518080602001828103825283818151815260200191508051906020019080838360005b83811015610ca8578082015181840152602081019050610c8d565b50505050905090810190601f168015610cd55780820380516001836020036101000a031916815260200191505b509250505060405180910390f35b610db960048036036040811015610cf957600080fd5b81019080803573ffffffffffffffffffffffffffffffffffffffff16906020019092919080359060200190640100000000811115610d3657600080fd5b820183602082011115610d4857600080fd5b80359060200191846020830284011164010000000083111715610d6a57600080fd5b919080806020026020016040519081016040528093929190818152602001838360200280828437600081840152601f19601f820116905080830192505050505050509192919290505050612667565b005b610e0960048036036040811015610dd157600080fd5b81019080803573ffffffffffffffffffffffffffffffffffffffff1690602001909291908035151590602001909291905050506126a2565b005b610e3760048036036020811015610e2157600080fd5b8101908080359060200190929190505050612858565b604051808273ffffffffffffffffffffffffffffffffffffffff16815260200191505060405180910390f35b610f2660048036036040811015610e7957600080fd5b8101908080359060200190640100000000811115610e9657600080fd5b820183602082011115610ea857600080fd5b80359060200191846001830284011164010000000083111715610eca57600080fd5b91908080601f016020809104026020016040519081016040528093929190818152602001838380828437600081840152601f19601f82011690508083019250505050505050919291929080359060200190929190505050612895565b60405180821515815260200191505060405180910390f35b61104160048036036080811015610f5457600080fd5b81019080803573ffffffffffffffffffffffffffffffffffffffff169060200190929190803573ffffffffffffffffffffffffffffffffffffffff1690602001909291908035906020019092919080359060200190640100000000811115610fbb57600080fd5b820183602082011115610fcd57600080fd5b80359060200191846001830284011164010000000083111715610fef57600080fd5b91908080601f016020809104026020016040519081016040528093929190818152602001838380828437600081840152601f19601f8201169050808301925050505050505091929192905050506129a4565b005b6110856004803603602081101561105957600080fd5b81019080803573ffffffffffffffffffffffffffffffffffffffff169060200190929190505050612e0f565b60405180821515815260200191505060405180910390f35b611156600480360360208110156110b357600080fd5b81019080803590602001906401000000008111156110d057600080fd5b8201836020820111156110e257600080fd5b8035906020019184600183028401116401000000008311171561110457600080fd5b91908080601f016020809104026020016040519081016040528093929190818152602001838380828437600081840152601f19601f820116905080830192505050505050509192919290505050612e5b565b005b6111846004803603602081101561116e57600080fd5b8101908080359060200190929190505050613004565b6040518080602001828103825283818151815260200191508051906020019080838360005b838110156111c45780820151818401526020810190506111a9565b50505050905090810190601f1680156111f15780820380516001836020036101000a031916815260200191505b509250505060405180910390f35b6112b86004803603602081101561121557600080fd5b810190808035906020019064010000000081111561123257600080fd5b82018360208201111561124457600080fd5b8035906020019184600183028401116401000000008311171561126657600080fd5b91908080601f016020809104026020016040519081016040528093929190818152602001838380828437600081840152601f19601f8201169050808301925050505050505091929192905050506132d5565b604051808060200180602001806020018573ffffffffffffffffffffffffffffffffffffffff168152602001848103845288818151815260200191508051906020019080838360005b8381101561131c578082015181840152602081019050611301565b50505050905090810190601f1680156113495780820380516001836020036101000a031916815260200191505b50848103835287818151815260200191508051906020019080838360005b83811015611382578082015181840152602081019050611367565b50505050905090810190601f1680156113af5780820380516001836020036101000a031916815260200191505b50848103825286818151815260200191508051906020019080838360005b838110156113e85780820151818401526020810190506113cd565b50505050905090810190601f1680156114155780820380516001836020036101000a031916815260200191505b5097505050505050505060405180910390f35b6114746004803603604081101561143e57600080fd5b81019080803573ffffffffffffffffffffffffffffffffffffffff16906020019092919080359060200190929190505050613503565b6040518082815260200191505060405180910390f35b6114b6600480360360208110156114a057600080fd5b8101908080359060200190929190505050613534565b6040518080602001828103825283818151815260200191508051906020019080838360005b838110156114f65780820151818401526020810190506114db565b50505050905090810190601f1680156115235780820380516001836020036101000a031916815260200191505b509250505060405180910390f35b6115f46004803603604081101561154757600080fd5b81019080803590602001909291908035906020019064010000000081111561156e57600080fd5b82018360208201111561158057600080fd5b803590602001918460018302840111640100000000831117156115a257600080fd5b91908080601f016020809104026020016040519081016040528093929190818152602001838380828437600081840152601f19601f8201169050808301925050505050505091929192905050506135e9565b005b6116586004803603604081101561160c57600080fd5b81019080803573ffffffffffffffffffffffffffffffffffffffff169060200190929190803573ffffffffffffffffffffffffffffffffffffffff1690602001909291905050506139ea565b60405180821515815260200191505060405180910390f35b6000806000837bffffffffffffffffffffffffffffffffffffffffffffffffffffffff19167bffffffffffffffffffffffffffffffffffffffffffffffffffffffff1916815260200190815260200160002060009054906101000a900460ff169050919050565b60008073ffffffffffffffffffffffffffffffffffffffff163373ffffffffffffffffffffffffffffffffffffffff16141561177b576040517f08c379a000000000000000000000000000000000000000000000000000000000815260040180806020018281038252600f8152602001807f496e76616c69642061646472657373000000000000000000000000000000000081525060200191505060405180910390fd5b6000845114156117f3576040517f08c379a00000000000000000000000000000000000000000000000000000000081526004018080602001828103825260138152602001807f6e616d652063616e277420626520656d7074790000000000000000000000000081525060200191505060405180910390fd5b60008351141561186b576040517f08c379a00000000000000000000000000000000000000000000000000000000081526004018080602001828103825260158152602001807f73796d626f6c2063616e277420626520656d707479000000000000000000000081525060200191505060405180910390fd5b82805190602001206015846040518082805190602001908083835b602083106118a95780518252602082019150602081019050602083039250611886565b6001836020036101000a0380198251168184511680821785525050505050509050019150509081526020016040518091039020600101604051808280546001816001161561010002031660029004801561193a5780601f1061191857610100808354040283529182019161193a565b820191906000526020600020905b815481529060010190602001808311611926575b5050915050604051809103902014156119bb576040517f08c379a00000000000000000000000000000000000000000000000000000000081526004018080602001828103825260178152602001807f73796d626f6c20697320616c72656164792074616b656e00000000000000000081525060200191505060405180910390fd5b6119c784848433611ee3565b600190509392505050565b60606119dd336120e6565b905060005b8151811015611a1557611a08838383815181106119fb57fe5b6020026020010151611b57565b80806001019150506119e2565b505050565b606060068054600181600116156101000203166002900480601f016020809104026020016040519081016040528092919081815260200182805460018160011615610100020316600290048015611ab25780601f10611a8757610100808354040283529160200191611ab2565b820191906000526020600020905b815481529060010190602001808311611a9557829003601f168201915b5050505050905090565b6000611ac782613a7e565b611b1c576040517f08c379a000000000000000000000000000000000000000000000000000000000815260040180806020018281038252602c815260200180615535602c913960400191505060405180910390fd5b6004600083815260200190815260200160002060009054906101000a900473ffffffffffffffffffffffffffffffffffffffff169050919050565b6000611b6282612220565b90508073ffffffffffffffffffffffffffffffffffffffff168373ffffffffffffffffffffffffffffffffffffffff161415611be9576040517f08c379a00000000000000000000000000000000000000000000000000000000081526004018080602001828103825260218152602001806155b96021913960400191505060405180910390fd5b8073ffffffffffffffffffffffffffffffffffffffff16611c08613a9b565b73ffffffffffffffffffffffffffffffffffffffff161480611c375750611c3681611c31613a9b565b6139ea565b5b611c8c576040517f08c379a00000000000000000000000000000000000000000000000000000000081526004018080602001828103825260388152602001806154886038913960400191505060405180910390fd5b611c968383613aa3565b505050565b6000611ca76002613b5c565b905090565b611cbd611cb7613a9b565b82613b71565b611d12576040517f08c379a00000000000000000000000000000000000000000000000000000000081526004018080602001828103825260318152602001806155da6031913960400191505060405180910390fd5b611d1d838383613c65565b505050565b6000611d7582600160008673ffffffffffffffffffffffffffffffffffffffff1673ffffffffffffffffffffffffffffffffffffffff168152602001908152602001600020613ea890919063ffffffff16565b905092915050565b600073ffffffffffffffffffffffffffffffffffffffff168373ffffffffffffffffffffffffffffffffffffffff161415611e20576040517f08c379a000000000000000000000000000000000000000000000000000000000815260040180806020018281038252600f8152602001807f696e76616c69642061646472657373000000000000000000000000000000000081525060200191505060405180910390fd5b600073ffffffffffffffffffffffffffffffffffffffff168273ffffffffffffffffffffffffffffffffffffffff161415611ec3576040517f08c379a000000000000000000000000000000000000000000000000000000000815260040180806020018281038252600f8152602001807f696e76616c69642061646472657373000000000000000000000000000000000081525060200191505060405180910390fd5b611ede838383604051806020016040528060008152506129a4565b505050565b611eec83613ec2565b925083600a9080519060200190611f0492919061522b565b5082600b9080519060200190611f1b92919061522b565b5081600c9080519060200190611f3292919061522b565b5080600e60006101000a81548173ffffffffffffffffffffffffffffffffffffffff021916908373ffffffffffffffffffffffffffffffffffffffff1602179055506000600d8190555060405180608001604052808581526020018481526020018381526020013373ffffffffffffffffffffffffffffffffffffffff168152506015846040518082805190602001908083835b60208310611fe95780518252602082019150602081019050602083039250611fc6565b6001836020036101000a0380198251168184511680821785525050505050509050019150509081526020016040518091039020600082015181600001908051906020019061203892919061522b565b50602082015181600101908051906020019061205592919061522b565b50604082015181600201908051906020019061207292919061522b565b5060608201518160030160006101000a81548173ffffffffffffffffffffffffffffffffffffffff021916908373ffffffffffffffffffffffffffffffffffffffff16021790555090505050505050565b6000806120da836002613fe390919063ffffffff16565b50905080915050919050565b6060600073ffffffffffffffffffffffffffffffffffffffff168273ffffffffffffffffffffffffffffffffffffffff16141561218b576040517f08c379a000000000000000000000000000000000000000000000000000000000815260040180806020018281038252600d8152602001807f696e76616c6964206f776e65720000000000000000000000000000000000000081525060200191505060405180910390fd5b601260008373ffffffffffffffffffffffffffffffffffffffff1673ffffffffffffffffffffffffffffffffffffffff16815260200190815260200160002080548060200260200160405190810160405280929190818152602001828054801561221457602002820191906000526020600020905b815481526020019060010190808311612200575b50505050509050919050565b6000612250826040518060600160405280602981526020016154ea60299139600261400f9092919063ffffffff16565b9050919050565b60008160108190555060019050919050565b606060098054600181600116156101000203166002900480601f0160208091040260200160405190810160405280929190818152602001828054600181600116156101000203166002900480156123015780601f106122d657610100808354040283529160200191612301565b820191906000526020600020905b8154815290600101906020018083116122e457829003601f168201915b5050505050905090565b60008073ffffffffffffffffffffffffffffffffffffffff168273ffffffffffffffffffffffffffffffffffffffff161415612392576040517f08c379a000000000000000000000000000000000000000000000000000000000815260040180806020018281038252602a8152602001806154c0602a913960400191505060405180910390fd5b6123d9600160008473ffffffffffffffffffffffffffffffffffffffff1673ffffffffffffffffffffffffffffffffffffffff16815260200190815260200160002061402e565b9050919050565b600081805190602001206015836040518082805190602001908083835b6020831061242057805182526020820191506020810190506020830392506123fd565b6001836020036101000a038019825116818451168082178552505050505050905001915050908152602001604051809103902060010160405180828054600181600116156101000203166002900480156124b15780601f1061248f5761010080835404028352918201916124b1565b820191906000526020600020905b81548152906001019060200180831161249d575b5050915050604051809103902014612531576040517f08c379a00000000000000000000000000000000000000000000000000000000081526004018080602001828103825260178152602001807f73796d626f6c20697320616c72656164792074616b656e00000000000000000081525060200191505060405180910390fd5b6015826040518082805190602001908083835b602083106125675780518252602082019150602081019050602083039250612544565b6001836020036101000a038019825116818451168082178552505050505050905001915050908152602001604051809103902060030160009054906101000a900473ffffffffffffffffffffffffffffffffffffffff169050919050565b606060078054600181600116156101000203166002900480601f01602080910402602001604051908101604052809291908181526020018280546001816001161561010002031660029004801561265d5780601f106126325761010080835404028352916020019161265d565b820191906000526020600020905b81548152906001019060200180831161264057829003601f168201915b5050505050905090565b60005b815181101561269d576126908383838151811061268357fe5b6020026020010151611b57565b808060010191505061266a565b505050565b6126aa613a9b565b73ffffffffffffffffffffffffffffffffffffffff168273ffffffffffffffffffffffffffffffffffffffff16141561274b576040517f08c379a00000000000000000000000000000000000000000000000000000000081526004018080602001828103825260198152602001807f4552433732313a20617070726f766520746f2063616c6c65720000000000000081525060200191505060405180910390fd5b8060056000612758613a9b565b73ffffffffffffffffffffffffffffffffffffffff1673ffffffffffffffffffffffffffffffffffffffff16815260200190815260200160002060008473ffffffffffffffffffffffffffffffffffffffff1673ffffffffffffffffffffffffffffffffffffffff16815260200190815260200160002060006101000a81548160ff0219169083151502179055508173ffffffffffffffffffffffffffffffffffffffff16612805613a9b565b73ffffffffffffffffffffffffffffffffffffffff167f17307eab39ab6107e8899845ad3d59bd9653f200f220920489ca2b5937696c318360405180821515815260200191505060405180910390a35050565b60006011600083815260200190815260200160002060009054906101000a900473ffffffffffffffffffffffffffffffffffffffff169050919050565b60003373ffffffffffffffffffffffffffffffffffffffff166015846040518082805190602001908083835b602083106128e457805182526020820191506020810190506020830392506128c1565b6001836020036101000a038019825116818451168082178552505050505050905001915050908152602001604051809103902060030160009054906101000a900473ffffffffffffffffffffffffffffffffffffffff1673ffffffffffffffffffffffffffffffffffffffff161461295b57600080fd5b61296482614043565b6011600083815260200190815260200160002060006101000a81549073ffffffffffffffffffffffffffffffffffffffff02191690556001905092915050565b6129b56129af613a9b565b83613b71565b612a0a576040517f08c379a00000000000000000000000000000000000000000000000000000000081526004018080602001828103825260318152602001806155da6031913960400191505060405180910390fd5b600073ffffffffffffffffffffffffffffffffffffffff168473ffffffffffffffffffffffffffffffffffffffff161415612aad576040517f08c379a000000000000000000000000000000000000000000000000000000000815260040180806020018281038252600f8152602001807f696e76616c69642061646472657373000000000000000000000000000000000081525060200191505060405180910390fd5b600073ffffffffffffffffffffffffffffffffffffffff168373ffffffffffffffffffffffffffffffffffffffff161415612b50576040517f08c379a000000000000000000000000000000000000000000000000000000000815260040180806020018281038252600f8152602001807f696e76616c69642061646472657373000000000000000000000000000000000081525060200191505060405180910390fd5b612b5c8484848461417d565b826011600084815260200190815260200160002060006101000a81548173ffffffffffffffffffffffffffffffffffffffff021916908373ffffffffffffffffffffffffffffffffffffffff1602179055506060601260008673ffffffffffffffffffffffffffffffffffffffff1673ffffffffffffffffffffffffffffffffffffffff168152602001908152602001600020805480602002602001604051908101604052809291908181526020018280548015612c3957602002820191906000526020600020905b815481526020019060010190808311612c25575b505050505090506060600182510367ffffffffffffffff81118015612c5d57600080fd5b50604051908082528060200260200182016040528015612c8c5781602001602082028036833780820191505090505b5090506000601260008773ffffffffffffffffffffffffffffffffffffffff1673ffffffffffffffffffffffffffffffffffffffff16815260200190815260200160002090508085908060018154018082558091505060019003906000526020600020016000909190919091505580601260008873ffffffffffffffffffffffffffffffffffffffff1673ffffffffffffffffffffffffffffffffffffffff168152602001908152602001600020908054612d489291906152b9565b506000805b8451811015612db05786858281518110612d6357fe5b602002602001015114612da357848181518110612d7c57fe5b6020026020010151848380600101945081518110612d9657fe5b6020026020010181815250505b8080600101915050612d4d565b5082601260008a73ffffffffffffffffffffffffffffffffffffffff1673ffffffffffffffffffffffffffffffffffffffff1681526020019081526020016000209080519060200190612e0492919061530b565b505050505050505050565b600081600f60006101000a81548173ffffffffffffffffffffffffffffffffffffffff021916908373ffffffffffffffffffffffffffffffffffffffff16021790555060019050919050565b600e60009054906101000a900473ffffffffffffffffffffffffffffffffffffffff1673ffffffffffffffffffffffffffffffffffffffff163373ffffffffffffffffffffffffffffffffffffffff1614612eb557600080fd5b6000612ebf611c9b565b9050612ecb33826141ef565b336011600083815260200190815260200160002060006101000a81548173ffffffffffffffffffffffffffffffffffffffff021916908373ffffffffffffffffffffffffffffffffffffffff1602179055506000601260003373ffffffffffffffffffffffffffffffffffffffff1673ffffffffffffffffffffffffffffffffffffffff16815260200190815260200160002090508082908060018154018082558091505060019003906000526020600020016000909190919091505580601260003373ffffffffffffffffffffffffffffffffffffffff1673ffffffffffffffffffffffffffffffffffffffff168152602001908152602001600020908054612fd69291906152b9565b5082601460008481526020019081526020016000209080519060200190612ffe92919061522b565b50505050565b606061300f82613a7e565b613064576040517f08c379a000000000000000000000000000000000000000000000000000000000815260040180806020018281038252602f81526020018061558a602f913960400191505060405180910390fd5b6060600860008481526020019081526020016000208054600181600116156101000203166002900480601f01602080910402602001604051908101604052809291908181526020018280546001816001161561010002031660029004801561310d5780601f106130e25761010080835404028352916020019161310d565b820191906000526020600020905b8154815290600101906020018083116130f057829003601f168201915b50505050509050606061311e612269565b90506000815114156131345781925050506132d0565b6000825111156132055780826040516020018083805190602001908083835b602083106131765780518252602082019150602081019050602083039250613153565b6001836020036101000a03801982511681845116808217855250505050505090500182805190602001908083835b602083106131c757805182526020820191506020810190506020830392506131a4565b6001836020036101000a03801982511681845116808217855250505050505090500192505050604051602081830303815290604052925050506132d0565b8061320f856143e3565b6040516020018083805190602001908083835b602083106132455780518252602082019150602081019050602083039250613222565b6001836020036101000a03801982511681845116808217855250505050505090500182805190602001908083835b602083106132965780518252602082019150602081019050602083039250613273565b6001836020036101000a03801982511681845116808217855250505050505090500192505050604051602081830303815290604052925050505b919050565b601581805160208101820180518482526020830160208501208183528095505050505050600091509050806000018054600181600116156101000203166002900480601f0160208091040260200160405190810160405280929190818152602001828054600181600116156101000203166002900480156133975780601f1061336c57610100808354040283529160200191613397565b820191906000526020600020905b81548152906001019060200180831161337a57829003601f168201915b505050505090806001018054600181600116156101000203166002900480601f0160208091040260200160405190810160405280929190818152602001828054600181600116156101000203166002900480156134355780601f1061340a57610100808354040283529160200191613435565b820191906000526020600020905b81548152906001019060200180831161341857829003601f168201915b505050505090806002018054600181600116156101000203166002900480601f0160208091040260200160405190810160405280929190818152602001828054600181600116156101000203166002900480156134d35780601f106134a8576101008083540402835291602001916134d3565b820191906000526020600020905b8154815290600101906020018083116134b657829003601f168201915b5050505050908060030160009054906101000a900473ffffffffffffffffffffffffffffffffffffffff16905084565b6012602052816000526040600020818154811061351f57600080fd5b90600052602060002001600091509150505481565b6060601460008381526020019081526020016000208054600181600116156101000203166002900480601f0160208091040260200160405190810160405280929190818152602001828054600181600116156101000203166002900480156135dd5780601f106135b2576101008083540402835291602001916135dd565b820191906000526020600020905b8154815290600101906020018083116135c057829003601f168201915b50505050509050919050565b600e60009054906101000a900473ffffffffffffffffffffffffffffffffffffffff1673ffffffffffffffffffffffffffffffffffffffff163373ffffffffffffffffffffffffffffffffffffffff161461364357600080fd5b6060819050806040518060400160405280600181526020017f2f000000000000000000000000000000000000000000000000000000000000008152506040516020018083805190602001908083835b602083106136b55780518252602082019150602081019050602083039250613692565b6001836020036101000a03801982511681845116808217855250505050505090500182805190602001908083835b6020831061370657805182526020820191506020810190506020830392506136e3565b6001836020036101000a038019825116818451168082178552505050505050905001925050506040516020818303038152906040529050806137478461452a565b6040516020018083805190602001908083835b6020831061377d578051825260208201915060208101905060208303925061375a565b6001836020036101000a03801982511681845116808217855250505050505090500182805190602001908083835b602083106137ce57805182526020820191506020810190506020830392506137ab565b6001836020036101000a038019825116818451168082178552505050505050905001925050506040516020818303038152906040529050806040518060400160405280600581526020017f2e6a736f6e0000000000000000000000000000000000000000000000000000008152506040516020018083805190602001908083835b60208310613872578051825260208201915060208101905060208303925061384f565b6001836020036101000a03801982511681845116808217855250505050505090500182805190602001908083835b602083106138c357805182526020820191506020810190506020830392506138a0565b6001836020036101000a0380198251168184511680821785525050505050509050019250505060405160208183030381529060405290508060146000858152602001908152602001600020908051906020019061392192919061522b565b5061392b83612220565b73ffffffffffffffffffffffffffffffffffffffff167f533b52bf6683c1d8929816db9f4f8221ca670c6815cbd30bd5e92b4b8eb0957884836040518083815260200180602001828103825283818151815260200191508051906020019080838360005b838110156139aa57808201518184015260208101905061398f565b50505050905090810190601f1680156139d75780820380516001836020036101000a031916815260200191505b50935050505060405180910390a2505050565b6000600560008473ffffffffffffffffffffffffffffffffffffffff1673ffffffffffffffffffffffffffffffffffffffff16815260200190815260200160002060008373ffffffffffffffffffffffffffffffffffffffff1673ffffffffffffffffffffffffffffffffffffffff16815260200190815260200160002060009054906101000a900460ff16905092915050565b6000613a9482600261470990919063ffffffff16565b9050919050565b600033905090565b816004600083815260200190815260200160002060006101000a81548173ffffffffffffffffffffffffffffffffffffffff021916908373ffffffffffffffffffffffffffffffffffffffff160217905550808273ffffffffffffffffffffffffffffffffffffffff16613b1683612220565b73ffffffffffffffffffffffffffffffffffffffff167f8c5be1e5ebec7d5bd14f71427d1e84f3dd0314c0f7b2291e5b200ac8c7c3b92560405160405180910390a45050565b6000613b6a82600001614723565b9050919050565b6000613b7c82613a7e565b613bd1576040517f08c379a000000000000000000000000000000000000000000000000000000000815260040180806020018281038252602c81526020018061545c602c913960400191505060405180910390fd5b6000613bdc83612220565b90508073ffffffffffffffffffffffffffffffffffffffff168473ffffffffffffffffffffffffffffffffffffffff161480613c4b57508373ffffffffffffffffffffffffffffffffffffffff16613c3384611abc565b73ffffffffffffffffffffffffffffffffffffffff16145b80613c5c5750613c5b81856139ea565b5b91505092915050565b8273ffffffffffffffffffffffffffffffffffffffff16613c8582612220565b73ffffffffffffffffffffffffffffffffffffffff1614613cf1576040517f08c379a00000000000000000000000000000000000000000000000000000000081526004018080602001828103825260298152602001806155616029913960400191505060405180910390fd5b600073ffffffffffffffffffffffffffffffffffffffff168273ffffffffffffffffffffffffffffffffffffffff161415613d77576040517f08c379a00000000000000000000000000000000000000000000000000000000081526004018080602001828103825260248152602001806154126024913960400191505060405180910390fd5b613d82838383614734565b613d8d600082613aa3565b613dde81600160008673ffffffffffffffffffffffffffffffffffffffff1673ffffffffffffffffffffffffffffffffffffffff16815260200190815260200160002061473990919063ffffffff16565b50613e3081600160008573ffffffffffffffffffffffffffffffffffffffff1673ffffffffffffffffffffffffffffffffffffffff16815260200190815260200160002061475390919063ffffffff16565b50613e478183600261476d9092919063ffffffff16565b50808273ffffffffffffffffffffffffffffffffffffffff168473ffffffffffffffffffffffffffffffffffffffff167fddf252ad1be2c89b69c2b068fc378daa952ba7f163c4a11628f55a4df523b3ef60405160405180910390a4505050565b6000613eb783600001836147a2565b60001c905092915050565b60608082905060005b8151811015613fd6577f610000000000000000000000000000000000000000000000000000000000000060f81c60ff16828281518110613f0757fe5b602001015160f81c60f81b60f81c60ff1610158015613f6857507f7a0000000000000000000000000000000000000000000000000000000000000060f81c60ff16828281518110613f5457fe5b602001015160f81c60f81b60f81c60ff1611155b15613fc9576020828281518110613f7b57fe5b602001015160f81c60f81b60f81c0360f81b828281518110613f9957fe5b60200101907effffffffffffffffffffffffffffffffffffffffffffffffffffffffffffff1916908160001a9053505b8080600101915050613ecb565b5080925082915050919050565b600080600080613ff68660000186614825565b915091508160001c8160001c9350935050509250929050565b6000614022846000018460001b846148be565b60001c90509392505050565b600061403c826000016149b4565b9050919050565b600061404e82612220565b905061405c81600084614734565b614067600083613aa3565b600060086000848152602001908152602001600020805460018160011615610100020316600290049050146140b6576008600083815260200190815260200160002060006140b59190615358565b5b61410782600160008473ffffffffffffffffffffffffffffffffffffffff1673ffffffffffffffffffffffffffffffffffffffff16815260200190815260200160002061473990919063ffffffff16565b5061411c8260026149c590919063ffffffff16565b5081600073ffffffffffffffffffffffffffffffffffffffff168273ffffffffffffffffffffffffffffffffffffffff167fddf252ad1be2c89b69c2b068fc378daa952ba7f163c4a11628f55a4df523b3ef60405160405180910390a45050565b614188848484613c65565b614194848484846149df565b6141e9576040517f08c379a00000000000000000000000000000000000000000000000000000000081526004018080602001828103825260328152602001806153e06032913960400191505060405180910390fd5b50505050565b600073ffffffffffffffffffffffffffffffffffffffff168273ffffffffffffffffffffffffffffffffffffffff161415614292576040517f08c379a00000000000000000000000000000000000000000000000000000000081526004018080602001828103825260208152602001807f4552433732313a206d696e7420746f20746865207a65726f206164647265737381525060200191505060405180910390fd5b61429b81613a7e565b1561430e576040517f08c379a000000000000000000000000000000000000000000000000000000000815260040180806020018281038252601c8152602001807f4552433732313a20746f6b656e20616c7265616479206d696e7465640000000081525060200191505060405180910390fd5b61431a60008383614734565b61436b81600160008573ffffffffffffffffffffffffffffffffffffffff1673ffffffffffffffffffffffffffffffffffffffff16815260200190815260200160002061475390919063ffffffff16565b506143828183600261476d9092919063ffffffff16565b50808273ffffffffffffffffffffffffffffffffffffffff16600073ffffffffffffffffffffffffffffffffffffffff167fddf252ad1be2c89b69c2b068fc378daa952ba7f163c4a11628f55a4df523b3ef60405160405180910390a45050565b6060600082141561442b576040518060400160405280600181526020017f30000000000000000000000000000000000000000000000000000000000000008152509050614525565b600082905060005b60008214614455578080600101915050600a828161444d57fe5b049150614433565b60608167ffffffffffffffff8111801561446e57600080fd5b506040519080825280601f01601f1916602001820160405280156144a15781602001600182028036833780820191505090505b50905060006001830390508593505b6000841461451d57600a84816144c257fe5b0660300160f81b828280600190039350815181106144dc57fe5b60200101907effffffffffffffffffffffffffffffffffffffffffffffffffffffffffffff1916908160001a905350600a848161451557fe5b0493506144b0565b819450505050505b919050565b606060006064905060608167ffffffffffffffff8111801561454b57600080fd5b506040519080825280601f01601f19166020018201604052801561457e5781602001600182028036833780820191505090505b5090506000808514156145cb576040518060400160405280600181526020017f30000000000000000000000000000000000000000000000000000000000000008152509350505050614704565b5b6000851461463e576000600a86816145e057fe5b069050600a86816145ed57fe5b0495508060300160f81b83838060010194508151811061460957fe5b60200101907effffffffffffffffffffffffffffffffffffffffffffffffffffffffffffff1916908160001a905350506145cc565b60606001820167ffffffffffffffff8111801561465a57600080fd5b506040519080825280601f01601f19166020018201604052801561468d5781602001600182028036833780820191505090505b50905060005b8281116146fb5783818403815181106146a857fe5b602001015160f81c60f81b8282815181106146bf57fe5b60200101907effffffffffffffffffffffffffffffffffffffffffffffffffffffffffffff1916908160001a9053508080600101915050614693565b50809450505050505b919050565b600061471b836000018360001b614bf8565b905092915050565b600081600001805490509050919050565b505050565b600061474b836000018360001b614c1b565b905092915050565b6000614765836000018360001b614d03565b905092915050565b6000614799846000018460001b8473ffffffffffffffffffffffffffffffffffffffff1660001b614d73565b90509392505050565b600081836000018054905011614803576040517f08c379a00000000000000000000000000000000000000000000000000000000081526004018080602001828103825260228152602001806153be6022913960400191505060405180910390fd5b82600001828154811061481257fe5b9060005260206000200154905092915050565b60008082846000018054905011614887576040517f08c379a00000000000000000000000000000000000000000000000000000000081526004018080602001828103825260228152602001806155136022913960400191505060405180910390fd5b600084600001848154811061489857fe5b906000526020600020906002020190508060000154816001015492509250509250929050565b60008084600101600085815260200190815260200160002054905060008114158390614985576040517f08c379a00000000000000000000000000000000000000000000000000000000081526004018080602001828103825283818151815260200191508051906020019080838360005b8381101561494a57808201518184015260208101905061492f565b50505050905090810190601f1680156149775780820380516001836020036101000a031916815260200191505b509250505060405180910390fd5b5084600001600182038154811061499857fe5b9060005260206000209060020201600101549150509392505050565b600081600001805490509050919050565b60006149d7836000018360001b614e4f565b905092915050565b6000614a008473ffffffffffffffffffffffffffffffffffffffff16614f68565b614a0d5760019050614bf0565b6060614b7763150b7a0260e01b614a22613a9b565b888787604051602401808573ffffffffffffffffffffffffffffffffffffffff1681526020018473ffffffffffffffffffffffffffffffffffffffff16815260200183815260200180602001828103825283818151815260200191508051906020019080838360005b83811015614aa6578082015181840152602081019050614a8b565b50505050905090810190601f168015614ad35780820380516001836020036101000a031916815260200191505b5095505050505050604051602081830303815290604052907bffffffffffffffffffffffffffffffffffffffffffffffffffffffff19166020820180517bffffffffffffffffffffffffffffffffffffffffffffffffffffffff83818316178352505050506040518060600160405280603281526020016153e0603291398773ffffffffffffffffffffffffffffffffffffffff16614f7b9092919063ffffffff16565b90506000818060200190516020811015614b9057600080fd5b8101908080519060200190929190505050905063150b7a0260e01b7bffffffffffffffffffffffffffffffffffffffffffffffffffffffff1916817bffffffffffffffffffffffffffffffffffffffffffffffffffffffff191614925050505b949350505050565b600080836001016000848152602001908152602001600020541415905092915050565b60008083600101600084815260200190815260200160002054905060008114614cf75760006001820390506000600186600001805490500390506000866000018281548110614c6657fe5b9060005260206000200154905080876000018481548110614c8357fe5b9060005260206000200181905550600183018760010160008381526020019081526020016000208190555086600001805480614cbb57fe5b60019003818190600052602060002001600090559055866001016000878152602001908152602001600020600090556001945050505050614cfd565b60009150505b92915050565b6000614d0f8383614f93565b614d68578260000182908060018154018082558091505060019003906000526020600020016000909190919091505582600001805490508360010160008481526020019081526020016000208190555060019050614d6d565b600090505b92915050565b6000808460010160008581526020019081526020016000205490506000811415614e1a57846000016040518060400160405280868152602001858152509080600181540180825580915050600190039060005260206000209060020201600090919091909150600082015181600001556020820151816001015550508460000180549050856001016000868152602001908152602001600020819055506001915050614e48565b82856000016001830381548110614e2d57fe5b90600052602060002090600202016001018190555060009150505b9392505050565b60008083600101600084815260200190815260200160002054905060008114614f5c5760006001820390506000600186600001805490500390506000866000018281548110614e9a57fe5b9060005260206000209060020201905080876000018481548110614eba57fe5b9060005260206000209060020201600082015481600001556001820154816001015590505060018301876001016000836000015481526020019081526020016000208190555086600001805480614f0d57fe5b6001900381819060005260206000209060020201600080820160009055600182016000905550509055866001016000878152602001908152602001600020600090556001945050505050614f62565b60009150505b92915050565b600080823b905060008111915050919050565b6060614f8a8484600085614fb6565b90509392505050565b600080836001016000848152602001908152602001600020541415905092915050565b606082471015615011576040517f08c379a00000000000000000000000000000000000000000000000000000000081526004018080602001828103825260268152602001806154366026913960400191505060405180910390fd5b61501a85614f68565b61508c576040517f08c379a000000000000000000000000000000000000000000000000000000000815260040180806020018281038252601d8152602001807f416464726573733a2063616c6c20746f206e6f6e2d636f6e747261637400000081525060200191505060405180910390fd5b600060608673ffffffffffffffffffffffffffffffffffffffff1685876040518082805190602001908083835b602083106150dc57805182526020820191506020810190506020830392506150b9565b6001836020036101000a03801982511681845116808217855250505050505090500191505060006040518083038185875af1925050503d806000811461513e576040519150601f19603f3d011682016040523d82523d6000602084013e615143565b606091505b509150915061515382828661515f565b92505050949350505050565b6060831561516f57829050615224565b6000835111156151825782518084602001fd5b816040517f08c379a00000000000000000000000000000000000000000000000000000000081526004018080602001828103825283818151815260200191508051906020019080838360005b838110156151e95780820151818401526020810190506151ce565b50505050905090810190601f1680156152165780820380516001836020036101000a031916815260200191505b509250505060405180910390fd5b9392505050565b828054600181600116156101000203166002900490600052602060002090601f01602090048101928261526157600085556152a8565b82601f1061527a57805160ff19168380011785556152a8565b828001600101855582156152a8579182015b828111156152a757825182559160200191906001019061528c565b5b5090506152b591906153a0565b5090565b8280548282559060005260206000209081019282156152fa5760005260206000209182015b828111156152f95782548255916001019190600101906152de565b5b50905061530791906153a0565b5090565b828054828255906000526020600020908101928215615347579160200282015b8281111561534657825182559160200191906001019061532b565b5b50905061535491906153a0565b5090565b50805460018160011615610100020316600290046000825580601f1061537e575061539d565b601f01602090049060005260206000209081019061539c91906153a0565b5b50565b5b808211156153b95760008160009055506001016153a1565b509056fe456e756d657261626c655365743a20696e646578206f7574206f6620626f756e64734552433732313a207472616e7366657220746f206e6f6e20455243373231526563656976657220696d706c656d656e7465724552433732313a207472616e7366657220746f20746865207a65726f2061646472657373416464726573733a20696e73756666696369656e742062616c616e636520666f722063616c6c4552433732313a206f70657261746f7220717565727920666f72206e6f6e6578697374656e7420746f6b656e4552433732313a20617070726f76652063616c6c6572206973206e6f74206f776e6572206e6f7220617070726f76656420666f7220616c6c4552433732313a2062616c616e636520717565727920666f7220746865207a65726f20616464726573734552433732313a206f776e657220717565727920666f72206e6f6e6578697374656e7420746f6b656e456e756d657261626c654d61703a20696e646578206f7574206f6620626f756e64734552433732313a20617070726f76656420717565727920666f72206e6f6e6578697374656e7420746f6b656e4552433732313a207472616e73666572206f6620746f6b656e2074686174206973206e6f74206f776e4552433732314d657461646174613a2055524920717565727920666f72206e6f6e6578697374656e7420746f6b656e4552433732313a20617070726f76616c20746f2063757272656e74206f776e65724552433732313a207472616e736665722063616c6c6572206973206e6f74206f776e6572206e6f7220617070726f766564a264697066735822122037bd43c950aad692a691731e030b36f502c5b330834ecc5f4f5ca13ebb90282064736f6c63430007040033",
  "immutableReferences": {},
  "source": "// SPDX-License-Identifier: MIT\npragma solidity >=0.4.22 <0.8.4;\n\nimport \"./NftFactory.sol\";\n\ncontract NftRegistry is NftFactory {\n  \n\n  constructor(address _feeAccount, uint256 _feePercent) public {\n    feeAccount = _feeAccount;\n    feePercent = _feePercent;\n  }\n\n  event RegistryCreated(\n    string name,\n    string symbol,\n    string description,\n    address caller\n  );\n\n  function createRegistry(\n    string memory name,\n    string memory symbol,\n    string memory description\n  ) public  returns (bool) {\n    require(msg.sender != address(0), \"Invalid address\");\n    require(bytes(name).length != 0, \"name can't be empty\");\n    require(bytes(symbol).length != 0, \"symbol can't be empty\");\n    require(\n      keccak256(bytes(registries[symbol].symbol)) != keccak256(bytes(symbol)),\n      \"symbol is already taken\"\n    );\n\n    Registry(name, symbol, description, msg.sender);\n\n    return true;\n  }\n\n  function getRegistryAddress(string memory symbol)\n    public\n    view\n    returns (address)\n  {\n    require(\n      keccak256(bytes(registries[symbol].symbol)) == keccak256(bytes(symbol)),\n      \"symbol is already taken\"\n    );\n    return registries[symbol].creator;\n  }\n}\n",
  "sourcePath": "C:/Users/Zaid/Desktop/fix the problem/NFT_Contract_Factory-master/src/contracts/NftRegistry.sol",
  "compiler": {
    "name": "solc",
    "version": "0.7.4+commit.3f05b770.Emscripten.clang"
  },
  "schemaVersion": "3.3.4",
  "updatedAt": "2021-04-04T19:07:11.945Z",
  "networkType": "ethereum",
  "devdoc": {
    "kind": "dev",
    "methods": {
      "approve(address,uint256)": {
        "details": "See {IERC721-approve}."
      },
      "balanceOf(address)": {
        "details": "See {IERC721-balanceOf}."
      },
      "baseURI()": {
        "details": "Returns the base URI set via {_setBaseURI}. This will be automatically added as a prefix in {tokenURI} to each token's URI, or to the token ID if no specific URI is set for that token ID."
      },
      "getApproved(uint256)": {
        "details": "See {IERC721-getApproved}."
      },
      "isApprovedForAll(address,address)": {
        "details": "See {IERC721-isApprovedForAll}."
      },
      "name()": {
        "details": "See {IERC721Metadata-name}."
      },
      "ownerOf(uint256)": {
        "details": "See {IERC721-ownerOf}."
      },
      "setApprovalForAll(address,bool)": {
        "details": "See {IERC721-setApprovalForAll}."
      },
      "supportsInterface(bytes4)": {
        "details": "See {IERC165-supportsInterface}. Time complexity O(1), guaranteed to always use less than 30 000 gas."
      },
      "symbol()": {
        "details": "See {IERC721Metadata-symbol}."
      },
      "tokenByIndex(uint256)": {
        "details": "See {IERC721Enumerable-tokenByIndex}."
      },
      "tokenOfOwnerByIndex(address,uint256)": {
        "details": "See {IERC721Enumerable-tokenOfOwnerByIndex}."
      },
      "tokenURI(uint256)": {
        "details": "See {IERC721Metadata-tokenURI}."
      },
      "totalSupply()": {
        "details": "See {IERC721Enumerable-totalSupply}."
      },
      "transferFrom(address,address,uint256)": {
        "details": "See {IERC721-transferFrom}."
      }
    },
    "version": 1
  },
  "userdoc": {
    "kind": "user",
    "methods": {
      "ChangeFeeAccount(address)": {
        "notice": "this function allows you to change the address that is going to receive the fee amount  "
      },
      "ChangeFeePercent(uint256)": {
        "notice": "this function allows you to change the Fee percent  "
      },
      "Mint(string)": {
        "notice": "this function allows to mint more of your NFT  "
      },
      "Registry(string,string,string,address)": {
        "notice": "a registry function that iis been called by the NFT registry smart contract"
      },
      "approveAll(address)": {
        "notice": "this function allows to approve all the tokens the address owns at once"
      },
      "approveMany(address,uint256[])": {
        "notice": "this function allows to approve more than one token id at once"
      },
      "assignDataToToken(uint256,string)": {
        "notice": "this function assignes the URI to automaticlay add the id number at the end of the URI"
      },
      "burn(string,uint256)": {
        "notice": "this function allows you burn your NFT  "
      },
      "getMetadataAtID(uint256)": {
        "notice": "this function helps with queries to Fetch the metadata for a givine token id"
      },
      "getTokenOwner(uint256)": {
        "notice": "this function helps with queries to Fetch the owner address of the token by givine token id"
      },
      "safeTransferFrom(address,address,uint256)": {
        "notice": "this overload function allows to transfer tokens and updates all the mapping queries(without filling the URI)  "
      },
      "safeTransferFrom(address,address,uint256,bytes)": {
        "notice": "this overload function allows to transfer tokens and updates all the mapping queries(with filling the URI)  "
      },
      "tokensOf(address)": {
        "notice": "this function helps with queries to Fetch all the tokens that the address owns by givine address"
      }
    },
    "version": 1
  }
}