{
  "contractName": "ArtGallery1155",
  "abi": [
    {
      "inputs": [],
      "stateMutability": "nonpayable",
      "type": "constructor"
    },
    {
      "anonymous": false,
      "inputs": [
        {
          "indexed": false,
          "internalType": "string",
          "name": "name",
          "type": "string"
        },
        {
          "indexed": false,
          "internalType": "string",
          "name": "symbol",
          "type": "string"
        },
        {
          "indexed": false,
          "internalType": "string",
          "name": "description",
          "type": "string"
        },
        {
          "indexed": false,
          "internalType": "address",
          "name": "caller",
          "type": "address"
        },
        {
          "indexed": false,
          "internalType": "string",
          "name": "uri",
          "type": "string"
        },
        {
          "indexed": false,
          "internalType": "address",
          "name": "galleryAddress",
          "type": "address"
        }
      ],
      "name": "Gallery1155Created",
      "type": "event"
    },
    {
      "inputs": [],
      "name": "_owner",
      "outputs": [
        {
          "internalType": "address",
          "name": "",
          "type": "address"
        }
      ],
      "stateMutability": "view",
      "type": "function"
    },
    {
      "inputs": [],
      "name": "feeAccount",
      "outputs": [
        {
          "internalType": "address",
          "name": "",
          "type": "address"
        }
      ],
      "stateMutability": "view",
      "type": "function"
    },
    {
      "inputs": [],
      "name": "feeAmount",
      "outputs": [
        {
          "internalType": "uint256",
          "name": "",
          "type": "uint256"
        }
      ],
      "stateMutability": "view",
      "type": "function"
    },
    {
      "inputs": [
        {
          "internalType": "string",
          "name": "name",
          "type": "string"
        },
        {
          "internalType": "string",
          "name": "symbol",
          "type": "string"
        },
        {
          "internalType": "string",
          "name": "description",
          "type": "string"
        },
        {
          "internalType": "string",
          "name": "uri",
          "type": "string"
        }
      ],
      "name": "createGallery",
      "outputs": [
        {
          "internalType": "address",
          "name": "",
          "type": "address"
        }
      ],
      "stateMutability": "nonpayable",
      "type": "function"
    },
    {
      "inputs": [
        {
          "internalType": "string",
          "name": "symbol",
          "type": "string"
        }
      ],
      "name": "uniqueSymbol",
      "outputs": [
        {
          "internalType": "bool",
          "name": "",
          "type": "bool"
        }
      ],
      "stateMutability": "view",
      "type": "function"
    },
    {
      "inputs": [],
      "name": "getlastAddress",
      "outputs": [
        {
          "internalType": "address",
          "name": "",
          "type": "address"
        }
      ],
      "stateMutability": "view",
      "type": "function"
    },
    {
      "inputs": [
        {
          "internalType": "address",
          "name": "_user",
          "type": "address"
        }
      ],
      "name": "getGalleries",
      "outputs": [
        {
          "internalType": "address[]",
          "name": "",
          "type": "address[]"
        }
      ],
      "stateMutability": "view",
      "type": "function"
    },
    {
      "inputs": [
        {
          "internalType": "string",
          "name": "_symbol",
          "type": "string"
        }
      ],
      "name": "getGallery",
      "outputs": [
        {
          "internalType": "address",
          "name": "",
          "type": "address"
        }
      ],
      "stateMutability": "view",
      "type": "function"
    },
    {
      "inputs": [
        {
          "internalType": "address",
          "name": "newFeeAccount",
          "type": "address"
        }
      ],
      "name": "ChangeFeeAccount",
      "outputs": [
        {
          "internalType": "bool",
          "name": "",
          "type": "bool"
        }
      ],
      "stateMutability": "nonpayable",
      "type": "function"
    },
    {
      "inputs": [
        {
          "internalType": "uint256",
          "name": "newFeeAmount",
          "type": "uint256"
        }
      ],
      "name": "ChangeFeeAmount",
      "outputs": [
        {
          "internalType": "bool",
          "name": "",
          "type": "bool"
        }
      ],
      "stateMutability": "nonpayable",
      "type": "function"
    }
  ],
  "bytecode": "0x60806040526000600460006101000a81548173ffffffffffffffffffffffffffffffffffffffff021916908373ffffffffffffffffffffffffffffffffffffffff1602179055506000600560006101000a81548173ffffffffffffffffffffffffffffffffffffffff021916908373ffffffffffffffffffffffffffffffffffffffff1602179055507389f2a5463ef4e4176e57eef2b2fdd256bf4bc2bd600660006101000a81548173ffffffffffffffffffffffffffffffffffffffff021916908373ffffffffffffffffffffffffffffffffffffffff1602179055506064600755600660009054906101000a900473ffffffffffffffffffffffffffffffffffffffff1673ffffffffffffffffffffffffffffffffffffffff1663313ce5676040518163ffffffff1660e01b815260040160206040518083038186803b1580156200014b57600080fd5b505afa15801562000160573d6000803e3d6000fd5b505050506040513d60208110156200017757600080fd5b8101908080519060200190929190505050600860006101000a81548160ff021916908360ff160217905550620001ed6064620001d9600860009054906101000a900460ff1660ff16600a0a6007546200028660201b620013e51790919060201c565b6200031160201b620014701790919060201c565b600955348015620001fd57600080fd5b5033600460006101000a81548173ffffffffffffffffffffffffffffffffffffffff021916908373ffffffffffffffffffffffffffffffffffffffff16021790555033600560006101000a81548173ffffffffffffffffffffffffffffffffffffffff021916908373ffffffffffffffffffffffffffffffffffffffff1602179055506200039c565b6000808314156200029b57600090506200030b565b6000828402905082848281620002ad57fe5b041462000306576040517f08c379a00000000000000000000000000000000000000000000000000000000081526004018080602001828103825260218152602001806200589d6021913960400191505060405180910390fd5b809150505b92915050565b600080821162000389576040517f08c379a000000000000000000000000000000000000000000000000000000000815260040180806020018281038252601a8152602001807f536166654d6174683a206469766973696f6e206279207a65726f00000000000081525060200191505060405180910390fd5b8183816200039357fe5b04905092915050565b6154f180620003ac6000396000f3fe60806040523480156200001157600080fd5b5060043610620000ac5760003560e01c80639acc65e7116200006f5780639acc65e71462000367578063b2bdfa7b1462000620578063c548e7611462000656578063edceefa314620006b3578063ee9e756e14620006e957620000ac565b806338c92c9414620000b15780635322546d146200014f57806365e17c9d146200023a57806369e1540414620002705780638ba63eea1462000290575b600080fd5b620000f660048036036020811015620000c957600080fd5b81019080803573ffffffffffffffffffffffffffffffffffffffff16906020019092919050505062000730565b6040518080602001828103825283818151815260200191508051906020019060200280838360005b838110156200013b5780820151818401526020810190506200011e565b505050509050019250505060405180910390f35b6200020e600480360360208110156200016757600080fd5b81019080803590602001906401000000008111156200018557600080fd5b8201836020820111156200019857600080fd5b80359060200191846001830284011164010000000083111715620001bb57600080fd5b91908080601f016020809104026020016040519081016040528093929190818152602001838380828437600081840152601f19601f820116905080830192505050505050509192919290505050620007ff565b604051808273ffffffffffffffffffffffffffffffffffffffff16815260200191505060405180910390f35b6200024462000893565b604051808273ffffffffffffffffffffffffffffffffffffffff16815260200191505060405180910390f35b6200027a620008b9565b6040518082815260200191505060405180910390f35b6200034f60048036036020811015620002a857600080fd5b8101908080359060200190640100000000811115620002c657600080fd5b820183602082011115620002d957600080fd5b80359060200191846001830284011164010000000083111715620002fc57600080fd5b91908080601f016020809104026020016040519081016040528093929190818152602001838380828437600081840152601f19601f820116905080830192505050505050509192919290505050620008bf565b60405180821515815260200191505060405180910390f35b620005f4600480360360808110156200037f57600080fd5b81019080803590602001906401000000008111156200039d57600080fd5b820183602082011115620003b057600080fd5b80359060200191846001830284011164010000000083111715620003d357600080fd5b91908080601f016020809104026020016040519081016040528093929190818152602001838380828437600081840152601f19601f820116905080830192505050505050509192919290803590602001906401000000008111156200043757600080fd5b8201836020820111156200044a57600080fd5b803590602001918460018302840111640100000000831117156200046d57600080fd5b91908080601f016020809104026020016040519081016040528093929190818152602001838380828437600081840152601f19601f82011690508083019250505050505050919291929080359060200190640100000000811115620004d157600080fd5b820183602082011115620004e457600080fd5b803590602001918460018302840111640100000000831117156200050757600080fd5b91908080601f016020809104026020016040519081016040528093929190818152602001838380828437600081840152601f19601f820116905080830192505050505050509192919290803590602001906401000000008111156200056b57600080fd5b8201836020820111156200057e57600080fd5b80359060200191846001830284011164010000000083111715620005a157600080fd5b91908080601f016020809104026020016040519081016040528093929190818152602001838380828437600081840152601f19601f820116905080830192505050505050509192919290505050620009f7565b604051808273ffffffffffffffffffffffffffffffffffffffff16815260200191505060405180910390f35b6200062a62001281565b604051808273ffffffffffffffffffffffffffffffffffffffff16815260200191505060405180910390f35b6200069b600480360360208110156200066e57600080fd5b81019080803573ffffffffffffffffffffffffffffffffffffffff169060200190929190505050620012a7565b60405180821515815260200191505060405180910390f35b620006bd6200134e565b604051808273ffffffffffffffffffffffffffffffffffffffff16815260200191505060405180910390f35b62000718600480360360208110156200070157600080fd5b810190808035906020019092919050505062001378565b60405180821515815260200191505060405180910390f35b6060600160008373ffffffffffffffffffffffffffffffffffffffff1673ffffffffffffffffffffffffffffffffffffffff168152602001908152602001600020805480602002602001604051908101604052809291908181526020018280548015620007f357602002820191906000526020600020905b8160009054906101000a900473ffffffffffffffffffffffffffffffffffffffff1673ffffffffffffffffffffffffffffffffffffffff1681526020019060010190808311620007a8575b50505050509050919050565b600080826040518082805190602001908083835b6020831062000838578051825260208201915060208101905060208303925062000813565b6001836020036101000a038019825116818451168082178552505050505050905001915050908152602001604051809103902060009054906101000a900473ffffffffffffffffffffffffffffffffffffffff169050919050565b600460009054906101000a900473ffffffffffffffffffffffffffffffffffffffff1681565b60095481565b60008073ffffffffffffffffffffffffffffffffffffffff166000836040518082805190602001908083835b60208310620009105780518252602082019150602081019050602083039250620008eb565b6001836020036101000a038019825116818451168082178552505050505050905001915050908152602001604051809103902060009054906101000a900473ffffffffffffffffffffffffffffffffffffffff1673ffffffffffffffffffffffffffffffffffffffff1614620009ee576040517f08c379a00000000000000000000000000000000000000000000000000000000081526004018080602001828103825260138152602001807f73796d626f6c20616c726561647920757365640000000000000000000000000081525060200191505060405180910390fd5b60019050919050565b60008073ffffffffffffffffffffffffffffffffffffffff163373ffffffffffffffffffffffffffffffffffffffff16141562000a9c576040517f08c379a000000000000000000000000000000000000000000000000000000000815260040180806020018281038252600f8152602001807f496e76616c69642061646472657373000000000000000000000000000000000081525060200191505060405180910390fd5b60008551141562000b15576040517f08c379a00000000000000000000000000000000000000000000000000000000081526004018080602001828103825260138152602001807f6e616d652063616e277420626520656d7074790000000000000000000000000081525060200191505060405180910390fd5b60008451141562000b8e576040517f08c379a00000000000000000000000000000000000000000000000000000000081526004018080602001828103825260158152602001807f73796d626f6c2063616e277420626520656d707479000000000000000000000081525060200191505060405180910390fd5b62000b9984620008bf565b50600660009054906101000a900473ffffffffffffffffffffffffffffffffffffffff1673ffffffffffffffffffffffffffffffffffffffff166323b872dd33600460009054906101000a900473ffffffffffffffffffffffffffffffffffffffff166009546040518463ffffffff1660e01b8152600401808473ffffffffffffffffffffffffffffffffffffffff1681526020018373ffffffffffffffffffffffffffffffffffffffff1681526020018281526020019350505050602060405180830381600087803b15801562000c7057600080fd5b505af115801562000c85573d6000803e3d6000fd5b505050506040513d602081101562000c9c57600080fd5b8101908080519060200190929190505050506000858585853360405162000cc390620014fb565b80806020018060200180602001806020018673ffffffffffffffffffffffffffffffffffffffff16815260200185810385528a818151815260200191508051906020019080838360005b8381101562000d2a57808201518184015260208101905062000d0d565b50505050905090810190601f16801562000d585780820380516001836020036101000a031916815260200191505b50858103845289818151815260200191508051906020019080838360005b8381101562000d9357808201518184015260208101905062000d76565b50505050905090810190601f16801562000dc15780820380516001836020036101000a031916815260200191505b50858103835288818151815260200191508051906020019080838360005b8381101562000dfc57808201518184015260208101905062000ddf565b50505050905090810190601f16801562000e2a5780820380516001836020036101000a031916815260200191505b50858103825287818151815260200191508051906020019080838360005b8381101562000e6557808201518184015260208101905062000e48565b50505050905090810190601f16801562000e935780820380516001836020036101000a031916815260200191505b509950505050505050505050604051809103906000f08015801562000ebc573d6000803e3d6000fd5b509050806000866040518082805190602001908083835b6020831062000ef8578051825260208201915060208101905060208303925062000ed3565b6001836020036101000a038019825116818451168082178552505050505050905001915050908152602001604051809103902060006101000a81548173ffffffffffffffffffffffffffffffffffffffff021916908373ffffffffffffffffffffffffffffffffffffffff16021790555080600260006101000a81548173ffffffffffffffffffffffffffffffffffffffff021916908373ffffffffffffffffffffffffffffffffffffffff160217905550600160003373ffffffffffffffffffffffffffffffffffffffff1673ffffffffffffffffffffffffffffffffffffffff168152602001908152602001600020819080600181540180825580915050600190039060005260206000200160009091909190916101000a81548173ffffffffffffffffffffffffffffffffffffffff021916908373ffffffffffffffffffffffffffffffffffffffff1602179055507f8ec56b24049212067599d5b790bdc7c2abf48615659636dda3d3ac2898489e83868686338786604051808060200180602001806020018773ffffffffffffffffffffffffffffffffffffffff168152602001806020018673ffffffffffffffffffffffffffffffffffffffff16815260200185810385528b818151815260200191508051906020019080838360005b83811015620010f7578082015181840152602081019050620010da565b50505050905090810190601f168015620011255780820380516001836020036101000a031916815260200191505b5085810384528a818151815260200191508051906020019080838360005b838110156200116057808201518184015260208101905062001143565b50505050905090810190601f1680156200118e5780820380516001836020036101000a031916815260200191505b50858103835289818151815260200191508051906020019080838360005b83811015620011c9578082015181840152602081019050620011ac565b50505050905090810190601f168015620011f75780820380516001836020036101000a031916815260200191505b50858103825287818151815260200191508051906020019080838360005b838110156200123257808201518184015260208101905062001215565b50505050905090810190601f168015620012605780820380516001836020036101000a031916815260200191505b509a505050505050505050505060405180910390a180915050949350505050565b600560009054906101000a900473ffffffffffffffffffffffffffffffffffffffff1681565b6000600560009054906101000a900473ffffffffffffffffffffffffffffffffffffffff1673ffffffffffffffffffffffffffffffffffffffff163373ffffffffffffffffffffffffffffffffffffffff16146200130457600080fd5b81600460006101000a81548173ffffffffffffffffffffffffffffffffffffffff021916908373ffffffffffffffffffffffffffffffffffffffff16021790555060019050919050565b6000600260009054906101000a900473ffffffffffffffffffffffffffffffffffffffff16905090565b6000600560009054906101000a900473ffffffffffffffffffffffffffffffffffffffff1673ffffffffffffffffffffffffffffffffffffffff163373ffffffffffffffffffffffffffffffffffffffff1614620013d557600080fd5b8160078190555060019050919050565b600080831415620013fa57600090506200146a565b60008284029050828482816200140c57fe5b041462001465576040517f08c379a00000000000000000000000000000000000000000000000000000000081526004018080602001828103825260218152602001806200549b6021913960400191505060405180910390fd5b809150505b92915050565b6000808211620014e8576040517f08c379a000000000000000000000000000000000000000000000000000000000815260040180806020018281038252601a8152602001807f536166654d6174683a206469766973696f6e206279207a65726f00000000000081525060200191505060405180910390fd5b818381620014f257fe5b04905092915050565b613f91806200150a8339019056fe60806040523480156200001157600080fd5b5060405162003f9138038062003f91833981810160405260a08110156200003757600080fd5b81019080805160405193929190846401000000008211156200005857600080fd5b838201915060208201858111156200006f57600080fd5b82518660018202830111640100000000821117156200008d57600080fd5b8083526020830192505050908051906020019080838360005b83811015620000c3578082015181840152602081019050620000a6565b50505050905090810190601f168015620000f15780820380516001836020036101000a031916815260200191505b50604052602001805160405193929190846401000000008211156200011557600080fd5b838201915060208201858111156200012c57600080fd5b82518660018202830111640100000000821117156200014a57600080fd5b8083526020830192505050908051906020019080838360005b838110156200018057808201518184015260208101905062000163565b50505050905090810190601f168015620001ae5780820380516001836020036101000a031916815260200191505b5060405260200180516040519392919084640100000000821115620001d257600080fd5b83820191506020820185811115620001e957600080fd5b82518660018202830111640100000000821117156200020757600080fd5b8083526020830192505050908051906020019080838360005b838110156200023d57808201518184015260208101905062000220565b50505050905090810190601f1680156200026b5780820380516001836020036101000a031916815260200191505b50604052602001805160405193929190846401000000008211156200028f57600080fd5b83820191506020820185811115620002a657600080fd5b8251866001820283011164010000000082111715620002c457600080fd5b8083526020830192505050908051906020019080838360005b83811015620002fa578082015181840152602081019050620002dd565b50505050905090810190601f168015620003285780820380516001836020036101000a031916815260200191505b506040526020018051906020019092919050505081620003556301ffc9a760e01b6200043f60201b60201c565b62000366816200054860201b60201c565b6200037e63d9b67a2660e01b6200043f60201b60201c565b62000396630e89341c60e01b6200043f60201b60201c565b508460049080519060200190620003af92919062000564565b508360059080519060200190620003c892919062000564565b508260069080519060200190620003e192919062000564565b5080600760006101000a81548173ffffffffffffffffffffffffffffffffffffffff021916908373ffffffffffffffffffffffffffffffffffffffff16021790555062000434826200054860201b60201c565b50505050506200061a565b63ffffffff60e01b817bffffffffffffffffffffffffffffffffffffffffffffffffffffffff19161415620004dc576040517f08c379a000000000000000000000000000000000000000000000000000000000815260040180806020018281038252601c8152602001807f4552433136353a20696e76616c696420696e746572666163652069640000000081525060200191505060405180910390fd5b6001600080837bffffffffffffffffffffffffffffffffffffffffffffffffffffffff19167bffffffffffffffffffffffffffffffffffffffffffffffffffffffff1916815260200190815260200160002060006101000a81548160ff02191690831515021790555050565b80600390805190602001906200056092919062000564565b5050565b828054600181600116156101000203166002900490600052602060002090601f0160209004810192826200059c5760008555620005e8565b82601f10620005b757805160ff1916838001178555620005e8565b82800160010185558215620005e8579182015b82811115620005e7578251825591602001919060010190620005ca565b5b509050620005f79190620005fb565b5090565b5b8082111562000616576000816000905550600101620005fc565b5090565b613967806200062a6000396000f3fe608060405234801561001057600080fd5b50600436106101205760003560e01c80636bff2c24116100ad578063d81d0a1511610071578063d81d0a1514610b85578063e985e9c514610d07578063f242432a14610d81578063f5298aca14610e90578063fba0ee6414610efe57610120565b80636bff2c24146109405780637b31a4d8146109fb578063817b66ee14610a7e578063a22cb46514610ab2578063cc41103a14610b0257610120565b8063156e29f6116100f4578063156e29f61461030957806329360ff1146103775780632eb2c2d6146103fa5780634e1273f41461061d5780636b20c454146107be57610120565b8062fdd58e1461012557806301ffc9a7146101875780630e89341c146101ea5780630febdd4914610291575b600080fd5b6101716004803603604081101561013b57600080fd5b81019080803573ffffffffffffffffffffffffffffffffffffffff1690602001909291908035906020019092919050505061108a565b6040518082815260200191505060405180910390f35b6101d26004803603602081101561019d57600080fd5b8101908080357bffffffffffffffffffffffffffffffffffffffffffffffffffffffff1916906020019092919050505061116a565b60405180821515815260200191505060405180910390f35b6102166004803603602081101561020057600080fd5b81019080803590602001909291905050506111d1565b6040518080602001828103825283818151815260200191508051906020019080838360005b8381101561025657808201518184015260208101905061023b565b50505050905090810190601f1680156102835780820380516001836020036101000a031916815260200191505b509250505060405180910390f35b610307600480360360808110156102a757600080fd5b81019080803573ffffffffffffffffffffffffffffffffffffffff169060200190929190803573ffffffffffffffffffffffffffffffffffffffff1690602001909291908035906020019092919080359060200190929190505050611275565b005b61035f6004803603606081101561031f57600080fd5b81019080803573ffffffffffffffffffffffffffffffffffffffff1690602001909291908035906020019092919080359060200190929190505050611297565b60405180821515815260200191505060405180910390f35b61037f611319565b6040518080602001828103825283818151815260200191508051906020019080838360005b838110156103bf5780820151818401526020810190506103a4565b50505050905090810190601f1680156103ec5780820380516001836020036101000a031916815260200191505b509250505060405180910390f35b61061b600480360360a081101561041057600080fd5b81019080803573ffffffffffffffffffffffffffffffffffffffff169060200190929190803573ffffffffffffffffffffffffffffffffffffffff1690602001909291908035906020019064010000000081111561046d57600080fd5b82018360208201111561047f57600080fd5b803590602001918460208302840111640100000000831117156104a157600080fd5b919080806020026020016040519081016040528093929190818152602001838360200280828437600081840152601f19601f8201169050808301925050505050505091929192908035906020019064010000000081111561050157600080fd5b82018360208201111561051357600080fd5b8035906020019184602083028401116401000000008311171561053557600080fd5b919080806020026020016040519081016040528093929190818152602001838360200280828437600081840152601f19601f8201169050808301925050505050505091929192908035906020019064010000000081111561059557600080fd5b8201836020820111156105a757600080fd5b803590602001918460018302840111640100000000831117156105c957600080fd5b91908080601f016020809104026020016040519081016040528093929190818152602001838380828437600081840152601f19601f8201169050808301925050505050505091929192905050506113b7565b005b6107676004803603604081101561063357600080fd5b810190808035906020019064010000000081111561065057600080fd5b82018360208201111561066257600080fd5b8035906020019184602083028401116401000000008311171561068457600080fd5b919080806020026020016040519081016040528093929190818152602001838360200280828437600081840152601f19601f820116905080830192505050505050509192919290803590602001906401000000008111156106e457600080fd5b8201836020820111156106f657600080fd5b8035906020019184602083028401116401000000008311171561071857600080fd5b919080806020026020016040519081016040528093929190818152602001838360200280828437600081840152601f19601f820116905080830192505050505050509192919290505050611842565b6040518080602001828103825283818151815260200191508051906020019060200280838360005b838110156107aa57808201518184015260208101905061078f565b505050509050019250505060405180910390f35b610928600480360360608110156107d457600080fd5b81019080803573ffffffffffffffffffffffffffffffffffffffff1690602001909291908035906020019064010000000081111561081157600080fd5b82018360208201111561082357600080fd5b8035906020019184602083028401116401000000008311171561084557600080fd5b919080806020026020016040519081016040528093929190818152602001838360200280828437600081840152601f19601f820116905080830192505050505050509192919290803590602001906401000000008111156108a557600080fd5b8201836020820111156108b757600080fd5b803590602001918460208302840111640100000000831117156108d957600080fd5b919080806020026020016040519081016040528093929190818152602001838360200280828437600081840152601f19601f820116905080830192505050505050509192919290505050611954565b60405180821515815260200191505060405180910390f35b6109f96004803603602081101561095657600080fd5b810190808035906020019064010000000081111561097357600080fd5b82018360208201111561098557600080fd5b803590602001918460018302840111640100000000831117156109a757600080fd5b91908080601f016020809104026020016040519081016040528093929190818152602001838380828437600081840152601f19601f8201169050808301925050505050505091929192905050506119ef565b005b610a03611a55565b6040518080602001828103825283818151815260200191508051906020019080838360005b83811015610a43578082015181840152602081019050610a28565b50505050905090810190601f168015610a705780820380516001836020036101000a031916815260200191505b509250505060405180910390f35b610a86611af3565b604051808273ffffffffffffffffffffffffffffffffffffffff16815260200191505060405180910390f35b610b0060048036036040811015610ac857600080fd5b81019080803573ffffffffffffffffffffffffffffffffffffffff169060200190929190803515159060200190929190505050611b19565b005b610b0a611cb2565b6040518080602001828103825283818151815260200191508051906020019080838360005b83811015610b4a578082015181840152602081019050610b2f565b50505050905090810190601f168015610b775780820380516001836020036101000a031916815260200191505b509250505060405180910390f35b610cef60048036036060811015610b9b57600080fd5b81019080803573ffffffffffffffffffffffffffffffffffffffff16906020019092919080359060200190640100000000811115610bd857600080fd5b820183602082011115610bea57600080fd5b80359060200191846020830284011164010000000083111715610c0c57600080fd5b919080806020026020016040519081016040528093929190818152602001838360200280828437600081840152601f19601f82011690508083019250505050505050919291929080359060200190640100000000811115610c6c57600080fd5b820183602082011115610c7e57600080fd5b80359060200191846020830284011164010000000083111715610ca057600080fd5b919080806020026020016040519081016040528093929190818152602001838360200280828437600081840152601f19601f820116905080830192505050505050509192919290505050611d50565b60405180821515815260200191505060405180910390f35b610d6960048036036040811015610d1d57600080fd5b81019080803573ffffffffffffffffffffffffffffffffffffffff169060200190929190803573ffffffffffffffffffffffffffffffffffffffff169060200190929190505050611dd2565b60405180821515815260200191505060405180910390f35b610e8e600480360360a0811015610d9757600080fd5b81019080803573ffffffffffffffffffffffffffffffffffffffff169060200190929190803573ffffffffffffffffffffffffffffffffffffffff169060200190929190803590602001909291908035906020019092919080359060200190640100000000811115610e0857600080fd5b820183602082011115610e1a57600080fd5b80359060200191846001830284011164010000000083111715610e3c57600080fd5b91908080601f016020809104026020016040519081016040528093929190818152602001838380828437600081840152601f19601f820116905080830192505050505050509192919290505050611e66565b005b610ee660048036036060811015610ea657600080fd5b81019080803573ffffffffffffffffffffffffffffffffffffffff16906020019092919080359060200190929190803590602001909291905050506121db565b60405180821515815260200191505060405180910390f35b61108860048036036080811015610f1457600080fd5b81019080803573ffffffffffffffffffffffffffffffffffffffff169060200190929190803573ffffffffffffffffffffffffffffffffffffffff16906020019092919080359060200190640100000000811115610f7157600080fd5b820183602082011115610f8357600080fd5b80359060200191846020830284011164010000000083111715610fa557600080fd5b919080806020026020016040519081016040528093929190818152602001838360200280828437600081840152601f19601f8201169050808301925050505050505091929192908035906020019064010000000081111561100557600080fd5b82018360208201111561101757600080fd5b8035906020019184602083028401116401000000008311171561103957600080fd5b919080806020026020016040519081016040528093929190818152602001838360200280828437600081840152601f19601f820116905080830192505050505050509192919290505050612276565b005b60008073ffffffffffffffffffffffffffffffffffffffff168373ffffffffffffffffffffffffffffffffffffffff161415611111576040517f08c379a000000000000000000000000000000000000000000000000000000000815260040180806020018281038252602b81526020018061377b602b913960400191505060405180910390fd5b6001600083815260200190815260200160002060008473ffffffffffffffffffffffffffffffffffffffff1673ffffffffffffffffffffffffffffffffffffffff16815260200190815260200160002054905092915050565b6000806000837bffffffffffffffffffffffffffffffffffffffffffffffffffffffff19167bffffffffffffffffffffffffffffffffffffffffffffffffffffffff1916815260200190815260200160002060009054906101000a900460ff169050919050565b606060038054600181600116156101000203166002900480601f0160208091040260200160405190810160405280929190818152602001828054600181600116156101000203166002900480156112695780601f1061123e57610100808354040283529160200191611269565b820191906000526020600020905b81548152906001019060200180831161124c57829003601f168201915b50505050509050919050565b6112918484848460405180602001604052806000815250611e66565b50505050565b6000600760009054906101000a900473ffffffffffffffffffffffffffffffffffffffff1673ffffffffffffffffffffffffffffffffffffffff163373ffffffffffffffffffffffffffffffffffffffff16146112f357600080fd5b61130e84848460405180602001604052806000815250612298565b600190509392505050565b60048054600181600116156101000203166002900480601f0160208091040260200160405190810160405280929190818152602001828054600181600116156101000203166002900480156113af5780601f10611384576101008083540402835291602001916113af565b820191906000526020600020905b81548152906001019060200180831161139257829003601f168201915b505050505081565b8151835114611411576040517f08c379a00000000000000000000000000000000000000000000000000000000081526004018080602001828103825260288152602001806138e96028913960400191505060405180910390fd5b600073ffffffffffffffffffffffffffffffffffffffff168473ffffffffffffffffffffffffffffffffffffffff161415611497576040517f08c379a00000000000000000000000000000000000000000000000000000000081526004018080602001828103825260258152602001806137f36025913960400191505060405180910390fd5b61149f61249b565b73ffffffffffffffffffffffffffffffffffffffff168573ffffffffffffffffffffffffffffffffffffffff1614806114e557506114e4856114df61249b565b611dd2565b5b61153a576040517f08c379a00000000000000000000000000000000000000000000000000000000081526004018080602001828103825260328152602001806138186032913960400191505060405180910390fd5b600061154461249b565b90506115548187878787876124a3565b60005b845181101561172557600085828151811061156e57fe5b60200260200101519050600085838151811061158657fe5b6020026020010151905061160d816040518060600160405280602a815260200161386d602a91396001600086815260200190815260200160002060008d73ffffffffffffffffffffffffffffffffffffffff1673ffffffffffffffffffffffffffffffffffffffff168152602001908152602001600020546124ab9092919063ffffffff16565b6001600084815260200190815260200160002060008b73ffffffffffffffffffffffffffffffffffffffff1673ffffffffffffffffffffffffffffffffffffffff168152602001908152602001600020819055506116c4816001600085815260200190815260200160002060008b73ffffffffffffffffffffffffffffffffffffffff1673ffffffffffffffffffffffffffffffffffffffff1681526020019081526020016000205461256590919063ffffffff16565b6001600084815260200190815260200160002060008a73ffffffffffffffffffffffffffffffffffffffff1673ffffffffffffffffffffffffffffffffffffffff168152602001908152602001600020819055505050806001019050611557565b508473ffffffffffffffffffffffffffffffffffffffff168673ffffffffffffffffffffffffffffffffffffffff168273ffffffffffffffffffffffffffffffffffffffff167f4a39dc06d4c0dbc64b70af90fd698a233a518aa5d07e595d983b8c0526c8f7fb8787604051808060200180602001838103835285818151815260200191508051906020019060200280838360005b838110156117d55780820151818401526020810190506117ba565b50505050905001838103825284818151815260200191508051906020019060200280838360005b838110156118175780820151818401526020810190506117fc565b5050505090500194505050505060405180910390a461183a8187878787876125ed565b505050505050565b6060815183511461189e576040517f08c379a00000000000000000000000000000000000000000000000000000000081526004018080602001828103825260298152602001806138c06029913960400191505060405180910390fd5b6060835167ffffffffffffffff811180156118b857600080fd5b506040519080825280602002602001820160405280156118e75781602001602082028036833780820191505090505b50905060005b84518110156119495761192685828151811061190557fe5b602002602001015185838151811061191957fe5b602002602001015161108a565b82828151811061193257fe5b6020026020010181815250508060010190506118ed565b508091505092915050565b60006119678461196261249b565b611dd2565b6119d9576040517f08c379a000000000000000000000000000000000000000000000000000000000815260040180806020018281038252601c8152602001807f417274466163746f72793a20496e76616c6964206f70657261746f720000000081525060200191505060405180910390fd5b6119e484848461297c565b600190509392505050565b600760009054906101000a900473ffffffffffffffffffffffffffffffffffffffff1673ffffffffffffffffffffffffffffffffffffffff163373ffffffffffffffffffffffffffffffffffffffff1614611a4957600080fd5b611a5281612cb7565b50565b60068054600181600116156101000203166002900480601f016020809104026020016040519081016040528092919081815260200182805460018160011615610100020316600290048015611aeb5780601f10611ac057610100808354040283529160200191611aeb565b820191906000526020600020905b815481529060010190602001808311611ace57829003601f168201915b505050505081565b600760009054906101000a900473ffffffffffffffffffffffffffffffffffffffff1681565b8173ffffffffffffffffffffffffffffffffffffffff16611b3861249b565b73ffffffffffffffffffffffffffffffffffffffff161415611ba5576040517f08c379a00000000000000000000000000000000000000000000000000000000081526004018080602001828103825260298152602001806138976029913960400191505060405180910390fd5b8060026000611bb261249b565b73ffffffffffffffffffffffffffffffffffffffff1673ffffffffffffffffffffffffffffffffffffffff16815260200190815260200160002060008473ffffffffffffffffffffffffffffffffffffffff1673ffffffffffffffffffffffffffffffffffffffff16815260200190815260200160002060006101000a81548160ff0219169083151502179055508173ffffffffffffffffffffffffffffffffffffffff16611c5f61249b565b73ffffffffffffffffffffffffffffffffffffffff167f17307eab39ab6107e8899845ad3d59bd9653f200f220920489ca2b5937696c318360405180821515815260200191505060405180910390a35050565b60058054600181600116156101000203166002900480601f016020809104026020016040519081016040528092919081815260200182805460018160011615610100020316600290048015611d485780601f10611d1d57610100808354040283529160200191611d48565b820191906000526020600020905b815481529060010190602001808311611d2b57829003601f168201915b505050505081565b6000600760009054906101000a900473ffffffffffffffffffffffffffffffffffffffff1673ffffffffffffffffffffffffffffffffffffffff163373ffffffffffffffffffffffffffffffffffffffff1614611dac57600080fd5b611dc784848460405180602001604052806000815250612cd1565b600190509392505050565b6000600260008473ffffffffffffffffffffffffffffffffffffffff1673ffffffffffffffffffffffffffffffffffffffff16815260200190815260200160002060008373ffffffffffffffffffffffffffffffffffffffff1673ffffffffffffffffffffffffffffffffffffffff16815260200190815260200160002060009054906101000a900460ff16905092915050565b600073ffffffffffffffffffffffffffffffffffffffff168473ffffffffffffffffffffffffffffffffffffffff161415611eec576040517f08c379a00000000000000000000000000000000000000000000000000000000081526004018080602001828103825260258152602001806137f36025913960400191505060405180910390fd5b611ef461249b565b73ffffffffffffffffffffffffffffffffffffffff168573ffffffffffffffffffffffffffffffffffffffff161480611f3a5750611f3985611f3461249b565b611dd2565b5b611f8f576040517f08c379a00000000000000000000000000000000000000000000000000000000081526004018080602001828103825260298152602001806137ca6029913960400191505060405180910390fd5b6000611f9961249b565b9050611fb9818787611faa88612ff3565b611fb388612ff3565b876124a3565b612036836040518060600160405280602a815260200161386d602a91396001600088815260200190815260200160002060008a73ffffffffffffffffffffffffffffffffffffffff1673ffffffffffffffffffffffffffffffffffffffff168152602001908152602001600020546124ab9092919063ffffffff16565b6001600086815260200190815260200160002060008873ffffffffffffffffffffffffffffffffffffffff1673ffffffffffffffffffffffffffffffffffffffff168152602001908152602001600020819055506120ed836001600087815260200190815260200160002060008873ffffffffffffffffffffffffffffffffffffffff1673ffffffffffffffffffffffffffffffffffffffff1681526020019081526020016000205461256590919063ffffffff16565b6001600086815260200190815260200160002060008773ffffffffffffffffffffffffffffffffffffffff1673ffffffffffffffffffffffffffffffffffffffff168152602001908152602001600020819055508473ffffffffffffffffffffffffffffffffffffffff168673ffffffffffffffffffffffffffffffffffffffff168273ffffffffffffffffffffffffffffffffffffffff167fc3d58168c5ae7397731d063d5bbf3d657854427343f4c083240f7aacaa2d0f628787604051808381526020018281526020019250505060405180910390a46121d3818787878787613063565b505050505050565b60006121ee846121e961249b565b611dd2565b612260576040517f08c379a000000000000000000000000000000000000000000000000000000000815260040180806020018281038252601c8152602001807f417274466163746f72793a20496e76616c6964206f70657261746f720000000081525060200191505060405180910390fd5b61226b848484613370565b600190509392505050565b61229284848484604051806020016040528060008152506113b7565b50505050565b600073ffffffffffffffffffffffffffffffffffffffff168473ffffffffffffffffffffffffffffffffffffffff16141561231e576040517f08c379a00000000000000000000000000000000000000000000000000000000081526004018080602001828103825260218152602001806139116021913960400191505060405180910390fd5b600061232861249b565b90506123498160008761233a88612ff3565b61234388612ff3565b876124a3565b6123ac836001600087815260200190815260200160002060008873ffffffffffffffffffffffffffffffffffffffff1673ffffffffffffffffffffffffffffffffffffffff1681526020019081526020016000205461256590919063ffffffff16565b6001600086815260200190815260200160002060008773ffffffffffffffffffffffffffffffffffffffff1673ffffffffffffffffffffffffffffffffffffffff168152602001908152602001600020819055508473ffffffffffffffffffffffffffffffffffffffff16600073ffffffffffffffffffffffffffffffffffffffff168273ffffffffffffffffffffffffffffffffffffffff167fc3d58168c5ae7397731d063d5bbf3d657854427343f4c083240f7aacaa2d0f628787604051808381526020018281526020019250505060405180910390a461249481600087878787613063565b5050505050565b600033905090565b505050505050565b6000838311158290612558576040517f08c379a00000000000000000000000000000000000000000000000000000000081526004018080602001828103825283818151815260200191508051906020019080838360005b8381101561251d578082015181840152602081019050612502565b50505050905090810190601f16801561254a5780820380516001836020036101000a031916815260200191505b509250505060405180910390fd5b5082840390509392505050565b6000808284019050838110156125e3576040517f08c379a000000000000000000000000000000000000000000000000000000000815260040180806020018281038252601b8152602001807f536166654d6174683a206164646974696f6e206f766572666c6f77000000000081525060200191505060405180910390fd5b8091505092915050565b61260c8473ffffffffffffffffffffffffffffffffffffffff1661358c565b15612974578373ffffffffffffffffffffffffffffffffffffffff1663bc197c8187878686866040518663ffffffff1660e01b8152600401808673ffffffffffffffffffffffffffffffffffffffff1681526020018573ffffffffffffffffffffffffffffffffffffffff168152602001806020018060200180602001848103845287818151815260200191508051906020019060200280838360005b838110156126c45780820151818401526020810190506126a9565b50505050905001848103835286818151815260200191508051906020019060200280838360005b838110156127065780820151818401526020810190506126eb565b50505050905001848103825285818151815260200191508051906020019080838360005b8381101561274557808201518184015260208101905061272a565b50505050905090810190601f1680156127725780820380516001836020036101000a031916815260200191505b5098505050505050505050602060405180830381600087803b15801561279757600080fd5b505af19250505080156127cb57506040513d60208110156127b757600080fd5b810190808051906020019092919050505060015b6128d5576127d7613668565b806127e25750612884565b806040517f08c379a00000000000000000000000000000000000000000000000000000000081526004018080602001828103825283818151815260200191508051906020019080838360005b8381101561284957808201518184015260208101905061282e565b50505050905090810190601f1680156128765780820380516001836020036101000a031916815260200191505b509250505060405180910390fd5b6040517f08c379a000000000000000000000000000000000000000000000000000000000815260040180806020018281038252603481526020018061371f6034913960400191505060405180910390fd5b63bc197c8160e01b7bffffffffffffffffffffffffffffffffffffffffffffffffffffffff1916817bffffffffffffffffffffffffffffffffffffffffffffffffffffffff191614612972576040517f08c379a00000000000000000000000000000000000000000000000000000000081526004018080602001828103825260288152602001806137536028913960400191505060405180910390fd5b505b505050505050565b600073ffffffffffffffffffffffffffffffffffffffff168373ffffffffffffffffffffffffffffffffffffffff161415612a02576040517f08c379a000000000000000000000000000000000000000000000000000000000815260040180806020018281038252602381526020018061384a6023913960400191505060405180910390fd5b8051825114612a5c576040517f08c379a00000000000000000000000000000000000000000000000000000000081526004018080602001828103825260288152602001806138e96028913960400191505060405180910390fd5b6000612a6661249b565b9050612a86818560008686604051806020016040528060008152506124a3565b60005b8351811015612ba957612b35838281518110612aa157fe5b60200260200101516040518060600160405280602481526020016137a66024913960016000888681518110612ad257fe5b6020026020010151815260200190815260200160002060008973ffffffffffffffffffffffffffffffffffffffff1673ffffffffffffffffffffffffffffffffffffffff168152602001908152602001600020546124ab9092919063ffffffff16565b60016000868481518110612b4557fe5b6020026020010151815260200190815260200160002060008773ffffffffffffffffffffffffffffffffffffffff1673ffffffffffffffffffffffffffffffffffffffff168152602001908152602001600020819055508080600101915050612a89565b50600073ffffffffffffffffffffffffffffffffffffffff168473ffffffffffffffffffffffffffffffffffffffff168273ffffffffffffffffffffffffffffffffffffffff167f4a39dc06d4c0dbc64b70af90fd698a233a518aa5d07e595d983b8c0526c8f7fb8686604051808060200180602001838103835285818151815260200191508051906020019060200280838360005b83811015612c5a578082015181840152602081019050612c3f565b50505050905001838103825284818151815260200191508051906020019060200280838360005b83811015612c9c578082015181840152602081019050612c81565b5050505090500194505050505060405180910390a450505050565b8060039080519060200190612ccd92919061359f565b5050565b600073ffffffffffffffffffffffffffffffffffffffff168473ffffffffffffffffffffffffffffffffffffffff161415612d57576040517f08c379a00000000000000000000000000000000000000000000000000000000081526004018080602001828103825260218152602001806139116021913960400191505060405180910390fd5b8151835114612db1576040517f08c379a00000000000000000000000000000000000000000000000000000000081526004018080602001828103825260288152602001806138e96028913960400191505060405180910390fd5b6000612dbb61249b565b9050612dcc816000878787876124a3565b60005b8451811015612ed557612e6160016000878481518110612deb57fe5b6020026020010151815260200190815260200160002060008873ffffffffffffffffffffffffffffffffffffffff1673ffffffffffffffffffffffffffffffffffffffff16815260200190815260200160002054858381518110612e4b57fe5b602002602001015161256590919063ffffffff16565b60016000878481518110612e7157fe5b6020026020010151815260200190815260200160002060008873ffffffffffffffffffffffffffffffffffffffff1673ffffffffffffffffffffffffffffffffffffffff168152602001908152602001600020819055508080600101915050612dcf565b508473ffffffffffffffffffffffffffffffffffffffff16600073ffffffffffffffffffffffffffffffffffffffff168273ffffffffffffffffffffffffffffffffffffffff167f4a39dc06d4c0dbc64b70af90fd698a233a518aa5d07e595d983b8c0526c8f7fb8787604051808060200180602001838103835285818151815260200191508051906020019060200280838360005b83811015612f86578082015181840152602081019050612f6b565b50505050905001838103825284818151815260200191508051906020019060200280838360005b83811015612fc8578082015181840152602081019050612fad565b5050505090500194505050505060405180910390a4612fec816000878787876125ed565b5050505050565b606080600167ffffffffffffffff8111801561300e57600080fd5b5060405190808252806020026020018201604052801561303d5781602001602082028036833780820191505090505b509050828160008151811061304e57fe5b60200260200101818152505080915050919050565b6130828473ffffffffffffffffffffffffffffffffffffffff1661358c565b15613368578373ffffffffffffffffffffffffffffffffffffffff1663f23a6e6187878686866040518663ffffffff1660e01b8152600401808673ffffffffffffffffffffffffffffffffffffffff1681526020018573ffffffffffffffffffffffffffffffffffffffff16815260200184815260200183815260200180602001828103825283818151815260200191508051906020019080838360005b8381101561313b578082015181840152602081019050613120565b50505050905090810190601f1680156131685780820380516001836020036101000a031916815260200191505b509650505050505050602060405180830381600087803b15801561318b57600080fd5b505af19250505080156131bf57506040513d60208110156131ab57600080fd5b810190808051906020019092919050505060015b6132c9576131cb613668565b806131d65750613278565b806040517f08c379a00000000000000000000000000000000000000000000000000000000081526004018080602001828103825283818151815260200191508051906020019080838360005b8381101561323d578082015181840152602081019050613222565b50505050905090810190601f16801561326a5780820380516001836020036101000a031916815260200191505b509250505060405180910390fd5b6040517f08c379a000000000000000000000000000000000000000000000000000000000815260040180806020018281038252603481526020018061371f6034913960400191505060405180910390fd5b63f23a6e6160e01b7bffffffffffffffffffffffffffffffffffffffffffffffffffffffff1916817bffffffffffffffffffffffffffffffffffffffffffffffffffffffff191614613366576040517f08c379a00000000000000000000000000000000000000000000000000000000081526004018080602001828103825260288152602001806137536028913960400191505060405180910390fd5b505b505050505050565b600073ffffffffffffffffffffffffffffffffffffffff168373ffffffffffffffffffffffffffffffffffffffff1614156133f6576040517f08c379a000000000000000000000000000000000000000000000000000000000815260040180806020018281038252602381526020018061384a6023913960400191505060405180910390fd5b600061340061249b565b90506134308185600061341287612ff3565b61341b87612ff3565b604051806020016040528060008152506124a3565b6134ad826040518060600160405280602481526020016137a6602491396001600087815260200190815260200160002060008873ffffffffffffffffffffffffffffffffffffffff1673ffffffffffffffffffffffffffffffffffffffff168152602001908152602001600020546124ab9092919063ffffffff16565b6001600085815260200190815260200160002060008673ffffffffffffffffffffffffffffffffffffffff1673ffffffffffffffffffffffffffffffffffffffff16815260200190815260200160002081905550600073ffffffffffffffffffffffffffffffffffffffff168473ffffffffffffffffffffffffffffffffffffffff168273ffffffffffffffffffffffffffffffffffffffff167fc3d58168c5ae7397731d063d5bbf3d657854427343f4c083240f7aacaa2d0f628686604051808381526020018281526020019250505060405180910390a450505050565b600080823b905060008111915050919050565b828054600181600116156101000203166002900490600052602060002090601f0160209004810192826135d5576000855561361c565b82601f106135ee57805160ff191683800117855561361c565b8280016001018555821561361c579182015b8281111561361b578251825591602001919060010190613600565b5b509050613629919061362d565b5090565b5b8082111561364657600081600090555060010161362e565b5090565b6000601f19601f8301169050919050565b60008160e01c9050919050565b600060443d10156136785761371b565b60046000803e61368960005161365b565b6308c379a0811461369a575061371b565b60405160043d036004823e80513d602482011167ffffffffffffffff821117156136c65750505061371b565b808201805167ffffffffffffffff8111156136e557505050505061371b565b8060208301013d85018111156137005750505050505061371b565b6137098261364a565b60208401016040528296505050505050505b9056fe455243313135353a207472616e7366657220746f206e6f6e2045524331313535526563656976657220696d706c656d656e746572455243313135353a204552433131353552656365697665722072656a656374656420746f6b656e73455243313135353a2062616c616e636520717565727920666f7220746865207a65726f2061646472657373455243313135353a206275726e20616d6f756e7420657863656564732062616c616e6365455243313135353a2063616c6c6572206973206e6f74206f776e6572206e6f7220617070726f766564455243313135353a207472616e7366657220746f20746865207a65726f2061646472657373455243313135353a207472616e736665722063616c6c6572206973206e6f74206f776e6572206e6f7220617070726f766564455243313135353a206275726e2066726f6d20746865207a65726f2061646472657373455243313135353a20696e73756666696369656e742062616c616e636520666f72207472616e73666572455243313135353a2073657474696e6720617070726f76616c2073746174757320666f722073656c66455243313135353a206163636f756e747320616e6420696473206c656e677468206d69736d61746368455243313135353a2069647320616e6420616d6f756e7473206c656e677468206d69736d61746368455243313135353a206d696e7420746f20746865207a65726f2061646472657373a2646970667358221220e3aa8628baec83f957255135db84d731c4e3d1c5950ec7d49423b68ecc9a994464736f6c63430007040033536166654d6174683a206d756c7469706c69636174696f6e206f766572666c6f77a2646970667358221220333935ec6bea23bfc8239a18495157105c344e4fc83182ab4e71f2c81eac32a064736f6c63430007040033536166654d6174683a206d756c7469706c69636174696f6e206f766572666c6f77",
  "immutableReferences": {},
  "source": "// SPDX-License-Identifier: MIT\r\npragma solidity >=0.4.22 <0.8.4;\r\nimport \"@openzeppelin/contracts/token/ERC20/ERC20.sol\";\r\nimport \"./ArtFactory1155.sol\";\r\n\r\ncontract ArtGallery1155 {\r\n    using SafeMath for uint256;\r\n    // mapping to save the symbol to Gallery Address\r\n    mapping(string => address) symbolToGalleryAddress;\r\n    //mapping to save all the gallery addresses of an owner\r\n    mapping(address => address[]) userToGalleries;\r\n\r\n    address lastaddress;\r\n    string lastUri;\r\n    address public feeAccount = address(0x0000000000000000000000);\r\n    address public _owner = address(0x0000000000000000000000);\r\n\r\n    // ERC20 cifiTokenContract = ERC20(0xe56aB536c90E5A8f06524EA639bE9cB3589B8146);\r\n    ERC20 cifiTokenContract = ERC20(0x89F2a5463eF4e4176E57EEf2b2fDD256Bf4bC2bD);\r\n\r\n    uint256 FEE = 100;\r\n    uint8 cifiDecimals = cifiTokenContract.decimals();\r\n    uint256 public feeAmount = FEE.mul(10**cifiDecimals).div(100);\r\n\r\n    event Gallery1155Created(\r\n        string name,\r\n        string symbol,\r\n        string description,\r\n        address caller,\r\n        string uri,\r\n        address galleryAddress\r\n    );\r\n\r\n    constructor() {\r\n        feeAccount = msg.sender;\r\n        _owner = msg.sender;\r\n    }\r\n\r\n    function createGallery(\r\n        string memory name,\r\n        string memory symbol,\r\n        string memory description,\r\n        string memory uri\r\n    ) public returns (address) {\r\n        require(msg.sender != address(0), \"Invalid address\");\r\n        require(bytes(name).length != 0, \"name can't be empty\");\r\n        require(bytes(symbol).length != 0, \"symbol can't be empty\");\r\n        uniqueSymbol(symbol);\r\n        cifiTokenContract.transferFrom(msg.sender, feeAccount, feeAmount);\r\n        ArtFactory1155 gallery =\r\n            new ArtFactory1155(name, symbol, description, uri, msg.sender);\r\n\r\n        // adding the gallery address to the symbolToGalleryAddress\r\n        symbolToGalleryAddress[symbol] = address(gallery);\r\n\r\n        // saving the last gallery address\r\n        lastaddress = address(gallery);\r\n\r\n        // adding the gallery address to the uriToGalleryAddress\r\n\r\n        // adding the address to address array for userToGalleries\r\n        userToGalleries[msg.sender].push(address(gallery));\r\n\r\n        emit Gallery1155Created(\r\n            name,\r\n            symbol,\r\n            description,\r\n            msg.sender,\r\n            uri,\r\n            address(gallery)\r\n        );\r\n\r\n        return address(gallery);\r\n    }\r\n\r\n    function uniqueSymbol(string memory symbol) public view returns (bool) {\r\n        require(\r\n            symbolToGalleryAddress[symbol] == address(0),\r\n            \"symbol already used\"\r\n        );\r\n        return true;\r\n    }\r\n\r\n    function getlastAddress() public view returns (address) {\r\n        return lastaddress;\r\n    }\r\n\r\n    function getGalleries(address _user)\r\n        public\r\n        view\r\n        returns (address[] memory)\r\n    {\r\n        return userToGalleries[_user];\r\n    }\r\n\r\n    function getGallery(string memory _symbol) public view returns (address) {\r\n        return symbolToGalleryAddress[_symbol];\r\n    }\r\n\r\n    /**\r\n     * this function allows you to change the address that is going to receive the fee amount\r\n     */\r\n    function ChangeFeeAccount(address newFeeAccount) public returns (bool) {\r\n        require(msg.sender == _owner);\r\n        feeAccount = newFeeAccount;\r\n        return true;\r\n    }\r\n\r\n    function ChangeFeeAmount(uint256 newFeeAmount) public returns (bool) {\r\n        require(msg.sender == _owner);\r\n        FEE = newFeeAmount;\r\n        return true;\r\n    }\r\n}\r\n",
  "sourcePath": "F:/MyWork/LianHe/Citizen/ArtGallery/src/contracts/ArtGallery1155.sol",
  "compiler": {
    "name": "solc",
    "version": "0.7.4+commit.3f05b770.Emscripten.clang"
  },
  "schemaVersion": "3.3.4",
  "updatedAt": "2021-06-20T22:40:05.578Z",
  "devdoc": {
    "kind": "dev",
    "methods": {},
    "version": 1
  },
  "userdoc": {
    "kind": "user",
    "methods": {
      "ChangeFeeAccount(address)": {
        "notice": "this function allows you to change the address that is going to receive the fee amount"
      }
    },
    "version": 1
  }
}