{
  "contractName": "ArtGallery1155",
  "abi": [
    {
      "inputs": [],
      "stateMutability": "nonpayable",
      "type": "constructor"
    },
    {
      "anonymous": false,
      "inputs": [
        {
          "indexed": false,
          "internalType": "string",
          "name": "name",
          "type": "string"
        },
        {
          "indexed": false,
          "internalType": "string",
          "name": "symbol",
          "type": "string"
        },
        {
          "indexed": false,
          "internalType": "string",
          "name": "description",
          "type": "string"
        },
        {
          "indexed": false,
          "internalType": "address",
          "name": "caller",
          "type": "address"
        },
        {
          "indexed": false,
          "internalType": "string",
          "name": "uri",
          "type": "string"
        },
        {
          "indexed": false,
          "internalType": "address",
          "name": "galleryAddress",
          "type": "address"
        }
      ],
      "name": "Gallery1155Created",
      "type": "event"
    },
    {
      "inputs": [],
      "name": "_owner",
      "outputs": [
        {
          "internalType": "address",
          "name": "",
          "type": "address"
        }
      ],
      "stateMutability": "view",
      "type": "function"
    },
    {
      "inputs": [
        {
          "internalType": "string",
          "name": "name",
          "type": "string"
        },
        {
          "internalType": "string",
          "name": "symbol",
          "type": "string"
        },
        {
          "internalType": "string",
          "name": "description",
          "type": "string"
        },
        {
          "internalType": "string",
          "name": "uri",
          "type": "string"
        }
      ],
      "name": "createGallery",
      "outputs": [
        {
          "internalType": "address",
          "name": "",
          "type": "address"
        }
      ],
      "stateMutability": "nonpayable",
      "type": "function"
    },
    {
      "inputs": [
        {
          "internalType": "string",
          "name": "symbol",
          "type": "string"
        }
      ],
      "name": "uniqueSymbol",
      "outputs": [
        {
          "internalType": "bool",
          "name": "",
          "type": "bool"
        }
      ],
      "stateMutability": "view",
      "type": "function"
    },
    {
      "inputs": [],
      "name": "getlastAddress",
      "outputs": [
        {
          "internalType": "address",
          "name": "",
          "type": "address"
        }
      ],
      "stateMutability": "view",
      "type": "function"
    },
    {
      "inputs": [
        {
          "internalType": "address",
          "name": "_user",
          "type": "address"
        }
      ],
      "name": "getGalleries",
      "outputs": [
        {
          "internalType": "address[]",
          "name": "",
          "type": "address[]"
        }
      ],
      "stateMutability": "view",
      "type": "function"
    },
    {
      "inputs": [
        {
          "internalType": "string",
          "name": "_symbol",
          "type": "string"
        }
      ],
      "name": "getGallery",
      "outputs": [
        {
          "internalType": "address",
          "name": "",
          "type": "address"
        }
      ],
      "stateMutability": "view",
      "type": "function"
    }
  ],
  "bytecode": "0x60806040526000600460006101000a81548173ffffffffffffffffffffffffffffffffffffffff021916908373ffffffffffffffffffffffffffffffffffffffff16021790555034801561005257600080fd5b5033600460006101000a81548173ffffffffffffffffffffffffffffffffffffffff021916908373ffffffffffffffffffffffffffffffffffffffff16021790555061577d806100a36000396000f3fe60806040523480156200001157600080fd5b50600436106200006a5760003560e01c806338c92c94146200006f5780635322546d146200010d5780638ba63eea14620001f85780639acc65e714620002cf578063b2bdfa7b1462000588578063edceefa314620005be575b600080fd5b620000b4600480360360208110156200008757600080fd5b81019080803573ffffffffffffffffffffffffffffffffffffffff169060200190929190505050620005f4565b6040518080602001828103825283818151815260200191508051906020019060200280838360005b83811015620000f9578082015181840152602081019050620000dc565b505050509050019250505060405180910390f35b620001cc600480360360208110156200012557600080fd5b81019080803590602001906401000000008111156200014357600080fd5b8201836020820111156200015657600080fd5b803590602001918460018302840111640100000000831117156200017957600080fd5b91908080601f016020809104026020016040519081016040528093929190818152602001838380828437600081840152601f19601f820116905080830192505050505050509192919290505050620006c3565b604051808273ffffffffffffffffffffffffffffffffffffffff16815260200191505060405180910390f35b620002b7600480360360208110156200021057600080fd5b81019080803590602001906401000000008111156200022e57600080fd5b8201836020820111156200024157600080fd5b803590602001918460018302840111640100000000831117156200026457600080fd5b91908080601f016020809104026020016040519081016040528093929190818152602001838380828437600081840152601f19601f82011690508083019250505050505050919291929050505062000757565b60405180821515815260200191505060405180910390f35b6200055c60048036036080811015620002e757600080fd5b81019080803590602001906401000000008111156200030557600080fd5b8201836020820111156200031857600080fd5b803590602001918460018302840111640100000000831117156200033b57600080fd5b91908080601f016020809104026020016040519081016040528093929190818152602001838380828437600081840152601f19601f820116905080830192505050505050509192919290803590602001906401000000008111156200039f57600080fd5b820183602082011115620003b257600080fd5b80359060200191846001830284011164010000000083111715620003d557600080fd5b91908080601f016020809104026020016040519081016040528093929190818152602001838380828437600081840152601f19601f820116905080830192505050505050509192919290803590602001906401000000008111156200043957600080fd5b8201836020820111156200044c57600080fd5b803590602001918460018302840111640100000000831117156200046f57600080fd5b91908080601f016020809104026020016040519081016040528093929190818152602001838380828437600081840152601f19601f82011690508083019250505050505050919291929080359060200190640100000000811115620004d357600080fd5b820183602082011115620004e657600080fd5b803590602001918460018302840111640100000000831117156200050957600080fd5b91908080601f016020809104026020016040519081016040528093929190818152602001838380828437600081840152601f19601f8201169050808301925050505050505091929192905050506200088f565b604051808273ffffffffffffffffffffffffffffffffffffffff16815260200191505060405180910390f35b6200059262001045565b604051808273ffffffffffffffffffffffffffffffffffffffff16815260200191505060405180910390f35b620005c86200106b565b604051808273ffffffffffffffffffffffffffffffffffffffff16815260200191505060405180910390f35b6060600160008373ffffffffffffffffffffffffffffffffffffffff1673ffffffffffffffffffffffffffffffffffffffff168152602001908152602001600020805480602002602001604051908101604052809291908181526020018280548015620006b757602002820191906000526020600020905b8160009054906101000a900473ffffffffffffffffffffffffffffffffffffffff1673ffffffffffffffffffffffffffffffffffffffff16815260200190600101908083116200066c575b50505050509050919050565b600080826040518082805190602001908083835b60208310620006fc5780518252602082019150602081019050602083039250620006d7565b6001836020036101000a038019825116818451168082178552505050505050905001915050908152602001604051809103902060009054906101000a900473ffffffffffffffffffffffffffffffffffffffff169050919050565b60008073ffffffffffffffffffffffffffffffffffffffff166000836040518082805190602001908083835b60208310620007a8578051825260208201915060208101905060208303925062000783565b6001836020036101000a038019825116818451168082178552505050505050905001915050908152602001604051809103902060009054906101000a900473ffffffffffffffffffffffffffffffffffffffff1673ffffffffffffffffffffffffffffffffffffffff161462000886576040517f08c379a00000000000000000000000000000000000000000000000000000000081526004018080602001828103825260138152602001807f73796d626f6c20616c726561647920757365640000000000000000000000000081525060200191505060405180910390fd5b60019050919050565b60008073ffffffffffffffffffffffffffffffffffffffff163373ffffffffffffffffffffffffffffffffffffffff16141562000934576040517f08c379a000000000000000000000000000000000000000000000000000000000815260040180806020018281038252600f8152602001807f496e76616c69642061646472657373000000000000000000000000000000000081525060200191505060405180910390fd5b600085511415620009ad576040517f08c379a00000000000000000000000000000000000000000000000000000000081526004018080602001828103825260138152602001807f6e616d652063616e277420626520656d7074790000000000000000000000000081525060200191505060405180910390fd5b60008451141562000a26576040517f08c379a00000000000000000000000000000000000000000000000000000000081526004018080602001828103825260158152602001807f73796d626f6c2063616e277420626520656d707479000000000000000000000081525060200191505060405180910390fd5b62000a318462000757565b5060008585858533600460009054906101000a900473ffffffffffffffffffffffffffffffffffffffff1660405162000a6a9062001095565b80806020018060200180602001806020018773ffffffffffffffffffffffffffffffffffffffff1681526020018673ffffffffffffffffffffffffffffffffffffffff16815260200185810385528b818151815260200191508051906020019080838360005b8381101562000aed57808201518184015260208101905062000ad0565b50505050905090810190601f16801562000b1b5780820380516001836020036101000a031916815260200191505b5085810384528a818151815260200191508051906020019080838360005b8381101562000b5657808201518184015260208101905062000b39565b50505050905090810190601f16801562000b845780820380516001836020036101000a031916815260200191505b50858103835289818151815260200191508051906020019080838360005b8381101562000bbf57808201518184015260208101905062000ba2565b50505050905090810190601f16801562000bed5780820380516001836020036101000a031916815260200191505b50858103825288818151815260200191508051906020019080838360005b8381101562000c2857808201518184015260208101905062000c0b565b50505050905090810190601f16801562000c565780820380516001836020036101000a031916815260200191505b509a5050505050505050505050604051809103906000f08015801562000c80573d6000803e3d6000fd5b509050806000866040518082805190602001908083835b6020831062000cbc578051825260208201915060208101905060208303925062000c97565b6001836020036101000a038019825116818451168082178552505050505050905001915050908152602001604051809103902060006101000a81548173ffffffffffffffffffffffffffffffffffffffff021916908373ffffffffffffffffffffffffffffffffffffffff16021790555080600260006101000a81548173ffffffffffffffffffffffffffffffffffffffff021916908373ffffffffffffffffffffffffffffffffffffffff160217905550600160003373ffffffffffffffffffffffffffffffffffffffff1673ffffffffffffffffffffffffffffffffffffffff168152602001908152602001600020819080600181540180825580915050600190039060005260206000200160009091909190916101000a81548173ffffffffffffffffffffffffffffffffffffffff021916908373ffffffffffffffffffffffffffffffffffffffff1602179055507f8ec56b24049212067599d5b790bdc7c2abf48615659636dda3d3ac2898489e83868686338786604051808060200180602001806020018773ffffffffffffffffffffffffffffffffffffffff168152602001806020018673ffffffffffffffffffffffffffffffffffffffff16815260200185810385528b818151815260200191508051906020019080838360005b8381101562000ebb57808201518184015260208101905062000e9e565b50505050905090810190601f16801562000ee95780820380516001836020036101000a031916815260200191505b5085810384528a818151815260200191508051906020019080838360005b8381101562000f2457808201518184015260208101905062000f07565b50505050905090810190601f16801562000f525780820380516001836020036101000a031916815260200191505b50858103835289818151815260200191508051906020019080838360005b8381101562000f8d57808201518184015260208101905062000f70565b50505050905090810190601f16801562000fbb5780820380516001836020036101000a031916815260200191505b50858103825287818151815260200191508051906020019080838360005b8381101562000ff657808201518184015260208101905062000fd9565b50505050905090810190601f168015620010245780820380516001836020036101000a031916815260200191505b509a505050505050505050505060405180910390a180915050949350505050565b600460009054906101000a900473ffffffffffffffffffffffffffffffffffffffff1681565b6000600260009054906101000a900473ffffffffffffffffffffffffffffffffffffffff16905090565b6146a480620010a48339019056fe60806040527389f2a5463ef4e4176e57eef2b2fdd256bf4bc2bd600860006101000a81548173ffffffffffffffffffffffffffffffffffffffff021916908373ffffffffffffffffffffffffffffffffffffffff1602179055506000600960006101000a81548173ffffffffffffffffffffffffffffffffffffffff021916908373ffffffffffffffffffffffffffffffffffffffff1602179055506064600a55600860009054906101000a900473ffffffffffffffffffffffffffffffffffffffff1673ffffffffffffffffffffffffffffffffffffffff1663313ce5676040518163ffffffff1660e01b815260040160206040518083038186803b1580156200010957600080fd5b505afa1580156200011e573d6000803e3d6000fd5b505050506040513d60208110156200013557600080fd5b8101908080519060200190929190505050600b60006101000a81548160ff021916908360ff160217905550620001ab606462000197600b60009054906101000a900460ff1660ff16600a0a600a546200063560201b6200254e1790919060201c565b620006c060201b620025d41790919060201c565b600c55348015620001bb57600080fd5b50604051620046a4380380620046a4833981810160405260c0811015620001e157600080fd5b81019080805160405193929190846401000000008211156200020257600080fd5b838201915060208201858111156200021957600080fd5b82518660018202830111640100000000821117156200023757600080fd5b8083526020830192505050908051906020019080838360005b838110156200026d57808201518184015260208101905062000250565b50505050905090810190601f1680156200029b5780820380516001836020036101000a031916815260200191505b5060405260200180516040519392919084640100000000821115620002bf57600080fd5b83820191506020820185811115620002d657600080fd5b8251866001820283011164010000000082111715620002f457600080fd5b8083526020830192505050908051906020019080838360005b838110156200032a5780820151818401526020810190506200030d565b50505050905090810190601f168015620003585780820380516001836020036101000a031916815260200191505b50604052602001805160405193929190846401000000008211156200037c57600080fd5b838201915060208201858111156200039357600080fd5b8251866001820283011164010000000082111715620003b157600080fd5b8083526020830192505050908051906020019080838360005b83811015620003e7578082015181840152602081019050620003ca565b50505050905090810190601f168015620004155780820380516001836020036101000a031916815260200191505b50604052602001805160405193929190846401000000008211156200043957600080fd5b838201915060208201858111156200045057600080fd5b82518660018202830111640100000000821117156200046e57600080fd5b8083526020830192505050908051906020019080838360005b83811015620004a457808201518184015260208101905062000487565b50505050905090810190601f168015620004d25780820380516001836020036101000a031916815260200191505b50604052602001805190602001909291908051906020019092919050505082620005096301ffc9a760e01b6200074b60201b60201c565b6200051a816200085460201b60201c565b6200053263d9b67a2660e01b6200074b60201b60201c565b6200054a630e89341c60e01b6200074b60201b60201c565b5085600490805190602001906200056392919062000870565b5084600590805190602001906200057c92919062000870565b5083600690805190602001906200059592919062000870565b5081600760006101000a81548173ffffffffffffffffffffffffffffffffffffffff021916908373ffffffffffffffffffffffffffffffffffffffff16021790555080600960006101000a81548173ffffffffffffffffffffffffffffffffffffffff021916908373ffffffffffffffffffffffffffffffffffffffff16021790555062000629836200085460201b60201c565b50505050505062000926565b6000808314156200064a5760009050620006ba565b60008284029050828482816200065c57fe5b0414620006b5576040517f08c379a0000000000000000000000000000000000000000000000000000000008152600401808060200182810382526021815260200180620046836021913960400191505060405180910390fd5b809150505b92915050565b600080821162000738576040517f08c379a000000000000000000000000000000000000000000000000000000000815260040180806020018281038252601a8152602001807f536166654d6174683a206469766973696f6e206279207a65726f00000000000081525060200191505060405180910390fd5b8183816200074257fe5b04905092915050565b63ffffffff60e01b817bffffffffffffffffffffffffffffffffffffffffffffffffffffffff19161415620007e8576040517f08c379a000000000000000000000000000000000000000000000000000000000815260040180806020018281038252601c8152602001807f4552433136353a20696e76616c696420696e746572666163652069640000000081525060200191505060405180910390fd5b6001600080837bffffffffffffffffffffffffffffffffffffffffffffffffffffffff19167bffffffffffffffffffffffffffffffffffffffffffffffffffffffff1916815260200190815260200160002060006101000a81548160ff02191690831515021790555050565b80600390805190602001906200086c92919062000870565b5050565b828054600181600116156101000203166002900490600052602060002090601f016020900481019282620008a85760008555620008f4565b82601f10620008c357805160ff1916838001178555620008f4565b82800160010185558215620008f4579182015b82811115620008f3578251825591602001919060010190620008d6565b5b50905062000903919062000907565b5090565b5b808211156200092257600081600090555060010162000908565b5090565b613d4d80620009366000396000f3fe608060405234801561001057600080fd5b50600436106101365760003560e01c80636b20c454116100b8578063cc41103a1161007c578063cc41103a14610b6a578063d81d0a1514610bed578063e985e9c514610d6f578063f242432a14610de9578063f5298aca14610ef8578063fba0ee6414610f6657610136565b80636b20c454146108265780636bff2c24146109a85780637b31a4d814610a63578063817b66ee14610ae6578063a22cb46514610b1a57610136565b806329360ff1116100ff57806329360ff11461038d5780632eb2c2d6146104105780634e1273f41461063357806365e17c9d146107d457806369e154041461080857610136565b8062fdd58e1461013b57806301ffc9a71461019d5780630e89341c146102005780630febdd49146102a7578063156e29f61461031f575b600080fd5b6101876004803603604081101561015157600080fd5b81019080803573ffffffffffffffffffffffffffffffffffffffff169060200190929190803590602001909291905050506110f2565b6040518082815260200191505060405180910390f35b6101e8600480360360208110156101b357600080fd5b8101908080357bffffffffffffffffffffffffffffffffffffffffffffffffffffffff191690602001909291905050506111d2565b60405180821515815260200191505060405180910390f35b61022c6004803603602081101561021657600080fd5b8101908080359060200190929190505050611239565b6040518080602001828103825283818151815260200191508051906020019080838360005b8381101561026c578082015181840152602081019050610251565b50505050905090810190601f1680156102995780820380516001836020036101000a031916815260200191505b509250505060405180910390f35b61031d600480360360808110156102bd57600080fd5b81019080803573ffffffffffffffffffffffffffffffffffffffff169060200190929190803573ffffffffffffffffffffffffffffffffffffffff16906020019092919080359060200190929190803590602001909291905050506112dd565b005b6103756004803603606081101561033557600080fd5b81019080803573ffffffffffffffffffffffffffffffffffffffff16906020019092919080359060200190929190803590602001909291905050506112ff565b60405180821515815260200191505060405180910390f35b610395611492565b6040518080602001828103825283818151815260200191508051906020019080838360005b838110156103d55780820151818401526020810190506103ba565b50505050905090810190601f1680156104025780820380516001836020036101000a031916815260200191505b509250505060405180910390f35b610631600480360360a081101561042657600080fd5b81019080803573ffffffffffffffffffffffffffffffffffffffff169060200190929190803573ffffffffffffffffffffffffffffffffffffffff1690602001909291908035906020019064010000000081111561048357600080fd5b82018360208201111561049557600080fd5b803590602001918460208302840111640100000000831117156104b757600080fd5b919080806020026020016040519081016040528093929190818152602001838360200280828437600081840152601f19601f8201169050808301925050505050505091929192908035906020019064010000000081111561051757600080fd5b82018360208201111561052957600080fd5b8035906020019184602083028401116401000000008311171561054b57600080fd5b919080806020026020016040519081016040528093929190818152602001838360200280828437600081840152601f19601f820116905080830192505050505050509192919290803590602001906401000000008111156105ab57600080fd5b8201836020820111156105bd57600080fd5b803590602001918460018302840111640100000000831117156105df57600080fd5b91908080601f016020809104026020016040519081016040528093929190818152602001838380828437600081840152601f19601f820116905080830192505050505050509192919290505050611530565b005b61077d6004803603604081101561064957600080fd5b810190808035906020019064010000000081111561066657600080fd5b82018360208201111561067857600080fd5b8035906020019184602083028401116401000000008311171561069a57600080fd5b919080806020026020016040519081016040528093929190818152602001838360200280828437600081840152601f19601f820116905080830192505050505050509192919290803590602001906401000000008111156106fa57600080fd5b82018360208201111561070c57600080fd5b8035906020019184602083028401116401000000008311171561072e57600080fd5b919080806020026020016040519081016040528093929190818152602001838360200280828437600081840152601f19601f8201169050808301925050505050505091929192905050506119bb565b6040518080602001828103825283818151815260200191508051906020019060200280838360005b838110156107c05780820151818401526020810190506107a5565b505050509050019250505060405180910390f35b6107dc611acd565b604051808273ffffffffffffffffffffffffffffffffffffffff16815260200191505060405180910390f35b610810611af3565b6040518082815260200191505060405180910390f35b6109906004803603606081101561083c57600080fd5b81019080803573ffffffffffffffffffffffffffffffffffffffff1690602001909291908035906020019064010000000081111561087957600080fd5b82018360208201111561088b57600080fd5b803590602001918460208302840111640100000000831117156108ad57600080fd5b919080806020026020016040519081016040528093929190818152602001838360200280828437600081840152601f19601f8201169050808301925050505050505091929192908035906020019064010000000081111561090d57600080fd5b82018360208201111561091f57600080fd5b8035906020019184602083028401116401000000008311171561094157600080fd5b919080806020026020016040519081016040528093929190818152602001838360200280828437600081840152601f19601f820116905080830192505050505050509192919290505050611af9565b60405180821515815260200191505060405180910390f35b610a61600480360360208110156109be57600080fd5b81019080803590602001906401000000008111156109db57600080fd5b8201836020820111156109ed57600080fd5b80359060200191846001830284011164010000000083111715610a0f57600080fd5b91908080601f016020809104026020016040519081016040528093929190818152602001838380828437600081840152601f19601f820116905080830192505050505050509192919290505050611b94565b005b610a6b611bfa565b6040518080602001828103825283818151815260200191508051906020019080838360005b83811015610aab578082015181840152602081019050610a90565b50505050905090810190601f168015610ad85780820380516001836020036101000a031916815260200191505b509250505060405180910390f35b610aee611c98565b604051808273ffffffffffffffffffffffffffffffffffffffff16815260200191505060405180910390f35b610b6860048036036040811015610b3057600080fd5b81019080803573ffffffffffffffffffffffffffffffffffffffff169060200190929190803515159060200190929190505050611cbe565b005b610b72611e57565b6040518080602001828103825283818151815260200191508051906020019080838360005b83811015610bb2578082015181840152602081019050610b97565b50505050905090810190601f168015610bdf5780820380516001836020036101000a031916815260200191505b509250505060405180910390f35b610d5760048036036060811015610c0357600080fd5b81019080803573ffffffffffffffffffffffffffffffffffffffff16906020019092919080359060200190640100000000811115610c4057600080fd5b820183602082011115610c5257600080fd5b80359060200191846020830284011164010000000083111715610c7457600080fd5b919080806020026020016040519081016040528093929190818152602001838360200280828437600081840152601f19601f82011690508083019250505050505050919291929080359060200190640100000000811115610cd457600080fd5b820183602082011115610ce657600080fd5b80359060200191846020830284011164010000000083111715610d0857600080fd5b919080806020026020016040519081016040528093929190818152602001838360200280828437600081840152601f19601f820116905080830192505050505050509192919290505050611ef5565b60405180821515815260200191505060405180910390f35b610dd160048036036040811015610d8557600080fd5b81019080803573ffffffffffffffffffffffffffffffffffffffff169060200190929190803573ffffffffffffffffffffffffffffffffffffffff169060200190929190505050612088565b60405180821515815260200191505060405180910390f35b610ef6600480360360a0811015610dff57600080fd5b81019080803573ffffffffffffffffffffffffffffffffffffffff169060200190929190803573ffffffffffffffffffffffffffffffffffffffff169060200190929190803590602001909291908035906020019092919080359060200190640100000000811115610e7057600080fd5b820183602082011115610e8257600080fd5b80359060200191846001830284011164010000000083111715610ea457600080fd5b91908080601f016020809104026020016040519081016040528093929190818152602001838380828437600081840152601f19601f82011690508083019250505050505050919291929050505061211c565b005b610f4e60048036036060811015610f0e57600080fd5b81019080803573ffffffffffffffffffffffffffffffffffffffff1690602001909291908035906020019092919080359060200190929190505050612491565b60405180821515815260200191505060405180910390f35b6110f060048036036080811015610f7c57600080fd5b81019080803573ffffffffffffffffffffffffffffffffffffffff169060200190929190803573ffffffffffffffffffffffffffffffffffffffff16906020019092919080359060200190640100000000811115610fd957600080fd5b820183602082011115610feb57600080fd5b8035906020019184602083028401116401000000008311171561100d57600080fd5b919080806020026020016040519081016040528093929190818152602001838360200280828437600081840152601f19601f8201169050808301925050505050505091929192908035906020019064010000000081111561106d57600080fd5b82018360208201111561107f57600080fd5b803590602001918460208302840111640100000000831117156110a157600080fd5b919080806020026020016040519081016040528093929190818152602001838360200280828437600081840152601f19601f82011690508083019250505050505050919291929050505061252c565b005b60008073ffffffffffffffffffffffffffffffffffffffff168373ffffffffffffffffffffffffffffffffffffffff161415611179576040517f08c379a000000000000000000000000000000000000000000000000000000000815260040180806020018281038252602b815260200180613b40602b913960400191505060405180910390fd5b6001600083815260200190815260200160002060008473ffffffffffffffffffffffffffffffffffffffff1673ffffffffffffffffffffffffffffffffffffffff16815260200190815260200160002054905092915050565b6000806000837bffffffffffffffffffffffffffffffffffffffffffffffffffffffff19167bffffffffffffffffffffffffffffffffffffffffffffffffffffffff1916815260200190815260200160002060009054906101000a900460ff169050919050565b606060038054600181600116156101000203166002900480601f0160208091040260200160405190810160405280929190818152602001828054600181600116156101000203166002900480156112d15780601f106112a6576101008083540402835291602001916112d1565b820191906000526020600020905b8154815290600101906020018083116112b457829003601f168201915b50505050509050919050565b6112f9848484846040518060200160405280600081525061211c565b50505050565b6000600760009054906101000a900473ffffffffffffffffffffffffffffffffffffffff1673ffffffffffffffffffffffffffffffffffffffff163373ffffffffffffffffffffffffffffffffffffffff161461135b57600080fd5b600860009054906101000a900473ffffffffffffffffffffffffffffffffffffffff1673ffffffffffffffffffffffffffffffffffffffff166323b872dd33600960009054906101000a900473ffffffffffffffffffffffffffffffffffffffff16600c546040518463ffffffff1660e01b8152600401808473ffffffffffffffffffffffffffffffffffffffff1681526020018373ffffffffffffffffffffffffffffffffffffffff1681526020018281526020019350505050602060405180830381600087803b15801561143057600080fd5b505af1158015611444573d6000803e3d6000fd5b505050506040513d602081101561145a57600080fd5b8101908080519060200190929190505050506114878484846040518060200160405280600081525061265d565b600190509392505050565b60048054600181600116156101000203166002900480601f0160208091040260200160405190810160405280929190818152602001828054600181600116156101000203166002900480156115285780601f106114fd57610100808354040283529160200191611528565b820191906000526020600020905b81548152906001019060200180831161150b57829003601f168201915b505050505081565b815183511461158a576040517f08c379a0000000000000000000000000000000000000000000000000000000008152600401808060200182810382526028815260200180613ccf6028913960400191505060405180910390fd5b600073ffffffffffffffffffffffffffffffffffffffff168473ffffffffffffffffffffffffffffffffffffffff161415611610576040517f08c379a0000000000000000000000000000000000000000000000000000000008152600401808060200182810382526025815260200180613bb86025913960400191505060405180910390fd5b611618612860565b73ffffffffffffffffffffffffffffffffffffffff168573ffffffffffffffffffffffffffffffffffffffff16148061165e575061165d85611658612860565b612088565b5b6116b3576040517f08c379a0000000000000000000000000000000000000000000000000000000008152600401808060200182810382526032815260200180613bdd6032913960400191505060405180910390fd5b60006116bd612860565b90506116cd818787878787612868565b60005b845181101561189e5760008582815181106116e757fe5b6020026020010151905060008583815181106116ff57fe5b60200260200101519050611786816040518060600160405280602a8152602001613c32602a91396001600086815260200190815260200160002060008d73ffffffffffffffffffffffffffffffffffffffff1673ffffffffffffffffffffffffffffffffffffffff168152602001908152602001600020546128709092919063ffffffff16565b6001600084815260200190815260200160002060008b73ffffffffffffffffffffffffffffffffffffffff1673ffffffffffffffffffffffffffffffffffffffff1681526020019081526020016000208190555061183d816001600085815260200190815260200160002060008b73ffffffffffffffffffffffffffffffffffffffff1673ffffffffffffffffffffffffffffffffffffffff1681526020019081526020016000205461292a90919063ffffffff16565b6001600084815260200190815260200160002060008a73ffffffffffffffffffffffffffffffffffffffff1673ffffffffffffffffffffffffffffffffffffffff1681526020019081526020016000208190555050508060010190506116d0565b508473ffffffffffffffffffffffffffffffffffffffff168673ffffffffffffffffffffffffffffffffffffffff168273ffffffffffffffffffffffffffffffffffffffff167f4a39dc06d4c0dbc64b70af90fd698a233a518aa5d07e595d983b8c0526c8f7fb8787604051808060200180602001838103835285818151815260200191508051906020019060200280838360005b8381101561194e578082015181840152602081019050611933565b50505050905001838103825284818151815260200191508051906020019060200280838360005b83811015611990578082015181840152602081019050611975565b5050505090500194505050505060405180910390a46119b38187878787876129b2565b505050505050565b60608151835114611a17576040517f08c379a0000000000000000000000000000000000000000000000000000000008152600401808060200182810382526029815260200180613ca66029913960400191505060405180910390fd5b6060835167ffffffffffffffff81118015611a3157600080fd5b50604051908082528060200260200182016040528015611a605781602001602082028036833780820191505090505b50905060005b8451811015611ac257611a9f858281518110611a7e57fe5b6020026020010151858381518110611a9257fe5b60200260200101516110f2565b828281518110611aab57fe5b602002602001018181525050806001019050611a66565b508091505092915050565b600960009054906101000a900473ffffffffffffffffffffffffffffffffffffffff1681565b600c5481565b6000611b0c84611b07612860565b612088565b611b7e576040517f08c379a000000000000000000000000000000000000000000000000000000000815260040180806020018281038252601c8152602001807f417274466163746f72793a20496e76616c6964206f70657261746f720000000081525060200191505060405180910390fd5b611b89848484612d41565b600190509392505050565b600760009054906101000a900473ffffffffffffffffffffffffffffffffffffffff1673ffffffffffffffffffffffffffffffffffffffff163373ffffffffffffffffffffffffffffffffffffffff1614611bee57600080fd5b611bf78161307c565b50565b60068054600181600116156101000203166002900480601f016020809104026020016040519081016040528092919081815260200182805460018160011615610100020316600290048015611c905780601f10611c6557610100808354040283529160200191611c90565b820191906000526020600020905b815481529060010190602001808311611c7357829003601f168201915b505050505081565b600760009054906101000a900473ffffffffffffffffffffffffffffffffffffffff1681565b8173ffffffffffffffffffffffffffffffffffffffff16611cdd612860565b73ffffffffffffffffffffffffffffffffffffffff161415611d4a576040517f08c379a0000000000000000000000000000000000000000000000000000000008152600401808060200182810382526029815260200180613c7d6029913960400191505060405180910390fd5b8060026000611d57612860565b73ffffffffffffffffffffffffffffffffffffffff1673ffffffffffffffffffffffffffffffffffffffff16815260200190815260200160002060008473ffffffffffffffffffffffffffffffffffffffff1673ffffffffffffffffffffffffffffffffffffffff16815260200190815260200160002060006101000a81548160ff0219169083151502179055508173ffffffffffffffffffffffffffffffffffffffff16611e04612860565b73ffffffffffffffffffffffffffffffffffffffff167f17307eab39ab6107e8899845ad3d59bd9653f200f220920489ca2b5937696c318360405180821515815260200191505060405180910390a35050565b60058054600181600116156101000203166002900480601f016020809104026020016040519081016040528092919081815260200182805460018160011615610100020316600290048015611eed5780601f10611ec257610100808354040283529160200191611eed565b820191906000526020600020905b815481529060010190602001808311611ed057829003601f168201915b505050505081565b6000600760009054906101000a900473ffffffffffffffffffffffffffffffffffffffff1673ffffffffffffffffffffffffffffffffffffffff163373ffffffffffffffffffffffffffffffffffffffff1614611f5157600080fd5b600860009054906101000a900473ffffffffffffffffffffffffffffffffffffffff1673ffffffffffffffffffffffffffffffffffffffff166323b872dd33600960009054906101000a900473ffffffffffffffffffffffffffffffffffffffff16600c546040518463ffffffff1660e01b8152600401808473ffffffffffffffffffffffffffffffffffffffff1681526020018373ffffffffffffffffffffffffffffffffffffffff1681526020018281526020019350505050602060405180830381600087803b15801561202657600080fd5b505af115801561203a573d6000803e3d6000fd5b505050506040513d602081101561205057600080fd5b81019080805190602001909291905050505061207d84848460405180602001604052806000815250613096565b600190509392505050565b6000600260008473ffffffffffffffffffffffffffffffffffffffff1673ffffffffffffffffffffffffffffffffffffffff16815260200190815260200160002060008373ffffffffffffffffffffffffffffffffffffffff1673ffffffffffffffffffffffffffffffffffffffff16815260200190815260200160002060009054906101000a900460ff16905092915050565b600073ffffffffffffffffffffffffffffffffffffffff168473ffffffffffffffffffffffffffffffffffffffff1614156121a2576040517f08c379a0000000000000000000000000000000000000000000000000000000008152600401808060200182810382526025815260200180613bb86025913960400191505060405180910390fd5b6121aa612860565b73ffffffffffffffffffffffffffffffffffffffff168573ffffffffffffffffffffffffffffffffffffffff1614806121f057506121ef856121ea612860565b612088565b5b612245576040517f08c379a0000000000000000000000000000000000000000000000000000000008152600401808060200182810382526029815260200180613b8f6029913960400191505060405180910390fd5b600061224f612860565b905061226f818787612260886133b8565b612269886133b8565b87612868565b6122ec836040518060600160405280602a8152602001613c32602a91396001600088815260200190815260200160002060008a73ffffffffffffffffffffffffffffffffffffffff1673ffffffffffffffffffffffffffffffffffffffff168152602001908152602001600020546128709092919063ffffffff16565b6001600086815260200190815260200160002060008873ffffffffffffffffffffffffffffffffffffffff1673ffffffffffffffffffffffffffffffffffffffff168152602001908152602001600020819055506123a3836001600087815260200190815260200160002060008873ffffffffffffffffffffffffffffffffffffffff1673ffffffffffffffffffffffffffffffffffffffff1681526020019081526020016000205461292a90919063ffffffff16565b6001600086815260200190815260200160002060008773ffffffffffffffffffffffffffffffffffffffff1673ffffffffffffffffffffffffffffffffffffffff168152602001908152602001600020819055508473ffffffffffffffffffffffffffffffffffffffff168673ffffffffffffffffffffffffffffffffffffffff168273ffffffffffffffffffffffffffffffffffffffff167fc3d58168c5ae7397731d063d5bbf3d657854427343f4c083240f7aacaa2d0f628787604051808381526020018281526020019250505060405180910390a4612489818787878787613428565b505050505050565b60006124a48461249f612860565b612088565b612516576040517f08c379a000000000000000000000000000000000000000000000000000000000815260040180806020018281038252601c8152602001807f417274466163746f72793a20496e76616c6964206f70657261746f720000000081525060200191505060405180910390fd5b612521848484613735565b600190509392505050565b6125488484848460405180602001604052806000815250611530565b50505050565b60008083141561256157600090506125ce565b600082840290508284828161257257fe5b04146125c9576040517f08c379a0000000000000000000000000000000000000000000000000000000008152600401808060200182810382526021815260200180613c5c6021913960400191505060405180910390fd5b809150505b92915050565b600080821161264b576040517f08c379a000000000000000000000000000000000000000000000000000000000815260040180806020018281038252601a8152602001807f536166654d6174683a206469766973696f6e206279207a65726f00000000000081525060200191505060405180910390fd5b81838161265457fe5b04905092915050565b600073ffffffffffffffffffffffffffffffffffffffff168473ffffffffffffffffffffffffffffffffffffffff1614156126e3576040517f08c379a0000000000000000000000000000000000000000000000000000000008152600401808060200182810382526021815260200180613cf76021913960400191505060405180910390fd5b60006126ed612860565b905061270e816000876126ff886133b8565b612708886133b8565b87612868565b612771836001600087815260200190815260200160002060008873ffffffffffffffffffffffffffffffffffffffff1673ffffffffffffffffffffffffffffffffffffffff1681526020019081526020016000205461292a90919063ffffffff16565b6001600086815260200190815260200160002060008773ffffffffffffffffffffffffffffffffffffffff1673ffffffffffffffffffffffffffffffffffffffff168152602001908152602001600020819055508473ffffffffffffffffffffffffffffffffffffffff16600073ffffffffffffffffffffffffffffffffffffffff168273ffffffffffffffffffffffffffffffffffffffff167fc3d58168c5ae7397731d063d5bbf3d657854427343f4c083240f7aacaa2d0f628787604051808381526020018281526020019250505060405180910390a461285981600087878787613428565b5050505050565b600033905090565b505050505050565b600083831115829061291d576040517f08c379a00000000000000000000000000000000000000000000000000000000081526004018080602001828103825283818151815260200191508051906020019080838360005b838110156128e25780820151818401526020810190506128c7565b50505050905090810190601f16801561290f5780820380516001836020036101000a031916815260200191505b509250505060405180910390fd5b5082840390509392505050565b6000808284019050838110156129a8576040517f08c379a000000000000000000000000000000000000000000000000000000000815260040180806020018281038252601b8152602001807f536166654d6174683a206164646974696f6e206f766572666c6f77000000000081525060200191505060405180910390fd5b8091505092915050565b6129d18473ffffffffffffffffffffffffffffffffffffffff16613951565b15612d39578373ffffffffffffffffffffffffffffffffffffffff1663bc197c8187878686866040518663ffffffff1660e01b8152600401808673ffffffffffffffffffffffffffffffffffffffff1681526020018573ffffffffffffffffffffffffffffffffffffffff168152602001806020018060200180602001848103845287818151815260200191508051906020019060200280838360005b83811015612a89578082015181840152602081019050612a6e565b50505050905001848103835286818151815260200191508051906020019060200280838360005b83811015612acb578082015181840152602081019050612ab0565b50505050905001848103825285818151815260200191508051906020019080838360005b83811015612b0a578082015181840152602081019050612aef565b50505050905090810190601f168015612b375780820380516001836020036101000a031916815260200191505b5098505050505050505050602060405180830381600087803b158015612b5c57600080fd5b505af1925050508015612b9057506040513d6020811015612b7c57600080fd5b810190808051906020019092919050505060015b612c9a57612b9c613a2d565b80612ba75750612c49565b806040517f08c379a00000000000000000000000000000000000000000000000000000000081526004018080602001828103825283818151815260200191508051906020019080838360005b83811015612c0e578082015181840152602081019050612bf3565b50505050905090810190601f168015612c3b5780820380516001836020036101000a031916815260200191505b509250505060405180910390fd5b6040517f08c379a0000000000000000000000000000000000000000000000000000000008152600401808060200182810382526034815260200180613ae46034913960400191505060405180910390fd5b63bc197c8160e01b7bffffffffffffffffffffffffffffffffffffffffffffffffffffffff1916817bffffffffffffffffffffffffffffffffffffffffffffffffffffffff191614612d37576040517f08c379a0000000000000000000000000000000000000000000000000000000008152600401808060200182810382526028815260200180613b186028913960400191505060405180910390fd5b505b505050505050565b600073ffffffffffffffffffffffffffffffffffffffff168373ffffffffffffffffffffffffffffffffffffffff161415612dc7576040517f08c379a0000000000000000000000000000000000000000000000000000000008152600401808060200182810382526023815260200180613c0f6023913960400191505060405180910390fd5b8051825114612e21576040517f08c379a0000000000000000000000000000000000000000000000000000000008152600401808060200182810382526028815260200180613ccf6028913960400191505060405180910390fd5b6000612e2b612860565b9050612e4b81856000868660405180602001604052806000815250612868565b60005b8351811015612f6e57612efa838281518110612e6657fe5b6020026020010151604051806060016040528060248152602001613b6b6024913960016000888681518110612e9757fe5b6020026020010151815260200190815260200160002060008973ffffffffffffffffffffffffffffffffffffffff1673ffffffffffffffffffffffffffffffffffffffff168152602001908152602001600020546128709092919063ffffffff16565b60016000868481518110612f0a57fe5b6020026020010151815260200190815260200160002060008773ffffffffffffffffffffffffffffffffffffffff1673ffffffffffffffffffffffffffffffffffffffff168152602001908152602001600020819055508080600101915050612e4e565b50600073ffffffffffffffffffffffffffffffffffffffff168473ffffffffffffffffffffffffffffffffffffffff168273ffffffffffffffffffffffffffffffffffffffff167f4a39dc06d4c0dbc64b70af90fd698a233a518aa5d07e595d983b8c0526c8f7fb8686604051808060200180602001838103835285818151815260200191508051906020019060200280838360005b8381101561301f578082015181840152602081019050613004565b50505050905001838103825284818151815260200191508051906020019060200280838360005b83811015613061578082015181840152602081019050613046565b5050505090500194505050505060405180910390a450505050565b8060039080519060200190613092929190613964565b5050565b600073ffffffffffffffffffffffffffffffffffffffff168473ffffffffffffffffffffffffffffffffffffffff16141561311c576040517f08c379a0000000000000000000000000000000000000000000000000000000008152600401808060200182810382526021815260200180613cf76021913960400191505060405180910390fd5b8151835114613176576040517f08c379a0000000000000000000000000000000000000000000000000000000008152600401808060200182810382526028815260200180613ccf6028913960400191505060405180910390fd5b6000613180612860565b905061319181600087878787612868565b60005b845181101561329a57613226600160008784815181106131b057fe5b6020026020010151815260200190815260200160002060008873ffffffffffffffffffffffffffffffffffffffff1673ffffffffffffffffffffffffffffffffffffffff1681526020019081526020016000205485838151811061321057fe5b602002602001015161292a90919063ffffffff16565b6001600087848151811061323657fe5b6020026020010151815260200190815260200160002060008873ffffffffffffffffffffffffffffffffffffffff1673ffffffffffffffffffffffffffffffffffffffff168152602001908152602001600020819055508080600101915050613194565b508473ffffffffffffffffffffffffffffffffffffffff16600073ffffffffffffffffffffffffffffffffffffffff168273ffffffffffffffffffffffffffffffffffffffff167f4a39dc06d4c0dbc64b70af90fd698a233a518aa5d07e595d983b8c0526c8f7fb8787604051808060200180602001838103835285818151815260200191508051906020019060200280838360005b8381101561334b578082015181840152602081019050613330565b50505050905001838103825284818151815260200191508051906020019060200280838360005b8381101561338d578082015181840152602081019050613372565b5050505090500194505050505060405180910390a46133b1816000878787876129b2565b5050505050565b606080600167ffffffffffffffff811180156133d357600080fd5b506040519080825280602002602001820160405280156134025781602001602082028036833780820191505090505b509050828160008151811061341357fe5b60200260200101818152505080915050919050565b6134478473ffffffffffffffffffffffffffffffffffffffff16613951565b1561372d578373ffffffffffffffffffffffffffffffffffffffff1663f23a6e6187878686866040518663ffffffff1660e01b8152600401808673ffffffffffffffffffffffffffffffffffffffff1681526020018573ffffffffffffffffffffffffffffffffffffffff16815260200184815260200183815260200180602001828103825283818151815260200191508051906020019080838360005b838110156135005780820151818401526020810190506134e5565b50505050905090810190601f16801561352d5780820380516001836020036101000a031916815260200191505b509650505050505050602060405180830381600087803b15801561355057600080fd5b505af192505050801561358457506040513d602081101561357057600080fd5b810190808051906020019092919050505060015b61368e57613590613a2d565b8061359b575061363d565b806040517f08c379a00000000000000000000000000000000000000000000000000000000081526004018080602001828103825283818151815260200191508051906020019080838360005b838110156136025780820151818401526020810190506135e7565b50505050905090810190601f16801561362f5780820380516001836020036101000a031916815260200191505b509250505060405180910390fd5b6040517f08c379a0000000000000000000000000000000000000000000000000000000008152600401808060200182810382526034815260200180613ae46034913960400191505060405180910390fd5b63f23a6e6160e01b7bffffffffffffffffffffffffffffffffffffffffffffffffffffffff1916817bffffffffffffffffffffffffffffffffffffffffffffffffffffffff19161461372b576040517f08c379a0000000000000000000000000000000000000000000000000000000008152600401808060200182810382526028815260200180613b186028913960400191505060405180910390fd5b505b505050505050565b600073ffffffffffffffffffffffffffffffffffffffff168373ffffffffffffffffffffffffffffffffffffffff1614156137bb576040517f08c379a0000000000000000000000000000000000000000000000000000000008152600401808060200182810382526023815260200180613c0f6023913960400191505060405180910390fd5b60006137c5612860565b90506137f5818560006137d7876133b8565b6137e0876133b8565b60405180602001604052806000815250612868565b61387282604051806060016040528060248152602001613b6b602491396001600087815260200190815260200160002060008873ffffffffffffffffffffffffffffffffffffffff1673ffffffffffffffffffffffffffffffffffffffff168152602001908152602001600020546128709092919063ffffffff16565b6001600085815260200190815260200160002060008673ffffffffffffffffffffffffffffffffffffffff1673ffffffffffffffffffffffffffffffffffffffff16815260200190815260200160002081905550600073ffffffffffffffffffffffffffffffffffffffff168473ffffffffffffffffffffffffffffffffffffffff168273ffffffffffffffffffffffffffffffffffffffff167fc3d58168c5ae7397731d063d5bbf3d657854427343f4c083240f7aacaa2d0f628686604051808381526020018281526020019250505060405180910390a450505050565b600080823b905060008111915050919050565b828054600181600116156101000203166002900490600052602060002090601f01602090048101928261399a57600085556139e1565b82601f106139b357805160ff19168380011785556139e1565b828001600101855582156139e1579182015b828111156139e05782518255916020019190600101906139c5565b5b5090506139ee91906139f2565b5090565b5b80821115613a0b5760008160009055506001016139f3565b5090565b6000601f19601f8301169050919050565b60008160e01c9050919050565b600060443d1015613a3d57613ae0565b60046000803e613a4e600051613a20565b6308c379a08114613a5f5750613ae0565b60405160043d036004823e80513d602482011167ffffffffffffffff82111715613a8b57505050613ae0565b808201805167ffffffffffffffff811115613aaa575050505050613ae0565b8060208301013d8501811115613ac557505050505050613ae0565b613ace82613a0f565b60208401016040528296505050505050505b9056fe455243313135353a207472616e7366657220746f206e6f6e2045524331313535526563656976657220696d706c656d656e746572455243313135353a204552433131353552656365697665722072656a656374656420746f6b656e73455243313135353a2062616c616e636520717565727920666f7220746865207a65726f2061646472657373455243313135353a206275726e20616d6f756e7420657863656564732062616c616e6365455243313135353a2063616c6c6572206973206e6f74206f776e6572206e6f7220617070726f766564455243313135353a207472616e7366657220746f20746865207a65726f2061646472657373455243313135353a207472616e736665722063616c6c6572206973206e6f74206f776e6572206e6f7220617070726f766564455243313135353a206275726e2066726f6d20746865207a65726f2061646472657373455243313135353a20696e73756666696369656e742062616c616e636520666f72207472616e73666572536166654d6174683a206d756c7469706c69636174696f6e206f766572666c6f77455243313135353a2073657474696e6720617070726f76616c2073746174757320666f722073656c66455243313135353a206163636f756e747320616e6420696473206c656e677468206d69736d61746368455243313135353a2069647320616e6420616d6f756e7473206c656e677468206d69736d61746368455243313135353a206d696e7420746f20746865207a65726f2061646472657373a2646970667358221220795ff6cf8e707baf817f7f892a4932a8d3a08219b9868649e42a0451ea6fa74d64736f6c63430007040033536166654d6174683a206d756c7469706c69636174696f6e206f766572666c6f77a2646970667358221220e05aa056cad9bac5a35ac4f66aeb1a3cf7fa6a42e084a8eec96cb862f94d68ba64736f6c63430007040033",
  "immutableReferences": {},
  "source": "// SPDX-License-Identifier: MIT\r\npragma solidity >=0.4.22 <0.8.4;\r\nimport \"@openzeppelin/contracts/token/ERC20/ERC20.sol\";\r\nimport \"./ArtFactory1155.sol\";\r\n\r\ncontract ArtGallery1155 {\r\n    using SafeMath for uint256;\r\n    // mapping to save the symbol to Gallery Address\r\n    mapping(string => address) symbolToGalleryAddress;\r\n    //mapping to save all the gallery addresses of an owner\r\n    mapping(address => address[]) userToGalleries;\r\n\r\n    address lastaddress;\r\n    string lastUri;\r\n    // address public feeAccount = address(0x0000000000000000000000);\r\n    address public _owner = address(0x0000000000000000000000);\r\n\r\n    // ERC20 cifiTokenContract = ERC20(0xe56aB536c90E5A8f06524EA639bE9cB3589B8146);\r\n    // ERC20 cifiTokenContract = ERC20(0x89F2a5463eF4e4176E57EEf2b2fDD256Bf4bC2bD);\r\n\r\n    // uint256 FEE = 100;\r\n    // uint8 cifiDecimals = cifiTokenContract.decimals();\r\n    // uint256 public feeAmount = FEE.mul(10**cifiDecimals).div(100);\r\n\r\n    event Gallery1155Created(\r\n        string name,\r\n        string symbol,\r\n        string description,\r\n        address caller,\r\n        string uri,\r\n        address galleryAddress\r\n    );\r\n\r\n    constructor() {\r\n        // feeAccount = msg.sender;\r\n        _owner = msg.sender;\r\n    }\r\n\r\n    function createGallery(\r\n        string memory name,\r\n        string memory symbol,\r\n        string memory description,\r\n        string memory uri\r\n    ) public returns (address) {\r\n        require(msg.sender != address(0), \"Invalid address\");\r\n        require(bytes(name).length != 0, \"name can't be empty\");\r\n        require(bytes(symbol).length != 0, \"symbol can't be empty\");\r\n        uniqueSymbol(symbol);\r\n        // cifiTokenContract.transferFrom(msg.sender, feeAccount, feeAmount);\r\n        ArtFactory1155 gallery =\r\n            new ArtFactory1155(\r\n                name,\r\n                symbol,\r\n                description,\r\n                uri,\r\n                msg.sender,\r\n                _owner\r\n            );\r\n\r\n        // adding the gallery address to the symbolToGalleryAddress\r\n        symbolToGalleryAddress[symbol] = address(gallery);\r\n\r\n        // saving the last gallery address\r\n        lastaddress = address(gallery);\r\n\r\n        // adding the gallery address to the uriToGalleryAddress\r\n\r\n        // adding the address to address array for userToGalleries\r\n        userToGalleries[msg.sender].push(address(gallery));\r\n\r\n        emit Gallery1155Created(\r\n            name,\r\n            symbol,\r\n            description,\r\n            msg.sender,\r\n            uri,\r\n            address(gallery)\r\n        );\r\n\r\n        return address(gallery);\r\n    }\r\n\r\n    function uniqueSymbol(string memory symbol) public view returns (bool) {\r\n        require(\r\n            symbolToGalleryAddress[symbol] == address(0),\r\n            \"symbol already used\"\r\n        );\r\n        return true;\r\n    }\r\n\r\n    function getlastAddress() public view returns (address) {\r\n        return lastaddress;\r\n    }\r\n\r\n    function getGalleries(address _user)\r\n        public\r\n        view\r\n        returns (address[] memory)\r\n    {\r\n        return userToGalleries[_user];\r\n    }\r\n\r\n    function getGallery(string memory _symbol) public view returns (address) {\r\n        return symbolToGalleryAddress[_symbol];\r\n    }\r\n}\r\n",
  "sourcePath": "F:/MyWork/LianHe/Citizen/ArtGallery/src/contracts/ArtGallery1155.sol",
  "compiler": {
    "name": "solc",
    "version": "0.7.4+commit.3f05b770.Emscripten.clang"
  },
  "schemaVersion": "3.3.4",
  "updatedAt": "2021-06-22T13:58:45.543Z",
  "devdoc": {
    "kind": "dev",
    "methods": {},
    "version": 1
  },
  "userdoc": {
    "kind": "user",
    "methods": {},
    "version": 1
  }
}