{
  "contractName": "ArtGallery",
  "abi": [
    {
      "inputs": [
        {
          "internalType": "address",
          "name": "_feeAccount",
          "type": "address"
        }
      ],
      "stateMutability": "nonpayable",
      "type": "constructor"
    },
    {
      "anonymous": false,
      "inputs": [
        {
          "indexed": false,
          "internalType": "string",
          "name": "name",
          "type": "string"
        },
        {
          "indexed": false,
          "internalType": "string",
          "name": "symbol",
          "type": "string"
        },
        {
          "indexed": false,
          "internalType": "string",
          "name": "description",
          "type": "string"
        },
        {
          "indexed": false,
          "internalType": "string",
          "name": "uri",
          "type": "string"
        },
        {
          "indexed": false,
          "internalType": "address",
          "name": "caller",
          "type": "address"
        },
        {
          "indexed": false,
          "internalType": "address",
          "name": "galleryAddress",
          "type": "address"
        }
      ],
      "name": "GalleryCreated",
      "type": "event"
    },
    {
      "inputs": [],
      "name": "feeAmount",
      "outputs": [
        {
          "internalType": "uint256",
          "name": "",
          "type": "uint256"
        }
      ],
      "stateMutability": "view",
      "type": "function"
    },
    {
      "inputs": [
        {
          "internalType": "string",
          "name": "name",
          "type": "string"
        },
        {
          "internalType": "string",
          "name": "symbol",
          "type": "string"
        },
        {
          "internalType": "string",
          "name": "description",
          "type": "string"
        },
        {
          "internalType": "string",
          "name": "uri",
          "type": "string"
        },
        {
          "internalType": "bool",
          "name": "isPrivate",
          "type": "bool"
        }
      ],
      "name": "createGallery",
      "outputs": [
        {
          "internalType": "address",
          "name": "",
          "type": "address"
        }
      ],
      "stateMutability": "nonpayable",
      "type": "function"
    },
    {
      "inputs": [
        {
          "internalType": "string",
          "name": "symbol",
          "type": "string"
        }
      ],
      "name": "uniqueSymbol",
      "outputs": [
        {
          "internalType": "bool",
          "name": "",
          "type": "bool"
        }
      ],
      "stateMutability": "view",
      "type": "function"
    },
    {
      "inputs": [],
      "name": "getlastAddress",
      "outputs": [
        {
          "internalType": "address",
          "name": "",
          "type": "address"
        }
      ],
      "stateMutability": "view",
      "type": "function"
    },
    {
      "inputs": [
        {
          "internalType": "string",
          "name": "uri",
          "type": "string"
        }
      ],
      "name": "getGalleryAddressFromUri",
      "outputs": [
        {
          "internalType": "address",
          "name": "",
          "type": "address"
        }
      ],
      "stateMutability": "view",
      "type": "function"
    },
    {
      "inputs": [
        {
          "internalType": "address",
          "name": "_user",
          "type": "address"
        }
      ],
      "name": "getGalleries",
      "outputs": [
        {
          "internalType": "address[]",
          "name": "",
          "type": "address[]"
        }
      ],
      "stateMutability": "view",
      "type": "function"
    },
    {
      "inputs": [
        {
          "internalType": "string",
          "name": "_symbol",
          "type": "string"
        }
      ],
      "name": "getGallery",
      "outputs": [
        {
          "internalType": "address",
          "name": "",
          "type": "address"
        }
      ],
      "stateMutability": "view",
      "type": "function"
    },
    {
      "inputs": [
        {
          "internalType": "address",
          "name": "newFeeAccount",
          "type": "address"
        }
      ],
      "name": "ChangeFeeAccount",
      "outputs": [
        {
          "internalType": "bool",
          "name": "",
          "type": "bool"
        }
      ],
      "stateMutability": "nonpayable",
      "type": "function"
    },
    {
      "inputs": [
        {
          "internalType": "uint256",
          "name": "newFeeAmount",
          "type": "uint256"
        }
      ],
      "name": "ChangeFeeAmount",
      "outputs": [
        {
          "internalType": "bool",
          "name": "",
          "type": "bool"
        }
      ],
      "stateMutability": "nonpayable",
      "type": "function"
    }
  ],
  "bytecode": "0x60806040526000600560006101000a81548173ffffffffffffffffffffffffffffffffffffffff021916908373ffffffffffffffffffffffffffffffffffffffff16021790555073e56ab536c90e5a8f06524ea639be9cb3589b8146600760006101000a81548173ffffffffffffffffffffffffffffffffffffffff021916908373ffffffffffffffffffffffffffffffffffffffff1602179055506064600855600760009054906101000a900473ffffffffffffffffffffffffffffffffffffffff1673ffffffffffffffffffffffffffffffffffffffff1663313ce5676040518163ffffffff1660e01b815260040160206040518083038186803b1580156200010957600080fd5b505afa1580156200011e573d6000803e3d6000fd5b505050506040513d60208110156200013557600080fd5b8101908080519060200190929190505050600960006101000a81548160ff021916908360ff160217905550620001ab606462000197600960009054906101000a900460ff1660ff16600a0a6008546200027b60201b620015621790919060201c565b6200030660201b620015ed1790919060201c565b600a55348015620001bb57600080fd5b50604051620061de380380620061de83398181016040526020811015620001e157600080fd5b810190808051906020019092919050505080600560006101000a81548173ffffffffffffffffffffffffffffffffffffffff021916908373ffffffffffffffffffffffffffffffffffffffff16021790555033600660006101000a81548173ffffffffffffffffffffffffffffffffffffffff021916908373ffffffffffffffffffffffffffffffffffffffff1602179055505062000391565b60008083141562000290576000905062000300565b6000828402905082848281620002a257fe5b0414620002fb576040517f08c379a0000000000000000000000000000000000000000000000000000000008152600401808060200182810382526021815260200180620061bd6021913960400191505060405180910390fd5b809150505b92915050565b60008082116200037e576040517f08c379a000000000000000000000000000000000000000000000000000000000815260040180806020018281038252601a8152602001807f536166654d6174683a206469766973696f6e206279207a65726f00000000000081525060200191505060405180910390fd5b8183816200038857fe5b04905092915050565b615e1c80620003a16000396000f3fe60806040523480156200001157600080fd5b5060043610620000a05760003560e01c80638ba63eea116200006f5780638ba63eea1462000339578063c548e7611462000410578063e50553f1146200046d578063edceefa31462000732578063ee9e756e146200076857620000a0565b8063107a45f514620000a557806338c92c9414620001905780635322546d146200022e57806369e154041462000319575b600080fd5b6200016460048036036020811015620000bd57600080fd5b8101908080359060200190640100000000811115620000db57600080fd5b820183602082011115620000ee57600080fd5b803590602001918460018302840111640100000000831117156200011157600080fd5b91908080601f016020809104026020016040519081016040528093929190818152602001838380828437600081840152601f19601f820116905080830192505050505050509192919290505050620007af565b604051808273ffffffffffffffffffffffffffffffffffffffff16815260200191505060405180910390f35b620001d560048036036020811015620001a857600080fd5b81019080803573ffffffffffffffffffffffffffffffffffffffff16906020019092919050505062000844565b6040518080602001828103825283818151815260200191508051906020019060200280838360005b838110156200021a578082015181840152602081019050620001fd565b505050509050019250505060405180910390f35b620002ed600480360360208110156200024657600080fd5b81019080803590602001906401000000008111156200026457600080fd5b8201836020820111156200027757600080fd5b803590602001918460018302840111640100000000831117156200029a57600080fd5b91908080601f016020809104026020016040519081016040528093929190818152602001838380828437600081840152601f19601f82011690508083019250505050505050919291929050505062000913565b604051808273ffffffffffffffffffffffffffffffffffffffff16815260200191505060405180910390f35b62000323620009a7565b6040518082815260200191505060405180910390f35b620003f8600480360360208110156200035157600080fd5b81019080803590602001906401000000008111156200036f57600080fd5b8201836020820111156200038257600080fd5b80359060200191846001830284011164010000000083111715620003a557600080fd5b91908080601f016020809104026020016040519081016040528093929190818152602001838380828437600081840152601f19601f820116905080830192505050505050509192919290505050620009ad565b60405180821515815260200191505060405180910390f35b62000455600480360360208110156200042857600080fd5b81019080803573ffffffffffffffffffffffffffffffffffffffff16906020019092919050505062000ae5565b60405180821515815260200191505060405180910390f35b62000706600480360360a08110156200048557600080fd5b8101908080359060200190640100000000811115620004a357600080fd5b820183602082011115620004b657600080fd5b80359060200191846001830284011164010000000083111715620004d957600080fd5b91908080601f016020809104026020016040519081016040528093929190818152602001838380828437600081840152601f19601f820116905080830192505050505050509192919290803590602001906401000000008111156200053d57600080fd5b8201836020820111156200055057600080fd5b803590602001918460018302840111640100000000831117156200057357600080fd5b91908080601f016020809104026020016040519081016040528093929190818152602001838380828437600081840152601f19601f82011690508083019250505050505050919291929080359060200190640100000000811115620005d757600080fd5b820183602082011115620005ea57600080fd5b803590602001918460018302840111640100000000831117156200060d57600080fd5b91908080601f016020809104026020016040519081016040528093929190818152602001838380828437600081840152601f19601f820116905080830192505050505050509192919290803590602001906401000000008111156200067157600080fd5b8201836020820111156200068457600080fd5b80359060200191846001830284011164010000000083111715620006a757600080fd5b91908080601f016020809104026020016040519081016040528093929190818152602001838380828437600081840152601f19601f82011690508083019250505050505050919291929080351515906020019092919050505062000b8c565b604051808273ffffffffffffffffffffffffffffffffffffffff16815260200191505060405180910390f35b6200073c620014cb565b604051808273ffffffffffffffffffffffffffffffffffffffff16815260200191505060405180910390f35b62000797600480360360208110156200078057600080fd5b8101908080359060200190929190505050620014f5565b60405180821515815260200191505060405180910390f35b60006001826040518082805190602001908083835b60208310620007e95780518252602082019150602081019050602083039250620007c4565b6001836020036101000a038019825116818451168082178552505050505050905001915050908152602001604051809103902060009054906101000a900473ffffffffffffffffffffffffffffffffffffffff169050919050565b6060600260008373ffffffffffffffffffffffffffffffffffffffff1673ffffffffffffffffffffffffffffffffffffffff1681526020019081526020016000208054806020026020016040519081016040528092919081815260200182805480156200090757602002820191906000526020600020905b8160009054906101000a900473ffffffffffffffffffffffffffffffffffffffff1673ffffffffffffffffffffffffffffffffffffffff1681526020019060010190808311620008bc575b50505050509050919050565b600080826040518082805190602001908083835b602083106200094c578051825260208201915060208101905060208303925062000927565b6001836020036101000a038019825116818451168082178552505050505050905001915050908152602001604051809103902060009054906101000a900473ffffffffffffffffffffffffffffffffffffffff169050919050565b600a5481565b60008073ffffffffffffffffffffffffffffffffffffffff166000836040518082805190602001908083835b60208310620009fe5780518252602082019150602081019050602083039250620009d9565b6001836020036101000a038019825116818451168082178552505050505050905001915050908152602001604051809103902060009054906101000a900473ffffffffffffffffffffffffffffffffffffffff1673ffffffffffffffffffffffffffffffffffffffff161462000adc576040517f08c379a00000000000000000000000000000000000000000000000000000000081526004018080602001828103825260138152602001807f73796d626f6c20616c726561647920757365640000000000000000000000000081525060200191505060405180910390fd5b60019050919050565b6000600660009054906101000a900473ffffffffffffffffffffffffffffffffffffffff1673ffffffffffffffffffffffffffffffffffffffff163373ffffffffffffffffffffffffffffffffffffffff161462000b4257600080fd5b81600560006101000a81548173ffffffffffffffffffffffffffffffffffffffff021916908373ffffffffffffffffffffffffffffffffffffffff16021790555060019050919050565b60008073ffffffffffffffffffffffffffffffffffffffff163373ffffffffffffffffffffffffffffffffffffffff16141562000c31576040517f08c379a000000000000000000000000000000000000000000000000000000000815260040180806020018281038252600f8152602001807f496e76616c69642061646472657373000000000000000000000000000000000081525060200191505060405180910390fd5b60008651141562000caa576040517f08c379a00000000000000000000000000000000000000000000000000000000081526004018080602001828103825260138152602001807f6e616d652063616e277420626520656d7074790000000000000000000000000081525060200191505060405180910390fd5b60008551141562000d23576040517f08c379a00000000000000000000000000000000000000000000000000000000081526004018080602001828103825260158152602001807f73796d626f6c2063616e277420626520656d707479000000000000000000000081525060200191505060405180910390fd5b62000d2e85620009ad565b50600760009054906101000a900473ffffffffffffffffffffffffffffffffffffffff1673ffffffffffffffffffffffffffffffffffffffff166323b872dd33600560009054906101000a900473ffffffffffffffffffffffffffffffffffffffff16600a546040518463ffffffff1660e01b8152600401808473ffffffffffffffffffffffffffffffffffffffff1681526020018373ffffffffffffffffffffffffffffffffffffffff1681526020018281526020019350505050602060405180830381600087803b15801562000e0557600080fd5b505af115801562000e1a573d6000803e3d6000fd5b505050506040513d602081101562000e3157600080fd5b810190808051906020019092919050505050600086868686338760405162000e599062001678565b80806020018060200180602001806020018773ffffffffffffffffffffffffffffffffffffffff168152602001861515815260200185810385528b818151815260200191508051906020019080838360005b8381101562000ec857808201518184015260208101905062000eab565b50505050905090810190601f16801562000ef65780820380516001836020036101000a031916815260200191505b5085810384528a818151815260200191508051906020019080838360005b8381101562000f3157808201518184015260208101905062000f14565b50505050905090810190601f16801562000f5f5780820380516001836020036101000a031916815260200191505b50858103835289818151815260200191508051906020019080838360005b8381101562000f9a57808201518184015260208101905062000f7d565b50505050905090810190601f16801562000fc85780820380516001836020036101000a031916815260200191505b50858103825288818151815260200191508051906020019080838360005b838110156200100357808201518184015260208101905062000fe6565b50505050905090810190601f168015620010315780820380516001836020036101000a031916815260200191505b509a5050505050505050505050604051809103906000f0801580156200105b573d6000803e3d6000fd5b509050806000876040518082805190602001908083835b6020831062001097578051825260208201915060208101905060208303925062001072565b6001836020036101000a038019825116818451168082178552505050505050905001915050908152602001604051809103902060006101000a81548173ffffffffffffffffffffffffffffffffffffffff021916908373ffffffffffffffffffffffffffffffffffffffff16021790555080600360006101000a81548173ffffffffffffffffffffffffffffffffffffffff021916908373ffffffffffffffffffffffffffffffffffffffff160217905550806001856040518082805190602001908083835b602083106200118257805182526020820191506020810190506020830392506200115d565b6001836020036101000a038019825116818451168082178552505050505050905001915050908152602001604051809103902060006101000a81548173ffffffffffffffffffffffffffffffffffffffff021916908373ffffffffffffffffffffffffffffffffffffffff160217905550600260003373ffffffffffffffffffffffffffffffffffffffff1673ffffffffffffffffffffffffffffffffffffffff168152602001908152602001600020819080600181540180825580915050600190039060005260206000200160009091909190916101000a81548173ffffffffffffffffffffffffffffffffffffffff021916908373ffffffffffffffffffffffffffffffffffffffff1602179055507f0632bf190e63da85be36eb4482bdc34751e12f18a1e3592524bebad4e1fbdbad87878787338660405180806020018060200180602001806020018773ffffffffffffffffffffffffffffffffffffffff1681526020018673ffffffffffffffffffffffffffffffffffffffff16815260200185810385528b818151815260200191508051906020019080838360005b838110156200134057808201518184015260208101905062001323565b50505050905090810190601f1680156200136e5780820380516001836020036101000a031916815260200191505b5085810384528a818151815260200191508051906020019080838360005b83811015620013a95780820151818401526020810190506200138c565b50505050905090810190601f168015620013d75780820380516001836020036101000a031916815260200191505b50858103835289818151815260200191508051906020019080838360005b8381101562001412578082015181840152602081019050620013f5565b50505050905090810190601f168015620014405780820380516001836020036101000a031916815260200191505b50858103825288818151815260200191508051906020019080838360005b838110156200147b5780820151818401526020810190506200145e565b50505050905090810190601f168015620014a95780820380516001836020036101000a031916815260200191505b509a505050505050505050505060405180910390a18091505095945050505050565b6000600360009054906101000a900473ffffffffffffffffffffffffffffffffffffffff16905090565b6000600660009054906101000a900473ffffffffffffffffffffffffffffffffffffffff1673ffffffffffffffffffffffffffffffffffffffff163373ffffffffffffffffffffffffffffffffffffffff16146200155257600080fd5b8160088190555060019050919050565b600080831415620015775760009050620015e7565b60008284029050828482816200158957fe5b0414620015e2576040517f08c379a000000000000000000000000000000000000000000000000000000000815260040180806020018281038252602181526020018062005dc66021913960400191505060405180910390fd5b809150505b92915050565b600080821162001665576040517f08c379a000000000000000000000000000000000000000000000000000000000815260040180806020018281038252601a8152602001807f536166654d6174683a206469766973696f6e206279207a65726f00000000000081525060200191505060405180910390fd5b8183816200166f57fe5b04905092915050565b61473f80620016878339019056fe60806040526000600f553480156200001657600080fd5b506040516200473f3803806200473f833981810160405260c08110156200003c57600080fd5b81019080805160405193929190846401000000008211156200005d57600080fd5b838201915060208201858111156200007457600080fd5b82518660018202830111640100000000821117156200009257600080fd5b8083526020830192505050908051906020019080838360005b83811015620000c8578082015181840152602081019050620000ab565b50505050905090810190601f168015620000f65780820380516001836020036101000a031916815260200191505b50604052602001805160405193929190846401000000008211156200011a57600080fd5b838201915060208201858111156200013157600080fd5b82518660018202830111640100000000821117156200014f57600080fd5b8083526020830192505050908051906020019080838360005b838110156200018557808201518184015260208101905062000168565b50505050905090810190601f168015620001b35780820380516001836020036101000a031916815260200191505b5060405260200180516040519392919084640100000000821115620001d757600080fd5b83820191506020820185811115620001ee57600080fd5b82518660018202830111640100000000821117156200020c57600080fd5b8083526020830192505050908051906020019080838360005b838110156200024257808201518184015260208101905062000225565b50505050905090810190601f168015620002705780820380516001836020036101000a031916815260200191505b50604052602001805160405193929190846401000000008211156200029457600080fd5b83820191506020820185811115620002ab57600080fd5b8251866001820283011164010000000082111715620002c957600080fd5b8083526020830192505050908051906020019080838360005b83811015620002ff578082015181840152602081019050620002e2565b50505050905090810190601f1680156200032d5780820380516001836020036101000a031916815260200191505b5060405260200180519060200190929190805190602001909291905050508585620003656301ffc9a760e01b620004b460201b60201c565b81600690805190602001906200037d929190620005bd565b50806007908051906020019062000396929190620005bd565b50620003af6380ac58cd60e01b620004b460201b60201c565b620003c7635b5e139f60e01b620004b460201b60201c565b620003df63780e9d6360e01b620004b460201b60201c565b505085600a9080519060200190620003f9929190620005bd565b5084600b908051906020019062000412929190620005bd565b5083600c90805190602001906200042b929190620005bd565b5082600d908051906020019062000444929190620005bd565b5081601060006101000a81548173ffffffffffffffffffffffffffffffffffffffff021916908373ffffffffffffffffffffffffffffffffffffffff16021790555080600e60006101000a81548160ff0219169083151502179055506000600f8190555050505050505062000673565b63ffffffff60e01b817bffffffffffffffffffffffffffffffffffffffffffffffffffffffff1916141562000551576040517f08c379a000000000000000000000000000000000000000000000000000000000815260040180806020018281038252601c8152602001807f4552433136353a20696e76616c696420696e746572666163652069640000000081525060200191505060405180910390fd5b6001600080837bffffffffffffffffffffffffffffffffffffffffffffffffffffffff19167bffffffffffffffffffffffffffffffffffffffffffffffffffffffff1916815260200190815260200160002060006101000a81548160ff02191690831515021790555050565b828054600181600116156101000203166002900490600052602060002090601f016020900481019282620005f5576000855562000641565b82601f106200061057805160ff191683800117855562000641565b8280016001018555821562000641579182015b828111156200064057825182559160200191906001019062000623565b5b50905062000650919062000654565b5090565b5b808211156200066f57600081600090555060010162000655565b5090565b6140bc80620006836000396000f3fe608060405234801561001057600080fd5b50600436106101f05760003560e01c80637b31a4d81161010f578063c87b56dd116100a2578063e268cd2411610071578063e268cd2414610ded578063e985e9c514610e94578063f08b82e614610f0e578063faff660e14610f2c576101f0565b8063c87b56dd14610b85578063cc41103a14610c2c578063d1e3fe6114610caf578063d85d3d2714610d32576101f0565b806399bb8134116100de57806399bb813414610924578063a22cb465146109fc578063a7aca43c14610a4c578063b88d4fde14610a80576101f0565b80637b31a4d8146107f65780637e1c0c091461087957806392bc79091461089757806395d89b41146108a1576101f0565b80632f745c59116101875780635a3f2672116101565780635a3f26721461062a5780636352211e146106c35780636c0360eb1461071b57806370a082311461079e576101f0565b80632f745c59146104d457806342842e0e1461053657806342966c68146105a45780634f6ccce7146105e8576101f0565b8063095ea7b3116101c3578063095ea7b31461037757806318160ddd146103c557806323b872dd146103e357806329360ff114610451576101f0565b806301ffc9a7146101f55780630621472c1461025857806306fdde031461029c578063081812fc1461031f575b600080fd5b6102406004803603602081101561020b57600080fd5b8101908080357bffffffffffffffffffffffffffffffffffffffffffffffffffffffff19169060200190929190505050610f4c565b60405180821515815260200191505060405180910390f35b61029a6004803603602081101561026e57600080fd5b81019080803573ffffffffffffffffffffffffffffffffffffffff169060200190929190505050610fb3565b005b6102a4610ffb565b6040518080602001828103825283818151815260200191508051906020019080838360005b838110156102e45780820151818401526020810190506102c9565b50505050905090810190601f1680156103115780820380516001836020036101000a031916815260200191505b509250505060405180910390f35b61034b6004803603602081101561033557600080fd5b810190808035906020019092919050505061109d565b604051808273ffffffffffffffffffffffffffffffffffffffff16815260200191505060405180910390f35b6103c36004803603604081101561038d57600080fd5b81019080803573ffffffffffffffffffffffffffffffffffffffff16906020019092919080359060200190929190505050611138565b005b6103cd61127c565b6040518082815260200191505060405180910390f35b61044f600480360360608110156103f957600080fd5b81019080803573ffffffffffffffffffffffffffffffffffffffff169060200190929190803573ffffffffffffffffffffffffffffffffffffffff1690602001909291908035906020019092919050505061128d565b005b610459611303565b6040518080602001828103825283818151815260200191508051906020019080838360005b8381101561049957808201518184015260208101905061047e565b50505050905090810190601f1680156104c65780820380516001836020036101000a031916815260200191505b509250505060405180910390f35b610520600480360360408110156104ea57600080fd5b81019080803573ffffffffffffffffffffffffffffffffffffffff169060200190929190803590602001909291905050506113a1565b6040518082815260200191505060405180910390f35b6105a26004803603606081101561054c57600080fd5b81019080803573ffffffffffffffffffffffffffffffffffffffff169060200190929190803573ffffffffffffffffffffffffffffffffffffffff169060200190929190803590602001909291905050506113fc565b005b6105d0600480360360208110156105ba57600080fd5b8101908080359060200190929190505050611823565b60405180821515815260200191505060405180910390f35b610614600480360360208110156105fe57600080fd5b8101908080359060200190929190505050611837565b6040518082815260200191505060405180910390f35b61066c6004803603602081101561064057600080fd5b81019080803573ffffffffffffffffffffffffffffffffffffffff16906020019092919050505061185a565b6040518080602001828103825283818151815260200191508051906020019060200280838360005b838110156106af578082015181840152602081019050610694565b505050509050019250505060405180910390f35b6106ef600480360360208110156106d957600080fd5b8101908080359060200190929190505050611994565b604051808273ffffffffffffffffffffffffffffffffffffffff16815260200191505060405180910390f35b6107236119cb565b6040518080602001828103825283818151815260200191508051906020019080838360005b83811015610763578082015181840152602081019050610748565b50505050905090810190601f1680156107905780820380516001836020036101000a031916815260200191505b509250505060405180910390f35b6107e0600480360360208110156107b457600080fd5b81019080803573ffffffffffffffffffffffffffffffffffffffff169060200190929190505050611a6d565b6040518082815260200191505060405180910390f35b6107fe611b42565b6040518080602001828103825283818151815260200191508051906020019080838360005b8381101561083e578082015181840152602081019050610823565b50505050905090810190601f16801561086b5780820380516001836020036101000a031916815260200191505b509250505060405180910390f35b610881611be0565b6040518082815260200191505060405180910390f35b61089f611be6565b005b6108a9611cb7565b6040518080602001828103825283818151815260200191508051906020019080838360005b838110156108e95780820151818401526020810190506108ce565b50505050905090810190601f1680156109165780820380516001836020036101000a031916815260200191505b509250505060405180910390f35b6109fa6004803603604081101561093a57600080fd5b81019080803573ffffffffffffffffffffffffffffffffffffffff1690602001909291908035906020019064010000000081111561097757600080fd5b82018360208201111561098957600080fd5b803590602001918460208302840111640100000000831117156109ab57600080fd5b919080806020026020016040519081016040528093929190818152602001838360200280828437600081840152601f19601f820116905080830192505050505050509192919290505050611d59565b005b610a4a60048036036040811015610a1257600080fd5b81019080803573ffffffffffffffffffffffffffffffffffffffff169060200190929190803515159060200190929190505050611d94565b005b610a54611f4a565b604051808273ffffffffffffffffffffffffffffffffffffffff16815260200191505060405180910390f35b610b8360048036036080811015610a9657600080fd5b81019080803573ffffffffffffffffffffffffffffffffffffffff169060200190929190803573ffffffffffffffffffffffffffffffffffffffff1690602001909291908035906020019092919080359060200190640100000000811115610afd57600080fd5b820183602082011115610b0f57600080fd5b80359060200191846001830284011164010000000083111715610b3157600080fd5b91908080601f016020809104026020016040519081016040528093929190818152602001838380828437600081840152601f19601f820116905080830192505050505050509192919290505050611f70565b005b610bb160048036036020811015610b9b57600080fd5b8101908080359060200190929190505050611fe8565b6040518080602001828103825283818151815260200191508051906020019080838360005b83811015610bf1578082015181840152602081019050610bd6565b50505050905090810190601f168015610c1e5780820380516001836020036101000a031916815260200191505b509250505060405180910390f35b610c346122b9565b6040518080602001828103825283818151815260200191508051906020019080838360005b83811015610c74578082015181840152602081019050610c59565b50505050905090810190601f168015610ca15780820380516001836020036101000a031916815260200191505b509250505060405180910390f35b610cb7612357565b6040518080602001828103825283818151815260200191508051906020019080838360005b83811015610cf7578082015181840152602081019050610cdc565b50505050905090810190601f168015610d245780820380516001836020036101000a031916815260200191505b509250505060405180910390f35b610deb60048036036020811015610d4857600080fd5b8101908080359060200190640100000000811115610d6557600080fd5b820183602082011115610d7757600080fd5b80359060200191846001830284011164010000000083111715610d9957600080fd5b91908080601f016020809104026020016040519081016040528093929190818152602001838380828437600081840152601f19601f8201169050808301925050505050505091929192905050506123f5565b005b610e1960048036036020811015610e0357600080fd5b810190808035906020019092919050505061260c565b6040518080602001828103825283818151815260200191508051906020019080838360005b83811015610e59578082015181840152602081019050610e3e565b50505050905090810190601f168015610e865780820380516001836020036101000a031916815260200191505b509250505060405180910390f35b610ef660048036036040811015610eaa57600080fd5b81019080803573ffffffffffffffffffffffffffffffffffffffff169060200190929190803573ffffffffffffffffffffffffffffffffffffffff1690602001909291905050506126c1565b60405180821515815260200191505060405180910390f35b610f16612755565b6040518082815260200191505060405180910390f35b610f3461275f565b60405180821515815260200191505060405180910390f35b6000806000837bffffffffffffffffffffffffffffffffffffffffffffffffffffffff19167bffffffffffffffffffffffffffffffffffffffffffffffffffffffff1916815260200190815260200160002060009054906101000a900460ff169050919050565b6060610fbe3361185a565b905060005b8151811015610ff657610fe983838381518110610fdc57fe5b6020026020010151611138565b8080600101915050610fc3565b505050565b606060068054600181600116156101000203166002900480601f0160208091040260200160405190810160405280929190818152602001828054600181600116156101000203166002900480156110935780601f1061106857610100808354040283529160200191611093565b820191906000526020600020905b81548152906001019060200180831161107657829003601f168201915b5050505050905090565b60006110a882612772565b6110fd576040517f08c379a000000000000000000000000000000000000000000000000000000000815260040180806020018281038252602c815260200180613fb1602c913960400191505060405180910390fd5b6004600083815260200190815260200160002060009054906101000a900473ffffffffffffffffffffffffffffffffffffffff169050919050565b600061114382611994565b90508073ffffffffffffffffffffffffffffffffffffffff168373ffffffffffffffffffffffffffffffffffffffff1614156111ca576040517f08c379a00000000000000000000000000000000000000000000000000000000081526004018080602001828103825260218152602001806140356021913960400191505060405180910390fd5b8073ffffffffffffffffffffffffffffffffffffffff166111e961278f565b73ffffffffffffffffffffffffffffffffffffffff16148061121857506112178161121261278f565b6126c1565b5b61126d576040517f08c379a0000000000000000000000000000000000000000000000000000000008152600401808060200182810382526038815260200180613f046038913960400191505060405180910390fd5b6112778383612797565b505050565b60006112886002612850565b905090565b61129e61129861278f565b82612865565b6112f3576040517f08c379a00000000000000000000000000000000000000000000000000000000081526004018080602001828103825260318152602001806140566031913960400191505060405180910390fd5b6112fe838383612959565b505050565b600a8054600181600116156101000203166002900480601f0160208091040260200160405190810160405280929190818152602001828054600181600116156101000203166002900480156113995780601f1061136e57610100808354040283529160200191611399565b820191906000526020600020905b81548152906001019060200180831161137c57829003601f168201915b505050505081565b60006113f482600160008673ffffffffffffffffffffffffffffffffffffffff1673ffffffffffffffffffffffffffffffffffffffff168152602001908152602001600020612b9c90919063ffffffff16565b905092915050565b61140d61140761278f565b82612865565b611462576040517f08c379a00000000000000000000000000000000000000000000000000000000081526004018080602001828103825260318152602001806140566031913960400191505060405180910390fd5b600073ffffffffffffffffffffffffffffffffffffffff168373ffffffffffffffffffffffffffffffffffffffff161415611505576040517f08c379a000000000000000000000000000000000000000000000000000000000815260040180806020018281038252600f8152602001807f696e76616c69642061646472657373000000000000000000000000000000000081525060200191505060405180910390fd5b600073ffffffffffffffffffffffffffffffffffffffff168273ffffffffffffffffffffffffffffffffffffffff1614156115a8576040517f08c379a000000000000000000000000000000000000000000000000000000000815260040180806020018281038252600f8152602001807f696e76616c69642061646472657373000000000000000000000000000000000081525060200191505060405180910390fd5b6115c383838360405180602001604052806000815250612bb6565b6060601160008573ffffffffffffffffffffffffffffffffffffffff1673ffffffffffffffffffffffffffffffffffffffff16815260200190815260200160002080548060200260200160405190810160405280929190818152602001828054801561164e57602002820191906000526020600020905b81548152602001906001019080831161163a575b505050505090506060600182510367ffffffffffffffff8111801561167257600080fd5b506040519080825280602002602001820160405280156116a15781602001602082028036833780820191505090505b5090506000601160008673ffffffffffffffffffffffffffffffffffffffff1673ffffffffffffffffffffffffffffffffffffffff16815260200190815260200160002090508084908060018154018082558091505060019003906000526020600020016000909190919091505580601160008773ffffffffffffffffffffffffffffffffffffffff1673ffffffffffffffffffffffffffffffffffffffff16815260200190815260200160002090805461175d929190613ca7565b506000805b84518110156117c5578585828151811061177857fe5b6020026020010151146117b85784818151811061179157fe5b60200260200101518483806001019450815181106117ab57fe5b6020026020010181815250505b8080600101915050611762565b5082601160008973ffffffffffffffffffffffffffffffffffffffff1673ffffffffffffffffffffffffffffffffffffffff1681526020019081526020016000209080519060200190611819929190613cf9565b5050505050505050565b600061182e82612c28565b60019050919050565b60008061184e836002612d6290919063ffffffff16565b50905080915050919050565b6060600073ffffffffffffffffffffffffffffffffffffffff168273ffffffffffffffffffffffffffffffffffffffff1614156118ff576040517f08c379a000000000000000000000000000000000000000000000000000000000815260040180806020018281038252600d8152602001807f696e76616c6964206f776e65720000000000000000000000000000000000000081525060200191505060405180910390fd5b601160008373ffffffffffffffffffffffffffffffffffffffff1673ffffffffffffffffffffffffffffffffffffffff16815260200190815260200160002080548060200260200160405190810160405280929190818152602001828054801561198857602002820191906000526020600020905b815481526020019060010190808311611974575b50505050509050919050565b60006119c482604051806060016040528060298152602001613f66602991396002612d8e9092919063ffffffff16565b9050919050565b606060098054600181600116156101000203166002900480601f016020809104026020016040519081016040528092919081815260200182805460018160011615610100020316600290048015611a635780601f10611a3857610100808354040283529160200191611a63565b820191906000526020600020905b815481529060010190602001808311611a4657829003601f168201915b5050505050905090565b60008073ffffffffffffffffffffffffffffffffffffffff168273ffffffffffffffffffffffffffffffffffffffff161415611af4576040517f08c379a000000000000000000000000000000000000000000000000000000000815260040180806020018281038252602a815260200180613f3c602a913960400191505060405180910390fd5b611b3b600160008473ffffffffffffffffffffffffffffffffffffffff1673ffffffffffffffffffffffffffffffffffffffff168152602001908152602001600020612dad565b9050919050565b600c8054600181600116156101000203166002900480601f016020809104026020016040519081016040528092919081815260200182805460018160011615610100020316600290048015611bd85780601f10611bad57610100808354040283529160200191611bd8565b820191906000526020600020905b815481529060010190602001808311611bbb57829003601f168201915b505050505081565b600f5481565b601060009054906101000a900473ffffffffffffffffffffffffffffffffffffffff1673ffffffffffffffffffffffffffffffffffffffff163373ffffffffffffffffffffffffffffffffffffffff1614611c4057600080fd5b60011515600e60009054906101000a900460ff1615151415611c7c576000600e60006101000a81548160ff021916908315150217905550611cb5565b60001515600e60009054906101000a900460ff1615151415611cb4576001600e60006101000a81548160ff0219169083151502179055505b5b565b606060078054600181600116156101000203166002900480601f016020809104026020016040519081016040528092919081815260200182805460018160011615610100020316600290048015611d4f5780601f10611d2457610100808354040283529160200191611d4f565b820191906000526020600020905b815481529060010190602001808311611d3257829003601f168201915b5050505050905090565b60005b8151811015611d8f57611d8283838381518110611d7557fe5b6020026020010151611138565b8080600101915050611d5c565b505050565b611d9c61278f565b73ffffffffffffffffffffffffffffffffffffffff168273ffffffffffffffffffffffffffffffffffffffff161415611e3d576040517f08c379a00000000000000000000000000000000000000000000000000000000081526004018080602001828103825260198152602001807f4552433732313a20617070726f766520746f2063616c6c65720000000000000081525060200191505060405180910390fd5b8060056000611e4a61278f565b73ffffffffffffffffffffffffffffffffffffffff1673ffffffffffffffffffffffffffffffffffffffff16815260200190815260200160002060008473ffffffffffffffffffffffffffffffffffffffff1673ffffffffffffffffffffffffffffffffffffffff16815260200190815260200160002060006101000a81548160ff0219169083151502179055508173ffffffffffffffffffffffffffffffffffffffff16611ef761278f565b73ffffffffffffffffffffffffffffffffffffffff167f17307eab39ab6107e8899845ad3d59bd9653f200f220920489ca2b5937696c318360405180821515815260200191505060405180910390a35050565b601060009054906101000a900473ffffffffffffffffffffffffffffffffffffffff1681565b611f81611f7b61278f565b83612865565b611fd6576040517f08c379a00000000000000000000000000000000000000000000000000000000081526004018080602001828103825260318152602001806140566031913960400191505060405180910390fd5b611fe284848484612bb6565b50505050565b6060611ff382612772565b612048576040517f08c379a000000000000000000000000000000000000000000000000000000000815260040180806020018281038252602f815260200180614006602f913960400191505060405180910390fd5b6060600860008481526020019081526020016000208054600181600116156101000203166002900480601f0160208091040260200160405190810160405280929190818152602001828054600181600116156101000203166002900480156120f15780601f106120c6576101008083540402835291602001916120f1565b820191906000526020600020905b8154815290600101906020018083116120d457829003601f168201915b5050505050905060606121026119cb565b90506000815114156121185781925050506122b4565b6000825111156121e95780826040516020018083805190602001908083835b6020831061215a5780518252602082019150602081019050602083039250612137565b6001836020036101000a03801982511681845116808217855250505050505090500182805190602001908083835b602083106121ab5780518252602082019150602081019050602083039250612188565b6001836020036101000a03801982511681845116808217855250505050505090500192505050604051602081830303815290604052925050506122b4565b806121f385612dc2565b6040516020018083805190602001908083835b602083106122295780518252602082019150602081019050602083039250612206565b6001836020036101000a03801982511681845116808217855250505050505090500182805190602001908083835b6020831061227a5780518252602082019150602081019050602083039250612257565b6001836020036101000a03801982511681845116808217855250505050505090500192505050604051602081830303815290604052925050505b919050565b600b8054600181600116156101000203166002900480601f01602080910402602001604051908101604052809291908181526020018280546001816001161561010002031660029004801561234f5780601f106123245761010080835404028352916020019161234f565b820191906000526020600020905b81548152906001019060200180831161233257829003601f168201915b505050505081565b600d8054600181600116156101000203166002900480601f0160208091040260200160405190810160405280929190818152602001828054600181600116156101000203166002900480156123ed5780601f106123c2576101008083540402835291602001916123ed565b820191906000526020600020905b8154815290600101906020018083116123d057829003601f168201915b505050505081565b601060009054906101000a900473ffffffffffffffffffffffffffffffffffffffff1673ffffffffffffffffffffffffffffffffffffffff163373ffffffffffffffffffffffffffffffffffffffff161461244f57600080fd5b61246a600161245c61127c565b612f0990919063ffffffff16565b600f8190555061247c33600f54612f91565b6000601160003373ffffffffffffffffffffffffffffffffffffffff1673ffffffffffffffffffffffffffffffffffffffff168152602001908152602001600020905080600f54908060018154018082558091505060019003906000526020600020016000909190919091505580601160003373ffffffffffffffffffffffffffffffffffffffff1673ffffffffffffffffffffffffffffffffffffffff168152602001908152602001600020908054612537929190613ca7565b508160126000600f5481526020019081526020016000209080519060200190612561929190613d46565b507f0a4e1e5035320483d096cf114513007c4eda3853a4dca806da2d9faec60470a682600f546040518080602001838152602001828103825284818151815260200191508051906020019080838360005b838110156125cd5780820151818401526020810190506125b2565b50505050905090810190601f1680156125fa5780820380516001836020036101000a031916815260200191505b50935050505060405180910390a15050565b6060601260008381526020019081526020016000208054600181600116156101000203166002900480601f0160208091040260200160405190810160405280929190818152602001828054600181600116156101000203166002900480156126b55780601f1061268a576101008083540402835291602001916126b5565b820191906000526020600020905b81548152906001019060200180831161269857829003601f168201915b50505050509050919050565b6000600560008473ffffffffffffffffffffffffffffffffffffffff1673ffffffffffffffffffffffffffffffffffffffff16815260200190815260200160002060008373ffffffffffffffffffffffffffffffffffffffff1673ffffffffffffffffffffffffffffffffffffffff16815260200190815260200160002060009054906101000a900460ff16905092915050565b6000600f54905090565b600e60009054906101000a900460ff1681565b600061278882600261318590919063ffffffff16565b9050919050565b600033905090565b816004600083815260200190815260200160002060006101000a81548173ffffffffffffffffffffffffffffffffffffffff021916908373ffffffffffffffffffffffffffffffffffffffff160217905550808273ffffffffffffffffffffffffffffffffffffffff1661280a83611994565b73ffffffffffffffffffffffffffffffffffffffff167f8c5be1e5ebec7d5bd14f71427d1e84f3dd0314c0f7b2291e5b200ac8c7c3b92560405160405180910390a45050565b600061285e8260000161319f565b9050919050565b600061287082612772565b6128c5576040517f08c379a000000000000000000000000000000000000000000000000000000000815260040180806020018281038252602c815260200180613ed8602c913960400191505060405180910390fd5b60006128d083611994565b90508073ffffffffffffffffffffffffffffffffffffffff168473ffffffffffffffffffffffffffffffffffffffff16148061293f57508373ffffffffffffffffffffffffffffffffffffffff166129278461109d565b73ffffffffffffffffffffffffffffffffffffffff16145b80612950575061294f81856126c1565b5b91505092915050565b8273ffffffffffffffffffffffffffffffffffffffff1661297982611994565b73ffffffffffffffffffffffffffffffffffffffff16146129e5576040517f08c379a0000000000000000000000000000000000000000000000000000000008152600401808060200182810382526029815260200180613fdd6029913960400191505060405180910390fd5b600073ffffffffffffffffffffffffffffffffffffffff168273ffffffffffffffffffffffffffffffffffffffff161415612a6b576040517f08c379a0000000000000000000000000000000000000000000000000000000008152600401808060200182810382526024815260200180613e8e6024913960400191505060405180910390fd5b612a768383836131b0565b612a81600082612797565b612ad281600160008673ffffffffffffffffffffffffffffffffffffffff1673ffffffffffffffffffffffffffffffffffffffff1681526020019081526020016000206131b590919063ffffffff16565b50612b2481600160008573ffffffffffffffffffffffffffffffffffffffff1673ffffffffffffffffffffffffffffffffffffffff1681526020019081526020016000206131cf90919063ffffffff16565b50612b3b818360026131e99092919063ffffffff16565b50808273ffffffffffffffffffffffffffffffffffffffff168473ffffffffffffffffffffffffffffffffffffffff167fddf252ad1be2c89b69c2b068fc378daa952ba7f163c4a11628f55a4df523b3ef60405160405180910390a4505050565b6000612bab836000018361321e565b60001c905092915050565b612bc1848484612959565b612bcd848484846132a1565b612c22576040517f08c379a0000000000000000000000000000000000000000000000000000000008152600401808060200182810382526032815260200180613e5c6032913960400191505060405180910390fd5b50505050565b6000612c3382611994565b9050612c41816000846131b0565b612c4c600083612797565b60006008600084815260200190815260200160002080546001816001161561010002031660029004905014612c9b57600860008381526020019081526020016000206000612c9a9190613dd4565b5b612cec82600160008473ffffffffffffffffffffffffffffffffffffffff1673ffffffffffffffffffffffffffffffffffffffff1681526020019081526020016000206131b590919063ffffffff16565b50612d018260026134ba90919063ffffffff16565b5081600073ffffffffffffffffffffffffffffffffffffffff168273ffffffffffffffffffffffffffffffffffffffff167fddf252ad1be2c89b69c2b068fc378daa952ba7f163c4a11628f55a4df523b3ef60405160405180910390a45050565b600080600080612d7586600001866134d4565b915091508160001c8160001c9350935050509250929050565b6000612da1846000018460001b8461356d565b60001c90509392505050565b6000612dbb82600001613663565b9050919050565b60606000821415612e0a576040518060400160405280600181526020017f30000000000000000000000000000000000000000000000000000000000000008152509050612f04565b600082905060005b60008214612e34578080600101915050600a8281612e2c57fe5b049150612e12565b60608167ffffffffffffffff81118015612e4d57600080fd5b506040519080825280601f01601f191660200182016040528015612e805781602001600182028036833780820191505090505b50905060006001830390508593505b60008414612efc57600a8481612ea157fe5b0660300160f81b82828060019003935081518110612ebb57fe5b60200101907effffffffffffffffffffffffffffffffffffffffffffffffffffffffffffff1916908160001a905350600a8481612ef457fe5b049350612e8f565b819450505050505b919050565b600080828401905083811015612f87576040517f08c379a000000000000000000000000000000000000000000000000000000000815260040180806020018281038252601b8152602001807f536166654d6174683a206164646974696f6e206f766572666c6f77000000000081525060200191505060405180910390fd5b8091505092915050565b600073ffffffffffffffffffffffffffffffffffffffff168273ffffffffffffffffffffffffffffffffffffffff161415613034576040517f08c379a00000000000000000000000000000000000000000000000000000000081526004018080602001828103825260208152602001807f4552433732313a206d696e7420746f20746865207a65726f206164647265737381525060200191505060405180910390fd5b61303d81612772565b156130b0576040517f08c379a000000000000000000000000000000000000000000000000000000000815260040180806020018281038252601c8152602001807f4552433732313a20746f6b656e20616c7265616479206d696e7465640000000081525060200191505060405180910390fd5b6130bc600083836131b0565b61310d81600160008573ffffffffffffffffffffffffffffffffffffffff1673ffffffffffffffffffffffffffffffffffffffff1681526020019081526020016000206131cf90919063ffffffff16565b50613124818360026131e99092919063ffffffff16565b50808273ffffffffffffffffffffffffffffffffffffffff16600073ffffffffffffffffffffffffffffffffffffffff167fddf252ad1be2c89b69c2b068fc378daa952ba7f163c4a11628f55a4df523b3ef60405160405180910390a45050565b6000613197836000018360001b613674565b905092915050565b600081600001805490509050919050565b505050565b60006131c7836000018360001b613697565b905092915050565b60006131e1836000018360001b61377f565b905092915050565b6000613215846000018460001b8473ffffffffffffffffffffffffffffffffffffffff1660001b6137ef565b90509392505050565b60008183600001805490501161327f576040517f08c379a0000000000000000000000000000000000000000000000000000000008152600401808060200182810382526022815260200180613e3a6022913960400191505060405180910390fd5b82600001828154811061328e57fe5b9060005260206000200154905092915050565b60006132c28473ffffffffffffffffffffffffffffffffffffffff166138cb565b6132cf57600190506134b2565b606061343963150b7a0260e01b6132e461278f565b888787604051602401808573ffffffffffffffffffffffffffffffffffffffff1681526020018473ffffffffffffffffffffffffffffffffffffffff16815260200183815260200180602001828103825283818151815260200191508051906020019080838360005b8381101561336857808201518184015260208101905061334d565b50505050905090810190601f1680156133955780820380516001836020036101000a031916815260200191505b5095505050505050604051602081830303815290604052907bffffffffffffffffffffffffffffffffffffffffffffffffffffffff19166020820180517bffffffffffffffffffffffffffffffffffffffffffffffffffffffff8381831617835250505050604051806060016040528060328152602001613e5c603291398773ffffffffffffffffffffffffffffffffffffffff166138de9092919063ffffffff16565b9050600081806020019051602081101561345257600080fd5b8101908080519060200190929190505050905063150b7a0260e01b7bffffffffffffffffffffffffffffffffffffffffffffffffffffffff1916817bffffffffffffffffffffffffffffffffffffffffffffffffffffffff191614925050505b949350505050565b60006134cc836000018360001b6138f6565b905092915050565b60008082846000018054905011613536576040517f08c379a0000000000000000000000000000000000000000000000000000000008152600401808060200182810382526022815260200180613f8f6022913960400191505060405180910390fd5b600084600001848154811061354757fe5b906000526020600020906002020190508060000154816001015492509250509250929050565b60008084600101600085815260200190815260200160002054905060008114158390613634576040517f08c379a00000000000000000000000000000000000000000000000000000000081526004018080602001828103825283818151815260200191508051906020019080838360005b838110156135f95780820151818401526020810190506135de565b50505050905090810190601f1680156136265780820380516001836020036101000a031916815260200191505b509250505060405180910390fd5b5084600001600182038154811061364757fe5b9060005260206000209060020201600101549150509392505050565b600081600001805490509050919050565b600080836001016000848152602001908152602001600020541415905092915050565b6000808360010160008481526020019081526020016000205490506000811461377357600060018203905060006001866000018054905003905060008660000182815481106136e257fe5b90600052602060002001549050808760000184815481106136ff57fe5b906000526020600020018190555060018301876001016000838152602001908152602001600020819055508660000180548061373757fe5b60019003818190600052602060002001600090559055866001016000878152602001908152602001600020600090556001945050505050613779565b60009150505b92915050565b600061378b8383613a0f565b6137e45782600001829080600181540180825580915050600190039060005260206000200160009091909190915055826000018054905083600101600084815260200190815260200160002081905550600190506137e9565b600090505b92915050565b6000808460010160008581526020019081526020016000205490506000811415613896578460000160405180604001604052808681526020018581525090806001815401808255809150506001900390600052602060002090600202016000909190919091506000820151816000015560208201518160010155505084600001805490508560010160008681526020019081526020016000208190555060019150506138c4565b828560000160018303815481106138a957fe5b90600052602060002090600202016001018190555060009150505b9392505050565b600080823b905060008111915050919050565b60606138ed8484600085613a32565b90509392505050565b60008083600101600084815260200190815260200160002054905060008114613a03576000600182039050600060018660000180549050039050600086600001828154811061394157fe5b906000526020600020906002020190508087600001848154811061396157fe5b90600052602060002090600202016000820154816000015560018201548160010155905050600183018760010160008360000154815260200190815260200160002081905550866000018054806139b457fe5b6001900381819060005260206000209060020201600080820160009055600182016000905550509055866001016000878152602001908152602001600020600090556001945050505050613a09565b60009150505b92915050565b600080836001016000848152602001908152602001600020541415905092915050565b606082471015613a8d576040517f08c379a0000000000000000000000000000000000000000000000000000000008152600401808060200182810382526026815260200180613eb26026913960400191505060405180910390fd5b613a96856138cb565b613b08576040517f08c379a000000000000000000000000000000000000000000000000000000000815260040180806020018281038252601d8152602001807f416464726573733a2063616c6c20746f206e6f6e2d636f6e747261637400000081525060200191505060405180910390fd5b600060608673ffffffffffffffffffffffffffffffffffffffff1685876040518082805190602001908083835b60208310613b585780518252602082019150602081019050602083039250613b35565b6001836020036101000a03801982511681845116808217855250505050505090500191505060006040518083038185875af1925050503d8060008114613bba576040519150601f19603f3d011682016040523d82523d6000602084013e613bbf565b606091505b5091509150613bcf828286613bdb565b92505050949350505050565b60608315613beb57829050613ca0565b600083511115613bfe5782518084602001fd5b816040517f08c379a00000000000000000000000000000000000000000000000000000000081526004018080602001828103825283818151815260200191508051906020019080838360005b83811015613c65578082015181840152602081019050613c4a565b50505050905090810190601f168015613c925780820380516001836020036101000a031916815260200191505b509250505060405180910390fd5b9392505050565b828054828255906000526020600020908101928215613ce85760005260206000209182015b82811115613ce7578254825591600101919060010190613ccc565b5b509050613cf59190613e1c565b5090565b828054828255906000526020600020908101928215613d35579160200282015b82811115613d34578251825591602001919060010190613d19565b5b509050613d429190613e1c565b5090565b828054600181600116156101000203166002900490600052602060002090601f016020900481019282613d7c5760008555613dc3565b82601f10613d9557805160ff1916838001178555613dc3565b82800160010185558215613dc3579182015b82811115613dc2578251825591602001919060010190613da7565b5b509050613dd09190613e1c565b5090565b50805460018160011615610100020316600290046000825580601f10613dfa5750613e19565b601f016020900490600052602060002090810190613e189190613e1c565b5b50565b5b80821115613e35576000816000905550600101613e1d565b509056fe456e756d657261626c655365743a20696e646578206f7574206f6620626f756e64734552433732313a207472616e7366657220746f206e6f6e20455243373231526563656976657220696d706c656d656e7465724552433732313a207472616e7366657220746f20746865207a65726f2061646472657373416464726573733a20696e73756666696369656e742062616c616e636520666f722063616c6c4552433732313a206f70657261746f7220717565727920666f72206e6f6e6578697374656e7420746f6b656e4552433732313a20617070726f76652063616c6c6572206973206e6f74206f776e6572206e6f7220617070726f76656420666f7220616c6c4552433732313a2062616c616e636520717565727920666f7220746865207a65726f20616464726573734552433732313a206f776e657220717565727920666f72206e6f6e6578697374656e7420746f6b656e456e756d657261626c654d61703a20696e646578206f7574206f6620626f756e64734552433732313a20617070726f76656420717565727920666f72206e6f6e6578697374656e7420746f6b656e4552433732313a207472616e73666572206f6620746f6b656e2074686174206973206e6f74206f776e4552433732314d657461646174613a2055524920717565727920666f72206e6f6e6578697374656e7420746f6b656e4552433732313a20617070726f76616c20746f2063757272656e74206f776e65724552433732313a207472616e736665722063616c6c6572206973206e6f74206f776e6572206e6f7220617070726f766564a26469706673582212206edf1f1b18a2eff57fe406595203f3b9f33a30fdfbcde825b0d33a34634dceb964736f6c63430007040033536166654d6174683a206d756c7469706c69636174696f6e206f766572666c6f77a26469706673582212209aa7c370b9e9788a9195a01a97e57a88982939e1db03ce4313f84a5f1ccb661664736f6c63430007040033536166654d6174683a206d756c7469706c69636174696f6e206f766572666c6f77",
  "immutableReferences": {},
  "source": "// SPDX-License-Identifier: MIT\r\npragma solidity >=0.4.22 <0.8.4;\r\nimport \"@openzeppelin/contracts/token/ERC20/ERC20.sol\";\r\nimport \"./ArtFactory.sol\";\r\n\r\ncontract ArtGallery {\r\n    using SafeMath for uint256;\r\n    // mapping to save the symbol to Gallery Address\r\n    mapping(string => address) symbolToGalleryAddress;\r\n    // mapping to save the Uri to Gallery Address\r\n    mapping(string => address) uriToGalleryAddress;\r\n    //mapping to save all the gallery addresses of an owner\r\n    mapping(address => address[]) userToGalleries;\r\n\r\n    address lastaddress;\r\n    string lastUri;\r\n    address feeAccount = 0x0000000000000000000000000000000000000000;\r\n    address private _owner;\r\n\r\n    constructor(address _feeAccount) public {\r\n        feeAccount = _feeAccount;\r\n        _owner = msg.sender;\r\n    }\r\n\r\n    /*\r\n     * when you deploy Cifi_Token to Local (Ganache) or to blockchain like binance mainnet take the address of the\r\n     * deployed Cifi_Token and add it below\r\n     * the address below is just a dummy one that we need to change once we deploy the Cifi_Token Contract to the\r\n     * binance mainnet and take the address of the contract and add it below\r\n     * but for testing purposes just deploy the cifiToken to Ganache and take the address and use it.\r\n     */\r\n\r\n    ERC20 cifiTokenContract = ERC20(0xe56aB536c90E5A8f06524EA639bE9cB3589B8146);\r\n    uint256 FEE = 100;\r\n    uint8 cifiDecimals = cifiTokenContract.decimals();\r\n    uint256 public feeAmount = FEE.mul(10**cifiDecimals).div(100);\r\n\r\n    event GalleryCreated(\r\n        string name,\r\n        string symbol,\r\n        string description,\r\n        string uri,\r\n        address caller,\r\n        address galleryAddress\r\n    );\r\n\r\n    function createGallery(\r\n        string memory name,\r\n        string memory symbol,\r\n        string memory description,\r\n        string memory uri,\r\n        bool isPrivate\r\n    ) public returns (address) {\r\n        require(msg.sender != address(0), \"Invalid address\");\r\n        require(bytes(name).length != 0, \"name can't be empty\");\r\n        require(bytes(symbol).length != 0, \"symbol can't be empty\");\r\n        uniqueSymbol(symbol);\r\n        cifiTokenContract.transferFrom(msg.sender, feeAccount, feeAmount);\r\n        ArtFactory gallery =\r\n            new ArtFactory(\r\n                name,\r\n                symbol,\r\n                description,\r\n                uri,\r\n                msg.sender,\r\n                isPrivate\r\n            );\r\n\r\n        // adding the gallery address to the symbolToGalleryAddress\r\n        symbolToGalleryAddress[symbol] = address(gallery);\r\n\r\n        // saving the last gallery address\r\n        lastaddress = address(gallery);\r\n\r\n        // adding the gallery address to the uriToGalleryAddress\r\n        uriToGalleryAddress[uri] = address(gallery);\r\n\r\n        // adding the address to address array for userToGalleries\r\n        userToGalleries[msg.sender].push(address(gallery));\r\n\r\n        emit GalleryCreated(\r\n            name,\r\n            symbol,\r\n            description,\r\n            uri,\r\n            msg.sender,\r\n            address(gallery)\r\n        );\r\n\r\n        return address(gallery);\r\n    }\r\n\r\n    function uniqueSymbol(string memory symbol) public view returns (bool) {\r\n        require(\r\n            symbolToGalleryAddress[symbol] == address(0),\r\n            \"symbol already used\"\r\n        );\r\n        return true;\r\n    }\r\n\r\n    function getlastAddress() public view returns (address) {\r\n        return lastaddress;\r\n    }\r\n\r\n    function getGalleryAddressFromUri(string memory uri)\r\n        public\r\n        view\r\n        returns (address)\r\n    {\r\n        return uriToGalleryAddress[uri];\r\n    }\r\n\r\n    function getGalleries(address _user)\r\n        public\r\n        view\r\n        returns (address[] memory)\r\n    {\r\n        return userToGalleries[_user];\r\n    }\r\n\r\n    function getGallery(string memory _symbol) public view returns (address) {\r\n        return symbolToGalleryAddress[_symbol];\r\n    }\r\n\r\n    /**\r\n     * this function allows you to change the address that is going to receive the fee amount\r\n     */\r\n    function ChangeFeeAccount(address newFeeAccount) public returns (bool) {\r\n        require(msg.sender == _owner);\r\n        feeAccount = newFeeAccount;\r\n        return true;\r\n    }\r\n\r\n    function ChangeFeeAmount(uint256 newFeeAmount) public returns (bool) {\r\n        require(msg.sender == _owner);\r\n        FEE = newFeeAmount;\r\n        return true;\r\n    }\r\n}\r\n",
  "sourcePath": "F:/MyWork/LianHe/Citizen/ArtGallery/src/contracts/ArtGallery.sol",
  "compiler": {
    "name": "solc",
    "version": "0.7.4+commit.3f05b770.Emscripten.clang"
  },
  "schemaVersion": "3.3.4",
  "updatedAt": "2021-06-10T13:18:08.099Z",
  "devdoc": {
    "kind": "dev",
    "methods": {},
    "version": 1
  },
  "userdoc": {
    "kind": "user",
    "methods": {
      "ChangeFeeAccount(address)": {
        "notice": "this function allows you to change the address that is going to receive the fee amount"
      }
    },
    "version": 1
  }
}