{
  "contractName": "ArtGallery",
  "abi": [
    {
      "inputs": [],
      "stateMutability": "nonpayable",
      "type": "constructor"
    },
    {
      "anonymous": false,
      "inputs": [
        {
          "indexed": false,
          "internalType": "string",
          "name": "name",
          "type": "string"
        },
        {
          "indexed": false,
          "internalType": "string",
          "name": "symbol",
          "type": "string"
        },
        {
          "indexed": false,
          "internalType": "string",
          "name": "description",
          "type": "string"
        },
        {
          "indexed": false,
          "internalType": "address",
          "name": "caller",
          "type": "address"
        },
        {
          "indexed": false,
          "internalType": "address",
          "name": "galleryAddress",
          "type": "address"
        }
      ],
      "name": "GalleryCreated",
      "type": "event"
    },
    {
      "inputs": [],
      "name": "_owner",
      "outputs": [
        {
          "internalType": "address",
          "name": "",
          "type": "address"
        }
      ],
      "stateMutability": "view",
      "type": "function",
      "constant": true
    },
    {
      "inputs": [],
      "name": "feeAccount",
      "outputs": [
        {
          "internalType": "address",
          "name": "",
          "type": "address"
        }
      ],
      "stateMutability": "view",
      "type": "function",
      "constant": true
    },
    {
      "inputs": [],
      "name": "feeAmount",
      "outputs": [
        {
          "internalType": "uint256",
          "name": "",
          "type": "uint256"
        }
      ],
      "stateMutability": "view",
      "type": "function",
      "constant": true
    },
    {
      "inputs": [
        {
          "internalType": "string",
          "name": "name",
          "type": "string"
        },
        {
          "internalType": "string",
          "name": "symbol",
          "type": "string"
        },
        {
          "internalType": "string",
          "name": "description",
          "type": "string"
        }
      ],
      "name": "createGallery",
      "outputs": [
        {
          "internalType": "address",
          "name": "",
          "type": "address"
        }
      ],
      "stateMutability": "nonpayable",
      "type": "function"
    },
    {
      "inputs": [
        {
          "internalType": "string",
          "name": "symbol",
          "type": "string"
        }
      ],
      "name": "uniqueSymbol",
      "outputs": [
        {
          "internalType": "bool",
          "name": "",
          "type": "bool"
        }
      ],
      "stateMutability": "view",
      "type": "function",
      "constant": true
    },
    {
      "inputs": [],
      "name": "getlastAddress",
      "outputs": [
        {
          "internalType": "address",
          "name": "",
          "type": "address"
        }
      ],
      "stateMutability": "view",
      "type": "function",
      "constant": true
    },
    {
      "inputs": [
        {
          "internalType": "address",
          "name": "_user",
          "type": "address"
        }
      ],
      "name": "getGalleries",
      "outputs": [
        {
          "internalType": "address[]",
          "name": "",
          "type": "address[]"
        }
      ],
      "stateMutability": "view",
      "type": "function",
      "constant": true
    },
    {
      "inputs": [
        {
          "internalType": "string",
          "name": "_symbol",
          "type": "string"
        }
      ],
      "name": "getGallery",
      "outputs": [
        {
          "internalType": "address",
          "name": "",
          "type": "address"
        }
      ],
      "stateMutability": "view",
      "type": "function",
      "constant": true
    },
    {
      "inputs": [
        {
          "internalType": "address",
          "name": "newFeeAccount",
          "type": "address"
        }
      ],
      "name": "ChangeFeeAccount",
      "outputs": [
        {
          "internalType": "bool",
          "name": "",
          "type": "bool"
        }
      ],
      "stateMutability": "nonpayable",
      "type": "function"
    },
    {
      "inputs": [
        {
          "internalType": "uint256",
          "name": "newFeeAmount",
          "type": "uint256"
        }
      ],
      "name": "ChangeFeeAmount",
      "outputs": [
        {
          "internalType": "bool",
          "name": "",
          "type": "bool"
        }
      ],
      "stateMutability": "nonpayable",
      "type": "function"
    }
  ],
  "bytecode": "0x60806040526000600460006101000a81548173ffffffffffffffffffffffffffffffffffffffff021916908373ffffffffffffffffffffffffffffffffffffffff1602179055506000600560006101000a81548173ffffffffffffffffffffffffffffffffffffffff021916908373ffffffffffffffffffffffffffffffffffffffff1602179055507389f2a5463ef4e4176e57eef2b2fdd256bf4bc2bd600660006101000a81548173ffffffffffffffffffffffffffffffffffffffff021916908373ffffffffffffffffffffffffffffffffffffffff1602179055506064600755600660009054906101000a900473ffffffffffffffffffffffffffffffffffffffff1673ffffffffffffffffffffffffffffffffffffffff1663313ce5676040518163ffffffff1660e01b815260040160206040518083038186803b1580156200014b57600080fd5b505afa15801562000160573d6000803e3d6000fd5b505050506040513d60208110156200017757600080fd5b8101908080519060200190929190505050600860006101000a81548160ff021916908360ff160217905550620001ed6064620001d9600860009054906101000a900460ff1660ff16600a0a6007546200028660201b6200126a1790919060201c565b6200031160201b620012f51790919060201c565b600955348015620001fd57600080fd5b5033600460006101000a81548173ffffffffffffffffffffffffffffffffffffffff021916908373ffffffffffffffffffffffffffffffffffffffff16021790555033600560006101000a81548173ffffffffffffffffffffffffffffffffffffffff021916908373ffffffffffffffffffffffffffffffffffffffff1602179055506200039c565b6000808314156200029b57600090506200030b565b6000828402905082848281620002ad57fe5b041462000306576040517f08c379a0000000000000000000000000000000000000000000000000000000008152600401808060200182810382526021815260200180620059ee6021913960400191505060405180910390fd5b809150505b92915050565b600080821162000389576040517f08c379a000000000000000000000000000000000000000000000000000000000815260040180806020018281038252601a8152602001807f536166654d6174683a206469766973696f6e206279207a65726f00000000000081525060200191505060405180910390fd5b8183816200039357fe5b04905092915050565b61564280620003ac6000396000f3fe60806040523480156200001157600080fd5b5060043610620000ac5760003560e01c80638ba63eea116200006f5780638ba63eea14620004af578063b2bdfa7b1462000586578063c548e76114620005bc578063edceefa31462000619578063ee9e756e146200064f57620000ac565b806338c92c9414620000b15780635322546d146200014f57806365e17c9d146200023a57806369e15404146200027057806389605c071462000290575b600080fd5b620000f660048036036020811015620000c957600080fd5b81019080803573ffffffffffffffffffffffffffffffffffffffff16906020019092919050505062000696565b6040518080602001828103825283818151815260200191508051906020019060200280838360005b838110156200013b5780820151818401526020810190506200011e565b505050509050019250505060405180910390f35b6200020e600480360360208110156200016757600080fd5b81019080803590602001906401000000008111156200018557600080fd5b8201836020820111156200019857600080fd5b80359060200191846001830284011164010000000083111715620001bb57600080fd5b91908080601f016020809104026020016040519081016040528093929190818152602001838380828437600081840152601f19601f82011690508083019250505050505050919291929050505062000765565b604051808273ffffffffffffffffffffffffffffffffffffffff16815260200191505060405180910390f35b62000244620007f9565b604051808273ffffffffffffffffffffffffffffffffffffffff16815260200191505060405180910390f35b6200027a6200081f565b6040518082815260200191505060405180910390f35b6200048360048036036060811015620002a857600080fd5b8101908080359060200190640100000000811115620002c657600080fd5b820183602082011115620002d957600080fd5b80359060200191846001830284011164010000000083111715620002fc57600080fd5b91908080601f016020809104026020016040519081016040528093929190818152602001838380828437600081840152601f19601f820116905080830192505050505050509192919290803590602001906401000000008111156200036057600080fd5b8201836020820111156200037357600080fd5b803590602001918460018302840111640100000000831117156200039657600080fd5b91908080601f016020809104026020016040519081016040528093929190818152602001838380828437600081840152601f19601f82011690508083019250505050505050919291929080359060200190640100000000811115620003fa57600080fd5b8201836020820111156200040d57600080fd5b803590602001918460018302840111640100000000831117156200043057600080fd5b91908080601f016020809104026020016040519081016040528093929190818152602001838380828437600081840152601f19601f82011690508083019250505050505050919291929050505062000825565b604051808273ffffffffffffffffffffffffffffffffffffffff16815260200191505060405180910390f35b6200056e60048036036020811015620004c757600080fd5b8101908080359060200190640100000000811115620004e557600080fd5b820183602082011115620004f857600080fd5b803590602001918460018302840111640100000000831117156200051b57600080fd5b91908080601f016020809104026020016040519081016040528093929190818152602001838380828437600081840152601f19601f82011690508083019250505050505050919291929050505062000fce565b60405180821515815260200191505060405180910390f35b6200059062001106565b604051808273ffffffffffffffffffffffffffffffffffffffff16815260200191505060405180910390f35b6200060160048036036020811015620005d457600080fd5b81019080803573ffffffffffffffffffffffffffffffffffffffff1690602001909291905050506200112c565b60405180821515815260200191505060405180910390f35b62000623620011d3565b604051808273ffffffffffffffffffffffffffffffffffffffff16815260200191505060405180910390f35b6200067e600480360360208110156200066757600080fd5b8101908080359060200190929190505050620011fd565b60405180821515815260200191505060405180910390f35b6060600160008373ffffffffffffffffffffffffffffffffffffffff1673ffffffffffffffffffffffffffffffffffffffff1681526020019081526020016000208054806020026020016040519081016040528092919081815260200182805480156200075957602002820191906000526020600020905b8160009054906101000a900473ffffffffffffffffffffffffffffffffffffffff1673ffffffffffffffffffffffffffffffffffffffff16815260200190600101908083116200070e575b50505050509050919050565b600080826040518082805190602001908083835b602083106200079e578051825260208201915060208101905060208303925062000779565b6001836020036101000a038019825116818451168082178552505050505050905001915050908152602001604051809103902060009054906101000a900473ffffffffffffffffffffffffffffffffffffffff169050919050565b600460009054906101000a900473ffffffffffffffffffffffffffffffffffffffff1681565b60095481565b60008073ffffffffffffffffffffffffffffffffffffffff163373ffffffffffffffffffffffffffffffffffffffff161415620008ca576040517f08c379a000000000000000000000000000000000000000000000000000000000815260040180806020018281038252600f8152602001807f496e76616c69642061646472657373000000000000000000000000000000000081525060200191505060405180910390fd5b60008451141562000943576040517f08c379a00000000000000000000000000000000000000000000000000000000081526004018080602001828103825260138152602001807f6e616d652063616e277420626520656d7074790000000000000000000000000081525060200191505060405180910390fd5b600083511415620009bc576040517f08c379a00000000000000000000000000000000000000000000000000000000081526004018080602001828103825260158152602001807f73796d626f6c2063616e277420626520656d707479000000000000000000000081525060200191505060405180910390fd5b620009c78362000fce565b50600660009054906101000a900473ffffffffffffffffffffffffffffffffffffffff1673ffffffffffffffffffffffffffffffffffffffff166323b872dd33600460009054906101000a900473ffffffffffffffffffffffffffffffffffffffff166009546040518463ffffffff1660e01b8152600401808473ffffffffffffffffffffffffffffffffffffffff1681526020018373ffffffffffffffffffffffffffffffffffffffff1681526020018281526020019350505050602060405180830381600087803b15801562000a9e57600080fd5b505af115801562000ab3573d6000803e3d6000fd5b505050506040513d602081101562000aca57600080fd5b81019080805190602001909291905050505060008484843360405162000af09062001380565b808060200180602001806020018573ffffffffffffffffffffffffffffffffffffffff168152602001848103845288818151815260200191508051906020019080838360005b8381101562000b5357808201518184015260208101905062000b36565b50505050905090810190601f16801562000b815780820380516001836020036101000a031916815260200191505b50848103835287818151815260200191508051906020019080838360005b8381101562000bbc57808201518184015260208101905062000b9f565b50505050905090810190601f16801562000bea5780820380516001836020036101000a031916815260200191505b50848103825286818151815260200191508051906020019080838360005b8381101562000c2557808201518184015260208101905062000c08565b50505050905090810190601f16801562000c535780820380516001836020036101000a031916815260200191505b50975050505050505050604051809103906000f08015801562000c7a573d6000803e3d6000fd5b509050806000856040518082805190602001908083835b6020831062000cb6578051825260208201915060208101905060208303925062000c91565b6001836020036101000a038019825116818451168082178552505050505050905001915050908152602001604051809103902060006101000a81548173ffffffffffffffffffffffffffffffffffffffff021916908373ffffffffffffffffffffffffffffffffffffffff16021790555080600260006101000a81548173ffffffffffffffffffffffffffffffffffffffff021916908373ffffffffffffffffffffffffffffffffffffffff160217905550600160003373ffffffffffffffffffffffffffffffffffffffff1673ffffffffffffffffffffffffffffffffffffffff168152602001908152602001600020819080600181540180825580915050600190039060005260206000200160009091909190916101000a81548173ffffffffffffffffffffffffffffffffffffffff021916908373ffffffffffffffffffffffffffffffffffffffff1602179055507f6279ba878a9280abb57b065285bf685ceb2236edc0b468d222c47a2be3b034df8585853385604051808060200180602001806020018673ffffffffffffffffffffffffffffffffffffffff1681526020018573ffffffffffffffffffffffffffffffffffffffff168152602001848103845289818151815260200191508051906020019080838360005b8381101562000eb057808201518184015260208101905062000e93565b50505050905090810190601f16801562000ede5780820380516001836020036101000a031916815260200191505b50848103835288818151815260200191508051906020019080838360005b8381101562000f1957808201518184015260208101905062000efc565b50505050905090810190601f16801562000f475780820380516001836020036101000a031916815260200191505b50848103825287818151815260200191508051906020019080838360005b8381101562000f8257808201518184015260208101905062000f65565b50505050905090810190601f16801562000fb05780820380516001836020036101000a031916815260200191505b509850505050505050505060405180910390a1809150509392505050565b60008073ffffffffffffffffffffffffffffffffffffffff166000836040518082805190602001908083835b602083106200101f578051825260208201915060208101905060208303925062000ffa565b6001836020036101000a038019825116818451168082178552505050505050905001915050908152602001604051809103902060009054906101000a900473ffffffffffffffffffffffffffffffffffffffff1673ffffffffffffffffffffffffffffffffffffffff1614620010fd576040517f08c379a00000000000000000000000000000000000000000000000000000000081526004018080602001828103825260138152602001807f73796d626f6c20616c726561647920757365640000000000000000000000000081525060200191505060405180910390fd5b60019050919050565b600560009054906101000a900473ffffffffffffffffffffffffffffffffffffffff1681565b6000600560009054906101000a900473ffffffffffffffffffffffffffffffffffffffff1673ffffffffffffffffffffffffffffffffffffffff163373ffffffffffffffffffffffffffffffffffffffff16146200118957600080fd5b81600460006101000a81548173ffffffffffffffffffffffffffffffffffffffff021916908373ffffffffffffffffffffffffffffffffffffffff16021790555060019050919050565b6000600260009054906101000a900473ffffffffffffffffffffffffffffffffffffffff16905090565b6000600560009054906101000a900473ffffffffffffffffffffffffffffffffffffffff1673ffffffffffffffffffffffffffffffffffffffff163373ffffffffffffffffffffffffffffffffffffffff16146200125a57600080fd5b8160078190555060019050919050565b6000808314156200127f5760009050620012ef565b60008284029050828482816200129157fe5b0414620012ea576040517f08c379a0000000000000000000000000000000000000000000000000000000008152600401808060200182810382526021815260200180620055ec6021913960400191505060405180910390fd5b809150505b92915050565b60008082116200136d576040517f08c379a000000000000000000000000000000000000000000000000000000000815260040180806020018281038252601a8152602001807f536166654d6174683a206469766973696f6e206279207a65726f00000000000081525060200191505060405180910390fd5b8183816200137757fe5b04905092915050565b61425d806200138f8339019056fe608060405260006010553480156200001657600080fd5b506040516200425d3803806200425d833981810160405260808110156200003c57600080fd5b81019080805160405193929190846401000000008211156200005d57600080fd5b838201915060208201858111156200007457600080fd5b82518660018202830111640100000000821117156200009257600080fd5b8083526020830192505050908051906020019080838360005b83811015620000c8578082015181840152602081019050620000ab565b50505050905090810190601f168015620000f65780820380516001836020036101000a031916815260200191505b50604052602001805160405193929190846401000000008211156200011a57600080fd5b838201915060208201858111156200013157600080fd5b82518660018202830111640100000000821117156200014f57600080fd5b8083526020830192505050908051906020019080838360005b838110156200018557808201518184015260208101905062000168565b50505050905090810190601f168015620001b35780820380516001836020036101000a031916815260200191505b5060405260200180516040519392919084640100000000821115620001d757600080fd5b83820191506020820185811115620001ee57600080fd5b82518660018202830111640100000000821117156200020c57600080fd5b8083526020830192505050908051906020019080838360005b838110156200024257808201518184015260208101905062000225565b50505050905090810190601f168015620002705780820380516001836020036101000a031916815260200191505b506040526020018051906020019092919050505083836200029e6301ffc9a760e01b6200040e60201b60201c565b8160069080519060200190620002b692919062000533565b508060079080519060200190620002cf92919062000533565b50620002e86380ac58cd60e01b6200040e60201b60201c565b62000300635b5e139f60e01b6200040e60201b60201c565b6200031863780e9d6360e01b6200040e60201b60201c565b505062000332630760a14c60e01b6200040e60201b60201c565b83600c90805190602001906200034a92919062000533565b5082600d90805190602001906200036392919062000533565b5081600e90805190602001906200037c92919062000533565b5080600f60006101000a81548173ffffffffffffffffffffffffffffffffffffffff021916908373ffffffffffffffffffffffffffffffffffffffff160217905550620004046040518060400160405280601581526020017f68747470733a2f2f697066732e696f2f697066732f00000000000000000000008152506200051760201b60201c565b50505050620005e9565b63ffffffff60e01b817bffffffffffffffffffffffffffffffffffffffffffffffffffffffff19161415620004ab576040517f08c379a000000000000000000000000000000000000000000000000000000000815260040180806020018281038252601c8152602001807f4552433136353a20696e76616c696420696e746572666163652069640000000081525060200191505060405180910390fd5b6001600080837bffffffffffffffffffffffffffffffffffffffffffffffffffffffff19167bffffffffffffffffffffffffffffffffffffffffffffffffffffffff1916815260200190815260200160002060006101000a81548160ff02191690831515021790555050565b80600990805190602001906200052f92919062000533565b5050565b828054600181600116156101000203166002900490600052602060002090601f0160209004810192826200056b5760008555620005b7565b82601f106200058657805160ff1916838001178555620005b7565b82800160010185558215620005b7579182015b82811115620005b657825182559160200191906001019062000599565b5b509050620005c69190620005ca565b5090565b5b80821115620005e5576000816000905550600101620005cb565b5090565b613c6480620005f96000396000f3fe608060405234801561001057600080fd5b50600436106101da5760003560e01c80636c0360eb11610104578063a22cb465116100a2578063caa47fbf11610071578063caa47fbf14610dc6578063cc41103a14610e1e578063e69c20cf14610ea1578063e985e9c514610f66576101da565b8063a22cb46514610b96578063a7aca43c14610be6578063b88d4fde14610c1a578063c87b56dd14610d1f576101da565b80638462151c116100de5780638462151c1461096057806395d89b41146109f957806399bb813414610a7c5780639e4c014114610b54576101da565b80636c0360eb1461080257806370a08231146108855780637b31a4d8146108dd576101da565b806323b872dd1161017c57806342966c681161014b57806342966c68146106695780634f6ccce7146106ad5780636352211e146106ef5780636bff2c2414610747576101da565b806323b872dd146104a857806329360ff1146105165780632f745c591461059957806342842e0e146105fb576101da565b806306fdde03116101b857806306fdde0314610361578063081812fc146103e4578063095ea7b31461043c57806318160ddd1461048a576101da565b806301ffc9a7146101df578063056b01ce146102425780630621472c1461031d575b600080fd5b61022a600480360360208110156101f557600080fd5b8101908080357bffffffffffffffffffffffffffffffffffffffffffffffffffffffff19169060200190929190505050610fe0565b60405180821515815260200191505060405180910390f35b6103056004803603604081101561025857600080fd5b810190808035906020019064010000000081111561027557600080fd5b82018360208201111561028757600080fd5b803590602001918460018302840111640100000000831117156102a957600080fd5b91908080601f016020809104026020016040519081016040528093929190818152602001838380828437600081840152601f19601f82011690508083019250505050505050919291929080359060200190929190505050611047565b60405180821515815260200191505060405180910390f35b61035f6004803603602081101561033357600080fd5b81019080803573ffffffffffffffffffffffffffffffffffffffff16906020019092919050505061119c565b005b6103696111e4565b6040518080602001828103825283818151815260200191508051906020019080838360005b838110156103a957808201518184015260208101905061038e565b50505050905090810190601f1680156103d65780820380516001836020036101000a031916815260200191505b509250505060405180910390f35b610410600480360360208110156103fa57600080fd5b8101908080359060200190929190505050611286565b604051808273ffffffffffffffffffffffffffffffffffffffff16815260200191505060405180910390f35b6104886004803603604081101561045257600080fd5b81019080803573ffffffffffffffffffffffffffffffffffffffff16906020019092919080359060200190929190505050611321565b005b610492611465565b6040518082815260200191505060405180910390f35b610514600480360360608110156104be57600080fd5b81019080803573ffffffffffffffffffffffffffffffffffffffff169060200190929190803573ffffffffffffffffffffffffffffffffffffffff16906020019092919080359060200190929190505050611476565b005b61051e6114ec565b6040518080602001828103825283818151815260200191508051906020019080838360005b8381101561055e578082015181840152602081019050610543565b50505050905090810190601f16801561058b5780820380516001836020036101000a031916815260200191505b509250505060405180910390f35b6105e5600480360360408110156105af57600080fd5b81019080803573ffffffffffffffffffffffffffffffffffffffff1690602001909291908035906020019092919050505061158a565b6040518082815260200191505060405180910390f35b6106676004803603606081101561061157600080fd5b81019080803573ffffffffffffffffffffffffffffffffffffffff169060200190929190803573ffffffffffffffffffffffffffffffffffffffff169060200190929190803590602001909291905050506115e5565b005b6106956004803603602081101561067f57600080fd5b8101908080359060200190929190505050611605565b60405180821515815260200191505060405180910390f35b6106d9600480360360208110156106c357600080fd5b810190808035906020019092919050505061169c565b6040518082815260200191505060405180910390f35b61071b6004803603602081101561070557600080fd5b81019080803590602001909291905050506116bf565b604051808273ffffffffffffffffffffffffffffffffffffffff16815260200191505060405180910390f35b6108006004803603602081101561075d57600080fd5b810190808035906020019064010000000081111561077a57600080fd5b82018360208201111561078c57600080fd5b803590602001918460018302840111640100000000831117156107ae57600080fd5b91908080601f016020809104026020016040519081016040528093929190818152602001838380828437600081840152601f19601f8201169050808301925050505050505091929192905050506116f6565b005b61080a61175c565b6040518080602001828103825283818151815260200191508051906020019080838360005b8381101561084a57808201518184015260208101905061082f565b50505050905090810190601f1680156108775780820380516001836020036101000a031916815260200191505b509250505060405180910390f35b6108c76004803603602081101561089b57600080fd5b81019080803573ffffffffffffffffffffffffffffffffffffffff1690602001909291905050506117fe565b6040518082815260200191505060405180910390f35b6108e56118d3565b6040518080602001828103825283818151815260200191508051906020019080838360005b8381101561092557808201518184015260208101905061090a565b50505050905090810190601f1680156109525780820380516001836020036101000a031916815260200191505b509250505060405180910390f35b6109a26004803603602081101561097657600080fd5b81019080803573ffffffffffffffffffffffffffffffffffffffff169060200190929190505050611971565b6040518080602001828103825283818151815260200191508051906020019060200280838360005b838110156109e55780820151818401526020810190506109ca565b505050509050019250505060405180910390f35b610a01611ab3565b6040518080602001828103825283818151815260200191508051906020019080838360005b83811015610a41578082015181840152602081019050610a26565b50505050905090810190601f168015610a6e5780820380516001836020036101000a031916815260200191505b509250505060405180910390f35b610b5260048036036040811015610a9257600080fd5b81019080803573ffffffffffffffffffffffffffffffffffffffff16906020019092919080359060200190640100000000811115610acf57600080fd5b820183602082011115610ae157600080fd5b80359060200191846020830284011164010000000083111715610b0357600080fd5b919080806020026020016040519081016040528093929190818152602001838360200280828437600081840152601f19601f820116905080830192505050505050509192919290505050611b55565b005b610b8060048036036020811015610b6a57600080fd5b8101908080359060200190929190505050611b90565b6040518082815260200191505060405180910390f35b610be460048036036040811015610bac57600080fd5b81019080803573ffffffffffffffffffffffffffffffffffffffff169060200190929190803515159060200190929190505050611bad565b005b610bee611d63565b604051808273ffffffffffffffffffffffffffffffffffffffff16815260200191505060405180910390f35b610d1d60048036036080811015610c3057600080fd5b81019080803573ffffffffffffffffffffffffffffffffffffffff169060200190929190803573ffffffffffffffffffffffffffffffffffffffff1690602001909291908035906020019092919080359060200190640100000000811115610c9757600080fd5b820183602082011115610ca957600080fd5b80359060200191846001830284011164010000000083111715610ccb57600080fd5b91908080601f016020809104026020016040519081016040528093929190818152602001838380828437600081840152601f19601f820116905080830192505050505050509192919290505050611d89565b005b610d4b60048036036020811015610d3557600080fd5b8101908080359060200190929190505050611e01565b6040518080602001828103825283818151815260200191508051906020019080838360005b83811015610d8b578082015181840152602081019050610d70565b50505050905090810190601f168015610db85780820380516001836020036101000a031916815260200191505b509250505060405180910390f35b610df260048036036020811015610ddc57600080fd5b81019080803590602001909291905050506120d2565b604051808273ffffffffffffffffffffffffffffffffffffffff16815260200191505060405180910390f35b610e2661210f565b6040518080602001828103825283818151815260200191508051906020019080838360005b83811015610e66578082015181840152602081019050610e4b565b50505050905090810190601f168015610e935780820380516001836020036101000a031916815260200191505b509250505060405180910390f35b610f6460048036036040811015610eb757600080fd5b810190808035906020019092919080359060200190640100000000811115610ede57600080fd5b820183602082011115610ef057600080fd5b80359060200191846001830284011164010000000083111715610f1257600080fd5b91908080601f016020809104026020016040519081016040528093929190818152602001838380828437600081840152601f19601f8201169050808301925050505050505091929192905050506121ad565b005b610fc860048036036040811015610f7c57600080fd5b81019080803573ffffffffffffffffffffffffffffffffffffffff169060200190929190803573ffffffffffffffffffffffffffffffffffffffff16906020019092919050505061226b565b60405180821515815260200191505060405180910390f35b6000806000837bffffffffffffffffffffffffffffffffffffffffffffffffffffffff19167bffffffffffffffffffffffffffffffffffffffffffffffffffffffff1916815260200190815260200160002060009054906101000a900460ff169050919050565b6000600f60009054906101000a900473ffffffffffffffffffffffffffffffffffffffff1673ffffffffffffffffffffffffffffffffffffffff163373ffffffffffffffffffffffffffffffffffffffff16146110a357600080fd5b6010600081548092919060010191905055506110c86010546110c36122ff565b612307565b6110d46010548361235d565b6110e033601054612379565b6110ec6010548461256d565b7f0a4e1e5035320483d096cf114513007c4eda3853a4dca806da2d9faec60470a6836010546040518080602001838152602001828103825284818151815260200191508051906020019080838360005b8381101561115757808201518184015260208101905061113c565b50505050905090810190601f1680156111845780820380516001836020036101000a031916815260200191505b50935050505060405180910390a16001905092915050565b60606111a733611971565b905060005b81518110156111df576111d2838383815181106111c557fe5b6020026020010151611321565b80806001019150506111ac565b505050565b606060068054600181600116156101000203166002900480601f01602080910402602001604051908101604052809291908181526020018280546001816001161561010002031660029004801561127c5780601f106112515761010080835404028352916020019161127c565b820191906000526020600020905b81548152906001019060200180831161125f57829003601f168201915b5050505050905090565b6000611291826125f7565b6112e6576040517f08c379a000000000000000000000000000000000000000000000000000000000815260040180806020018281038252602c815260200180613b2d602c913960400191505060405180910390fd5b6004600083815260200190815260200160002060009054906101000a900473ffffffffffffffffffffffffffffffffffffffff169050919050565b600061132c826116bf565b90508073ffffffffffffffffffffffffffffffffffffffff168373ffffffffffffffffffffffffffffffffffffffff1614156113b3576040517f08c379a0000000000000000000000000000000000000000000000000000000008152600401808060200182810382526021815260200180613bdd6021913960400191505060405180910390fd5b8073ffffffffffffffffffffffffffffffffffffffff166113d26122ff565b73ffffffffffffffffffffffffffffffffffffffff1614806114015750611400816113fb6122ff565b61226b565b5b611456576040517f08c379a0000000000000000000000000000000000000000000000000000000008152600401808060200182810382526038815260200180613a806038913960400191505060405180910390fd5b6114608383612614565b505050565b600061147160026126cd565b905090565b6114876114816122ff565b826126e2565b6114dc576040517f08c379a0000000000000000000000000000000000000000000000000000000008152600401808060200182810382526031815260200180613bfe6031913960400191505060405180910390fd5b6114e78383836127d6565b505050565b600c8054600181600116156101000203166002900480601f0160208091040260200160405190810160405280929190818152602001828054600181600116156101000203166002900480156115825780601f1061155757610100808354040283529160200191611582565b820191906000526020600020905b81548152906001019060200180831161156557829003601f168201915b505050505081565b60006115dd82600160008673ffffffffffffffffffffffffffffffffffffffff1673ffffffffffffffffffffffffffffffffffffffff168152602001908152602001600020612a1990919063ffffffff16565b905092915050565b61160083838360405180602001604052806000815250611d89565b505050565b60006116186116126122ff565b836126e2565b61168a576040517f08c379a00000000000000000000000000000000000000000000000000000000081526004018080602001828103825260208152602001807f63616c6c6572206973206e6f74206f776e6572206e6f7220617070726f76656481525060200191505060405180910390fd5b61169382612a33565b60019050919050565b6000806116b3836002612b6d90919063ffffffff16565b50905080915050919050565b60006116ef82604051806060016040528060298152602001613ae2602991396002612b999092919063ffffffff16565b9050919050565b600f60009054906101000a900473ffffffffffffffffffffffffffffffffffffffff1673ffffffffffffffffffffffffffffffffffffffff163373ffffffffffffffffffffffffffffffffffffffff161461175057600080fd5b61175981612bb8565b50565b606060098054600181600116156101000203166002900480601f0160208091040260200160405190810160405280929190818152602001828054600181600116156101000203166002900480156117f45780601f106117c9576101008083540402835291602001916117f4565b820191906000526020600020905b8154815290600101906020018083116117d757829003601f168201915b5050505050905090565b60008073ffffffffffffffffffffffffffffffffffffffff168273ffffffffffffffffffffffffffffffffffffffff161415611885576040517f08c379a000000000000000000000000000000000000000000000000000000000815260040180806020018281038252602a815260200180613ab8602a913960400191505060405180910390fd5b6118cc600160008473ffffffffffffffffffffffffffffffffffffffff1673ffffffffffffffffffffffffffffffffffffffff168152602001908152602001600020612bd2565b9050919050565b600e8054600181600116156101000203166002900480601f0160208091040260200160405190810160405280929190818152602001828054600181600116156101000203166002900480156119695780601f1061193e57610100808354040283529160200191611969565b820191906000526020600020905b81548152906001019060200180831161194c57829003601f168201915b505050505081565b6060600073ffffffffffffffffffffffffffffffffffffffff168273ffffffffffffffffffffffffffffffffffffffff161415611a16576040517f08c379a000000000000000000000000000000000000000000000000000000000815260040180806020018281038252600d8152602001807f696e76616c6964206f776e65720000000000000000000000000000000000000081525060200191505060405180910390fd5b6000611a21836117fe565b905060608167ffffffffffffffff81118015611a3c57600080fd5b50604051908082528060200260200182016040528015611a6b5781602001602082028036833780820191505090505b50905060005b82811015611aa857611a83858261158a565b828281518110611a8f57fe5b6020026020010181815250508080600101915050611a71565b508092505050919050565b606060078054600181600116156101000203166002900480601f016020809104026020016040519081016040528092919081815260200182805460018160011615610100020316600290048015611b4b5780601f10611b2057610100808354040283529160200191611b4b565b820191906000526020600020905b815481529060010190602001808311611b2e57829003601f168201915b5050505050905090565b60005b8151811015611b8b57611b7e83838381518110611b7157fe5b6020026020010151611321565b8080600101915050611b58565b505050565b6000600b6000838152602001908152602001600020549050919050565b611bb56122ff565b73ffffffffffffffffffffffffffffffffffffffff168273ffffffffffffffffffffffffffffffffffffffff161415611c56576040517f08c379a00000000000000000000000000000000000000000000000000000000081526004018080602001828103825260198152602001807f4552433732313a20617070726f766520746f2063616c6c65720000000000000081525060200191505060405180910390fd5b8060056000611c636122ff565b73ffffffffffffffffffffffffffffffffffffffff1673ffffffffffffffffffffffffffffffffffffffff16815260200190815260200160002060008473ffffffffffffffffffffffffffffffffffffffff1673ffffffffffffffffffffffffffffffffffffffff16815260200190815260200160002060006101000a81548160ff0219169083151502179055508173ffffffffffffffffffffffffffffffffffffffff16611d106122ff565b73ffffffffffffffffffffffffffffffffffffffff167f17307eab39ab6107e8899845ad3d59bd9653f200f220920489ca2b5937696c318360405180821515815260200191505060405180910390a35050565b600f60009054906101000a900473ffffffffffffffffffffffffffffffffffffffff1681565b611d9a611d946122ff565b836126e2565b611def576040517f08c379a0000000000000000000000000000000000000000000000000000000008152600401808060200182810382526031815260200180613bfe6031913960400191505060405180910390fd5b611dfb84848484612be7565b50505050565b6060611e0c826125f7565b611e61576040517f08c379a000000000000000000000000000000000000000000000000000000000815260040180806020018281038252602f815260200180613bae602f913960400191505060405180910390fd5b6060600860008481526020019081526020016000208054600181600116156101000203166002900480601f016020809104026020016040519081016040528092919081815260200182805460018160011615610100020316600290048015611f0a5780601f10611edf57610100808354040283529160200191611f0a565b820191906000526020600020905b815481529060010190602001808311611eed57829003601f168201915b505050505090506060611f1b61175c565b9050600081511415611f315781925050506120cd565b6000825111156120025780826040516020018083805190602001908083835b60208310611f735780518252602082019150602081019050602083039250611f50565b6001836020036101000a03801982511681845116808217855250505050505090500182805190602001908083835b60208310611fc45780518252602082019150602081019050602083039250611fa1565b6001836020036101000a03801982511681845116808217855250505050505090500192505050604051602081830303815290604052925050506120cd565b8061200c85612c59565b6040516020018083805190602001908083835b60208310612042578051825260208201915060208101905060208303925061201f565b6001836020036101000a03801982511681845116808217855250505050505090500182805190602001908083835b602083106120935780518252602082019150602081019050602083039250612070565b6001836020036101000a03801982511681845116808217855250505050505090500192505050604051602081830303815290604052925050505b919050565b6000600a600083815260200190815260200160002060009054906101000a900473ffffffffffffffffffffffffffffffffffffffff169050919050565b600d8054600181600116156101000203166002900480601f0160208091040260200160405190810160405280929190818152602001828054600181600116156101000203166002900480156121a55780601f1061217a576101008083540402835291602001916121a5565b820191906000526020600020905b81548152906001019060200180831161218857829003601f168201915b505050505081565b6121b6826116bf565b73ffffffffffffffffffffffffffffffffffffffff166121d46122ff565b73ffffffffffffffffffffffffffffffffffffffff161461225d576040517f08c379a00000000000000000000000000000000000000000000000000000000081526004018080602001828103825260138152602001807f696e76616c696420746f6b656e206f776e65720000000000000000000000000081525060200191505060405180910390fd5b612267828261256d565b5050565b6000600560008473ffffffffffffffffffffffffffffffffffffffff1673ffffffffffffffffffffffffffffffffffffffff16815260200190815260200160002060008373ffffffffffffffffffffffffffffffffffffffff1673ffffffffffffffffffffffffffffffffffffffff16815260200190815260200160002060009054906101000a900460ff16905092915050565b600033905090565b80600a600084815260200190815260200160002060006101000a81548173ffffffffffffffffffffffffffffffffffffffff021916908373ffffffffffffffffffffffffffffffffffffffff1602179055505050565b80600b6000848152602001908152602001600020819055505050565b600073ffffffffffffffffffffffffffffffffffffffff168273ffffffffffffffffffffffffffffffffffffffff16141561241c576040517f08c379a00000000000000000000000000000000000000000000000000000000081526004018080602001828103825260208152602001807f4552433732313a206d696e7420746f20746865207a65726f206164647265737381525060200191505060405180910390fd5b612425816125f7565b15612498576040517f08c379a000000000000000000000000000000000000000000000000000000000815260040180806020018281038252601c8152602001807f4552433732313a20746f6b656e20616c7265616479206d696e7465640000000081525060200191505060405180910390fd5b6124a460008383612da0565b6124f581600160008573ffffffffffffffffffffffffffffffffffffffff1673ffffffffffffffffffffffffffffffffffffffff168152602001908152602001600020612da590919063ffffffff16565b5061250c81836002612dbf9092919063ffffffff16565b50808273ffffffffffffffffffffffffffffffffffffffff16600073ffffffffffffffffffffffffffffffffffffffff167fddf252ad1be2c89b69c2b068fc378daa952ba7f163c4a11628f55a4df523b3ef60405160405180910390a45050565b612576826125f7565b6125cb576040517f08c379a000000000000000000000000000000000000000000000000000000000815260040180806020018281038252602c815260200180613b59602c913960400191505060405180910390fd5b806008600084815260200190815260200160002090805190602001906125f29291906138c2565b505050565b600061260d826002612df490919063ffffffff16565b9050919050565b816004600083815260200190815260200160002060006101000a81548173ffffffffffffffffffffffffffffffffffffffff021916908373ffffffffffffffffffffffffffffffffffffffff160217905550808273ffffffffffffffffffffffffffffffffffffffff16612687836116bf565b73ffffffffffffffffffffffffffffffffffffffff167f8c5be1e5ebec7d5bd14f71427d1e84f3dd0314c0f7b2291e5b200ac8c7c3b92560405160405180910390a45050565b60006126db82600001612e0e565b9050919050565b60006126ed826125f7565b612742576040517f08c379a000000000000000000000000000000000000000000000000000000000815260040180806020018281038252602c815260200180613a54602c913960400191505060405180910390fd5b600061274d836116bf565b90508073ffffffffffffffffffffffffffffffffffffffff168473ffffffffffffffffffffffffffffffffffffffff1614806127bc57508373ffffffffffffffffffffffffffffffffffffffff166127a484611286565b73ffffffffffffffffffffffffffffffffffffffff16145b806127cd57506127cc818561226b565b5b91505092915050565b8273ffffffffffffffffffffffffffffffffffffffff166127f6826116bf565b73ffffffffffffffffffffffffffffffffffffffff1614612862576040517f08c379a0000000000000000000000000000000000000000000000000000000008152600401808060200182810382526029815260200180613b856029913960400191505060405180910390fd5b600073ffffffffffffffffffffffffffffffffffffffff168273ffffffffffffffffffffffffffffffffffffffff1614156128e8576040517f08c379a0000000000000000000000000000000000000000000000000000000008152600401808060200182810382526024815260200180613a0a6024913960400191505060405180910390fd5b6128f3838383612da0565b6128fe600082612614565b61294f81600160008673ffffffffffffffffffffffffffffffffffffffff1673ffffffffffffffffffffffffffffffffffffffff168152602001908152602001600020612e1f90919063ffffffff16565b506129a181600160008573ffffffffffffffffffffffffffffffffffffffff1673ffffffffffffffffffffffffffffffffffffffff168152602001908152602001600020612da590919063ffffffff16565b506129b881836002612dbf9092919063ffffffff16565b50808273ffffffffffffffffffffffffffffffffffffffff168473ffffffffffffffffffffffffffffffffffffffff167fddf252ad1be2c89b69c2b068fc378daa952ba7f163c4a11628f55a4df523b3ef60405160405180910390a4505050565b6000612a288360000183612e39565b60001c905092915050565b6000612a3e826116bf565b9050612a4c81600084612da0565b612a57600083612614565b60006008600084815260200190815260200160002080546001816001161561010002031660029004905014612aa657600860008381526020019081526020016000206000612aa59190613950565b5b612af782600160008473ffffffffffffffffffffffffffffffffffffffff1673ffffffffffffffffffffffffffffffffffffffff168152602001908152602001600020612e1f90919063ffffffff16565b50612b0c826002612ebc90919063ffffffff16565b5081600073ffffffffffffffffffffffffffffffffffffffff168273ffffffffffffffffffffffffffffffffffffffff167fddf252ad1be2c89b69c2b068fc378daa952ba7f163c4a11628f55a4df523b3ef60405160405180910390a45050565b600080600080612b808660000186612ed6565b915091508160001c8160001c9350935050509250929050565b6000612bac846000018460001b84612f6f565b60001c90509392505050565b8060099080519060200190612bce9291906138c2565b5050565b6000612be082600001613065565b9050919050565b612bf28484846127d6565b612bfe84848484613076565b612c53576040517f08c379a00000000000000000000000000000000000000000000000000000000081526004018080602001828103825260328152602001806139d86032913960400191505060405180910390fd5b50505050565b60606000821415612ca1576040518060400160405280600181526020017f30000000000000000000000000000000000000000000000000000000000000008152509050612d9b565b600082905060005b60008214612ccb578080600101915050600a8281612cc357fe5b049150612ca9565b60608167ffffffffffffffff81118015612ce457600080fd5b506040519080825280601f01601f191660200182016040528015612d175781602001600182028036833780820191505090505b50905060006001830390508593505b60008414612d9357600a8481612d3857fe5b0660300160f81b82828060019003935081518110612d5257fe5b60200101907effffffffffffffffffffffffffffffffffffffffffffffffffffffffffffff1916908160001a905350600a8481612d8b57fe5b049350612d26565b819450505050505b919050565b505050565b6000612db7836000018360001b61328f565b905092915050565b6000612deb846000018460001b8473ffffffffffffffffffffffffffffffffffffffff1660001b6132ff565b90509392505050565b6000612e06836000018360001b6133db565b905092915050565b600081600001805490509050919050565b6000612e31836000018360001b6133fe565b905092915050565b600081836000018054905011612e9a576040517f08c379a00000000000000000000000000000000000000000000000000000000081526004018080602001828103825260228152602001806139b66022913960400191505060405180910390fd5b826000018281548110612ea957fe5b9060005260206000200154905092915050565b6000612ece836000018360001b6134e6565b905092915050565b60008082846000018054905011612f38576040517f08c379a0000000000000000000000000000000000000000000000000000000008152600401808060200182810382526022815260200180613b0b6022913960400191505060405180910390fd5b6000846000018481548110612f4957fe5b906000526020600020906002020190508060000154816001015492509250509250929050565b60008084600101600085815260200190815260200160002054905060008114158390613036576040517f08c379a00000000000000000000000000000000000000000000000000000000081526004018080602001828103825283818151815260200191508051906020019080838360005b83811015612ffb578082015181840152602081019050612fe0565b50505050905090810190601f1680156130285780820380516001836020036101000a031916815260200191505b509250505060405180910390fd5b5084600001600182038154811061304957fe5b9060005260206000209060020201600101549150509392505050565b600081600001805490509050919050565b60006130978473ffffffffffffffffffffffffffffffffffffffff166135ff565b6130a45760019050613287565b606061320e63150b7a0260e01b6130b96122ff565b888787604051602401808573ffffffffffffffffffffffffffffffffffffffff1681526020018473ffffffffffffffffffffffffffffffffffffffff16815260200183815260200180602001828103825283818151815260200191508051906020019080838360005b8381101561313d578082015181840152602081019050613122565b50505050905090810190601f16801561316a5780820380516001836020036101000a031916815260200191505b5095505050505050604051602081830303815290604052907bffffffffffffffffffffffffffffffffffffffffffffffffffffffff19166020820180517bffffffffffffffffffffffffffffffffffffffffffffffffffffffff83818316178352505050506040518060600160405280603281526020016139d8603291398773ffffffffffffffffffffffffffffffffffffffff166136129092919063ffffffff16565b9050600081806020019051602081101561322757600080fd5b8101908080519060200190929190505050905063150b7a0260e01b7bffffffffffffffffffffffffffffffffffffffffffffffffffffffff1916817bffffffffffffffffffffffffffffffffffffffffffffffffffffffff191614925050505b949350505050565b600061329b838361362a565b6132f45782600001829080600181540180825580915050600190039060005260206000200160009091909190915055826000018054905083600101600084815260200190815260200160002081905550600190506132f9565b600090505b92915050565b60008084600101600085815260200190815260200160002054905060008114156133a6578460000160405180604001604052808681526020018581525090806001815401808255809150506001900390600052602060002090600202016000909190919091506000820151816000015560208201518160010155505084600001805490508560010160008681526020019081526020016000208190555060019150506133d4565b828560000160018303815481106133b957fe5b90600052602060002090600202016001018190555060009150505b9392505050565b600080836001016000848152602001908152602001600020541415905092915050565b600080836001016000848152602001908152602001600020549050600081146134da576000600182039050600060018660000180549050039050600086600001828154811061344957fe5b906000526020600020015490508087600001848154811061346657fe5b906000526020600020018190555060018301876001016000838152602001908152602001600020819055508660000180548061349e57fe5b600190038181906000526020600020016000905590558660010160008781526020019081526020016000206000905560019450505050506134e0565b60009150505b92915050565b600080836001016000848152602001908152602001600020549050600081146135f3576000600182039050600060018660000180549050039050600086600001828154811061353157fe5b906000526020600020906002020190508087600001848154811061355157fe5b90600052602060002090600202016000820154816000015560018201548160010155905050600183018760010160008360000154815260200190815260200160002081905550866000018054806135a457fe5b60019003818190600052602060002090600202016000808201600090556001820160009055505090558660010160008781526020019081526020016000206000905560019450505050506135f9565b60009150505b92915050565b600080823b905060008111915050919050565b6060613621848460008561364d565b90509392505050565b600080836001016000848152602001908152602001600020541415905092915050565b6060824710156136a8576040517f08c379a0000000000000000000000000000000000000000000000000000000008152600401808060200182810382526026815260200180613a2e6026913960400191505060405180910390fd5b6136b1856135ff565b613723576040517f08c379a000000000000000000000000000000000000000000000000000000000815260040180806020018281038252601d8152602001807f416464726573733a2063616c6c20746f206e6f6e2d636f6e747261637400000081525060200191505060405180910390fd5b600060608673ffffffffffffffffffffffffffffffffffffffff1685876040518082805190602001908083835b602083106137735780518252602082019150602081019050602083039250613750565b6001836020036101000a03801982511681845116808217855250505050505090500191505060006040518083038185875af1925050503d80600081146137d5576040519150601f19603f3d011682016040523d82523d6000602084013e6137da565b606091505b50915091506137ea8282866137f6565b92505050949350505050565b60608315613806578290506138bb565b6000835111156138195782518084602001fd5b816040517f08c379a00000000000000000000000000000000000000000000000000000000081526004018080602001828103825283818151815260200191508051906020019080838360005b83811015613880578082015181840152602081019050613865565b50505050905090810190601f1680156138ad5780820380516001836020036101000a031916815260200191505b509250505060405180910390fd5b9392505050565b828054600181600116156101000203166002900490600052602060002090601f0160209004810192826138f8576000855561393f565b82601f1061391157805160ff191683800117855561393f565b8280016001018555821561393f579182015b8281111561393e578251825591602001919060010190613923565b5b50905061394c9190613998565b5090565b50805460018160011615610100020316600290046000825580601f106139765750613995565b601f0160209004906000526020600020908101906139949190613998565b5b50565b5b808211156139b1576000816000905550600101613999565b509056fe456e756d657261626c655365743a20696e646578206f7574206f6620626f756e64734552433732313a207472616e7366657220746f206e6f6e20455243373231526563656976657220696d706c656d656e7465724552433732313a207472616e7366657220746f20746865207a65726f2061646472657373416464726573733a20696e73756666696369656e742062616c616e636520666f722063616c6c4552433732313a206f70657261746f7220717565727920666f72206e6f6e6578697374656e7420746f6b656e4552433732313a20617070726f76652063616c6c6572206973206e6f74206f776e6572206e6f7220617070726f76656420666f7220616c6c4552433732313a2062616c616e636520717565727920666f7220746865207a65726f20616464726573734552433732313a206f776e657220717565727920666f72206e6f6e6578697374656e7420746f6b656e456e756d657261626c654d61703a20696e646578206f7574206f6620626f756e64734552433732313a20617070726f76656420717565727920666f72206e6f6e6578697374656e7420746f6b656e4552433732314d657461646174613a2055524920736574206f66206e6f6e6578697374656e7420746f6b656e4552433732313a207472616e73666572206f6620746f6b656e2074686174206973206e6f74206f776e4552433732314d657461646174613a2055524920717565727920666f72206e6f6e6578697374656e7420746f6b656e4552433732313a20617070726f76616c20746f2063757272656e74206f776e65724552433732313a207472616e736665722063616c6c6572206973206e6f74206f776e6572206e6f7220617070726f766564a2646970667358221220f76675b9f7fed67f4101366ec98c167855af7de1236a754549675b3988623d9a64736f6c63430007040033536166654d6174683a206d756c7469706c69636174696f6e206f766572666c6f77a2646970667358221220281e29e48a526c295b0c81382014d14e1b69d44971cf0c5ee7929bc68e4c88c864736f6c63430007040033536166654d6174683a206d756c7469706c69636174696f6e206f766572666c6f77",
  "immutableReferences": {},
  "source": "// SPDX-License-Identifier: MIT\r\npragma solidity >=0.4.22 <0.8.4;\r\nimport \"@openzeppelin/contracts/token/ERC20/ERC20.sol\";\r\nimport \"./ArtFactory.sol\";\r\n\r\ncontract ArtGallery {\r\n    using SafeMath for uint256;\r\n    // mapping to save the symbol to Gallery Address\r\n    mapping(string => address) symbolToGalleryAddress;\r\n    //mapping to save all the gallery addresses of an owner\r\n    mapping(address => address[]) userToGalleries;\r\n\r\n    address lastaddress;\r\n    string lastUri;\r\n    address public feeAccount = address(0x0000000000000000000000);\r\n    address public _owner = address(0x0000000000000000000000);\r\n\r\n    // ERC20 cifiTokenContract = ERC20(0xe56aB536c90E5A8f06524EA639bE9cB3589B8146);\r\n    ERC20 cifiTokenContract = ERC20(0x89F2a5463eF4e4176E57EEf2b2fDD256Bf4bC2bD);\r\n\r\n    uint256 FEE = 100;\r\n    uint8 cifiDecimals = cifiTokenContract.decimals();\r\n    uint256 public feeAmount = FEE.mul(10**cifiDecimals).div(100);\r\n\r\n    event GalleryCreated(\r\n        string name,\r\n        string symbol,\r\n        string description,\r\n        address caller,\r\n        address galleryAddress\r\n    );\r\n\r\n    constructor() {\r\n        feeAccount = msg.sender;\r\n        _owner = msg.sender;\r\n    }\r\n\r\n    function createGallery(\r\n        string memory name,\r\n        string memory symbol,\r\n        string memory description\r\n    ) public returns (address) {\r\n        require(msg.sender != address(0), \"Invalid address\");\r\n        require(bytes(name).length != 0, \"name can't be empty\");\r\n        require(bytes(symbol).length != 0, \"symbol can't be empty\");\r\n        uniqueSymbol(symbol);\r\n        cifiTokenContract.transferFrom(msg.sender, feeAccount, feeAmount);\r\n        ArtFactory gallery =\r\n            new ArtFactory(name, symbol, description, msg.sender);\r\n\r\n        // adding the gallery address to the symbolToGalleryAddress\r\n        symbolToGalleryAddress[symbol] = address(gallery);\r\n\r\n        // saving the last gallery address\r\n        lastaddress = address(gallery);\r\n\r\n        // adding the gallery address to the uriToGalleryAddress\r\n\r\n        // adding the address to address array for userToGalleries\r\n        userToGalleries[msg.sender].push(address(gallery));\r\n\r\n        emit GalleryCreated(\r\n            name,\r\n            symbol,\r\n            description,\r\n            msg.sender,\r\n            address(gallery)\r\n        );\r\n\r\n        return address(gallery);\r\n    }\r\n\r\n    function uniqueSymbol(string memory symbol) public view returns (bool) {\r\n        require(\r\n            symbolToGalleryAddress[symbol] == address(0),\r\n            \"symbol already used\"\r\n        );\r\n        return true;\r\n    }\r\n\r\n    function getlastAddress() public view returns (address) {\r\n        return lastaddress;\r\n    }\r\n\r\n    function getGalleries(address _user)\r\n        public\r\n        view\r\n        returns (address[] memory)\r\n    {\r\n        return userToGalleries[_user];\r\n    }\r\n\r\n    function getGallery(string memory _symbol) public view returns (address) {\r\n        return symbolToGalleryAddress[_symbol];\r\n    }\r\n\r\n    /**\r\n     * this function allows you to change the address that is going to receive the fee amount\r\n     */\r\n    function ChangeFeeAccount(address newFeeAccount) public returns (bool) {\r\n        require(msg.sender == _owner);\r\n        feeAccount = newFeeAccount;\r\n        return true;\r\n    }\r\n\r\n    function ChangeFeeAmount(uint256 newFeeAmount) public returns (bool) {\r\n        require(msg.sender == _owner);\r\n        FEE = newFeeAmount;\r\n        return true;\r\n    }\r\n}\r\n",
  "sourcePath": "F:/MyWork/LianHe/Citizen/ArtGallery/src/contracts/ArtGallery.sol",
  "compiler": {
    "name": "solc",
    "version": "0.7.4+commit.3f05b770.Emscripten.clang"
  },
  "schemaVersion": "3.4.1",
  "updatedAt": "2021-06-26T13:25:12.167Z",
  "networkType": "ethereum",
  "devdoc": {
    "kind": "dev",
    "methods": {},
    "version": 1
  },
  "userdoc": {
    "kind": "user",
    "methods": {
      "ChangeFeeAccount(address)": {
        "notice": "this function allows you to change the address that is going to receive the fee amount"
      }
    },
    "version": 1
  }
}