{
  "contractName": "ArtGallery",
  "abi": [
    {
      "inputs": [],
      "stateMutability": "nonpayable",
      "type": "constructor"
    },
    {
      "anonymous": false,
      "inputs": [
        {
          "indexed": false,
          "internalType": "string",
          "name": "name",
          "type": "string"
        },
        {
          "indexed": false,
          "internalType": "string",
          "name": "symbol",
          "type": "string"
        },
        {
          "indexed": false,
          "internalType": "string",
          "name": "description",
          "type": "string"
        },
        {
          "indexed": false,
          "internalType": "address",
          "name": "caller",
          "type": "address"
        },
        {
          "indexed": false,
          "internalType": "address",
          "name": "galleryAddress",
          "type": "address"
        }
      ],
      "name": "GalleryCreated",
      "type": "event"
    },
    {
      "inputs": [],
      "name": "_owner",
      "outputs": [
        {
          "internalType": "address",
          "name": "",
          "type": "address"
        }
      ],
      "stateMutability": "view",
      "type": "function",
      "constant": true
    },
    {
      "inputs": [],
      "name": "feeAccount",
      "outputs": [
        {
          "internalType": "address",
          "name": "",
          "type": "address"
        }
      ],
      "stateMutability": "view",
      "type": "function",
      "constant": true
    },
    {
      "inputs": [],
      "name": "feeAmount",
      "outputs": [
        {
          "internalType": "uint256",
          "name": "",
          "type": "uint256"
        }
      ],
      "stateMutability": "view",
      "type": "function",
      "constant": true
    },
    {
      "inputs": [
        {
          "internalType": "string",
          "name": "name",
          "type": "string"
        },
        {
          "internalType": "string",
          "name": "symbol",
          "type": "string"
        },
        {
          "internalType": "string",
          "name": "description",
          "type": "string"
        }
      ],
      "name": "createGallery",
      "outputs": [
        {
          "internalType": "address",
          "name": "",
          "type": "address"
        }
      ],
      "stateMutability": "nonpayable",
      "type": "function"
    },
    {
      "inputs": [
        {
          "internalType": "string",
          "name": "symbol",
          "type": "string"
        }
      ],
      "name": "uniqueSymbol",
      "outputs": [
        {
          "internalType": "bool",
          "name": "",
          "type": "bool"
        }
      ],
      "stateMutability": "view",
      "type": "function",
      "constant": true
    },
    {
      "inputs": [],
      "name": "getlastAddress",
      "outputs": [
        {
          "internalType": "address",
          "name": "",
          "type": "address"
        }
      ],
      "stateMutability": "view",
      "type": "function",
      "constant": true
    },
    {
      "inputs": [
        {
          "internalType": "address",
          "name": "_user",
          "type": "address"
        }
      ],
      "name": "getGalleries",
      "outputs": [
        {
          "internalType": "address[]",
          "name": "",
          "type": "address[]"
        }
      ],
      "stateMutability": "view",
      "type": "function",
      "constant": true
    },
    {
      "inputs": [
        {
          "internalType": "string",
          "name": "_symbol",
          "type": "string"
        }
      ],
      "name": "getGallery",
      "outputs": [
        {
          "internalType": "address",
          "name": "",
          "type": "address"
        }
      ],
      "stateMutability": "view",
      "type": "function",
      "constant": true
    },
    {
      "inputs": [
        {
          "internalType": "address",
          "name": "newFeeAccount",
          "type": "address"
        }
      ],
      "name": "ChangeFeeAccount",
      "outputs": [
        {
          "internalType": "bool",
          "name": "",
          "type": "bool"
        }
      ],
      "stateMutability": "nonpayable",
      "type": "function"
    },
    {
      "inputs": [
        {
          "internalType": "uint256",
          "name": "newFeeAmount",
          "type": "uint256"
        }
      ],
      "name": "ChangeFeeAmount",
      "outputs": [
        {
          "internalType": "bool",
          "name": "",
          "type": "bool"
        }
      ],
      "stateMutability": "nonpayable",
      "type": "function"
    }
  ],
  "bytecode": "0x60806040526000600460006101000a81548173ffffffffffffffffffffffffffffffffffffffff021916908373ffffffffffffffffffffffffffffffffffffffff1602179055506000600560006101000a81548173ffffffffffffffffffffffffffffffffffffffff021916908373ffffffffffffffffffffffffffffffffffffffff1602179055507389f2a5463ef4e4176e57eef2b2fdd256bf4bc2bd600660006101000a81548173ffffffffffffffffffffffffffffffffffffffff021916908373ffffffffffffffffffffffffffffffffffffffff1602179055506064600755600660009054906101000a900473ffffffffffffffffffffffffffffffffffffffff1673ffffffffffffffffffffffffffffffffffffffff1663313ce5676040518163ffffffff1660e01b815260040160206040518083038186803b1580156200014b57600080fd5b505afa15801562000160573d6000803e3d6000fd5b505050506040513d60208110156200017757600080fd5b8101908080519060200190929190505050600860006101000a81548160ff021916908360ff160217905550620001ed6064620001d9600860009054906101000a900460ff1660ff16600a0a6007546200028660201b6200126a1790919060201c565b6200031160201b620012f51790919060201c565b600955348015620001fd57600080fd5b5033600460006101000a81548173ffffffffffffffffffffffffffffffffffffffff021916908373ffffffffffffffffffffffffffffffffffffffff16021790555033600560006101000a81548173ffffffffffffffffffffffffffffffffffffffff021916908373ffffffffffffffffffffffffffffffffffffffff1602179055506200039c565b6000808314156200029b57600090506200030b565b6000828402905082848281620002ad57fe5b041462000306576040517f08c379a0000000000000000000000000000000000000000000000000000000008152600401808060200182810382526021815260200180620058bb6021913960400191505060405180910390fd5b809150505b92915050565b600080821162000389576040517f08c379a000000000000000000000000000000000000000000000000000000000815260040180806020018281038252601a8152602001807f536166654d6174683a206469766973696f6e206279207a65726f00000000000081525060200191505060405180910390fd5b8183816200039357fe5b04905092915050565b61550f80620003ac6000396000f3fe60806040523480156200001157600080fd5b5060043610620000ac5760003560e01c80638ba63eea116200006f5780638ba63eea14620004af578063b2bdfa7b1462000586578063c548e76114620005bc578063edceefa31462000619578063ee9e756e146200064f57620000ac565b806338c92c9414620000b15780635322546d146200014f57806365e17c9d146200023a57806369e15404146200027057806389605c071462000290575b600080fd5b620000f660048036036020811015620000c957600080fd5b81019080803573ffffffffffffffffffffffffffffffffffffffff16906020019092919050505062000696565b6040518080602001828103825283818151815260200191508051906020019060200280838360005b838110156200013b5780820151818401526020810190506200011e565b505050509050019250505060405180910390f35b6200020e600480360360208110156200016757600080fd5b81019080803590602001906401000000008111156200018557600080fd5b8201836020820111156200019857600080fd5b80359060200191846001830284011164010000000083111715620001bb57600080fd5b91908080601f016020809104026020016040519081016040528093929190818152602001838380828437600081840152601f19601f82011690508083019250505050505050919291929050505062000765565b604051808273ffffffffffffffffffffffffffffffffffffffff16815260200191505060405180910390f35b62000244620007f9565b604051808273ffffffffffffffffffffffffffffffffffffffff16815260200191505060405180910390f35b6200027a6200081f565b6040518082815260200191505060405180910390f35b6200048360048036036060811015620002a857600080fd5b8101908080359060200190640100000000811115620002c657600080fd5b820183602082011115620002d957600080fd5b80359060200191846001830284011164010000000083111715620002fc57600080fd5b91908080601f016020809104026020016040519081016040528093929190818152602001838380828437600081840152601f19601f820116905080830192505050505050509192919290803590602001906401000000008111156200036057600080fd5b8201836020820111156200037357600080fd5b803590602001918460018302840111640100000000831117156200039657600080fd5b91908080601f016020809104026020016040519081016040528093929190818152602001838380828437600081840152601f19601f82011690508083019250505050505050919291929080359060200190640100000000811115620003fa57600080fd5b8201836020820111156200040d57600080fd5b803590602001918460018302840111640100000000831117156200043057600080fd5b91908080601f016020809104026020016040519081016040528093929190818152602001838380828437600081840152601f19601f82011690508083019250505050505050919291929050505062000825565b604051808273ffffffffffffffffffffffffffffffffffffffff16815260200191505060405180910390f35b6200056e60048036036020811015620004c757600080fd5b8101908080359060200190640100000000811115620004e557600080fd5b820183602082011115620004f857600080fd5b803590602001918460018302840111640100000000831117156200051b57600080fd5b91908080601f016020809104026020016040519081016040528093929190818152602001838380828437600081840152601f19601f82011690508083019250505050505050919291929050505062000fce565b60405180821515815260200191505060405180910390f35b6200059062001106565b604051808273ffffffffffffffffffffffffffffffffffffffff16815260200191505060405180910390f35b6200060160048036036020811015620005d457600080fd5b81019080803573ffffffffffffffffffffffffffffffffffffffff1690602001909291905050506200112c565b60405180821515815260200191505060405180910390f35b62000623620011d3565b604051808273ffffffffffffffffffffffffffffffffffffffff16815260200191505060405180910390f35b6200067e600480360360208110156200066757600080fd5b8101908080359060200190929190505050620011fd565b60405180821515815260200191505060405180910390f35b6060600160008373ffffffffffffffffffffffffffffffffffffffff1673ffffffffffffffffffffffffffffffffffffffff1681526020019081526020016000208054806020026020016040519081016040528092919081815260200182805480156200075957602002820191906000526020600020905b8160009054906101000a900473ffffffffffffffffffffffffffffffffffffffff1673ffffffffffffffffffffffffffffffffffffffff16815260200190600101908083116200070e575b50505050509050919050565b600080826040518082805190602001908083835b602083106200079e578051825260208201915060208101905060208303925062000779565b6001836020036101000a038019825116818451168082178552505050505050905001915050908152602001604051809103902060009054906101000a900473ffffffffffffffffffffffffffffffffffffffff169050919050565b600460009054906101000a900473ffffffffffffffffffffffffffffffffffffffff1681565b60095481565b60008073ffffffffffffffffffffffffffffffffffffffff163373ffffffffffffffffffffffffffffffffffffffff161415620008ca576040517f08c379a000000000000000000000000000000000000000000000000000000000815260040180806020018281038252600f8152602001807f496e76616c69642061646472657373000000000000000000000000000000000081525060200191505060405180910390fd5b60008451141562000943576040517f08c379a00000000000000000000000000000000000000000000000000000000081526004018080602001828103825260138152602001807f6e616d652063616e277420626520656d7074790000000000000000000000000081525060200191505060405180910390fd5b600083511415620009bc576040517f08c379a00000000000000000000000000000000000000000000000000000000081526004018080602001828103825260158152602001807f73796d626f6c2063616e277420626520656d707479000000000000000000000081525060200191505060405180910390fd5b620009c78362000fce565b50600660009054906101000a900473ffffffffffffffffffffffffffffffffffffffff1673ffffffffffffffffffffffffffffffffffffffff166323b872dd33600460009054906101000a900473ffffffffffffffffffffffffffffffffffffffff166009546040518463ffffffff1660e01b8152600401808473ffffffffffffffffffffffffffffffffffffffff1681526020018373ffffffffffffffffffffffffffffffffffffffff1681526020018281526020019350505050602060405180830381600087803b15801562000a9e57600080fd5b505af115801562000ab3573d6000803e3d6000fd5b505050506040513d602081101562000aca57600080fd5b81019080805190602001909291905050505060008484843360405162000af09062001380565b808060200180602001806020018573ffffffffffffffffffffffffffffffffffffffff168152602001848103845288818151815260200191508051906020019080838360005b8381101562000b5357808201518184015260208101905062000b36565b50505050905090810190601f16801562000b815780820380516001836020036101000a031916815260200191505b50848103835287818151815260200191508051906020019080838360005b8381101562000bbc57808201518184015260208101905062000b9f565b50505050905090810190601f16801562000bea5780820380516001836020036101000a031916815260200191505b50848103825286818151815260200191508051906020019080838360005b8381101562000c2557808201518184015260208101905062000c08565b50505050905090810190601f16801562000c535780820380516001836020036101000a031916815260200191505b50975050505050505050604051809103906000f08015801562000c7a573d6000803e3d6000fd5b509050806000856040518082805190602001908083835b6020831062000cb6578051825260208201915060208101905060208303925062000c91565b6001836020036101000a038019825116818451168082178552505050505050905001915050908152602001604051809103902060006101000a81548173ffffffffffffffffffffffffffffffffffffffff021916908373ffffffffffffffffffffffffffffffffffffffff16021790555080600260006101000a81548173ffffffffffffffffffffffffffffffffffffffff021916908373ffffffffffffffffffffffffffffffffffffffff160217905550600160003373ffffffffffffffffffffffffffffffffffffffff1673ffffffffffffffffffffffffffffffffffffffff168152602001908152602001600020819080600181540180825580915050600190039060005260206000200160009091909190916101000a81548173ffffffffffffffffffffffffffffffffffffffff021916908373ffffffffffffffffffffffffffffffffffffffff1602179055507f6279ba878a9280abb57b065285bf685ceb2236edc0b468d222c47a2be3b034df8585853385604051808060200180602001806020018673ffffffffffffffffffffffffffffffffffffffff1681526020018573ffffffffffffffffffffffffffffffffffffffff168152602001848103845289818151815260200191508051906020019080838360005b8381101562000eb057808201518184015260208101905062000e93565b50505050905090810190601f16801562000ede5780820380516001836020036101000a031916815260200191505b50848103835288818151815260200191508051906020019080838360005b8381101562000f1957808201518184015260208101905062000efc565b50505050905090810190601f16801562000f475780820380516001836020036101000a031916815260200191505b50848103825287818151815260200191508051906020019080838360005b8381101562000f8257808201518184015260208101905062000f65565b50505050905090810190601f16801562000fb05780820380516001836020036101000a031916815260200191505b509850505050505050505060405180910390a1809150509392505050565b60008073ffffffffffffffffffffffffffffffffffffffff166000836040518082805190602001908083835b602083106200101f578051825260208201915060208101905060208303925062000ffa565b6001836020036101000a038019825116818451168082178552505050505050905001915050908152602001604051809103902060009054906101000a900473ffffffffffffffffffffffffffffffffffffffff1673ffffffffffffffffffffffffffffffffffffffff1614620010fd576040517f08c379a00000000000000000000000000000000000000000000000000000000081526004018080602001828103825260138152602001807f73796d626f6c20616c726561647920757365640000000000000000000000000081525060200191505060405180910390fd5b60019050919050565b600560009054906101000a900473ffffffffffffffffffffffffffffffffffffffff1681565b6000600560009054906101000a900473ffffffffffffffffffffffffffffffffffffffff1673ffffffffffffffffffffffffffffffffffffffff163373ffffffffffffffffffffffffffffffffffffffff16146200118957600080fd5b81600460006101000a81548173ffffffffffffffffffffffffffffffffffffffff021916908373ffffffffffffffffffffffffffffffffffffffff16021790555060019050919050565b6000600260009054906101000a900473ffffffffffffffffffffffffffffffffffffffff16905090565b6000600560009054906101000a900473ffffffffffffffffffffffffffffffffffffffff1673ffffffffffffffffffffffffffffffffffffffff163373ffffffffffffffffffffffffffffffffffffffff16146200125a57600080fd5b8160078190555060019050919050565b6000808314156200127f5760009050620012ef565b60008284029050828482816200129157fe5b0414620012ea576040517f08c379a0000000000000000000000000000000000000000000000000000000008152600401808060200182810382526021815260200180620054b96021913960400191505060405180910390fd5b809150505b92915050565b60008082116200136d576040517f08c379a000000000000000000000000000000000000000000000000000000000815260040180806020018281038252601a8152602001807f536166654d6174683a206469766973696f6e206279207a65726f00000000000081525060200191505060405180910390fd5b8183816200137757fe5b04905092915050565b61412a806200138f8339019056fe60806040523480156200001157600080fd5b506040516200412a3803806200412a833981810160405260808110156200003757600080fd5b81019080805160405193929190846401000000008211156200005857600080fd5b838201915060208201858111156200006f57600080fd5b82518660018202830111640100000000821117156200008d57600080fd5b8083526020830192505050908051906020019080838360005b83811015620000c3578082015181840152602081019050620000a6565b50505050905090810190601f168015620000f15780820380516001836020036101000a031916815260200191505b50604052602001805160405193929190846401000000008211156200011557600080fd5b838201915060208201858111156200012c57600080fd5b82518660018202830111640100000000821117156200014a57600080fd5b8083526020830192505050908051906020019080838360005b838110156200018057808201518184015260208101905062000163565b50505050905090810190601f168015620001ae5780820380516001836020036101000a031916815260200191505b5060405260200180516040519392919084640100000000821115620001d257600080fd5b83820191506020820185811115620001e957600080fd5b82518660018202830111640100000000821117156200020757600080fd5b8083526020830192505050908051906020019080838360005b838110156200023d57808201518184015260208101905062000220565b50505050905090810190601f1680156200026b5780820380516001836020036101000a031916815260200191505b50604052602001805190602001909291905050508383620002996301ffc9a760e01b620003f160201b60201c565b8160069080519060200190620002b192919062000516565b508060079080519060200190620002ca92919062000516565b50620002e36380ac58cd60e01b620003f160201b60201c565b620002fb635b5e139f60e01b620003f160201b60201c565b6200031363780e9d6360e01b620003f160201b60201c565b505083600a90805190602001906200032d92919062000516565b5082600b90805190602001906200034692919062000516565b5081600c90805190602001906200035f92919062000516565b5080600d60006101000a81548173ffffffffffffffffffffffffffffffffffffffff021916908373ffffffffffffffffffffffffffffffffffffffff160217905550620003e76040518060400160405280601581526020017f68747470733a2f2f697066732e696f2f697066732f0000000000000000000000815250620004fa60201b60201c565b50505050620005cc565b63ffffffff60e01b817bffffffffffffffffffffffffffffffffffffffffffffffffffffffff191614156200048e576040517f08c379a000000000000000000000000000000000000000000000000000000000815260040180806020018281038252601c8152602001807f4552433136353a20696e76616c696420696e746572666163652069640000000081525060200191505060405180910390fd5b6001600080837bffffffffffffffffffffffffffffffffffffffffffffffffffffffff19167bffffffffffffffffffffffffffffffffffffffffffffffffffffffff1916815260200190815260200160002060006101000a81548160ff02191690831515021790555050565b80600990805190602001906200051292919062000516565b5050565b828054600181600116156101000203166002900490600052602060002090601f0160209004810192826200054e57600085556200059a565b82601f106200056957805160ff19168380011785556200059a565b828001600101855582156200059a579182015b82811115620005995782518255916020019190600101906200057c565b5b509050620005a99190620005ad565b5090565b5b80821115620005c8576000816000905550600101620005ae565b5090565b613b4e80620005dc6000396000f3fe608060405234801561001057600080fd5b50600436106101c45760003560e01c80636c0360eb116100f9578063a22cb46511610097578063cc41103a11610071578063cc41103a14610c93578063d85d3d2714610d16578063e69c20cf14610de7578063e985e9c514610eac576101c4565b8063a22cb46514610a97578063b88d4fde14610ae7578063c87b56dd14610bec576101c4565b8063817b66ee116100d3578063817b66ee1461086f5780638462151c146108a357806395d89b411461093c57806399bb8134146109bf576101c4565b80636c0360eb1461071157806370a08231146107945780637b31a4d8146107ec576101c4565b806329360ff11161016657806342966c681161014057806342966c68146105785780634f6ccce7146105bc5780636352211e146105fe5780636bff2c2414610656576101c4565b806329360ff1146104255780632f745c59146104a857806342842e0e1461050a576101c4565b8063081812fc116101a2578063081812fc146102f3578063095ea7b31461034b57806318160ddd1461039957806323b872dd146103b7576101c4565b806301ffc9a7146101c95780630621472c1461022c57806306fdde0314610270575b600080fd5b610214600480360360208110156101df57600080fd5b8101908080357bffffffffffffffffffffffffffffffffffffffffffffffffffffffff19169060200190929190505050610f26565b60405180821515815260200191505060405180910390f35b61026e6004803603602081101561024257600080fd5b81019080803573ffffffffffffffffffffffffffffffffffffffff169060200190929190505050610f8d565b005b610278610fd5565b6040518080602001828103825283818151815260200191508051906020019080838360005b838110156102b857808201518184015260208101905061029d565b50505050905090810190601f1680156102e55780820380516001836020036101000a031916815260200191505b509250505060405180910390f35b61031f6004803603602081101561030957600080fd5b8101908080359060200190929190505050611077565b604051808273ffffffffffffffffffffffffffffffffffffffff16815260200191505060405180910390f35b6103976004803603604081101561036157600080fd5b81019080803573ffffffffffffffffffffffffffffffffffffffff16906020019092919080359060200190929190505050611112565b005b6103a1611256565b6040518082815260200191505060405180910390f35b610423600480360360608110156103cd57600080fd5b81019080803573ffffffffffffffffffffffffffffffffffffffff169060200190929190803573ffffffffffffffffffffffffffffffffffffffff16906020019092919080359060200190929190505050611267565b005b61042d6112dd565b6040518080602001828103825283818151815260200191508051906020019080838360005b8381101561046d578082015181840152602081019050610452565b50505050905090810190601f16801561049a5780820380516001836020036101000a031916815260200191505b509250505060405180910390f35b6104f4600480360360408110156104be57600080fd5b81019080803573ffffffffffffffffffffffffffffffffffffffff1690602001909291908035906020019092919050505061137b565b6040518082815260200191505060405180910390f35b6105766004803603606081101561052057600080fd5b81019080803573ffffffffffffffffffffffffffffffffffffffff169060200190929190803573ffffffffffffffffffffffffffffffffffffffff169060200190929190803590602001909291905050506113d6565b005b6105a46004803603602081101561058e57600080fd5b81019080803590602001909291905050506113f6565b60405180821515815260200191505060405180910390f35b6105e8600480360360208110156105d257600080fd5b810190808035906020019092919050505061148d565b6040518082815260200191505060405180910390f35b61062a6004803603602081101561061457600080fd5b81019080803590602001909291905050506114b0565b604051808273ffffffffffffffffffffffffffffffffffffffff16815260200191505060405180910390f35b61070f6004803603602081101561066c57600080fd5b810190808035906020019064010000000081111561068957600080fd5b82018360208201111561069b57600080fd5b803590602001918460018302840111640100000000831117156106bd57600080fd5b91908080601f016020809104026020016040519081016040528093929190818152602001838380828437600081840152601f19601f8201169050808301925050505050505091929192905050506114e7565b005b61071961154d565b6040518080602001828103825283818151815260200191508051906020019080838360005b8381101561075957808201518184015260208101905061073e565b50505050905090810190601f1680156107865780820380516001836020036101000a031916815260200191505b509250505060405180910390f35b6107d6600480360360208110156107aa57600080fd5b81019080803573ffffffffffffffffffffffffffffffffffffffff1690602001909291905050506115ef565b6040518082815260200191505060405180910390f35b6107f46116c4565b6040518080602001828103825283818151815260200191508051906020019080838360005b83811015610834578082015181840152602081019050610819565b50505050905090810190601f1680156108615780820380516001836020036101000a031916815260200191505b509250505060405180910390f35b610877611762565b604051808273ffffffffffffffffffffffffffffffffffffffff16815260200191505060405180910390f35b6108e5600480360360208110156108b957600080fd5b81019080803573ffffffffffffffffffffffffffffffffffffffff169060200190929190505050611788565b6040518080602001828103825283818151815260200191508051906020019060200280838360005b8381101561092857808201518184015260208101905061090d565b505050509050019250505060405180910390f35b6109446118ca565b6040518080602001828103825283818151815260200191508051906020019080838360005b83811015610984578082015181840152602081019050610969565b50505050905090810190601f1680156109b15780820380516001836020036101000a031916815260200191505b509250505060405180910390f35b610a95600480360360408110156109d557600080fd5b81019080803573ffffffffffffffffffffffffffffffffffffffff16906020019092919080359060200190640100000000811115610a1257600080fd5b820183602082011115610a2457600080fd5b80359060200191846020830284011164010000000083111715610a4657600080fd5b919080806020026020016040519081016040528093929190818152602001838360200280828437600081840152601f19601f82011690508083019250505050505050919291929050505061196c565b005b610ae560048036036040811015610aad57600080fd5b81019080803573ffffffffffffffffffffffffffffffffffffffff1690602001909291908035151590602001909291905050506119a7565b005b610bea60048036036080811015610afd57600080fd5b81019080803573ffffffffffffffffffffffffffffffffffffffff169060200190929190803573ffffffffffffffffffffffffffffffffffffffff1690602001909291908035906020019092919080359060200190640100000000811115610b6457600080fd5b820183602082011115610b7657600080fd5b80359060200191846001830284011164010000000083111715610b9857600080fd5b91908080601f016020809104026020016040519081016040528093929190818152602001838380828437600081840152601f19601f820116905080830192505050505050509192919290505050611b5d565b005b610c1860048036036020811015610c0257600080fd5b8101908080359060200190929190505050611bd5565b6040518080602001828103825283818151815260200191508051906020019080838360005b83811015610c58578082015181840152602081019050610c3d565b50505050905090810190601f168015610c855780820380516001836020036101000a031916815260200191505b509250505060405180910390f35b610c9b611ea6565b6040518080602001828103825283818151815260200191508051906020019080838360005b83811015610cdb578082015181840152602081019050610cc0565b50505050905090810190601f168015610d085780820380516001836020036101000a031916815260200191505b509250505060405180910390f35b610dcf60048036036020811015610d2c57600080fd5b8101908080359060200190640100000000811115610d4957600080fd5b820183602082011115610d5b57600080fd5b80359060200191846001830284011164010000000083111715610d7d57600080fd5b91908080601f016020809104026020016040519081016040528093929190818152602001838380828437600081840152601f19601f820116905080830192505050505050509192919290505050611f44565b60405180821515815260200191505060405180910390f35b610eaa60048036036040811015610dfd57600080fd5b810190808035906020019092919080359060200190640100000000811115610e2457600080fd5b820183602082011115610e3657600080fd5b80359060200191846001830284011164010000000083111715610e5857600080fd5b91908080601f016020809104026020016040519081016040528093929190818152602001838380828437600081840152601f19601f820116905080830192505050505050509192919290505050612081565b005b610f0e60048036036040811015610ec257600080fd5b81019080803573ffffffffffffffffffffffffffffffffffffffff169060200190929190803573ffffffffffffffffffffffffffffffffffffffff16906020019092919050505061213f565b60405180821515815260200191505060405180910390f35b6000806000837bffffffffffffffffffffffffffffffffffffffffffffffffffffffff19167bffffffffffffffffffffffffffffffffffffffffffffffffffffffff1916815260200190815260200160002060009054906101000a900460ff169050919050565b6060610f9833611788565b905060005b8151811015610fd057610fc383838381518110610fb657fe5b6020026020010151611112565b8080600101915050610f9d565b505050565b606060068054600181600116156101000203166002900480601f01602080910402602001604051908101604052809291908181526020018280546001816001161561010002031660029004801561106d5780601f106110425761010080835404028352916020019161106d565b820191906000526020600020905b81548152906001019060200180831161105057829003601f168201915b5050505050905090565b6000611082826121d3565b6110d7576040517f08c379a000000000000000000000000000000000000000000000000000000000815260040180806020018281038252602c815260200180613a17602c913960400191505060405180910390fd5b6004600083815260200190815260200160002060009054906101000a900473ffffffffffffffffffffffffffffffffffffffff169050919050565b600061111d826114b0565b90508073ffffffffffffffffffffffffffffffffffffffff168373ffffffffffffffffffffffffffffffffffffffff1614156111a4576040517f08c379a0000000000000000000000000000000000000000000000000000000008152600401808060200182810382526021815260200180613ac76021913960400191505060405180910390fd5b8073ffffffffffffffffffffffffffffffffffffffff166111c36121f0565b73ffffffffffffffffffffffffffffffffffffffff1614806111f257506111f1816111ec6121f0565b61213f565b5b611247576040517f08c379a000000000000000000000000000000000000000000000000000000000815260040180806020018281038252603881526020018061396a6038913960400191505060405180910390fd5b61125183836121f8565b505050565b600061126260026122b1565b905090565b6112786112726121f0565b826122c6565b6112cd576040517f08c379a0000000000000000000000000000000000000000000000000000000008152600401808060200182810382526031815260200180613ae86031913960400191505060405180910390fd5b6112d88383836123ba565b505050565b600a8054600181600116156101000203166002900480601f0160208091040260200160405190810160405280929190818152602001828054600181600116156101000203166002900480156113735780601f1061134857610100808354040283529160200191611373565b820191906000526020600020905b81548152906001019060200180831161135657829003601f168201915b505050505081565b60006113ce82600160008673ffffffffffffffffffffffffffffffffffffffff1673ffffffffffffffffffffffffffffffffffffffff1681526020019081526020016000206125fd90919063ffffffff16565b905092915050565b6113f183838360405180602001604052806000815250611b5d565b505050565b60006114096114036121f0565b836122c6565b61147b576040517f08c379a00000000000000000000000000000000000000000000000000000000081526004018080602001828103825260208152602001807f63616c6c6572206973206e6f74206f776e6572206e6f7220617070726f76656481525060200191505060405180910390fd5b61148482612617565b60019050919050565b6000806114a483600261275190919063ffffffff16565b50905080915050919050565b60006114e0826040518060600160405280602981526020016139cc60299139600261277d9092919063ffffffff16565b9050919050565b600d60009054906101000a900473ffffffffffffffffffffffffffffffffffffffff1673ffffffffffffffffffffffffffffffffffffffff163373ffffffffffffffffffffffffffffffffffffffff161461154157600080fd5b61154a8161279c565b50565b606060098054600181600116156101000203166002900480601f0160208091040260200160405190810160405280929190818152602001828054600181600116156101000203166002900480156115e55780601f106115ba576101008083540402835291602001916115e5565b820191906000526020600020905b8154815290600101906020018083116115c857829003601f168201915b5050505050905090565b60008073ffffffffffffffffffffffffffffffffffffffff168273ffffffffffffffffffffffffffffffffffffffff161415611676576040517f08c379a000000000000000000000000000000000000000000000000000000000815260040180806020018281038252602a8152602001806139a2602a913960400191505060405180910390fd5b6116bd600160008473ffffffffffffffffffffffffffffffffffffffff1673ffffffffffffffffffffffffffffffffffffffff1681526020019081526020016000206127b6565b9050919050565b600c8054600181600116156101000203166002900480601f01602080910402602001604051908101604052809291908181526020018280546001816001161561010002031660029004801561175a5780601f1061172f5761010080835404028352916020019161175a565b820191906000526020600020905b81548152906001019060200180831161173d57829003601f168201915b505050505081565b600d60009054906101000a900473ffffffffffffffffffffffffffffffffffffffff1681565b6060600073ffffffffffffffffffffffffffffffffffffffff168273ffffffffffffffffffffffffffffffffffffffff16141561182d576040517f08c379a000000000000000000000000000000000000000000000000000000000815260040180806020018281038252600d8152602001807f696e76616c6964206f776e65720000000000000000000000000000000000000081525060200191505060405180910390fd5b6000611838836115ef565b905060608167ffffffffffffffff8111801561185357600080fd5b506040519080825280602002602001820160405280156118825781602001602082028036833780820191505090505b50905060005b828110156118bf5761189a858261137b565b8282815181106118a657fe5b6020026020010181815250508080600101915050611888565b508092505050919050565b606060078054600181600116156101000203166002900480601f0160208091040260200160405190810160405280929190818152602001828054600181600116156101000203166002900480156119625780601f1061193757610100808354040283529160200191611962565b820191906000526020600020905b81548152906001019060200180831161194557829003601f168201915b5050505050905090565b60005b81518110156119a2576119958383838151811061198857fe5b6020026020010151611112565b808060010191505061196f565b505050565b6119af6121f0565b73ffffffffffffffffffffffffffffffffffffffff168273ffffffffffffffffffffffffffffffffffffffff161415611a50576040517f08c379a00000000000000000000000000000000000000000000000000000000081526004018080602001828103825260198152602001807f4552433732313a20617070726f766520746f2063616c6c65720000000000000081525060200191505060405180910390fd5b8060056000611a5d6121f0565b73ffffffffffffffffffffffffffffffffffffffff1673ffffffffffffffffffffffffffffffffffffffff16815260200190815260200160002060008473ffffffffffffffffffffffffffffffffffffffff1673ffffffffffffffffffffffffffffffffffffffff16815260200190815260200160002060006101000a81548160ff0219169083151502179055508173ffffffffffffffffffffffffffffffffffffffff16611b0a6121f0565b73ffffffffffffffffffffffffffffffffffffffff167f17307eab39ab6107e8899845ad3d59bd9653f200f220920489ca2b5937696c318360405180821515815260200191505060405180910390a35050565b611b6e611b686121f0565b836122c6565b611bc3576040517f08c379a0000000000000000000000000000000000000000000000000000000008152600401808060200182810382526031815260200180613ae86031913960400191505060405180910390fd5b611bcf848484846127cb565b50505050565b6060611be0826121d3565b611c35576040517f08c379a000000000000000000000000000000000000000000000000000000000815260040180806020018281038252602f815260200180613a98602f913960400191505060405180910390fd5b6060600860008481526020019081526020016000208054600181600116156101000203166002900480601f016020809104026020016040519081016040528092919081815260200182805460018160011615610100020316600290048015611cde5780601f10611cb357610100808354040283529160200191611cde565b820191906000526020600020905b815481529060010190602001808311611cc157829003601f168201915b505050505090506060611cef61154d565b9050600081511415611d05578192505050611ea1565b600082511115611dd65780826040516020018083805190602001908083835b60208310611d475780518252602082019150602081019050602083039250611d24565b6001836020036101000a03801982511681845116808217855250505050505090500182805190602001908083835b60208310611d985780518252602082019150602081019050602083039250611d75565b6001836020036101000a0380198251168184511680821785525050505050509050019250505060405160208183030381529060405292505050611ea1565b80611de08561283d565b6040516020018083805190602001908083835b60208310611e165780518252602082019150602081019050602083039250611df3565b6001836020036101000a03801982511681845116808217855250505050505090500182805190602001908083835b60208310611e675780518252602082019150602081019050602083039250611e44565b6001836020036101000a03801982511681845116808217855250505050505090500192505050604051602081830303815290604052925050505b919050565b600b8054600181600116156101000203166002900480601f016020809104026020016040519081016040528092919081815260200182805460018160011615610100020316600290048015611f3c5780601f10611f1157610100808354040283529160200191611f3c565b820191906000526020600020905b815481529060010190602001808311611f1f57829003601f168201915b505050505081565b6000600d60009054906101000a900473ffffffffffffffffffffffffffffffffffffffff1673ffffffffffffffffffffffffffffffffffffffff163373ffffffffffffffffffffffffffffffffffffffff1614611fa057600080fd5b6000611fbd6001611faf611256565b61298490919063ffffffff16565b9050611fc93382612a0c565b611fd38184612c00565b7f0a4e1e5035320483d096cf114513007c4eda3853a4dca806da2d9faec60470a683826040518080602001838152602001828103825284818151815260200191508051906020019080838360005b8381101561203c578082015181840152602081019050612021565b50505050905090810190601f1680156120695780820380516001836020036101000a031916815260200191505b50935050505060405180910390a16001915050919050565b61208a826114b0565b73ffffffffffffffffffffffffffffffffffffffff166120a86121f0565b73ffffffffffffffffffffffffffffffffffffffff1614612131576040517f08c379a00000000000000000000000000000000000000000000000000000000081526004018080602001828103825260138152602001807f696e76616c696420746f6b656e206f776e65720000000000000000000000000081525060200191505060405180910390fd5b61213b8282612c00565b5050565b6000600560008473ffffffffffffffffffffffffffffffffffffffff1673ffffffffffffffffffffffffffffffffffffffff16815260200190815260200160002060008373ffffffffffffffffffffffffffffffffffffffff1673ffffffffffffffffffffffffffffffffffffffff16815260200190815260200160002060009054906101000a900460ff16905092915050565b60006121e9826002612c8a90919063ffffffff16565b9050919050565b600033905090565b816004600083815260200190815260200160002060006101000a81548173ffffffffffffffffffffffffffffffffffffffff021916908373ffffffffffffffffffffffffffffffffffffffff160217905550808273ffffffffffffffffffffffffffffffffffffffff1661226b836114b0565b73ffffffffffffffffffffffffffffffffffffffff167f8c5be1e5ebec7d5bd14f71427d1e84f3dd0314c0f7b2291e5b200ac8c7c3b92560405160405180910390a45050565b60006122bf82600001612ca4565b9050919050565b60006122d1826121d3565b612326576040517f08c379a000000000000000000000000000000000000000000000000000000000815260040180806020018281038252602c81526020018061393e602c913960400191505060405180910390fd5b6000612331836114b0565b90508073ffffffffffffffffffffffffffffffffffffffff168473ffffffffffffffffffffffffffffffffffffffff1614806123a057508373ffffffffffffffffffffffffffffffffffffffff1661238884611077565b73ffffffffffffffffffffffffffffffffffffffff16145b806123b157506123b0818561213f565b5b91505092915050565b8273ffffffffffffffffffffffffffffffffffffffff166123da826114b0565b73ffffffffffffffffffffffffffffffffffffffff1614612446576040517f08c379a0000000000000000000000000000000000000000000000000000000008152600401808060200182810382526029815260200180613a6f6029913960400191505060405180910390fd5b600073ffffffffffffffffffffffffffffffffffffffff168273ffffffffffffffffffffffffffffffffffffffff1614156124cc576040517f08c379a00000000000000000000000000000000000000000000000000000000081526004018080602001828103825260248152602001806138f46024913960400191505060405180910390fd5b6124d7838383612cb5565b6124e26000826121f8565b61253381600160008673ffffffffffffffffffffffffffffffffffffffff1673ffffffffffffffffffffffffffffffffffffffff168152602001908152602001600020612cba90919063ffffffff16565b5061258581600160008573ffffffffffffffffffffffffffffffffffffffff1673ffffffffffffffffffffffffffffffffffffffff168152602001908152602001600020612cd490919063ffffffff16565b5061259c81836002612cee9092919063ffffffff16565b50808273ffffffffffffffffffffffffffffffffffffffff168473ffffffffffffffffffffffffffffffffffffffff167fddf252ad1be2c89b69c2b068fc378daa952ba7f163c4a11628f55a4df523b3ef60405160405180910390a4505050565b600061260c8360000183612d23565b60001c905092915050565b6000612622826114b0565b905061263081600084612cb5565b61263b6000836121f8565b6000600860008481526020019081526020016000208054600181600116156101000203166002900490501461268a5760086000838152602001908152602001600020600061268991906137ac565b5b6126db82600160008473ffffffffffffffffffffffffffffffffffffffff1673ffffffffffffffffffffffffffffffffffffffff168152602001908152602001600020612cba90919063ffffffff16565b506126f0826002612da690919063ffffffff16565b5081600073ffffffffffffffffffffffffffffffffffffffff168273ffffffffffffffffffffffffffffffffffffffff167fddf252ad1be2c89b69c2b068fc378daa952ba7f163c4a11628f55a4df523b3ef60405160405180910390a45050565b6000806000806127648660000186612dc0565b915091508160001c8160001c9350935050509250929050565b6000612790846000018460001b84612e59565b60001c90509392505050565b80600990805190602001906127b29291906137f4565b5050565b60006127c482600001612f4f565b9050919050565b6127d68484846123ba565b6127e284848484612f60565b612837576040517f08c379a00000000000000000000000000000000000000000000000000000000081526004018080602001828103825260328152602001806138c26032913960400191505060405180910390fd5b50505050565b60606000821415612885576040518060400160405280600181526020017f3000000000000000000000000000000000000000000000000000000000000000815250905061297f565b600082905060005b600082146128af578080600101915050600a82816128a757fe5b04915061288d565b60608167ffffffffffffffff811180156128c857600080fd5b506040519080825280601f01601f1916602001820160405280156128fb5781602001600182028036833780820191505090505b50905060006001830390508593505b6000841461297757600a848161291c57fe5b0660300160f81b8282806001900393508151811061293657fe5b60200101907effffffffffffffffffffffffffffffffffffffffffffffffffffffffffffff1916908160001a905350600a848161296f57fe5b04935061290a565b819450505050505b919050565b600080828401905083811015612a02576040517f08c379a000000000000000000000000000000000000000000000000000000000815260040180806020018281038252601b8152602001807f536166654d6174683a206164646974696f6e206f766572666c6f77000000000081525060200191505060405180910390fd5b8091505092915050565b600073ffffffffffffffffffffffffffffffffffffffff168273ffffffffffffffffffffffffffffffffffffffff161415612aaf576040517f08c379a00000000000000000000000000000000000000000000000000000000081526004018080602001828103825260208152602001807f4552433732313a206d696e7420746f20746865207a65726f206164647265737381525060200191505060405180910390fd5b612ab8816121d3565b15612b2b576040517f08c379a000000000000000000000000000000000000000000000000000000000815260040180806020018281038252601c8152602001807f4552433732313a20746f6b656e20616c7265616479206d696e7465640000000081525060200191505060405180910390fd5b612b3760008383612cb5565b612b8881600160008573ffffffffffffffffffffffffffffffffffffffff1673ffffffffffffffffffffffffffffffffffffffff168152602001908152602001600020612cd490919063ffffffff16565b50612b9f81836002612cee9092919063ffffffff16565b50808273ffffffffffffffffffffffffffffffffffffffff16600073ffffffffffffffffffffffffffffffffffffffff167fddf252ad1be2c89b69c2b068fc378daa952ba7f163c4a11628f55a4df523b3ef60405160405180910390a45050565b612c09826121d3565b612c5e576040517f08c379a000000000000000000000000000000000000000000000000000000000815260040180806020018281038252602c815260200180613a43602c913960400191505060405180910390fd5b80600860008481526020019081526020016000209080519060200190612c859291906137f4565b505050565b6000612c9c836000018360001b613179565b905092915050565b600081600001805490509050919050565b505050565b6000612ccc836000018360001b61319c565b905092915050565b6000612ce6836000018360001b613284565b905092915050565b6000612d1a846000018460001b8473ffffffffffffffffffffffffffffffffffffffff1660001b6132f4565b90509392505050565b600081836000018054905011612d84576040517f08c379a00000000000000000000000000000000000000000000000000000000081526004018080602001828103825260228152602001806138a06022913960400191505060405180910390fd5b826000018281548110612d9357fe5b9060005260206000200154905092915050565b6000612db8836000018360001b6133d0565b905092915050565b60008082846000018054905011612e22576040517f08c379a00000000000000000000000000000000000000000000000000000000081526004018080602001828103825260228152602001806139f56022913960400191505060405180910390fd5b6000846000018481548110612e3357fe5b906000526020600020906002020190508060000154816001015492509250509250929050565b60008084600101600085815260200190815260200160002054905060008114158390612f20576040517f08c379a00000000000000000000000000000000000000000000000000000000081526004018080602001828103825283818151815260200191508051906020019080838360005b83811015612ee5578082015181840152602081019050612eca565b50505050905090810190601f168015612f125780820380516001836020036101000a031916815260200191505b509250505060405180910390fd5b50846000016001820381548110612f3357fe5b9060005260206000209060020201600101549150509392505050565b600081600001805490509050919050565b6000612f818473ffffffffffffffffffffffffffffffffffffffff166134e9565b612f8e5760019050613171565b60606130f863150b7a0260e01b612fa36121f0565b888787604051602401808573ffffffffffffffffffffffffffffffffffffffff1681526020018473ffffffffffffffffffffffffffffffffffffffff16815260200183815260200180602001828103825283818151815260200191508051906020019080838360005b8381101561302757808201518184015260208101905061300c565b50505050905090810190601f1680156130545780820380516001836020036101000a031916815260200191505b5095505050505050604051602081830303815290604052907bffffffffffffffffffffffffffffffffffffffffffffffffffffffff19166020820180517bffffffffffffffffffffffffffffffffffffffffffffffffffffffff83818316178352505050506040518060600160405280603281526020016138c2603291398773ffffffffffffffffffffffffffffffffffffffff166134fc9092919063ffffffff16565b9050600081806020019051602081101561311157600080fd5b8101908080519060200190929190505050905063150b7a0260e01b7bffffffffffffffffffffffffffffffffffffffffffffffffffffffff1916817bffffffffffffffffffffffffffffffffffffffffffffffffffffffff191614925050505b949350505050565b600080836001016000848152602001908152602001600020541415905092915050565b6000808360010160008481526020019081526020016000205490506000811461327857600060018203905060006001866000018054905003905060008660000182815481106131e757fe5b906000526020600020015490508087600001848154811061320457fe5b906000526020600020018190555060018301876001016000838152602001908152602001600020819055508660000180548061323c57fe5b6001900381819060005260206000200160009055905586600101600087815260200190815260200160002060009055600194505050505061327e565b60009150505b92915050565b60006132908383613514565b6132e95782600001829080600181540180825580915050600190039060005260206000200160009091909190915055826000018054905083600101600084815260200190815260200160002081905550600190506132ee565b600090505b92915050565b600080846001016000858152602001908152602001600020549050600081141561339b578460000160405180604001604052808681526020018581525090806001815401808255809150506001900390600052602060002090600202016000909190919091506000820151816000015560208201518160010155505084600001805490508560010160008681526020019081526020016000208190555060019150506133c9565b828560000160018303815481106133ae57fe5b90600052602060002090600202016001018190555060009150505b9392505050565b600080836001016000848152602001908152602001600020549050600081146134dd576000600182039050600060018660000180549050039050600086600001828154811061341b57fe5b906000526020600020906002020190508087600001848154811061343b57fe5b906000526020600020906002020160008201548160000155600182015481600101559050506001830187600101600083600001548152602001908152602001600020819055508660000180548061348e57fe5b60019003818190600052602060002090600202016000808201600090556001820160009055505090558660010160008781526020019081526020016000206000905560019450505050506134e3565b60009150505b92915050565b600080823b905060008111915050919050565b606061350b8484600085613537565b90509392505050565b600080836001016000848152602001908152602001600020541415905092915050565b606082471015613592576040517f08c379a00000000000000000000000000000000000000000000000000000000081526004018080602001828103825260268152602001806139186026913960400191505060405180910390fd5b61359b856134e9565b61360d576040517f08c379a000000000000000000000000000000000000000000000000000000000815260040180806020018281038252601d8152602001807f416464726573733a2063616c6c20746f206e6f6e2d636f6e747261637400000081525060200191505060405180910390fd5b600060608673ffffffffffffffffffffffffffffffffffffffff1685876040518082805190602001908083835b6020831061365d578051825260208201915060208101905060208303925061363a565b6001836020036101000a03801982511681845116808217855250505050505090500191505060006040518083038185875af1925050503d80600081146136bf576040519150601f19603f3d011682016040523d82523d6000602084013e6136c4565b606091505b50915091506136d48282866136e0565b92505050949350505050565b606083156136f0578290506137a5565b6000835111156137035782518084602001fd5b816040517f08c379a00000000000000000000000000000000000000000000000000000000081526004018080602001828103825283818151815260200191508051906020019080838360005b8381101561376a57808201518184015260208101905061374f565b50505050905090810190601f1680156137975780820380516001836020036101000a031916815260200191505b509250505060405180910390fd5b9392505050565b50805460018160011615610100020316600290046000825580601f106137d257506137f1565b601f0160209004906000526020600020908101906137f09190613882565b5b50565b828054600181600116156101000203166002900490600052602060002090601f01602090048101928261382a5760008555613871565b82601f1061384357805160ff1916838001178555613871565b82800160010185558215613871579182015b82811115613870578251825591602001919060010190613855565b5b50905061387e9190613882565b5090565b5b8082111561389b576000816000905550600101613883565b509056fe456e756d657261626c655365743a20696e646578206f7574206f6620626f756e64734552433732313a207472616e7366657220746f206e6f6e20455243373231526563656976657220696d706c656d656e7465724552433732313a207472616e7366657220746f20746865207a65726f2061646472657373416464726573733a20696e73756666696369656e742062616c616e636520666f722063616c6c4552433732313a206f70657261746f7220717565727920666f72206e6f6e6578697374656e7420746f6b656e4552433732313a20617070726f76652063616c6c6572206973206e6f74206f776e6572206e6f7220617070726f76656420666f7220616c6c4552433732313a2062616c616e636520717565727920666f7220746865207a65726f20616464726573734552433732313a206f776e657220717565727920666f72206e6f6e6578697374656e7420746f6b656e456e756d657261626c654d61703a20696e646578206f7574206f6620626f756e64734552433732313a20617070726f76656420717565727920666f72206e6f6e6578697374656e7420746f6b656e4552433732314d657461646174613a2055524920736574206f66206e6f6e6578697374656e7420746f6b656e4552433732313a207472616e73666572206f6620746f6b656e2074686174206973206e6f74206f776e4552433732314d657461646174613a2055524920717565727920666f72206e6f6e6578697374656e7420746f6b656e4552433732313a20617070726f76616c20746f2063757272656e74206f776e65724552433732313a207472616e736665722063616c6c6572206973206e6f74206f776e6572206e6f7220617070726f766564a2646970667358221220d8e4795ee5e99f2657f81e3fab444332db6f5454fc1a50f9f90255089cfe5d7864736f6c63430007040033536166654d6174683a206d756c7469706c69636174696f6e206f766572666c6f77a2646970667358221220ec0913395eb65bf03ac0aa600296c5c642540b977737455a4d441457a2e5994764736f6c63430007040033536166654d6174683a206d756c7469706c69636174696f6e206f766572666c6f77",
  "immutableReferences": {},
  "source": "// SPDX-License-Identifier: MIT\r\npragma solidity >=0.4.22 <0.8.4;\r\nimport \"@openzeppelin/contracts/token/ERC20/ERC20.sol\";\r\nimport \"./ArtFactory.sol\";\r\n\r\ncontract ArtGallery {\r\n    using SafeMath for uint256;\r\n    // mapping to save the symbol to Gallery Address\r\n    mapping(string => address) symbolToGalleryAddress;\r\n    //mapping to save all the gallery addresses of an owner\r\n    mapping(address => address[]) userToGalleries;\r\n\r\n    address lastaddress;\r\n    string lastUri;\r\n    address public feeAccount = address(0x0000000000000000000000);\r\n    address public _owner = address(0x0000000000000000000000);\r\n\r\n    // ERC20 cifiTokenContract = ERC20(0xe56aB536c90E5A8f06524EA639bE9cB3589B8146);\r\n    ERC20 cifiTokenContract = ERC20(0x89F2a5463eF4e4176E57EEf2b2fDD256Bf4bC2bD);\r\n\r\n    uint256 FEE = 100;\r\n    uint8 cifiDecimals = cifiTokenContract.decimals();\r\n    uint256 public feeAmount = FEE.mul(10**cifiDecimals).div(100);\r\n\r\n    event GalleryCreated(\r\n        string name,\r\n        string symbol,\r\n        string description,\r\n        address caller,\r\n        address galleryAddress\r\n    );\r\n\r\n    constructor() {\r\n        feeAccount = msg.sender;\r\n        _owner = msg.sender;\r\n    }\r\n\r\n    function createGallery(\r\n        string memory name,\r\n        string memory symbol,\r\n        string memory description\r\n    ) public returns (address) {\r\n        require(msg.sender != address(0), \"Invalid address\");\r\n        require(bytes(name).length != 0, \"name can't be empty\");\r\n        require(bytes(symbol).length != 0, \"symbol can't be empty\");\r\n        uniqueSymbol(symbol);\r\n        cifiTokenContract.transferFrom(msg.sender, feeAccount, feeAmount);\r\n        ArtFactory gallery =\r\n            new ArtFactory(name, symbol, description, msg.sender);\r\n\r\n        // adding the gallery address to the symbolToGalleryAddress\r\n        symbolToGalleryAddress[symbol] = address(gallery);\r\n\r\n        // saving the last gallery address\r\n        lastaddress = address(gallery);\r\n\r\n        // adding the gallery address to the uriToGalleryAddress\r\n\r\n        // adding the address to address array for userToGalleries\r\n        userToGalleries[msg.sender].push(address(gallery));\r\n\r\n        emit GalleryCreated(\r\n            name,\r\n            symbol,\r\n            description,\r\n            msg.sender,\r\n            address(gallery)\r\n        );\r\n\r\n        return address(gallery);\r\n    }\r\n\r\n    function uniqueSymbol(string memory symbol) public view returns (bool) {\r\n        require(\r\n            symbolToGalleryAddress[symbol] == address(0),\r\n            \"symbol already used\"\r\n        );\r\n        return true;\r\n    }\r\n\r\n    function getlastAddress() public view returns (address) {\r\n        return lastaddress;\r\n    }\r\n\r\n    function getGalleries(address _user)\r\n        public\r\n        view\r\n        returns (address[] memory)\r\n    {\r\n        return userToGalleries[_user];\r\n    }\r\n\r\n    function getGallery(string memory _symbol) public view returns (address) {\r\n        return symbolToGalleryAddress[_symbol];\r\n    }\r\n\r\n    /**\r\n     * this function allows you to change the address that is going to receive the fee amount\r\n     */\r\n    function ChangeFeeAccount(address newFeeAccount) public returns (bool) {\r\n        require(msg.sender == _owner);\r\n        feeAccount = newFeeAccount;\r\n        return true;\r\n    }\r\n\r\n    function ChangeFeeAmount(uint256 newFeeAmount) public returns (bool) {\r\n        require(msg.sender == _owner);\r\n        FEE = newFeeAmount;\r\n        return true;\r\n    }\r\n}\r\n",
  "sourcePath": "F:/MyWork/LianHe/Citizen/ArtGallery/src/contracts/ArtGallery.sol",
  "compiler": {
    "name": "solc",
    "version": "0.7.4+commit.3f05b770.Emscripten.clang"
  },
  "schemaVersion": "3.3.4",
  "updatedAt": "2021-06-14T19:19:48.555Z",
  "networkType": "ethereum",
  "devdoc": {
    "kind": "dev",
    "methods": {},
    "version": 1
  },
  "userdoc": {
    "kind": "user",
    "methods": {
      "ChangeFeeAccount(address)": {
        "notice": "this function allows you to change the address that is going to receive the fee amount"
      }
    },
    "version": 1
  }
}