{
  "contractName": "CifiPowa",
  "abi": [
    {
      "inputs": [],
      "stateMutability": "nonpayable",
      "type": "constructor"
    },
    {
      "anonymous": false,
      "inputs": [
        {
          "indexed": true,
          "internalType": "address",
          "name": "owner",
          "type": "address"
        },
        {
          "indexed": true,
          "internalType": "address",
          "name": "approved",
          "type": "address"
        },
        {
          "indexed": true,
          "internalType": "uint256",
          "name": "tokenId",
          "type": "uint256"
        }
      ],
      "name": "Approval",
      "type": "event"
    },
    {
      "anonymous": false,
      "inputs": [
        {
          "indexed": true,
          "internalType": "address",
          "name": "owner",
          "type": "address"
        },
        {
          "indexed": true,
          "internalType": "address",
          "name": "operator",
          "type": "address"
        },
        {
          "indexed": false,
          "internalType": "bool",
          "name": "approved",
          "type": "bool"
        }
      ],
      "name": "ApprovalForAll",
      "type": "event"
    },
    {
      "anonymous": false,
      "inputs": [
        {
          "indexed": true,
          "internalType": "address",
          "name": "_owner",
          "type": "address"
        },
        {
          "indexed": false,
          "internalType": "uint256",
          "name": "_tokenId",
          "type": "uint256"
        },
        {
          "indexed": false,
          "internalType": "string",
          "name": "_url",
          "type": "string"
        }
      ],
      "name": "MetadataAssigned",
      "type": "event"
    },
    {
      "anonymous": false,
      "inputs": [
        {
          "indexed": false,
          "internalType": "string",
          "name": "url",
          "type": "string"
        }
      ],
      "name": "Mint",
      "type": "event"
    },
    {
      "anonymous": false,
      "inputs": [
        {
          "indexed": true,
          "internalType": "bytes32",
          "name": "role",
          "type": "bytes32"
        },
        {
          "indexed": true,
          "internalType": "bytes32",
          "name": "previousAdminRole",
          "type": "bytes32"
        },
        {
          "indexed": true,
          "internalType": "bytes32",
          "name": "newAdminRole",
          "type": "bytes32"
        }
      ],
      "name": "RoleAdminChanged",
      "type": "event"
    },
    {
      "anonymous": false,
      "inputs": [
        {
          "indexed": true,
          "internalType": "bytes32",
          "name": "role",
          "type": "bytes32"
        },
        {
          "indexed": true,
          "internalType": "address",
          "name": "account",
          "type": "address"
        },
        {
          "indexed": true,
          "internalType": "address",
          "name": "sender",
          "type": "address"
        }
      ],
      "name": "RoleGranted",
      "type": "event"
    },
    {
      "anonymous": false,
      "inputs": [
        {
          "indexed": true,
          "internalType": "bytes32",
          "name": "role",
          "type": "bytes32"
        },
        {
          "indexed": true,
          "internalType": "address",
          "name": "account",
          "type": "address"
        },
        {
          "indexed": true,
          "internalType": "address",
          "name": "sender",
          "type": "address"
        }
      ],
      "name": "RoleRevoked",
      "type": "event"
    },
    {
      "anonymous": false,
      "inputs": [
        {
          "indexed": true,
          "internalType": "address",
          "name": "from",
          "type": "address"
        },
        {
          "indexed": true,
          "internalType": "address",
          "name": "to",
          "type": "address"
        },
        {
          "indexed": true,
          "internalType": "uint256",
          "name": "tokenId",
          "type": "uint256"
        }
      ],
      "name": "Transfer",
      "type": "event"
    },
    {
      "inputs": [],
      "name": "DEFAULT_ADMIN_ROLE",
      "outputs": [
        {
          "internalType": "bytes32",
          "name": "",
          "type": "bytes32"
        }
      ],
      "stateMutability": "view",
      "type": "function",
      "constant": true
    },
    {
      "inputs": [],
      "name": "Nftcreator",
      "outputs": [
        {
          "internalType": "address",
          "name": "",
          "type": "address"
        }
      ],
      "stateMutability": "view",
      "type": "function",
      "constant": true
    },
    {
      "inputs": [],
      "name": "Nftdescription",
      "outputs": [
        {
          "internalType": "string",
          "name": "",
          "type": "string"
        }
      ],
      "stateMutability": "view",
      "type": "function",
      "constant": true
    },
    {
      "inputs": [],
      "name": "Nftname",
      "outputs": [
        {
          "internalType": "string",
          "name": "",
          "type": "string"
        }
      ],
      "stateMutability": "view",
      "type": "function",
      "constant": true
    },
    {
      "inputs": [],
      "name": "Nftsymbol",
      "outputs": [
        {
          "internalType": "string",
          "name": "",
          "type": "string"
        }
      ],
      "stateMutability": "view",
      "type": "function",
      "constant": true
    },
    {
      "inputs": [],
      "name": "Nfturi",
      "outputs": [
        {
          "internalType": "string",
          "name": "",
          "type": "string"
        }
      ],
      "stateMutability": "view",
      "type": "function",
      "constant": true
    },
    {
      "inputs": [
        {
          "internalType": "address",
          "name": "to",
          "type": "address"
        },
        {
          "internalType": "uint256",
          "name": "tokenId",
          "type": "uint256"
        }
      ],
      "name": "approve",
      "outputs": [],
      "stateMutability": "nonpayable",
      "type": "function"
    },
    {
      "inputs": [
        {
          "internalType": "address",
          "name": "owner",
          "type": "address"
        }
      ],
      "name": "balanceOf",
      "outputs": [
        {
          "internalType": "uint256",
          "name": "",
          "type": "uint256"
        }
      ],
      "stateMutability": "view",
      "type": "function",
      "constant": true
    },
    {
      "inputs": [],
      "name": "baseURI",
      "outputs": [
        {
          "internalType": "string",
          "name": "",
          "type": "string"
        }
      ],
      "stateMutability": "view",
      "type": "function",
      "constant": true
    },
    {
      "inputs": [
        {
          "internalType": "uint256",
          "name": "tokenId",
          "type": "uint256"
        }
      ],
      "name": "getApproved",
      "outputs": [
        {
          "internalType": "address",
          "name": "",
          "type": "address"
        }
      ],
      "stateMutability": "view",
      "type": "function",
      "constant": true
    },
    {
      "inputs": [
        {
          "internalType": "bytes32",
          "name": "role",
          "type": "bytes32"
        }
      ],
      "name": "getRoleAdmin",
      "outputs": [
        {
          "internalType": "bytes32",
          "name": "",
          "type": "bytes32"
        }
      ],
      "stateMutability": "view",
      "type": "function",
      "constant": true
    },
    {
      "inputs": [
        {
          "internalType": "bytes32",
          "name": "role",
          "type": "bytes32"
        },
        {
          "internalType": "uint256",
          "name": "index",
          "type": "uint256"
        }
      ],
      "name": "getRoleMember",
      "outputs": [
        {
          "internalType": "address",
          "name": "",
          "type": "address"
        }
      ],
      "stateMutability": "view",
      "type": "function",
      "constant": true
    },
    {
      "inputs": [
        {
          "internalType": "bytes32",
          "name": "role",
          "type": "bytes32"
        }
      ],
      "name": "getRoleMemberCount",
      "outputs": [
        {
          "internalType": "uint256",
          "name": "",
          "type": "uint256"
        }
      ],
      "stateMutability": "view",
      "type": "function",
      "constant": true
    },
    {
      "inputs": [
        {
          "internalType": "bytes32",
          "name": "role",
          "type": "bytes32"
        },
        {
          "internalType": "address",
          "name": "account",
          "type": "address"
        }
      ],
      "name": "grantRole",
      "outputs": [],
      "stateMutability": "nonpayable",
      "type": "function"
    },
    {
      "inputs": [
        {
          "internalType": "bytes32",
          "name": "role",
          "type": "bytes32"
        },
        {
          "internalType": "address",
          "name": "account",
          "type": "address"
        }
      ],
      "name": "hasRole",
      "outputs": [
        {
          "internalType": "bool",
          "name": "",
          "type": "bool"
        }
      ],
      "stateMutability": "view",
      "type": "function",
      "constant": true
    },
    {
      "inputs": [
        {
          "internalType": "address",
          "name": "owner",
          "type": "address"
        },
        {
          "internalType": "address",
          "name": "operator",
          "type": "address"
        }
      ],
      "name": "isApprovedForAll",
      "outputs": [
        {
          "internalType": "bool",
          "name": "",
          "type": "bool"
        }
      ],
      "stateMutability": "view",
      "type": "function",
      "constant": true
    },
    {
      "inputs": [],
      "name": "name",
      "outputs": [
        {
          "internalType": "string",
          "name": "",
          "type": "string"
        }
      ],
      "stateMutability": "view",
      "type": "function",
      "constant": true
    },
    {
      "inputs": [
        {
          "internalType": "uint256",
          "name": "tokenId",
          "type": "uint256"
        }
      ],
      "name": "ownerOf",
      "outputs": [
        {
          "internalType": "address",
          "name": "",
          "type": "address"
        }
      ],
      "stateMutability": "view",
      "type": "function",
      "constant": true
    },
    {
      "inputs": [
        {
          "internalType": "bytes32",
          "name": "role",
          "type": "bytes32"
        },
        {
          "internalType": "address",
          "name": "account",
          "type": "address"
        }
      ],
      "name": "renounceRole",
      "outputs": [],
      "stateMutability": "nonpayable",
      "type": "function"
    },
    {
      "inputs": [
        {
          "internalType": "bytes32",
          "name": "role",
          "type": "bytes32"
        },
        {
          "internalType": "address",
          "name": "account",
          "type": "address"
        }
      ],
      "name": "revokeRole",
      "outputs": [],
      "stateMutability": "nonpayable",
      "type": "function"
    },
    {
      "inputs": [
        {
          "internalType": "address",
          "name": "operator",
          "type": "address"
        },
        {
          "internalType": "bool",
          "name": "approved",
          "type": "bool"
        }
      ],
      "name": "setApprovalForAll",
      "outputs": [],
      "stateMutability": "nonpayable",
      "type": "function"
    },
    {
      "inputs": [
        {
          "internalType": "bytes4",
          "name": "interfaceId",
          "type": "bytes4"
        }
      ],
      "name": "supportsInterface",
      "outputs": [
        {
          "internalType": "bool",
          "name": "",
          "type": "bool"
        }
      ],
      "stateMutability": "view",
      "type": "function",
      "constant": true
    },
    {
      "inputs": [],
      "name": "symbol",
      "outputs": [
        {
          "internalType": "string",
          "name": "",
          "type": "string"
        }
      ],
      "stateMutability": "view",
      "type": "function",
      "constant": true
    },
    {
      "inputs": [
        {
          "internalType": "uint256",
          "name": "index",
          "type": "uint256"
        }
      ],
      "name": "tokenByIndex",
      "outputs": [
        {
          "internalType": "uint256",
          "name": "",
          "type": "uint256"
        }
      ],
      "stateMutability": "view",
      "type": "function",
      "constant": true
    },
    {
      "inputs": [
        {
          "internalType": "address",
          "name": "owner",
          "type": "address"
        },
        {
          "internalType": "uint256",
          "name": "index",
          "type": "uint256"
        }
      ],
      "name": "tokenOfOwnerByIndex",
      "outputs": [
        {
          "internalType": "uint256",
          "name": "",
          "type": "uint256"
        }
      ],
      "stateMutability": "view",
      "type": "function",
      "constant": true
    },
    {
      "inputs": [
        {
          "internalType": "uint256",
          "name": "tokenId",
          "type": "uint256"
        }
      ],
      "name": "tokenURI",
      "outputs": [
        {
          "internalType": "string",
          "name": "",
          "type": "string"
        }
      ],
      "stateMutability": "view",
      "type": "function",
      "constant": true
    },
    {
      "inputs": [],
      "name": "totalSupply",
      "outputs": [
        {
          "internalType": "uint256",
          "name": "",
          "type": "uint256"
        }
      ],
      "stateMutability": "view",
      "type": "function",
      "constant": true
    },
    {
      "inputs": [
        {
          "internalType": "address",
          "name": "from",
          "type": "address"
        },
        {
          "internalType": "address",
          "name": "to",
          "type": "address"
        },
        {
          "internalType": "uint256",
          "name": "tokenId",
          "type": "uint256"
        }
      ],
      "name": "transferFrom",
      "outputs": [],
      "stateMutability": "nonpayable",
      "type": "function"
    },
    {
      "inputs": [
        {
          "internalType": "uint256",
          "name": "id",
          "type": "uint256"
        },
        {
          "internalType": "string",
          "name": "uri",
          "type": "string"
        }
      ],
      "name": "assignDataToToken",
      "outputs": [],
      "stateMutability": "nonpayable",
      "type": "function"
    },
    {
      "inputs": [
        {
          "internalType": "uint256",
          "name": "_tokenId",
          "type": "uint256"
        }
      ],
      "name": "getMetadataAtID",
      "outputs": [
        {
          "internalType": "string",
          "name": "",
          "type": "string"
        }
      ],
      "stateMutability": "view",
      "type": "function",
      "constant": true
    },
    {
      "inputs": [
        {
          "internalType": "address",
          "name": "_owner",
          "type": "address"
        }
      ],
      "name": "tokensOf",
      "outputs": [
        {
          "internalType": "uint256[]",
          "name": "",
          "type": "uint256[]"
        }
      ],
      "stateMutability": "view",
      "type": "function",
      "constant": true
    },
    {
      "inputs": [
        {
          "internalType": "address",
          "name": "_to",
          "type": "address"
        },
        {
          "internalType": "uint256[]",
          "name": "_tokenIds",
          "type": "uint256[]"
        }
      ],
      "name": "approveMany",
      "outputs": [],
      "stateMutability": "nonpayable",
      "type": "function"
    },
    {
      "inputs": [
        {
          "internalType": "address",
          "name": "_to",
          "type": "address"
        }
      ],
      "name": "approveAll",
      "outputs": [],
      "stateMutability": "nonpayable",
      "type": "function"
    },
    {
      "inputs": [
        {
          "internalType": "address",
          "name": "from",
          "type": "address"
        },
        {
          "internalType": "address",
          "name": "to",
          "type": "address"
        },
        {
          "internalType": "uint256",
          "name": "tokenId",
          "type": "uint256"
        }
      ],
      "name": "safeTransferFrom",
      "outputs": [],
      "stateMutability": "nonpayable",
      "type": "function"
    },
    {
      "inputs": [
        {
          "internalType": "address",
          "name": "from",
          "type": "address"
        },
        {
          "internalType": "address",
          "name": "to",
          "type": "address"
        },
        {
          "internalType": "uint256",
          "name": "tokenId",
          "type": "uint256"
        },
        {
          "internalType": "bytes",
          "name": "_data",
          "type": "bytes"
        }
      ],
      "name": "safeTransferFrom",
      "outputs": [],
      "stateMutability": "nonpayable",
      "type": "function"
    },
    {
      "inputs": [
        {
          "internalType": "string",
          "name": "url",
          "type": "string"
        }
      ],
      "name": "mint",
      "outputs": [],
      "stateMutability": "nonpayable",
      "type": "function"
    },
    {
      "inputs": [
        {
          "internalType": "uint256",
          "name": "_id",
          "type": "uint256"
        }
      ],
      "name": "burn",
      "outputs": [
        {
          "internalType": "bool",
          "name": "",
          "type": "bool"
        }
      ],
      "stateMutability": "nonpayable",
      "type": "function"
    }
  ],
  "bytecode": "0x60806040526000600f553480156200001657600080fd5b50604080518082018252600881526743696669706f776160c01b60208083019190915282518084019093526004835263504f574160e01b9083015290620000646301ffc9a760e01b620001df565b8151620000799060069060208501906200037a565b5080516200008f9060079060208401906200037a565b50620000a26380ac58cd60e01b620001df565b620000b4635b5e139f60e01b620001df565b620000c663780e9d6360e01b620001df565b50506040805180820190915260088082526743696669706f776160c01b6020909201918252620000f991600b916200037a565b5060408051808201909152600480825263504f574160e01b60209092019182526200012791600c916200037a565b506040805180820190915260108082526f696e697469616c2043696669706f776160801b60209092019182526200016191600d916200037a565b50604051806060016040528060248152602001620033076024913980516200019291600e916020909101906200037a565b506200019d62000264565b601080546001600160a01b0319166001600160a01b03929092169190911790556000600f819055620001d990620001d362000264565b62000268565b62000426565b6001600160e01b031980821614156200023f576040805162461bcd60e51b815260206004820152601c60248201527f4552433136353a20696e76616c696420696e7465726661636520696400000000604482015290519081900360640190fd5b6001600160e01b0319166000908152602081905260409020805460ff19166001179055565b3390565b62000274828262000278565b5050565b6000828152600a602090815260409091206200029f91839062001595620002f3821b17901c565b156200027457620002af62000264565b6001600160a01b0316816001600160a01b0316837f2f8788117e7eff1d82e926ec794901d17c78024a50270940304540a733656f0d60405160405180910390a45050565b60006200030a836001600160a01b03841662000313565b90505b92915050565b600062000321838362000362565b62000359575081546001818101845560008481526020808220909301849055845484825282860190935260409020919091556200030d565b5060006200030d565b60009081526001919091016020526040902054151590565b828054600181600116156101000203166002900490600052602060002090601f016020900481019282620003b25760008555620003fd565b82601f10620003cd57805160ff1916838001178555620003fd565b82800160010185558215620003fd579182015b82811115620003fd578251825591602001919060010190620003e0565b506200040b9291506200040f565b5090565b5b808211156200040b576000815560010162000410565b612ed180620004366000396000f3fe608060405234801561001057600080fd5b50600436106102275760003560e01c80636c0360eb11610130578063b88d4fde116100b8578063d547741f1161007c578063d547741f1461046a578063d85d3d271461047d578063e268cd2414610490578063e69c20cf146104a3578063e985e9c5146104b657610227565b8063b88d4fde14610421578063b9cba39314610434578063c87b56dd1461043c578063ca15c8731461044f578063cffb1a5c1461046257610227565b806391d14854116100ff57806391d14854146103d857806395d89b41146103eb57806399bb8134146103f3578063a217fddf14610406578063a22cb4651461040e57610227565b80636c0360eb146103a257806370a08231146103aa5780638e8ca30a146103bd5780639010d07c146103c557610227565b80632f2ff15d116101b357806342966c681161018257806342966c68146103415780634f6ccce7146103545780635a3f26721461036757806362601e89146103875780636352211e1461038f57610227565b80632f2ff15d146102f55780632f745c591461030857806336568abe1461031b57806342842e0e1461032e57610227565b8063095ea7b3116101fa578063095ea7b31461029f5780631085cbb6146102b257806318160ddd146102ba57806323b872dd146102cf578063248a9ca3146102e257610227565b806301ffc9a71461022c5780630621472c1461025557806306fdde031461026a578063081812fc1461027f575b600080fd5b61023f61023a366004612962565b6104c9565b60405161024c9190612ab5565b60405180910390f35b610268610263366004612703565b6104ec565b005b61027261052f565b60405161024c9190612ac9565b61029261028d366004612907565b6105c5565b60405161024c9190612a5d565b6102686102ad3660046128de565b610627565b6102726106f8565b6102c2610786565b60405161024c9190612ac0565b6102686102dd36600461274f565b610797565b6102c26102f0366004612907565b6107ee565b61026861030336600461291f565b610803565b6102c26103163660046128de565b61086a565b61026861032936600461291f565b610895565b61026861033c36600461274f565b6108f6565b61023f61034f366004612907565b610966565b6102c2610362366004612907565b610979565b61037a610375366004612703565b61098f565b60405161024c9190612a71565b610272610a21565b61029261039d366004612907565b610a7c565b610272610aa4565b6102c26103b8366004612703565b610b05565b610272610b6d565b6102926103d3366004612941565b610bc8565b61023f6103e636600461291f565b610be0565b610272610bf8565b6102686104013660046127f0565b610c59565b6102c2610c7d565b61026861041c3660046128a4565b610c82565b61026861042f36600461278a565b610d87565b610292610f97565b61027261044a366004612907565b610fa6565b6102c261045d366004612907565b611229565b610272611240565b61026861047836600461291f565b61129b565b61026861048b36600461298a565b6112f4565b61027261049e366004612907565b61139e565b6102686104b13660046129bd565b611435565b61023f6104c436600461271d565b611567565b6001600160e01b0319811660009081526020819052604090205460ff165b919050565b60606104f73361098f565b905060005b815181101561052a576105228383838151811061051557fe5b6020026020010151610627565b6001016104fc565b505050565b60068054604080516020601f60026000196101006001881615020190951694909404938401819004810282018101909252828152606093909290918301828280156105bb5780601f10610590576101008083540402835291602001916105bb565b820191906000526020600020905b81548152906001019060200180831161059e57829003601f168201915b5050505050905090565b60006105d0826115aa565b61060b5760405162461bcd60e51b815260040180806020018281038252602c815260200180612d97602c913960400191505060405180910390fd5b506000908152600460205260409020546001600160a01b031690565b600061063282610a7c565b9050806001600160a01b0316836001600160a01b031614156106855760405162461bcd60e51b8152600401808060200182810382526021815260200180612e1b6021913960400191505060405180910390fd5b806001600160a01b03166106976115b7565b6001600160a01b031614806106b357506106b3816104c46115b7565b6106ee5760405162461bcd60e51b8152600401808060200182810382526038815260200180612cea6038913960400191505060405180910390fd5b61052a83836115bb565b600d805460408051602060026001851615610100026000190190941693909304601f8101849004840282018401909252818152929183018282801561077e5780601f106107535761010080835404028352916020019161077e565b820191906000526020600020905b81548152906001019060200180831161076157829003601f168201915b505050505081565b60006107926002611629565b905090565b6107a86107a26115b7565b82611634565b6107e35760405162461bcd60e51b8152600401808060200182810382526031815260200180612e3c6031913960400191505060405180910390fd5b61052a8383836116d8565b6000908152600a602052604090206002015490565b6000828152600a6020526040902060020154610821906103e66115b7565b61085c5760405162461bcd60e51b815260040180806020018281038252602f815260200180612c09602f913960400191505060405180910390fd5b6108668282611819565b5050565b6001600160a01b038216600090815260016020526040812061088c9083611882565b90505b92915050565b61089d6115b7565b6001600160a01b0316816001600160a01b0316146108ec5760405162461bcd60e51b815260040180806020018281038252602f815260200180612e6d602f913960400191505060405180910390fd5b610866828261188e565b6001600160a01b0383166109255760405162461bcd60e51b815260040161091c90612b03565b60405180910390fd5b6001600160a01b03821661094b5760405162461bcd60e51b815260040161091c90612b03565b61052a83838360405180602001604052806000815250610d87565b6000610971826118f7565b506001919050565b6000806109876002846119b8565b509392505050565b60606001600160a01b0382166109b75760405162461bcd60e51b815260040161091c90612adc565b6001600160a01b03821660009081526011602090815260409182902080548351818402810184019094528084529091830182828015610a1557602002820191906000526020600020905b815481526020019060010190808311610a01575b50505050509050919050565b600b805460408051602060026001851615610100026000190190941693909304601f8101849004840282018401909252818152929183018282801561077e5780601f106107535761010080835404028352916020019161077e565b600061088f82604051806060016040528060298152602001612d4c60299139600291906119d4565b60098054604080516020601f60026000196101006001881615020190951694909404938401819004810282018101909252828152606093909290918301828280156105bb5780601f10610590576101008083540402835291602001916105bb565b60006001600160a01b038216610b4c5760405162461bcd60e51b815260040180806020018281038252602a815260200180612d22602a913960400191505060405180910390fd5b6001600160a01b038216600090815260016020526040902061088f90611629565b600e805460408051602060026001851615610100026000190190941693909304601f8101849004840282018401909252818152929183018282801561077e5780601f106107535761010080835404028352916020019161077e565b6000828152600a6020526040812061088c9083611882565b6000828152600a6020526040812061088c90836119eb565b60078054604080516020601f60026000196101006001881615020190951694909404938401819004810282018101909252828152606093909290918301828280156105bb5780601f10610590576101008083540402835291602001916105bb565b60005b815181101561052a57610c758383838151811061051557fe5b600101610c5c565b600081565b610c8a6115b7565b6001600160a01b0316826001600160a01b03161415610cf0576040805162461bcd60e51b815260206004820152601960248201527f4552433732313a20617070726f766520746f2063616c6c657200000000000000604482015290519081900360640190fd5b8060056000610cfd6115b7565b6001600160a01b03908116825260208083019390935260409182016000908120918716808252919093529120805460ff191692151592909217909155610d416115b7565b6001600160a01b03167f17307eab39ab6107e8899845ad3d59bd9653f200f220920489ca2b5937696c318360405180821515815260200191505060405180910390a35050565b610d98610d926115b7565b83611634565b610db45760405162461bcd60e51b815260040161091c90612b2c565b6001600160a01b038416610dda5760405162461bcd60e51b815260040161091c90612b03565b6001600160a01b038316610e005760405162461bcd60e51b815260040161091c90612b03565b610e0c84848484611a00565b6001600160a01b038416600090815260116020908152604091829020805483518184028101840190945280845260609392830182828015610e6c57602002820191906000526020600020905b815481526020019060010190808311610e58575b505050505090506060600182510367ffffffffffffffff81118015610e9057600080fd5b50604051908082528060200260200182016040528015610eba578160200160208202803683370190505b506001600160a01b038616600081815260116020908152604082208054600181018255818452918320909101889055919052805491925090610eff9082908190612523565b506000805b8451811015610f625786858281518110610f1a57fe5b602002602001015114610f5a57848181518110610f3357fe5b6020026020010151848380600101945081518110610f4d57fe5b6020026020010181815250505b600101610f04565b506001600160a01b03881660009081526011602090815260409091208451610f8c92860190612573565b505050505050505050565b6010546001600160a01b031681565b6060610fb1826115aa565b610fec5760405162461bcd60e51b815260040180806020018281038252602f815260200180612dec602f913960400191505060405180910390fd5b60008281526008602090815260409182902080548351601f60026000196101006001861615020190931692909204918201849004840281018401909452808452606093928301828280156110815780601f1061105657610100808354040283529160200191611081565b820191906000526020600020905b81548152906001019060200180831161106457829003601f168201915b505050505090506060611092610aa4565b90508051600014156110a6575090506104e7565b8151156111675780826040516020018083805190602001908083835b602083106110e15780518252601f1990920191602091820191016110c2565b51815160209384036101000a600019018019909216911617905285519190930192850191508083835b602083106111295780518252601f19909201916020918201910161110a565b6001836020036101000a03801982511681845116808217855250505050505090500192505050604051602081830303815290604052925050506104e7565b8061117185611a58565b6040516020018083805190602001908083835b602083106111a35780518252601f199092019160209182019101611184565b51815160209384036101000a600019018019909216911617905285519190930192850191508083835b602083106111eb5780518252601f1990920191602091820191016111cc565b6001836020036101000a0380198251168184511680821785525050505050509050019250505060405160208183030381529060405292505050919050565b6000818152600a6020526040812061088f90611629565b600c805460408051602060026001851615610100026000190190941693909304601f8101849004840282018401909252818152929183018282801561077e5780601f106107535761010080835404028352916020019161077e565b6000828152600a60205260409020600201546112b9906103e66115b7565b6108ec5760405162461bcd60e51b8152600401808060200182810382526030815260200180612cba6030913960400191505060405180910390fd5b60006112fe610786565b905061130a3382611b33565b3360008181526011602090815260408220805460018101825581845291832090910184905591905280546113419082908190612523565b5060008281526012602090815260409091208451611361928601906125ae565b507fc5e1d731c47dbd6a8c38e6ee9137792904eae9d20174034d1dc9a5781a0f855b836040516113919190612ac9565b60405180910390a1505050565b60008181526012602090815260409182902080548351601f6002600019610100600186161502019093169290920491820184900484028101840190945280845260609392830182828015610a155780601f1061140857610100808354040283529160200191610a15565b820191906000526020600020905b8154815290600101906020018083116114165750939695505050505050565b6010546001600160a01b0316331461144c57600080fd5b606081905080604051806040016040528060018152602001602f60f81b81525060405160200161147d929190612a2e565b60405160208183030381529060405290508061149884611c55565b6040516020016114a9929190612a2e565b60408051601f1981840301815282820182526005835264173539b7b760d91b60208481019190915291519093506114e4928492909101612a2e565b60408051601f1981840301815291815260008581526012602090815291902082519293506115169290918401906125ae565b5061152083610a7c565b6001600160a01b03167f533b52bf6683c1d8929816db9f4f8221ca670c6815cbd30bd5e92b4b8eb09578848360405161155a929190612b7d565b60405180910390a2505050565b6001600160a01b03918216600090815260056020908152604080832093909416825291909152205460ff1690565b600061088c836001600160a01b038416611d8e565b600061088f600283611dd8565b3390565b600081815260046020526040902080546001600160a01b0319166001600160a01b03841690811790915581906115f082610a7c565b6001600160a01b03167f8c5be1e5ebec7d5bd14f71427d1e84f3dd0314c0f7b2291e5b200ac8c7c3b92560405160405180910390a45050565b600061088f82611de4565b600061163f826115aa565b61167a5760405162461bcd60e51b815260040180806020018281038252602c815260200180612c8e602c913960400191505060405180910390fd5b600061168583610a7c565b9050806001600160a01b0316846001600160a01b031614806116c05750836001600160a01b03166116b5846105c5565b6001600160a01b0316145b806116d057506116d08185611567565b949350505050565b826001600160a01b03166116eb82610a7c565b6001600160a01b0316146117305760405162461bcd60e51b8152600401808060200182810382526029815260200180612dc36029913960400191505060405180910390fd5b6001600160a01b0382166117755760405162461bcd60e51b8152600401808060200182810382526024815260200180612c6a6024913960400191505060405180910390fd5b6117806000826115bb565b6001600160a01b03831660009081526001602052604090206117a29082611de8565b506001600160a01b03821660009081526001602052604090206117c59082611df4565b506117d260028284611e00565b5080826001600160a01b0316846001600160a01b03167fddf252ad1be2c89b69c2b068fc378daa952ba7f163c4a11628f55a4df523b3ef60405160405180910390a4505050565b6000828152600a602052604090206118319082611595565b156108665761183e6115b7565b6001600160a01b0316816001600160a01b0316837f2f8788117e7eff1d82e926ec794901d17c78024a50270940304540a733656f0d60405160405180910390a45050565b600061088c8383611e16565b6000828152600a602052604090206118a69082611e7a565b15610866576118b36115b7565b6001600160a01b0316816001600160a01b0316837ff6391f5c32d9c69d2a47ea670b442974b53935d1edc7fd64eb21e047a839171b60405160405180910390a45050565b600061190282610a7c565b905061190f6000836115bb565b600082815260086020526040902054600260001961010060018416150201909116041561194d57600082815260086020526040812061194d91612629565b6001600160a01b038116600090815260016020526040902061196f9083611de8565b5061197b600283611e8f565b5060405182906000906001600160a01b038416907fddf252ad1be2c89b69c2b068fc378daa952ba7f163c4a11628f55a4df523b3ef908390a45050565b60008080806119c78686611e9b565b9097909650945050505050565b60006119e1848484611f16565b90505b9392505050565b600061088c836001600160a01b038416611fe0565b611a0b8484846116d8565b611a1784848484611ff8565b611a525760405162461bcd60e51b8152600401808060200182810382526032815260200180612c386032913960400191505060405180910390fd5b50505050565b606081611a7d57506040805180820190915260018152600360fc1b60208201526104e7565b8160005b8115611a9557600101600a82049150611a81565b60608167ffffffffffffffff81118015611aae57600080fd5b506040519080825280601f01601f191660200182016040528015611ad9576020820181803683370190505b50859350905060001982015b8315611b2a57600a840660300160f81b82828060019003935081518110611b0857fe5b60200101906001600160f81b031916908160001a905350600a84049350611ae5565b50949350505050565b6001600160a01b038216611b8e576040805162461bcd60e51b815260206004820181905260248201527f4552433732313a206d696e7420746f20746865207a65726f2061646472657373604482015290519081900360640190fd5b611b97816115aa565b15611be9576040805162461bcd60e51b815260206004820152601c60248201527f4552433732313a20746f6b656e20616c7265616479206d696e74656400000000604482015290519081900360640190fd5b6001600160a01b0382166000908152600160205260409020611c0b9082611df4565b50611c1860028284611e00565b5060405181906001600160a01b038416906000907fddf252ad1be2c89b69c2b068fc378daa952ba7f163c4a11628f55a4df523b3ef908290a45050565b60408051606480825260a0820190925260609190829082602082018180368337019050509050600084611ca657604051806040016040528060018152602001600360fc1b81525093505050506104e7565b8415611cec578151600a808704966001840193919006916030830160f81b9185918110611ccf57fe5b60200101906001600160f81b031916908160001a90535050611ca6565b60608160010167ffffffffffffffff81118015611d0857600080fd5b506040519080825280601f01601f191660200182016040528015611d33576020820181803683370190505b50905060005b828111611d84578381840381518110611d4e57fe5b602001015160f81c60f81b828281518110611d6557fe5b60200101906001600160f81b031916908160001a905350600101611d39565b5095945050505050565b6000611d9a8383611fe0565b611dd05750815460018181018455600084815260208082209093018490558454848252828601909352604090209190915561088f565b50600061088f565b600061088c8383611fe0565b5490565b600061088c8383612160565b600061088c8383611d8e565b60006119e184846001600160a01b038516612226565b81546000908210611e585760405162461bcd60e51b8152600401808060200182810382526022815260200180612be76022913960400191505060405180910390fd5b826000018281548110611e6757fe5b9060005260206000200154905092915050565b600061088c836001600160a01b038416612160565b600061088c83836122bd565b815460009081908310611edf5760405162461bcd60e51b8152600401808060200182810382526022815260200180612d756022913960400191505060405180910390fd5b6000846000018481548110611ef057fe5b906000526020600020906002020190508060000154816001015492509250509250929050565b60008281526001840160205260408120548281611fb15760405162461bcd60e51b81526004018080602001828103825283818151815260200191508051906020019080838360005b83811015611f76578181015183820152602001611f5e565b50505050905090810190601f168015611fa35780820380516001836020036101000a031916815260200191505b509250505060405180910390fd5b50846000016001820381548110611fc457fe5b9060005260206000209060020201600101549150509392505050565b60009081526001919091016020526040902054151590565b600061200c846001600160a01b0316612391565b612018575060016116d0565b6060612126630a85bd0160e11b61202d6115b7565b88878760405160240180856001600160a01b03168152602001846001600160a01b0316815260200183815260200180602001828103825283818151815260200191508051906020019080838360005b8381101561209457818101518382015260200161207c565b50505050905090810190601f1680156120c15780820380516001836020036101000a031916815260200191505b5095505050505050604051602081830303815290604052906001600160e01b0319166020820180516001600160e01b038381831617835250505050604051806060016040528060328152602001612c38603291396001600160a01b0388169190612397565b9050600081806020019051602081101561213f57600080fd5b50516001600160e01b031916630a85bd0160e11b1492505050949350505050565b6000818152600183016020526040812054801561221c578354600019808301919081019060009087908390811061219357fe5b90600052602060002001549050808760000184815481106121b057fe5b6000918252602080832090910192909255828152600189810190925260409020908401905586548790806121e057fe5b6001900381819060005260206000200160009055905586600101600087815260200190815260200160002060009055600194505050505061088f565b600091505061088f565b60008281526001840160205260408120548061228b5750506040805180820182528381526020808201848152865460018181018955600089815284812095516002909302909501918255915190820155865486845281880190925292909120556119e4565b8285600001600183038154811061229e57fe5b90600052602060002090600202016001018190555060009150506119e4565b6000818152600183016020526040812054801561221c57835460001980830191908101906000908790839081106122f057fe5b906000526020600020906002020190508087600001848154811061231057fe5b60009182526020808320845460029093020191825560019384015491840191909155835482528983019052604090209084019055865487908061234f57fe5b600082815260208082206002600019909401938402018281556001908101839055929093558881528982019092526040822091909155945061088f9350505050565b3b151590565b60606119e18484600085856123ab85612391565b6123fc576040805162461bcd60e51b815260206004820152601d60248201527f416464726573733a2063616c6c20746f206e6f6e2d636f6e7472616374000000604482015290519081900360640190fd5b60006060866001600160a01b031685876040518082805190602001908083835b6020831061243b5780518252601f19909201916020918201910161241c565b6001836020036101000a03801982511681845116808217855250505050505090500191505060006040518083038185875af1925050503d806000811461249d576040519150601f19603f3d011682016040523d82523d6000602084013e6124a2565b606091505b50915091506124b28282866124bd565b979650505050505050565b606083156124cc5750816119e4565b8251156124dc5782518084602001fd5b60405162461bcd60e51b8152602060048201818152845160248401528451859391928392604401919085019080838360008315611f76578181015183820152602001611f5e565b8280548282559060005260206000209081019282156125635760005260206000209182015b82811115612563578254825591600101919060010190612548565b5061256f929150612670565b5090565b828054828255906000526020600020908101928215612563579160200282015b82811115612563578251825591602001919060010190612593565b828054600181600116156101000203166002900490600052602060002090601f0160209004810192826125e45760008555612563565b82601f106125fd57805160ff1916838001178555612563565b828001600101855582156125635791820182811115612563578251825591602001919060010190612593565b50805460018160011615610100020316600290046000825580601f1061264f575061266d565b601f01602090049060005260206000209081019061266d9190612670565b50565b5b8082111561256f5760008155600101612671565b80356001600160a01b03811681146104e757600080fd5b600082601f8301126126ac578081fd5b813567ffffffffffffffff8111156126c057fe5b6126d3601f8201601f1916602001612b96565b91508082528360208285010111156126ea57600080fd5b8060208401602084013760009082016020015292915050565b600060208284031215612714578081fd5b61088c82612685565b6000806040838503121561272f578081fd5b61273883612685565b915061274660208401612685565b90509250929050565b600080600060608486031215612763578081fd5b61276c84612685565b925061277a60208501612685565b9150604084013590509250925092565b6000806000806080858703121561279f578081fd5b6127a885612685565b93506127b660208601612685565b925060408501359150606085013567ffffffffffffffff8111156127d8578182fd5b6127e48782880161269c565b91505092959194509250565b60008060408385031215612802578182fd5b61280b83612685565b915060208084013567ffffffffffffffff80821115612828578384fd5b818601915086601f83011261283b578384fd5b81358181111561284757fe5b8381029150612857848301612b96565b8181528481019084860184860187018b1015612871578788fd5b8795505b83861015612893578035835260019590950194918601918601612875565b508096505050505050509250929050565b600080604083850312156128b6578182fd5b6128bf83612685565b9150602083013580151581146128d3578182fd5b809150509250929050565b600080604083850312156128f0578182fd5b6128f983612685565b946020939093013593505050565b600060208284031215612918578081fd5b5035919050565b60008060408385031215612931578182fd5b8235915061274660208401612685565b60008060408385031215612953578182fd5b50508035926020909101359150565b600060208284031215612973578081fd5b81356001600160e01b0319811681146119e4578182fd5b60006020828403121561299b578081fd5b813567ffffffffffffffff8111156129b1578182fd5b6116d08482850161269c565b600080604083850312156129cf578182fd5b82359150602083013567ffffffffffffffff8111156129ec578182fd5b6129f88582860161269c565b9150509250929050565b60008151808452612a1a816020860160208601612bba565b601f01601f19169290920160200192915050565b60008351612a40818460208801612bba565b835190830190612a54818360208801612bba565b01949350505050565b6001600160a01b0391909116815260200190565b6020808252825182820181905260009190848201906040850190845b81811015612aa957835183529284019291840191600101612a8d565b50909695505050505050565b901515815260200190565b90815260200190565b60006020825261088c6020830184612a02565b6020808252600d908201526c34b73b30b634b21037bbb732b960991b604082015260600190565b6020808252600f908201526e696e76616c6964206164647265737360881b604082015260600190565b60208082526031908201527f4552433732313a207472616e736665722063616c6c6572206973206e6f74206f6040820152701ddb995c881b9bdc88185c1c1c9bdd9959607a1b606082015260800190565b6000838252604060208301526119e16040830184612a02565b60405181810167ffffffffffffffff81118282101715612bb257fe5b604052919050565b60005b83811015612bd5578181015183820152602001612bbd565b83811115611a52575050600091015256fe456e756d657261626c655365743a20696e646578206f7574206f6620626f756e6473416363657373436f6e74726f6c3a2073656e646572206d75737420626520616e2061646d696e20746f206772616e744552433732313a207472616e7366657220746f206e6f6e20455243373231526563656976657220696d706c656d656e7465724552433732313a207472616e7366657220746f20746865207a65726f20616464726573734552433732313a206f70657261746f7220717565727920666f72206e6f6e6578697374656e7420746f6b656e416363657373436f6e74726f6c3a2073656e646572206d75737420626520616e2061646d696e20746f207265766f6b654552433732313a20617070726f76652063616c6c6572206973206e6f74206f776e6572206e6f7220617070726f76656420666f7220616c6c4552433732313a2062616c616e636520717565727920666f7220746865207a65726f20616464726573734552433732313a206f776e657220717565727920666f72206e6f6e6578697374656e7420746f6b656e456e756d657261626c654d61703a20696e646578206f7574206f6620626f756e64734552433732313a20617070726f76656420717565727920666f72206e6f6e6578697374656e7420746f6b656e4552433732313a207472616e73666572206f6620746f6b656e2074686174206973206e6f74206f776e4552433732314d657461646174613a2055524920717565727920666f72206e6f6e6578697374656e7420746f6b656e4552433732313a20617070726f76616c20746f2063757272656e74206f776e65724552433732313a207472616e736665722063616c6c6572206973206e6f74206f776e6572206e6f7220617070726f766564416363657373436f6e74726f6c3a2063616e206f6e6c792072656e6f756e636520726f6c657320666f722073656c66a264697066735822122021c7d0b11cb41712c73858b7450de65caa7f491aaa6739efa4c5a4e649863b2a64736f6c6343000704003377652063616e206a757374206164642075726c206f66206d657461646174612068657265",
  "immutableReferences": {},
  "source": "// SPDX-License-Identifier: MIT\r\npragma solidity >=0.4.22 <0.8.4;\r\npragma experimental ABIEncoderV2;\r\n\r\nimport \"@openzeppelin/contracts/token/ERC721/ERC721.sol\";\r\nimport \"@openzeppelin/contracts/access/AccessControl.sol\";\r\n\r\ncontract CifiPowa is ERC721,AccessControl {\r\n\r\n  string public Nftname;\r\n  string public Nftsymbol;\r\n  string public Nftdescription;\r\n  string public Nfturi;\r\n  // Total tokens starts at 0 because each new token must be minted and the\r\n  // _mint() call adds 1 to totalTokens\r\n  uint256 totalTokens = 0;\r\n\r\n  address public Nftcreator;\r\n\r\n  // Mapping from owner to list of owned token IDs\r\n  mapping(address => uint256[]) ownedTokens;\r\n\r\n  // Metadata is a URL that points to a json dictionary\r\n  mapping(uint256 => string) tokenIdToMetadata;\r\n\r\n  event MetadataAssigned(address indexed _owner, uint256 _tokenId, string _url);\r\n  event Mint(string url);\r\n\r\n  /**\r\n   * a registry function that iis been called by the NFT registry smart contract\r\n   */\r\n\r\n   constructor () ERC721(\"Cifipowa\",\"POWA\"){\r\n    Nftname =\"Cifipowa\";\r\n    Nftsymbol =\"POWA\";\r\n    Nftdescription =\"initial Cifipowa\";\r\n    Nfturi =\"we can just add url of metadata here\";\r\n    Nftcreator = _msgSender();\r\n    totalTokens = 0;\r\n    _setupRole(DEFAULT_ADMIN_ROLE, _msgSender());\r\n    } \r\n\r\n  /**\r\n   * this function assignes the URI to automatically add the id number at the end of the URI\r\n   */\r\n  function assignDataToToken(uint256 id, string memory uri) public {\r\n    require(msg.sender == Nftcreator);\r\n    bytes memory _url = bytes(uri);\r\n\r\n    _url = abi.encodePacked(_url, bytes(\"/\"));\r\n    _url = abi.encodePacked(_url, _uintToBytes(id));\r\n    _url = abi.encodePacked(_url, bytes(\".json\"));\r\n\r\n    tokenIdToMetadata[id] = string(_url);\r\n    MetadataAssigned(ownerOf(id), id, string(_url));\r\n  }\r\n\r\n  /**\r\n   * this function helps with queries to Fetch the metadata for a givine token id\r\n   */\r\n  function getMetadataAtID(uint256 _tokenId)\r\n    public\r\n    view\r\n    returns (string memory)\r\n  {\r\n    return tokenIdToMetadata[_tokenId];\r\n  }\r\n\r\n  /**\r\n   * this function helps with queries to Fetch all the tokens that the address owns by givine address\r\n   */\r\n  function tokensOf(address _owner) public view returns (uint256[] memory) {\r\n    require(_owner != address(0), \"invalid owner\");\r\n    return ownedTokens[_owner];\r\n  }\r\n\r\n\r\n  /**\r\n   * this function allows to approve more than one token id at once\r\n   */\r\n  function approveMany(address _to, uint256[] memory _tokenIds) public {\r\n    /* Allows bulk-approval of many tokens. This function is useful for\r\n       exchanges where users can make a single tx to enable the call of\r\n       transferFrom for those tokens by an exchange contract. */\r\n    for (uint256 i = 0; i < _tokenIds.length; i++) {\r\n      // approve handles the check for if one who is approving is the owner.\r\n      approve(_to, _tokenIds[i]);\r\n    }\r\n  }\r\n\r\n  /**\r\n   * this function allows to approve all the tokens the address owns at once\r\n   */\r\n  function approveAll(address _to) public {\r\n    uint256[] memory tokens = tokensOf(msg.sender);\r\n    for (uint256 t = 0; t < tokens.length; t++) {\r\n      approve(_to, tokens[t]);\r\n    }\r\n  }\r\n\r\n  /**\r\n   * this overload function allows to transfer tokens and updates all the mapping queries(without filling the URI)  \r\n   */\r\n  function safeTransferFrom(\r\n    address from,\r\n    address to,\r\n    uint256 tokenId\r\n  ) public virtual override {\r\n    require(from != address(0), \"invalid address\");\r\n    require(to != address(0), \"invalid address\");\r\n    // add require to make sure that the tokenid exsistes\r\n    safeTransferFrom(from, to, tokenId, \"\");\r\n  }\r\n\r\n  /**\r\n   * this overload function allows to transfer tokens and updates all the mapping queries(with filling the URI)  \r\n   */\r\n  function safeTransferFrom(\r\n    address from,\r\n    address to,\r\n    uint256 tokenId,\r\n    bytes memory _data\r\n  ) public virtual override {\r\n    require(\r\n      _isApprovedOrOwner(_msgSender(), tokenId),\r\n      \"ERC721: transfer caller is not owner nor approved\"\r\n    );\r\n    require(from != address(0), \"invalid address\");\r\n    require(to != address(0), \"invalid address\");\r\n    _safeTransfer(from, to, tokenId, _data);\r\n    uint256[] memory fromIds = ownedTokens[from];\r\n    uint256[] memory newFromIds = new uint256[](fromIds.length - 1);\r\n    uint256[] storage toIds = ownedTokens[to];\r\n    toIds.push(tokenId);\r\n    ownedTokens[to] = toIds;\r\n    uint256 j = 0;\r\n    for (uint256 i = 0; i < fromIds.length; i++) {\r\n      if (fromIds[i] != tokenId) newFromIds[j++] = (fromIds[i]);\r\n    }\r\n    ownedTokens[from] = newFromIds;\r\n  }\r\n\r\n  /**\r\n   * this function allows to mint more of your NFT  \r\n   */\r\n  function mint(string memory url) public {\r\n    uint256 currentTokenCount = totalSupply();\r\n    // The index of the newest token is at the # totalTokens.\r\n    _mint(msg.sender, currentTokenCount);\r\n    // assign address to array of owned tokens aned you can qury what ids the address owns\r\n    uint256[] storage ids = ownedTokens[msg.sender];\r\n    ids.push(currentTokenCount);\r\n    ownedTokens[msg.sender] = ids;\r\n    // _mint() call adds 1 to total tokens, but we want the token at index - 1\r\n    tokenIdToMetadata[currentTokenCount] = url;\r\n    emit Mint(url);\r\n  }\r\n\r\n  /**\r\n   * this function allows you burn your NFT  \r\n   */\r\n  function burn( uint256 _id) public returns (bool) {\r\n    _burn(_id);\r\n    return true;\r\n  }\r\n\r\n  /**\r\n   * this function is been created just to convert uint variable to bytes\r\n   *(private function only used in the \"assignDataToToken\" function in order to convert the uint variable to bytes\r\n   * in order to concatenate it )  \r\n   */\r\n  function _uintToBytes(uint256 _int) internal pure returns (bytes memory) {\r\n    uint256 maxlength = 100;\r\n    bytes memory reversed = new bytes(maxlength);\r\n    uint256 i = 0;\r\n    if (_int == 0) return bytes(\"0\");\r\n    while (_int != 0) {\r\n      uint256 remainder = _int % 10;\r\n      _int = _int / 10;\r\n      reversed[i++] = bytes1(uint8(48 + remainder));\r\n    }\r\n    bytes memory s = new bytes(i + 1);\r\n    for (uint256 j = 0; j <= i; j++) {\r\n      s[j] = reversed[i - j];\r\n    }\r\n    return s;\r\n  }\r\n\r\n  /**\r\n   * this function is been created just to convert small strings to capital \r\n   *(private function only used in functions that we want to make the symbol auto capital \r\n   * in order to concatenate it )  \r\n   */\r\n\r\n  function _upperCase(string memory enter)\r\n    internal\r\n    pure\r\n    returns (string memory)\r\n  {\r\n    bytes memory strbyte = bytes(enter);\r\n    for (uint256 i = 0; i < strbyte.length; i++) {\r\n      if (\r\n        uint8(strbyte[i]) >= uint8(bytes1(\"a\")) &&\r\n        uint8(strbyte[i]) <= uint8(bytes1(\"z\"))\r\n      ) strbyte[i] = bytes1(uint8(strbyte[i]) - 32);\r\n    }\r\n    enter = string(strbyte);\r\n    return enter;\r\n  }\r\n}",
  "sourcePath": "C:/Users/Zaid/Desktop/New folder (13)/NFT_Contract_Factory/src/contracts/CifiPowa.sol",
  "compiler": {
    "name": "solc",
    "version": "0.7.4+commit.3f05b770.Emscripten.clang"
  },
  "schemaVersion": "3.3.4",
  "updatedAt": "2021-04-16T16:15:34.281Z",
  "networkType": "ethereum",
  "devdoc": {
    "kind": "dev",
    "methods": {
      "approve(address,uint256)": {
        "details": "See {IERC721-approve}."
      },
      "balanceOf(address)": {
        "details": "See {IERC721-balanceOf}."
      },
      "baseURI()": {
        "details": "Returns the base URI set via {_setBaseURI}. This will be automatically added as a prefix in {tokenURI} to each token's URI, or to the token ID if no specific URI is set for that token ID."
      },
      "getApproved(uint256)": {
        "details": "See {IERC721-getApproved}."
      },
      "getRoleAdmin(bytes32)": {
        "details": "Returns the admin role that controls `role`. See {grantRole} and {revokeRole}. To change a role's admin, use {_setRoleAdmin}."
      },
      "getRoleMember(bytes32,uint256)": {
        "details": "Returns one of the accounts that have `role`. `index` must be a value between 0 and {getRoleMemberCount}, non-inclusive. Role bearers are not sorted in any particular way, and their ordering may change at any point. WARNING: When using {getRoleMember} and {getRoleMemberCount}, make sure you perform all queries on the same block. See the following https://forum.openzeppelin.com/t/iterating-over-elements-on-enumerableset-in-openzeppelin-contracts/2296[forum post] for more information."
      },
      "getRoleMemberCount(bytes32)": {
        "details": "Returns the number of accounts that have `role`. Can be used together with {getRoleMember} to enumerate all bearers of a role."
      },
      "grantRole(bytes32,address)": {
        "details": "Grants `role` to `account`. If `account` had not been already granted `role`, emits a {RoleGranted} event. Requirements: - the caller must have ``role``'s admin role."
      },
      "hasRole(bytes32,address)": {
        "details": "Returns `true` if `account` has been granted `role`."
      },
      "isApprovedForAll(address,address)": {
        "details": "See {IERC721-isApprovedForAll}."
      },
      "name()": {
        "details": "See {IERC721Metadata-name}."
      },
      "ownerOf(uint256)": {
        "details": "See {IERC721-ownerOf}."
      },
      "renounceRole(bytes32,address)": {
        "details": "Revokes `role` from the calling account. Roles are often managed via {grantRole} and {revokeRole}: this function's purpose is to provide a mechanism for accounts to lose their privileges if they are compromised (such as when a trusted device is misplaced). If the calling account had been granted `role`, emits a {RoleRevoked} event. Requirements: - the caller must be `account`."
      },
      "revokeRole(bytes32,address)": {
        "details": "Revokes `role` from `account`. If `account` had been granted `role`, emits a {RoleRevoked} event. Requirements: - the caller must have ``role``'s admin role."
      },
      "setApprovalForAll(address,bool)": {
        "details": "See {IERC721-setApprovalForAll}."
      },
      "supportsInterface(bytes4)": {
        "details": "See {IERC165-supportsInterface}. Time complexity O(1), guaranteed to always use less than 30 000 gas."
      },
      "symbol()": {
        "details": "See {IERC721Metadata-symbol}."
      },
      "tokenByIndex(uint256)": {
        "details": "See {IERC721Enumerable-tokenByIndex}."
      },
      "tokenOfOwnerByIndex(address,uint256)": {
        "details": "See {IERC721Enumerable-tokenOfOwnerByIndex}."
      },
      "tokenURI(uint256)": {
        "details": "See {IERC721Metadata-tokenURI}."
      },
      "totalSupply()": {
        "details": "See {IERC721Enumerable-totalSupply}."
      },
      "transferFrom(address,address,uint256)": {
        "details": "See {IERC721-transferFrom}."
      }
    },
    "version": 1
  },
  "userdoc": {
    "kind": "user",
    "methods": {
      "approveAll(address)": {
        "notice": "this function allows to approve all the tokens the address owns at once"
      },
      "approveMany(address,uint256[])": {
        "notice": "this function allows to approve more than one token id at once"
      },
      "assignDataToToken(uint256,string)": {
        "notice": "this function assignes the URI to automatically add the id number at the end of the URI"
      },
      "burn(uint256)": {
        "notice": "this function allows you burn your NFT  "
      },
      "constructor": {
        "notice": "a registry function that iis been called by the NFT registry smart contract"
      },
      "getMetadataAtID(uint256)": {
        "notice": "this function helps with queries to Fetch the metadata for a givine token id"
      },
      "mint(string)": {
        "notice": "this function allows to mint more of your NFT  "
      },
      "safeTransferFrom(address,address,uint256)": {
        "notice": "this overload function allows to transfer tokens and updates all the mapping queries(without filling the URI)  "
      },
      "safeTransferFrom(address,address,uint256,bytes)": {
        "notice": "this overload function allows to transfer tokens and updates all the mapping queries(with filling the URI)  "
      },
      "tokensOf(address)": {
        "notice": "this function helps with queries to Fetch all the tokens that the address owns by givine address"
      }
    },
    "version": 1
  }
}