{
  "contractName": "CifiPowa",
  "abi": [
    {
      "inputs": [],
      "stateMutability": "nonpayable",
      "type": "constructor"
    },
    {
      "anonymous": false,
      "inputs": [
        {
          "indexed": true,
          "internalType": "address",
          "name": "owner",
          "type": "address"
        },
        {
          "indexed": true,
          "internalType": "address",
          "name": "approved",
          "type": "address"
        },
        {
          "indexed": true,
          "internalType": "uint256",
          "name": "tokenId",
          "type": "uint256"
        }
      ],
      "name": "Approval",
      "type": "event"
    },
    {
      "anonymous": false,
      "inputs": [
        {
          "indexed": true,
          "internalType": "address",
          "name": "owner",
          "type": "address"
        },
        {
          "indexed": true,
          "internalType": "address",
          "name": "operator",
          "type": "address"
        },
        {
          "indexed": false,
          "internalType": "bool",
          "name": "approved",
          "type": "bool"
        }
      ],
      "name": "ApprovalForAll",
      "type": "event"
    },
    {
      "anonymous": false,
      "inputs": [
        {
          "indexed": true,
          "internalType": "address",
          "name": "_owner",
          "type": "address"
        },
        {
          "indexed": false,
          "internalType": "uint256",
          "name": "_tokenId",
          "type": "uint256"
        },
        {
          "indexed": false,
          "internalType": "string",
          "name": "_url",
          "type": "string"
        }
      ],
      "name": "MetadataAssigned",
      "type": "event"
    },
    {
      "anonymous": false,
      "inputs": [
        {
          "indexed": false,
          "internalType": "string",
          "name": "url",
          "type": "string"
        }
      ],
      "name": "Mint",
      "type": "event"
    },
    {
      "anonymous": false,
      "inputs": [
        {
          "indexed": true,
          "internalType": "bytes32",
          "name": "role",
          "type": "bytes32"
        },
        {
          "indexed": true,
          "internalType": "bytes32",
          "name": "previousAdminRole",
          "type": "bytes32"
        },
        {
          "indexed": true,
          "internalType": "bytes32",
          "name": "newAdminRole",
          "type": "bytes32"
        }
      ],
      "name": "RoleAdminChanged",
      "type": "event"
    },
    {
      "anonymous": false,
      "inputs": [
        {
          "indexed": true,
          "internalType": "bytes32",
          "name": "role",
          "type": "bytes32"
        },
        {
          "indexed": true,
          "internalType": "address",
          "name": "account",
          "type": "address"
        },
        {
          "indexed": true,
          "internalType": "address",
          "name": "sender",
          "type": "address"
        }
      ],
      "name": "RoleGranted",
      "type": "event"
    },
    {
      "anonymous": false,
      "inputs": [
        {
          "indexed": true,
          "internalType": "bytes32",
          "name": "role",
          "type": "bytes32"
        },
        {
          "indexed": true,
          "internalType": "address",
          "name": "account",
          "type": "address"
        },
        {
          "indexed": true,
          "internalType": "address",
          "name": "sender",
          "type": "address"
        }
      ],
      "name": "RoleRevoked",
      "type": "event"
    },
    {
      "anonymous": false,
      "inputs": [
        {
          "indexed": true,
          "internalType": "address",
          "name": "from",
          "type": "address"
        },
        {
          "indexed": true,
          "internalType": "address",
          "name": "to",
          "type": "address"
        },
        {
          "indexed": true,
          "internalType": "uint256",
          "name": "tokenId",
          "type": "uint256"
        }
      ],
      "name": "Transfer",
      "type": "event"
    },
    {
      "inputs": [],
      "name": "DEFAULT_ADMIN_ROLE",
      "outputs": [
        {
          "internalType": "bytes32",
          "name": "",
          "type": "bytes32"
        }
      ],
      "stateMutability": "view",
      "type": "function",
      "constant": true
    },
    {
      "inputs": [],
      "name": "Nftcreator",
      "outputs": [
        {
          "internalType": "address",
          "name": "",
          "type": "address"
        }
      ],
      "stateMutability": "view",
      "type": "function",
      "constant": true
    },
    {
      "inputs": [],
      "name": "Nftdescription",
      "outputs": [
        {
          "internalType": "string",
          "name": "",
          "type": "string"
        }
      ],
      "stateMutability": "view",
      "type": "function",
      "constant": true
    },
    {
      "inputs": [],
      "name": "Nftname",
      "outputs": [
        {
          "internalType": "string",
          "name": "",
          "type": "string"
        }
      ],
      "stateMutability": "view",
      "type": "function",
      "constant": true
    },
    {
      "inputs": [],
      "name": "Nftsymbol",
      "outputs": [
        {
          "internalType": "string",
          "name": "",
          "type": "string"
        }
      ],
      "stateMutability": "view",
      "type": "function",
      "constant": true
    },
    {
      "inputs": [],
      "name": "Nfturi",
      "outputs": [
        {
          "internalType": "string",
          "name": "",
          "type": "string"
        }
      ],
      "stateMutability": "view",
      "type": "function",
      "constant": true
    },
    {
      "inputs": [
        {
          "internalType": "address",
          "name": "to",
          "type": "address"
        },
        {
          "internalType": "uint256",
          "name": "tokenId",
          "type": "uint256"
        }
      ],
      "name": "approve",
      "outputs": [],
      "stateMutability": "nonpayable",
      "type": "function"
    },
    {
      "inputs": [
        {
          "internalType": "address",
          "name": "owner",
          "type": "address"
        }
      ],
      "name": "balanceOf",
      "outputs": [
        {
          "internalType": "uint256",
          "name": "",
          "type": "uint256"
        }
      ],
      "stateMutability": "view",
      "type": "function",
      "constant": true
    },
    {
      "inputs": [],
      "name": "baseURI",
      "outputs": [
        {
          "internalType": "string",
          "name": "",
          "type": "string"
        }
      ],
      "stateMutability": "view",
      "type": "function",
      "constant": true
    },
    {
      "inputs": [
        {
          "internalType": "uint256",
          "name": "tokenId",
          "type": "uint256"
        }
      ],
      "name": "getApproved",
      "outputs": [
        {
          "internalType": "address",
          "name": "",
          "type": "address"
        }
      ],
      "stateMutability": "view",
      "type": "function",
      "constant": true
    },
    {
      "inputs": [
        {
          "internalType": "bytes32",
          "name": "role",
          "type": "bytes32"
        }
      ],
      "name": "getRoleAdmin",
      "outputs": [
        {
          "internalType": "bytes32",
          "name": "",
          "type": "bytes32"
        }
      ],
      "stateMutability": "view",
      "type": "function",
      "constant": true
    },
    {
      "inputs": [
        {
          "internalType": "bytes32",
          "name": "role",
          "type": "bytes32"
        },
        {
          "internalType": "uint256",
          "name": "index",
          "type": "uint256"
        }
      ],
      "name": "getRoleMember",
      "outputs": [
        {
          "internalType": "address",
          "name": "",
          "type": "address"
        }
      ],
      "stateMutability": "view",
      "type": "function",
      "constant": true
    },
    {
      "inputs": [
        {
          "internalType": "bytes32",
          "name": "role",
          "type": "bytes32"
        }
      ],
      "name": "getRoleMemberCount",
      "outputs": [
        {
          "internalType": "uint256",
          "name": "",
          "type": "uint256"
        }
      ],
      "stateMutability": "view",
      "type": "function",
      "constant": true
    },
    {
      "inputs": [
        {
          "internalType": "bytes32",
          "name": "role",
          "type": "bytes32"
        },
        {
          "internalType": "address",
          "name": "account",
          "type": "address"
        }
      ],
      "name": "grantRole",
      "outputs": [],
      "stateMutability": "nonpayable",
      "type": "function"
    },
    {
      "inputs": [
        {
          "internalType": "bytes32",
          "name": "role",
          "type": "bytes32"
        },
        {
          "internalType": "address",
          "name": "account",
          "type": "address"
        }
      ],
      "name": "hasRole",
      "outputs": [
        {
          "internalType": "bool",
          "name": "",
          "type": "bool"
        }
      ],
      "stateMutability": "view",
      "type": "function",
      "constant": true
    },
    {
      "inputs": [
        {
          "internalType": "address",
          "name": "owner",
          "type": "address"
        },
        {
          "internalType": "address",
          "name": "operator",
          "type": "address"
        }
      ],
      "name": "isApprovedForAll",
      "outputs": [
        {
          "internalType": "bool",
          "name": "",
          "type": "bool"
        }
      ],
      "stateMutability": "view",
      "type": "function",
      "constant": true
    },
    {
      "inputs": [],
      "name": "name",
      "outputs": [
        {
          "internalType": "string",
          "name": "",
          "type": "string"
        }
      ],
      "stateMutability": "view",
      "type": "function",
      "constant": true
    },
    {
      "inputs": [
        {
          "internalType": "uint256",
          "name": "tokenId",
          "type": "uint256"
        }
      ],
      "name": "ownerOf",
      "outputs": [
        {
          "internalType": "address",
          "name": "",
          "type": "address"
        }
      ],
      "stateMutability": "view",
      "type": "function",
      "constant": true
    },
    {
      "inputs": [
        {
          "internalType": "bytes32",
          "name": "role",
          "type": "bytes32"
        },
        {
          "internalType": "address",
          "name": "account",
          "type": "address"
        }
      ],
      "name": "renounceRole",
      "outputs": [],
      "stateMutability": "nonpayable",
      "type": "function"
    },
    {
      "inputs": [
        {
          "internalType": "bytes32",
          "name": "role",
          "type": "bytes32"
        },
        {
          "internalType": "address",
          "name": "account",
          "type": "address"
        }
      ],
      "name": "revokeRole",
      "outputs": [],
      "stateMutability": "nonpayable",
      "type": "function"
    },
    {
      "inputs": [
        {
          "internalType": "address",
          "name": "operator",
          "type": "address"
        },
        {
          "internalType": "bool",
          "name": "approved",
          "type": "bool"
        }
      ],
      "name": "setApprovalForAll",
      "outputs": [],
      "stateMutability": "nonpayable",
      "type": "function"
    },
    {
      "inputs": [
        {
          "internalType": "bytes4",
          "name": "interfaceId",
          "type": "bytes4"
        }
      ],
      "name": "supportsInterface",
      "outputs": [
        {
          "internalType": "bool",
          "name": "",
          "type": "bool"
        }
      ],
      "stateMutability": "view",
      "type": "function",
      "constant": true
    },
    {
      "inputs": [],
      "name": "symbol",
      "outputs": [
        {
          "internalType": "string",
          "name": "",
          "type": "string"
        }
      ],
      "stateMutability": "view",
      "type": "function",
      "constant": true
    },
    {
      "inputs": [
        {
          "internalType": "uint256",
          "name": "index",
          "type": "uint256"
        }
      ],
      "name": "tokenByIndex",
      "outputs": [
        {
          "internalType": "uint256",
          "name": "",
          "type": "uint256"
        }
      ],
      "stateMutability": "view",
      "type": "function",
      "constant": true
    },
    {
      "inputs": [
        {
          "internalType": "address",
          "name": "owner",
          "type": "address"
        },
        {
          "internalType": "uint256",
          "name": "index",
          "type": "uint256"
        }
      ],
      "name": "tokenOfOwnerByIndex",
      "outputs": [
        {
          "internalType": "uint256",
          "name": "",
          "type": "uint256"
        }
      ],
      "stateMutability": "view",
      "type": "function",
      "constant": true
    },
    {
      "inputs": [
        {
          "internalType": "uint256",
          "name": "tokenId",
          "type": "uint256"
        }
      ],
      "name": "tokenURI",
      "outputs": [
        {
          "internalType": "string",
          "name": "",
          "type": "string"
        }
      ],
      "stateMutability": "view",
      "type": "function",
      "constant": true
    },
    {
      "inputs": [],
      "name": "totalSupply",
      "outputs": [
        {
          "internalType": "uint256",
          "name": "",
          "type": "uint256"
        }
      ],
      "stateMutability": "view",
      "type": "function",
      "constant": true
    },
    {
      "inputs": [
        {
          "internalType": "address",
          "name": "from",
          "type": "address"
        },
        {
          "internalType": "address",
          "name": "to",
          "type": "address"
        },
        {
          "internalType": "uint256",
          "name": "tokenId",
          "type": "uint256"
        }
      ],
      "name": "transferFrom",
      "outputs": [],
      "stateMutability": "nonpayable",
      "type": "function"
    },
    {
      "inputs": [
        {
          "internalType": "uint256",
          "name": "id",
          "type": "uint256"
        },
        {
          "internalType": "string",
          "name": "uri",
          "type": "string"
        }
      ],
      "name": "assignDataToToken",
      "outputs": [],
      "stateMutability": "nonpayable",
      "type": "function"
    },
    {
      "inputs": [
        {
          "internalType": "uint256",
          "name": "_tokenId",
          "type": "uint256"
        }
      ],
      "name": "getMetadataAtID",
      "outputs": [
        {
          "internalType": "string",
          "name": "",
          "type": "string"
        }
      ],
      "stateMutability": "view",
      "type": "function",
      "constant": true
    },
    {
      "inputs": [
        {
          "internalType": "address",
          "name": "_owner",
          "type": "address"
        }
      ],
      "name": "tokensOf",
      "outputs": [
        {
          "internalType": "uint256[]",
          "name": "",
          "type": "uint256[]"
        }
      ],
      "stateMutability": "view",
      "type": "function",
      "constant": true
    },
    {
      "inputs": [
        {
          "internalType": "address",
          "name": "_to",
          "type": "address"
        },
        {
          "internalType": "uint256[]",
          "name": "_tokenIds",
          "type": "uint256[]"
        }
      ],
      "name": "approveMany",
      "outputs": [],
      "stateMutability": "nonpayable",
      "type": "function"
    },
    {
      "inputs": [
        {
          "internalType": "address",
          "name": "_to",
          "type": "address"
        }
      ],
      "name": "approveAll",
      "outputs": [],
      "stateMutability": "nonpayable",
      "type": "function"
    },
    {
      "inputs": [
        {
          "internalType": "address",
          "name": "from",
          "type": "address"
        },
        {
          "internalType": "address",
          "name": "to",
          "type": "address"
        },
        {
          "internalType": "uint256",
          "name": "tokenId",
          "type": "uint256"
        }
      ],
      "name": "safeTransferFrom",
      "outputs": [],
      "stateMutability": "nonpayable",
      "type": "function"
    },
    {
      "inputs": [
        {
          "internalType": "address",
          "name": "from",
          "type": "address"
        },
        {
          "internalType": "address",
          "name": "to",
          "type": "address"
        },
        {
          "internalType": "uint256",
          "name": "tokenId",
          "type": "uint256"
        },
        {
          "internalType": "bytes",
          "name": "_data",
          "type": "bytes"
        }
      ],
      "name": "safeTransferFrom",
      "outputs": [],
      "stateMutability": "nonpayable",
      "type": "function"
    },
    {
      "inputs": [
        {
          "internalType": "string",
          "name": "url",
          "type": "string"
        }
      ],
      "name": "mint",
      "outputs": [],
      "stateMutability": "nonpayable",
      "type": "function"
    },
    {
      "inputs": [
        {
          "internalType": "uint256",
          "name": "_id",
          "type": "uint256"
        }
      ],
      "name": "burn",
      "outputs": [
        {
          "internalType": "bool",
          "name": "",
          "type": "bool"
        }
      ],
      "stateMutability": "nonpayable",
      "type": "function"
    }
  ],
  "bytecode": "0x60806040526000600f553480156200001657600080fd5b50604080518082018252600881526743696669706f776160c01b60208083019190915282518084019093526004835263504f574160e01b9083015290620000646301ffc9a760e01b620001df565b8151620000799060069060208501906200037a565b5080516200008f9060079060208401906200037a565b50620000a26380ac58cd60e01b620001df565b620000b4635b5e139f60e01b620001df565b620000c663780e9d6360e01b620001df565b50506040805180820190915260088082526743696669706f776160c01b6020909201918252620000f991600b916200037a565b5060408051808201909152600480825263504f574160e01b60209092019182526200012791600c916200037a565b506040805180820190915260108082526f696e697469616c2043696669706f776160801b60209092019182526200016191600d916200037a565b506040518060600160405280602481526020016200332a6024913980516200019291600e916020909101906200037a565b506200019d62000264565b601080546001600160a01b0319166001600160a01b03929092169190911790556000600f819055620001d990620001d362000264565b62000268565b62000426565b6001600160e01b031980821614156200023f576040805162461bcd60e51b815260206004820152601c60248201527f4552433136353a20696e76616c696420696e7465726661636520696400000000604482015290519081900360640190fd5b6001600160e01b0319166000908152602081905260409020805460ff19166001179055565b3390565b62000274828262000278565b5050565b6000828152600a602090815260409091206200029f91839062001595620002f3821b17901c565b156200027457620002af62000264565b6001600160a01b0316816001600160a01b0316837f2f8788117e7eff1d82e926ec794901d17c78024a50270940304540a733656f0d60405160405180910390a45050565b60006200030a836001600160a01b03841662000313565b90505b92915050565b600062000321838362000362565b62000359575081546001818101845560008481526020808220909301849055845484825282860190935260409020919091556200030d565b5060006200030d565b60009081526001919091016020526040902054151590565b828054600181600116156101000203166002900490600052602060002090601f016020900481019282620003b25760008555620003fd565b82601f10620003cd57805160ff1916838001178555620003fd565b82800160010185558215620003fd579182015b82811115620003fd578251825591602001919060010190620003e0565b506200040b9291506200040f565b5090565b5b808211156200040b576000815560010162000410565b612ef480620004366000396000f3fe608060405234801561001057600080fd5b50600436106102275760003560e01c80636c0360eb11610130578063b88d4fde116100b8578063d547741f1161007c578063d547741f1461046a578063d85d3d271461047d578063e268cd2414610490578063e69c20cf146104a3578063e985e9c5146104b657610227565b8063b88d4fde14610421578063b9cba39314610434578063c87b56dd1461043c578063ca15c8731461044f578063cffb1a5c1461046257610227565b806391d14854116100ff57806391d14854146103d857806395d89b41146103eb57806399bb8134146103f3578063a217fddf14610406578063a22cb4651461040e57610227565b80636c0360eb146103a257806370a08231146103aa5780638e8ca30a146103bd5780639010d07c146103c557610227565b80632f2ff15d116101b357806342966c681161018257806342966c68146103415780634f6ccce7146103545780635a3f26721461036757806362601e89146103875780636352211e1461038f57610227565b80632f2ff15d146102f55780632f745c591461030857806336568abe1461031b57806342842e0e1461032e57610227565b8063095ea7b3116101fa578063095ea7b31461029f5780631085cbb6146102b257806318160ddd146102ba57806323b872dd146102cf578063248a9ca3146102e257610227565b806301ffc9a71461022c5780630621472c1461025557806306fdde031461026a578063081812fc1461027f575b600080fd5b61023f61023a366004612985565b6104c9565b60405161024c9190612ad8565b60405180910390f35b610268610263366004612726565b6104ec565b005b61027261052f565b60405161024c9190612aec565b61029261028d36600461292a565b6105c5565b60405161024c9190612a80565b6102686102ad366004612901565b610627565b6102726106f8565b6102c2610786565b60405161024c9190612ae3565b6102686102dd366004612772565b610797565b6102c26102f036600461292a565b6107ee565b610268610303366004612942565b610803565b6102c2610316366004612901565b61086a565b610268610329366004612942565b610895565b61026861033c366004612772565b6108f6565b61023f61034f36600461292a565b610966565b6102c261036236600461292a565b610979565b61037a610375366004612726565b61098f565b60405161024c9190612a94565b610272610a21565b61029261039d36600461292a565b610a7c565b610272610aa4565b6102c26103b8366004612726565b610b05565b610272610b6d565b6102926103d3366004612964565b610bc8565b61023f6103e6366004612942565b610be0565b610272610bf8565b610268610401366004612813565b610c59565b6102c2610c7d565b61026861041c3660046128c7565b610c82565b61026861042f3660046127ad565b610d87565b610292610f97565b61027261044a36600461292a565b610fa6565b6102c261045d36600461292a565b611229565b610272611240565b610268610478366004612942565b61129b565b61026861048b3660046129ad565b6112f4565b61027261049e36600461292a565b61139e565b6102686104b13660046129e0565b611435565b61023f6104c4366004612740565b611567565b6001600160e01b0319811660009081526020819052604090205460ff165b919050565b60606104f73361098f565b905060005b815181101561052a576105228383838151811061051557fe5b6020026020010151610627565b6001016104fc565b505050565b60068054604080516020601f60026000196101006001881615020190951694909404938401819004810282018101909252828152606093909290918301828280156105bb5780601f10610590576101008083540402835291602001916105bb565b820191906000526020600020905b81548152906001019060200180831161059e57829003601f168201915b5050505050905090565b60006105d0826115aa565b61060b5760405162461bcd60e51b815260040180806020018281038252602c815260200180612dba602c913960400191505060405180910390fd5b506000908152600460205260409020546001600160a01b031690565b600061063282610a7c565b9050806001600160a01b0316836001600160a01b031614156106855760405162461bcd60e51b8152600401808060200182810382526021815260200180612e3e6021913960400191505060405180910390fd5b806001600160a01b03166106976115b7565b6001600160a01b031614806106b357506106b3816104c46115b7565b6106ee5760405162461bcd60e51b8152600401808060200182810382526038815260200180612d0d6038913960400191505060405180910390fd5b61052a83836115bb565b600d805460408051602060026001851615610100026000190190941693909304601f8101849004840282018401909252818152929183018282801561077e5780601f106107535761010080835404028352916020019161077e565b820191906000526020600020905b81548152906001019060200180831161076157829003601f168201915b505050505081565b60006107926002611629565b905090565b6107a86107a26115b7565b82611634565b6107e35760405162461bcd60e51b8152600401808060200182810382526031815260200180612e5f6031913960400191505060405180910390fd5b61052a8383836116d8565b6000908152600a602052604090206002015490565b6000828152600a6020526040902060020154610821906103e66115b7565b61085c5760405162461bcd60e51b815260040180806020018281038252602f815260200180612c2c602f913960400191505060405180910390fd5b6108668282611824565b5050565b6001600160a01b038216600090815260016020526040812061088c908361188d565b90505b92915050565b61089d6115b7565b6001600160a01b0316816001600160a01b0316146108ec5760405162461bcd60e51b815260040180806020018281038252602f815260200180612e90602f913960400191505060405180910390fd5b6108668282611899565b6001600160a01b0383166109255760405162461bcd60e51b815260040161091c90612b26565b60405180910390fd5b6001600160a01b03821661094b5760405162461bcd60e51b815260040161091c90612b26565b61052a83838360405180602001604052806000815250610d87565b600061097182611902565b506001919050565b6000806109876002846119cf565b509392505050565b60606001600160a01b0382166109b75760405162461bcd60e51b815260040161091c90612aff565b6001600160a01b03821660009081526011602090815260409182902080548351818402810184019094528084529091830182828015610a1557602002820191906000526020600020905b815481526020019060010190808311610a01575b50505050509050919050565b600b805460408051602060026001851615610100026000190190941693909304601f8101849004840282018401909252818152929183018282801561077e5780601f106107535761010080835404028352916020019161077e565b600061088f82604051806060016040528060298152602001612d6f60299139600291906119eb565b60098054604080516020601f60026000196101006001881615020190951694909404938401819004810282018101909252828152606093909290918301828280156105bb5780601f10610590576101008083540402835291602001916105bb565b60006001600160a01b038216610b4c5760405162461bcd60e51b815260040180806020018281038252602a815260200180612d45602a913960400191505060405180910390fd5b6001600160a01b038216600090815260016020526040902061088f90611629565b600e805460408051602060026001851615610100026000190190941693909304601f8101849004840282018401909252818152929183018282801561077e5780601f106107535761010080835404028352916020019161077e565b6000828152600a6020526040812061088c908361188d565b6000828152600a6020526040812061088c9083611a02565b60078054604080516020601f60026000196101006001881615020190951694909404938401819004810282018101909252828152606093909290918301828280156105bb5780601f10610590576101008083540402835291602001916105bb565b60005b815181101561052a57610c758383838151811061051557fe5b600101610c5c565b600081565b610c8a6115b7565b6001600160a01b0316826001600160a01b03161415610cf0576040805162461bcd60e51b815260206004820152601960248201527f4552433732313a20617070726f766520746f2063616c6c657200000000000000604482015290519081900360640190fd5b8060056000610cfd6115b7565b6001600160a01b03908116825260208083019390935260409182016000908120918716808252919093529120805460ff191692151592909217909155610d416115b7565b6001600160a01b03167f17307eab39ab6107e8899845ad3d59bd9653f200f220920489ca2b5937696c318360405180821515815260200191505060405180910390a35050565b610d98610d926115b7565b83611634565b610db45760405162461bcd60e51b815260040161091c90612b4f565b6001600160a01b038416610dda5760405162461bcd60e51b815260040161091c90612b26565b6001600160a01b038316610e005760405162461bcd60e51b815260040161091c90612b26565b610e0c84848484611a17565b6001600160a01b038416600090815260116020908152604091829020805483518184028101840190945280845260609392830182828015610e6c57602002820191906000526020600020905b815481526020019060010190808311610e58575b505050505090506060600182510367ffffffffffffffff81118015610e9057600080fd5b50604051908082528060200260200182016040528015610eba578160200160208202803683370190505b506001600160a01b038616600081815260116020908152604082208054600181018255818452918320909101889055919052805491925090610eff9082908190612546565b506000805b8451811015610f625786858281518110610f1a57fe5b602002602001015114610f5a57848181518110610f3357fe5b6020026020010151848380600101945081518110610f4d57fe5b6020026020010181815250505b600101610f04565b506001600160a01b03881660009081526011602090815260409091208451610f8c92860190612596565b505050505050505050565b6010546001600160a01b031681565b6060610fb1826115aa565b610fec5760405162461bcd60e51b815260040180806020018281038252602f815260200180612e0f602f913960400191505060405180910390fd5b60008281526008602090815260409182902080548351601f60026000196101006001861615020190931692909204918201849004840281018401909452808452606093928301828280156110815780601f1061105657610100808354040283529160200191611081565b820191906000526020600020905b81548152906001019060200180831161106457829003601f168201915b505050505090506060611092610aa4565b90508051600014156110a6575090506104e7565b8151156111675780826040516020018083805190602001908083835b602083106110e15780518252601f1990920191602091820191016110c2565b51815160209384036101000a600019018019909216911617905285519190930192850191508083835b602083106111295780518252601f19909201916020918201910161110a565b6001836020036101000a03801982511681845116808217855250505050505090500192505050604051602081830303815290604052925050506104e7565b8061117185611a6f565b6040516020018083805190602001908083835b602083106111a35780518252601f199092019160209182019101611184565b51815160209384036101000a600019018019909216911617905285519190930192850191508083835b602083106111eb5780518252601f1990920191602091820191016111cc565b6001836020036101000a0380198251168184511680821785525050505050509050019250505060405160208183030381529060405292505050919050565b6000818152600a6020526040812061088f90611629565b600c805460408051602060026001851615610100026000190190941693909304601f8101849004840282018401909252818152929183018282801561077e5780601f106107535761010080835404028352916020019161077e565b6000828152600a60205260409020600201546112b9906103e66115b7565b6108ec5760405162461bcd60e51b8152600401808060200182810382526030815260200180612cdd6030913960400191505060405180910390fd5b60006112fe610786565b905061130a3382611b4a565b3360008181526011602090815260408220805460018101825581845291832090910184905591905280546113419082908190612546565b5060008281526012602090815260409091208451611361928601906125d1565b507fc5e1d731c47dbd6a8c38e6ee9137792904eae9d20174034d1dc9a5781a0f855b836040516113919190612aec565b60405180910390a1505050565b60008181526012602090815260409182902080548351601f6002600019610100600186161502019093169290920491820184900484028101840190945280845260609392830182828015610a155780601f1061140857610100808354040283529160200191610a15565b820191906000526020600020905b8154815290600101906020018083116114165750939695505050505050565b6010546001600160a01b0316331461144c57600080fd5b606081905080604051806040016040528060018152602001602f60f81b81525060405160200161147d929190612a51565b60405160208183030381529060405290508061149884611c78565b6040516020016114a9929190612a51565b60408051601f1981840301815282820182526005835264173539b7b760d91b60208481019190915291519093506114e4928492909101612a51565b60408051601f1981840301815291815260008581526012602090815291902082519293506115169290918401906125d1565b5061152083610a7c565b6001600160a01b03167f533b52bf6683c1d8929816db9f4f8221ca670c6815cbd30bd5e92b4b8eb09578848360405161155a929190612ba0565b60405180910390a2505050565b6001600160a01b03918216600090815260056020908152604080832093909416825291909152205460ff1690565b600061088c836001600160a01b038416611db1565b600061088f600283611dfb565b3390565b600081815260046020526040902080546001600160a01b0319166001600160a01b03841690811790915581906115f082610a7c565b6001600160a01b03167f8c5be1e5ebec7d5bd14f71427d1e84f3dd0314c0f7b2291e5b200ac8c7c3b92560405160405180910390a45050565b600061088f82611e07565b600061163f826115aa565b61167a5760405162461bcd60e51b815260040180806020018281038252602c815260200180612cb1602c913960400191505060405180910390fd5b600061168583610a7c565b9050806001600160a01b0316846001600160a01b031614806116c05750836001600160a01b03166116b5846105c5565b6001600160a01b0316145b806116d057506116d08185611567565b949350505050565b826001600160a01b03166116eb82610a7c565b6001600160a01b0316146117305760405162461bcd60e51b8152600401808060200182810382526029815260200180612de66029913960400191505060405180910390fd5b6001600160a01b0382166117755760405162461bcd60e51b8152600401808060200182810382526024815260200180612c8d6024913960400191505060405180910390fd5b61178083838361052a565b61178b6000826115bb565b6001600160a01b03831660009081526001602052604090206117ad9082611e0b565b506001600160a01b03821660009081526001602052604090206117d09082611e17565b506117dd60028284611e23565b5080826001600160a01b0316846001600160a01b03167fddf252ad1be2c89b69c2b068fc378daa952ba7f163c4a11628f55a4df523b3ef60405160405180910390a4505050565b6000828152600a6020526040902061183c9082611595565b15610866576118496115b7565b6001600160a01b0316816001600160a01b0316837f2f8788117e7eff1d82e926ec794901d17c78024a50270940304540a733656f0d60405160405180910390a45050565b600061088c8383611e39565b6000828152600a602052604090206118b19082611e9d565b15610866576118be6115b7565b6001600160a01b0316816001600160a01b0316837ff6391f5c32d9c69d2a47ea670b442974b53935d1edc7fd64eb21e047a839171b60405160405180910390a45050565b600061190d82610a7c565b905061191b8160008461052a565b6119266000836115bb565b60008281526008602052604090205460026000196101006001841615020190911604156119645760008281526008602052604081206119649161264c565b6001600160a01b03811660009081526001602052604090206119869083611e0b565b50611992600283611eb2565b5060405182906000906001600160a01b038416907fddf252ad1be2c89b69c2b068fc378daa952ba7f163c4a11628f55a4df523b3ef908390a45050565b60008080806119de8686611ebe565b9097909650945050505050565b60006119f8848484611f39565b90505b9392505050565b600061088c836001600160a01b038416612003565b611a228484846116d8565b611a2e8484848461201b565b611a695760405162461bcd60e51b8152600401808060200182810382526032815260200180612c5b6032913960400191505060405180910390fd5b50505050565b606081611a9457506040805180820190915260018152600360fc1b60208201526104e7565b8160005b8115611aac57600101600a82049150611a98565b60608167ffffffffffffffff81118015611ac557600080fd5b506040519080825280601f01601f191660200182016040528015611af0576020820181803683370190505b50859350905060001982015b8315611b4157600a840660300160f81b82828060019003935081518110611b1f57fe5b60200101906001600160f81b031916908160001a905350600a84049350611afc565b50949350505050565b6001600160a01b038216611ba5576040805162461bcd60e51b815260206004820181905260248201527f4552433732313a206d696e7420746f20746865207a65726f2061646472657373604482015290519081900360640190fd5b611bae816115aa565b15611c00576040805162461bcd60e51b815260206004820152601c60248201527f4552433732313a20746f6b656e20616c7265616479206d696e74656400000000604482015290519081900360640190fd5b611c0c6000838361052a565b6001600160a01b0382166000908152600160205260409020611c2e9082611e17565b50611c3b60028284611e23565b5060405181906001600160a01b038416906000907fddf252ad1be2c89b69c2b068fc378daa952ba7f163c4a11628f55a4df523b3ef908290a45050565b60408051606480825260a0820190925260609190829082602082018180368337019050509050600084611cc957604051806040016040528060018152602001600360fc1b81525093505050506104e7565b8415611d0f578151600a808704966001840193919006916030830160f81b9185918110611cf257fe5b60200101906001600160f81b031916908160001a90535050611cc9565b60608160010167ffffffffffffffff81118015611d2b57600080fd5b506040519080825280601f01601f191660200182016040528015611d56576020820181803683370190505b50905060005b828111611da7578381840381518110611d7157fe5b602001015160f81c60f81b828281518110611d8857fe5b60200101906001600160f81b031916908160001a905350600101611d5c565b5095945050505050565b6000611dbd8383612003565b611df35750815460018181018455600084815260208082209093018490558454848252828601909352604090209190915561088f565b50600061088f565b600061088c8383612003565b5490565b600061088c8383612183565b600061088c8383611db1565b60006119f884846001600160a01b038516612249565b81546000908210611e7b5760405162461bcd60e51b8152600401808060200182810382526022815260200180612c0a6022913960400191505060405180910390fd5b826000018281548110611e8a57fe5b9060005260206000200154905092915050565b600061088c836001600160a01b038416612183565b600061088c83836122e0565b815460009081908310611f025760405162461bcd60e51b8152600401808060200182810382526022815260200180612d986022913960400191505060405180910390fd5b6000846000018481548110611f1357fe5b906000526020600020906002020190508060000154816001015492509250509250929050565b60008281526001840160205260408120548281611fd45760405162461bcd60e51b81526004018080602001828103825283818151815260200191508051906020019080838360005b83811015611f99578181015183820152602001611f81565b50505050905090810190601f168015611fc65780820380516001836020036101000a031916815260200191505b509250505060405180910390fd5b50846000016001820381548110611fe757fe5b9060005260206000209060020201600101549150509392505050565b60009081526001919091016020526040902054151590565b600061202f846001600160a01b03166123b4565b61203b575060016116d0565b6060612149630a85bd0160e11b6120506115b7565b88878760405160240180856001600160a01b03168152602001846001600160a01b0316815260200183815260200180602001828103825283818151815260200191508051906020019080838360005b838110156120b757818101518382015260200161209f565b50505050905090810190601f1680156120e45780820380516001836020036101000a031916815260200191505b5095505050505050604051602081830303815290604052906001600160e01b0319166020820180516001600160e01b038381831617835250505050604051806060016040528060328152602001612c5b603291396001600160a01b03881691906123ba565b9050600081806020019051602081101561216257600080fd5b50516001600160e01b031916630a85bd0160e11b1492505050949350505050565b6000818152600183016020526040812054801561223f57835460001980830191908101906000908790839081106121b657fe5b90600052602060002001549050808760000184815481106121d357fe5b60009182526020808320909101929092558281526001898101909252604090209084019055865487908061220357fe5b6001900381819060005260206000200160009055905586600101600087815260200190815260200160002060009055600194505050505061088f565b600091505061088f565b6000828152600184016020526040812054806122ae5750506040805180820182528381526020808201848152865460018181018955600089815284812095516002909302909501918255915190820155865486845281880190925292909120556119fb565b828560000160018303815481106122c157fe5b90600052602060002090600202016001018190555060009150506119fb565b6000818152600183016020526040812054801561223f578354600019808301919081019060009087908390811061231357fe5b906000526020600020906002020190508087600001848154811061233357fe5b60009182526020808320845460029093020191825560019384015491840191909155835482528983019052604090209084019055865487908061237257fe5b600082815260208082206002600019909401938402018281556001908101839055929093558881528982019092526040822091909155945061088f9350505050565b3b151590565b60606119f88484600085856123ce856123b4565b61241f576040805162461bcd60e51b815260206004820152601d60248201527f416464726573733a2063616c6c20746f206e6f6e2d636f6e7472616374000000604482015290519081900360640190fd5b60006060866001600160a01b031685876040518082805190602001908083835b6020831061245e5780518252601f19909201916020918201910161243f565b6001836020036101000a03801982511681845116808217855250505050505090500191505060006040518083038185875af1925050503d80600081146124c0576040519150601f19603f3d011682016040523d82523d6000602084013e6124c5565b606091505b50915091506124d58282866124e0565b979650505050505050565b606083156124ef5750816119fb565b8251156124ff5782518084602001fd5b60405162461bcd60e51b8152602060048201818152845160248401528451859391928392604401919085019080838360008315611f99578181015183820152602001611f81565b8280548282559060005260206000209081019282156125865760005260206000209182015b8281111561258657825482559160010191906001019061256b565b50612592929150612693565b5090565b828054828255906000526020600020908101928215612586579160200282015b828111156125865782518255916020019190600101906125b6565b828054600181600116156101000203166002900490600052602060002090601f0160209004810192826126075760008555612586565b82601f1061262057805160ff1916838001178555612586565b8280016001018555821561258657918201828111156125865782518255916020019190600101906125b6565b50805460018160011615610100020316600290046000825580601f106126725750612690565b601f0160209004906000526020600020908101906126909190612693565b50565b5b808211156125925760008155600101612694565b80356001600160a01b03811681146104e757600080fd5b600082601f8301126126cf578081fd5b813567ffffffffffffffff8111156126e357fe5b6126f6601f8201601f1916602001612bb9565b915080825283602082850101111561270d57600080fd5b8060208401602084013760009082016020015292915050565b600060208284031215612737578081fd5b61088c826126a8565b60008060408385031215612752578081fd5b61275b836126a8565b9150612769602084016126a8565b90509250929050565b600080600060608486031215612786578081fd5b61278f846126a8565b925061279d602085016126a8565b9150604084013590509250925092565b600080600080608085870312156127c2578081fd5b6127cb856126a8565b93506127d9602086016126a8565b925060408501359150606085013567ffffffffffffffff8111156127fb578182fd5b612807878288016126bf565b91505092959194509250565b60008060408385031215612825578182fd5b61282e836126a8565b915060208084013567ffffffffffffffff8082111561284b578384fd5b818601915086601f83011261285e578384fd5b81358181111561286a57fe5b838102915061287a848301612bb9565b8181528481019084860184860187018b1015612894578788fd5b8795505b838610156128b6578035835260019590950194918601918601612898565b508096505050505050509250929050565b600080604083850312156128d9578182fd5b6128e2836126a8565b9150602083013580151581146128f6578182fd5b809150509250929050565b60008060408385031215612913578182fd5b61291c836126a8565b946020939093013593505050565b60006020828403121561293b578081fd5b5035919050565b60008060408385031215612954578182fd5b82359150612769602084016126a8565b60008060408385031215612976578182fd5b50508035926020909101359150565b600060208284031215612996578081fd5b81356001600160e01b0319811681146119fb578182fd5b6000602082840312156129be578081fd5b813567ffffffffffffffff8111156129d4578182fd5b6116d0848285016126bf565b600080604083850312156129f2578182fd5b82359150602083013567ffffffffffffffff811115612a0f578182fd5b612a1b858286016126bf565b9150509250929050565b60008151808452612a3d816020860160208601612bdd565b601f01601f19169290920160200192915050565b60008351612a63818460208801612bdd565b835190830190612a77818360208801612bdd565b01949350505050565b6001600160a01b0391909116815260200190565b6020808252825182820181905260009190848201906040850190845b81811015612acc57835183529284019291840191600101612ab0565b50909695505050505050565b901515815260200190565b90815260200190565b60006020825261088c6020830184612a25565b6020808252600d908201526c34b73b30b634b21037bbb732b960991b604082015260600190565b6020808252600f908201526e696e76616c6964206164647265737360881b604082015260600190565b60208082526031908201527f4552433732313a207472616e736665722063616c6c6572206973206e6f74206f6040820152701ddb995c881b9bdc88185c1c1c9bdd9959607a1b606082015260800190565b6000838252604060208301526119f86040830184612a25565b60405181810167ffffffffffffffff81118282101715612bd557fe5b604052919050565b60005b83811015612bf8578181015183820152602001612be0565b83811115611a69575050600091015256fe456e756d657261626c655365743a20696e646578206f7574206f6620626f756e6473416363657373436f6e74726f6c3a2073656e646572206d75737420626520616e2061646d696e20746f206772616e744552433732313a207472616e7366657220746f206e6f6e20455243373231526563656976657220696d706c656d656e7465724552433732313a207472616e7366657220746f20746865207a65726f20616464726573734552433732313a206f70657261746f7220717565727920666f72206e6f6e6578697374656e7420746f6b656e416363657373436f6e74726f6c3a2073656e646572206d75737420626520616e2061646d696e20746f207265766f6b654552433732313a20617070726f76652063616c6c6572206973206e6f74206f776e6572206e6f7220617070726f76656420666f7220616c6c4552433732313a2062616c616e636520717565727920666f7220746865207a65726f20616464726573734552433732313a206f776e657220717565727920666f72206e6f6e6578697374656e7420746f6b656e456e756d657261626c654d61703a20696e646578206f7574206f6620626f756e64734552433732313a20617070726f76656420717565727920666f72206e6f6e6578697374656e7420746f6b656e4552433732313a207472616e73666572206f6620746f6b656e2074686174206973206e6f74206f776e4552433732314d657461646174613a2055524920717565727920666f72206e6f6e6578697374656e7420746f6b656e4552433732313a20617070726f76616c20746f2063757272656e74206f776e65724552433732313a207472616e736665722063616c6c6572206973206e6f74206f776e6572206e6f7220617070726f766564416363657373436f6e74726f6c3a2063616e206f6e6c792072656e6f756e636520726f6c657320666f722073656c66a26469706673582212206a605838333f72a34b3cd249d054ee496583f1db1136eaa4a134897acf99284964736f6c6343000704003377652063616e206a757374206164642075726c206f66206d657461646174612068657265",
  "immutableReferences": {},
  "source": "// SPDX-License-Identifier: MIT\npragma solidity >=0.4.22 <0.8.4;\npragma experimental ABIEncoderV2;\n\nimport \"@openzeppelin/contracts/token/ERC721/ERC721.sol\";\nimport \"@openzeppelin/contracts/access/AccessControl.sol\";\n\ncontract CifiPowa is ERC721,AccessControl {\n\n  string public Nftname;\n  string public Nftsymbol;\n  string public Nftdescription;\n  string public Nfturi;\n  // Total tokens starts at 0 because each new token must be minted and the\n  // _mint() call adds 1 to totalTokens\n  uint256 totalTokens = 0;\n\n  address public Nftcreator;\n\n  // Mapping from owner to list of owned token IDs\n  mapping(address => uint256[]) ownedTokens;\n\n  // Metadata is a URL that points to a json dictionary\n  mapping(uint256 => string) tokenIdToMetadata;\n\n  event MetadataAssigned(address indexed _owner, uint256 _tokenId, string _url);\n  event Mint(string url);\n\n  /**\n   * a registry function that iis been called by the NFT registry smart contract\n   */\n\n   constructor () ERC721(\"Cifipowa\",\"POWA\"){\n    Nftname =\"Cifipowa\";\n    Nftsymbol =\"POWA\";\n    Nftdescription =\"initial Cifipowa\";\n    Nfturi =\"we can just add url of metadata here\";\n    Nftcreator = _msgSender();\n    totalTokens = 0;\n    _setupRole(DEFAULT_ADMIN_ROLE, _msgSender());\n    } \n\n  /**\n   * this function assignes the URI to automatically add the id number at the end of the URI\n   */\n  function assignDataToToken(uint256 id, string memory uri) public {\n    require(msg.sender == Nftcreator);\n    bytes memory _url = bytes(uri);\n\n    _url = abi.encodePacked(_url, bytes(\"/\"));\n    _url = abi.encodePacked(_url, _uintToBytes(id));\n    _url = abi.encodePacked(_url, bytes(\".json\"));\n\n    tokenIdToMetadata[id] = string(_url);\n    MetadataAssigned(ownerOf(id), id, string(_url));\n  }\n\n  /**\n   * this function helps with queries to Fetch the metadata for a givine token id\n   */\n  function getMetadataAtID(uint256 _tokenId)\n    public\n    view\n    returns (string memory)\n  {\n    return tokenIdToMetadata[_tokenId];\n  }\n\n  /**\n   * this function helps with queries to Fetch all the tokens that the address owns by givine address\n   */\n  function tokensOf(address _owner) public view returns (uint256[] memory) {\n    require(_owner != address(0), \"invalid owner\");\n    return ownedTokens[_owner];\n  }\n\n\n  /**\n   * this function allows to approve more than one token id at once\n   */\n  function approveMany(address _to, uint256[] memory _tokenIds) public {\n    /* Allows bulk-approval of many tokens. This function is useful for\n       exchanges where users can make a single tx to enable the call of\n       transferFrom for those tokens by an exchange contract. */\n    for (uint256 i = 0; i < _tokenIds.length; i++) {\n      // approve handles the check for if one who is approving is the owner.\n      approve(_to, _tokenIds[i]);\n    }\n  }\n\n  /**\n   * this function allows to approve all the tokens the address owns at once\n   */\n  function approveAll(address _to) public {\n    uint256[] memory tokens = tokensOf(msg.sender);\n    for (uint256 t = 0; t < tokens.length; t++) {\n      approve(_to, tokens[t]);\n    }\n  }\n\n  /**\n   * this overload function allows to transfer tokens and updates all the mapping queries(without filling the URI)  \n   */\n  function safeTransferFrom(\n    address from,\n    address to,\n    uint256 tokenId\n  ) public virtual override {\n    require(from != address(0), \"invalid address\");\n    require(to != address(0), \"invalid address\");\n    // add require to make sure that the tokenid exsistes\n    safeTransferFrom(from, to, tokenId, \"\");\n  }\n\n  /**\n   * this overload function allows to transfer tokens and updates all the mapping queries(with filling the URI)  \n   */\n  function safeTransferFrom(\n    address from,\n    address to,\n    uint256 tokenId,\n    bytes memory _data\n  ) public virtual override {\n    require(\n      _isApprovedOrOwner(_msgSender(), tokenId),\n      \"ERC721: transfer caller is not owner nor approved\"\n    );\n    require(from != address(0), \"invalid address\");\n    require(to != address(0), \"invalid address\");\n    _safeTransfer(from, to, tokenId, _data);\n    uint256[] memory fromIds = ownedTokens[from];\n    uint256[] memory newFromIds = new uint256[](fromIds.length - 1);\n    uint256[] storage toIds = ownedTokens[to];\n    toIds.push(tokenId);\n    ownedTokens[to] = toIds;\n    uint256 j = 0;\n    for (uint256 i = 0; i < fromIds.length; i++) {\n      if (fromIds[i] != tokenId) newFromIds[j++] = (fromIds[i]);\n    }\n    ownedTokens[from] = newFromIds;\n  }\n\n  /**\n   * this function allows to mint more of your NFT  \n   */\n  function mint(string memory url) public {\n    uint256 currentTokenCount = totalSupply();\n    // The index of the newest token is at the # totalTokens.\n    _mint(msg.sender, currentTokenCount);\n    // assign address to array of owned tokens aned you can qury what ids the address owns\n    uint256[] storage ids = ownedTokens[msg.sender];\n    ids.push(currentTokenCount);\n    ownedTokens[msg.sender] = ids;\n    // _mint() call adds 1 to total tokens, but we want the token at index - 1\n    tokenIdToMetadata[currentTokenCount] = url;\n    emit Mint(url);\n  }\n\n  /**\n   * this function allows you burn your NFT  \n   */\n  function burn( uint256 _id) public returns (bool) {\n    _burn(_id);\n    return true;\n  }\n\n  /**\n   * this function is been created just to convert uint variable to bytes\n   *(private function only used in the \"assignDataToToken\" function in order to convert the uint variable to bytes\n   * in order to concatenate it )  \n   */\n  function _uintToBytes(uint256 _int) internal pure returns (bytes memory) {\n    uint256 maxlength = 100;\n    bytes memory reversed = new bytes(maxlength);\n    uint256 i = 0;\n    if (_int == 0) return bytes(\"0\");\n    while (_int != 0) {\n      uint256 remainder = _int % 10;\n      _int = _int / 10;\n      reversed[i++] = bytes1(uint8(48 + remainder));\n    }\n    bytes memory s = new bytes(i + 1);\n    for (uint256 j = 0; j <= i; j++) {\n      s[j] = reversed[i - j];\n    }\n    return s;\n  }\n\n  /**\n   * this function is been created just to convert small strings to capital \n   *(private function only used in functions that we want to make the symbol auto capital \n   * in order to concatenate it )  \n   */\n\n  function _upperCase(string memory enter)\n    internal\n    pure\n    returns (string memory)\n  {\n    bytes memory strbyte = bytes(enter);\n    for (uint256 i = 0; i < strbyte.length; i++) {\n      if (\n        uint8(strbyte[i]) >= uint8(bytes1(\"a\")) &&\n        uint8(strbyte[i]) <= uint8(bytes1(\"z\"))\n      ) strbyte[i] = bytes1(uint8(strbyte[i]) - 32);\n    }\n    enter = string(strbyte);\n    return enter;\n  }\n}",
  "sourcePath": "/Users/arpitshukla/internships/ARVRSE/NFT_Contract_Factory/src/contracts/CifiPowa.sol",
  "compiler": {
    "name": "solc",
    "version": "0.7.4+commit.3f05b770.Emscripten.clang"
  },
  "schemaVersion": "3.3.4",
  "updatedAt": "2021-04-14T02:18:48.551Z",
  "networkType": "ethereum",
  "devdoc": {
    "kind": "dev",
    "methods": {
      "approve(address,uint256)": {
        "details": "See {IERC721-approve}."
      },
      "balanceOf(address)": {
        "details": "See {IERC721-balanceOf}."
      },
      "baseURI()": {
        "details": "Returns the base URI set via {_setBaseURI}. This will be automatically added as a prefix in {tokenURI} to each token's URI, or to the token ID if no specific URI is set for that token ID."
      },
      "getApproved(uint256)": {
        "details": "See {IERC721-getApproved}."
      },
      "getRoleAdmin(bytes32)": {
        "details": "Returns the admin role that controls `role`. See {grantRole} and {revokeRole}. To change a role's admin, use {_setRoleAdmin}."
      },
      "getRoleMember(bytes32,uint256)": {
        "details": "Returns one of the accounts that have `role`. `index` must be a value between 0 and {getRoleMemberCount}, non-inclusive. Role bearers are not sorted in any particular way, and their ordering may change at any point. WARNING: When using {getRoleMember} and {getRoleMemberCount}, make sure you perform all queries on the same block. See the following https://forum.openzeppelin.com/t/iterating-over-elements-on-enumerableset-in-openzeppelin-contracts/2296[forum post] for more information."
      },
      "getRoleMemberCount(bytes32)": {
        "details": "Returns the number of accounts that have `role`. Can be used together with {getRoleMember} to enumerate all bearers of a role."
      },
      "grantRole(bytes32,address)": {
        "details": "Grants `role` to `account`. If `account` had not been already granted `role`, emits a {RoleGranted} event. Requirements: - the caller must have ``role``'s admin role."
      },
      "hasRole(bytes32,address)": {
        "details": "Returns `true` if `account` has been granted `role`."
      },
      "isApprovedForAll(address,address)": {
        "details": "See {IERC721-isApprovedForAll}."
      },
      "name()": {
        "details": "See {IERC721Metadata-name}."
      },
      "ownerOf(uint256)": {
        "details": "See {IERC721-ownerOf}."
      },
      "renounceRole(bytes32,address)": {
        "details": "Revokes `role` from the calling account. Roles are often managed via {grantRole} and {revokeRole}: this function's purpose is to provide a mechanism for accounts to lose their privileges if they are compromised (such as when a trusted device is misplaced). If the calling account had been granted `role`, emits a {RoleRevoked} event. Requirements: - the caller must be `account`."
      },
      "revokeRole(bytes32,address)": {
        "details": "Revokes `role` from `account`. If `account` had been granted `role`, emits a {RoleRevoked} event. Requirements: - the caller must have ``role``'s admin role."
      },
      "setApprovalForAll(address,bool)": {
        "details": "See {IERC721-setApprovalForAll}."
      },
      "supportsInterface(bytes4)": {
        "details": "See {IERC165-supportsInterface}. Time complexity O(1), guaranteed to always use less than 30 000 gas."
      },
      "symbol()": {
        "details": "See {IERC721Metadata-symbol}."
      },
      "tokenByIndex(uint256)": {
        "details": "See {IERC721Enumerable-tokenByIndex}."
      },
      "tokenOfOwnerByIndex(address,uint256)": {
        "details": "See {IERC721Enumerable-tokenOfOwnerByIndex}."
      },
      "tokenURI(uint256)": {
        "details": "See {IERC721Metadata-tokenURI}."
      },
      "totalSupply()": {
        "details": "See {IERC721Enumerable-totalSupply}."
      },
      "transferFrom(address,address,uint256)": {
        "details": "See {IERC721-transferFrom}."
      }
    },
    "version": 1
  },
  "userdoc": {
    "kind": "user",
    "methods": {
      "approveAll(address)": {
        "notice": "this function allows to approve all the tokens the address owns at once"
      },
      "approveMany(address,uint256[])": {
        "notice": "this function allows to approve more than one token id at once"
      },
      "assignDataToToken(uint256,string)": {
        "notice": "this function assignes the URI to automatically add the id number at the end of the URI"
      },
      "burn(uint256)": {
        "notice": "this function allows you burn your NFT  "
      },
      "constructor": {
        "notice": "a registry function that iis been called by the NFT registry smart contract"
      },
      "getMetadataAtID(uint256)": {
        "notice": "this function helps with queries to Fetch the metadata for a givine token id"
      },
      "mint(string)": {
        "notice": "this function allows to mint more of your NFT  "
      },
      "safeTransferFrom(address,address,uint256)": {
        "notice": "this overload function allows to transfer tokens and updates all the mapping queries(without filling the URI)  "
      },
      "safeTransferFrom(address,address,uint256,bytes)": {
        "notice": "this overload function allows to transfer tokens and updates all the mapping queries(with filling the URI)  "
      },
      "tokensOf(address)": {
        "notice": "this function helps with queries to Fetch all the tokens that the address owns by givine address"
      }
    },
    "version": 1
  }
}