{
  "contractName": "NftFactory",
  "abi": [
    {
      "inputs": [
        {
          "internalType": "string",
          "name": "_name",
          "type": "string"
        },
        {
          "internalType": "string",
          "name": "_symbol",
          "type": "string"
        },
        {
          "internalType": "string",
          "name": "_description",
          "type": "string"
        },
        {
          "internalType": "string",
          "name": "_uri",
          "type": "string"
        },
        {
          "internalType": "address",
          "name": "_caller",
          "type": "address"
        }
      ],
      "stateMutability": "nonpayable",
      "type": "constructor"
    },
    {
      "anonymous": false,
      "inputs": [
        {
          "indexed": true,
          "internalType": "address",
          "name": "owner",
          "type": "address"
        },
        {
          "indexed": true,
          "internalType": "address",
          "name": "approved",
          "type": "address"
        },
        {
          "indexed": true,
          "internalType": "uint256",
          "name": "tokenId",
          "type": "uint256"
        }
      ],
      "name": "Approval",
      "type": "event"
    },
    {
      "anonymous": false,
      "inputs": [
        {
          "indexed": true,
          "internalType": "address",
          "name": "owner",
          "type": "address"
        },
        {
          "indexed": true,
          "internalType": "address",
          "name": "operator",
          "type": "address"
        },
        {
          "indexed": false,
          "internalType": "bool",
          "name": "approved",
          "type": "bool"
        }
      ],
      "name": "ApprovalForAll",
      "type": "event"
    },
    {
      "anonymous": false,
      "inputs": [
        {
          "indexed": true,
          "internalType": "address",
          "name": "_owner",
          "type": "address"
        },
        {
          "indexed": false,
          "internalType": "uint256",
          "name": "_tokenId",
          "type": "uint256"
        },
        {
          "indexed": false,
          "internalType": "string",
          "name": "_url",
          "type": "string"
        }
      ],
      "name": "MetadataAssigned",
      "type": "event"
    },
    {
      "anonymous": false,
      "inputs": [
        {
          "indexed": false,
          "internalType": "string",
          "name": "url",
          "type": "string"
        }
      ],
      "name": "Mint",
      "type": "event"
    },
    {
      "anonymous": false,
      "inputs": [
        {
          "indexed": true,
          "internalType": "address",
          "name": "from",
          "type": "address"
        },
        {
          "indexed": true,
          "internalType": "address",
          "name": "to",
          "type": "address"
        },
        {
          "indexed": true,
          "internalType": "uint256",
          "name": "tokenId",
          "type": "uint256"
        }
      ],
      "name": "Transfer",
      "type": "event"
    },
    {
      "inputs": [],
      "name": "Nftcreator",
      "outputs": [
        {
          "internalType": "address",
          "name": "",
          "type": "address"
        }
      ],
      "stateMutability": "view",
      "type": "function"
    },
    {
      "inputs": [],
      "name": "Nftdescription",
      "outputs": [
        {
          "internalType": "string",
          "name": "",
          "type": "string"
        }
      ],
      "stateMutability": "view",
      "type": "function"
    },
    {
      "inputs": [],
      "name": "Nftname",
      "outputs": [
        {
          "internalType": "string",
          "name": "",
          "type": "string"
        }
      ],
      "stateMutability": "view",
      "type": "function"
    },
    {
      "inputs": [],
      "name": "Nftsymbol",
      "outputs": [
        {
          "internalType": "string",
          "name": "",
          "type": "string"
        }
      ],
      "stateMutability": "view",
      "type": "function"
    },
    {
      "inputs": [],
      "name": "Nfturi",
      "outputs": [
        {
          "internalType": "string",
          "name": "",
          "type": "string"
        }
      ],
      "stateMutability": "view",
      "type": "function"
    },
    {
      "inputs": [
        {
          "internalType": "address",
          "name": "to",
          "type": "address"
        },
        {
          "internalType": "uint256",
          "name": "tokenId",
          "type": "uint256"
        }
      ],
      "name": "approve",
      "outputs": [],
      "stateMutability": "nonpayable",
      "type": "function"
    },
    {
      "inputs": [
        {
          "internalType": "address",
          "name": "owner",
          "type": "address"
        }
      ],
      "name": "balanceOf",
      "outputs": [
        {
          "internalType": "uint256",
          "name": "",
          "type": "uint256"
        }
      ],
      "stateMutability": "view",
      "type": "function"
    },
    {
      "inputs": [],
      "name": "baseURI",
      "outputs": [
        {
          "internalType": "string",
          "name": "",
          "type": "string"
        }
      ],
      "stateMutability": "view",
      "type": "function"
    },
    {
      "inputs": [
        {
          "internalType": "uint256",
          "name": "tokenId",
          "type": "uint256"
        }
      ],
      "name": "getApproved",
      "outputs": [
        {
          "internalType": "address",
          "name": "",
          "type": "address"
        }
      ],
      "stateMutability": "view",
      "type": "function"
    },
    {
      "inputs": [
        {
          "internalType": "address",
          "name": "owner",
          "type": "address"
        },
        {
          "internalType": "address",
          "name": "operator",
          "type": "address"
        }
      ],
      "name": "isApprovedForAll",
      "outputs": [
        {
          "internalType": "bool",
          "name": "",
          "type": "bool"
        }
      ],
      "stateMutability": "view",
      "type": "function"
    },
    {
      "inputs": [],
      "name": "name",
      "outputs": [
        {
          "internalType": "string",
          "name": "",
          "type": "string"
        }
      ],
      "stateMutability": "view",
      "type": "function"
    },
    {
      "inputs": [
        {
          "internalType": "uint256",
          "name": "tokenId",
          "type": "uint256"
        }
      ],
      "name": "ownerOf",
      "outputs": [
        {
          "internalType": "address",
          "name": "",
          "type": "address"
        }
      ],
      "stateMutability": "view",
      "type": "function"
    },
    {
      "inputs": [
        {
          "internalType": "address",
          "name": "operator",
          "type": "address"
        },
        {
          "internalType": "bool",
          "name": "approved",
          "type": "bool"
        }
      ],
      "name": "setApprovalForAll",
      "outputs": [],
      "stateMutability": "nonpayable",
      "type": "function"
    },
    {
      "inputs": [
        {
          "internalType": "bytes4",
          "name": "interfaceId",
          "type": "bytes4"
        }
      ],
      "name": "supportsInterface",
      "outputs": [
        {
          "internalType": "bool",
          "name": "",
          "type": "bool"
        }
      ],
      "stateMutability": "view",
      "type": "function"
    },
    {
      "inputs": [],
      "name": "symbol",
      "outputs": [
        {
          "internalType": "string",
          "name": "",
          "type": "string"
        }
      ],
      "stateMutability": "view",
      "type": "function"
    },
    {
      "inputs": [
        {
          "internalType": "uint256",
          "name": "index",
          "type": "uint256"
        }
      ],
      "name": "tokenByIndex",
      "outputs": [
        {
          "internalType": "uint256",
          "name": "",
          "type": "uint256"
        }
      ],
      "stateMutability": "view",
      "type": "function"
    },
    {
      "inputs": [
        {
          "internalType": "address",
          "name": "owner",
          "type": "address"
        },
        {
          "internalType": "uint256",
          "name": "index",
          "type": "uint256"
        }
      ],
      "name": "tokenOfOwnerByIndex",
      "outputs": [
        {
          "internalType": "uint256",
          "name": "",
          "type": "uint256"
        }
      ],
      "stateMutability": "view",
      "type": "function"
    },
    {
      "inputs": [
        {
          "internalType": "uint256",
          "name": "tokenId",
          "type": "uint256"
        }
      ],
      "name": "tokenURI",
      "outputs": [
        {
          "internalType": "string",
          "name": "",
          "type": "string"
        }
      ],
      "stateMutability": "view",
      "type": "function"
    },
    {
      "inputs": [],
      "name": "totalSupply",
      "outputs": [
        {
          "internalType": "uint256",
          "name": "",
          "type": "uint256"
        }
      ],
      "stateMutability": "view",
      "type": "function"
    },
    {
      "inputs": [],
      "name": "totalTokens",
      "outputs": [
        {
          "internalType": "uint256",
          "name": "",
          "type": "uint256"
        }
      ],
      "stateMutability": "view",
      "type": "function"
    },
    {
      "inputs": [
        {
          "internalType": "address",
          "name": "from",
          "type": "address"
        },
        {
          "internalType": "address",
          "name": "to",
          "type": "address"
        },
        {
          "internalType": "uint256",
          "name": "tokenId",
          "type": "uint256"
        }
      ],
      "name": "transferFrom",
      "outputs": [],
      "stateMutability": "nonpayable",
      "type": "function"
    },
    {
      "inputs": [
        {
          "internalType": "uint256",
          "name": "id",
          "type": "uint256"
        },
        {
          "internalType": "string",
          "name": "uri",
          "type": "string"
        }
      ],
      "name": "assignDataToToken",
      "outputs": [],
      "stateMutability": "nonpayable",
      "type": "function"
    },
    {
      "inputs": [
        {
          "internalType": "uint256",
          "name": "_tokenId",
          "type": "uint256"
        }
      ],
      "name": "getMetadataAtID",
      "outputs": [
        {
          "internalType": "string",
          "name": "",
          "type": "string"
        }
      ],
      "stateMutability": "view",
      "type": "function"
    },
    {
      "inputs": [
        {
          "internalType": "address",
          "name": "_owner",
          "type": "address"
        }
      ],
      "name": "tokensOf",
      "outputs": [
        {
          "internalType": "uint256[]",
          "name": "",
          "type": "uint256[]"
        }
      ],
      "stateMutability": "view",
      "type": "function"
    },
    {
      "inputs": [
        {
          "internalType": "address",
          "name": "_to",
          "type": "address"
        },
        {
          "internalType": "uint256[]",
          "name": "_tokenIds",
          "type": "uint256[]"
        }
      ],
      "name": "approveMany",
      "outputs": [],
      "stateMutability": "nonpayable",
      "type": "function"
    },
    {
      "inputs": [
        {
          "internalType": "address",
          "name": "_to",
          "type": "address"
        }
      ],
      "name": "approveAll",
      "outputs": [],
      "stateMutability": "nonpayable",
      "type": "function"
    },
    {
      "inputs": [
        {
          "internalType": "address",
          "name": "from",
          "type": "address"
        },
        {
          "internalType": "address",
          "name": "to",
          "type": "address"
        },
        {
          "internalType": "uint256",
          "name": "tokenId",
          "type": "uint256"
        }
      ],
      "name": "safeTransferFrom",
      "outputs": [],
      "stateMutability": "nonpayable",
      "type": "function"
    },
    {
      "inputs": [
        {
          "internalType": "address",
          "name": "from",
          "type": "address"
        },
        {
          "internalType": "address",
          "name": "to",
          "type": "address"
        },
        {
          "internalType": "uint256",
          "name": "tokenId",
          "type": "uint256"
        },
        {
          "internalType": "bytes",
          "name": "_data",
          "type": "bytes"
        }
      ],
      "name": "safeTransferFrom",
      "outputs": [],
      "stateMutability": "nonpayable",
      "type": "function"
    },
    {
      "inputs": [
        {
          "internalType": "string",
          "name": "url",
          "type": "string"
        }
      ],
      "name": "mint",
      "outputs": [],
      "stateMutability": "nonpayable",
      "type": "function"
    },
    {
      "inputs": [
        {
          "internalType": "uint256",
          "name": "_id",
          "type": "uint256"
        }
      ],
      "name": "burn",
      "outputs": [
        {
          "internalType": "bool",
          "name": "",
          "type": "bool"
        }
      ],
      "stateMutability": "nonpayable",
      "type": "function"
    }
  ],
  "bytecode": "0x60806040526000600e553480156200001657600080fd5b506040516200338238038062003382833981810160405260a08110156200003c57600080fd5b81019080805160405193929190846401000000008211156200005d57600080fd5b9083019060208201858111156200007357600080fd5b82516401000000008111828201881017156200008e57600080fd5b82525081516020918201929091019080838360005b83811015620000bd578181015183820152602001620000a3565b50505050905090810190601f168015620000eb5780820380516001836020036101000a031916815260200191505b50604052602001805160405193929190846401000000008211156200010f57600080fd5b9083019060208201858111156200012557600080fd5b82516401000000008111828201881017156200014057600080fd5b82525081516020918201929091019080838360005b838110156200016f57818101518382015260200162000155565b50505050905090810190601f1680156200019d5780820380516001836020036101000a031916815260200191505b5060405260200180516040519392919084640100000000821115620001c157600080fd5b908301906020820185811115620001d757600080fd5b8251640100000000811182820188101715620001f257600080fd5b82525081516020918201929091019080838360005b838110156200022157818101518382015260200162000207565b50505050905090810190601f1680156200024f5780820380516001836020036101000a031916815260200191505b50604052602001805160405193929190846401000000008211156200027357600080fd5b9083019060208201858111156200028957600080fd5b8251640100000000811182820188101715620002a457600080fd5b82525081516020918201929091019080838360005b83811015620002d3578181015183820152602001620002b9565b50505050905090810190601f168015620003015780820380516001836020036101000a031916815260200191505b5060405260200151915085905084620003216301ffc9a760e01b6200041c565b8151620003369060069060208501906200054e565b5080516200034c9060079060208401906200054e565b506200035f6380ac58cd60e01b6200041c565b62000371635b5e139f60e01b6200041c565b6200038363780e9d6360e01b6200041c565b5062000391905084620004a1565b8551909450620003a990600a9060208801906200054e565b508351620003bf90600b9060208701906200054e565b508251620003d590600c9060208601906200054e565b508151620003eb90600d9060208501906200054e565b50600f80546001600160a01b0319166001600160a01b039290921691909117905550506000600e5550620005fa9050565b6001600160e01b031980821614156200047c576040805162461bcd60e51b815260206004820152601c60248201527f4552433136353a20696e76616c696420696e7465726661636520696400000000604482015290519081900360640190fd5b6001600160e01b0319166000908152602081905260409020805460ff19166001179055565b60608160005b815181101562000547578151606190839083908110620004c357fe5b016020015160f81c10801590620004f257508151607a90839083908110620004e757fe5b016020015160f81c11155b156200053e5760208282815181106200050757fe5b602001015160f81c60f81b60f81c0360f81b8282815181106200052657fe5b60200101906001600160f81b031916908160001a9053505b600101620004a7565b5092915050565b828054600181600116156101000203166002900490600052602060002090601f016020900481019282620005865760008555620005d1565b82601f10620005a157805160ff1916838001178555620005d1565b82800160010185558215620005d1579182015b82811115620005d1578251825591602001919060010190620005b4565b50620005df929150620005e3565b5090565b5b80821115620005df5760008155600101620005e4565b612d78806200060a6000396000f3fe608060405234801561001057600080fd5b50600436106101da5760003560e01c80636c0360eb11610104578063b88d4fde116100a2578063d85d3d2711610071578063d85d3d27146106c9578063e268cd241461076d578063e69c20cf1461078a578063e985e9c514610835576101da565b8063b88d4fde146105d8578063b9cba3931461069c578063c87b56dd146106a4578063cffb1a5c146106c1576101da565b80638e8ca30a116100de5780638e8ca30a146104e957806395d89b41146104f157806399bb8134146104f9578063a22cb465146105aa576101da565b80636c0360eb146104b357806370a08231146104bb5780637e1c0c09146104e1576101da565b806323b872dd1161017c5780634f6ccce71161014b5780634f6ccce7146103fb5780635a3f26721461041857806362601e891461048e5780636352211e14610496576101da565b806323b872dd146103465780632f745c591461037c57806342842e0e146103a857806342966c68146103de576101da565b8063081812fc116101b8578063081812fc146102bf578063095ea7b3146102f85780631085cbb61461032457806318160ddd1461032c576101da565b806301ffc9a7146101df5780630621472c1461021a57806306fdde0314610242575b600080fd5b610206600480360360208110156101f557600080fd5b50356001600160e01b031916610863565b604080519115158252519081900360200190f35b6102406004803603602081101561023057600080fd5b50356001600160a01b0316610886565b005b61024a6108c9565b6040805160208082528351818301528351919283929083019185019080838360005b8381101561028457818101518382015260200161026c565b50505050905090810190601f1680156102b15780820380516001836020036101000a031916815260200191505b509250505060405180910390f35b6102dc600480360360208110156102d557600080fd5b503561095f565b604080516001600160a01b039092168252519081900360200190f35b6102406004803603604081101561030e57600080fd5b506001600160a01b0381351690602001356109c1565b61024a610a97565b610334610b25565b60408051918252519081900360200190f35b6102406004803603606081101561035c57600080fd5b506001600160a01b03813581169160208101359091169060400135610b36565b6103346004803603604081101561039257600080fd5b506001600160a01b038135169060200135610b8d565b610240600480360360608110156103be57600080fd5b506001600160a01b03813581169160208101359091169060400135610bb8565b610206600480360360208110156103f457600080fd5b5035610c6d565b6103346004803603602081101561041157600080fd5b5035610c80565b61043e6004803603602081101561042e57600080fd5b50356001600160a01b0316610c96565b60408051602080825283518183015283519192839290830191858101910280838360005b8381101561047a578181015183820152602001610462565b505050509050019250505060405180910390f35b61024a610d4d565b6102dc600480360360208110156104ac57600080fd5b5035610da8565b61024a610dd0565b610334600480360360208110156104d157600080fd5b50356001600160a01b0316610e31565b610334610e99565b61024a610e9f565b61024a610efa565b6102406004803603604081101561050f57600080fd5b6001600160a01b038235169190810190604081016020820135600160201b81111561053957600080fd5b82018360208201111561054b57600080fd5b803590602001918460208302840111600160201b8311171561056c57600080fd5b919080806020026020016040519081016040528093929190818152602001838360200280828437600092019190915250929550610f5b945050505050565b610240600480360360408110156105c057600080fd5b506001600160a01b0381351690602001351515610f7f565b610240600480360360808110156105ee57600080fd5b6001600160a01b03823581169260208101359091169160408201359190810190608081016060820135600160201b81111561062857600080fd5b82018360208201111561063a57600080fd5b803590602001918460018302840111600160201b8311171561065b57600080fd5b91908080601f016020809104026020016040519081016040528093929190818152602001838380828437600092019190915250929550611084945050505050565b6102dc611301565b61024a600480360360208110156106ba57600080fd5b5035611310565b61024a611593565b610240600480360360208110156106df57600080fd5b810190602081018135600160201b8111156106f957600080fd5b82018360208201111561070b57600080fd5b803590602001918460018302840111600160201b8311171561072c57600080fd5b91908080601f0160208091040260200160405190810160405280939291908181526020018383808284376000920191909152509295506115ee945050505050565b61024a6004803603602081101561078357600080fd5b5035611719565b610240600480360360408110156107a057600080fd5b81359190810190604081016020820135600160201b8111156107c157600080fd5b8201836020820111156107d357600080fd5b803590602001918460018302840111600160201b831117156107f457600080fd5b91908080601f0160208091040260200160405190810160405280939291908181526020018383808284376000920191909152509295506117b0945050505050565b6102066004803603604081101561084b57600080fd5b506001600160a01b0381358116916020013516611aeb565b6001600160e01b0319811660009081526020819052604090205460ff165b919050565b606061089133610c96565b905060005b81518110156108c4576108bc838383815181106108af57fe5b60200260200101516109c1565b600101610896565b505050565b60068054604080516020601f60026000196101006001881615020190951694909404938401819004810282018101909252828152606093909290918301828280156109555780601f1061092a57610100808354040283529160200191610955565b820191906000526020600020905b81548152906001019060200180831161093857829003601f168201915b5050505050905090565b600061096a82611b19565b6109a55760405162461bcd60e51b815260040180806020018281038252602c815260200180612c6d602c913960400191505060405180910390fd5b506000908152600460205260409020546001600160a01b031690565b60006109cc82610da8565b9050806001600160a01b0316836001600160a01b03161415610a1f5760405162461bcd60e51b8152600401808060200182810382526021815260200180612cf16021913960400191505060405180910390fd5b806001600160a01b0316610a31611b26565b6001600160a01b03161480610a525750610a5281610a4d611b26565b611aeb565b610a8d5760405162461bcd60e51b8152600401808060200182810382526038815260200180612bc06038913960400191505060405180910390fd5b6108c48383611b2a565b600c805460408051602060026001851615610100026000190190941693909304601f81018490048402820184019092528181529291830182828015610b1d5780601f10610af257610100808354040283529160200191610b1d565b820191906000526020600020905b815481529060010190602001808311610b0057829003601f168201915b505050505081565b6000610b316002611b98565b905090565b610b47610b41611b26565b82611ba3565b610b825760405162461bcd60e51b8152600401808060200182810382526031815260200180612d126031913960400191505060405180910390fd5b6108c4838383611c47565b6001600160a01b0382166000908152600160205260408120610baf9083611d93565b90505b92915050565b6001600160a01b038316610c05576040805162461bcd60e51b815260206004820152600f60248201526e696e76616c6964206164647265737360881b604482015290519081900360640190fd5b6001600160a01b038216610c52576040805162461bcd60e51b815260206004820152600f60248201526e696e76616c6964206164647265737360881b604482015290519081900360640190fd5b6108c483838360405180602001604052806000815250611084565b6000610c7882611d9f565b506001919050565b600080610c8e600284611e6c565b509392505050565b60606001600160a01b038216610ce3576040805162461bcd60e51b815260206004820152600d60248201526c34b73b30b634b21037bbb732b960991b604482015290519081900360640190fd5b6001600160a01b03821660009081526010602090815260409182902080548351818402810184019094528084529091830182828015610d4157602002820191906000526020600020905b815481526020019060010190808311610d2d575b50505050509050919050565b600a805460408051602060026001851615610100026000190190941693909304601f81018490048402820184019092528181529291830182828015610b1d5780601f10610af257610100808354040283529160200191610b1d565b6000610bb282604051806060016040528060298152602001612c226029913960029190611e88565b60098054604080516020601f60026000196101006001881615020190951694909404938401819004810282018101909252828152606093909290918301828280156109555780601f1061092a57610100808354040283529160200191610955565b60006001600160a01b038216610e785760405162461bcd60e51b815260040180806020018281038252602a815260200180612bf8602a913960400191505060405180910390fd5b6001600160a01b0382166000908152600160205260409020610bb290611b98565b600e5481565b600d805460408051602060026001851615610100026000190190941693909304601f81018490048402820184019092528181529291830182828015610b1d5780601f10610af257610100808354040283529160200191610b1d565b60078054604080516020601f60026000196101006001881615020190951694909404938401819004810282018101909252828152606093909290918301828280156109555780601f1061092a57610100808354040283529160200191610955565b60005b81518110156108c457610f77838383815181106108af57fe5b600101610f5e565b610f87611b26565b6001600160a01b0316826001600160a01b03161415610fed576040805162461bcd60e51b815260206004820152601960248201527f4552433732313a20617070726f766520746f2063616c6c657200000000000000604482015290519081900360640190fd5b8060056000610ffa611b26565b6001600160a01b03908116825260208083019390935260409182016000908120918716808252919093529120805460ff19169215159290921790915561103e611b26565b6001600160a01b03167f17307eab39ab6107e8899845ad3d59bd9653f200f220920489ca2b5937696c318360405180821515815260200191505060405180910390a35050565b61109561108f611b26565b83611ba3565b6110d05760405162461bcd60e51b8152600401808060200182810382526031815260200180612d126031913960400191505060405180910390fd5b6001600160a01b03841661111d576040805162461bcd60e51b815260206004820152600f60248201526e696e76616c6964206164647265737360881b604482015290519081900360640190fd5b6001600160a01b03831661116a576040805162461bcd60e51b815260206004820152600f60248201526e696e76616c6964206164647265737360881b604482015290519081900360640190fd5b61117684848484611e9f565b6001600160a01b0384166000908152601060209081526040918290208054835181840281018401909452808452606093928301828280156111d657602002820191906000526020600020905b8154815260200190600101908083116111c2575b505050505090506060600182510367ffffffffffffffff811180156111fa57600080fd5b50604051908082528060200260200182016040528015611224578160200160208202803683370190505b506001600160a01b03861660008181526010602090815260408220805460018101825581845291832090910188905591905280549192509061126990829081906129b9565b506000805b84518110156112cc578685828151811061128457fe5b6020026020010151146112c45784818151811061129d57fe5b60200260200101518483806001019450815181106112b757fe5b6020026020010181815250505b60010161126e565b506001600160a01b038816600090815260106020908152604090912084516112f692860190612a09565b505050505050505050565b600f546001600160a01b031681565b606061131b82611b19565b6113565760405162461bcd60e51b815260040180806020018281038252602f815260200180612cc2602f913960400191505060405180910390fd5b60008281526008602090815260409182902080548351601f60026000196101006001861615020190931692909204918201849004840281018401909452808452606093928301828280156113eb5780601f106113c0576101008083540402835291602001916113eb565b820191906000526020600020905b8154815290600101906020018083116113ce57829003601f168201915b5050505050905060606113fc610dd0565b905080516000141561141057509050610881565b8151156114d15780826040516020018083805190602001908083835b6020831061144b5780518252601f19909201916020918201910161142c565b51815160209384036101000a600019018019909216911617905285519190930192850191508083835b602083106114935780518252601f199092019160209182019101611474565b6001836020036101000a0380198251168184511680821785525050505050509050019250505060405160208183030381529060405292505050610881565b806114db85611ef7565b6040516020018083805190602001908083835b6020831061150d5780518252601f1990920191602091820191016114ee565b51815160209384036101000a600019018019909216911617905285519190930192850191508083835b602083106115555780518252601f199092019160209182019101611536565b6001836020036101000a0380198251168184511680821785525050505050509050019250505060405160208183030381529060405292505050919050565b600b805460408051602060026001851615610100026000190190941693909304601f81018490048402820184019092528181529291830182828015610b1d5780601f10610af257610100808354040283529160200191610b1d565b600f546001600160a01b0316331461160557600080fd5b61160d610b25565b600e81905561161d903390611fd2565b3360008181526010602090815260408220600e54815460018101835582855292842090920191909155919052805461165890829081906129b9565b50600e546000908152601160209081526040909120835161167b92850190612a44565b507fc5e1d731c47dbd6a8c38e6ee9137792904eae9d20174034d1dc9a5781a0f855b826040518080602001828103825283818151815260200191508051906020019080838360005b838110156116db5781810151838201526020016116c3565b50505050905090810190601f1680156117085780820380516001836020036101000a031916815260200191505b509250505060405180910390a15050565b60008181526011602090815260409182902080548351601f6002600019610100600186161502019093169290920491820184900484028101840190945280845260609392830182828015610d415780601f1061178357610100808354040283529160200191610d41565b820191906000526020600020905b8154815290600101906020018083116117915750939695505050505050565b600f546001600160a01b031633146117c757600080fd5b606081905080604051806040016040528060018152602001602f60f81b8152506040516020018083805190602001908083835b602083106118195780518252601f1990920191602091820191016117fa565b51815160209384036101000a600019018019909216911617905285519190930192850191508083835b602083106118615780518252601f199092019160209182019101611842565b6001836020036101000a038019825116818451168082178552505050505050905001925050506040516020818303038152906040529050806118a284612100565b6040516020018083805190602001908083835b602083106118d45780518252601f1990920191602091820191016118b5565b51815160209384036101000a600019018019909216911617905285519190930192850191508083835b6020831061191c5780518252601f1990920191602091820191016118fd565b51815160209384036101000a60001901801990921691161790526040805192909401828103601f1901835280850185526005815264173539b7b760d91b818301529351825192985088975093955092830193508392860191508083835b602083106119985780518252601f199092019160209182019101611979565b51815160209384036101000a600019018019909216911617905285519190930192850191508083835b602083106119e05780518252601f1990920191602091820191016119c1565b51815160209384036101000a60001901801990921691161790526040805192909401828103601f19018352845260008a815260118252939093208151919750611a32965094509186019250612a449050565b50611a3c83610da8565b6001600160a01b03167f533b52bf6683c1d8929816db9f4f8221ca670c6815cbd30bd5e92b4b8eb0957884836040518083815260200180602001828103825283818151815260200191508051906020019080838360005b83811015611aab578181015183820152602001611a93565b50505050905090810190601f168015611ad85780820380516001836020036101000a031916815260200191505b50935050505060405180910390a2505050565b6001600160a01b03918216600090815260056020908152604080832093909416825291909152205460ff1690565b6000610bb2600283612239565b3390565b600081815260046020526040902080546001600160a01b0319166001600160a01b0384169081179091558190611b5f82610da8565b6001600160a01b03167f8c5be1e5ebec7d5bd14f71427d1e84f3dd0314c0f7b2291e5b200ac8c7c3b92560405160405180910390a45050565b6000610bb282612245565b6000611bae82611b19565b611be95760405162461bcd60e51b815260040180806020018281038252602c815260200180612b94602c913960400191505060405180910390fd5b6000611bf483610da8565b9050806001600160a01b0316846001600160a01b03161480611c2f5750836001600160a01b0316611c248461095f565b6001600160a01b0316145b80611c3f5750611c3f8185611aeb565b949350505050565b826001600160a01b0316611c5a82610da8565b6001600160a01b031614611c9f5760405162461bcd60e51b8152600401808060200182810382526029815260200180612c996029913960400191505060405180910390fd5b6001600160a01b038216611ce45760405162461bcd60e51b8152600401808060200182810382526024815260200180612b706024913960400191505060405180910390fd5b611cef8383836108c4565b611cfa600082611b2a565b6001600160a01b0383166000908152600160205260409020611d1c9082612249565b506001600160a01b0382166000908152600160205260409020611d3f9082612255565b50611d4c60028284612261565b5080826001600160a01b0316846001600160a01b03167fddf252ad1be2c89b69c2b068fc378daa952ba7f163c4a11628f55a4df523b3ef60405160405180910390a4505050565b6000610baf8383612277565b6000611daa82610da8565b9050611db8816000846108c4565b611dc3600083611b2a565b6000828152600860205260409020546002600019610100600184161502019091160415611e01576000828152600860205260408120611e0191612abf565b6001600160a01b0381166000908152600160205260409020611e239083612249565b50611e2f6002836122db565b5060405182906000906001600160a01b038416907fddf252ad1be2c89b69c2b068fc378daa952ba7f163c4a11628f55a4df523b3ef908390a45050565b6000808080611e7b86866122e7565b9097909650945050505050565b6000611e95848484612362565b90505b9392505050565b611eaa848484611c47565b611eb68484848461242c565b611ef15760405162461bcd60e51b8152600401808060200182810382526032815260200180612b3e6032913960400191505060405180910390fd5b50505050565b606081611f1c57506040805180820190915260018152600360fc1b6020820152610881565b8160005b8115611f3457600101600a82049150611f20565b60608167ffffffffffffffff81118015611f4d57600080fd5b506040519080825280601f01601f191660200182016040528015611f78576020820181803683370190505b50859350905060001982015b8315611fc957600a840660300160f81b82828060019003935081518110611fa757fe5b60200101906001600160f81b031916908160001a905350600a84049350611f84565b50949350505050565b6001600160a01b03821661202d576040805162461bcd60e51b815260206004820181905260248201527f4552433732313a206d696e7420746f20746865207a65726f2061646472657373604482015290519081900360640190fd5b61203681611b19565b15612088576040805162461bcd60e51b815260206004820152601c60248201527f4552433732313a20746f6b656e20616c7265616479206d696e74656400000000604482015290519081900360640190fd5b612094600083836108c4565b6001600160a01b03821660009081526001602052604090206120b69082612255565b506120c360028284612261565b5060405181906001600160a01b038416906000907fddf252ad1be2c89b69c2b068fc378daa952ba7f163c4a11628f55a4df523b3ef908290a45050565b60408051606480825260a082019092526060919082908260208201818036833701905050905060008461215157604051806040016040528060018152602001600360fc1b8152509350505050610881565b8415612197578151600a808704966001840193919006916030830160f81b918591811061217a57fe5b60200101906001600160f81b031916908160001a90535050612151565b60608160010167ffffffffffffffff811180156121b357600080fd5b506040519080825280601f01601f1916602001820160405280156121de576020820181803683370190505b50905060005b82811161222f5783818403815181106121f957fe5b602001015160f81c60f81b82828151811061221057fe5b60200101906001600160f81b031916908160001a9053506001016121e4565b5095945050505050565b6000610baf8383612594565b5490565b6000610baf83836125ac565b6000610baf8383612672565b6000611e9584846001600160a01b0385166126bc565b815460009082106122b95760405162461bcd60e51b8152600401808060200182810382526022815260200180612b1c6022913960400191505060405180910390fd5b8260000182815481106122c857fe5b9060005260206000200154905092915050565b6000610baf8383612753565b81546000908190831061232b5760405162461bcd60e51b8152600401808060200182810382526022815260200180612c4b6022913960400191505060405180910390fd5b600084600001848154811061233c57fe5b906000526020600020906002020190508060000154816001015492509250509250929050565b600082815260018401602052604081205482816123fd5760405162461bcd60e51b81526004018080602001828103825283818151815260200191508051906020019080838360005b838110156123c25781810151838201526020016123aa565b50505050905090810190601f1680156123ef5780820380516001836020036101000a031916815260200191505b509250505060405180910390fd5b5084600001600182038154811061241057fe5b9060005260206000209060020201600101549150509392505050565b6000612440846001600160a01b0316612827565b61244c57506001611c3f565b606061255a630a85bd0160e11b612461611b26565b88878760405160240180856001600160a01b03168152602001846001600160a01b0316815260200183815260200180602001828103825283818151815260200191508051906020019080838360005b838110156124c85781810151838201526020016124b0565b50505050905090810190601f1680156124f55780820380516001836020036101000a031916815260200191505b5095505050505050604051602081830303815290604052906001600160e01b0319166020820180516001600160e01b038381831617835250505050604051806060016040528060328152602001612b3e603291396001600160a01b038816919061282d565b9050600081806020019051602081101561257357600080fd5b50516001600160e01b031916630a85bd0160e11b1492505050949350505050565b60009081526001919091016020526040902054151590565b6000818152600183016020526040812054801561266857835460001980830191908101906000908790839081106125df57fe5b90600052602060002001549050808760000184815481106125fc57fe5b60009182526020808320909101929092558281526001898101909252604090209084019055865487908061262c57fe5b60019003818190600052602060002001600090559055866001016000878152602001908152602001600020600090556001945050505050610bb2565b6000915050610bb2565b600061267e8383612594565b6126b457508154600181810184556000848152602080822090930184905584548482528286019093526040902091909155610bb2565b506000610bb2565b600082815260018401602052604081205480612721575050604080518082018252838152602080820184815286546001818101895560008981528481209551600290930290950191825591519082015586548684528188019092529290912055611e98565b8285600001600183038154811061273457fe5b9060005260206000209060020201600101819055506000915050611e98565b60008181526001830160205260408120548015612668578354600019808301919081019060009087908390811061278657fe5b90600052602060002090600202019050808760000184815481106127a657fe5b6000918252602080832084546002909302019182556001938401549184019190915583548252898301905260409020908401905586548790806127e557fe5b6000828152602080822060026000199094019384020182815560019081018390559290935588815289820190925260408220919091559450610bb29350505050565b3b151590565b6060611e9584846000858561284185612827565b612892576040805162461bcd60e51b815260206004820152601d60248201527f416464726573733a2063616c6c20746f206e6f6e2d636f6e7472616374000000604482015290519081900360640190fd5b60006060866001600160a01b031685876040518082805190602001908083835b602083106128d15780518252601f1990920191602091820191016128b2565b6001836020036101000a03801982511681845116808217855250505050505090500191505060006040518083038185875af1925050503d8060008114612933576040519150601f19603f3d011682016040523d82523d6000602084013e612938565b606091505b5091509150612948828286612953565b979650505050505050565b60608315612962575081611e98565b8251156129725782518084602001fd5b60405162461bcd60e51b81526020600482018181528451602484015284518593919283926044019190850190808383600083156123c25781810151838201526020016123aa565b8280548282559060005260206000209081019282156129f95760005260206000209182015b828111156129f95782548255916001019190600101906129de565b50612a05929150612b06565b5090565b8280548282559060005260206000209081019282156129f9579160200282015b828111156129f9578251825591602001919060010190612a29565b828054600181600116156101000203166002900490600052602060002090601f016020900481019282612a7a57600085556129f9565b82601f10612a9357805160ff19168380011785556129f9565b828001600101855582156129f957918201828111156129f9578251825591602001919060010190612a29565b50805460018160011615610100020316600290046000825580601f10612ae55750612b03565b601f016020900490600052602060002090810190612b039190612b06565b50565b5b80821115612a055760008155600101612b0756fe456e756d657261626c655365743a20696e646578206f7574206f6620626f756e64734552433732313a207472616e7366657220746f206e6f6e20455243373231526563656976657220696d706c656d656e7465724552433732313a207472616e7366657220746f20746865207a65726f20616464726573734552433732313a206f70657261746f7220717565727920666f72206e6f6e6578697374656e7420746f6b656e4552433732313a20617070726f76652063616c6c6572206973206e6f74206f776e6572206e6f7220617070726f76656420666f7220616c6c4552433732313a2062616c616e636520717565727920666f7220746865207a65726f20616464726573734552433732313a206f776e657220717565727920666f72206e6f6e6578697374656e7420746f6b656e456e756d657261626c654d61703a20696e646578206f7574206f6620626f756e64734552433732313a20617070726f76656420717565727920666f72206e6f6e6578697374656e7420746f6b656e4552433732313a207472616e73666572206f6620746f6b656e2074686174206973206e6f74206f776e4552433732314d657461646174613a2055524920717565727920666f72206e6f6e6578697374656e7420746f6b656e4552433732313a20617070726f76616c20746f2063757272656e74206f776e65724552433732313a207472616e736665722063616c6c6572206973206e6f74206f776e6572206e6f7220617070726f766564a264697066735822122024a7ee7331d2b84e118bc3d7d051a6f03b4c3e5571281881ca3f14f058dd6a7164736f6c63430007040033",
  "immutableReferences": {},
  "source": "// SPDX-License-Identifier: MIT\npragma solidity >=0.4.22 <0.8.4;\n\nimport \"@openzeppelin/contracts/token/ERC721/ERC721.sol\";\nimport \"@openzeppelin/contracts/math/SafeMath.sol\";\n\ncontract NftFactory is ERC721{\n  using SafeMath for uint256;\n  string public Nftname;\n  string public Nftsymbol;\n  string public Nftdescription;\n  string public Nfturi;\n  // Total tokens starts at 0 because each new token must be minted and the\n  // _mint() call adds 1 to totalTokens\n  uint256 public totalTokens = 0;\n\n  address public Nftcreator;\n\n  // Mapping from owner to list of owned token IDs\n  mapping(address => uint256[]) ownedTokens;\n\n  // Metadata is a URL that points to a json dictionary\n  mapping(uint256 => string) tokenIdToMetadata;\n\n  event MetadataAssigned(address indexed _owner, uint256 _tokenId, string _url);\n  event Mint(string url);\n\n  /**\n   * a registry function that iis been called by the NFT registry smart contract\n   */\n\n\nconstructor (string memory _name,\n    string memory _symbol,\n    string memory _description,\n    string memory _uri,\n    address _caller) ERC721(_name,_symbol){\n    _symbol = _upperCase(_symbol);\n\n    Nftname = _name;\n    Nftsymbol = _symbol;\n    Nftdescription = _description;\n    Nfturi = _uri;\n    Nftcreator = _caller;\n    totalTokens = 0;\n    \n    }\n\n  /**\n   * this function assignes the URI to automatically add the id number at the end of the URI\n   */\n  function assignDataToToken(uint256 id, string memory uri) public {\n    require(msg.sender == Nftcreator);\n    bytes memory _url = bytes(uri);\n\n    _url = abi.encodePacked(_url, bytes(\"/\"));\n    _url = abi.encodePacked(_url, _uintToBytes(id));\n    _url = abi.encodePacked(_url, bytes(\".json\"));\n\n    tokenIdToMetadata[id] = string(_url);\n    MetadataAssigned(ownerOf(id), id, string(_url));\n  }\n\n  /**\n   * this function helps with queries to Fetch the metadata for a givine token id\n   */\n  function getMetadataAtID(uint256 _tokenId)\n    public\n    view\n    returns (string memory)\n  {\n    return tokenIdToMetadata[_tokenId];\n  }\n\n  /**\n   * this function helps with queries to Fetch all the tokens that the address owns by givine address\n   */\n  function tokensOf(address _owner) public view returns (uint256[] memory) {\n    require(_owner != address(0), \"invalid owner\");\n    return ownedTokens[_owner];\n  }\n\n\n  /**\n   * this function allows to approve more than one token id at once\n   */\n  function approveMany(address _to, uint256[] memory _tokenIds) public {\n    /* Allows bulk-approval of many tokens. This function is useful for\n       exchanges where users can make a single tx to enable the call of\n       transferFrom for those tokens by an exchange contract. */\n    for (uint256 i = 0; i < _tokenIds.length; i++) {\n      // approve handles the check for if one who is approving is the owner.\n      approve(_to, _tokenIds[i]);\n    }\n  }\n\n  /**\n   * this function allows to approve all the tokens the address owns at once\n   */\n  function approveAll(address _to) public {\n    uint256[] memory tokens = tokensOf(msg.sender);\n    for (uint256 t = 0; t < tokens.length; t++) {\n      approve(_to, tokens[t]);\n    }\n  }\n\n  /**\n   * this overload function allows to transfer tokens and updates all the mapping queries(without filling the URI)  \n   */\n  function safeTransferFrom(\n    address from,\n    address to,\n    uint256 tokenId\n  ) public virtual override {\n    require(from != address(0), \"invalid address\");\n    require(to != address(0), \"invalid address\");\n    // add require to make sure that the tokenid exsistes\n    safeTransferFrom(from, to, tokenId, \"\");\n  }\n\n  /**\n   * this overload function allows to transfer tokens and updates all the mapping queries(with filling the URI)  \n   */\n  function safeTransferFrom(\n    address from,\n    address to,\n    uint256 tokenId,\n    bytes memory _data\n  ) public virtual override {\n    require(\n      _isApprovedOrOwner(_msgSender(), tokenId),\n      \"ERC721: transfer caller is not owner nor approved\"\n    );\n    require(from != address(0), \"invalid address\");\n    require(to != address(0), \"invalid address\");\n    _safeTransfer(from, to, tokenId, _data);\n    uint256[] memory fromIds = ownedTokens[from];\n    uint256[] memory newFromIds = new uint256[](fromIds.length - 1);\n    uint256[] storage toIds = ownedTokens[to];\n    toIds.push(tokenId);\n    ownedTokens[to] = toIds;\n    uint256 j = 0;\n    for (uint256 i = 0; i < fromIds.length; i++) {\n      if (fromIds[i] != tokenId) newFromIds[j++] = (fromIds[i]);\n    }\n    ownedTokens[from] = newFromIds;\n  }\n\n  /**\n   * this function allows to mint more of your NFT  \n   */\n  function mint(string memory url) public {\n    require(msg.sender == Nftcreator);\n    totalTokens = totalSupply();\n    // The index of the newest token is at the # totalTokens.\n    _mint(msg.sender, totalTokens);\n    // assign address to array of owned tokens aned you can qury what ids the address owns\n    uint256[] storage ids = ownedTokens[msg.sender];\n    ids.push(totalTokens);\n    ownedTokens[msg.sender] = ids;\n    // _mint() call adds 1 to total tokens, but we want the token at index - 1\n    tokenIdToMetadata[totalTokens] = url;\n    emit Mint(url);\n  }\n\n  /**\n   * this function allows you burn your NFT  \n   */\n  function burn( uint256 _id) public returns (bool) {\n    _burn(_id);\n    return true;\n  }\n\n  /**\n   * this function is been created just to convert uint variable to bytes\n   *(private function only used in the \"assignDataToToken\" function in order to convert the uint variable to bytes\n   * in order to concatenate it )  \n   */\n  function _uintToBytes(uint256 _int) internal pure returns (bytes memory) {\n    uint256 maxlength = 100;\n    bytes memory reversed = new bytes(maxlength);\n    uint256 i = 0;\n    if (_int == 0) return bytes(\"0\");\n    while (_int != 0) {\n      uint256 remainder = _int % 10;\n      _int = _int / 10;\n      reversed[i++] = bytes1(uint8(48 + remainder));\n    }\n    bytes memory s = new bytes(i + 1);\n    for (uint256 j = 0; j <= i; j++) {\n      s[j] = reversed[i - j];\n    }\n    return s;\n  }\n\n  /**\n   * this function is been created just to convert small strings to capital \n   *(private function only used in functions that we want to make the symbol auto capital \n   * in order to concatenate it )  \n   */\n\n  function _upperCase(string memory enter)\n    internal\n    pure\n    returns (string memory)\n  {\n    bytes memory strbyte = bytes(enter);\n    for (uint256 i = 0; i < strbyte.length; i++) {\n      if (\n        uint8(strbyte[i]) >= uint8(bytes1(\"a\")) &&\n        uint8(strbyte[i]) <= uint8(bytes1(\"z\"))\n      ) strbyte[i] = bytes1(uint8(strbyte[i]) - 32);\n    }\n    enter = string(strbyte);\n    return enter;\n  }\n}\n",
  "sourcePath": "/Users/arpitshukla/internships/ARVRSE/NFT_Contract_Factory/src/contracts/NftFactory.sol",
  "compiler": {
    "name": "solc",
    "version": "0.7.4+commit.3f05b770.Emscripten.clang"
  },
  "schemaVersion": "3.3.4",
  "updatedAt": "2021-04-13T12:40:18.387Z",
  "devdoc": {
    "kind": "dev",
    "methods": {
      "approve(address,uint256)": {
        "details": "See {IERC721-approve}."
      },
      "balanceOf(address)": {
        "details": "See {IERC721-balanceOf}."
      },
      "baseURI()": {
        "details": "Returns the base URI set via {_setBaseURI}. This will be automatically added as a prefix in {tokenURI} to each token's URI, or to the token ID if no specific URI is set for that token ID."
      },
      "getApproved(uint256)": {
        "details": "See {IERC721-getApproved}."
      },
      "isApprovedForAll(address,address)": {
        "details": "See {IERC721-isApprovedForAll}."
      },
      "name()": {
        "details": "See {IERC721Metadata-name}."
      },
      "ownerOf(uint256)": {
        "details": "See {IERC721-ownerOf}."
      },
      "setApprovalForAll(address,bool)": {
        "details": "See {IERC721-setApprovalForAll}."
      },
      "supportsInterface(bytes4)": {
        "details": "See {IERC165-supportsInterface}. Time complexity O(1), guaranteed to always use less than 30 000 gas."
      },
      "symbol()": {
        "details": "See {IERC721Metadata-symbol}."
      },
      "tokenByIndex(uint256)": {
        "details": "See {IERC721Enumerable-tokenByIndex}."
      },
      "tokenOfOwnerByIndex(address,uint256)": {
        "details": "See {IERC721Enumerable-tokenOfOwnerByIndex}."
      },
      "tokenURI(uint256)": {
        "details": "See {IERC721Metadata-tokenURI}."
      },
      "totalSupply()": {
        "details": "See {IERC721Enumerable-totalSupply}."
      },
      "transferFrom(address,address,uint256)": {
        "details": "See {IERC721-transferFrom}."
      }
    },
    "version": 1
  },
  "userdoc": {
    "kind": "user",
    "methods": {
      "approveAll(address)": {
        "notice": "this function allows to approve all the tokens the address owns at once"
      },
      "approveMany(address,uint256[])": {
        "notice": "this function allows to approve more than one token id at once"
      },
      "assignDataToToken(uint256,string)": {
        "notice": "this function assignes the URI to automatically add the id number at the end of the URI"
      },
      "burn(uint256)": {
        "notice": "this function allows you burn your NFT  "
      },
      "constructor": {
        "notice": "a registry function that iis been called by the NFT registry smart contract"
      },
      "getMetadataAtID(uint256)": {
        "notice": "this function helps with queries to Fetch the metadata for a givine token id"
      },
      "mint(string)": {
        "notice": "this function allows to mint more of your NFT  "
      },
      "safeTransferFrom(address,address,uint256)": {
        "notice": "this overload function allows to transfer tokens and updates all the mapping queries(without filling the URI)  "
      },
      "safeTransferFrom(address,address,uint256,bytes)": {
        "notice": "this overload function allows to transfer tokens and updates all the mapping queries(with filling the URI)  "
      },
      "tokensOf(address)": {
        "notice": "this function helps with queries to Fetch all the tokens that the address owns by givine address"
      }
    },
    "version": 1
  }
}