{
  "contractName": "NftFactory",
  "abi": [
    {
      "inputs": [
        {
          "internalType": "string",
          "name": "_name",
          "type": "string"
        },
        {
          "internalType": "string",
          "name": "_symbol",
          "type": "string"
        },
        {
          "internalType": "string",
          "name": "_description",
          "type": "string"
        },
        {
          "internalType": "string",
          "name": "_uri",
          "type": "string"
        },
        {
          "internalType": "address",
          "name": "_caller",
          "type": "address"
        },
        {
          "internalType": "bool",
          "name": "_isPrivate",
          "type": "bool"
        }
      ],
      "stateMutability": "nonpayable",
      "type": "constructor"
    },
    {
      "anonymous": false,
      "inputs": [
        {
          "indexed": true,
          "internalType": "address",
          "name": "owner",
          "type": "address"
        },
        {
          "indexed": true,
          "internalType": "address",
          "name": "approved",
          "type": "address"
        },
        {
          "indexed": true,
          "internalType": "uint256",
          "name": "tokenId",
          "type": "uint256"
        }
      ],
      "name": "Approval",
      "type": "event"
    },
    {
      "anonymous": false,
      "inputs": [
        {
          "indexed": true,
          "internalType": "address",
          "name": "owner",
          "type": "address"
        },
        {
          "indexed": true,
          "internalType": "address",
          "name": "operator",
          "type": "address"
        },
        {
          "indexed": false,
          "internalType": "bool",
          "name": "approved",
          "type": "bool"
        }
      ],
      "name": "ApprovalForAll",
      "type": "event"
    },
    {
      "anonymous": false,
      "inputs": [
        {
          "indexed": true,
          "internalType": "address",
          "name": "_owner",
          "type": "address"
        },
        {
          "indexed": false,
          "internalType": "uint256",
          "name": "_tokenId",
          "type": "uint256"
        },
        {
          "indexed": false,
          "internalType": "string",
          "name": "_url",
          "type": "string"
        }
      ],
      "name": "MetadataAssigned",
      "type": "event"
    },
    {
      "anonymous": false,
      "inputs": [
        {
          "indexed": false,
          "internalType": "string",
          "name": "url",
          "type": "string"
        }
      ],
      "name": "Mint",
      "type": "event"
    },
    {
      "anonymous": false,
      "inputs": [
        {
          "indexed": true,
          "internalType": "address",
          "name": "from",
          "type": "address"
        },
        {
          "indexed": true,
          "internalType": "address",
          "name": "to",
          "type": "address"
        },
        {
          "indexed": true,
          "internalType": "uint256",
          "name": "tokenId",
          "type": "uint256"
        }
      ],
      "name": "Transfer",
      "type": "event"
    },
    {
      "inputs": [],
      "name": "Nftcreator",
      "outputs": [
        {
          "internalType": "address",
          "name": "",
          "type": "address"
        }
      ],
      "stateMutability": "view",
      "type": "function"
    },
    {
      "inputs": [],
      "name": "Nftdescription",
      "outputs": [
        {
          "internalType": "string",
          "name": "",
          "type": "string"
        }
      ],
      "stateMutability": "view",
      "type": "function"
    },
    {
      "inputs": [],
      "name": "Nftname",
      "outputs": [
        {
          "internalType": "string",
          "name": "",
          "type": "string"
        }
      ],
      "stateMutability": "view",
      "type": "function"
    },
    {
      "inputs": [],
      "name": "Nftsymbol",
      "outputs": [
        {
          "internalType": "string",
          "name": "",
          "type": "string"
        }
      ],
      "stateMutability": "view",
      "type": "function"
    },
    {
      "inputs": [],
      "name": "Nfturi",
      "outputs": [
        {
          "internalType": "string",
          "name": "",
          "type": "string"
        }
      ],
      "stateMutability": "view",
      "type": "function"
    },
    {
      "inputs": [
        {
          "internalType": "address",
          "name": "to",
          "type": "address"
        },
        {
          "internalType": "uint256",
          "name": "tokenId",
          "type": "uint256"
        }
      ],
      "name": "approve",
      "outputs": [],
      "stateMutability": "nonpayable",
      "type": "function"
    },
    {
      "inputs": [
        {
          "internalType": "address",
          "name": "owner",
          "type": "address"
        }
      ],
      "name": "balanceOf",
      "outputs": [
        {
          "internalType": "uint256",
          "name": "",
          "type": "uint256"
        }
      ],
      "stateMutability": "view",
      "type": "function"
    },
    {
      "inputs": [],
      "name": "baseURI",
      "outputs": [
        {
          "internalType": "string",
          "name": "",
          "type": "string"
        }
      ],
      "stateMutability": "view",
      "type": "function"
    },
    {
      "inputs": [
        {
          "internalType": "uint256",
          "name": "tokenId",
          "type": "uint256"
        }
      ],
      "name": "getApproved",
      "outputs": [
        {
          "internalType": "address",
          "name": "",
          "type": "address"
        }
      ],
      "stateMutability": "view",
      "type": "function"
    },
    {
      "inputs": [
        {
          "internalType": "address",
          "name": "owner",
          "type": "address"
        },
        {
          "internalType": "address",
          "name": "operator",
          "type": "address"
        }
      ],
      "name": "isApprovedForAll",
      "outputs": [
        {
          "internalType": "bool",
          "name": "",
          "type": "bool"
        }
      ],
      "stateMutability": "view",
      "type": "function"
    },
    {
      "inputs": [],
      "name": "isPrivate",
      "outputs": [
        {
          "internalType": "bool",
          "name": "",
          "type": "bool"
        }
      ],
      "stateMutability": "view",
      "type": "function"
    },
    {
      "inputs": [],
      "name": "name",
      "outputs": [
        {
          "internalType": "string",
          "name": "",
          "type": "string"
        }
      ],
      "stateMutability": "view",
      "type": "function"
    },
    {
      "inputs": [
        {
          "internalType": "uint256",
          "name": "tokenId",
          "type": "uint256"
        }
      ],
      "name": "ownerOf",
      "outputs": [
        {
          "internalType": "address",
          "name": "",
          "type": "address"
        }
      ],
      "stateMutability": "view",
      "type": "function"
    },
    {
      "inputs": [
        {
          "internalType": "address",
          "name": "operator",
          "type": "address"
        },
        {
          "internalType": "bool",
          "name": "approved",
          "type": "bool"
        }
      ],
      "name": "setApprovalForAll",
      "outputs": [],
      "stateMutability": "nonpayable",
      "type": "function"
    },
    {
      "inputs": [
        {
          "internalType": "bytes4",
          "name": "interfaceId",
          "type": "bytes4"
        }
      ],
      "name": "supportsInterface",
      "outputs": [
        {
          "internalType": "bool",
          "name": "",
          "type": "bool"
        }
      ],
      "stateMutability": "view",
      "type": "function"
    },
    {
      "inputs": [],
      "name": "symbol",
      "outputs": [
        {
          "internalType": "string",
          "name": "",
          "type": "string"
        }
      ],
      "stateMutability": "view",
      "type": "function"
    },
    {
      "inputs": [
        {
          "internalType": "uint256",
          "name": "index",
          "type": "uint256"
        }
      ],
      "name": "tokenByIndex",
      "outputs": [
        {
          "internalType": "uint256",
          "name": "",
          "type": "uint256"
        }
      ],
      "stateMutability": "view",
      "type": "function"
    },
    {
      "inputs": [
        {
          "internalType": "address",
          "name": "owner",
          "type": "address"
        },
        {
          "internalType": "uint256",
          "name": "index",
          "type": "uint256"
        }
      ],
      "name": "tokenOfOwnerByIndex",
      "outputs": [
        {
          "internalType": "uint256",
          "name": "",
          "type": "uint256"
        }
      ],
      "stateMutability": "view",
      "type": "function"
    },
    {
      "inputs": [
        {
          "internalType": "uint256",
          "name": "tokenId",
          "type": "uint256"
        }
      ],
      "name": "tokenURI",
      "outputs": [
        {
          "internalType": "string",
          "name": "",
          "type": "string"
        }
      ],
      "stateMutability": "view",
      "type": "function"
    },
    {
      "inputs": [],
      "name": "totalSupply",
      "outputs": [
        {
          "internalType": "uint256",
          "name": "",
          "type": "uint256"
        }
      ],
      "stateMutability": "view",
      "type": "function"
    },
    {
      "inputs": [],
      "name": "totalTokens",
      "outputs": [
        {
          "internalType": "uint256",
          "name": "",
          "type": "uint256"
        }
      ],
      "stateMutability": "view",
      "type": "function"
    },
    {
      "inputs": [
        {
          "internalType": "address",
          "name": "from",
          "type": "address"
        },
        {
          "internalType": "address",
          "name": "to",
          "type": "address"
        },
        {
          "internalType": "uint256",
          "name": "tokenId",
          "type": "uint256"
        }
      ],
      "name": "transferFrom",
      "outputs": [],
      "stateMutability": "nonpayable",
      "type": "function"
    },
    {
      "inputs": [
        {
          "internalType": "uint256",
          "name": "id",
          "type": "uint256"
        },
        {
          "internalType": "string",
          "name": "uri",
          "type": "string"
        }
      ],
      "name": "assignDataToToken",
      "outputs": [],
      "stateMutability": "nonpayable",
      "type": "function"
    },
    {
      "inputs": [
        {
          "internalType": "uint256",
          "name": "_tokenId",
          "type": "uint256"
        }
      ],
      "name": "getMetadataAtID",
      "outputs": [
        {
          "internalType": "string",
          "name": "",
          "type": "string"
        }
      ],
      "stateMutability": "view",
      "type": "function"
    },
    {
      "inputs": [
        {
          "internalType": "address",
          "name": "_owner",
          "type": "address"
        }
      ],
      "name": "tokensOf",
      "outputs": [
        {
          "internalType": "uint256[]",
          "name": "",
          "type": "uint256[]"
        }
      ],
      "stateMutability": "view",
      "type": "function"
    },
    {
      "inputs": [
        {
          "internalType": "address",
          "name": "_to",
          "type": "address"
        },
        {
          "internalType": "uint256[]",
          "name": "_tokenIds",
          "type": "uint256[]"
        }
      ],
      "name": "approveMany",
      "outputs": [],
      "stateMutability": "nonpayable",
      "type": "function"
    },
    {
      "inputs": [
        {
          "internalType": "address",
          "name": "_to",
          "type": "address"
        }
      ],
      "name": "approveAll",
      "outputs": [],
      "stateMutability": "nonpayable",
      "type": "function"
    },
    {
      "inputs": [
        {
          "internalType": "address",
          "name": "from",
          "type": "address"
        },
        {
          "internalType": "address",
          "name": "to",
          "type": "address"
        },
        {
          "internalType": "uint256",
          "name": "tokenId",
          "type": "uint256"
        }
      ],
      "name": "safeTransferFrom",
      "outputs": [],
      "stateMutability": "nonpayable",
      "type": "function"
    },
    {
      "inputs": [
        {
          "internalType": "address",
          "name": "from",
          "type": "address"
        },
        {
          "internalType": "address",
          "name": "to",
          "type": "address"
        },
        {
          "internalType": "uint256",
          "name": "tokenId",
          "type": "uint256"
        },
        {
          "internalType": "bytes",
          "name": "_data",
          "type": "bytes"
        }
      ],
      "name": "safeTransferFrom",
      "outputs": [],
      "stateMutability": "nonpayable",
      "type": "function"
    },
    {
      "inputs": [
        {
          "internalType": "string",
          "name": "url",
          "type": "string"
        }
      ],
      "name": "mint",
      "outputs": [],
      "stateMutability": "nonpayable",
      "type": "function"
    },
    {
      "inputs": [
        {
          "internalType": "uint256",
          "name": "_id",
          "type": "uint256"
        }
      ],
      "name": "burn",
      "outputs": [
        {
          "internalType": "bool",
          "name": "",
          "type": "bool"
        }
      ],
      "stateMutability": "nonpayable",
      "type": "function"
    }
  ],
  "bytecode": "0x60806040526000600f553480156200001657600080fd5b50604051620033b7380380620033b7833981810160405260c08110156200003c57600080fd5b81019080805160405193929190846401000000008211156200005d57600080fd5b9083019060208201858111156200007357600080fd5b82516401000000008111828201881017156200008e57600080fd5b82525081516020918201929091019080838360005b83811015620000bd578181015183820152602001620000a3565b50505050905090810190601f168015620000eb5780820380516001836020036101000a031916815260200191505b50604052602001805160405193929190846401000000008211156200010f57600080fd5b9083019060208201858111156200012557600080fd5b82516401000000008111828201881017156200014057600080fd5b82525081516020918201929091019080838360005b838110156200016f57818101518382015260200162000155565b50505050905090810190601f1680156200019d5780820380516001836020036101000a031916815260200191505b5060405260200180516040519392919084640100000000821115620001c157600080fd5b908301906020820185811115620001d757600080fd5b8251640100000000811182820188101715620001f257600080fd5b82525081516020918201929091019080838360005b838110156200022157818101518382015260200162000207565b50505050905090810190601f1680156200024f5780820380516001836020036101000a031916815260200191505b50604052602001805160405193929190846401000000008211156200027357600080fd5b9083019060208201858111156200028957600080fd5b8251640100000000811182820188101715620002a457600080fd5b82525081516020918201929091019080838360005b83811015620002d3578181015183820152602001620002b9565b50505050905090810190601f168015620003015780820380516001836020036101000a031916815260200191505b506040908152602082015191015190925090508585620003286301ffc9a760e01b62000435565b81516200033d90600690602085019062000567565b5080516200035390600790602084019062000567565b50620003666380ac58cd60e01b62000435565b62000378635b5e139f60e01b62000435565b6200038a63780e9d6360e01b62000435565b5062000398905085620004ba565b8651909550620003b090600a90602089019062000567565b508451620003c690600b90602088019062000567565b508351620003dc90600c90602087019062000567565b508251620003f290600d90602086019062000567565b50601080546001600160a01b0319166001600160a01b039390931692909217909155600e805460ff191691151591909117905550506000600f5550620006139050565b6001600160e01b0319808216141562000495576040805162461bcd60e51b815260206004820152601c60248201527f4552433136353a20696e76616c696420696e7465726661636520696400000000604482015290519081900360640190fd5b6001600160e01b0319166000908152602081905260409020805460ff19166001179055565b60608160005b815181101562000560578151606190839083908110620004dc57fe5b016020015160f81c108015906200050b57508151607a908390839081106200050057fe5b016020015160f81c11155b15620005575760208282815181106200052057fe5b602001015160f81c60f81b60f81c0360f81b8282815181106200053f57fe5b60200101906001600160f81b031916908160001a9053505b600101620004c0565b5092915050565b828054600181600116156101000203166002900490600052602060002090601f0160209004810192826200059f5760008555620005ea565b82601f10620005ba57805160ff1916838001178555620005ea565b82800160010185558215620005ea579182015b82811115620005ea578251825591602001919060010190620005cd565b50620005f8929150620005fc565b5090565b5b80821115620005f85760008155600101620005fd565b612d9480620006236000396000f3fe608060405234801561001057600080fd5b50600436106101e55760003560e01c80636c0360eb1161010f578063b9cba393116100a2578063e268cd2411610071578063e268cd2414610778578063e69c20cf14610795578063e985e9c514610840578063faff660e1461086e576101e5565b8063b9cba393146106a7578063c87b56dd146106af578063cffb1a5c146106cc578063d85d3d27146106d4576101e5565b806395d89b41116100de57806395d89b41146104fc57806399bb813414610504578063a22cb465146105b5578063b88d4fde146105e3576101e5565b80636c0360eb146104be57806370a08231146104c65780637e1c0c09146104ec5780638e8ca30a146104f4576101e5565b806323b872dd116101875780634f6ccce7116101565780634f6ccce7146104065780635a3f26721461042357806362601e89146104995780636352211e146104a1576101e5565b806323b872dd146103515780632f745c591461038757806342842e0e146103b357806342966c68146103e9576101e5565b8063081812fc116101c3578063081812fc146102ca578063095ea7b3146103035780631085cbb61461032f57806318160ddd14610337576101e5565b806301ffc9a7146101ea5780630621472c1461022557806306fdde031461024d575b600080fd5b6102116004803603602081101561020057600080fd5b50356001600160e01b031916610876565b604080519115158252519081900360200190f35b61024b6004803603602081101561023b57600080fd5b50356001600160a01b0316610899565b005b6102556108dc565b6040805160208082528351818301528351919283929083019185019080838360005b8381101561028f578181015183820152602001610277565b50505050905090810190601f1680156102bc5780820380516001836020036101000a031916815260200191505b509250505060405180910390f35b6102e7600480360360208110156102e057600080fd5b5035610972565b604080516001600160a01b039092168252519081900360200190f35b61024b6004803603604081101561031957600080fd5b506001600160a01b0381351690602001356109d4565b610255610aaa565b61033f610b38565b60408051918252519081900360200190f35b61024b6004803603606081101561036757600080fd5b506001600160a01b03813581169160208101359091169060400135610b49565b61033f6004803603604081101561039d57600080fd5b506001600160a01b038135169060200135610ba0565b61024b600480360360608110156103c957600080fd5b506001600160a01b03813581169160208101359091169060400135610bcb565b610211600480360360208110156103ff57600080fd5b5035610c80565b61033f6004803603602081101561041c57600080fd5b5035610c93565b6104496004803603602081101561043957600080fd5b50356001600160a01b0316610ca9565b60408051602080825283518183015283519192839290830191858101910280838360005b8381101561048557818101518382015260200161046d565b505050509050019250505060405180910390f35b610255610d60565b6102e7600480360360208110156104b757600080fd5b5035610dbb565b610255610de3565b61033f600480360360208110156104dc57600080fd5b50356001600160a01b0316610e44565b61033f610eac565b610255610eb2565b610255610f0d565b61024b6004803603604081101561051a57600080fd5b6001600160a01b038235169190810190604081016020820135600160201b81111561054457600080fd5b82018360208201111561055657600080fd5b803590602001918460208302840111600160201b8311171561057757600080fd5b919080806020026020016040519081016040528093929190818152602001838360200280828437600092019190915250929550610f6e945050505050565b61024b600480360360408110156105cb57600080fd5b506001600160a01b0381351690602001351515610f92565b61024b600480360360808110156105f957600080fd5b6001600160a01b03823581169260208101359091169160408201359190810190608081016060820135600160201b81111561063357600080fd5b82018360208201111561064557600080fd5b803590602001918460018302840111600160201b8311171561066657600080fd5b91908080601f016020809104026020016040519081016040528093929190818152602001838380828437600092019190915250929550611097945050505050565b6102e7611314565b610255600480360360208110156106c557600080fd5b5035611323565b6102556115a6565b61024b600480360360208110156106ea57600080fd5b810190602081018135600160201b81111561070457600080fd5b82018360208201111561071657600080fd5b803590602001918460018302840111600160201b8311171561073757600080fd5b91908080601f016020809104026020016040519081016040528093929190818152602001838380828437600092019190915250929550611601945050505050565b6102556004803603602081101561078e57600080fd5b503561172c565b61024b600480360360408110156107ab57600080fd5b81359190810190604081016020820135600160201b8111156107cc57600080fd5b8201836020820111156107de57600080fd5b803590602001918460018302840111600160201b831117156107ff57600080fd5b91908080601f0160208091040260200160405190810160405280939291908181526020018383808284376000920191909152509295506117c3945050505050565b6102116004803603604081101561085657600080fd5b506001600160a01b0381358116916020013516611afe565b610211611b2c565b6001600160e01b0319811660009081526020819052604090205460ff165b919050565b60606108a433610ca9565b905060005b81518110156108d7576108cf838383815181106108c257fe5b60200260200101516109d4565b6001016108a9565b505050565b60068054604080516020601f60026000196101006001881615020190951694909404938401819004810282018101909252828152606093909290918301828280156109685780601f1061093d57610100808354040283529160200191610968565b820191906000526020600020905b81548152906001019060200180831161094b57829003601f168201915b5050505050905090565b600061097d82611b35565b6109b85760405162461bcd60e51b815260040180806020018281038252602c815260200180612c89602c913960400191505060405180910390fd5b506000908152600460205260409020546001600160a01b031690565b60006109df82610dbb565b9050806001600160a01b0316836001600160a01b03161415610a325760405162461bcd60e51b8152600401808060200182810382526021815260200180612d0d6021913960400191505060405180910390fd5b806001600160a01b0316610a44611b42565b6001600160a01b03161480610a655750610a6581610a60611b42565b611afe565b610aa05760405162461bcd60e51b8152600401808060200182810382526038815260200180612bdc6038913960400191505060405180910390fd5b6108d78383611b46565b600c805460408051602060026001851615610100026000190190941693909304601f81018490048402820184019092528181529291830182828015610b305780601f10610b0557610100808354040283529160200191610b30565b820191906000526020600020905b815481529060010190602001808311610b1357829003601f168201915b505050505081565b6000610b446002611bb4565b905090565b610b5a610b54611b42565b82611bbf565b610b955760405162461bcd60e51b8152600401808060200182810382526031815260200180612d2e6031913960400191505060405180910390fd5b6108d7838383611c63565b6001600160a01b0382166000908152600160205260408120610bc29083611daf565b90505b92915050565b6001600160a01b038316610c18576040805162461bcd60e51b815260206004820152600f60248201526e696e76616c6964206164647265737360881b604482015290519081900360640190fd5b6001600160a01b038216610c65576040805162461bcd60e51b815260206004820152600f60248201526e696e76616c6964206164647265737360881b604482015290519081900360640190fd5b6108d783838360405180602001604052806000815250611097565b6000610c8b82611dbb565b506001919050565b600080610ca1600284611e88565b509392505050565b60606001600160a01b038216610cf6576040805162461bcd60e51b815260206004820152600d60248201526c34b73b30b634b21037bbb732b960991b604482015290519081900360640190fd5b6001600160a01b03821660009081526011602090815260409182902080548351818402810184019094528084529091830182828015610d5457602002820191906000526020600020905b815481526020019060010190808311610d40575b50505050509050919050565b600a805460408051602060026001851615610100026000190190941693909304601f81018490048402820184019092528181529291830182828015610b305780601f10610b0557610100808354040283529160200191610b30565b6000610bc582604051806060016040528060298152602001612c3e6029913960029190611ea4565b60098054604080516020601f60026000196101006001881615020190951694909404938401819004810282018101909252828152606093909290918301828280156109685780601f1061093d57610100808354040283529160200191610968565b60006001600160a01b038216610e8b5760405162461bcd60e51b815260040180806020018281038252602a815260200180612c14602a913960400191505060405180910390fd5b6001600160a01b0382166000908152600160205260409020610bc590611bb4565b600f5481565b600d805460408051602060026001851615610100026000190190941693909304601f81018490048402820184019092528181529291830182828015610b305780601f10610b0557610100808354040283529160200191610b30565b60078054604080516020601f60026000196101006001881615020190951694909404938401819004810282018101909252828152606093909290918301828280156109685780601f1061093d57610100808354040283529160200191610968565b60005b81518110156108d757610f8a838383815181106108c257fe5b600101610f71565b610f9a611b42565b6001600160a01b0316826001600160a01b03161415611000576040805162461bcd60e51b815260206004820152601960248201527f4552433732313a20617070726f766520746f2063616c6c657200000000000000604482015290519081900360640190fd5b806005600061100d611b42565b6001600160a01b03908116825260208083019390935260409182016000908120918716808252919093529120805460ff191692151592909217909155611051611b42565b6001600160a01b03167f17307eab39ab6107e8899845ad3d59bd9653f200f220920489ca2b5937696c318360405180821515815260200191505060405180910390a35050565b6110a86110a2611b42565b83611bbf565b6110e35760405162461bcd60e51b8152600401808060200182810382526031815260200180612d2e6031913960400191505060405180910390fd5b6001600160a01b038416611130576040805162461bcd60e51b815260206004820152600f60248201526e696e76616c6964206164647265737360881b604482015290519081900360640190fd5b6001600160a01b03831661117d576040805162461bcd60e51b815260206004820152600f60248201526e696e76616c6964206164647265737360881b604482015290519081900360640190fd5b61118984848484611ebb565b6001600160a01b0384166000908152601160209081526040918290208054835181840281018401909452808452606093928301828280156111e957602002820191906000526020600020905b8154815260200190600101908083116111d5575b505050505090506060600182510367ffffffffffffffff8111801561120d57600080fd5b50604051908082528060200260200182016040528015611237578160200160208202803683370190505b506001600160a01b03861660008181526011602090815260408220805460018101825581845291832090910188905591905280549192509061127c90829081906129d5565b506000805b84518110156112df578685828151811061129757fe5b6020026020010151146112d7578481815181106112b057fe5b60200260200101518483806001019450815181106112ca57fe5b6020026020010181815250505b600101611281565b506001600160a01b0388166000908152601160209081526040909120845161130992860190612a25565b505050505050505050565b6010546001600160a01b031681565b606061132e82611b35565b6113695760405162461bcd60e51b815260040180806020018281038252602f815260200180612cde602f913960400191505060405180910390fd5b60008281526008602090815260409182902080548351601f60026000196101006001861615020190931692909204918201849004840281018401909452808452606093928301828280156113fe5780601f106113d3576101008083540402835291602001916113fe565b820191906000526020600020905b8154815290600101906020018083116113e157829003601f168201915b50505050509050606061140f610de3565b905080516000141561142357509050610894565b8151156114e45780826040516020018083805190602001908083835b6020831061145e5780518252601f19909201916020918201910161143f565b51815160209384036101000a600019018019909216911617905285519190930192850191508083835b602083106114a65780518252601f199092019160209182019101611487565b6001836020036101000a0380198251168184511680821785525050505050509050019250505060405160208183030381529060405292505050610894565b806114ee85611f13565b6040516020018083805190602001908083835b602083106115205780518252601f199092019160209182019101611501565b51815160209384036101000a600019018019909216911617905285519190930192850191508083835b602083106115685780518252601f199092019160209182019101611549565b6001836020036101000a0380198251168184511680821785525050505050509050019250505060405160208183030381529060405292505050919050565b600b805460408051602060026001851615610100026000190190941693909304601f81018490048402820184019092528181529291830182828015610b305780601f10610b0557610100808354040283529160200191610b30565b6010546001600160a01b0316331461161857600080fd5b611620610b38565b600f819055611630903390611fee565b3360008181526011602090815260408220600f54815460018101835582855292842090920191909155919052805461166b90829081906129d5565b50600f546000908152601260209081526040909120835161168e92850190612a60565b507fc5e1d731c47dbd6a8c38e6ee9137792904eae9d20174034d1dc9a5781a0f855b826040518080602001828103825283818151815260200191508051906020019080838360005b838110156116ee5781810151838201526020016116d6565b50505050905090810190601f16801561171b5780820380516001836020036101000a031916815260200191505b509250505060405180910390a15050565b60008181526012602090815260409182902080548351601f6002600019610100600186161502019093169290920491820184900484028101840190945280845260609392830182828015610d545780601f1061179657610100808354040283529160200191610d54565b820191906000526020600020905b8154815290600101906020018083116117a45750939695505050505050565b6010546001600160a01b031633146117da57600080fd5b606081905080604051806040016040528060018152602001602f60f81b8152506040516020018083805190602001908083835b6020831061182c5780518252601f19909201916020918201910161180d565b51815160209384036101000a600019018019909216911617905285519190930192850191508083835b602083106118745780518252601f199092019160209182019101611855565b6001836020036101000a038019825116818451168082178552505050505050905001925050506040516020818303038152906040529050806118b58461211c565b6040516020018083805190602001908083835b602083106118e75780518252601f1990920191602091820191016118c8565b51815160209384036101000a600019018019909216911617905285519190930192850191508083835b6020831061192f5780518252601f199092019160209182019101611910565b51815160209384036101000a60001901801990921691161790526040805192909401828103601f1901835280850185526005815264173539b7b760d91b818301529351825192985088975093955092830193508392860191508083835b602083106119ab5780518252601f19909201916020918201910161198c565b51815160209384036101000a600019018019909216911617905285519190930192850191508083835b602083106119f35780518252601f1990920191602091820191016119d4565b51815160209384036101000a60001901801990921691161790526040805192909401828103601f19018352845260008a815260128252939093208151919750611a45965094509186019250612a609050565b50611a4f83610dbb565b6001600160a01b03167f533b52bf6683c1d8929816db9f4f8221ca670c6815cbd30bd5e92b4b8eb0957884836040518083815260200180602001828103825283818151815260200191508051906020019080838360005b83811015611abe578181015183820152602001611aa6565b50505050905090810190601f168015611aeb5780820380516001836020036101000a031916815260200191505b50935050505060405180910390a2505050565b6001600160a01b03918216600090815260056020908152604080832093909416825291909152205460ff1690565b600e5460ff1681565b6000610bc5600283612255565b3390565b600081815260046020526040902080546001600160a01b0319166001600160a01b0384169081179091558190611b7b82610dbb565b6001600160a01b03167f8c5be1e5ebec7d5bd14f71427d1e84f3dd0314c0f7b2291e5b200ac8c7c3b92560405160405180910390a45050565b6000610bc582612261565b6000611bca82611b35565b611c055760405162461bcd60e51b815260040180806020018281038252602c815260200180612bb0602c913960400191505060405180910390fd5b6000611c1083610dbb565b9050806001600160a01b0316846001600160a01b03161480611c4b5750836001600160a01b0316611c4084610972565b6001600160a01b0316145b80611c5b5750611c5b8185611afe565b949350505050565b826001600160a01b0316611c7682610dbb565b6001600160a01b031614611cbb5760405162461bcd60e51b8152600401808060200182810382526029815260200180612cb56029913960400191505060405180910390fd5b6001600160a01b038216611d005760405162461bcd60e51b8152600401808060200182810382526024815260200180612b8c6024913960400191505060405180910390fd5b611d0b8383836108d7565b611d16600082611b46565b6001600160a01b0383166000908152600160205260409020611d389082612265565b506001600160a01b0382166000908152600160205260409020611d5b9082612271565b50611d686002828461227d565b5080826001600160a01b0316846001600160a01b03167fddf252ad1be2c89b69c2b068fc378daa952ba7f163c4a11628f55a4df523b3ef60405160405180910390a4505050565b6000610bc28383612293565b6000611dc682610dbb565b9050611dd4816000846108d7565b611ddf600083611b46565b6000828152600860205260409020546002600019610100600184161502019091160415611e1d576000828152600860205260408120611e1d91612adb565b6001600160a01b0381166000908152600160205260409020611e3f9083612265565b50611e4b6002836122f7565b5060405182906000906001600160a01b038416907fddf252ad1be2c89b69c2b068fc378daa952ba7f163c4a11628f55a4df523b3ef908390a45050565b6000808080611e978686612303565b9097909650945050505050565b6000611eb184848461237e565b90505b9392505050565b611ec6848484611c63565b611ed284848484612448565b611f0d5760405162461bcd60e51b8152600401808060200182810382526032815260200180612b5a6032913960400191505060405180910390fd5b50505050565b606081611f3857506040805180820190915260018152600360fc1b6020820152610894565b8160005b8115611f5057600101600a82049150611f3c565b60608167ffffffffffffffff81118015611f6957600080fd5b506040519080825280601f01601f191660200182016040528015611f94576020820181803683370190505b50859350905060001982015b8315611fe557600a840660300160f81b82828060019003935081518110611fc357fe5b60200101906001600160f81b031916908160001a905350600a84049350611fa0565b50949350505050565b6001600160a01b038216612049576040805162461bcd60e51b815260206004820181905260248201527f4552433732313a206d696e7420746f20746865207a65726f2061646472657373604482015290519081900360640190fd5b61205281611b35565b156120a4576040805162461bcd60e51b815260206004820152601c60248201527f4552433732313a20746f6b656e20616c7265616479206d696e74656400000000604482015290519081900360640190fd5b6120b0600083836108d7565b6001600160a01b03821660009081526001602052604090206120d29082612271565b506120df6002828461227d565b5060405181906001600160a01b038416906000907fddf252ad1be2c89b69c2b068fc378daa952ba7f163c4a11628f55a4df523b3ef908290a45050565b60408051606480825260a082019092526060919082908260208201818036833701905050905060008461216d57604051806040016040528060018152602001600360fc1b8152509350505050610894565b84156121b3578151600a808704966001840193919006916030830160f81b918591811061219657fe5b60200101906001600160f81b031916908160001a9053505061216d565b60608160010167ffffffffffffffff811180156121cf57600080fd5b506040519080825280601f01601f1916602001820160405280156121fa576020820181803683370190505b50905060005b82811161224b57838184038151811061221557fe5b602001015160f81c60f81b82828151811061222c57fe5b60200101906001600160f81b031916908160001a905350600101612200565b5095945050505050565b6000610bc283836125b0565b5490565b6000610bc283836125c8565b6000610bc2838361268e565b6000611eb184846001600160a01b0385166126d8565b815460009082106122d55760405162461bcd60e51b8152600401808060200182810382526022815260200180612b386022913960400191505060405180910390fd5b8260000182815481106122e457fe5b9060005260206000200154905092915050565b6000610bc2838361276f565b8154600090819083106123475760405162461bcd60e51b8152600401808060200182810382526022815260200180612c676022913960400191505060405180910390fd5b600084600001848154811061235857fe5b906000526020600020906002020190508060000154816001015492509250509250929050565b600082815260018401602052604081205482816124195760405162461bcd60e51b81526004018080602001828103825283818151815260200191508051906020019080838360005b838110156123de5781810151838201526020016123c6565b50505050905090810190601f16801561240b5780820380516001836020036101000a031916815260200191505b509250505060405180910390fd5b5084600001600182038154811061242c57fe5b9060005260206000209060020201600101549150509392505050565b600061245c846001600160a01b0316612843565b61246857506001611c5b565b6060612576630a85bd0160e11b61247d611b42565b88878760405160240180856001600160a01b03168152602001846001600160a01b0316815260200183815260200180602001828103825283818151815260200191508051906020019080838360005b838110156124e45781810151838201526020016124cc565b50505050905090810190601f1680156125115780820380516001836020036101000a031916815260200191505b5095505050505050604051602081830303815290604052906001600160e01b0319166020820180516001600160e01b038381831617835250505050604051806060016040528060328152602001612b5a603291396001600160a01b0388169190612849565b9050600081806020019051602081101561258f57600080fd5b50516001600160e01b031916630a85bd0160e11b1492505050949350505050565b60009081526001919091016020526040902054151590565b6000818152600183016020526040812054801561268457835460001980830191908101906000908790839081106125fb57fe5b906000526020600020015490508087600001848154811061261857fe5b60009182526020808320909101929092558281526001898101909252604090209084019055865487908061264857fe5b60019003818190600052602060002001600090559055866001016000878152602001908152602001600020600090556001945050505050610bc5565b6000915050610bc5565b600061269a83836125b0565b6126d057508154600181810184556000848152602080822090930184905584548482528286019093526040902091909155610bc5565b506000610bc5565b60008281526001840160205260408120548061273d575050604080518082018252838152602080820184815286546001818101895560008981528481209551600290930290950191825591519082015586548684528188019092529290912055611eb4565b8285600001600183038154811061275057fe5b9060005260206000209060020201600101819055506000915050611eb4565b6000818152600183016020526040812054801561268457835460001980830191908101906000908790839081106127a257fe5b90600052602060002090600202019050808760000184815481106127c257fe5b60009182526020808320845460029093020191825560019384015491840191909155835482528983019052604090209084019055865487908061280157fe5b6000828152602080822060026000199094019384020182815560019081018390559290935588815289820190925260408220919091559450610bc59350505050565b3b151590565b6060611eb184846000858561285d85612843565b6128ae576040805162461bcd60e51b815260206004820152601d60248201527f416464726573733a2063616c6c20746f206e6f6e2d636f6e7472616374000000604482015290519081900360640190fd5b60006060866001600160a01b031685876040518082805190602001908083835b602083106128ed5780518252601f1990920191602091820191016128ce565b6001836020036101000a03801982511681845116808217855250505050505090500191505060006040518083038185875af1925050503d806000811461294f576040519150601f19603f3d011682016040523d82523d6000602084013e612954565b606091505b509150915061296482828661296f565b979650505050505050565b6060831561297e575081611eb4565b82511561298e5782518084602001fd5b60405162461bcd60e51b81526020600482018181528451602484015284518593919283926044019190850190808383600083156123de5781810151838201526020016123c6565b828054828255906000526020600020908101928215612a155760005260206000209182015b82811115612a155782548255916001019190600101906129fa565b50612a21929150612b22565b5090565b828054828255906000526020600020908101928215612a15579160200282015b82811115612a15578251825591602001919060010190612a45565b828054600181600116156101000203166002900490600052602060002090601f016020900481019282612a965760008555612a15565b82601f10612aaf57805160ff1916838001178555612a15565b82800160010185558215612a155791820182811115612a15578251825591602001919060010190612a45565b50805460018160011615610100020316600290046000825580601f10612b015750612b1f565b601f016020900490600052602060002090810190612b1f9190612b22565b50565b5b80821115612a215760008155600101612b2356fe456e756d657261626c655365743a20696e646578206f7574206f6620626f756e64734552433732313a207472616e7366657220746f206e6f6e20455243373231526563656976657220696d706c656d656e7465724552433732313a207472616e7366657220746f20746865207a65726f20616464726573734552433732313a206f70657261746f7220717565727920666f72206e6f6e6578697374656e7420746f6b656e4552433732313a20617070726f76652063616c6c6572206973206e6f74206f776e6572206e6f7220617070726f76656420666f7220616c6c4552433732313a2062616c616e636520717565727920666f7220746865207a65726f20616464726573734552433732313a206f776e657220717565727920666f72206e6f6e6578697374656e7420746f6b656e456e756d657261626c654d61703a20696e646578206f7574206f6620626f756e64734552433732313a20617070726f76656420717565727920666f72206e6f6e6578697374656e7420746f6b656e4552433732313a207472616e73666572206f6620746f6b656e2074686174206973206e6f74206f776e4552433732314d657461646174613a2055524920717565727920666f72206e6f6e6578697374656e7420746f6b656e4552433732313a20617070726f76616c20746f2063757272656e74206f776e65724552433732313a207472616e736665722063616c6c6572206973206e6f74206f776e6572206e6f7220617070726f766564a2646970667358221220396ba4eb63d06ae3c594313c5717caa5aacb20c8c3c1a33490fe3f4c13ead95c64736f6c63430007040033",
  "immutableReferences": {},
  "source": "// SPDX-License-Identifier: MIT\npragma solidity >=0.4.22 <0.8.4;\n\nimport \"@openzeppelin/contracts/token/ERC721/ERC721.sol\";\nimport \"@openzeppelin/contracts/math/SafeMath.sol\";\n\ncontract NftFactory is ERC721{\n  using SafeMath for uint256;\n\n  string public Nftname;\n  string public Nftsymbol;\n  string public Nftdescription;\n  string public Nfturi;\n  bool public isPrivate;\n\n  // Total tokens starts at 0 because each new token must be minted and the\n  // _mint() call adds 1 to totalTokens\n  uint256 public totalTokens = 0;\n\n  address public Nftcreator;\n\n  // Mapping from owner to list of owned token IDs\n  mapping(address => uint256[]) ownedTokens;\n\n  // Metadata is a URL that points to a json dictionary\n  mapping(uint256 => string) tokenIdToMetadata;\n\n  event MetadataAssigned(address indexed _owner, uint256 _tokenId, string _url);\n  event Mint(string url);\n\n  /**\n   * a registry function that iis been called by the NFT registry smart contract\n   */\n\n\nconstructor (string memory _name,\n    string memory _symbol,\n    string memory _description,\n    string memory _uri,\n    address _caller, bool _isPrivate) ERC721(_name,_symbol){\n    _symbol = _upperCase(_symbol);\n\n    Nftname = _name;\n    Nftsymbol = _symbol;\n    Nftdescription = _description;\n    Nfturi = _uri;\n    Nftcreator = _caller;\n    isPrivate=_isPrivate;\n    totalTokens = 0;\n    \n    }\n\n  /**\n   * this function assignes the URI to automatically add the id number at the end of the URI\n   */\n  function assignDataToToken(uint256 id, string memory uri) public {\n    require(msg.sender == Nftcreator);\n    bytes memory _url = bytes(uri);\n\n    _url = abi.encodePacked(_url, bytes(\"/\"));\n    _url = abi.encodePacked(_url, _uintToBytes(id));\n    _url = abi.encodePacked(_url, bytes(\".json\"));\n\n    tokenIdToMetadata[id] = string(_url);\n    MetadataAssigned(ownerOf(id), id, string(_url));\n  }\n\n  /**\n   * this function helps with queries to Fetch the metadata for a givine token id\n   */\n  function getMetadataAtID(uint256 _tokenId)\n    public\n    view\n    returns (string memory)\n  {\n    return tokenIdToMetadata[_tokenId];\n  }\n\n  /**\n   * this function helps with queries to Fetch all the tokens that the address owns by givine address\n   */\n  function tokensOf(address _owner) public view returns (uint256[] memory) {\n    require(_owner != address(0), \"invalid owner\");\n    return ownedTokens[_owner];\n  }\n\n\n  /**\n   * this function allows to approve more than one token id at once\n   */\n  function approveMany(address _to, uint256[] memory _tokenIds) public {\n    /* Allows bulk-approval of many tokens. This function is useful for\n       exchanges where users can make a single tx to enable the call of\n       transferFrom for those tokens by an exchange contract. */\n    for (uint256 i = 0; i < _tokenIds.length; i++) {\n      // approve handles the check for if one who is approving is the owner.\n      approve(_to, _tokenIds[i]);\n    }\n  }\n\n  /**\n   * this function allows to approve all the tokens the address owns at once\n   */\n  function approveAll(address _to) public {\n    uint256[] memory tokens = tokensOf(msg.sender);\n    for (uint256 t = 0; t < tokens.length; t++) {\n      approve(_to, tokens[t]);\n    }\n  }\n\n  /**\n   * this overload function allows to transfer tokens and updates all the mapping queries(without filling the URI)  \n   */\n  function safeTransferFrom(\n    address from,\n    address to,\n    uint256 tokenId\n  ) public virtual override {\n    require(from != address(0), \"invalid address\");\n    require(to != address(0), \"invalid address\");\n    // add require to make sure that the tokenid exsistes\n    safeTransferFrom(from, to, tokenId, \"\");\n  }\n\n  /**\n   * this overload function allows to transfer tokens and updates all the mapping queries(with filling the URI)  \n   */\n  function safeTransferFrom(\n    address from,\n    address to,\n    uint256 tokenId,\n    bytes memory _data\n  ) public virtual override {\n    require(\n      _isApprovedOrOwner(_msgSender(), tokenId),\n      \"ERC721: transfer caller is not owner nor approved\"\n    );\n    require(from != address(0), \"invalid address\");\n    require(to != address(0), \"invalid address\");\n    _safeTransfer(from, to, tokenId, _data);\n    uint256[] memory fromIds = ownedTokens[from];\n    uint256[] memory newFromIds = new uint256[](fromIds.length - 1);\n    uint256[] storage toIds = ownedTokens[to];\n    toIds.push(tokenId);\n    ownedTokens[to] = toIds;\n    uint256 j = 0;\n    for (uint256 i = 0; i < fromIds.length; i++) {\n      if (fromIds[i] != tokenId) newFromIds[j++] = (fromIds[i]);\n    }\n    ownedTokens[from] = newFromIds;\n  }\n\n  /**\n   * this function allows to mint more of your NFT  \n   */\n  function mint(string memory url) public {\n    require(msg.sender == Nftcreator);\n    totalTokens = totalSupply();\n    // The index of the newest token is at the # totalTokens.\n    _mint(msg.sender, totalTokens);\n    // assign address to array of owned tokens aned you can qury what ids the address owns\n    uint256[] storage ids = ownedTokens[msg.sender];\n    ids.push(totalTokens);\n    ownedTokens[msg.sender] = ids;\n    // _mint() call adds 1 to total tokens, but we want the token at index - 1\n    tokenIdToMetadata[totalTokens] = url;\n    emit Mint(url);\n  }\n\n  /**\n   * this function allows you burn your NFT  \n   */\n  function burn( uint256 _id) public returns (bool) {\n    _burn(_id);\n    return true;\n  }\n\n  /**\n   * this function is been created just to convert uint variable to bytes\n   *(private function only used in the \"assignDataToToken\" function in order to convert the uint variable to bytes\n   * in order to concatenate it )  \n   */\n  function _uintToBytes(uint256 _int) internal pure returns (bytes memory) {\n    uint256 maxlength = 100;\n    bytes memory reversed = new bytes(maxlength);\n    uint256 i = 0;\n    if (_int == 0) return bytes(\"0\");\n    while (_int != 0) {\n      uint256 remainder = _int % 10;\n      _int = _int / 10;\n      reversed[i++] = bytes1(uint8(48 + remainder));\n    }\n    bytes memory s = new bytes(i + 1);\n    for (uint256 j = 0; j <= i; j++) {\n      s[j] = reversed[i - j];\n    }\n    return s;\n  }\n\n  /**\n   * this function is been created just to convert small strings to capital \n   *(private function only used in functions that we want to make the symbol auto capital \n   * in order to concatenate it )  \n   */\n\n  function _upperCase(string memory enter)\n    internal\n    pure\n    returns (string memory)\n  {\n    bytes memory strbyte = bytes(enter);\n    for (uint256 i = 0; i < strbyte.length; i++) {\n      if (\n        uint8(strbyte[i]) >= uint8(bytes1(\"a\")) &&\n        uint8(strbyte[i]) <= uint8(bytes1(\"z\"))\n      ) strbyte[i] = bytes1(uint8(strbyte[i]) - 32);\n    }\n    enter = string(strbyte);\n    return enter;\n  }\n}\n",
  "sourcePath": "/Users/arpitshukla/internships/ARVRSE/NFT_Contract_Factory/src/contracts/NftFactory.sol",
  "compiler": {
    "name": "solc",
    "version": "0.7.4+commit.3f05b770.Emscripten.clang"
  },
  "schemaVersion": "3.3.4",
  "updatedAt": "2021-04-13T14:30:24.632Z",
  "devdoc": {
    "kind": "dev",
    "methods": {
      "approve(address,uint256)": {
        "details": "See {IERC721-approve}."
      },
      "balanceOf(address)": {
        "details": "See {IERC721-balanceOf}."
      },
      "baseURI()": {
        "details": "Returns the base URI set via {_setBaseURI}. This will be automatically added as a prefix in {tokenURI} to each token's URI, or to the token ID if no specific URI is set for that token ID."
      },
      "getApproved(uint256)": {
        "details": "See {IERC721-getApproved}."
      },
      "isApprovedForAll(address,address)": {
        "details": "See {IERC721-isApprovedForAll}."
      },
      "name()": {
        "details": "See {IERC721Metadata-name}."
      },
      "ownerOf(uint256)": {
        "details": "See {IERC721-ownerOf}."
      },
      "setApprovalForAll(address,bool)": {
        "details": "See {IERC721-setApprovalForAll}."
      },
      "supportsInterface(bytes4)": {
        "details": "See {IERC165-supportsInterface}. Time complexity O(1), guaranteed to always use less than 30 000 gas."
      },
      "symbol()": {
        "details": "See {IERC721Metadata-symbol}."
      },
      "tokenByIndex(uint256)": {
        "details": "See {IERC721Enumerable-tokenByIndex}."
      },
      "tokenOfOwnerByIndex(address,uint256)": {
        "details": "See {IERC721Enumerable-tokenOfOwnerByIndex}."
      },
      "tokenURI(uint256)": {
        "details": "See {IERC721Metadata-tokenURI}."
      },
      "totalSupply()": {
        "details": "See {IERC721Enumerable-totalSupply}."
      },
      "transferFrom(address,address,uint256)": {
        "details": "See {IERC721-transferFrom}."
      }
    },
    "version": 1
  },
  "userdoc": {
    "kind": "user",
    "methods": {
      "approveAll(address)": {
        "notice": "this function allows to approve all the tokens the address owns at once"
      },
      "approveMany(address,uint256[])": {
        "notice": "this function allows to approve more than one token id at once"
      },
      "assignDataToToken(uint256,string)": {
        "notice": "this function assignes the URI to automatically add the id number at the end of the URI"
      },
      "burn(uint256)": {
        "notice": "this function allows you burn your NFT  "
      },
      "constructor": {
        "notice": "a registry function that iis been called by the NFT registry smart contract"
      },
      "getMetadataAtID(uint256)": {
        "notice": "this function helps with queries to Fetch the metadata for a givine token id"
      },
      "mint(string)": {
        "notice": "this function allows to mint more of your NFT  "
      },
      "safeTransferFrom(address,address,uint256)": {
        "notice": "this overload function allows to transfer tokens and updates all the mapping queries(without filling the URI)  "
      },
      "safeTransferFrom(address,address,uint256,bytes)": {
        "notice": "this overload function allows to transfer tokens and updates all the mapping queries(with filling the URI)  "
      },
      "tokensOf(address)": {
        "notice": "this function helps with queries to Fetch all the tokens that the address owns by givine address"
      }
    },
    "version": 1
  }
}