{
  "contractName": "NftFactory",
  "abi": [
    {
      "anonymous": false,
      "inputs": [
        {
          "indexed": true,
          "internalType": "address",
          "name": "owner",
          "type": "address"
        },
        {
          "indexed": true,
          "internalType": "address",
          "name": "approved",
          "type": "address"
        },
        {
          "indexed": true,
          "internalType": "uint256",
          "name": "tokenId",
          "type": "uint256"
        }
      ],
      "name": "Approval",
      "type": "event"
    },
    {
      "anonymous": false,
      "inputs": [
        {
          "indexed": true,
          "internalType": "address",
          "name": "owner",
          "type": "address"
        },
        {
          "indexed": true,
          "internalType": "address",
          "name": "operator",
          "type": "address"
        },
        {
          "indexed": false,
          "internalType": "bool",
          "name": "approved",
          "type": "bool"
        }
      ],
      "name": "ApprovalForAll",
      "type": "event"
    },
    {
      "anonymous": false,
      "inputs": [
        {
          "indexed": true,
          "internalType": "address",
          "name": "_owner",
          "type": "address"
        },
        {
          "indexed": false,
          "internalType": "uint256",
          "name": "_tokenId",
          "type": "uint256"
        },
        {
          "indexed": false,
          "internalType": "string",
          "name": "_url",
          "type": "string"
        }
      ],
      "name": "MetadataAssigned",
      "type": "event"
    },
    {
      "anonymous": false,
      "inputs": [
        {
          "indexed": true,
          "internalType": "address",
          "name": "from",
          "type": "address"
        },
        {
          "indexed": true,
          "internalType": "address",
          "name": "to",
          "type": "address"
        },
        {
          "indexed": true,
          "internalType": "uint256",
          "name": "tokenId",
          "type": "uint256"
        }
      ],
      "name": "Transfer",
      "type": "event"
    },
    {
      "inputs": [
        {
          "internalType": "address",
          "name": "to",
          "type": "address"
        },
        {
          "internalType": "uint256",
          "name": "tokenId",
          "type": "uint256"
        }
      ],
      "name": "approve",
      "outputs": [],
      "stateMutability": "nonpayable",
      "type": "function"
    },
    {
      "inputs": [
        {
          "internalType": "address",
          "name": "owner",
          "type": "address"
        }
      ],
      "name": "balanceOf",
      "outputs": [
        {
          "internalType": "uint256",
          "name": "",
          "type": "uint256"
        }
      ],
      "stateMutability": "view",
      "type": "function"
    },
    {
      "inputs": [],
      "name": "baseURI",
      "outputs": [
        {
          "internalType": "string",
          "name": "",
          "type": "string"
        }
      ],
      "stateMutability": "view",
      "type": "function"
    },
    {
      "inputs": [
        {
          "internalType": "uint256",
          "name": "tokenId",
          "type": "uint256"
        }
      ],
      "name": "getApproved",
      "outputs": [
        {
          "internalType": "address",
          "name": "",
          "type": "address"
        }
      ],
      "stateMutability": "view",
      "type": "function"
    },
    {
      "inputs": [
        {
          "internalType": "address",
          "name": "owner",
          "type": "address"
        },
        {
          "internalType": "address",
          "name": "operator",
          "type": "address"
        }
      ],
      "name": "isApprovedForAll",
      "outputs": [
        {
          "internalType": "bool",
          "name": "",
          "type": "bool"
        }
      ],
      "stateMutability": "view",
      "type": "function"
    },
    {
      "inputs": [],
      "name": "name",
      "outputs": [
        {
          "internalType": "string",
          "name": "",
          "type": "string"
        }
      ],
      "stateMutability": "view",
      "type": "function"
    },
    {
      "inputs": [
        {
          "internalType": "address",
          "name": "",
          "type": "address"
        },
        {
          "internalType": "uint256",
          "name": "",
          "type": "uint256"
        }
      ],
      "name": "ownedTokens",
      "outputs": [
        {
          "internalType": "uint256",
          "name": "",
          "type": "uint256"
        }
      ],
      "stateMutability": "view",
      "type": "function"
    },
    {
      "inputs": [
        {
          "internalType": "uint256",
          "name": "tokenId",
          "type": "uint256"
        }
      ],
      "name": "ownerOf",
      "outputs": [
        {
          "internalType": "address",
          "name": "",
          "type": "address"
        }
      ],
      "stateMutability": "view",
      "type": "function"
    },
    {
      "inputs": [
        {
          "internalType": "string",
          "name": "",
          "type": "string"
        }
      ],
      "name": "registries",
      "outputs": [
        {
          "internalType": "string",
          "name": "name",
          "type": "string"
        },
        {
          "internalType": "string",
          "name": "symbol",
          "type": "string"
        },
        {
          "internalType": "string",
          "name": "description",
          "type": "string"
        },
        {
          "internalType": "address",
          "name": "creator",
          "type": "address"
        }
      ],
      "stateMutability": "view",
      "type": "function"
    },
    {
      "inputs": [
        {
          "internalType": "address",
          "name": "operator",
          "type": "address"
        },
        {
          "internalType": "bool",
          "name": "approved",
          "type": "bool"
        }
      ],
      "name": "setApprovalForAll",
      "outputs": [],
      "stateMutability": "nonpayable",
      "type": "function"
    },
    {
      "inputs": [
        {
          "internalType": "bytes4",
          "name": "interfaceId",
          "type": "bytes4"
        }
      ],
      "name": "supportsInterface",
      "outputs": [
        {
          "internalType": "bool",
          "name": "",
          "type": "bool"
        }
      ],
      "stateMutability": "view",
      "type": "function"
    },
    {
      "inputs": [],
      "name": "symbol",
      "outputs": [
        {
          "internalType": "string",
          "name": "",
          "type": "string"
        }
      ],
      "stateMutability": "view",
      "type": "function"
    },
    {
      "inputs": [
        {
          "internalType": "uint256",
          "name": "index",
          "type": "uint256"
        }
      ],
      "name": "tokenByIndex",
      "outputs": [
        {
          "internalType": "uint256",
          "name": "",
          "type": "uint256"
        }
      ],
      "stateMutability": "view",
      "type": "function"
    },
    {
      "inputs": [
        {
          "internalType": "address",
          "name": "owner",
          "type": "address"
        },
        {
          "internalType": "uint256",
          "name": "index",
          "type": "uint256"
        }
      ],
      "name": "tokenOfOwnerByIndex",
      "outputs": [
        {
          "internalType": "uint256",
          "name": "",
          "type": "uint256"
        }
      ],
      "stateMutability": "view",
      "type": "function"
    },
    {
      "inputs": [
        {
          "internalType": "uint256",
          "name": "tokenId",
          "type": "uint256"
        }
      ],
      "name": "tokenURI",
      "outputs": [
        {
          "internalType": "string",
          "name": "",
          "type": "string"
        }
      ],
      "stateMutability": "view",
      "type": "function"
    },
    {
      "inputs": [],
      "name": "totalSupply",
      "outputs": [
        {
          "internalType": "uint256",
          "name": "",
          "type": "uint256"
        }
      ],
      "stateMutability": "view",
      "type": "function"
    },
    {
      "inputs": [
        {
          "internalType": "address",
          "name": "from",
          "type": "address"
        },
        {
          "internalType": "address",
          "name": "to",
          "type": "address"
        },
        {
          "internalType": "uint256",
          "name": "tokenId",
          "type": "uint256"
        }
      ],
      "name": "transferFrom",
      "outputs": [],
      "stateMutability": "nonpayable",
      "type": "function"
    },
    {
      "inputs": [
        {
          "internalType": "string",
          "name": "name",
          "type": "string"
        },
        {
          "internalType": "string",
          "name": "symbol",
          "type": "string"
        },
        {
          "internalType": "string",
          "name": "description",
          "type": "string"
        },
        {
          "internalType": "address",
          "name": "caller",
          "type": "address"
        }
      ],
      "name": "Registry",
      "outputs": [],
      "stateMutability": "nonpayable",
      "type": "function"
    },
    {
      "inputs": [
        {
          "internalType": "uint256",
          "name": "id",
          "type": "uint256"
        },
        {
          "internalType": "string",
          "name": "uri",
          "type": "string"
        }
      ],
      "name": "assignDataToToken",
      "outputs": [],
      "stateMutability": "nonpayable",
      "type": "function"
    },
    {
      "inputs": [
        {
          "internalType": "uint256",
          "name": "_tokenId",
          "type": "uint256"
        }
      ],
      "name": "getMetadataAtID",
      "outputs": [
        {
          "internalType": "string",
          "name": "",
          "type": "string"
        }
      ],
      "stateMutability": "view",
      "type": "function"
    },
    {
      "inputs": [
        {
          "internalType": "uint256",
          "name": "id",
          "type": "uint256"
        }
      ],
      "name": "getTokenOwner",
      "outputs": [
        {
          "internalType": "address",
          "name": "",
          "type": "address"
        }
      ],
      "stateMutability": "view",
      "type": "function"
    },
    {
      "inputs": [
        {
          "internalType": "address",
          "name": "_owner",
          "type": "address"
        }
      ],
      "name": "tokensOf",
      "outputs": [
        {
          "internalType": "uint256[]",
          "name": "",
          "type": "uint256[]"
        }
      ],
      "stateMutability": "view",
      "type": "function"
    },
    {
      "inputs": [
        {
          "internalType": "address",
          "name": "_to",
          "type": "address"
        },
        {
          "internalType": "uint256[]",
          "name": "_tokenIds",
          "type": "uint256[]"
        }
      ],
      "name": "approveMany",
      "outputs": [],
      "stateMutability": "nonpayable",
      "type": "function"
    },
    {
      "inputs": [
        {
          "internalType": "address",
          "name": "_to",
          "type": "address"
        }
      ],
      "name": "approveAll",
      "outputs": [],
      "stateMutability": "nonpayable",
      "type": "function"
    },
    {
      "inputs": [
        {
          "internalType": "address",
          "name": "from",
          "type": "address"
        },
        {
          "internalType": "address",
          "name": "to",
          "type": "address"
        },
        {
          "internalType": "uint256",
          "name": "tokenId",
          "type": "uint256"
        }
      ],
      "name": "safeTransferFrom",
      "outputs": [],
      "stateMutability": "nonpayable",
      "type": "function"
    },
    {
      "inputs": [
        {
          "internalType": "address",
          "name": "from",
          "type": "address"
        },
        {
          "internalType": "address",
          "name": "to",
          "type": "address"
        },
        {
          "internalType": "uint256",
          "name": "tokenId",
          "type": "uint256"
        },
        {
          "internalType": "bytes",
          "name": "_data",
          "type": "bytes"
        }
      ],
      "name": "safeTransferFrom",
      "outputs": [],
      "stateMutability": "nonpayable",
      "type": "function"
    },
    {
      "inputs": [
        {
          "internalType": "string",
          "name": "url",
          "type": "string"
        }
      ],
      "name": "Mint",
      "outputs": [],
      "stateMutability": "nonpayable",
      "type": "function"
    },
    {
      "inputs": [
        {
          "internalType": "string",
          "name": "symbol",
          "type": "string"
        },
        {
          "internalType": "uint256",
          "name": "_id",
          "type": "uint256"
        }
      ],
      "name": "burn",
      "outputs": [
        {
          "internalType": "bool",
          "name": "",
          "type": "bool"
        }
      ],
      "stateMutability": "nonpayable",
      "type": "function"
    }
  ],
  "bytecode": "0x60806040526000600d553480156200001657600080fd5b506200002f6301ffc9a760e01b6200003560201b60201c565b6200013e565b63ffffffff60e01b817bffffffffffffffffffffffffffffffffffffffffffffffffffffffff19161415620000d2576040517f08c379a000000000000000000000000000000000000000000000000000000000815260040180806020018281038252601c8152602001807f4552433136353a20696e76616c696420696e746572666163652069640000000081525060200191505060405180910390fd5b6001600080837bffffffffffffffffffffffffffffffffffffffffffffffffffffffff19167bffffffffffffffffffffffffffffffffffffffffffffffffffffffff1916815260200190815260200160002060006101000a81548160ff02191690831515021790555050565b614d54806200014e6000396000f3fe608060405234801561001057600080fd5b50600436106101c45760003560e01c806370a08231116100f9578063c5e1d73111610097578063e149f03611610071578063e149f0361461107a578063e268cd24146110dc578063e69c20cf14611183578063e985e9c514611248576101c4565b8063c5e1d73114610cef578063c87b56dd14610daa578063df5cbf7d14610e51576101c4565b8063a22cb465116100d3578063a22cb46514610a67578063a5cd761f14610ab7578063b48272cc14610b0f578063b88d4fde14610bea576101c4565b806370a08231146108b457806395d89b411461090c57806399bb81341461098f576101c4565b80632f745c59116101665780634f6ccce7116101405780634f6ccce7146106fe5780635a3f2672146107405780636352211e146107d95780636c0360eb14610831576101c4565b80632f745c591461042557806342842e0e1461048757806346f62f6c146104f5576101c4565b8063081812fc116101a2578063081812fc146102f3578063095ea7b31461034b57806318160ddd1461039957806323b872dd146103b7576101c4565b806301ffc9a7146101c95780630621472c1461022c57806306fdde0314610270575b600080fd5b610214600480360360208110156101df57600080fd5b8101908080357bffffffffffffffffffffffffffffffffffffffffffffffffffffffff191690602001909291905050506112c2565b60405180821515815260200191505060405180910390f35b61026e6004803603602081101561024257600080fd5b81019080803573ffffffffffffffffffffffffffffffffffffffff169060200190929190505050611329565b005b610278611371565b6040518080602001828103825283818151815260200191508051906020019080838360005b838110156102b857808201518184015260208101905061029d565b50505050905090810190601f1680156102e55780820380516001836020036101000a031916815260200191505b509250505060405180910390f35b61031f6004803603602081101561030957600080fd5b8101908080359060200190929190505050611413565b604051808273ffffffffffffffffffffffffffffffffffffffff16815260200191505060405180910390f35b6103976004803603604081101561036157600080fd5b81019080803573ffffffffffffffffffffffffffffffffffffffff169060200190929190803590602001909291905050506114ae565b005b6103a16115f2565b6040518082815260200191505060405180910390f35b610423600480360360608110156103cd57600080fd5b81019080803573ffffffffffffffffffffffffffffffffffffffff169060200190929190803573ffffffffffffffffffffffffffffffffffffffff16906020019092919080359060200190929190505050611603565b005b6104716004803603604081101561043b57600080fd5b81019080803573ffffffffffffffffffffffffffffffffffffffff16906020019092919080359060200190929190505050611679565b6040518082815260200191505060405180910390f35b6104f36004803603606081101561049d57600080fd5b81019080803573ffffffffffffffffffffffffffffffffffffffff169060200190929190803573ffffffffffffffffffffffffffffffffffffffff169060200190929190803590602001909291905050506116d4565b005b6106fc6004803603608081101561050b57600080fd5b810190808035906020019064010000000081111561052857600080fd5b82018360208201111561053a57600080fd5b8035906020019184600183028401116401000000008311171561055c57600080fd5b91908080601f016020809104026020016040519081016040528093929190818152602001838380828437600081840152601f19601f820116905080830192505050505050509192919290803590602001906401000000008111156105bf57600080fd5b8201836020820111156105d157600080fd5b803590602001918460018302840111640100000000831117156105f357600080fd5b91908080601f016020809104026020016040519081016040528093929190818152602001838380828437600081840152601f19601f8201169050808301925050505050505091929192908035906020019064010000000081111561065657600080fd5b82018360208201111561066857600080fd5b8035906020019184600183028401116401000000008311171561068a57600080fd5b91908080601f016020809104026020016040519081016040528093929190818152602001838380828437600081840152601f19601f820116905080830192505050505050509192919290803573ffffffffffffffffffffffffffffffffffffffff16906020019092919050505061183a565b005b61072a6004803603602081101561071457600080fd5b8101908080359060200190929190505050611a1a565b6040518082815260200191505060405180910390f35b6107826004803603602081101561075657600080fd5b81019080803573ffffffffffffffffffffffffffffffffffffffff169060200190929190505050611a3d565b6040518080602001828103825283818151815260200191508051906020019060200280838360005b838110156107c55780820151818401526020810190506107aa565b505050509050019250505060405180910390f35b610805600480360360208110156107ef57600080fd5b8101908080359060200190929190505050611b77565b604051808273ffffffffffffffffffffffffffffffffffffffff16815260200191505060405180910390f35b610839611bae565b6040518080602001828103825283818151815260200191508051906020019080838360005b8381101561087957808201518184015260208101905061085e565b50505050905090810190601f1680156108a65780820380516001836020036101000a031916815260200191505b509250505060405180910390f35b6108f6600480360360208110156108ca57600080fd5b81019080803573ffffffffffffffffffffffffffffffffffffffff169060200190929190505050611c50565b6040518082815260200191505060405180910390f35b610914611d25565b6040518080602001828103825283818151815260200191508051906020019080838360005b83811015610954578082015181840152602081019050610939565b50505050905090810190601f1680156109815780820380516001836020036101000a031916815260200191505b509250505060405180910390f35b610a65600480360360408110156109a557600080fd5b81019080803573ffffffffffffffffffffffffffffffffffffffff169060200190929190803590602001906401000000008111156109e257600080fd5b8201836020820111156109f457600080fd5b80359060200191846020830284011164010000000083111715610a1657600080fd5b919080806020026020016040519081016040528093929190818152602001838360200280828437600081840152601f19601f820116905080830192505050505050509192919290505050611dc7565b005b610ab560048036036040811015610a7d57600080fd5b81019080803573ffffffffffffffffffffffffffffffffffffffff169060200190929190803515159060200190929190505050611e02565b005b610ae360048036036020811015610acd57600080fd5b8101908080359060200190929190505050611fb8565b604051808273ffffffffffffffffffffffffffffffffffffffff16815260200191505060405180910390f35b610bd260048036036040811015610b2557600080fd5b8101908080359060200190640100000000811115610b4257600080fd5b820183602082011115610b5457600080fd5b80359060200191846001830284011164010000000083111715610b7657600080fd5b91908080601f016020809104026020016040519081016040528093929190818152602001838380828437600081840152601f19601f82011690508083019250505050505050919291929080359060200190929190505050611ff5565b60405180821515815260200191505060405180910390f35b610ced60048036036080811015610c0057600080fd5b81019080803573ffffffffffffffffffffffffffffffffffffffff169060200190929190803573ffffffffffffffffffffffffffffffffffffffff1690602001909291908035906020019092919080359060200190640100000000811115610c6757600080fd5b820183602082011115610c7957600080fd5b80359060200191846001830284011164010000000083111715610c9b57600080fd5b91908080601f016020809104026020016040519081016040528093929190818152602001838380828437600081840152601f19601f820116905080830192505050505050509192919290505050612104565b005b610da860048036036020811015610d0557600080fd5b8101908080359060200190640100000000811115610d2257600080fd5b820183602082011115610d3457600080fd5b80359060200191846001830284011164010000000083111715610d5657600080fd5b91908080601f016020809104026020016040519081016040528093929190818152602001838380828437600081840152601f19601f82011690508083019250505050505050919291929050505061256f565b005b610dd660048036036020811015610dc057600080fd5b8101908080359060200190929190505050612718565b6040518080602001828103825283818151815260200191508051906020019080838360005b83811015610e16578082015181840152602081019050610dfb565b50505050905090810190601f168015610e435780820380516001836020036101000a031916815260200191505b509250505060405180910390f35b610f0a60048036036020811015610e6757600080fd5b8101908080359060200190640100000000811115610e8457600080fd5b820183602082011115610e9657600080fd5b80359060200191846001830284011164010000000083111715610eb857600080fd5b91908080601f016020809104026020016040519081016040528093929190818152602001838380828437600081840152601f19601f8201169050808301925050505050505091929192905050506129e9565b604051808060200180602001806020018573ffffffffffffffffffffffffffffffffffffffff168152602001848103845288818151815260200191508051906020019080838360005b83811015610f6e578082015181840152602081019050610f53565b50505050905090810190601f168015610f9b5780820380516001836020036101000a031916815260200191505b50848103835287818151815260200191508051906020019080838360005b83811015610fd4578082015181840152602081019050610fb9565b50505050905090810190601f1680156110015780820380516001836020036101000a031916815260200191505b50848103825286818151815260200191508051906020019080838360005b8381101561103a57808201518184015260208101905061101f565b50505050905090810190601f1680156110675780820380516001836020036101000a031916815260200191505b5097505050505050505060405180910390f35b6110c66004803603604081101561109057600080fd5b81019080803573ffffffffffffffffffffffffffffffffffffffff16906020019092919080359060200190929190505050612c17565b6040518082815260200191505060405180910390f35b611108600480360360208110156110f257600080fd5b8101908080359060200190929190505050612c48565b6040518080602001828103825283818151815260200191508051906020019080838360005b8381101561114857808201518184015260208101905061112d565b50505050905090810190601f1680156111755780820380516001836020036101000a031916815260200191505b509250505060405180910390f35b6112466004803603604081101561119957600080fd5b8101908080359060200190929190803590602001906401000000008111156111c057600080fd5b8201836020820111156111d257600080fd5b803590602001918460018302840111640100000000831117156111f457600080fd5b91908080601f016020809104026020016040519081016040528093929190818152602001838380828437600081840152601f19601f820116905080830192505050505050509192919290505050612cfd565b005b6112aa6004803603604081101561125e57600080fd5b81019080803573ffffffffffffffffffffffffffffffffffffffff169060200190929190803573ffffffffffffffffffffffffffffffffffffffff1690602001909291905050506130fe565b60405180821515815260200191505060405180910390f35b6000806000837bffffffffffffffffffffffffffffffffffffffffffffffffffffffff19167bffffffffffffffffffffffffffffffffffffffffffffffffffffffff1916815260200190815260200160002060009054906101000a900460ff169050919050565b606061133433611a3d565b905060005b815181101561136c5761135f8383838151811061135257fe5b60200260200101516114ae565b8080600101915050611339565b505050565b606060068054600181600116156101000203166002900480601f0160208091040260200160405190810160405280929190818152602001828054600181600116156101000203166002900480156114095780601f106113de57610100808354040283529160200191611409565b820191906000526020600020905b8154815290600101906020018083116113ec57829003601f168201915b5050505050905090565b600061141e82613192565b611473576040517f08c379a000000000000000000000000000000000000000000000000000000000815260040180806020018281038252602c815260200180614c49602c913960400191505060405180910390fd5b6004600083815260200190815260200160002060009054906101000a900473ffffffffffffffffffffffffffffffffffffffff169050919050565b60006114b982611b77565b90508073ffffffffffffffffffffffffffffffffffffffff168373ffffffffffffffffffffffffffffffffffffffff161415611540576040517f08c379a0000000000000000000000000000000000000000000000000000000008152600401808060200182810382526021815260200180614ccd6021913960400191505060405180910390fd5b8073ffffffffffffffffffffffffffffffffffffffff1661155f6131af565b73ffffffffffffffffffffffffffffffffffffffff16148061158e575061158d816115886131af565b6130fe565b5b6115e3576040517f08c379a0000000000000000000000000000000000000000000000000000000008152600401808060200182810382526038815260200180614b9c6038913960400191505060405180910390fd5b6115ed83836131b7565b505050565b60006115fe6002613270565b905090565b61161461160e6131af565b82613285565b611669576040517f08c379a0000000000000000000000000000000000000000000000000000000008152600401808060200182810382526031815260200180614cee6031913960400191505060405180910390fd5b611674838383613379565b505050565b60006116cc82600160008673ffffffffffffffffffffffffffffffffffffffff1673ffffffffffffffffffffffffffffffffffffffff1681526020019081526020016000206135bc90919063ffffffff16565b905092915050565b600073ffffffffffffffffffffffffffffffffffffffff168373ffffffffffffffffffffffffffffffffffffffff161415611777576040517f08c379a000000000000000000000000000000000000000000000000000000000815260040180806020018281038252600f8152602001807f696e76616c69642061646472657373000000000000000000000000000000000081525060200191505060405180910390fd5b600073ffffffffffffffffffffffffffffffffffffffff168273ffffffffffffffffffffffffffffffffffffffff16141561181a576040517f08c379a000000000000000000000000000000000000000000000000000000000815260040180806020018281038252600f8152602001807f696e76616c69642061646472657373000000000000000000000000000000000081525060200191505060405180910390fd5b61183583838360405180602001604052806000815250612104565b505050565b611843836135d6565b925083600a908051906020019061185b92919061493f565b5082600b908051906020019061187292919061493f565b5081600c908051906020019061188992919061493f565b5080600e60006101000a81548173ffffffffffffffffffffffffffffffffffffffff021916908373ffffffffffffffffffffffffffffffffffffffff1602179055506000600d8190555060405180608001604052808581526020018481526020018381526020013373ffffffffffffffffffffffffffffffffffffffff168152506015846040518082805190602001908083835b60208310611940578051825260208201915060208101905060208303925061191d565b6001836020036101000a0380198251168184511680821785525050505050509050019150509081526020016040518091039020600082015181600001908051906020019061198f92919061493f565b5060208201518160010190805190602001906119ac92919061493f565b5060408201518160020190805190602001906119c992919061493f565b5060608201518160030160006101000a81548173ffffffffffffffffffffffffffffffffffffffff021916908373ffffffffffffffffffffffffffffffffffffffff16021790555090505050505050565b600080611a318360026136f790919063ffffffff16565b50905080915050919050565b6060600073ffffffffffffffffffffffffffffffffffffffff168273ffffffffffffffffffffffffffffffffffffffff161415611ae2576040517f08c379a000000000000000000000000000000000000000000000000000000000815260040180806020018281038252600d8152602001807f696e76616c6964206f776e65720000000000000000000000000000000000000081525060200191505060405180910390fd5b601260008373ffffffffffffffffffffffffffffffffffffffff1673ffffffffffffffffffffffffffffffffffffffff168152602001908152602001600020805480602002602001604051908101604052809291908181526020018280548015611b6b57602002820191906000526020600020905b815481526020019060010190808311611b57575b50505050509050919050565b6000611ba782604051806060016040528060298152602001614bfe6029913960026137239092919063ffffffff16565b9050919050565b606060098054600181600116156101000203166002900480601f016020809104026020016040519081016040528092919081815260200182805460018160011615610100020316600290048015611c465780601f10611c1b57610100808354040283529160200191611c46565b820191906000526020600020905b815481529060010190602001808311611c2957829003601f168201915b5050505050905090565b60008073ffffffffffffffffffffffffffffffffffffffff168273ffffffffffffffffffffffffffffffffffffffff161415611cd7576040517f08c379a000000000000000000000000000000000000000000000000000000000815260040180806020018281038252602a815260200180614bd4602a913960400191505060405180910390fd5b611d1e600160008473ffffffffffffffffffffffffffffffffffffffff1673ffffffffffffffffffffffffffffffffffffffff168152602001908152602001600020613742565b9050919050565b606060078054600181600116156101000203166002900480601f016020809104026020016040519081016040528092919081815260200182805460018160011615610100020316600290048015611dbd5780601f10611d9257610100808354040283529160200191611dbd565b820191906000526020600020905b815481529060010190602001808311611da057829003601f168201915b5050505050905090565b60005b8151811015611dfd57611df083838381518110611de357fe5b60200260200101516114ae565b8080600101915050611dca565b505050565b611e0a6131af565b73ffffffffffffffffffffffffffffffffffffffff168273ffffffffffffffffffffffffffffffffffffffff161415611eab576040517f08c379a00000000000000000000000000000000000000000000000000000000081526004018080602001828103825260198152602001807f4552433732313a20617070726f766520746f2063616c6c65720000000000000081525060200191505060405180910390fd5b8060056000611eb86131af565b73ffffffffffffffffffffffffffffffffffffffff1673ffffffffffffffffffffffffffffffffffffffff16815260200190815260200160002060008473ffffffffffffffffffffffffffffffffffffffff1673ffffffffffffffffffffffffffffffffffffffff16815260200190815260200160002060006101000a81548160ff0219169083151502179055508173ffffffffffffffffffffffffffffffffffffffff16611f656131af565b73ffffffffffffffffffffffffffffffffffffffff167f17307eab39ab6107e8899845ad3d59bd9653f200f220920489ca2b5937696c318360405180821515815260200191505060405180910390a35050565b60006011600083815260200190815260200160002060009054906101000a900473ffffffffffffffffffffffffffffffffffffffff169050919050565b60003373ffffffffffffffffffffffffffffffffffffffff166015846040518082805190602001908083835b602083106120445780518252602082019150602081019050602083039250612021565b6001836020036101000a038019825116818451168082178552505050505050905001915050908152602001604051809103902060030160009054906101000a900473ffffffffffffffffffffffffffffffffffffffff1673ffffffffffffffffffffffffffffffffffffffff16146120bb57600080fd5b6120c482613757565b6011600083815260200190815260200160002060006101000a81549073ffffffffffffffffffffffffffffffffffffffff02191690556001905092915050565b61211561210f6131af565b83613285565b61216a576040517f08c379a0000000000000000000000000000000000000000000000000000000008152600401808060200182810382526031815260200180614cee6031913960400191505060405180910390fd5b600073ffffffffffffffffffffffffffffffffffffffff168473ffffffffffffffffffffffffffffffffffffffff16141561220d576040517f08c379a000000000000000000000000000000000000000000000000000000000815260040180806020018281038252600f8152602001807f696e76616c69642061646472657373000000000000000000000000000000000081525060200191505060405180910390fd5b600073ffffffffffffffffffffffffffffffffffffffff168373ffffffffffffffffffffffffffffffffffffffff1614156122b0576040517f08c379a000000000000000000000000000000000000000000000000000000000815260040180806020018281038252600f8152602001807f696e76616c69642061646472657373000000000000000000000000000000000081525060200191505060405180910390fd5b6122bc84848484613891565b826011600084815260200190815260200160002060006101000a81548173ffffffffffffffffffffffffffffffffffffffff021916908373ffffffffffffffffffffffffffffffffffffffff1602179055506060601260008673ffffffffffffffffffffffffffffffffffffffff1673ffffffffffffffffffffffffffffffffffffffff16815260200190815260200160002080548060200260200160405190810160405280929190818152602001828054801561239957602002820191906000526020600020905b815481526020019060010190808311612385575b505050505090506060600182510367ffffffffffffffff811180156123bd57600080fd5b506040519080825280602002602001820160405280156123ec5781602001602082028036833780820191505090505b5090506000601260008773ffffffffffffffffffffffffffffffffffffffff1673ffffffffffffffffffffffffffffffffffffffff16815260200190815260200160002090508085908060018154018082558091505060019003906000526020600020016000909190919091505580601260008873ffffffffffffffffffffffffffffffffffffffff1673ffffffffffffffffffffffffffffffffffffffff1681526020019081526020016000209080546124a89291906149cd565b506000805b845181101561251057868582815181106124c357fe5b602002602001015114612503578481815181106124dc57fe5b60200260200101518483806001019450815181106124f657fe5b6020026020010181815250505b80806001019150506124ad565b5082601260008a73ffffffffffffffffffffffffffffffffffffffff1673ffffffffffffffffffffffffffffffffffffffff1681526020019081526020016000209080519060200190612564929190614a1f565b505050505050505050565b600e60009054906101000a900473ffffffffffffffffffffffffffffffffffffffff1673ffffffffffffffffffffffffffffffffffffffff163373ffffffffffffffffffffffffffffffffffffffff16146125c957600080fd5b60006125d36115f2565b90506125df3382613903565b336011600083815260200190815260200160002060006101000a81548173ffffffffffffffffffffffffffffffffffffffff021916908373ffffffffffffffffffffffffffffffffffffffff1602179055506000601260003373ffffffffffffffffffffffffffffffffffffffff1673ffffffffffffffffffffffffffffffffffffffff16815260200190815260200160002090508082908060018154018082558091505060019003906000526020600020016000909190919091505580601260003373ffffffffffffffffffffffffffffffffffffffff1673ffffffffffffffffffffffffffffffffffffffff1681526020019081526020016000209080546126ea9291906149cd565b508260146000848152602001908152602001600020908051906020019061271292919061493f565b50505050565b606061272382613192565b612778576040517f08c379a000000000000000000000000000000000000000000000000000000000815260040180806020018281038252602f815260200180614c9e602f913960400191505060405180910390fd5b6060600860008481526020019081526020016000208054600181600116156101000203166002900480601f0160208091040260200160405190810160405280929190818152602001828054600181600116156101000203166002900480156128215780601f106127f657610100808354040283529160200191612821565b820191906000526020600020905b81548152906001019060200180831161280457829003601f168201915b505050505090506060612832611bae565b90506000815114156128485781925050506129e4565b6000825111156129195780826040516020018083805190602001908083835b6020831061288a5780518252602082019150602081019050602083039250612867565b6001836020036101000a03801982511681845116808217855250505050505090500182805190602001908083835b602083106128db57805182526020820191506020810190506020830392506128b8565b6001836020036101000a03801982511681845116808217855250505050505090500192505050604051602081830303815290604052925050506129e4565b8061292385613af7565b6040516020018083805190602001908083835b602083106129595780518252602082019150602081019050602083039250612936565b6001836020036101000a03801982511681845116808217855250505050505090500182805190602001908083835b602083106129aa5780518252602082019150602081019050602083039250612987565b6001836020036101000a03801982511681845116808217855250505050505090500192505050604051602081830303815290604052925050505b919050565b601581805160208101820180518482526020830160208501208183528095505050505050600091509050806000018054600181600116156101000203166002900480601f016020809104026020016040519081016040528092919081815260200182805460018160011615610100020316600290048015612aab5780601f10612a8057610100808354040283529160200191612aab565b820191906000526020600020905b815481529060010190602001808311612a8e57829003601f168201915b505050505090806001018054600181600116156101000203166002900480601f016020809104026020016040519081016040528092919081815260200182805460018160011615610100020316600290048015612b495780601f10612b1e57610100808354040283529160200191612b49565b820191906000526020600020905b815481529060010190602001808311612b2c57829003601f168201915b505050505090806002018054600181600116156101000203166002900480601f016020809104026020016040519081016040528092919081815260200182805460018160011615610100020316600290048015612be75780601f10612bbc57610100808354040283529160200191612be7565b820191906000526020600020905b815481529060010190602001808311612bca57829003601f168201915b5050505050908060030160009054906101000a900473ffffffffffffffffffffffffffffffffffffffff16905084565b60126020528160005260406000208181548110612c3357600080fd5b90600052602060002001600091509150505481565b6060601460008381526020019081526020016000208054600181600116156101000203166002900480601f016020809104026020016040519081016040528092919081815260200182805460018160011615610100020316600290048015612cf15780601f10612cc657610100808354040283529160200191612cf1565b820191906000526020600020905b815481529060010190602001808311612cd457829003601f168201915b50505050509050919050565b600e60009054906101000a900473ffffffffffffffffffffffffffffffffffffffff1673ffffffffffffffffffffffffffffffffffffffff163373ffffffffffffffffffffffffffffffffffffffff1614612d5757600080fd5b6060819050806040518060400160405280600181526020017f2f000000000000000000000000000000000000000000000000000000000000008152506040516020018083805190602001908083835b60208310612dc95780518252602082019150602081019050602083039250612da6565b6001836020036101000a03801982511681845116808217855250505050505090500182805190602001908083835b60208310612e1a5780518252602082019150602081019050602083039250612df7565b6001836020036101000a03801982511681845116808217855250505050505090500192505050604051602081830303815290604052905080612e5b84613c3e565b6040516020018083805190602001908083835b60208310612e915780518252602082019150602081019050602083039250612e6e565b6001836020036101000a03801982511681845116808217855250505050505090500182805190602001908083835b60208310612ee25780518252602082019150602081019050602083039250612ebf565b6001836020036101000a038019825116818451168082178552505050505050905001925050506040516020818303038152906040529050806040518060400160405280600581526020017f2e6a736f6e0000000000000000000000000000000000000000000000000000008152506040516020018083805190602001908083835b60208310612f865780518252602082019150602081019050602083039250612f63565b6001836020036101000a03801982511681845116808217855250505050505090500182805190602001908083835b60208310612fd75780518252602082019150602081019050602083039250612fb4565b6001836020036101000a0380198251168184511680821785525050505050509050019250505060405160208183030381529060405290508060146000858152602001908152602001600020908051906020019061303592919061493f565b5061303f83611b77565b73ffffffffffffffffffffffffffffffffffffffff167f533b52bf6683c1d8929816db9f4f8221ca670c6815cbd30bd5e92b4b8eb0957884836040518083815260200180602001828103825283818151815260200191508051906020019080838360005b838110156130be5780820151818401526020810190506130a3565b50505050905090810190601f1680156130eb5780820380516001836020036101000a031916815260200191505b50935050505060405180910390a2505050565b6000600560008473ffffffffffffffffffffffffffffffffffffffff1673ffffffffffffffffffffffffffffffffffffffff16815260200190815260200160002060008373ffffffffffffffffffffffffffffffffffffffff1673ffffffffffffffffffffffffffffffffffffffff16815260200190815260200160002060009054906101000a900460ff16905092915050565b60006131a8826002613e1d90919063ffffffff16565b9050919050565b600033905090565b816004600083815260200190815260200160002060006101000a81548173ffffffffffffffffffffffffffffffffffffffff021916908373ffffffffffffffffffffffffffffffffffffffff160217905550808273ffffffffffffffffffffffffffffffffffffffff1661322a83611b77565b73ffffffffffffffffffffffffffffffffffffffff167f8c5be1e5ebec7d5bd14f71427d1e84f3dd0314c0f7b2291e5b200ac8c7c3b92560405160405180910390a45050565b600061327e82600001613e37565b9050919050565b600061329082613192565b6132e5576040517f08c379a000000000000000000000000000000000000000000000000000000000815260040180806020018281038252602c815260200180614b70602c913960400191505060405180910390fd5b60006132f083611b77565b90508073ffffffffffffffffffffffffffffffffffffffff168473ffffffffffffffffffffffffffffffffffffffff16148061335f57508373ffffffffffffffffffffffffffffffffffffffff1661334784611413565b73ffffffffffffffffffffffffffffffffffffffff16145b80613370575061336f81856130fe565b5b91505092915050565b8273ffffffffffffffffffffffffffffffffffffffff1661339982611b77565b73ffffffffffffffffffffffffffffffffffffffff1614613405576040517f08c379a0000000000000000000000000000000000000000000000000000000008152600401808060200182810382526029815260200180614c756029913960400191505060405180910390fd5b600073ffffffffffffffffffffffffffffffffffffffff168273ffffffffffffffffffffffffffffffffffffffff16141561348b576040517f08c379a0000000000000000000000000000000000000000000000000000000008152600401808060200182810382526024815260200180614b266024913960400191505060405180910390fd5b613496838383613e48565b6134a16000826131b7565b6134f281600160008673ffffffffffffffffffffffffffffffffffffffff1673ffffffffffffffffffffffffffffffffffffffff168152602001908152602001600020613e4d90919063ffffffff16565b5061354481600160008573ffffffffffffffffffffffffffffffffffffffff1673ffffffffffffffffffffffffffffffffffffffff168152602001908152602001600020613e6790919063ffffffff16565b5061355b81836002613e819092919063ffffffff16565b50808273ffffffffffffffffffffffffffffffffffffffff168473ffffffffffffffffffffffffffffffffffffffff167fddf252ad1be2c89b69c2b068fc378daa952ba7f163c4a11628f55a4df523b3ef60405160405180910390a4505050565b60006135cb8360000183613eb6565b60001c905092915050565b60608082905060005b81518110156136ea577f610000000000000000000000000000000000000000000000000000000000000060f81c60ff1682828151811061361b57fe5b602001015160f81c60f81b60f81c60ff161015801561367c57507f7a0000000000000000000000000000000000000000000000000000000000000060f81c60ff1682828151811061366857fe5b602001015160f81c60f81b60f81c60ff1611155b156136dd57602082828151811061368f57fe5b602001015160f81c60f81b60f81c0360f81b8282815181106136ad57fe5b60200101907effffffffffffffffffffffffffffffffffffffffffffffffffffffffffffff1916908160001a9053505b80806001019150506135df565b5080925082915050919050565b60008060008061370a8660000186613f39565b915091508160001c8160001c9350935050509250929050565b6000613736846000018460001b84613fd2565b60001c90509392505050565b6000613750826000016140c8565b9050919050565b600061376282611b77565b905061377081600084613e48565b61377b6000836131b7565b600060086000848152602001908152602001600020805460018160011615610100020316600290049050146137ca576008600083815260200190815260200160002060006137c99190614a6c565b5b61381b82600160008473ffffffffffffffffffffffffffffffffffffffff1673ffffffffffffffffffffffffffffffffffffffff168152602001908152602001600020613e4d90919063ffffffff16565b506138308260026140d990919063ffffffff16565b5081600073ffffffffffffffffffffffffffffffffffffffff168273ffffffffffffffffffffffffffffffffffffffff167fddf252ad1be2c89b69c2b068fc378daa952ba7f163c4a11628f55a4df523b3ef60405160405180910390a45050565b61389c848484613379565b6138a8848484846140f3565b6138fd576040517f08c379a0000000000000000000000000000000000000000000000000000000008152600401808060200182810382526032815260200180614af46032913960400191505060405180910390fd5b50505050565b600073ffffffffffffffffffffffffffffffffffffffff168273ffffffffffffffffffffffffffffffffffffffff1614156139a6576040517f08c379a00000000000000000000000000000000000000000000000000000000081526004018080602001828103825260208152602001807f4552433732313a206d696e7420746f20746865207a65726f206164647265737381525060200191505060405180910390fd5b6139af81613192565b15613a22576040517f08c379a000000000000000000000000000000000000000000000000000000000815260040180806020018281038252601c8152602001807f4552433732313a20746f6b656e20616c7265616479206d696e7465640000000081525060200191505060405180910390fd5b613a2e60008383613e48565b613a7f81600160008573ffffffffffffffffffffffffffffffffffffffff1673ffffffffffffffffffffffffffffffffffffffff168152602001908152602001600020613e6790919063ffffffff16565b50613a9681836002613e819092919063ffffffff16565b50808273ffffffffffffffffffffffffffffffffffffffff16600073ffffffffffffffffffffffffffffffffffffffff167fddf252ad1be2c89b69c2b068fc378daa952ba7f163c4a11628f55a4df523b3ef60405160405180910390a45050565b60606000821415613b3f576040518060400160405280600181526020017f30000000000000000000000000000000000000000000000000000000000000008152509050613c39565b600082905060005b60008214613b69578080600101915050600a8281613b6157fe5b049150613b47565b60608167ffffffffffffffff81118015613b8257600080fd5b506040519080825280601f01601f191660200182016040528015613bb55781602001600182028036833780820191505090505b50905060006001830390508593505b60008414613c3157600a8481613bd657fe5b0660300160f81b82828060019003935081518110613bf057fe5b60200101907effffffffffffffffffffffffffffffffffffffffffffffffffffffffffffff1916908160001a905350600a8481613c2957fe5b049350613bc4565b819450505050505b919050565b606060006064905060608167ffffffffffffffff81118015613c5f57600080fd5b506040519080825280601f01601f191660200182016040528015613c925781602001600182028036833780820191505090505b509050600080851415613cdf576040518060400160405280600181526020017f30000000000000000000000000000000000000000000000000000000000000008152509350505050613e18565b5b60008514613d52576000600a8681613cf457fe5b069050600a8681613d0157fe5b0495508060300160f81b838380600101945081518110613d1d57fe5b60200101907effffffffffffffffffffffffffffffffffffffffffffffffffffffffffffff1916908160001a90535050613ce0565b60606001820167ffffffffffffffff81118015613d6e57600080fd5b506040519080825280601f01601f191660200182016040528015613da15781602001600182028036833780820191505090505b50905060005b828111613e0f578381840381518110613dbc57fe5b602001015160f81c60f81b828281518110613dd357fe5b60200101907effffffffffffffffffffffffffffffffffffffffffffffffffffffffffffff1916908160001a9053508080600101915050613da7565b50809450505050505b919050565b6000613e2f836000018360001b61430c565b905092915050565b600081600001805490509050919050565b505050565b6000613e5f836000018360001b61432f565b905092915050565b6000613e79836000018360001b614417565b905092915050565b6000613ead846000018460001b8473ffffffffffffffffffffffffffffffffffffffff1660001b614487565b90509392505050565b600081836000018054905011613f17576040517f08c379a0000000000000000000000000000000000000000000000000000000008152600401808060200182810382526022815260200180614ad26022913960400191505060405180910390fd5b826000018281548110613f2657fe5b9060005260206000200154905092915050565b60008082846000018054905011613f9b576040517f08c379a0000000000000000000000000000000000000000000000000000000008152600401808060200182810382526022815260200180614c276022913960400191505060405180910390fd5b6000846000018481548110613fac57fe5b906000526020600020906002020190508060000154816001015492509250509250929050565b60008084600101600085815260200190815260200160002054905060008114158390614099576040517f08c379a00000000000000000000000000000000000000000000000000000000081526004018080602001828103825283818151815260200191508051906020019080838360005b8381101561405e578082015181840152602081019050614043565b50505050905090810190601f16801561408b5780820380516001836020036101000a031916815260200191505b509250505060405180910390fd5b508460000160018203815481106140ac57fe5b9060005260206000209060020201600101549150509392505050565b600081600001805490509050919050565b60006140eb836000018360001b614563565b905092915050565b60006141148473ffffffffffffffffffffffffffffffffffffffff1661467c565b6141215760019050614304565b606061428b63150b7a0260e01b6141366131af565b888787604051602401808573ffffffffffffffffffffffffffffffffffffffff1681526020018473ffffffffffffffffffffffffffffffffffffffff16815260200183815260200180602001828103825283818151815260200191508051906020019080838360005b838110156141ba57808201518184015260208101905061419f565b50505050905090810190601f1680156141e75780820380516001836020036101000a031916815260200191505b5095505050505050604051602081830303815290604052907bffffffffffffffffffffffffffffffffffffffffffffffffffffffff19166020820180517bffffffffffffffffffffffffffffffffffffffffffffffffffffffff8381831617835250505050604051806060016040528060328152602001614af4603291398773ffffffffffffffffffffffffffffffffffffffff1661468f9092919063ffffffff16565b905060008180602001905160208110156142a457600080fd5b8101908080519060200190929190505050905063150b7a0260e01b7bffffffffffffffffffffffffffffffffffffffffffffffffffffffff1916817bffffffffffffffffffffffffffffffffffffffffffffffffffffffff191614925050505b949350505050565b600080836001016000848152602001908152602001600020541415905092915050565b6000808360010160008481526020019081526020016000205490506000811461440b576000600182039050600060018660000180549050039050600086600001828154811061437a57fe5b906000526020600020015490508087600001848154811061439757fe5b90600052602060002001819055506001830187600101600083815260200190815260200160002081905550866000018054806143cf57fe5b60019003818190600052602060002001600090559055866001016000878152602001908152602001600020600090556001945050505050614411565b60009150505b92915050565b600061442383836146a7565b61447c578260000182908060018154018082558091505060019003906000526020600020016000909190919091505582600001805490508360010160008481526020019081526020016000208190555060019050614481565b600090505b92915050565b600080846001016000858152602001908152602001600020549050600081141561452e5784600001604051806040016040528086815260200185815250908060018154018082558091505060019003906000526020600020906002020160009091909190915060008201518160000155602082015181600101555050846000018054905085600101600086815260200190815260200160002081905550600191505061455c565b8285600001600183038154811061454157fe5b90600052602060002090600202016001018190555060009150505b9392505050565b6000808360010160008481526020019081526020016000205490506000811461467057600060018203905060006001866000018054905003905060008660000182815481106145ae57fe5b90600052602060002090600202019050808760000184815481106145ce57fe5b906000526020600020906002020160008201548160000155600182015481600101559050506001830187600101600083600001548152602001908152602001600020819055508660000180548061462157fe5b6001900381819060005260206000209060020201600080820160009055600182016000905550509055866001016000878152602001908152602001600020600090556001945050505050614676565b60009150505b92915050565b600080823b905060008111915050919050565b606061469e84846000856146ca565b90509392505050565b600080836001016000848152602001908152602001600020541415905092915050565b606082471015614725576040517f08c379a0000000000000000000000000000000000000000000000000000000008152600401808060200182810382526026815260200180614b4a6026913960400191505060405180910390fd5b61472e8561467c565b6147a0576040517f08c379a000000000000000000000000000000000000000000000000000000000815260040180806020018281038252601d8152602001807f416464726573733a2063616c6c20746f206e6f6e2d636f6e747261637400000081525060200191505060405180910390fd5b600060608673ffffffffffffffffffffffffffffffffffffffff1685876040518082805190602001908083835b602083106147f057805182526020820191506020810190506020830392506147cd565b6001836020036101000a03801982511681845116808217855250505050505090500191505060006040518083038185875af1925050503d8060008114614852576040519150601f19603f3d011682016040523d82523d6000602084013e614857565b606091505b5091509150614867828286614873565b92505050949350505050565b6060831561488357829050614938565b6000835111156148965782518084602001fd5b816040517f08c379a00000000000000000000000000000000000000000000000000000000081526004018080602001828103825283818151815260200191508051906020019080838360005b838110156148fd5780820151818401526020810190506148e2565b50505050905090810190601f16801561492a5780820380516001836020036101000a031916815260200191505b509250505060405180910390fd5b9392505050565b828054600181600116156101000203166002900490600052602060002090601f01602090048101928261497557600085556149bc565b82601f1061498e57805160ff19168380011785556149bc565b828001600101855582156149bc579182015b828111156149bb5782518255916020019190600101906149a0565b5b5090506149c99190614ab4565b5090565b828054828255906000526020600020908101928215614a0e5760005260206000209182015b82811115614a0d5782548255916001019190600101906149f2565b5b509050614a1b9190614ab4565b5090565b828054828255906000526020600020908101928215614a5b579160200282015b82811115614a5a578251825591602001919060010190614a3f565b5b509050614a689190614ab4565b5090565b50805460018160011615610100020316600290046000825580601f10614a925750614ab1565b601f016020900490600052602060002090810190614ab09190614ab4565b5b50565b5b80821115614acd576000816000905550600101614ab5565b509056fe456e756d657261626c655365743a20696e646578206f7574206f6620626f756e64734552433732313a207472616e7366657220746f206e6f6e20455243373231526563656976657220696d706c656d656e7465724552433732313a207472616e7366657220746f20746865207a65726f2061646472657373416464726573733a20696e73756666696369656e742062616c616e636520666f722063616c6c4552433732313a206f70657261746f7220717565727920666f72206e6f6e6578697374656e7420746f6b656e4552433732313a20617070726f76652063616c6c6572206973206e6f74206f776e6572206e6f7220617070726f76656420666f7220616c6c4552433732313a2062616c616e636520717565727920666f7220746865207a65726f20616464726573734552433732313a206f776e657220717565727920666f72206e6f6e6578697374656e7420746f6b656e456e756d657261626c654d61703a20696e646578206f7574206f6620626f756e64734552433732313a20617070726f76656420717565727920666f72206e6f6e6578697374656e7420746f6b656e4552433732313a207472616e73666572206f6620746f6b656e2074686174206973206e6f74206f776e4552433732314d657461646174613a2055524920717565727920666f72206e6f6e6578697374656e7420746f6b656e4552433732313a20617070726f76616c20746f2063757272656e74206f776e65724552433732313a207472616e736665722063616c6c6572206973206e6f74206f776e6572206e6f7220617070726f766564a26469706673582212209a848fab94a98d87f3567a5bf7fcb6f9e2600d04795c339ad67dc3c05d0b99ef64736f6c63430007040033",
  "immutableReferences": {},
  "source": "// SPDX-License-Identifier: MIT\r\npragma solidity >=0.4.22 <0.8.4;\r\n\r\nimport \"./ERC721_FORKED.sol\";\r\n\r\ncontract NftFactory is ERC721_FORKED {\r\n  string internal _name;\r\n  string internal _symbol;\r\n  string internal _description;\r\n  // Total tokens starts at 0 because each new token must be minted and the\r\n  // _mint() call adds 1 to totalTokens\r\n  uint256 totalTokens = 0;\r\n\r\n  address internal _creator;\r\n\r\n  address internal feeAccount; // the account that receives exchange\r\n  uint256 internal feePercent; // the fee percentage\r\n\r\n  // Mapping from token ID to owner\r\n  mapping(uint256 => address) tokenOwner;\r\n\r\n  // Mapping from owner to list of owned token IDs\r\n  mapping(address => uint256[]) public ownedTokens;\r\n\r\n  // Mapping from token ID to index of the owner tokens list\r\n  mapping(uint256 => uint256) ownedTokensIndex;\r\n\r\n  // Metadata is a URL that points to a json dictionary\r\n  mapping(uint256 => string) tokenIdToMetadata;\r\n\r\n  // mapping from symbol to full registration info\r\n  mapping(string => REGISTRY) public registries;\r\n\r\n  event MetadataAssigned(address indexed _owner, uint256 _tokenId, string _url);\r\n\r\n  /**\r\n   * its a struct to save every registry been made and store it to fetch any registry by chosing the symbol only\r\n   * also good for making sure that symbols should be unique\r\n   */\r\n  struct REGISTRY {\r\n    string name;\r\n    string symbol;\r\n    string description;\r\n    address creator;\r\n  }\r\n\r\n  /**\r\n   * a registry function that iis been called by the NFT registry smart contract\r\n   */\r\n\r\n  function Registry(\r\n    string memory name,\r\n    string memory symbol,\r\n    string memory description,\r\n    address caller\r\n  ) public {\r\n    symbol = _upperCase(symbol);\r\n\r\n    _name = name;\r\n    _symbol = symbol;\r\n    _description = description;\r\n    _creator = caller;\r\n    totalTokens = 0;\r\n\r\n    registries[symbol] = REGISTRY(name, symbol, description, msg.sender);\r\n  }\r\n\r\n  /**\r\n   * a modifier to make sure that the address exists\r\n   */\r\n  modifier isOwnedToken(uint256 _tokenId) {\r\n    require(ownerOf(_tokenId) != address(0));\r\n    _;\r\n  }\r\n\r\n  /**\r\n   * this function assignes the URI to automaticlay add the id number at the end of the URI\r\n   */\r\n  function assignDataToToken(uint256 id, string memory uri) public {\r\n    require(msg.sender == _creator);\r\n    bytes memory _url = bytes(uri);\r\n\r\n    _url = abi.encodePacked(_url, bytes(\"/\"));\r\n    _url = abi.encodePacked(_url, _uintToBytes(id));\r\n    _url = abi.encodePacked(_url, bytes(\".json\"));\r\n\r\n    tokenIdToMetadata[id] = string(_url);\r\n    MetadataAssigned(ownerOf(id), id, string(_url));\r\n  }\r\n\r\n  /**\r\n   * this function helps with queries to Fetch the metadata for a givine token id\r\n   */\r\n  function getMetadataAtID(uint256 _tokenId)\r\n    public\r\n    view\r\n    returns (string memory)\r\n  {\r\n    return tokenIdToMetadata[_tokenId];\r\n  }\r\n\r\n  /**\r\n   * this function helps with queries to Fetch the owner address of the token by givine token id\r\n   */\r\n  function getTokenOwner(uint256 id) public view returns (address) {\r\n    return tokenOwner[id];\r\n  }\r\n\r\n  /**\r\n   * this function helps with queries to Fetch all the tokens that the address owns by givine address\r\n   */\r\n  function tokensOf(address _owner) public view returns (uint256[] memory) {\r\n    require(_owner != address(0), \"invalid owner\");\r\n    return ownedTokens[_owner];\r\n  }\r\n\r\n  /**\r\n   * this function allows to approve more than one token id at once\r\n   */\r\n  function approveMany(address _to, uint256[] memory _tokenIds) public {\r\n    /* Allows bulk-approval of many tokens. This function is useful for\r\n       exchanges where users can make a single tx to enable the call of\r\n       transferFrom for those tokens by an exchange contract. */\r\n    for (uint256 i = 0; i < _tokenIds.length; i++) {\r\n      // approve handles the check for if one who is approving is the owner.\r\n      approve(_to, _tokenIds[i]);\r\n    }\r\n  }\r\n\r\n  /**\r\n   * this function allows to approve all the tokens the address owns at once\r\n   */\r\n  function approveAll(address _to) public {\r\n    uint256[] memory tokens = tokensOf(msg.sender);\r\n    for (uint256 t = 0; t < tokens.length; t++) {\r\n      approve(_to, tokens[t]);\r\n    }\r\n  }\r\n\r\n  /**\r\n   * this overload function allows to transfer tokens and updates all the mapping queries(without filling the URI)  \r\n   */\r\n  function safeTransferFrom(\r\n    address from,\r\n    address to,\r\n    uint256 tokenId\r\n  ) public virtual override {\r\n    require(from != address(0), \"invalid address\");\r\n    require(to != address(0), \"invalid address\");\r\n    // add require to make sure that the tokenid exsistes\r\n    safeTransferFrom(from, to, tokenId, \"\");\r\n  }\r\n\r\n  /**\r\n   * this overload function allows to transfer tokens and updates all the mapping queries(with filling the URI)  \r\n   */\r\n  function safeTransferFrom(\r\n    address from,\r\n    address to,\r\n    uint256 tokenId,\r\n    bytes memory _data\r\n  ) public virtual override {\r\n    require(\r\n      _isApprovedOrOwner(_msgSender(), tokenId),\r\n      \"ERC721: transfer caller is not owner nor approved\"\r\n    );\r\n    require(from != address(0), \"invalid address\");\r\n    require(to != address(0), \"invalid address\");\r\n    _safeTransfer(from, to, tokenId, _data);\r\n    tokenOwner[tokenId] = to;\r\n    uint256[] memory fromIds = ownedTokens[from];\r\n    uint256[] memory newFromIds = new uint256[](fromIds.length - 1);\r\n    uint256[] storage toIds = ownedTokens[to];\r\n    toIds.push(tokenId);\r\n    ownedTokens[to] = toIds;\r\n    uint256 j = 0;\r\n    for (uint256 i = 0; i < fromIds.length; i++) {\r\n      if (fromIds[i] != tokenId) newFromIds[j++] = (fromIds[i]);\r\n    }\r\n    ownedTokens[from] = newFromIds;\r\n  }\r\n\r\n  /**\r\n   * this function allows to mint more of your NFT  \r\n   */\r\n  function Mint(string memory url) public {\r\n    require(msg.sender == _creator);\r\n    uint256 currentTokenCount = totalSupply();\r\n    // The index of the newest token is at the # totalTokens.\r\n    _mint(msg.sender, currentTokenCount);\r\n    // assign id to owner\r\n    tokenOwner[currentTokenCount] = msg.sender;\r\n    // assign address to array of owned tokens aned you can qury what ids the address owns\r\n    uint256[] storage ids = ownedTokens[msg.sender];\r\n    ids.push(currentTokenCount);\r\n    ownedTokens[msg.sender] = ids;\r\n    // _mint() call adds 1 to total tokens, but we want the token at index - 1\r\n    tokenIdToMetadata[currentTokenCount] = url;\r\n  }\r\n\r\n\r\n  /**\r\n   * this function allows you burn your NFT  \r\n   */\r\n  function burn(string memory symbol, uint256 _id) public returns (bool) {\r\n    require(registries[symbol].creator == msg.sender);\r\n    _burn(_id);\r\n    delete tokenOwner[_id];\r\n    return true;\r\n  }\r\n\r\n  /**\r\n   * this function is been created just to convert uint variable to bytes\r\n   *(private function only used in the \"assignDataToToken\" function in order to convert the uint variable to bytes\r\n   * in order to concatenate it )  \r\n   */\r\n  function _uintToBytes(uint256 _int) internal pure returns (bytes memory) {\r\n    uint256 maxlength = 100;\r\n    bytes memory reversed = new bytes(maxlength);\r\n    uint256 i = 0;\r\n    if (_int == 0) return bytes(\"0\");\r\n    while (_int != 0) {\r\n      uint256 remainder = _int % 10;\r\n      _int = _int / 10;\r\n      reversed[i++] = bytes1(uint8(48 + remainder));\r\n    }\r\n    bytes memory s = new bytes(i + 1);\r\n    for (uint256 j = 0; j <= i; j++) {\r\n      s[j] = reversed[i - j];\r\n    }\r\n    return s;\r\n  }\r\n\r\n  /**\r\n   * this function is been created just to convert small strings to capital \r\n   *(private function only used in functions that we want to make the symbol auto capital \r\n   * in order to concatenate it )  \r\n   */\r\n\r\n  function _upperCase(string memory enter)\r\n    internal\r\n    pure\r\n    returns (string memory)\r\n  {\r\n    bytes memory strbyte = bytes(enter);\r\n    for (uint256 i = 0; i < strbyte.length; i++) {\r\n      if (\r\n        uint8(strbyte[i]) >= uint8(bytes1(\"a\")) &&\r\n        uint8(strbyte[i]) <= uint8(bytes1(\"z\"))\r\n      ) strbyte[i] = bytes1(uint8(strbyte[i]) - 32);\r\n    }\r\n    enter = string(strbyte);\r\n    return enter;\r\n  }\r\n}\r\n",
  "sourcePath": "C:\\Users\\Zaid\\Desktop\\New folder (13)\\NFT_Contract_Factory\\src\\contracts\\NftFactory.sol",
  "compiler": {
    "name": "solc",
    "version": "0.7.4+commit.3f05b770.Emscripten.clang"
  },
  "schemaVersion": "3.3.4",
  "updatedAt": "2021-04-06T21:16:29.657Z",
  "devdoc": {
    "kind": "dev",
    "methods": {
      "approve(address,uint256)": {
        "details": "See {IERC721-approve}."
      },
      "balanceOf(address)": {
        "details": "See {IERC721-balanceOf}."
      },
      "baseURI()": {
        "details": "Returns the base URI set via {_setBaseURI}. This will be automatically added as a prefix in {tokenURI} to each token's URI, or to the token ID if no specific URI is set for that token ID."
      },
      "getApproved(uint256)": {
        "details": "See {IERC721-getApproved}."
      },
      "isApprovedForAll(address,address)": {
        "details": "See {IERC721-isApprovedForAll}."
      },
      "name()": {
        "details": "See {IERC721Metadata-name}."
      },
      "ownerOf(uint256)": {
        "details": "See {IERC721-ownerOf}."
      },
      "setApprovalForAll(address,bool)": {
        "details": "See {IERC721-setApprovalForAll}."
      },
      "supportsInterface(bytes4)": {
        "details": "See {IERC165-supportsInterface}. Time complexity O(1), guaranteed to always use less than 30 000 gas."
      },
      "symbol()": {
        "details": "See {IERC721Metadata-symbol}."
      },
      "tokenByIndex(uint256)": {
        "details": "See {IERC721Enumerable-tokenByIndex}."
      },
      "tokenOfOwnerByIndex(address,uint256)": {
        "details": "See {IERC721Enumerable-tokenOfOwnerByIndex}."
      },
      "tokenURI(uint256)": {
        "details": "See {IERC721Metadata-tokenURI}."
      },
      "totalSupply()": {
        "details": "See {IERC721Enumerable-totalSupply}."
      },
      "transferFrom(address,address,uint256)": {
        "details": "See {IERC721-transferFrom}."
      }
    },
    "version": 1
  },
  "userdoc": {
    "kind": "user",
    "methods": {
      "Mint(string)": {
        "notice": "this function allows to mint more of your NFT  "
      },
      "Registry(string,string,string,address)": {
        "notice": "a registry function that iis been called by the NFT registry smart contract"
      },
      "approveAll(address)": {
        "notice": "this function allows to approve all the tokens the address owns at once"
      },
      "approveMany(address,uint256[])": {
        "notice": "this function allows to approve more than one token id at once"
      },
      "assignDataToToken(uint256,string)": {
        "notice": "this function assignes the URI to automaticlay add the id number at the end of the URI"
      },
      "burn(string,uint256)": {
        "notice": "this function allows you burn your NFT  "
      },
      "getMetadataAtID(uint256)": {
        "notice": "this function helps with queries to Fetch the metadata for a givine token id"
      },
      "getTokenOwner(uint256)": {
        "notice": "this function helps with queries to Fetch the owner address of the token by givine token id"
      },
      "safeTransferFrom(address,address,uint256)": {
        "notice": "this overload function allows to transfer tokens and updates all the mapping queries(without filling the URI)  "
      },
      "safeTransferFrom(address,address,uint256,bytes)": {
        "notice": "this overload function allows to transfer tokens and updates all the mapping queries(with filling the URI)  "
      },
      "tokensOf(address)": {
        "notice": "this function helps with queries to Fetch all the tokens that the address owns by givine address"
      }
    },
    "version": 1
  }
}