{
  "contractName": "NftFactory",
  "abi": [
    {
      "inputs": [
        {
          "internalType": "string",
          "name": "_name",
          "type": "string"
        },
        {
          "internalType": "string",
          "name": "_symbol",
          "type": "string"
        },
        {
          "internalType": "string",
          "name": "_description",
          "type": "string"
        },
        {
          "internalType": "string",
          "name": "_uri",
          "type": "string"
        },
        {
          "internalType": "address",
          "name": "_caller",
          "type": "address"
        },
        {
          "internalType": "bool",
          "name": "_isPrivate",
          "type": "bool"
        }
      ],
      "stateMutability": "nonpayable",
      "type": "constructor"
    },
    {
      "anonymous": false,
      "inputs": [
        {
          "indexed": true,
          "internalType": "address",
          "name": "owner",
          "type": "address"
        },
        {
          "indexed": true,
          "internalType": "address",
          "name": "approved",
          "type": "address"
        },
        {
          "indexed": true,
          "internalType": "uint256",
          "name": "tokenId",
          "type": "uint256"
        }
      ],
      "name": "Approval",
      "type": "event"
    },
    {
      "anonymous": false,
      "inputs": [
        {
          "indexed": true,
          "internalType": "address",
          "name": "owner",
          "type": "address"
        },
        {
          "indexed": true,
          "internalType": "address",
          "name": "operator",
          "type": "address"
        },
        {
          "indexed": false,
          "internalType": "bool",
          "name": "approved",
          "type": "bool"
        }
      ],
      "name": "ApprovalForAll",
      "type": "event"
    },
    {
      "anonymous": false,
      "inputs": [
        {
          "indexed": true,
          "internalType": "address",
          "name": "_owner",
          "type": "address"
        },
        {
          "indexed": false,
          "internalType": "uint256",
          "name": "_tokenId",
          "type": "uint256"
        },
        {
          "indexed": false,
          "internalType": "string",
          "name": "_url",
          "type": "string"
        }
      ],
      "name": "MetadataAssigned",
      "type": "event"
    },
    {
      "anonymous": false,
      "inputs": [
        {
          "indexed": false,
          "internalType": "string",
          "name": "url",
          "type": "string"
        },
        {
          "indexed": false,
          "internalType": "uint256",
          "name": "tokenId",
          "type": "uint256"
        }
      ],
      "name": "Mint",
      "type": "event"
    },
    {
      "anonymous": false,
      "inputs": [
        {
          "indexed": true,
          "internalType": "address",
          "name": "from",
          "type": "address"
        },
        {
          "indexed": true,
          "internalType": "address",
          "name": "to",
          "type": "address"
        },
        {
          "indexed": true,
          "internalType": "uint256",
          "name": "tokenId",
          "type": "uint256"
        }
      ],
      "name": "Transfer",
      "type": "event"
    },
    {
      "inputs": [],
      "name": "Nftcreator",
      "outputs": [
        {
          "internalType": "address",
          "name": "",
          "type": "address"
        }
      ],
      "stateMutability": "view",
      "type": "function"
    },
    {
      "inputs": [],
      "name": "Nftdescription",
      "outputs": [
        {
          "internalType": "string",
          "name": "",
          "type": "string"
        }
      ],
      "stateMutability": "view",
      "type": "function"
    },
    {
      "inputs": [],
      "name": "Nftname",
      "outputs": [
        {
          "internalType": "string",
          "name": "",
          "type": "string"
        }
      ],
      "stateMutability": "view",
      "type": "function"
    },
    {
      "inputs": [],
      "name": "Nftsymbol",
      "outputs": [
        {
          "internalType": "string",
          "name": "",
          "type": "string"
        }
      ],
      "stateMutability": "view",
      "type": "function"
    },
    {
      "inputs": [],
      "name": "Nfturi",
      "outputs": [
        {
          "internalType": "string",
          "name": "",
          "type": "string"
        }
      ],
      "stateMutability": "view",
      "type": "function"
    },
    {
      "inputs": [
        {
          "internalType": "address",
          "name": "to",
          "type": "address"
        },
        {
          "internalType": "uint256",
          "name": "tokenId",
          "type": "uint256"
        }
      ],
      "name": "approve",
      "outputs": [],
      "stateMutability": "nonpayable",
      "type": "function"
    },
    {
      "inputs": [
        {
          "internalType": "address",
          "name": "owner",
          "type": "address"
        }
      ],
      "name": "balanceOf",
      "outputs": [
        {
          "internalType": "uint256",
          "name": "",
          "type": "uint256"
        }
      ],
      "stateMutability": "view",
      "type": "function"
    },
    {
      "inputs": [],
      "name": "baseURI",
      "outputs": [
        {
          "internalType": "string",
          "name": "",
          "type": "string"
        }
      ],
      "stateMutability": "view",
      "type": "function"
    },
    {
      "inputs": [
        {
          "internalType": "uint256",
          "name": "tokenId",
          "type": "uint256"
        }
      ],
      "name": "getApproved",
      "outputs": [
        {
          "internalType": "address",
          "name": "",
          "type": "address"
        }
      ],
      "stateMutability": "view",
      "type": "function"
    },
    {
      "inputs": [
        {
          "internalType": "address",
          "name": "owner",
          "type": "address"
        },
        {
          "internalType": "address",
          "name": "operator",
          "type": "address"
        }
      ],
      "name": "isApprovedForAll",
      "outputs": [
        {
          "internalType": "bool",
          "name": "",
          "type": "bool"
        }
      ],
      "stateMutability": "view",
      "type": "function"
    },
    {
      "inputs": [],
      "name": "isPrivate",
      "outputs": [
        {
          "internalType": "bool",
          "name": "",
          "type": "bool"
        }
      ],
      "stateMutability": "view",
      "type": "function"
    },
    {
      "inputs": [],
      "name": "name",
      "outputs": [
        {
          "internalType": "string",
          "name": "",
          "type": "string"
        }
      ],
      "stateMutability": "view",
      "type": "function"
    },
    {
      "inputs": [
        {
          "internalType": "uint256",
          "name": "tokenId",
          "type": "uint256"
        }
      ],
      "name": "ownerOf",
      "outputs": [
        {
          "internalType": "address",
          "name": "",
          "type": "address"
        }
      ],
      "stateMutability": "view",
      "type": "function"
    },
    {
      "inputs": [
        {
          "internalType": "address",
          "name": "operator",
          "type": "address"
        },
        {
          "internalType": "bool",
          "name": "approved",
          "type": "bool"
        }
      ],
      "name": "setApprovalForAll",
      "outputs": [],
      "stateMutability": "nonpayable",
      "type": "function"
    },
    {
      "inputs": [
        {
          "internalType": "bytes4",
          "name": "interfaceId",
          "type": "bytes4"
        }
      ],
      "name": "supportsInterface",
      "outputs": [
        {
          "internalType": "bool",
          "name": "",
          "type": "bool"
        }
      ],
      "stateMutability": "view",
      "type": "function"
    },
    {
      "inputs": [],
      "name": "symbol",
      "outputs": [
        {
          "internalType": "string",
          "name": "",
          "type": "string"
        }
      ],
      "stateMutability": "view",
      "type": "function"
    },
    {
      "inputs": [
        {
          "internalType": "uint256",
          "name": "index",
          "type": "uint256"
        }
      ],
      "name": "tokenByIndex",
      "outputs": [
        {
          "internalType": "uint256",
          "name": "",
          "type": "uint256"
        }
      ],
      "stateMutability": "view",
      "type": "function"
    },
    {
      "inputs": [
        {
          "internalType": "address",
          "name": "owner",
          "type": "address"
        },
        {
          "internalType": "uint256",
          "name": "index",
          "type": "uint256"
        }
      ],
      "name": "tokenOfOwnerByIndex",
      "outputs": [
        {
          "internalType": "uint256",
          "name": "",
          "type": "uint256"
        }
      ],
      "stateMutability": "view",
      "type": "function"
    },
    {
      "inputs": [
        {
          "internalType": "uint256",
          "name": "tokenId",
          "type": "uint256"
        }
      ],
      "name": "tokenURI",
      "outputs": [
        {
          "internalType": "string",
          "name": "",
          "type": "string"
        }
      ],
      "stateMutability": "view",
      "type": "function"
    },
    {
      "inputs": [],
      "name": "totalSupply",
      "outputs": [
        {
          "internalType": "uint256",
          "name": "",
          "type": "uint256"
        }
      ],
      "stateMutability": "view",
      "type": "function"
    },
    {
      "inputs": [],
      "name": "totalTokens",
      "outputs": [
        {
          "internalType": "uint256",
          "name": "",
          "type": "uint256"
        }
      ],
      "stateMutability": "view",
      "type": "function"
    },
    {
      "inputs": [
        {
          "internalType": "address",
          "name": "from",
          "type": "address"
        },
        {
          "internalType": "address",
          "name": "to",
          "type": "address"
        },
        {
          "internalType": "uint256",
          "name": "tokenId",
          "type": "uint256"
        }
      ],
      "name": "transferFrom",
      "outputs": [],
      "stateMutability": "nonpayable",
      "type": "function"
    },
    {
      "inputs": [
        {
          "internalType": "uint256",
          "name": "_tokenId",
          "type": "uint256"
        }
      ],
      "name": "getMetadataAtID",
      "outputs": [
        {
          "internalType": "string",
          "name": "",
          "type": "string"
        }
      ],
      "stateMutability": "view",
      "type": "function"
    },
    {
      "inputs": [
        {
          "internalType": "address",
          "name": "_owner",
          "type": "address"
        }
      ],
      "name": "tokensOf",
      "outputs": [
        {
          "internalType": "uint256[]",
          "name": "",
          "type": "uint256[]"
        }
      ],
      "stateMutability": "view",
      "type": "function"
    },
    {
      "inputs": [
        {
          "internalType": "address",
          "name": "_to",
          "type": "address"
        },
        {
          "internalType": "uint256[]",
          "name": "_tokenIds",
          "type": "uint256[]"
        }
      ],
      "name": "approveMany",
      "outputs": [],
      "stateMutability": "nonpayable",
      "type": "function"
    },
    {
      "inputs": [
        {
          "internalType": "address",
          "name": "_to",
          "type": "address"
        }
      ],
      "name": "approveAll",
      "outputs": [],
      "stateMutability": "nonpayable",
      "type": "function"
    },
    {
      "inputs": [
        {
          "internalType": "address",
          "name": "from",
          "type": "address"
        },
        {
          "internalType": "address",
          "name": "to",
          "type": "address"
        },
        {
          "internalType": "uint256",
          "name": "tokenId",
          "type": "uint256"
        }
      ],
      "name": "safeTransferFrom",
      "outputs": [],
      "stateMutability": "nonpayable",
      "type": "function"
    },
    {
      "inputs": [
        {
          "internalType": "address",
          "name": "from",
          "type": "address"
        },
        {
          "internalType": "address",
          "name": "to",
          "type": "address"
        },
        {
          "internalType": "uint256",
          "name": "tokenId",
          "type": "uint256"
        },
        {
          "internalType": "bytes",
          "name": "_data",
          "type": "bytes"
        }
      ],
      "name": "safeTransferFrom",
      "outputs": [],
      "stateMutability": "nonpayable",
      "type": "function"
    },
    {
      "inputs": [
        {
          "internalType": "string",
          "name": "url",
          "type": "string"
        }
      ],
      "name": "mint",
      "outputs": [],
      "stateMutability": "nonpayable",
      "type": "function"
    },
    {
      "inputs": [],
      "name": "changeRegisterPrivacy",
      "outputs": [],
      "stateMutability": "nonpayable",
      "type": "function"
    },
    {
      "inputs": [
        {
          "internalType": "uint256",
          "name": "_id",
          "type": "uint256"
        }
      ],
      "name": "burn",
      "outputs": [
        {
          "internalType": "bool",
          "name": "",
          "type": "bool"
        }
      ],
      "stateMutability": "nonpayable",
      "type": "function"
    },
    {
      "inputs": [],
      "name": "getTotalTokens",
      "outputs": [
        {
          "internalType": "uint256",
          "name": "",
          "type": "uint256"
        }
      ],
      "stateMutability": "view",
      "type": "function"
    }
  ],
  "bytecode": "0x60806040526000600f553480156200001657600080fd5b5060405162002ed838038062002ed8833981810160405260c08110156200003c57600080fd5b81019080805160405193929190846401000000008211156200005d57600080fd5b9083019060208201858111156200007357600080fd5b82516401000000008111828201881017156200008e57600080fd5b82525081516020918201929091019080838360005b83811015620000bd578181015183820152602001620000a3565b50505050905090810190601f168015620000eb5780820380516001836020036101000a031916815260200191505b50604052602001805160405193929190846401000000008211156200010f57600080fd5b9083019060208201858111156200012557600080fd5b82516401000000008111828201881017156200014057600080fd5b82525081516020918201929091019080838360005b838110156200016f57818101518382015260200162000155565b50505050905090810190601f1680156200019d5780820380516001836020036101000a031916815260200191505b5060405260200180516040519392919084640100000000821115620001c157600080fd5b908301906020820185811115620001d757600080fd5b8251640100000000811182820188101715620001f257600080fd5b82525081516020918201929091019080838360005b838110156200022157818101518382015260200162000207565b50505050905090810190601f1680156200024f5780820380516001836020036101000a031916815260200191505b50604052602001805160405193929190846401000000008211156200027357600080fd5b9083019060208201858111156200028957600080fd5b8251640100000000811182820188101715620002a457600080fd5b82525081516020918201929091019080838360005b83811015620002d3578181015183820152602001620002b9565b50505050905090810190601f168015620003015780820380516001836020036101000a031916815260200191505b506040908152602082015191015190925090508585620003286301ffc9a760e01b62000426565b81516200033d906006906020850190620004ab565b50805162000353906007906020840190620004ab565b50620003666380ac58cd60e01b62000426565b62000378635b5e139f60e01b62000426565b6200038a63780e9d6360e01b62000426565b50508551620003a190600a906020890190620004ab565b508451620003b790600b906020880190620004ab565b508351620003cd90600c906020870190620004ab565b508251620003e390600d906020860190620004ab565b50601080546001600160a01b0319166001600160a01b039390931692909217909155600e805460ff191691151591909117905550506000600f5550620005579050565b6001600160e01b0319808216141562000486576040805162461bcd60e51b815260206004820152601c60248201527f4552433136353a20696e76616c696420696e7465726661636520696400000000604482015290519081900360640190fd5b6001600160e01b0319166000908152602081905260409020805460ff19166001179055565b828054600181600116156101000203166002900490600052602060002090601f016020900481019282620004e357600085556200052e565b82601f10620004fe57805160ff19168380011785556200052e565b828001600101855582156200052e579182015b828111156200052e57825182559160200191906001019062000511565b506200053c92915062000540565b5090565b5b808211156200053c576000815560010162000541565b61297180620005676000396000f3fe608060405234801561001057600080fd5b50600436106101f05760003560e01c806370a082311161010f578063b9cba393116100a2578063e268cd2411610071578063e268cd2414610791578063e985e9c5146107ae578063f08b82e6146107dc578063faff660e146107e4576101f0565b8063b9cba393146106be578063c87b56dd146106c6578063cffb1a5c146106e3578063d85d3d27146106eb576101f0565b806399bb8134116100de57806399bb81341461050f578063a22cb465146105c2578063b12f133a146105f0578063b88d4fde146105f8576101f0565b806370a08231146104d15780637e1c0c09146104f75780638e8ca30a146104ff57806395d89b4114610507576101f0565b80632f745c59116101875780635a3f2672116101565780635a3f26721461042e57806362601e89146104a45780636352211e146104ac5780636c0360eb146104c9576101f0565b80632f745c591461039257806342842e0e146103be57806342966c68146103f45780634f6ccce714610411576101f0565b8063095ea7b3116101c3578063095ea7b31461030e5780631085cbb61461033a57806318160ddd1461034257806323b872dd1461035c576101f0565b806301ffc9a7146101f55780630621472c1461023057806306fdde0314610258578063081812fc146102d5575b600080fd5b61021c6004803603602081101561020b57600080fd5b50356001600160e01b0319166107ec565b604080519115158252519081900360200190f35b6102566004803603602081101561024657600080fd5b50356001600160a01b031661080f565b005b610260610852565b6040805160208082528351818301528351919283929083019185019080838360005b8381101561029a578181015183820152602001610282565b50505050905090810190601f1680156102c75780820380516001836020036101000a031916815260200191505b509250505060405180910390f35b6102f2600480360360208110156102eb57600080fd5b50356108e8565b604080516001600160a01b039092168252519081900360200190f35b6102566004803603604081101561032457600080fd5b506001600160a01b03813516906020013561094a565b610260610a20565b61034a610aae565b60408051918252519081900360200190f35b6102566004803603606081101561037257600080fd5b506001600160a01b03813581169160208101359091169060400135610abf565b61034a600480360360408110156103a857600080fd5b506001600160a01b038135169060200135610b16565b610256600480360360608110156103d457600080fd5b506001600160a01b03813581169160208101359091169060400135610b41565b61021c6004803603602081101561040a57600080fd5b5035610dc6565b61034a6004803603602081101561042757600080fd5b5035610dd9565b6104546004803603602081101561044457600080fd5b50356001600160a01b0316610def565b60408051602080825283518183015283519192839290830191858101910280838360005b83811015610490578181015183820152602001610478565b505050509050019250505060405180910390f35b610260610ea6565b6102f2600480360360208110156104c257600080fd5b5035610f01565b610260610f29565b61034a600480360360208110156104e757600080fd5b50356001600160a01b0316610f8a565b61034a610ff2565b610260610ff8565b610260611053565b6102566004803603604081101561052557600080fd5b6001600160a01b03823516919081019060408101602082013564010000000081111561055057600080fd5b82018360208201111561056257600080fd5b8035906020019184602083028401116401000000008311171561058457600080fd5b9190808060200260200160405190810160405280939291908181526020018383602002808284376000920191909152509295506110b4945050505050565b610256600480360360408110156105d857600080fd5b506001600160a01b03813516906020013515156110d8565b6102566111dd565b6102566004803603608081101561060e57600080fd5b6001600160a01b0382358116926020810135909116916040820135919081019060808101606082013564010000000081111561064957600080fd5b82018360208201111561065b57600080fd5b8035906020019184600183028401116401000000008311171561067d57600080fd5b91908080601f01602080910402602001604051908101604052809392919081815260200183838082843760009201919091525092955061122d945050505050565b6102f261128b565b610260600480360360208110156106dc57600080fd5b503561129a565b61026061151d565b6102566004803603602081101561070157600080fd5b81019060208101813564010000000081111561071c57600080fd5b82018360208201111561072e57600080fd5b8035906020019184600183028401116401000000008311171561075057600080fd5b91908080601f016020809104026020016040519081016040528093929190818152602001838380828437600092019190915250929550611578945050505050565b610260600480360360208110156107a757600080fd5b50356116b8565b61021c600480360360408110156107c457600080fd5b506001600160a01b038135811691602001351661174f565b61034a61177d565b61021c611783565b6001600160e01b0319811660009081526020819052604090205460ff165b919050565b606061081a33610def565b905060005b815181101561084d576108458383838151811061083857fe5b602002602001015161094a565b60010161081f565b505050565b60068054604080516020601f60026000196101006001881615020190951694909404938401819004810282018101909252828152606093909290918301828280156108de5780601f106108b3576101008083540402835291602001916108de565b820191906000526020600020905b8154815290600101906020018083116108c157829003601f168201915b5050505050905090565b60006108f38261178c565b61092e5760405162461bcd60e51b815260040180806020018281038252602c815260200180612866602c913960400191505060405180910390fd5b506000908152600460205260409020546001600160a01b031690565b600061095582610f01565b9050806001600160a01b0316836001600160a01b031614156109a85760405162461bcd60e51b81526004018080602001828103825260218152602001806128ea6021913960400191505060405180910390fd5b806001600160a01b03166109ba611799565b6001600160a01b031614806109db57506109db816109d6611799565b61174f565b610a165760405162461bcd60e51b81526004018080602001828103825260388152602001806127b96038913960400191505060405180910390fd5b61084d838361179d565b600c805460408051602060026001851615610100026000190190941693909304601f81018490048402820184019092528181529291830182828015610aa65780601f10610a7b57610100808354040283529160200191610aa6565b820191906000526020600020905b815481529060010190602001808311610a8957829003601f168201915b505050505081565b6000610aba600261180b565b905090565b610ad0610aca611799565b82611816565b610b0b5760405162461bcd60e51b815260040180806020018281038252603181526020018061290b6031913960400191505060405180910390fd5b61084d8383836118ba565b6001600160a01b0382166000908152600160205260408120610b389083611a06565b90505b92915050565b610b4c610aca611799565b610b875760405162461bcd60e51b815260040180806020018281038252603181526020018061290b6031913960400191505060405180910390fd5b6001600160a01b038316610bd4576040805162461bcd60e51b815260206004820152600f60248201526e696e76616c6964206164647265737360881b604482015290519081900360640190fd5b6001600160a01b038216610c21576040805162461bcd60e51b815260206004820152600f60248201526e696e76616c6964206164647265737360881b604482015290519081900360640190fd5b610c3c83838360405180602001604052806000815250611a12565b6001600160a01b038316600090815260116020908152604091829020805483518184028101840190945280845260609392830182828015610c9c57602002820191906000526020600020905b815481526020019060010190808311610c88575b505050505090506060600182510367ffffffffffffffff81118015610cc057600080fd5b50604051908082528060200260200182016040528015610cea578160200160208202803683370190505b506001600160a01b038516600081815260116020908152604082208054600181018255818452918320909101879055919052805491925090610d2f908290819061258c565b506000805b8451811015610d925785858281518110610d4a57fe5b602002602001015114610d8a57848181518110610d6357fe5b6020026020010151848380600101945081518110610d7d57fe5b6020026020010181815250505b600101610d34565b506001600160a01b03871660009081526011602090815260409091208451610dbc928601906125dc565b5050505050505050565b6000610dd182611a64565b506001919050565b600080610de7600284611b31565b509392505050565b60606001600160a01b038216610e3c576040805162461bcd60e51b815260206004820152600d60248201526c34b73b30b634b21037bbb732b960991b604482015290519081900360640190fd5b6001600160a01b03821660009081526011602090815260409182902080548351818402810184019094528084529091830182828015610e9a57602002820191906000526020600020905b815481526020019060010190808311610e86575b50505050509050919050565b600a805460408051602060026001851615610100026000190190941693909304601f81018490048402820184019092528181529291830182828015610aa65780601f10610a7b57610100808354040283529160200191610aa6565b6000610b3b8260405180606001604052806029815260200161281b6029913960029190611b4d565b60098054604080516020601f60026000196101006001881615020190951694909404938401819004810282018101909252828152606093909290918301828280156108de5780601f106108b3576101008083540402835291602001916108de565b60006001600160a01b038216610fd15760405162461bcd60e51b815260040180806020018281038252602a8152602001806127f1602a913960400191505060405180910390fd5b6001600160a01b0382166000908152600160205260409020610b3b9061180b565b600f5481565b600d805460408051602060026001851615610100026000190190941693909304601f81018490048402820184019092528181529291830182828015610aa65780601f10610a7b57610100808354040283529160200191610aa6565b60078054604080516020601f60026000196101006001881615020190951694909404938401819004810282018101909252828152606093909290918301828280156108de5780601f106108b3576101008083540402835291602001916108de565b60005b815181101561084d576110d08383838151811061083857fe5b6001016110b7565b6110e0611799565b6001600160a01b0316826001600160a01b03161415611146576040805162461bcd60e51b815260206004820152601960248201527f4552433732313a20617070726f766520746f2063616c6c657200000000000000604482015290519081900360640190fd5b8060056000611153611799565b6001600160a01b03908116825260208083019390935260409182016000908120918716808252919093529120805460ff191692151592909217909155611197611799565b6001600160a01b03167f17307eab39ab6107e8899845ad3d59bd9653f200f220920489ca2b5937696c318360405180821515815260200191505060405180910390a35050565b6010546001600160a01b031633146111f457600080fd5b600e5460ff1615156001141561121357600e805460ff1916905561122b565b600e5460ff1661122b57600e805460ff191660011790555b565b61123e611238611799565b83611816565b6112795760405162461bcd60e51b815260040180806020018281038252603181526020018061290b6031913960400191505060405180910390fd5b61128584848484611a12565b50505050565b6010546001600160a01b031681565b60606112a58261178c565b6112e05760405162461bcd60e51b815260040180806020018281038252602f8152602001806128bb602f913960400191505060405180910390fd5b60008281526008602090815260409182902080548351601f60026000196101006001861615020190931692909204918201849004840281018401909452808452606093928301828280156113755780601f1061134a57610100808354040283529160200191611375565b820191906000526020600020905b81548152906001019060200180831161135857829003601f168201915b505050505090506060611386610f29565b905080516000141561139a5750905061080a565b81511561145b5780826040516020018083805190602001908083835b602083106113d55780518252601f1990920191602091820191016113b6565b51815160209384036101000a600019018019909216911617905285519190930192850191508083835b6020831061141d5780518252601f1990920191602091820191016113fe565b6001836020036101000a038019825116818451168082178552505050505050905001925050506040516020818303038152906040529250505061080a565b8061146585611b64565b6040516020018083805190602001908083835b602083106114975780518252601f199092019160209182019101611478565b51815160209384036101000a600019018019909216911617905285519190930192850191508083835b602083106114df5780518252601f1990920191602091820191016114c0565b6001836020036101000a0380198251168184511680821785525050505050509050019250505060405160208183030381529060405292505050919050565b600b805460408051602060026001851615610100026000190190941693909304601f81018490048402820184019092528181529291830182828015610aa65780601f10610a7b57610100808354040283529160200191610aa6565b6010546001600160a01b0316331461158f57600080fd5b6115a2600161159c610aae565b90611c3f565b600f8190556115b2903390611c99565b3360008181526011602090815260408220600f5481546001810183558285529284209092019190915591905280546115ed908290819061258c565b50600f546000908152601260209081526040909120835161161092850190612617565b507f0a4e1e5035320483d096cf114513007c4eda3853a4dca806da2d9faec60470a682600f546040518080602001838152602001828103825284818151815260200191508051906020019080838360005b83811015611679578181015183820152602001611661565b50505050905090810190601f1680156116a65780820380516001836020036101000a031916815260200191505b50935050505060405180910390a15050565b60008181526012602090815260409182902080548351601f6002600019610100600186161502019093169290920491820184900484028101840190945280845260609392830182828015610e9a5780601f1061172257610100808354040283529160200191610e9a565b820191906000526020600020905b8154815290600101906020018083116117305750939695505050505050565b6001600160a01b03918216600090815260056020908152604080832093909416825291909152205460ff1690565b600f5490565b600e5460ff1681565b6000610b3b600283611dc7565b3390565b600081815260046020526040902080546001600160a01b0319166001600160a01b03841690811790915581906117d282610f01565b6001600160a01b03167f8c5be1e5ebec7d5bd14f71427d1e84f3dd0314c0f7b2291e5b200ac8c7c3b92560405160405180910390a45050565b6000610b3b82611dd3565b60006118218261178c565b61185c5760405162461bcd60e51b815260040180806020018281038252602c81526020018061278d602c913960400191505060405180910390fd5b600061186783610f01565b9050806001600160a01b0316846001600160a01b031614806118a25750836001600160a01b0316611897846108e8565b6001600160a01b0316145b806118b257506118b2818561174f565b949350505050565b826001600160a01b03166118cd82610f01565b6001600160a01b0316146119125760405162461bcd60e51b81526004018080602001828103825260298152602001806128926029913960400191505060405180910390fd5b6001600160a01b0382166119575760405162461bcd60e51b81526004018080602001828103825260248152602001806127436024913960400191505060405180910390fd5b61196283838361084d565b61196d60008261179d565b6001600160a01b038316600090815260016020526040902061198f9082611dd7565b506001600160a01b03821660009081526001602052604090206119b29082611de3565b506119bf60028284611def565b5080826001600160a01b0316846001600160a01b03167fddf252ad1be2c89b69c2b068fc378daa952ba7f163c4a11628f55a4df523b3ef60405160405180910390a4505050565b6000610b388383611e05565b611a1d8484846118ba565b611a2984848484611e69565b6112855760405162461bcd60e51b81526004018080602001828103825260328152602001806127116032913960400191505060405180910390fd5b6000611a6f82610f01565b9050611a7d8160008461084d565b611a8860008361179d565b6000828152600860205260409020546002600019610100600184161502019091160415611ac6576000828152600860205260408120611ac691612692565b6001600160a01b0381166000908152600160205260409020611ae89083611dd7565b50611af4600283611fd1565b5060405182906000906001600160a01b038416907fddf252ad1be2c89b69c2b068fc378daa952ba7f163c4a11628f55a4df523b3ef908390a45050565b6000808080611b408686611fdd565b9097909650945050505050565b6000611b5a848484612058565b90505b9392505050565b606081611b8957506040805180820190915260018152600360fc1b602082015261080a565b8160005b8115611ba157600101600a82049150611b8d565b60608167ffffffffffffffff81118015611bba57600080fd5b506040519080825280601f01601f191660200182016040528015611be5576020820181803683370190505b50859350905060001982015b8315611c3657600a840660300160f81b82828060019003935081518110611c1457fe5b60200101906001600160f81b031916908160001a905350600a84049350611bf1565b50949350505050565b600082820183811015610b38576040805162461bcd60e51b815260206004820152601b60248201527f536166654d6174683a206164646974696f6e206f766572666c6f770000000000604482015290519081900360640190fd5b6001600160a01b038216611cf4576040805162461bcd60e51b815260206004820181905260248201527f4552433732313a206d696e7420746f20746865207a65726f2061646472657373604482015290519081900360640190fd5b611cfd8161178c565b15611d4f576040805162461bcd60e51b815260206004820152601c60248201527f4552433732313a20746f6b656e20616c7265616479206d696e74656400000000604482015290519081900360640190fd5b611d5b6000838361084d565b6001600160a01b0382166000908152600160205260409020611d7d9082611de3565b50611d8a60028284611def565b5060405181906001600160a01b038416906000907fddf252ad1be2c89b69c2b068fc378daa952ba7f163c4a11628f55a4df523b3ef908290a45050565b6000610b388383612122565b5490565b6000610b38838361213a565b6000610b388383612200565b6000611b5a84846001600160a01b03851661224a565b81546000908210611e475760405162461bcd60e51b81526004018080602001828103825260228152602001806126ef6022913960400191505060405180910390fd5b826000018281548110611e5657fe5b9060005260206000200154905092915050565b6000611e7d846001600160a01b03166122e1565b611e89575060016118b2565b6060611f97630a85bd0160e11b611e9e611799565b88878760405160240180856001600160a01b03168152602001846001600160a01b0316815260200183815260200180602001828103825283818151815260200191508051906020019080838360005b83811015611f05578181015183820152602001611eed565b50505050905090810190601f168015611f325780820380516001836020036101000a031916815260200191505b5095505050505050604051602081830303815290604052906001600160e01b0319166020820180516001600160e01b038381831617835250505050604051806060016040528060328152602001612711603291396001600160a01b03881691906122e7565b90506000818060200190516020811015611fb057600080fd5b50516001600160e01b031916630a85bd0160e11b1492505050949350505050565b6000610b3883836122f6565b8154600090819083106120215760405162461bcd60e51b81526004018080602001828103825260228152602001806128446022913960400191505060405180910390fd5b600084600001848154811061203257fe5b906000526020600020906002020190508060000154816001015492509250509250929050565b600082815260018401602052604081205482816120f35760405162461bcd60e51b81526004018080602001828103825283818151815260200191508051906020019080838360005b838110156120b85781810151838201526020016120a0565b50505050905090810190601f1680156120e55780820380516001836020036101000a031916815260200191505b509250505060405180910390fd5b5084600001600182038154811061210657fe5b9060005260206000209060020201600101549150509392505050565b60009081526001919091016020526040902054151590565b600081815260018301602052604081205480156121f6578354600019808301919081019060009087908390811061216d57fe5b906000526020600020015490508087600001848154811061218a57fe5b6000918252602080832090910192909255828152600189810190925260409020908401905586548790806121ba57fe5b60019003818190600052602060002001600090559055866001016000878152602001908152602001600020600090556001945050505050610b3b565b6000915050610b3b565b600061220c8383612122565b61224257508154600181810184556000848152602080822090930184905584548482528286019093526040902091909155610b3b565b506000610b3b565b6000828152600184016020526040812054806122af575050604080518082018252838152602080820184815286546001818101895560008981528481209551600290930290950191825591519082015586548684528188019092529290912055611b5d565b828560000160018303815481106122c257fe5b9060005260206000209060020201600101819055506000915050611b5d565b3b151590565b6060611b5a84846000856123ca565b600081815260018301602052604081205480156121f6578354600019808301919081019060009087908390811061232957fe5b906000526020600020906002020190508087600001848154811061234957fe5b60009182526020808320845460029093020191825560019384015491840191909155835482528983019052604090209084019055865487908061238857fe5b6000828152602080822060026000199094019384020182815560019081018390559290935588815289820190925260408220919091559450610b3b9350505050565b60608247101561240b5760405162461bcd60e51b81526004018080602001828103825260268152602001806127676026913960400191505060405180910390fd5b612414856122e1565b612465576040805162461bcd60e51b815260206004820152601d60248201527f416464726573733a2063616c6c20746f206e6f6e2d636f6e7472616374000000604482015290519081900360640190fd5b60006060866001600160a01b031685876040518082805190602001908083835b602083106124a45780518252601f199092019160209182019101612485565b6001836020036101000a03801982511681845116808217855250505050505090500191505060006040518083038185875af1925050503d8060008114612506576040519150601f19603f3d011682016040523d82523d6000602084013e61250b565b606091505b509150915061251b828286612526565b979650505050505050565b60608315612535575081611b5d565b8251156125455782518084602001fd5b60405162461bcd60e51b81526020600482018181528451602484015284518593919283926044019190850190808383600083156120b85781810151838201526020016120a0565b8280548282559060005260206000209081019282156125cc5760005260206000209182015b828111156125cc5782548255916001019190600101906125b1565b506125d89291506126d9565b5090565b8280548282559060005260206000209081019282156125cc579160200282015b828111156125cc5782518255916020019190600101906125fc565b828054600181600116156101000203166002900490600052602060002090601f01602090048101928261264d57600085556125cc565b82601f1061266657805160ff19168380011785556125cc565b828001600101855582156125cc57918201828111156125cc5782518255916020019190600101906125fc565b50805460018160011615610100020316600290046000825580601f106126b857506126d6565b601f0160209004906000526020600020908101906126d691906126d9565b50565b5b808211156125d857600081556001016126da56fe456e756d657261626c655365743a20696e646578206f7574206f6620626f756e64734552433732313a207472616e7366657220746f206e6f6e20455243373231526563656976657220696d706c656d656e7465724552433732313a207472616e7366657220746f20746865207a65726f2061646472657373416464726573733a20696e73756666696369656e742062616c616e636520666f722063616c6c4552433732313a206f70657261746f7220717565727920666f72206e6f6e6578697374656e7420746f6b656e4552433732313a20617070726f76652063616c6c6572206973206e6f74206f776e6572206e6f7220617070726f76656420666f7220616c6c4552433732313a2062616c616e636520717565727920666f7220746865207a65726f20616464726573734552433732313a206f776e657220717565727920666f72206e6f6e6578697374656e7420746f6b656e456e756d657261626c654d61703a20696e646578206f7574206f6620626f756e64734552433732313a20617070726f76656420717565727920666f72206e6f6e6578697374656e7420746f6b656e4552433732313a207472616e73666572206f6620746f6b656e2074686174206973206e6f74206f776e4552433732314d657461646174613a2055524920717565727920666f72206e6f6e6578697374656e7420746f6b656e4552433732313a20617070726f76616c20746f2063757272656e74206f776e65724552433732313a207472616e736665722063616c6c6572206973206e6f74206f776e6572206e6f7220617070726f766564a2646970667358221220a7a9bb2ae86507e161d88d80f9d5e8cecbc15620bdd076944824f366ffa85dc064736f6c63430007040033",
  "immutableReferences": {},
  "source": "// SPDX-License-Identifier: MIT\r\npragma solidity >=0.4.22 <0.8.4;\r\n\r\nimport \"@openzeppelin/contracts/token/ERC721/ERC721.sol\";\r\n\r\ncontract NftFactory is ERC721 {\r\n    using SafeMath for uint256;\r\n\r\n    string public Nftname;\r\n    string public Nftsymbol;\r\n    string public Nftdescription;\r\n    string public Nfturi;\r\n    bool public isPrivate;\r\n\r\n    // Total tokens starts at 0 because each new token must be minted and the\r\n    // _mint() call adds 1 to totalTokens\r\n    uint256 public totalTokens = 0;\r\n\r\n    address public Nftcreator;\r\n\r\n    // Mapping from owner to list of owned token IDs\r\n    mapping(address => uint256[]) ownedTokens;\r\n\r\n    // Metadata is a URL that points to a json dictionary\r\n    mapping(uint256 => string) tokenIdToMetadata;\r\n\r\n    event MetadataAssigned(\r\n        address indexed _owner,\r\n        uint256 _tokenId,\r\n        string _url\r\n    );\r\n    event Mint(string url,uint256 tokenId );\r\n\r\n    /**\r\n     * a registry function that iis been called by the NFT registry smart contract\r\n     */\r\n\r\n    constructor(\r\n        string memory _name,\r\n        string memory _symbol,\r\n        string memory _description,\r\n        string memory _uri,\r\n        address _caller,\r\n        bool _isPrivate\r\n    ) ERC721(_name, _symbol) {\r\n        Nftname = _name;\r\n        Nftsymbol = _symbol;\r\n        Nftdescription = _description;\r\n        Nfturi = _uri;\r\n        Nftcreator = _caller;\r\n        isPrivate = _isPrivate;\r\n        totalTokens = 0;\r\n    }\r\n\r\n    /**\r\n     * this function helps with queries to Fetch the metadata for a givine token id\r\n     */\r\n    function getMetadataAtID(uint256 _tokenId)\r\n        public\r\n        view\r\n        returns (string memory)\r\n    {\r\n        return tokenIdToMetadata[_tokenId];\r\n    }\r\n\r\n    /**\r\n     * this function helps with queries to Fetch all the tokens that the address owns by givine address\r\n     */\r\n    function tokensOf(address _owner) public view returns (uint256[] memory) {\r\n        require(_owner != address(0), \"invalid owner\");\r\n        return ownedTokens[_owner];\r\n    }\r\n\r\n    /**\r\n     * this function allows to approve more than one token id at once\r\n     */\r\n    function approveMany(address _to, uint256[] memory _tokenIds) public {\r\n        /* Allows bulk-approval of many tokens. This function is useful for\r\n      exchanges where users can make a single tx to enable the call of\r\n      transferFrom for those tokens by an exchange contract. */\r\n        for (uint256 i = 0; i < _tokenIds.length; i++) {\r\n            // approve handles the check for if one who is approving is the owner.\r\n            approve(_to, _tokenIds[i]);\r\n        }\r\n    }\r\n\r\n    /**\r\n     * this function allows to approve all the tokens the address owns at once\r\n     */\r\n    function approveAll(address _to) public {\r\n        uint256[] memory tokens = tokensOf(msg.sender);\r\n        for (uint256 t = 0; t < tokens.length; t++) {\r\n            approve(_to, tokens[t]);\r\n        }\r\n    }\r\n\r\n    /**\r\n     * this overload function allows to transfer tokens and updates all the mapping queries(without filling the URI)\r\n     */\r\n    function safeTransferFrom(\r\n        address from,\r\n        address to,\r\n        uint256 tokenId\r\n    ) public virtual override {\r\n        require(\r\n            _isApprovedOrOwner(_msgSender(), tokenId),\r\n            \"ERC721: transfer caller is not owner nor approved\"\r\n        );\r\n        require(from != address(0), \"invalid address\");\r\n        require(to != address(0), \"invalid address\");\r\n        _safeTransfer(from, to, tokenId, \"\");\r\n        uint256[] memory fromIds = ownedTokens[from];\r\n        uint256[] memory newFromIds = new uint256[](fromIds.length - 1);\r\n        uint256[] storage toIds = ownedTokens[to];\r\n        toIds.push(tokenId);\r\n        ownedTokens[to] = toIds;\r\n        uint256 j = 0;\r\n        for (uint256 i = 0; i < fromIds.length; i++) {\r\n            if (fromIds[i] != tokenId) newFromIds[j++] = (fromIds[i]);\r\n        }\r\n        ownedTokens[from] = newFromIds;\r\n    }\r\n\r\n    /**\r\n     * this function allows to mint more of your NFT\r\n     */\r\n    function mint(string memory url) public {\r\n        require(msg.sender == Nftcreator);\r\n        totalTokens = totalSupply().add(1);\r\n        // The index of the newest token is at the # totalTokens.\r\n        _mint(msg.sender, totalTokens);\r\n        // assign address to array of owned tokens aned you can qury what ids the address owns\r\n        uint256[] storage ids = ownedTokens[msg.sender];\r\n        ids.push(totalTokens);\r\n        ownedTokens[msg.sender] = ids;\r\n        // _mint() call adds 1 to total tokens, but we want the token at index - 1\r\n        tokenIdToMetadata[totalTokens] = url;\r\n        emit Mint(url,totalTokens);\r\n    }\r\n\r\n    /**\r\n     * this function allows you to change the Registry privacy if its false it will change to true, if its true it will change to false\r\n     */\r\n\r\n    function changeRegisterPrivacy() public {\r\n        require(msg.sender == Nftcreator);\r\n        if (isPrivate == true) {\r\n            isPrivate = false;\r\n        } else if (isPrivate == false) {\r\n            isPrivate = true;\r\n        }\r\n    }\r\n\r\n    /**\r\n     * this function allows you burn your NFT\r\n     */\r\n    function burn(uint256 _id) public returns (bool) {\r\n        _burn(_id);\r\n        return true;\r\n    }\r\n\r\n    function getTotalTokens() public view returns (uint256) {\r\n        return totalTokens;\r\n    }\r\n}\r\n",
  "sourcePath": "C:/Users/Zaid/Desktop/New folder (3)/NFT_Contract_Factory/src/contracts/NftFactory.sol",
  "compiler": {
    "name": "solc",
    "version": "0.7.4+commit.3f05b770.Emscripten.clang"
  },
  "schemaVersion": "3.3.4",
  "updatedAt": "2021-04-22T17:27:07.011Z",
  "devdoc": {
    "kind": "dev",
    "methods": {
      "approve(address,uint256)": {
        "details": "See {IERC721-approve}."
      },
      "balanceOf(address)": {
        "details": "See {IERC721-balanceOf}."
      },
      "baseURI()": {
        "details": "Returns the base URI set via {_setBaseURI}. This will be automatically added as a prefix in {tokenURI} to each token's URI, or to the token ID if no specific URI is set for that token ID."
      },
      "getApproved(uint256)": {
        "details": "See {IERC721-getApproved}."
      },
      "isApprovedForAll(address,address)": {
        "details": "See {IERC721-isApprovedForAll}."
      },
      "name()": {
        "details": "See {IERC721Metadata-name}."
      },
      "ownerOf(uint256)": {
        "details": "See {IERC721-ownerOf}."
      },
      "safeTransferFrom(address,address,uint256,bytes)": {
        "details": "See {IERC721-safeTransferFrom}."
      },
      "setApprovalForAll(address,bool)": {
        "details": "See {IERC721-setApprovalForAll}."
      },
      "supportsInterface(bytes4)": {
        "details": "See {IERC165-supportsInterface}. Time complexity O(1), guaranteed to always use less than 30 000 gas."
      },
      "symbol()": {
        "details": "See {IERC721Metadata-symbol}."
      },
      "tokenByIndex(uint256)": {
        "details": "See {IERC721Enumerable-tokenByIndex}."
      },
      "tokenOfOwnerByIndex(address,uint256)": {
        "details": "See {IERC721Enumerable-tokenOfOwnerByIndex}."
      },
      "tokenURI(uint256)": {
        "details": "See {IERC721Metadata-tokenURI}."
      },
      "totalSupply()": {
        "details": "See {IERC721Enumerable-totalSupply}."
      },
      "transferFrom(address,address,uint256)": {
        "details": "See {IERC721-transferFrom}."
      }
    },
    "version": 1
  },
  "userdoc": {
    "kind": "user",
    "methods": {
      "approveAll(address)": {
        "notice": "this function allows to approve all the tokens the address owns at once"
      },
      "approveMany(address,uint256[])": {
        "notice": "this function allows to approve more than one token id at once"
      },
      "burn(uint256)": {
        "notice": "this function allows you burn your NFT"
      },
      "changeRegisterPrivacy()": {
        "notice": "this function allows you to change the Registry privacy if its false it will change to true, if its true it will change to false"
      },
      "constructor": {
        "notice": "a registry function that iis been called by the NFT registry smart contract"
      },
      "getMetadataAtID(uint256)": {
        "notice": "this function helps with queries to Fetch the metadata for a givine token id"
      },
      "mint(string)": {
        "notice": "this function allows to mint more of your NFT"
      },
      "safeTransferFrom(address,address,uint256)": {
        "notice": "this overload function allows to transfer tokens and updates all the mapping queries(without filling the URI)"
      },
      "tokensOf(address)": {
        "notice": "this function helps with queries to Fetch all the tokens that the address owns by givine address"
      }
    },
    "version": 1
  }
}