{
  "contractName": "NftRegistry",
  "abi": [
    {
      "inputs": [
        {
          "internalType": "address",
          "name": "_feeAccount",
          "type": "address"
        }
      ],
      "stateMutability": "nonpayable",
      "type": "constructor"
    },
    {
      "anonymous": false,
      "inputs": [
        {
          "indexed": false,
          "internalType": "string",
          "name": "name",
          "type": "string"
        },
        {
          "indexed": false,
          "internalType": "string",
          "name": "symbol",
          "type": "string"
        },
        {
          "indexed": false,
          "internalType": "string",
          "name": "description",
          "type": "string"
        },
        {
          "indexed": false,
          "internalType": "string",
          "name": "uri",
          "type": "string"
        },
        {
          "indexed": false,
          "internalType": "address",
          "name": "caller",
          "type": "address"
        }
      ],
      "name": "RegistryCreated",
      "type": "event"
    },
    {
      "inputs": [
        {
          "internalType": "string",
          "name": "",
          "type": "string"
        }
      ],
      "name": "symbolToRegeistryAddress",
      "outputs": [
        {
          "internalType": "address",
          "name": "",
          "type": "address"
        }
      ],
      "stateMutability": "view",
      "type": "function",
      "constant": true
    },
    {
      "inputs": [
        {
          "internalType": "string",
          "name": "",
          "type": "string"
        }
      ],
      "name": "uriToRegeistryAddress",
      "outputs": [
        {
          "internalType": "address",
          "name": "",
          "type": "address"
        }
      ],
      "stateMutability": "view",
      "type": "function",
      "constant": true
    },
    {
      "inputs": [
        {
          "internalType": "address",
          "name": "",
          "type": "address"
        },
        {
          "internalType": "uint256",
          "name": "",
          "type": "uint256"
        }
      ],
      "name": "userToRegistries",
      "outputs": [
        {
          "internalType": "address",
          "name": "",
          "type": "address"
        }
      ],
      "stateMutability": "view",
      "type": "function",
      "constant": true
    },
    {
      "inputs": [
        {
          "internalType": "string",
          "name": "name",
          "type": "string"
        },
        {
          "internalType": "string",
          "name": "symbol",
          "type": "string"
        },
        {
          "internalType": "string",
          "name": "description",
          "type": "string"
        },
        {
          "internalType": "string",
          "name": "uri",
          "type": "string"
        },
        {
          "internalType": "bool",
          "name": "isPrivate",
          "type": "bool"
        }
      ],
      "name": "createRegistry",
      "outputs": [
        {
          "internalType": "address",
          "name": "",
          "type": "address"
        }
      ],
      "stateMutability": "nonpayable",
      "type": "function"
    },
    {
      "inputs": [
        {
          "internalType": "string",
          "name": "symbol",
          "type": "string"
        }
      ],
      "name": "uniqueSymbol",
      "outputs": [
        {
          "internalType": "bool",
          "name": "",
          "type": "bool"
        }
      ],
      "stateMutability": "view",
      "type": "function",
      "constant": true
    },
    {
      "inputs": [],
      "name": "getlastAddress",
      "outputs": [
        {
          "internalType": "address",
          "name": "",
          "type": "address"
        }
      ],
      "stateMutability": "view",
      "type": "function",
      "constant": true
    },
    {
      "inputs": [
        {
          "internalType": "string",
          "name": "uri",
          "type": "string"
        }
      ],
      "name": "getRegistryAddressFromUri",
      "outputs": [
        {
          "internalType": "address",
          "name": "",
          "type": "address"
        }
      ],
      "stateMutability": "view",
      "type": "function",
      "constant": true
    },
    {
      "inputs": [
        {
          "internalType": "address",
          "name": "_user",
          "type": "address"
        }
      ],
      "name": "getRegistries",
      "outputs": [
        {
          "internalType": "address[]",
          "name": "",
          "type": "address[]"
        }
      ],
      "stateMutability": "view",
      "type": "function",
      "constant": true
    },
    {
      "inputs": [
        {
          "internalType": "string",
          "name": "_symbol",
          "type": "string"
        }
      ],
      "name": "getRegistry",
      "outputs": [
        {
          "internalType": "address",
          "name": "",
          "type": "address"
        }
      ],
      "stateMutability": "view",
      "type": "function",
      "constant": true
    },
    {
      "inputs": [],
      "name": "getLatestRegistries",
      "outputs": [
        {
          "internalType": "address[]",
          "name": "",
          "type": "address[]"
        }
      ],
      "stateMutability": "view",
      "type": "function",
      "constant": true
    },
    {
      "inputs": [
        {
          "internalType": "address",
          "name": "newFeeAccount",
          "type": "address"
        }
      ],
      "name": "ChangeFeeAccount",
      "outputs": [
        {
          "internalType": "bool",
          "name": "",
          "type": "bool"
        }
      ],
      "stateMutability": "nonpayable",
      "type": "function"
    }
  ],
  "bytecode": "0x60806040526004805461ffff19169055600680546001600160a01b031916905534801561002b57600080fd5b506040516146663803806146668339818101604052602081101561004e57600080fd5b5051600680546001600160a01b039092166001600160a01b031992831617905560078054909116331790556145de806100886000396000f3fe60806040523480156200001157600080fd5b5060043610620000b85760003560e01c80638ba63eea116200007b5780638ba63eea14620002e1578063c548e761146200039f578063cda1d9c114620003c8578063d56103a41462000472578063e626b0fb146200051c578063edceefa3146200076057620000b8565b80630ed336b014620000bd57806320dd028814620001835780633f40db9514620001df578063617b291e14620002085780636a9ce43814620002b2575b600080fd5b6200016760048036036020811015620000d557600080fd5b810190602081018135600160201b811115620000f057600080fd5b8201836020820111156200010357600080fd5b803590602001918460018302840111600160201b831117156200012557600080fd5b91908080601f0160208091040260200160405190810160405280939291908181526020018383808284376000920191909152509295506200076a945050505050565b604080516001600160a01b039092168252519081900360200190f35b6200018d62000790565b60408051602080825283518183015283519192839290830191858101910280838360005b83811015620001cb578181015183820152602001620001b1565b505050509050019250505060405180910390f35b6200018d60048036036020811015620001f757600080fd5b50356001600160a01b0316620007f4565b62000167600480360360208110156200022057600080fd5b810190602081018135600160201b8111156200023b57600080fd5b8201836020820111156200024e57600080fd5b803590602001918460018302840111600160201b831117156200027057600080fd5b91908080601f0160208091040260200160405190810160405280939291908181526020018383808284376000920191909152509295506200086c945050505050565b6200016760048036036040811015620002ca57600080fd5b506001600160a01b038135169060200135620008de565b6200038b60048036036020811015620002f957600080fd5b810190602081018135600160201b8111156200031457600080fd5b8201836020820111156200032757600080fd5b803590602001918460018302840111600160201b831117156200034957600080fd5b91908080601f01602080910402602001604051908101604052809392919081815260200183838082843760009201919091525092955062000917945050505050565b604080519115158252519081900360200190f35b6200038b60048036036020811015620003b757600080fd5b50356001600160a01b0316620009e4565b6200016760048036036020811015620003e057600080fd5b810190602081018135600160201b811115620003fb57600080fd5b8201836020820111156200040e57600080fd5b803590602001918460018302840111600160201b831117156200043057600080fd5b91908080601f01602080910402602001604051908101604052809392919081815260200183838082843760009201919091525092955062000a24945050505050565b62000167600480360360208110156200048a57600080fd5b810190602081018135600160201b811115620004a557600080fd5b820183602082011115620004b857600080fd5b803590602001918460018302840111600160201b83111715620004da57600080fd5b91908080601f01602080910402602001604051908101604052809392919081815260200183838082843760009201919091525092955062000a4a945050505050565b62000167600480360360a08110156200053457600080fd5b810190602081018135600160201b8111156200054f57600080fd5b8201836020820111156200056257600080fd5b803590602001918460018302840111600160201b831117156200058457600080fd5b91908080601f0160208091040260200160405190810160405280939291908181526020018383808284376000920191909152509295949360208101935035915050600160201b811115620005d757600080fd5b820183602082011115620005ea57600080fd5b803590602001918460018302840111600160201b831117156200060c57600080fd5b91908080601f0160208091040260200160405190810160405280939291908181526020018383808284376000920191909152509295949360208101935035915050600160201b8111156200065f57600080fd5b8201836020820111156200067257600080fd5b803590602001918460018302840111600160201b831117156200069457600080fd5b91908080601f0160208091040260200160405190810160405280939291908181526020018383808284376000920191909152509295949360208101935035915050600160201b811115620006e757600080fd5b820183602082011115620006fa57600080fd5b803590602001918460018302840111600160201b831117156200071c57600080fd5b91908080601f016020809104026020016040519081016040528093929190818152602001838380828437600092019190915250929550505050351515905062000a7f565b62000167620011cb565b80516020818301810180516001825292820191909301209152546001600160a01b031681565b60606003805480602002602001604051908101604052809291908181526020018280548015620007ea57602002820191906000526020600020905b81546001600160a01b03168152600190910190602001808311620007cb575b5050505050905090565b6001600160a01b0381166000908152600260209081526040918290208054835181840281018401909452808452606093928301828280156200086057602002820191906000526020600020905b81546001600160a01b0316815260019091019060200180831162000841575b50505050509050919050565b600080826040518082805190602001908083835b60208310620008a15780518252601f19909201916020918201910162000880565b51815160209384036101000a60001901801990921691161790529201948552506040519384900301909220546001600160a01b0316949350505050565b60026020528160005260406000208181548110620008fb57600080fd5b6000918252602090912001546001600160a01b03169150829050565b6000806001600160a01b03166000836040518082805190602001908083835b60208310620009575780518252601f19909201916020918201910162000936565b51815160209384036101000a60001901801990921691161790529201948552506040519384900301909220546001600160a01b0316929092149150620009dc9050576040805162461bcd60e51b81526020600482015260136024820152721cde5b589bdb08185b1c9958591e481d5cd959606a1b604482015290519081900360640190fd5b506001919050565b6007546000906001600160a01b03163314620009ff57600080fd5b50600680546001600160a01b0383166001600160a01b03199091161790556001919050565b80516020818301810180516000825292820191909301209152546001600160a01b031681565b600060018260405180828051906020019080838360208310620008a15780518252601f19909201916020918201910162000880565b60003362000ac6576040805162461bcd60e51b815260206004820152600f60248201526e496e76616c6964206164647265737360881b604482015290519081900360640190fd5b855162000b10576040805162461bcd60e51b81526020600482015260136024820152726e616d652063616e277420626520656d70747960681b604482015290519081900360640190fd5b845162000b5c576040805162461bcd60e51b815260206004820152601560248201527473796d626f6c2063616e277420626520656d70747960581b604482015290519081900360640190fd5b62000b678562000917565b50600086868686338760405162000b7e90620011e0565b8080602001806020018060200180602001876001600160a01b03168152602001861515815260200185810385528b818151815260200191508051906020019080838360005b8381101562000bdd57818101518382015260200162000bc3565b50505050905090810190601f16801562000c0b5780820380516001836020036101000a031916815260200191505b5085810384528a5181528a516020918201918c019080838360005b8381101562000c4057818101518382015260200162000c26565b50505050905090810190601f16801562000c6e5780820380516001836020036101000a031916815260200191505b5085810383528951815289516020918201918b019080838360005b8381101562000ca357818101518382015260200162000c89565b50505050905090810190601f16801562000cd15780820380516001836020036101000a031916815260200191505b5085810382528851815288516020918201918a019080838360005b8381101562000d0657818101518382015260200162000cec565b50505050905090810190601f16801562000d345780820380516001836020036101000a031916815260200191505b509a5050505050505050505050604051809103906000f08015801562000d5e573d6000803e3d6000fd5b509050806000876040518082805190602001908083835b6020831062000d965780518252601f19909201916020918201910162000d75565b51815160209384036101000a6000190180199092169116179052920194855250604051938490038101842080546001600160a01b0319166001600160a01b039687161790556004805462010000600160b01b031916620100009688169690960295909517909455505085518392600192889290918291908401908083835b6020831062000e355780518252601f19909201916020918201910162000e14565b51815160209384036101000a60001901801990921691161790529201948552506040805194859003820190942080546001600160a01b03199081166001600160a01b039788161790915533600090815260028352948520805460018101825590865291909420018054909316938516939093179091555050600454600c61ffff909116101562000f1e5760045460038054839261ffff1690811062000ed657fe5b600091825260209091200180546001600160a01b0319166001600160a01b03929092169190911790556004805461ffff19811661ffff91821660010190911617905562000fd6565b60015b600c81101562000f96576003818154811062000f3957fe5b600091825260209091200154600380546001600160a01b0390921691600019840190811062000f6457fe5b600091825260209091200180546001600160a01b0319166001600160a01b039290921691909117905560010162000f21565b50806003600b8154811062000fa757fe5b9060005260206000200160006101000a8154816001600160a01b0302191690836001600160a01b031602179055505b7f90679edc54330d981ea0ac7d1cdfbaa4509d1b456d88fed69502ede621bad3c187878787336040518080602001806020018060200180602001866001600160a01b0316815260200185810385528a818151815260200191508051906020019080838360005b83811015620010565781810151838201526020016200103c565b50505050905090810190601f168015620010845780820380516001836020036101000a031916815260200191505b5085810384528951815289516020918201918b019080838360005b83811015620010b95781810151838201526020016200109f565b50505050905090810190601f168015620010e75780820380516001836020036101000a031916815260200191505b5085810383528851815288516020918201918a019080838360005b838110156200111c57818101518382015260200162001102565b50505050905090810190601f1680156200114a5780820380516001836020036101000a031916815260200191505b50858103825287518152875160209182019189019080838360005b838110156200117f57818101518382015260200162001165565b50505050905090810190601f168015620011ad5780820380516001836020036101000a031916815260200191505b50995050505050505050505060405180910390a19695505050505050565b6004546201000090046001600160a01b031690565b6133ba80620011ef8339019056fe60806040526000600f553480156200001657600080fd5b50604051620033ba380380620033ba833981810160405260c08110156200003c57600080fd5b81019080805160405193929190846401000000008211156200005d57600080fd5b9083019060208201858111156200007357600080fd5b82516401000000008111828201881017156200008e57600080fd5b82525081516020918201929091019080838360005b83811015620000bd578181015183820152602001620000a3565b50505050905090810190601f168015620000eb5780820380516001836020036101000a031916815260200191505b50604052602001805160405193929190846401000000008211156200010f57600080fd5b9083019060208201858111156200012557600080fd5b82516401000000008111828201881017156200014057600080fd5b82525081516020918201929091019080838360005b838110156200016f57818101518382015260200162000155565b50505050905090810190601f1680156200019d5780820380516001836020036101000a031916815260200191505b5060405260200180516040519392919084640100000000821115620001c157600080fd5b908301906020820185811115620001d757600080fd5b8251640100000000811182820188101715620001f257600080fd5b82525081516020918201929091019080838360005b838110156200022157818101518382015260200162000207565b50505050905090810190601f1680156200024f5780820380516001836020036101000a031916815260200191505b50604052602001805160405193929190846401000000008211156200027357600080fd5b9083019060208201858111156200028957600080fd5b8251640100000000811182820188101715620002a457600080fd5b82525081516020918201929091019080838360005b83811015620002d3578181015183820152602001620002b9565b50505050905090810190601f168015620003015780820380516001836020036101000a031916815260200191505b506040908152602082015191015190925090508585620003286301ffc9a760e01b62000435565b81516200033d90600690602085019062000567565b5080516200035390600790602084019062000567565b50620003666380ac58cd60e01b62000435565b62000378635b5e139f60e01b62000435565b6200038a63780e9d6360e01b62000435565b5062000398905085620004ba565b8651909550620003b090600a90602089019062000567565b508451620003c690600b90602088019062000567565b508351620003dc90600c90602087019062000567565b508251620003f290600d90602086019062000567565b50601080546001600160a01b0319166001600160a01b039390931692909217909155600e805460ff191691151591909117905550506000600f5550620006139050565b6001600160e01b0319808216141562000495576040805162461bcd60e51b815260206004820152601c60248201527f4552433136353a20696e76616c696420696e7465726661636520696400000000604482015290519081900360640190fd5b6001600160e01b0319166000908152602081905260409020805460ff19166001179055565b60608160005b815181101562000560578151606190839083908110620004dc57fe5b016020015160f81c108015906200050b57508151607a908390839081106200050057fe5b016020015160f81c11155b15620005575760208282815181106200052057fe5b602001015160f81c60f81b60f81c0360f81b8282815181106200053f57fe5b60200101906001600160f81b031916908160001a9053505b600101620004c0565b5092915050565b828054600181600116156101000203166002900490600052602060002090601f0160209004810192826200059f5760008555620005ea565b82601f10620005ba57805160ff1916838001178555620005ea565b82800160010185558215620005ea579182015b82811115620005ea578251825591602001919060010190620005cd565b50620005f8929150620005fc565b5090565b5b80821115620005f85760008155600101620005fd565b612d9780620006236000396000f3fe608060405234801561001057600080fd5b50600436106101e55760003560e01c80636c0360eb1161010f578063b9cba393116100a2578063e268cd2411610071578063e268cd2414610778578063e69c20cf14610795578063e985e9c514610840578063faff660e1461086e576101e5565b8063b9cba393146106a7578063c87b56dd146106af578063cffb1a5c146106cc578063d85d3d27146106d4576101e5565b806395d89b41116100de57806395d89b41146104fc57806399bb813414610504578063a22cb465146105b5578063b88d4fde146105e3576101e5565b80636c0360eb146104be57806370a08231146104c65780637e1c0c09146104ec5780638e8ca30a146104f4576101e5565b806323b872dd116101875780634f6ccce7116101565780634f6ccce7146104065780635a3f26721461042357806362601e89146104995780636352211e146104a1576101e5565b806323b872dd146103515780632f745c591461038757806342842e0e146103b357806342966c68146103e9576101e5565b8063081812fc116101c3578063081812fc146102ca578063095ea7b3146103035780631085cbb61461032f57806318160ddd14610337576101e5565b806301ffc9a7146101ea5780630621472c1461022557806306fdde031461024d575b600080fd5b6102116004803603602081101561020057600080fd5b50356001600160e01b031916610876565b604080519115158252519081900360200190f35b61024b6004803603602081101561023b57600080fd5b50356001600160a01b0316610899565b005b6102556108dc565b6040805160208082528351818301528351919283929083019185019080838360005b8381101561028f578181015183820152602001610277565b50505050905090810190601f1680156102bc5780820380516001836020036101000a031916815260200191505b509250505060405180910390f35b6102e7600480360360208110156102e057600080fd5b5035610972565b604080516001600160a01b039092168252519081900360200190f35b61024b6004803603604081101561031957600080fd5b506001600160a01b0381351690602001356109d4565b610255610aaa565b61033f610b38565b60408051918252519081900360200190f35b61024b6004803603606081101561036757600080fd5b506001600160a01b03813581169160208101359091169060400135610b49565b61033f6004803603604081101561039d57600080fd5b506001600160a01b038135169060200135610ba0565b61024b600480360360608110156103c957600080fd5b506001600160a01b03813581169160208101359091169060400135610bcb565b610211600480360360208110156103ff57600080fd5b5035610c80565b61033f6004803603602081101561041c57600080fd5b5035610c93565b6104496004803603602081101561043957600080fd5b50356001600160a01b0316610ca9565b60408051602080825283518183015283519192839290830191858101910280838360005b8381101561048557818101518382015260200161046d565b505050509050019250505060405180910390f35b610255610d60565b6102e7600480360360208110156104b757600080fd5b5035610dbb565b610255610de3565b61033f600480360360208110156104dc57600080fd5b50356001600160a01b0316610e44565b61033f610eac565b610255610eb2565b610255610f0d565b61024b6004803603604081101561051a57600080fd5b6001600160a01b038235169190810190604081016020820135600160201b81111561054457600080fd5b82018360208201111561055657600080fd5b803590602001918460208302840111600160201b8311171561057757600080fd5b919080806020026020016040519081016040528093929190818152602001838360200280828437600092019190915250929550610f6e945050505050565b61024b600480360360408110156105cb57600080fd5b506001600160a01b0381351690602001351515610f92565b61024b600480360360808110156105f957600080fd5b6001600160a01b03823581169260208101359091169160408201359190810190608081016060820135600160201b81111561063357600080fd5b82018360208201111561064557600080fd5b803590602001918460018302840111600160201b8311171561066657600080fd5b91908080601f016020809104026020016040519081016040528093929190818152602001838380828437600092019190915250929550611097945050505050565b6102e7611314565b610255600480360360208110156106c557600080fd5b5035611323565b6102556115a6565b61024b600480360360208110156106ea57600080fd5b810190602081018135600160201b81111561070457600080fd5b82018360208201111561071657600080fd5b803590602001918460018302840111600160201b8311171561073757600080fd5b91908080601f016020809104026020016040519081016040528093929190818152602001838380828437600092019190915250929550611601945050505050565b6102556004803603602081101561078e57600080fd5b503561172f565b61024b600480360360408110156107ab57600080fd5b81359190810190604081016020820135600160201b8111156107cc57600080fd5b8201836020820111156107de57600080fd5b803590602001918460018302840111600160201b831117156107ff57600080fd5b91908080601f0160208091040260200160405190810160405280939291908181526020018383808284376000920191909152509295506117c6945050505050565b6102116004803603604081101561085657600080fd5b506001600160a01b0381358116916020013516611b01565b610211611b2f565b6001600160e01b0319811660009081526020819052604090205460ff165b919050565b60606108a433610ca9565b905060005b81518110156108d7576108cf838383815181106108c257fe5b60200260200101516109d4565b6001016108a9565b505050565b60068054604080516020601f60026000196101006001881615020190951694909404938401819004810282018101909252828152606093909290918301828280156109685780601f1061093d57610100808354040283529160200191610968565b820191906000526020600020905b81548152906001019060200180831161094b57829003601f168201915b5050505050905090565b600061097d82611b38565b6109b85760405162461bcd60e51b815260040180806020018281038252602c815260200180612c8c602c913960400191505060405180910390fd5b506000908152600460205260409020546001600160a01b031690565b60006109df82610dbb565b9050806001600160a01b0316836001600160a01b03161415610a325760405162461bcd60e51b8152600401808060200182810382526021815260200180612d106021913960400191505060405180910390fd5b806001600160a01b0316610a44611b45565b6001600160a01b03161480610a655750610a6581610a60611b45565b611b01565b610aa05760405162461bcd60e51b8152600401808060200182810382526038815260200180612bdf6038913960400191505060405180910390fd5b6108d78383611b49565b600c805460408051602060026001851615610100026000190190941693909304601f81018490048402820184019092528181529291830182828015610b305780601f10610b0557610100808354040283529160200191610b30565b820191906000526020600020905b815481529060010190602001808311610b1357829003601f168201915b505050505081565b6000610b446002611bb7565b905090565b610b5a610b54611b45565b82611bc2565b610b955760405162461bcd60e51b8152600401808060200182810382526031815260200180612d316031913960400191505060405180910390fd5b6108d7838383611c66565b6001600160a01b0382166000908152600160205260408120610bc29083611db2565b90505b92915050565b6001600160a01b038316610c18576040805162461bcd60e51b815260206004820152600f60248201526e696e76616c6964206164647265737360881b604482015290519081900360640190fd5b6001600160a01b038216610c65576040805162461bcd60e51b815260206004820152600f60248201526e696e76616c6964206164647265737360881b604482015290519081900360640190fd5b6108d783838360405180602001604052806000815250611097565b6000610c8b82611dbe565b506001919050565b600080610ca1600284611e8b565b509392505050565b60606001600160a01b038216610cf6576040805162461bcd60e51b815260206004820152600d60248201526c34b73b30b634b21037bbb732b960991b604482015290519081900360640190fd5b6001600160a01b03821660009081526011602090815260409182902080548351818402810184019094528084529091830182828015610d5457602002820191906000526020600020905b815481526020019060010190808311610d40575b50505050509050919050565b600a805460408051602060026001851615610100026000190190941693909304601f81018490048402820184019092528181529291830182828015610b305780601f10610b0557610100808354040283529160200191610b30565b6000610bc582604051806060016040528060298152602001612c416029913960029190611ea7565b60098054604080516020601f60026000196101006001881615020190951694909404938401819004810282018101909252828152606093909290918301828280156109685780601f1061093d57610100808354040283529160200191610968565b60006001600160a01b038216610e8b5760405162461bcd60e51b815260040180806020018281038252602a815260200180612c17602a913960400191505060405180910390fd5b6001600160a01b0382166000908152600160205260409020610bc590611bb7565b600f5481565b600d805460408051602060026001851615610100026000190190941693909304601f81018490048402820184019092528181529291830182828015610b305780601f10610b0557610100808354040283529160200191610b30565b60078054604080516020601f60026000196101006001881615020190951694909404938401819004810282018101909252828152606093909290918301828280156109685780601f1061093d57610100808354040283529160200191610968565b60005b81518110156108d757610f8a838383815181106108c257fe5b600101610f71565b610f9a611b45565b6001600160a01b0316826001600160a01b03161415611000576040805162461bcd60e51b815260206004820152601960248201527f4552433732313a20617070726f766520746f2063616c6c657200000000000000604482015290519081900360640190fd5b806005600061100d611b45565b6001600160a01b03908116825260208083019390935260409182016000908120918716808252919093529120805460ff191692151592909217909155611051611b45565b6001600160a01b03167f17307eab39ab6107e8899845ad3d59bd9653f200f220920489ca2b5937696c318360405180821515815260200191505060405180910390a35050565b6110a86110a2611b45565b83611bc2565b6110e35760405162461bcd60e51b8152600401808060200182810382526031815260200180612d316031913960400191505060405180910390fd5b6001600160a01b038416611130576040805162461bcd60e51b815260206004820152600f60248201526e696e76616c6964206164647265737360881b604482015290519081900360640190fd5b6001600160a01b03831661117d576040805162461bcd60e51b815260206004820152600f60248201526e696e76616c6964206164647265737360881b604482015290519081900360640190fd5b61118984848484611ebe565b6001600160a01b0384166000908152601160209081526040918290208054835181840281018401909452808452606093928301828280156111e957602002820191906000526020600020905b8154815260200190600101908083116111d5575b505050505090506060600182510367ffffffffffffffff8111801561120d57600080fd5b50604051908082528060200260200182016040528015611237578160200160208202803683370190505b506001600160a01b03861660008181526011602090815260408220805460018101825581845291832090910188905591905280549192509061127c90829081906129d8565b506000805b84518110156112df578685828151811061129757fe5b6020026020010151146112d7578481815181106112b057fe5b60200260200101518483806001019450815181106112ca57fe5b6020026020010181815250505b600101611281565b506001600160a01b0388166000908152601160209081526040909120845161130992860190612a28565b505050505050505050565b6010546001600160a01b031681565b606061132e82611b38565b6113695760405162461bcd60e51b815260040180806020018281038252602f815260200180612ce1602f913960400191505060405180910390fd5b60008281526008602090815260409182902080548351601f60026000196101006001861615020190931692909204918201849004840281018401909452808452606093928301828280156113fe5780601f106113d3576101008083540402835291602001916113fe565b820191906000526020600020905b8154815290600101906020018083116113e157829003601f168201915b50505050509050606061140f610de3565b905080516000141561142357509050610894565b8151156114e45780826040516020018083805190602001908083835b6020831061145e5780518252601f19909201916020918201910161143f565b51815160209384036101000a600019018019909216911617905285519190930192850191508083835b602083106114a65780518252601f199092019160209182019101611487565b6001836020036101000a0380198251168184511680821785525050505050509050019250505060405160208183030381529060405292505050610894565b806114ee85611f16565b6040516020018083805190602001908083835b602083106115205780518252601f199092019160209182019101611501565b51815160209384036101000a600019018019909216911617905285519190930192850191508083835b602083106115685780518252601f199092019160209182019101611549565b6001836020036101000a0380198251168184511680821785525050505050509050019250505060405160208183030381529060405292505050919050565b600b805460408051602060026001851615610100026000190190941693909304601f81018490048402820184019092528181529291830182828015610b305780601f10610b0557610100808354040283529160200191610b30565b6010546001600160a01b0316331461161857600080fd5b611620610b38565b600101600f819055611633903390611ff1565b3360008181526011602090815260408220600f54815460018101835582855292842090920191909155919052805461166e90829081906129d8565b50600f546000908152601260209081526040909120835161169192850190612a63565b507fc5e1d731c47dbd6a8c38e6ee9137792904eae9d20174034d1dc9a5781a0f855b826040518080602001828103825283818151815260200191508051906020019080838360005b838110156116f15781810151838201526020016116d9565b50505050905090810190601f16801561171e5780820380516001836020036101000a031916815260200191505b509250505060405180910390a15050565b60008181526012602090815260409182902080548351601f6002600019610100600186161502019093169290920491820184900484028101840190945280845260609392830182828015610d545780601f1061179957610100808354040283529160200191610d54565b820191906000526020600020905b8154815290600101906020018083116117a75750939695505050505050565b6010546001600160a01b031633146117dd57600080fd5b606081905080604051806040016040528060018152602001602f60f81b8152506040516020018083805190602001908083835b6020831061182f5780518252601f199092019160209182019101611810565b51815160209384036101000a600019018019909216911617905285519190930192850191508083835b602083106118775780518252601f199092019160209182019101611858565b6001836020036101000a038019825116818451168082178552505050505050905001925050506040516020818303038152906040529050806118b88461211f565b6040516020018083805190602001908083835b602083106118ea5780518252601f1990920191602091820191016118cb565b51815160209384036101000a600019018019909216911617905285519190930192850191508083835b602083106119325780518252601f199092019160209182019101611913565b51815160209384036101000a60001901801990921691161790526040805192909401828103601f1901835280850185526005815264173539b7b760d91b818301529351825192985088975093955092830193508392860191508083835b602083106119ae5780518252601f19909201916020918201910161198f565b51815160209384036101000a600019018019909216911617905285519190930192850191508083835b602083106119f65780518252601f1990920191602091820191016119d7565b51815160209384036101000a60001901801990921691161790526040805192909401828103601f19018352845260008a815260128252939093208151919750611a48965094509186019250612a639050565b50611a5283610dbb565b6001600160a01b03167f533b52bf6683c1d8929816db9f4f8221ca670c6815cbd30bd5e92b4b8eb0957884836040518083815260200180602001828103825283818151815260200191508051906020019080838360005b83811015611ac1578181015183820152602001611aa9565b50505050905090810190601f168015611aee5780820380516001836020036101000a031916815260200191505b50935050505060405180910390a2505050565b6001600160a01b03918216600090815260056020908152604080832093909416825291909152205460ff1690565b600e5460ff1681565b6000610bc5600283612258565b3390565b600081815260046020526040902080546001600160a01b0319166001600160a01b0384169081179091558190611b7e82610dbb565b6001600160a01b03167f8c5be1e5ebec7d5bd14f71427d1e84f3dd0314c0f7b2291e5b200ac8c7c3b92560405160405180910390a45050565b6000610bc582612264565b6000611bcd82611b38565b611c085760405162461bcd60e51b815260040180806020018281038252602c815260200180612bb3602c913960400191505060405180910390fd5b6000611c1383610dbb565b9050806001600160a01b0316846001600160a01b03161480611c4e5750836001600160a01b0316611c4384610972565b6001600160a01b0316145b80611c5e5750611c5e8185611b01565b949350505050565b826001600160a01b0316611c7982610dbb565b6001600160a01b031614611cbe5760405162461bcd60e51b8152600401808060200182810382526029815260200180612cb86029913960400191505060405180910390fd5b6001600160a01b038216611d035760405162461bcd60e51b8152600401808060200182810382526024815260200180612b8f6024913960400191505060405180910390fd5b611d0e8383836108d7565b611d19600082611b49565b6001600160a01b0383166000908152600160205260409020611d3b9082612268565b506001600160a01b0382166000908152600160205260409020611d5e9082612274565b50611d6b60028284612280565b5080826001600160a01b0316846001600160a01b03167fddf252ad1be2c89b69c2b068fc378daa952ba7f163c4a11628f55a4df523b3ef60405160405180910390a4505050565b6000610bc28383612296565b6000611dc982610dbb565b9050611dd7816000846108d7565b611de2600083611b49565b6000828152600860205260409020546002600019610100600184161502019091160415611e20576000828152600860205260408120611e2091612ade565b6001600160a01b0381166000908152600160205260409020611e429083612268565b50611e4e6002836122fa565b5060405182906000906001600160a01b038416907fddf252ad1be2c89b69c2b068fc378daa952ba7f163c4a11628f55a4df523b3ef908390a45050565b6000808080611e9a8686612306565b9097909650945050505050565b6000611eb4848484612381565b90505b9392505050565b611ec9848484611c66565b611ed58484848461244b565b611f105760405162461bcd60e51b8152600401808060200182810382526032815260200180612b5d6032913960400191505060405180910390fd5b50505050565b606081611f3b57506040805180820190915260018152600360fc1b6020820152610894565b8160005b8115611f5357600101600a82049150611f3f565b60608167ffffffffffffffff81118015611f6c57600080fd5b506040519080825280601f01601f191660200182016040528015611f97576020820181803683370190505b50859350905060001982015b8315611fe857600a840660300160f81b82828060019003935081518110611fc657fe5b60200101906001600160f81b031916908160001a905350600a84049350611fa3565b50949350505050565b6001600160a01b03821661204c576040805162461bcd60e51b815260206004820181905260248201527f4552433732313a206d696e7420746f20746865207a65726f2061646472657373604482015290519081900360640190fd5b61205581611b38565b156120a7576040805162461bcd60e51b815260206004820152601c60248201527f4552433732313a20746f6b656e20616c7265616479206d696e74656400000000604482015290519081900360640190fd5b6120b3600083836108d7565b6001600160a01b03821660009081526001602052604090206120d59082612274565b506120e260028284612280565b5060405181906001600160a01b038416906000907fddf252ad1be2c89b69c2b068fc378daa952ba7f163c4a11628f55a4df523b3ef908290a45050565b60408051606480825260a082019092526060919082908260208201818036833701905050905060008461217057604051806040016040528060018152602001600360fc1b8152509350505050610894565b84156121b6578151600a808704966001840193919006916030830160f81b918591811061219957fe5b60200101906001600160f81b031916908160001a90535050612170565b60608160010167ffffffffffffffff811180156121d257600080fd5b506040519080825280601f01601f1916602001820160405280156121fd576020820181803683370190505b50905060005b82811161224e57838184038151811061221857fe5b602001015160f81c60f81b82828151811061222f57fe5b60200101906001600160f81b031916908160001a905350600101612203565b5095945050505050565b6000610bc283836125b3565b5490565b6000610bc283836125cb565b6000610bc28383612691565b6000611eb484846001600160a01b0385166126db565b815460009082106122d85760405162461bcd60e51b8152600401808060200182810382526022815260200180612b3b6022913960400191505060405180910390fd5b8260000182815481106122e757fe5b9060005260206000200154905092915050565b6000610bc28383612772565b81546000908190831061234a5760405162461bcd60e51b8152600401808060200182810382526022815260200180612c6a6022913960400191505060405180910390fd5b600084600001848154811061235b57fe5b906000526020600020906002020190508060000154816001015492509250509250929050565b6000828152600184016020526040812054828161241c5760405162461bcd60e51b81526004018080602001828103825283818151815260200191508051906020019080838360005b838110156123e15781810151838201526020016123c9565b50505050905090810190601f16801561240e5780820380516001836020036101000a031916815260200191505b509250505060405180910390fd5b5084600001600182038154811061242f57fe5b9060005260206000209060020201600101549150509392505050565b600061245f846001600160a01b0316612846565b61246b57506001611c5e565b6060612579630a85bd0160e11b612480611b45565b88878760405160240180856001600160a01b03168152602001846001600160a01b0316815260200183815260200180602001828103825283818151815260200191508051906020019080838360005b838110156124e75781810151838201526020016124cf565b50505050905090810190601f1680156125145780820380516001836020036101000a031916815260200191505b5095505050505050604051602081830303815290604052906001600160e01b0319166020820180516001600160e01b038381831617835250505050604051806060016040528060328152602001612b5d603291396001600160a01b038816919061284c565b9050600081806020019051602081101561259257600080fd5b50516001600160e01b031916630a85bd0160e11b1492505050949350505050565b60009081526001919091016020526040902054151590565b6000818152600183016020526040812054801561268757835460001980830191908101906000908790839081106125fe57fe5b906000526020600020015490508087600001848154811061261b57fe5b60009182526020808320909101929092558281526001898101909252604090209084019055865487908061264b57fe5b60019003818190600052602060002001600090559055866001016000878152602001908152602001600020600090556001945050505050610bc5565b6000915050610bc5565b600061269d83836125b3565b6126d357508154600181810184556000848152602080822090930184905584548482528286019093526040902091909155610bc5565b506000610bc5565b600082815260018401602052604081205480612740575050604080518082018252838152602080820184815286546001818101895560008981528481209551600290930290950191825591519082015586548684528188019092529290912055611eb7565b8285600001600183038154811061275357fe5b9060005260206000209060020201600101819055506000915050611eb7565b6000818152600183016020526040812054801561268757835460001980830191908101906000908790839081106127a557fe5b90600052602060002090600202019050808760000184815481106127c557fe5b60009182526020808320845460029093020191825560019384015491840191909155835482528983019052604090209084019055865487908061280457fe5b6000828152602080822060026000199094019384020182815560019081018390559290935588815289820190925260408220919091559450610bc59350505050565b3b151590565b6060611eb484846000858561286085612846565b6128b1576040805162461bcd60e51b815260206004820152601d60248201527f416464726573733a2063616c6c20746f206e6f6e2d636f6e7472616374000000604482015290519081900360640190fd5b60006060866001600160a01b031685876040518082805190602001908083835b602083106128f05780518252601f1990920191602091820191016128d1565b6001836020036101000a03801982511681845116808217855250505050505090500191505060006040518083038185875af1925050503d8060008114612952576040519150601f19603f3d011682016040523d82523d6000602084013e612957565b606091505b5091509150612967828286612972565b979650505050505050565b60608315612981575081611eb7565b8251156129915782518084602001fd5b60405162461bcd60e51b81526020600482018181528451602484015284518593919283926044019190850190808383600083156123e15781810151838201526020016123c9565b828054828255906000526020600020908101928215612a185760005260206000209182015b82811115612a185782548255916001019190600101906129fd565b50612a24929150612b25565b5090565b828054828255906000526020600020908101928215612a18579160200282015b82811115612a18578251825591602001919060010190612a48565b828054600181600116156101000203166002900490600052602060002090601f016020900481019282612a995760008555612a18565b82601f10612ab257805160ff1916838001178555612a18565b82800160010185558215612a185791820182811115612a18578251825591602001919060010190612a48565b50805460018160011615610100020316600290046000825580601f10612b045750612b22565b601f016020900490600052602060002090810190612b229190612b25565b50565b5b80821115612a245760008155600101612b2656fe456e756d657261626c655365743a20696e646578206f7574206f6620626f756e64734552433732313a207472616e7366657220746f206e6f6e20455243373231526563656976657220696d706c656d656e7465724552433732313a207472616e7366657220746f20746865207a65726f20616464726573734552433732313a206f70657261746f7220717565727920666f72206e6f6e6578697374656e7420746f6b656e4552433732313a20617070726f76652063616c6c6572206973206e6f74206f776e6572206e6f7220617070726f76656420666f7220616c6c4552433732313a2062616c616e636520717565727920666f7220746865207a65726f20616464726573734552433732313a206f776e657220717565727920666f72206e6f6e6578697374656e7420746f6b656e456e756d657261626c654d61703a20696e646578206f7574206f6620626f756e64734552433732313a20617070726f76656420717565727920666f72206e6f6e6578697374656e7420746f6b656e4552433732313a207472616e73666572206f6620746f6b656e2074686174206973206e6f74206f776e4552433732314d657461646174613a2055524920717565727920666f72206e6f6e6578697374656e7420746f6b656e4552433732313a20617070726f76616c20746f2063757272656e74206f776e65724552433732313a207472616e736665722063616c6c6572206973206e6f74206f776e6572206e6f7220617070726f766564a26469706673582212209d72b68c605fb1cb4d8d0776888c8793e3f88237d5d1a8dc7c66ef8ee751bce764736f6c63430007040033a26469706673582212200398b8aa1685dc14195d87713dec5de762b5b52cf214492d1bdc756fb3ea9d3c64736f6c63430007040033",
  "immutableReferences": {},
  "source": "// SPDX-License-Identifier: MIT\npragma solidity >=0.4.22 <0.8.4;\nimport \"@openzeppelin/contracts/token/ERC20/ERC20.sol\";\nimport \"@openzeppelin/contracts/math/SafeMath.sol\";\nimport \"./NftFactory.sol\";\n\ncontract NftRegistry {\n\n\n  // mapping to save the symbol to Registry Address \n  mapping (string => address) public symbolToRegeistryAddress;\n  // mapping to save the Uri to Registry Address\n  mapping (string => address) public uriToRegeistryAddress;\n  //mapping to save all the registry addresses of an owner\n  mapping(address=> address[]) public userToRegistries;\n  // Array to store latest minted registries\n  address[] latestRegistries;\n  uint16 latestRegistriesCounter=0;\n\n  using SafeMath for uint256;\n  address lastaddress;\n  string lastUri;\n  address feeAccount = 0x0000000000000000000000000000000000000000;\n  address private _owner;\n  constructor(address _feeAccount) public {\n    feeAccount = _feeAccount;\n    _owner = msg.sender;\n  }\n\n  /*\n   * when you deploy Cifi_Token to Local testNet (Ganache) or to testnet like binance test net take the address of the\n   * deployed Cifi_Token and add it below\n   * the address below is just a dummy one that we need to change once we deploy the Cifi_Token Contract to the\n   * binance main net and take the address of the contract and add it below\n   * but for testing purposes just deploy the scifiToken to Ganache and take the address and use it.\n   */\n\n  //  ERC20 cifiTokenContract = ERC20(0xb806d1a6C0AF8f0679E59104603aac4A417A790c);\n   uint256 constant FEE = 10;\n  //  uint8 cifiDecimals = cifiTokenContract.decimals();\n  //  uint256 public feeAmount = FEE.mul(10**cifiDecimals).div(100);\n  \n  event RegistryCreated(\n    string name,\n    string symbol,\n    string description,\n    string uri,\n    address caller\n  );\n  \n \n  function createRegistry(\n    string memory name,\n    string memory symbol,\n    string memory description,\n    string memory uri,\n    bool isPrivate\n  ) public  returns (address) {\n    require(msg.sender != address(0), \"Invalid address\");\n    require(bytes(name).length != 0, \"name can't be empty\");\n    require(bytes(symbol).length != 0, \"symbol can't be empty\");\n    uniqueSymbol(symbol);\n    // cifiTokenContract.transferFrom(msg.sender, feeAccount, feeAmount);\n    NftFactory registry =\n      new NftFactory(name, symbol, description, uri, msg.sender,isPrivate);\n      \n    // adding the registry address to the symbolToRegeistryAddress \n    symbolToRegeistryAddress[symbol]= address(registry);\n\n    // saving the last registry address \n    lastaddress = address(registry);\n\n\n    // adding the registry address to the uriToRegeistryAddress \n    uriToRegeistryAddress[uri]= address(registry);\n\n    // adding the address to address array for userToRegisteries\n    userToRegistries[msg.sender].push(address(registry));\n\n    // Add the registry in latestRegistries array \n    if(latestRegistriesCounter<12){\n        latestRegistries[latestRegistriesCounter]=address(registry);\n        latestRegistriesCounter++;\n    }\n    else{\n      for(uint cnt=1;cnt<12;cnt++){\n        latestRegistries[cnt-1]=latestRegistries[cnt];\n      }\n      latestRegistries[11]=address(registry);\n    }\n\n    emit RegistryCreated(name, symbol, description, uri, msg.sender);\n\n    return address(registry);\n  }\n  \n  \n  function uniqueSymbol(string memory symbol) public view returns(bool){\n    require(symbolToRegeistryAddress[symbol] == address(0),\"symbol already used\");\n      return true;\n  }\n  \n\n  function getlastAddress() public view returns (address) {\n      return lastaddress;\n  }\n\n  function getRegistryAddressFromUri(string memory uri) public view returns (address) {\n      return uriToRegeistryAddress[uri];\n  }\n\n  function getRegistries(address _user) public view returns(address[] memory){\n    return userToRegistries[_user];\n  }\n\n  function getRegistry(string memory _symbol) public view returns(address){\n    return symbolToRegeistryAddress[_symbol];\n  }\n\n  function getLatestRegistries() public view returns(address[] memory){\n    return latestRegistries;\n  }\n  /**\n   * this function allows you to change the address that is going to receive the fee amount\n   */\n   function ChangeFeeAccount(address newFeeAccount) public returns (bool) {\n     //require(hasRole(DEFAULT_ADMIN_ROLE, msg.sender), \"Caller is not an admin\");\n     require(msg.sender == _owner);\n     feeAccount = newFeeAccount;\n     return true;\n   }\n\n  \n}\n",
  "sourcePath": "/Users/arpitshukla/internships/ARVRSE/NFT_Contract_Factory/src/contracts/NftRegistry.sol",
  "compiler": {
    "name": "solc",
    "version": "0.7.4+commit.3f05b770.Emscripten.clang"
  },
  "schemaVersion": "3.3.4",
  "updatedAt": "2021-04-14T02:18:48.541Z",
  "networkType": "ethereum",
  "devdoc": {
    "kind": "dev",
    "methods": {},
    "version": 1
  },
  "userdoc": {
    "kind": "user",
    "methods": {
      "ChangeFeeAccount(address)": {
        "notice": "this function allows you to change the address that is going to receive the fee amount"
      }
    },
    "version": 1
  }
}