{
  "contractName": "NftRegistry",
  "abi": [
    {
      "inputs": [
        {
          "internalType": "address",
          "name": "_feeAccount",
          "type": "address"
        }
      ],
      "stateMutability": "nonpayable",
      "type": "constructor"
    },
    {
      "anonymous": false,
      "inputs": [
        {
          "indexed": true,
          "internalType": "address",
          "name": "owner",
          "type": "address"
        },
        {
          "indexed": true,
          "internalType": "address",
          "name": "approved",
          "type": "address"
        },
        {
          "indexed": true,
          "internalType": "uint256",
          "name": "tokenId",
          "type": "uint256"
        }
      ],
      "name": "Approval",
      "type": "event"
    },
    {
      "anonymous": false,
      "inputs": [
        {
          "indexed": true,
          "internalType": "address",
          "name": "owner",
          "type": "address"
        },
        {
          "indexed": true,
          "internalType": "address",
          "name": "operator",
          "type": "address"
        },
        {
          "indexed": false,
          "internalType": "bool",
          "name": "approved",
          "type": "bool"
        }
      ],
      "name": "ApprovalForAll",
      "type": "event"
    },
    {
      "anonymous": false,
      "inputs": [
        {
          "indexed": true,
          "internalType": "address",
          "name": "_owner",
          "type": "address"
        },
        {
          "indexed": false,
          "internalType": "uint256",
          "name": "_tokenId",
          "type": "uint256"
        },
        {
          "indexed": false,
          "internalType": "string",
          "name": "_url",
          "type": "string"
        }
      ],
      "name": "MetadataAssigned",
      "type": "event"
    },
    {
      "anonymous": false,
      "inputs": [
        {
          "indexed": false,
          "internalType": "string",
          "name": "name",
          "type": "string"
        },
        {
          "indexed": false,
          "internalType": "string",
          "name": "symbol",
          "type": "string"
        },
        {
          "indexed": false,
          "internalType": "string",
          "name": "description",
          "type": "string"
        },
        {
          "indexed": false,
          "internalType": "address",
          "name": "caller",
          "type": "address"
        }
      ],
      "name": "RegistryCreated",
      "type": "event"
    },
    {
      "anonymous": false,
      "inputs": [
        {
          "indexed": true,
          "internalType": "address",
          "name": "from",
          "type": "address"
        },
        {
          "indexed": true,
          "internalType": "address",
          "name": "to",
          "type": "address"
        },
        {
          "indexed": true,
          "internalType": "uint256",
          "name": "tokenId",
          "type": "uint256"
        }
      ],
      "name": "Transfer",
      "type": "event"
    },
    {
      "inputs": [
        {
          "internalType": "string",
          "name": "url",
          "type": "string"
        }
      ],
      "name": "Mint",
      "outputs": [],
      "stateMutability": "nonpayable",
      "type": "function"
    },
    {
      "inputs": [
        {
          "internalType": "string",
          "name": "name",
          "type": "string"
        },
        {
          "internalType": "string",
          "name": "symbol",
          "type": "string"
        },
        {
          "internalType": "string",
          "name": "description",
          "type": "string"
        },
        {
          "internalType": "address",
          "name": "caller",
          "type": "address"
        }
      ],
      "name": "Registry",
      "outputs": [],
      "stateMutability": "nonpayable",
      "type": "function"
    },
    {
      "inputs": [
        {
          "internalType": "address",
          "name": "to",
          "type": "address"
        },
        {
          "internalType": "uint256",
          "name": "tokenId",
          "type": "uint256"
        }
      ],
      "name": "approve",
      "outputs": [],
      "stateMutability": "nonpayable",
      "type": "function"
    },
    {
      "inputs": [
        {
          "internalType": "address",
          "name": "_to",
          "type": "address"
        }
      ],
      "name": "approveAll",
      "outputs": [],
      "stateMutability": "nonpayable",
      "type": "function"
    },
    {
      "inputs": [
        {
          "internalType": "address",
          "name": "_to",
          "type": "address"
        },
        {
          "internalType": "uint256[]",
          "name": "_tokenIds",
          "type": "uint256[]"
        }
      ],
      "name": "approveMany",
      "outputs": [],
      "stateMutability": "nonpayable",
      "type": "function"
    },
    {
      "inputs": [
        {
          "internalType": "uint256",
          "name": "id",
          "type": "uint256"
        },
        {
          "internalType": "string",
          "name": "uri",
          "type": "string"
        }
      ],
      "name": "assignDataToToken",
      "outputs": [],
      "stateMutability": "nonpayable",
      "type": "function"
    },
    {
      "inputs": [
        {
          "internalType": "address",
          "name": "owner",
          "type": "address"
        }
      ],
      "name": "balanceOf",
      "outputs": [
        {
          "internalType": "uint256",
          "name": "",
          "type": "uint256"
        }
      ],
      "stateMutability": "view",
      "type": "function",
      "constant": true
    },
    {
      "inputs": [],
      "name": "baseURI",
      "outputs": [
        {
          "internalType": "string",
          "name": "",
          "type": "string"
        }
      ],
      "stateMutability": "view",
      "type": "function",
      "constant": true
    },
    {
      "inputs": [
        {
          "internalType": "string",
          "name": "symbol",
          "type": "string"
        },
        {
          "internalType": "uint256",
          "name": "_id",
          "type": "uint256"
        }
      ],
      "name": "burn",
      "outputs": [
        {
          "internalType": "bool",
          "name": "",
          "type": "bool"
        }
      ],
      "stateMutability": "nonpayable",
      "type": "function"
    },
    {
      "inputs": [
        {
          "internalType": "uint256",
          "name": "tokenId",
          "type": "uint256"
        }
      ],
      "name": "getApproved",
      "outputs": [
        {
          "internalType": "address",
          "name": "",
          "type": "address"
        }
      ],
      "stateMutability": "view",
      "type": "function",
      "constant": true
    },
    {
      "inputs": [
        {
          "internalType": "uint256",
          "name": "_tokenId",
          "type": "uint256"
        }
      ],
      "name": "getMetadataAtID",
      "outputs": [
        {
          "internalType": "string",
          "name": "",
          "type": "string"
        }
      ],
      "stateMutability": "view",
      "type": "function",
      "constant": true
    },
    {
      "inputs": [
        {
          "internalType": "uint256",
          "name": "id",
          "type": "uint256"
        }
      ],
      "name": "getTokenOwner",
      "outputs": [
        {
          "internalType": "address",
          "name": "",
          "type": "address"
        }
      ],
      "stateMutability": "view",
      "type": "function",
      "constant": true
    },
    {
      "inputs": [
        {
          "internalType": "address",
          "name": "owner",
          "type": "address"
        },
        {
          "internalType": "address",
          "name": "operator",
          "type": "address"
        }
      ],
      "name": "isApprovedForAll",
      "outputs": [
        {
          "internalType": "bool",
          "name": "",
          "type": "bool"
        }
      ],
      "stateMutability": "view",
      "type": "function",
      "constant": true
    },
    {
      "inputs": [],
      "name": "name",
      "outputs": [
        {
          "internalType": "string",
          "name": "",
          "type": "string"
        }
      ],
      "stateMutability": "view",
      "type": "function",
      "constant": true
    },
    {
      "inputs": [
        {
          "internalType": "address",
          "name": "",
          "type": "address"
        },
        {
          "internalType": "uint256",
          "name": "",
          "type": "uint256"
        }
      ],
      "name": "ownedTokens",
      "outputs": [
        {
          "internalType": "uint256",
          "name": "",
          "type": "uint256"
        }
      ],
      "stateMutability": "view",
      "type": "function",
      "constant": true
    },
    {
      "inputs": [
        {
          "internalType": "uint256",
          "name": "tokenId",
          "type": "uint256"
        }
      ],
      "name": "ownerOf",
      "outputs": [
        {
          "internalType": "address",
          "name": "",
          "type": "address"
        }
      ],
      "stateMutability": "view",
      "type": "function",
      "constant": true
    },
    {
      "inputs": [
        {
          "internalType": "string",
          "name": "",
          "type": "string"
        }
      ],
      "name": "registries",
      "outputs": [
        {
          "internalType": "string",
          "name": "name",
          "type": "string"
        },
        {
          "internalType": "string",
          "name": "symbol",
          "type": "string"
        },
        {
          "internalType": "string",
          "name": "description",
          "type": "string"
        },
        {
          "internalType": "address",
          "name": "creator",
          "type": "address"
        }
      ],
      "stateMutability": "view",
      "type": "function",
      "constant": true
    },
    {
      "inputs": [
        {
          "internalType": "address",
          "name": "from",
          "type": "address"
        },
        {
          "internalType": "address",
          "name": "to",
          "type": "address"
        },
        {
          "internalType": "uint256",
          "name": "tokenId",
          "type": "uint256"
        }
      ],
      "name": "safeTransferFrom",
      "outputs": [],
      "stateMutability": "nonpayable",
      "type": "function"
    },
    {
      "inputs": [
        {
          "internalType": "address",
          "name": "from",
          "type": "address"
        },
        {
          "internalType": "address",
          "name": "to",
          "type": "address"
        },
        {
          "internalType": "uint256",
          "name": "tokenId",
          "type": "uint256"
        },
        {
          "internalType": "bytes",
          "name": "_data",
          "type": "bytes"
        }
      ],
      "name": "safeTransferFrom",
      "outputs": [],
      "stateMutability": "nonpayable",
      "type": "function"
    },
    {
      "inputs": [
        {
          "internalType": "address",
          "name": "operator",
          "type": "address"
        },
        {
          "internalType": "bool",
          "name": "approved",
          "type": "bool"
        }
      ],
      "name": "setApprovalForAll",
      "outputs": [],
      "stateMutability": "nonpayable",
      "type": "function"
    },
    {
      "inputs": [
        {
          "internalType": "bytes4",
          "name": "interfaceId",
          "type": "bytes4"
        }
      ],
      "name": "supportsInterface",
      "outputs": [
        {
          "internalType": "bool",
          "name": "",
          "type": "bool"
        }
      ],
      "stateMutability": "view",
      "type": "function",
      "constant": true
    },
    {
      "inputs": [],
      "name": "symbol",
      "outputs": [
        {
          "internalType": "string",
          "name": "",
          "type": "string"
        }
      ],
      "stateMutability": "view",
      "type": "function",
      "constant": true
    },
    {
      "inputs": [
        {
          "internalType": "uint256",
          "name": "index",
          "type": "uint256"
        }
      ],
      "name": "tokenByIndex",
      "outputs": [
        {
          "internalType": "uint256",
          "name": "",
          "type": "uint256"
        }
      ],
      "stateMutability": "view",
      "type": "function",
      "constant": true
    },
    {
      "inputs": [
        {
          "internalType": "address",
          "name": "owner",
          "type": "address"
        },
        {
          "internalType": "uint256",
          "name": "index",
          "type": "uint256"
        }
      ],
      "name": "tokenOfOwnerByIndex",
      "outputs": [
        {
          "internalType": "uint256",
          "name": "",
          "type": "uint256"
        }
      ],
      "stateMutability": "view",
      "type": "function",
      "constant": true
    },
    {
      "inputs": [
        {
          "internalType": "uint256",
          "name": "tokenId",
          "type": "uint256"
        }
      ],
      "name": "tokenURI",
      "outputs": [
        {
          "internalType": "string",
          "name": "",
          "type": "string"
        }
      ],
      "stateMutability": "view",
      "type": "function",
      "constant": true
    },
    {
      "inputs": [
        {
          "internalType": "address",
          "name": "_owner",
          "type": "address"
        }
      ],
      "name": "tokensOf",
      "outputs": [
        {
          "internalType": "uint256[]",
          "name": "",
          "type": "uint256[]"
        }
      ],
      "stateMutability": "view",
      "type": "function",
      "constant": true
    },
    {
      "inputs": [],
      "name": "totalSupply",
      "outputs": [
        {
          "internalType": "uint256",
          "name": "",
          "type": "uint256"
        }
      ],
      "stateMutability": "view",
      "type": "function",
      "constant": true
    },
    {
      "inputs": [
        {
          "internalType": "address",
          "name": "from",
          "type": "address"
        },
        {
          "internalType": "address",
          "name": "to",
          "type": "address"
        },
        {
          "internalType": "uint256",
          "name": "tokenId",
          "type": "uint256"
        }
      ],
      "name": "transferFrom",
      "outputs": [],
      "stateMutability": "nonpayable",
      "type": "function"
    },
    {
      "inputs": [
        {
          "internalType": "string",
          "name": "name",
          "type": "string"
        },
        {
          "internalType": "string",
          "name": "symbol",
          "type": "string"
        },
        {
          "internalType": "string",
          "name": "description",
          "type": "string"
        }
      ],
      "name": "createRegistry",
      "outputs": [
        {
          "internalType": "bool",
          "name": "",
          "type": "bool"
        }
      ],
      "stateMutability": "nonpayable",
      "type": "function"
    },
    {
      "inputs": [],
      "name": "balance1",
      "outputs": [
        {
          "internalType": "uint256",
          "name": "",
          "type": "uint256"
        }
      ],
      "stateMutability": "view",
      "type": "function",
      "constant": true
    },
    {
      "inputs": [
        {
          "internalType": "string",
          "name": "symbol",
          "type": "string"
        }
      ],
      "name": "getRegistryAddress",
      "outputs": [
        {
          "internalType": "address",
          "name": "",
          "type": "address"
        }
      ],
      "stateMutability": "view",
      "type": "function",
      "constant": true
    }
  ],
  "bytecode": "0x60806040526000600d5573135a6636c8d1d5099c6a6a1d8d0762c4c9ed9f09601660006101000a81548173ffffffffffffffffffffffffffffffffffffffff021916908373ffffffffffffffffffffffffffffffffffffffff1602179055503480156200006b57600080fd5b5060405162005cb138038062005cb1833981810160405260208110156200009157600080fd5b8101908080519060200190929190505050620000ba6301ffc9a760e01b6200010260201b60201c565b80600f60006101000a81548173ffffffffffffffffffffffffffffffffffffffff021916908373ffffffffffffffffffffffffffffffffffffffff160217905550506200020b565b63ffffffff60e01b817bffffffffffffffffffffffffffffffffffffffffffffffffffffffff191614156200019f576040517f08c379a000000000000000000000000000000000000000000000000000000000815260040180806020018281038252601c8152602001807f4552433136353a20696e76616c696420696e746572666163652069640000000081525060200191505060405180910390fd5b6001600080837bffffffffffffffffffffffffffffffffffffffffffffffffffffffff19167bffffffffffffffffffffffffffffffffffffffffffffffffffffffff1916815260200190815260200160002060006101000a81548160ff02191690831515021790555050565b615a96806200021b6000396000f3fe608060405234801561001057600080fd5b50600436106101e55760003560e01c806370a082311161010f578063c45c4f58116100a2578063e149f03611610071578063e149f0361461139d578063e268cd24146113ff578063e69c20cf146114a6578063e985e9c51461156b576101e5565b8063c45c4f5814610ff4578063c5e1d73114611012578063c87b56dd146110cd578063df5cbf7d14611174576101e5565b8063a22cb465116100de578063a22cb46514610d6c578063a5cd761f14610dbc578063b48272cc14610e14578063b88d4fde14610eef576101e5565b806370a0823114610ad457806374b9982c14610b2c57806395d89b4114610c1157806399bb813414610c94576101e5565b806323b872dd116101875780634f6ccce7116101565780634f6ccce71461091e5780635a3f2672146109605780636352211e146109f95780636c0360eb14610a51576101e5565b806323b872dd146105d75780632f745c591461064557806342842e0e146106a757806346f62f6c14610715576101e5565b806306fdde03116101c357806306fdde0314610490578063081812fc14610513578063095ea7b31461056b57806318160ddd146105b9576101e5565b806301ffc9a7146101ea578063048a17921461024d5780630621472c1461044c575b600080fd5b6102356004803603602081101561020057600080fd5b8101908080357bffffffffffffffffffffffffffffffffffffffffffffffffffffffff191690602001909291905050506115e5565b60405180821515815260200191505060405180910390f35b6104346004803603606081101561026357600080fd5b810190808035906020019064010000000081111561028057600080fd5b82018360208201111561029257600080fd5b803590602001918460018302840111640100000000831117156102b457600080fd5b91908080601f016020809104026020016040519081016040528093929190818152602001838380828437600081840152601f19601f8201169050808301925050505050505091929192908035906020019064010000000081111561031757600080fd5b82018360208201111561032957600080fd5b8035906020019184600183028401116401000000008311171561034b57600080fd5b91908080601f016020809104026020016040519081016040528093929190818152602001838380828437600081840152601f19601f820116905080830192505050505050509192919290803590602001906401000000008111156103ae57600080fd5b8201836020820111156103c057600080fd5b803590602001918460018302840111640100000000831117156103e257600080fd5b91908080601f016020809104026020016040519081016040528093929190818152602001838380828437600081840152601f19601f82011690508083019250505050505050919291929050505061164c565b60405180821515815260200191505060405180910390f35b61048e6004803603602081101561046257600080fd5b81019080803573ffffffffffffffffffffffffffffffffffffffff169060200190929190505050611c52565b005b610498611c9a565b6040518080602001828103825283818151815260200191508051906020019080838360005b838110156104d85780820151818401526020810190506104bd565b50505050905090810190601f1680156105055780820380516001836020036101000a031916815260200191505b509250505060405180910390f35b61053f6004803603602081101561052957600080fd5b8101908080359060200190929190505050611d3c565b604051808273ffffffffffffffffffffffffffffffffffffffff16815260200191505060405180910390f35b6105b76004803603604081101561058157600080fd5b81019080803573ffffffffffffffffffffffffffffffffffffffff16906020019092919080359060200190929190505050611dd7565b005b6105c1611f1b565b6040518082815260200191505060405180910390f35b610643600480360360608110156105ed57600080fd5b81019080803573ffffffffffffffffffffffffffffffffffffffff169060200190929190803573ffffffffffffffffffffffffffffffffffffffff16906020019092919080359060200190929190505050611f2c565b005b6106916004803603604081101561065b57600080fd5b81019080803573ffffffffffffffffffffffffffffffffffffffff16906020019092919080359060200190929190505050611fa2565b6040518082815260200191505060405180910390f35b610713600480360360608110156106bd57600080fd5b81019080803573ffffffffffffffffffffffffffffffffffffffff169060200190929190803573ffffffffffffffffffffffffffffffffffffffff16906020019092919080359060200190929190505050611ffd565b005b61091c6004803603608081101561072b57600080fd5b810190808035906020019064010000000081111561074857600080fd5b82018360208201111561075a57600080fd5b8035906020019184600183028401116401000000008311171561077c57600080fd5b91908080601f016020809104026020016040519081016040528093929190818152602001838380828437600081840152601f19601f820116905080830192505050505050509192919290803590602001906401000000008111156107df57600080fd5b8201836020820111156107f157600080fd5b8035906020019184600183028401116401000000008311171561081357600080fd5b91908080601f016020809104026020016040519081016040528093929190818152602001838380828437600081840152601f19601f8201169050808301925050505050505091929192908035906020019064010000000081111561087657600080fd5b82018360208201111561088857600080fd5b803590602001918460018302840111640100000000831117156108aa57600080fd5b91908080601f016020809104026020016040519081016040528093929190818152602001838380828437600081840152601f19601f820116905080830192505050505050509192919290803573ffffffffffffffffffffffffffffffffffffffff169060200190929190505050612163565b005b61094a6004803603602081101561093457600080fd5b8101908080359060200190929190505050612343565b6040518082815260200191505060405180910390f35b6109a26004803603602081101561097657600080fd5b81019080803573ffffffffffffffffffffffffffffffffffffffff169060200190929190505050612366565b6040518080602001828103825283818151815260200191508051906020019060200280838360005b838110156109e55780820151818401526020810190506109ca565b505050509050019250505060405180910390f35b610a2560048036036020811015610a0f57600080fd5b81019080803590602001909291905050506124a0565b604051808273ffffffffffffffffffffffffffffffffffffffff16815260200191505060405180910390f35b610a596124d7565b6040518080602001828103825283818151815260200191508051906020019080838360005b83811015610a99578082015181840152602081019050610a7e565b50505050905090810190601f168015610ac65780820380516001836020036101000a031916815260200191505b509250505060405180910390f35b610b1660048036036020811015610aea57600080fd5b81019080803573ffffffffffffffffffffffffffffffffffffffff169060200190929190505050612579565b6040518082815260200191505060405180910390f35b610be560048036036020811015610b4257600080fd5b8101908080359060200190640100000000811115610b5f57600080fd5b820183602082011115610b7157600080fd5b80359060200191846001830284011164010000000083111715610b9357600080fd5b91908080601f016020809104026020016040519081016040528093929190818152602001838380828437600081840152601f19601f82011690508083019250505050505050919291929050505061264e565b604051808273ffffffffffffffffffffffffffffffffffffffff16815260200191505060405180910390f35b610c19612833565b6040518080602001828103825283818151815260200191508051906020019080838360005b83811015610c59578082015181840152602081019050610c3e565b50505050905090810190601f168015610c865780820380516001836020036101000a031916815260200191505b509250505060405180910390f35b610d6a60048036036040811015610caa57600080fd5b81019080803573ffffffffffffffffffffffffffffffffffffffff16906020019092919080359060200190640100000000811115610ce757600080fd5b820183602082011115610cf957600080fd5b80359060200191846020830284011164010000000083111715610d1b57600080fd5b919080806020026020016040519081016040528093929190818152602001838360200280828437600081840152601f19601f8201169050808301925050505050505091929192905050506128d5565b005b610dba60048036036040811015610d8257600080fd5b81019080803573ffffffffffffffffffffffffffffffffffffffff169060200190929190803515159060200190929190505050612910565b005b610de860048036036020811015610dd257600080fd5b8101908080359060200190929190505050612ac6565b604051808273ffffffffffffffffffffffffffffffffffffffff16815260200191505060405180910390f35b610ed760048036036040811015610e2a57600080fd5b8101908080359060200190640100000000811115610e4757600080fd5b820183602082011115610e5957600080fd5b80359060200191846001830284011164010000000083111715610e7b57600080fd5b91908080601f016020809104026020016040519081016040528093929190818152602001838380828437600081840152601f19601f82011690508083019250505050505050919291929080359060200190929190505050612b03565b60405180821515815260200191505060405180910390f35b610ff260048036036080811015610f0557600080fd5b81019080803573ffffffffffffffffffffffffffffffffffffffff169060200190929190803573ffffffffffffffffffffffffffffffffffffffff1690602001909291908035906020019092919080359060200190640100000000811115610f6c57600080fd5b820183602082011115610f7e57600080fd5b80359060200191846001830284011164010000000083111715610fa057600080fd5b91908080601f016020809104026020016040519081016040528093929190818152602001838380828437600081840152601f19601f820116905080830192505050505050509192919290505050612c12565b005b610ffc61307d565b6040518082815260200191505060405180910390f35b6110cb6004803603602081101561102857600080fd5b810190808035906020019064010000000081111561104557600080fd5b82018360208201111561105757600080fd5b8035906020019184600183028401116401000000008311171561107957600080fd5b91908080601f016020809104026020016040519081016040528093929190818152602001838380828437600081840152601f19601f820116905080830192505050505050509192919290505050613148565b005b6110f9600480360360208110156110e357600080fd5b81019080803590602001909291905050506132f1565b6040518080602001828103825283818151815260200191508051906020019080838360005b8381101561113957808201518184015260208101905061111e565b50505050905090810190601f1680156111665780820380516001836020036101000a031916815260200191505b509250505060405180910390f35b61122d6004803603602081101561118a57600080fd5b81019080803590602001906401000000008111156111a757600080fd5b8201836020820111156111b957600080fd5b803590602001918460018302840111640100000000831117156111db57600080fd5b91908080601f016020809104026020016040519081016040528093929190818152602001838380828437600081840152601f19601f8201169050808301925050505050505091929192905050506135c2565b604051808060200180602001806020018573ffffffffffffffffffffffffffffffffffffffff168152602001848103845288818151815260200191508051906020019080838360005b83811015611291578082015181840152602081019050611276565b50505050905090810190601f1680156112be5780820380516001836020036101000a031916815260200191505b50848103835287818151815260200191508051906020019080838360005b838110156112f75780820151818401526020810190506112dc565b50505050905090810190601f1680156113245780820380516001836020036101000a031916815260200191505b50848103825286818151815260200191508051906020019080838360005b8381101561135d578082015181840152602081019050611342565b50505050905090810190601f16801561138a5780820380516001836020036101000a031916815260200191505b5097505050505050505060405180910390f35b6113e9600480360360408110156113b357600080fd5b81019080803573ffffffffffffffffffffffffffffffffffffffff169060200190929190803590602001909291905050506137f0565b6040518082815260200191505060405180910390f35b61142b6004803603602081101561141557600080fd5b8101908080359060200190929190505050613821565b6040518080602001828103825283818151815260200191508051906020019080838360005b8381101561146b578082015181840152602081019050611450565b50505050905090810190601f1680156114985780820380516001836020036101000a031916815260200191505b509250505060405180910390f35b611569600480360360408110156114bc57600080fd5b8101908080359060200190929190803590602001906401000000008111156114e357600080fd5b8201836020820111156114f557600080fd5b8035906020019184600183028401116401000000008311171561151757600080fd5b91908080601f016020809104026020016040519081016040528093929190818152602001838380828437600081840152601f19601f8201169050808301925050505050505091929192905050506138d6565b005b6115cd6004803603604081101561158157600080fd5b81019080803573ffffffffffffffffffffffffffffffffffffffff169060200190929190803573ffffffffffffffffffffffffffffffffffffffff169060200190929190505050613cd7565b60405180821515815260200191505060405180910390f35b6000806000837bffffffffffffffffffffffffffffffffffffffffffffffffffffffff19167bffffffffffffffffffffffffffffffffffffffffffffffffffffffff1916815260200190815260200160002060009054906101000a900460ff169050919050565b60008073ffffffffffffffffffffffffffffffffffffffff163373ffffffffffffffffffffffffffffffffffffffff1614156116f0576040517f08c379a000000000000000000000000000000000000000000000000000000000815260040180806020018281038252600f8152602001807f496e76616c69642061646472657373000000000000000000000000000000000081525060200191505060405180910390fd5b600084511415611768576040517f08c379a00000000000000000000000000000000000000000000000000000000081526004018080602001828103825260138152602001807f6e616d652063616e277420626520656d7074790000000000000000000000000081525060200191505060405180910390fd5b6000835114156117e0576040517f08c379a00000000000000000000000000000000000000000000000000000000081526004018080602001828103825260158152602001807f73796d626f6c2063616e277420626520656d707479000000000000000000000081525060200191505060405180910390fd5b82805190602001206015846040518082805190602001908083835b6020831061181e57805182526020820191506020810190506020830392506117fb565b6001836020036101000a038019825116818451168082178552505050505050905001915050908152602001604051809103902060010160405180828054600181600116156101000203166002900480156118af5780601f1061188d5761010080835404028352918201916118af565b820191906000526020600020905b81548152906001019060200180831161189b575b505091505060405180910390201415611930576040517f08c379a00000000000000000000000000000000000000000000000000000000081526004018080602001828103825260178152602001807f73796d626f6c20697320616c72656164792074616b656e00000000000000000081525060200191505060405180910390fd5b6000601660009054906101000a900473ffffffffffffffffffffffffffffffffffffffff1673ffffffffffffffffffffffffffffffffffffffff166370a08231336040518263ffffffff1660e01b8152600401808273ffffffffffffffffffffffffffffffffffffffff16815260200191505060206040518083038186803b1580156119bb57600080fd5b505afa1580156119cf573d6000803e3d6000fd5b505050506040513d60208110156119e557600080fd5b810190808051906020019092919050505090506000601660009054906101000a900473ffffffffffffffffffffffffffffffffffffffff1673ffffffffffffffffffffffffffffffffffffffff1663313ce5676040518163ffffffff1660e01b815260040160206040518083038186803b158015611a6257600080fd5b505afa158015611a76573d6000803e3d6000fd5b505050506040513d6020811015611a8c57600080fd5b810190808051906020019092919050505090506000611ace6064611ac08460ff16600a0a600a613d6b90919063ffffffff16565b613df190919063ffffffff16565b905080831015611b29576040517f08c379a00000000000000000000000000000000000000000000000000000000081526004018080602001828103825260398152602001806159d66039913960400191505060405180910390fd5b601660009054906101000a900473ffffffffffffffffffffffffffffffffffffffff1673ffffffffffffffffffffffffffffffffffffffff166323b872dd33600f60009054906101000a900473ffffffffffffffffffffffffffffffffffffffff16846040518463ffffffff1660e01b8152600401808473ffffffffffffffffffffffffffffffffffffffff1681526020018373ffffffffffffffffffffffffffffffffffffffff1681526020018281526020019350505050602060405180830381600087803b158015611bfc57600080fd5b505af1158015611c10573d6000803e3d6000fd5b505050506040513d6020811015611c2657600080fd5b810190808051906020019092919050505050611c4487878733612163565b600193505050509392505050565b6060611c5d33612366565b905060005b8151811015611c9557611c8883838381518110611c7b57fe5b6020026020010151611dd7565b8080600101915050611c62565b505050565b606060068054600181600116156101000203166002900480601f016020809104026020016040519081016040528092919081815260200182805460018160011615610100020316600290048015611d325780601f10611d0757610100808354040283529160200191611d32565b820191906000526020600020905b815481529060010190602001808311611d1557829003601f168201915b5050505050905090565b6000611d4782613e7a565b611d9c576040517f08c379a000000000000000000000000000000000000000000000000000000000815260040180806020018281038252602c815260200180615952602c913960400191505060405180910390fd5b6004600083815260200190815260200160002060009054906101000a900473ffffffffffffffffffffffffffffffffffffffff169050919050565b6000611de2826124a0565b90508073ffffffffffffffffffffffffffffffffffffffff168373ffffffffffffffffffffffffffffffffffffffff161415611e69576040517f08c379a0000000000000000000000000000000000000000000000000000000008152600401808060200182810382526021815260200180615a0f6021913960400191505060405180910390fd5b8073ffffffffffffffffffffffffffffffffffffffff16611e88613e97565b73ffffffffffffffffffffffffffffffffffffffff161480611eb75750611eb681611eb1613e97565b613cd7565b5b611f0c576040517f08c379a00000000000000000000000000000000000000000000000000000000081526004018080602001828103825260388152602001806158846038913960400191505060405180910390fd5b611f168383613e9f565b505050565b6000611f276002613f58565b905090565b611f3d611f37613e97565b82613f6d565b611f92576040517f08c379a0000000000000000000000000000000000000000000000000000000008152600401808060200182810382526031815260200180615a306031913960400191505060405180910390fd5b611f9d838383614061565b505050565b6000611ff582600160008673ffffffffffffffffffffffffffffffffffffffff1673ffffffffffffffffffffffffffffffffffffffff1681526020019081526020016000206142a490919063ffffffff16565b905092915050565b600073ffffffffffffffffffffffffffffffffffffffff168373ffffffffffffffffffffffffffffffffffffffff1614156120a0576040517f08c379a000000000000000000000000000000000000000000000000000000000815260040180806020018281038252600f8152602001807f696e76616c69642061646472657373000000000000000000000000000000000081525060200191505060405180910390fd5b600073ffffffffffffffffffffffffffffffffffffffff168273ffffffffffffffffffffffffffffffffffffffff161415612143576040517f08c379a000000000000000000000000000000000000000000000000000000000815260040180806020018281038252600f8152602001807f696e76616c69642061646472657373000000000000000000000000000000000081525060200191505060405180910390fd5b61215e83838360405180602001604052806000815250612c12565b505050565b61216c836142be565b925083600a9080519060200190612184929190615627565b5082600b908051906020019061219b929190615627565b5081600c90805190602001906121b2929190615627565b5080600e60006101000a81548173ffffffffffffffffffffffffffffffffffffffff021916908373ffffffffffffffffffffffffffffffffffffffff1602179055506000600d8190555060405180608001604052808581526020018481526020018381526020013373ffffffffffffffffffffffffffffffffffffffff168152506015846040518082805190602001908083835b602083106122695780518252602082019150602081019050602083039250612246565b6001836020036101000a038019825116818451168082178552505050505050905001915050908152602001604051809103902060008201518160000190805190602001906122b8929190615627565b5060208201518160010190805190602001906122d5929190615627565b5060408201518160020190805190602001906122f2929190615627565b5060608201518160030160006101000a81548173ffffffffffffffffffffffffffffffffffffffff021916908373ffffffffffffffffffffffffffffffffffffffff16021790555090505050505050565b60008061235a8360026143df90919063ffffffff16565b50905080915050919050565b6060600073ffffffffffffffffffffffffffffffffffffffff168273ffffffffffffffffffffffffffffffffffffffff16141561240b576040517f08c379a000000000000000000000000000000000000000000000000000000000815260040180806020018281038252600d8152602001807f696e76616c6964206f776e65720000000000000000000000000000000000000081525060200191505060405180910390fd5b601260008373ffffffffffffffffffffffffffffffffffffffff1673ffffffffffffffffffffffffffffffffffffffff16815260200190815260200160002080548060200260200160405190810160405280929190818152602001828054801561249457602002820191906000526020600020905b815481526020019060010190808311612480575b50505050509050919050565b60006124d0826040518060600160405280602981526020016158e660299139600261440b9092919063ffffffff16565b9050919050565b606060098054600181600116156101000203166002900480601f01602080910402602001604051908101604052809291908181526020018280546001816001161561010002031660029004801561256f5780601f106125445761010080835404028352916020019161256f565b820191906000526020600020905b81548152906001019060200180831161255257829003601f168201915b5050505050905090565b60008073ffffffffffffffffffffffffffffffffffffffff168273ffffffffffffffffffffffffffffffffffffffff161415612600576040517f08c379a000000000000000000000000000000000000000000000000000000000815260040180806020018281038252602a8152602001806158bc602a913960400191505060405180910390fd5b612647600160008473ffffffffffffffffffffffffffffffffffffffff1673ffffffffffffffffffffffffffffffffffffffff16815260200190815260200160002061442a565b9050919050565b600081805190602001206015836040518082805190602001908083835b6020831061268e578051825260208201915060208101905060208303925061266b565b6001836020036101000a0380198251168184511680821785525050505050509050019150509081526020016040518091039020600101604051808280546001816001161561010002031660029004801561271f5780601f106126fd57610100808354040283529182019161271f565b820191906000526020600020905b81548152906001019060200180831161270b575b505091505060405180910390201461279f576040517f08c379a00000000000000000000000000000000000000000000000000000000081526004018080602001828103825260178152602001807f73796d626f6c20697320616c72656164792074616b656e00000000000000000081525060200191505060405180910390fd5b6015826040518082805190602001908083835b602083106127d557805182526020820191506020810190506020830392506127b2565b6001836020036101000a038019825116818451168082178552505050505050905001915050908152602001604051809103902060030160009054906101000a900473ffffffffffffffffffffffffffffffffffffffff169050919050565b606060078054600181600116156101000203166002900480601f0160208091040260200160405190810160405280929190818152602001828054600181600116156101000203166002900480156128cb5780601f106128a0576101008083540402835291602001916128cb565b820191906000526020600020905b8154815290600101906020018083116128ae57829003601f168201915b5050505050905090565b60005b815181101561290b576128fe838383815181106128f157fe5b6020026020010151611dd7565b80806001019150506128d8565b505050565b612918613e97565b73ffffffffffffffffffffffffffffffffffffffff168273ffffffffffffffffffffffffffffffffffffffff1614156129b9576040517f08c379a00000000000000000000000000000000000000000000000000000000081526004018080602001828103825260198152602001807f4552433732313a20617070726f766520746f2063616c6c65720000000000000081525060200191505060405180910390fd5b80600560006129c6613e97565b73ffffffffffffffffffffffffffffffffffffffff1673ffffffffffffffffffffffffffffffffffffffff16815260200190815260200160002060008473ffffffffffffffffffffffffffffffffffffffff1673ffffffffffffffffffffffffffffffffffffffff16815260200190815260200160002060006101000a81548160ff0219169083151502179055508173ffffffffffffffffffffffffffffffffffffffff16612a73613e97565b73ffffffffffffffffffffffffffffffffffffffff167f17307eab39ab6107e8899845ad3d59bd9653f200f220920489ca2b5937696c318360405180821515815260200191505060405180910390a35050565b60006011600083815260200190815260200160002060009054906101000a900473ffffffffffffffffffffffffffffffffffffffff169050919050565b60003373ffffffffffffffffffffffffffffffffffffffff166015846040518082805190602001908083835b60208310612b525780518252602082019150602081019050602083039250612b2f565b6001836020036101000a038019825116818451168082178552505050505050905001915050908152602001604051809103902060030160009054906101000a900473ffffffffffffffffffffffffffffffffffffffff1673ffffffffffffffffffffffffffffffffffffffff1614612bc957600080fd5b612bd28261443f565b6011600083815260200190815260200160002060006101000a81549073ffffffffffffffffffffffffffffffffffffffff02191690556001905092915050565b612c23612c1d613e97565b83613f6d565b612c78576040517f08c379a0000000000000000000000000000000000000000000000000000000008152600401808060200182810382526031815260200180615a306031913960400191505060405180910390fd5b600073ffffffffffffffffffffffffffffffffffffffff168473ffffffffffffffffffffffffffffffffffffffff161415612d1b576040517f08c379a000000000000000000000000000000000000000000000000000000000815260040180806020018281038252600f8152602001807f696e76616c69642061646472657373000000000000000000000000000000000081525060200191505060405180910390fd5b600073ffffffffffffffffffffffffffffffffffffffff168373ffffffffffffffffffffffffffffffffffffffff161415612dbe576040517f08c379a000000000000000000000000000000000000000000000000000000000815260040180806020018281038252600f8152602001807f696e76616c69642061646472657373000000000000000000000000000000000081525060200191505060405180910390fd5b612dca84848484614579565b826011600084815260200190815260200160002060006101000a81548173ffffffffffffffffffffffffffffffffffffffff021916908373ffffffffffffffffffffffffffffffffffffffff1602179055506060601260008673ffffffffffffffffffffffffffffffffffffffff1673ffffffffffffffffffffffffffffffffffffffff168152602001908152602001600020805480602002602001604051908101604052809291908181526020018280548015612ea757602002820191906000526020600020905b815481526020019060010190808311612e93575b505050505090506060600182510367ffffffffffffffff81118015612ecb57600080fd5b50604051908082528060200260200182016040528015612efa5781602001602082028036833780820191505090505b5090506000601260008773ffffffffffffffffffffffffffffffffffffffff1673ffffffffffffffffffffffffffffffffffffffff16815260200190815260200160002090508085908060018154018082558091505060019003906000526020600020016000909190919091505580601260008873ffffffffffffffffffffffffffffffffffffffff1673ffffffffffffffffffffffffffffffffffffffff168152602001908152602001600020908054612fb69291906156b5565b506000805b845181101561301e5786858281518110612fd157fe5b60200260200101511461301157848181518110612fea57fe5b602002602001015184838060010194508151811061300457fe5b6020026020010181815250505b8080600101915050612fbb565b5082601260008a73ffffffffffffffffffffffffffffffffffffffff1673ffffffffffffffffffffffffffffffffffffffff1681526020019081526020016000209080519060200190613072929190615707565b505050505050505050565b6000601660009054906101000a900473ffffffffffffffffffffffffffffffffffffffff1673ffffffffffffffffffffffffffffffffffffffff166370a08231336040518263ffffffff1660e01b8152600401808273ffffffffffffffffffffffffffffffffffffffff16815260200191505060206040518083038186803b15801561310857600080fd5b505afa15801561311c573d6000803e3d6000fd5b505050506040513d602081101561313257600080fd5b8101908080519060200190929190505050905090565b600e60009054906101000a900473ffffffffffffffffffffffffffffffffffffffff1673ffffffffffffffffffffffffffffffffffffffff163373ffffffffffffffffffffffffffffffffffffffff16146131a257600080fd5b60006131ac611f1b565b90506131b833826145eb565b336011600083815260200190815260200160002060006101000a81548173ffffffffffffffffffffffffffffffffffffffff021916908373ffffffffffffffffffffffffffffffffffffffff1602179055506000601260003373ffffffffffffffffffffffffffffffffffffffff1673ffffffffffffffffffffffffffffffffffffffff16815260200190815260200160002090508082908060018154018082558091505060019003906000526020600020016000909190919091505580601260003373ffffffffffffffffffffffffffffffffffffffff1673ffffffffffffffffffffffffffffffffffffffff1681526020019081526020016000209080546132c39291906156b5565b50826014600084815260200190815260200160002090805190602001906132eb929190615627565b50505050565b60606132fc82613e7a565b613351576040517f08c379a000000000000000000000000000000000000000000000000000000000815260040180806020018281038252602f8152602001806159a7602f913960400191505060405180910390fd5b6060600860008481526020019081526020016000208054600181600116156101000203166002900480601f0160208091040260200160405190810160405280929190818152602001828054600181600116156101000203166002900480156133fa5780601f106133cf576101008083540402835291602001916133fa565b820191906000526020600020905b8154815290600101906020018083116133dd57829003601f168201915b50505050509050606061340b6124d7565b90506000815114156134215781925050506135bd565b6000825111156134f25780826040516020018083805190602001908083835b602083106134635780518252602082019150602081019050602083039250613440565b6001836020036101000a03801982511681845116808217855250505050505090500182805190602001908083835b602083106134b45780518252602082019150602081019050602083039250613491565b6001836020036101000a03801982511681845116808217855250505050505090500192505050604051602081830303815290604052925050506135bd565b806134fc856147df565b6040516020018083805190602001908083835b60208310613532578051825260208201915060208101905060208303925061350f565b6001836020036101000a03801982511681845116808217855250505050505090500182805190602001908083835b602083106135835780518252602082019150602081019050602083039250613560565b6001836020036101000a03801982511681845116808217855250505050505090500192505050604051602081830303815290604052925050505b919050565b601581805160208101820180518482526020830160208501208183528095505050505050600091509050806000018054600181600116156101000203166002900480601f0160208091040260200160405190810160405280929190818152602001828054600181600116156101000203166002900480156136845780601f1061365957610100808354040283529160200191613684565b820191906000526020600020905b81548152906001019060200180831161366757829003601f168201915b505050505090806001018054600181600116156101000203166002900480601f0160208091040260200160405190810160405280929190818152602001828054600181600116156101000203166002900480156137225780601f106136f757610100808354040283529160200191613722565b820191906000526020600020905b81548152906001019060200180831161370557829003601f168201915b505050505090806002018054600181600116156101000203166002900480601f0160208091040260200160405190810160405280929190818152602001828054600181600116156101000203166002900480156137c05780601f10613795576101008083540402835291602001916137c0565b820191906000526020600020905b8154815290600101906020018083116137a357829003601f168201915b5050505050908060030160009054906101000a900473ffffffffffffffffffffffffffffffffffffffff16905084565b6012602052816000526040600020818154811061380c57600080fd5b90600052602060002001600091509150505481565b6060601460008381526020019081526020016000208054600181600116156101000203166002900480601f0160208091040260200160405190810160405280929190818152602001828054600181600116156101000203166002900480156138ca5780601f1061389f576101008083540402835291602001916138ca565b820191906000526020600020905b8154815290600101906020018083116138ad57829003601f168201915b50505050509050919050565b600e60009054906101000a900473ffffffffffffffffffffffffffffffffffffffff1673ffffffffffffffffffffffffffffffffffffffff163373ffffffffffffffffffffffffffffffffffffffff161461393057600080fd5b6060819050806040518060400160405280600181526020017f2f000000000000000000000000000000000000000000000000000000000000008152506040516020018083805190602001908083835b602083106139a2578051825260208201915060208101905060208303925061397f565b6001836020036101000a03801982511681845116808217855250505050505090500182805190602001908083835b602083106139f357805182526020820191506020810190506020830392506139d0565b6001836020036101000a03801982511681845116808217855250505050505090500192505050604051602081830303815290604052905080613a3484614926565b6040516020018083805190602001908083835b60208310613a6a5780518252602082019150602081019050602083039250613a47565b6001836020036101000a03801982511681845116808217855250505050505090500182805190602001908083835b60208310613abb5780518252602082019150602081019050602083039250613a98565b6001836020036101000a038019825116818451168082178552505050505050905001925050506040516020818303038152906040529050806040518060400160405280600581526020017f2e6a736f6e0000000000000000000000000000000000000000000000000000008152506040516020018083805190602001908083835b60208310613b5f5780518252602082019150602081019050602083039250613b3c565b6001836020036101000a03801982511681845116808217855250505050505090500182805190602001908083835b60208310613bb05780518252602082019150602081019050602083039250613b8d565b6001836020036101000a03801982511681845116808217855250505050505090500192505050604051602081830303815290604052905080601460008581526020019081526020016000209080519060200190613c0e929190615627565b50613c18836124a0565b73ffffffffffffffffffffffffffffffffffffffff167f533b52bf6683c1d8929816db9f4f8221ca670c6815cbd30bd5e92b4b8eb0957884836040518083815260200180602001828103825283818151815260200191508051906020019080838360005b83811015613c97578082015181840152602081019050613c7c565b50505050905090810190601f168015613cc45780820380516001836020036101000a031916815260200191505b50935050505060405180910390a2505050565b6000600560008473ffffffffffffffffffffffffffffffffffffffff1673ffffffffffffffffffffffffffffffffffffffff16815260200190815260200160002060008373ffffffffffffffffffffffffffffffffffffffff1673ffffffffffffffffffffffffffffffffffffffff16815260200190815260200160002060009054906101000a900460ff16905092915050565b600080831415613d7e5760009050613deb565b6000828402905082848281613d8f57fe5b0414613de6576040517f08c379a00000000000000000000000000000000000000000000000000000000081526004018080602001828103825260218152602001806159316021913960400191505060405180910390fd5b809150505b92915050565b6000808211613e68576040517f08c379a000000000000000000000000000000000000000000000000000000000815260040180806020018281038252601a8152602001807f536166654d6174683a206469766973696f6e206279207a65726f00000000000081525060200191505060405180910390fd5b818381613e7157fe5b04905092915050565b6000613e90826002614b0590919063ffffffff16565b9050919050565b600033905090565b816004600083815260200190815260200160002060006101000a81548173ffffffffffffffffffffffffffffffffffffffff021916908373ffffffffffffffffffffffffffffffffffffffff160217905550808273ffffffffffffffffffffffffffffffffffffffff16613f12836124a0565b73ffffffffffffffffffffffffffffffffffffffff167f8c5be1e5ebec7d5bd14f71427d1e84f3dd0314c0f7b2291e5b200ac8c7c3b92560405160405180910390a45050565b6000613f6682600001614b1f565b9050919050565b6000613f7882613e7a565b613fcd576040517f08c379a000000000000000000000000000000000000000000000000000000000815260040180806020018281038252602c815260200180615858602c913960400191505060405180910390fd5b6000613fd8836124a0565b90508073ffffffffffffffffffffffffffffffffffffffff168473ffffffffffffffffffffffffffffffffffffffff16148061404757508373ffffffffffffffffffffffffffffffffffffffff1661402f84611d3c565b73ffffffffffffffffffffffffffffffffffffffff16145b8061405857506140578185613cd7565b5b91505092915050565b8273ffffffffffffffffffffffffffffffffffffffff16614081826124a0565b73ffffffffffffffffffffffffffffffffffffffff16146140ed576040517f08c379a000000000000000000000000000000000000000000000000000000000815260040180806020018281038252602981526020018061597e6029913960400191505060405180910390fd5b600073ffffffffffffffffffffffffffffffffffffffff168273ffffffffffffffffffffffffffffffffffffffff161415614173576040517f08c379a000000000000000000000000000000000000000000000000000000000815260040180806020018281038252602481526020018061580e6024913960400191505060405180910390fd5b61417e838383614b30565b614189600082613e9f565b6141da81600160008673ffffffffffffffffffffffffffffffffffffffff1673ffffffffffffffffffffffffffffffffffffffff168152602001908152602001600020614b3590919063ffffffff16565b5061422c81600160008573ffffffffffffffffffffffffffffffffffffffff1673ffffffffffffffffffffffffffffffffffffffff168152602001908152602001600020614b4f90919063ffffffff16565b5061424381836002614b699092919063ffffffff16565b50808273ffffffffffffffffffffffffffffffffffffffff168473ffffffffffffffffffffffffffffffffffffffff167fddf252ad1be2c89b69c2b068fc378daa952ba7f163c4a11628f55a4df523b3ef60405160405180910390a4505050565b60006142b38360000183614b9e565b60001c905092915050565b60608082905060005b81518110156143d2577f610000000000000000000000000000000000000000000000000000000000000060f81c60ff1682828151811061430357fe5b602001015160f81c60f81b60f81c60ff161015801561436457507f7a0000000000000000000000000000000000000000000000000000000000000060f81c60ff1682828151811061435057fe5b602001015160f81c60f81b60f81c60ff1611155b156143c557602082828151811061437757fe5b602001015160f81c60f81b60f81c0360f81b82828151811061439557fe5b60200101907effffffffffffffffffffffffffffffffffffffffffffffffffffffffffffff1916908160001a9053505b80806001019150506142c7565b5080925082915050919050565b6000806000806143f28660000186614c21565b915091508160001c8160001c9350935050509250929050565b600061441e846000018460001b84614cba565b60001c90509392505050565b600061443882600001614db0565b9050919050565b600061444a826124a0565b905061445881600084614b30565b614463600083613e9f565b600060086000848152602001908152602001600020805460018160011615610100020316600290049050146144b2576008600083815260200190815260200160002060006144b19190615754565b5b61450382600160008473ffffffffffffffffffffffffffffffffffffffff1673ffffffffffffffffffffffffffffffffffffffff168152602001908152602001600020614b3590919063ffffffff16565b50614518826002614dc190919063ffffffff16565b5081600073ffffffffffffffffffffffffffffffffffffffff168273ffffffffffffffffffffffffffffffffffffffff167fddf252ad1be2c89b69c2b068fc378daa952ba7f163c4a11628f55a4df523b3ef60405160405180910390a45050565b614584848484614061565b61459084848484614ddb565b6145e5576040517f08c379a00000000000000000000000000000000000000000000000000000000081526004018080602001828103825260328152602001806157dc6032913960400191505060405180910390fd5b50505050565b600073ffffffffffffffffffffffffffffffffffffffff168273ffffffffffffffffffffffffffffffffffffffff16141561468e576040517f08c379a00000000000000000000000000000000000000000000000000000000081526004018080602001828103825260208152602001807f4552433732313a206d696e7420746f20746865207a65726f206164647265737381525060200191505060405180910390fd5b61469781613e7a565b1561470a576040517f08c379a000000000000000000000000000000000000000000000000000000000815260040180806020018281038252601c8152602001807f4552433732313a20746f6b656e20616c7265616479206d696e7465640000000081525060200191505060405180910390fd5b61471660008383614b30565b61476781600160008573ffffffffffffffffffffffffffffffffffffffff1673ffffffffffffffffffffffffffffffffffffffff168152602001908152602001600020614b4f90919063ffffffff16565b5061477e81836002614b699092919063ffffffff16565b50808273ffffffffffffffffffffffffffffffffffffffff16600073ffffffffffffffffffffffffffffffffffffffff167fddf252ad1be2c89b69c2b068fc378daa952ba7f163c4a11628f55a4df523b3ef60405160405180910390a45050565b60606000821415614827576040518060400160405280600181526020017f30000000000000000000000000000000000000000000000000000000000000008152509050614921565b600082905060005b60008214614851578080600101915050600a828161484957fe5b04915061482f565b60608167ffffffffffffffff8111801561486a57600080fd5b506040519080825280601f01601f19166020018201604052801561489d5781602001600182028036833780820191505090505b50905060006001830390508593505b6000841461491957600a84816148be57fe5b0660300160f81b828280600190039350815181106148d857fe5b60200101907effffffffffffffffffffffffffffffffffffffffffffffffffffffffffffff1916908160001a905350600a848161491157fe5b0493506148ac565b819450505050505b919050565b606060006064905060608167ffffffffffffffff8111801561494757600080fd5b506040519080825280601f01601f19166020018201604052801561497a5781602001600182028036833780820191505090505b5090506000808514156149c7576040518060400160405280600181526020017f30000000000000000000000000000000000000000000000000000000000000008152509350505050614b00565b5b60008514614a3a576000600a86816149dc57fe5b069050600a86816149e957fe5b0495508060300160f81b838380600101945081518110614a0557fe5b60200101907effffffffffffffffffffffffffffffffffffffffffffffffffffffffffffff1916908160001a905350506149c8565b60606001820167ffffffffffffffff81118015614a5657600080fd5b506040519080825280601f01601f191660200182016040528015614a895781602001600182028036833780820191505090505b50905060005b828111614af7578381840381518110614aa457fe5b602001015160f81c60f81b828281518110614abb57fe5b60200101907effffffffffffffffffffffffffffffffffffffffffffffffffffffffffffff1916908160001a9053508080600101915050614a8f565b50809450505050505b919050565b6000614b17836000018360001b614ff4565b905092915050565b600081600001805490509050919050565b505050565b6000614b47836000018360001b615017565b905092915050565b6000614b61836000018360001b6150ff565b905092915050565b6000614b95846000018460001b8473ffffffffffffffffffffffffffffffffffffffff1660001b61516f565b90509392505050565b600081836000018054905011614bff576040517f08c379a00000000000000000000000000000000000000000000000000000000081526004018080602001828103825260228152602001806157ba6022913960400191505060405180910390fd5b826000018281548110614c0e57fe5b9060005260206000200154905092915050565b60008082846000018054905011614c83576040517f08c379a000000000000000000000000000000000000000000000000000000000815260040180806020018281038252602281526020018061590f6022913960400191505060405180910390fd5b6000846000018481548110614c9457fe5b906000526020600020906002020190508060000154816001015492509250509250929050565b60008084600101600085815260200190815260200160002054905060008114158390614d81576040517f08c379a00000000000000000000000000000000000000000000000000000000081526004018080602001828103825283818151815260200191508051906020019080838360005b83811015614d46578082015181840152602081019050614d2b565b50505050905090810190601f168015614d735780820380516001836020036101000a031916815260200191505b509250505060405180910390fd5b50846000016001820381548110614d9457fe5b9060005260206000209060020201600101549150509392505050565b600081600001805490509050919050565b6000614dd3836000018360001b61524b565b905092915050565b6000614dfc8473ffffffffffffffffffffffffffffffffffffffff16615364565b614e095760019050614fec565b6060614f7363150b7a0260e01b614e1e613e97565b888787604051602401808573ffffffffffffffffffffffffffffffffffffffff1681526020018473ffffffffffffffffffffffffffffffffffffffff16815260200183815260200180602001828103825283818151815260200191508051906020019080838360005b83811015614ea2578082015181840152602081019050614e87565b50505050905090810190601f168015614ecf5780820380516001836020036101000a031916815260200191505b5095505050505050604051602081830303815290604052907bffffffffffffffffffffffffffffffffffffffffffffffffffffffff19166020820180517bffffffffffffffffffffffffffffffffffffffffffffffffffffffff83818316178352505050506040518060600160405280603281526020016157dc603291398773ffffffffffffffffffffffffffffffffffffffff166153779092919063ffffffff16565b90506000818060200190516020811015614f8c57600080fd5b8101908080519060200190929190505050905063150b7a0260e01b7bffffffffffffffffffffffffffffffffffffffffffffffffffffffff1916817bffffffffffffffffffffffffffffffffffffffffffffffffffffffff191614925050505b949350505050565b600080836001016000848152602001908152602001600020541415905092915050565b600080836001016000848152602001908152602001600020549050600081146150f3576000600182039050600060018660000180549050039050600086600001828154811061506257fe5b906000526020600020015490508087600001848154811061507f57fe5b90600052602060002001819055506001830187600101600083815260200190815260200160002081905550866000018054806150b757fe5b600190038181906000526020600020016000905590558660010160008781526020019081526020016000206000905560019450505050506150f9565b60009150505b92915050565b600061510b838361538f565b615164578260000182908060018154018082558091505060019003906000526020600020016000909190919091505582600001805490508360010160008481526020019081526020016000208190555060019050615169565b600090505b92915050565b600080846001016000858152602001908152602001600020549050600081141561521657846000016040518060400160405280868152602001858152509080600181540180825580915050600190039060005260206000209060020201600090919091909150600082015181600001556020820151816001015550508460000180549050856001016000868152602001908152602001600020819055506001915050615244565b8285600001600183038154811061522957fe5b90600052602060002090600202016001018190555060009150505b9392505050565b60008083600101600084815260200190815260200160002054905060008114615358576000600182039050600060018660000180549050039050600086600001828154811061529657fe5b90600052602060002090600202019050808760000184815481106152b657fe5b906000526020600020906002020160008201548160000155600182015481600101559050506001830187600101600083600001548152602001908152602001600020819055508660000180548061530957fe5b600190038181906000526020600020906002020160008082016000905560018201600090555050905586600101600087815260200190815260200160002060009055600194505050505061535e565b60009150505b92915050565b600080823b905060008111915050919050565b606061538684846000856153b2565b90509392505050565b600080836001016000848152602001908152602001600020541415905092915050565b60608247101561540d576040517f08c379a00000000000000000000000000000000000000000000000000000000081526004018080602001828103825260268152602001806158326026913960400191505060405180910390fd5b61541685615364565b615488576040517f08c379a000000000000000000000000000000000000000000000000000000000815260040180806020018281038252601d8152602001807f416464726573733a2063616c6c20746f206e6f6e2d636f6e747261637400000081525060200191505060405180910390fd5b600060608673ffffffffffffffffffffffffffffffffffffffff1685876040518082805190602001908083835b602083106154d857805182526020820191506020810190506020830392506154b5565b6001836020036101000a03801982511681845116808217855250505050505090500191505060006040518083038185875af1925050503d806000811461553a576040519150601f19603f3d011682016040523d82523d6000602084013e61553f565b606091505b509150915061554f82828661555b565b92505050949350505050565b6060831561556b57829050615620565b60008351111561557e5782518084602001fd5b816040517f08c379a00000000000000000000000000000000000000000000000000000000081526004018080602001828103825283818151815260200191508051906020019080838360005b838110156155e55780820151818401526020810190506155ca565b50505050905090810190601f1680156156125780820380516001836020036101000a031916815260200191505b509250505060405180910390fd5b9392505050565b828054600181600116156101000203166002900490600052602060002090601f01602090048101928261565d57600085556156a4565b82601f1061567657805160ff19168380011785556156a4565b828001600101855582156156a4579182015b828111156156a3578251825591602001919060010190615688565b5b5090506156b1919061579c565b5090565b8280548282559060005260206000209081019282156156f65760005260206000209182015b828111156156f55782548255916001019190600101906156da565b5b509050615703919061579c565b5090565b828054828255906000526020600020908101928215615743579160200282015b82811115615742578251825591602001919060010190615727565b5b509050615750919061579c565b5090565b50805460018160011615610100020316600290046000825580601f1061577a5750615799565b601f016020900490600052602060002090810190615798919061579c565b5b50565b5b808211156157b557600081600090555060010161579d565b509056fe456e756d657261626c655365743a20696e646578206f7574206f6620626f756e64734552433732313a207472616e7366657220746f206e6f6e20455243373231526563656976657220696d706c656d656e7465724552433732313a207472616e7366657220746f20746865207a65726f2061646472657373416464726573733a20696e73756666696369656e742062616c616e636520666f722063616c6c4552433732313a206f70657261746f7220717565727920666f72206e6f6e6578697374656e7420746f6b656e4552433732313a20617070726f76652063616c6c6572206973206e6f74206f776e6572206e6f7220617070726f76656420666f7220616c6c4552433732313a2062616c616e636520717565727920666f7220746865207a65726f20616464726573734552433732313a206f776e657220717565727920666f72206e6f6e6578697374656e7420746f6b656e456e756d657261626c654d61703a20696e646578206f7574206f6620626f756e6473536166654d6174683a206d756c7469706c69636174696f6e206f766572666c6f774552433732313a20617070726f76656420717565727920666f72206e6f6e6578697374656e7420746f6b656e4552433732313a207472616e73666572206f6620746f6b656e2074686174206973206e6f74206f776e4552433732314d657461646174613a2055524920717565727920666f72206e6f6e6578697374656e7420746f6b656e696e73756666696369656e74202042616c616e63652c20756e61626c6520746f207061792074686520726567697374726174696f6e204665654552433732313a20617070726f76616c20746f2063757272656e74206f776e65724552433732313a207472616e736665722063616c6c6572206973206e6f74206f776e6572206e6f7220617070726f766564a2646970667358221220b7067194207b5c139a27b63b818b97c2568e07dfd0ee2f82f0f98a06820d413c64736f6c63430007040033",
  "immutableReferences": {},
  "source": "// SPDX-License-Identifier: MIT\r\npragma solidity >=0.4.22 <0.8.4;\r\nimport \"@openzeppelin/contracts/token/ERC20/ERC20.sol\";\r\nimport \"@openzeppelin/contracts/math/SafeMath.sol\";\r\nimport \"./NftFactory.sol\";\r\n\r\ncontract NftRegistry is NftFactory {\r\n  using SafeMath for uint256;\r\n\r\n  constructor(address _feeAccount) public {\r\n    feeAccount = _feeAccount;\r\n  }\r\n\r\n  /*\r\n   * when you deploy Cifi_Token to Local testNet (Ganache) or to testnet like binance test net take the address of the\r\n   * deployed Cifi_Token and add it below\r\n   * the address below is just a dummy one that we need to change once we deploy the Cifi_Token Contract to the\r\n   * binance main net and take the address of the contract and add it below\r\n   * but for testing purposes just deploy the cifiToken to Ganache and take the address and use it.\r\n   */\r\n\r\n  ERC20 cifiTokenContract = ERC20(0x135a6636C8d1D5099C6a6A1D8D0762C4c9Ed9f09);\r\n  uint256 constant FEE = 10;\r\n\r\n  event RegistryCreated(\r\n    string name,\r\n    string symbol,\r\n    string description,\r\n    address caller\r\n  );\r\n\r\n  function createRegistry(\r\n    string memory name,\r\n    string memory symbol,\r\n    string memory description\r\n  ) public returns (bool) {\r\n    require(msg.sender != address(0), \"Invalid address\");\r\n    require(bytes(name).length != 0, \"name can't be empty\");\r\n    require(bytes(symbol).length != 0, \"symbol can't be empty\");\r\n    require(\r\n      keccak256(bytes(registries[symbol].symbol)) != keccak256(bytes(symbol)),\r\n      \"symbol is already taken\"\r\n    );\r\n    uint256 balaceOfUser = cifiTokenContract.balanceOf(msg.sender);\r\n    uint8 cifiDecimals = cifiTokenContract.decimals();\r\n    uint256 feeAmount = FEE.mul(10**cifiDecimals).div(100);\r\n    require(\r\n      balaceOfUser >= feeAmount,\r\n      \"insufficient  Balance, unable to pay the registration Fee\"\r\n    );\r\n\r\n    cifiTokenContract.transferFrom(msg.sender, feeAccount, feeAmount);\r\n    Registry(name, symbol, description, msg.sender);\r\n\r\n    return true;\r\n  }\r\n\r\n  function balance1() public view returns (uint256) {\r\n    return cifiTokenContract.balanceOf(msg.sender);\r\n  }\r\n\r\n  function getRegistryAddress(string memory symbol)\r\n    public\r\n    view\r\n    returns (address)\r\n  {\r\n    require(\r\n      keccak256(bytes(registries[symbol].symbol)) == keccak256(bytes(symbol)),\r\n      \"symbol is already taken\"\r\n    );\r\n    return registries[symbol].creator;\r\n  }\r\n}\r\n",
  "sourcePath": "C:/Users/Zaid/Desktop/New folder (13)/NFT_Contract_Factory/src/contracts/NftRegistry.sol",
  "compiler": {
    "name": "solc",
    "version": "0.7.4+commit.3f05b770.Emscripten.clang"
  },
  "schemaVersion": "3.3.4",
  "updatedAt": "2021-04-06T21:16:33.351Z",
  "networkType": "ethereum",
  "devdoc": {
    "kind": "dev",
    "methods": {
      "approve(address,uint256)": {
        "details": "See {IERC721-approve}."
      },
      "balanceOf(address)": {
        "details": "See {IERC721-balanceOf}."
      },
      "baseURI()": {
        "details": "Returns the base URI set via {_setBaseURI}. This will be automatically added as a prefix in {tokenURI} to each token's URI, or to the token ID if no specific URI is set for that token ID."
      },
      "getApproved(uint256)": {
        "details": "See {IERC721-getApproved}."
      },
      "isApprovedForAll(address,address)": {
        "details": "See {IERC721-isApprovedForAll}."
      },
      "name()": {
        "details": "See {IERC721Metadata-name}."
      },
      "ownerOf(uint256)": {
        "details": "See {IERC721-ownerOf}."
      },
      "setApprovalForAll(address,bool)": {
        "details": "See {IERC721-setApprovalForAll}."
      },
      "supportsInterface(bytes4)": {
        "details": "See {IERC165-supportsInterface}. Time complexity O(1), guaranteed to always use less than 30 000 gas."
      },
      "symbol()": {
        "details": "See {IERC721Metadata-symbol}."
      },
      "tokenByIndex(uint256)": {
        "details": "See {IERC721Enumerable-tokenByIndex}."
      },
      "tokenOfOwnerByIndex(address,uint256)": {
        "details": "See {IERC721Enumerable-tokenOfOwnerByIndex}."
      },
      "tokenURI(uint256)": {
        "details": "See {IERC721Metadata-tokenURI}."
      },
      "totalSupply()": {
        "details": "See {IERC721Enumerable-totalSupply}."
      },
      "transferFrom(address,address,uint256)": {
        "details": "See {IERC721-transferFrom}."
      }
    },
    "version": 1
  },
  "userdoc": {
    "kind": "user",
    "methods": {
      "Mint(string)": {
        "notice": "this function allows to mint more of your NFT  "
      },
      "Registry(string,string,string,address)": {
        "notice": "a registry function that iis been called by the NFT registry smart contract"
      },
      "approveAll(address)": {
        "notice": "this function allows to approve all the tokens the address owns at once"
      },
      "approveMany(address,uint256[])": {
        "notice": "this function allows to approve more than one token id at once"
      },
      "assignDataToToken(uint256,string)": {
        "notice": "this function assignes the URI to automaticlay add the id number at the end of the URI"
      },
      "burn(string,uint256)": {
        "notice": "this function allows you burn your NFT  "
      },
      "getMetadataAtID(uint256)": {
        "notice": "this function helps with queries to Fetch the metadata for a givine token id"
      },
      "getTokenOwner(uint256)": {
        "notice": "this function helps with queries to Fetch the owner address of the token by givine token id"
      },
      "safeTransferFrom(address,address,uint256)": {
        "notice": "this overload function allows to transfer tokens and updates all the mapping queries(without filling the URI)  "
      },
      "safeTransferFrom(address,address,uint256,bytes)": {
        "notice": "this overload function allows to transfer tokens and updates all the mapping queries(with filling the URI)  "
      },
      "tokensOf(address)": {
        "notice": "this function helps with queries to Fetch all the tokens that the address owns by givine address"
      }
    },
    "version": 1
  }
}