{
  "contractName": "RoyaltyFactory",
  "abi": [
    {
      "inputs": [],
      "stateMutability": "nonpayable",
      "type": "constructor"
    },
    {
      "inputs": [
        {
          "internalType": "bytes4",
          "name": "interfaceId",
          "type": "bytes4"
        }
      ],
      "name": "supportsInterface",
      "outputs": [
        {
          "internalType": "bool",
          "name": "",
          "type": "bool"
        }
      ],
      "stateMutability": "view",
      "type": "function"
    },
    {
      "inputs": [
        {
          "internalType": "uint256",
          "name": "tokenID",
          "type": "uint256"
        }
      ],
      "name": "getRoyaltyFee",
      "outputs": [
        {
          "internalType": "uint256",
          "name": "",
          "type": "uint256"
        }
      ],
      "stateMutability": "view",
      "type": "function"
    },
    {
      "inputs": [
        {
          "internalType": "uint256",
          "name": "tokenID",
          "type": "uint256"
        }
      ],
      "name": "getOriginalCreator",
      "outputs": [
        {
          "internalType": "address",
          "name": "",
          "type": "address"
        }
      ],
      "stateMutability": "view",
      "type": "function"
    }
  ],
  "bytecode": "0x608060405234801561001057600080fd5b506100276301ffc9a760e01b61004260201b60201c565b61003d630760a14c60e01b61004260201b60201c565b61014a565b63ffffffff60e01b817bffffffffffffffffffffffffffffffffffffffffffffffffffffffff191614156100de576040517f08c379a000000000000000000000000000000000000000000000000000000000815260040180806020018281038252601c8152602001807f4552433136353a20696e76616c696420696e746572666163652069640000000081525060200191505060405180910390fd5b6001600080837bffffffffffffffffffffffffffffffffffffffffffffffffffffffff19167bffffffffffffffffffffffffffffffffffffffffffffffffffffffff1916815260200190815260200160002060006101000a81548160ff02191690831515021790555050565b61023a806101596000396000f3fe608060405234801561001057600080fd5b50600436106100415760003560e01c806301ffc9a7146100465780639e4c0141146100a9578063caa47fbf146100eb575b600080fd5b6100916004803603602081101561005c57600080fd5b8101908080357bffffffffffffffffffffffffffffffffffffffffffffffffffffffff19169060200190929190505050610143565b60405180821515815260200191505060405180910390f35b6100d5600480360360208110156100bf57600080fd5b81019080803590602001909291905050506101aa565b6040518082815260200191505060405180910390f35b6101176004803603602081101561010157600080fd5b81019080803590602001909291905050506101c7565b604051808273ffffffffffffffffffffffffffffffffffffffff16815260200191505060405180910390f35b6000806000837bffffffffffffffffffffffffffffffffffffffffffffffffffffffff19167bffffffffffffffffffffffffffffffffffffffffffffffffffffffff1916815260200190815260200160002060009054906101000a900460ff169050919050565b600060026000838152602001908152602001600020549050919050565b60006001600083815260200190815260200160002060009054906101000a900473ffffffffffffffffffffffffffffffffffffffff16905091905056fea2646970667358221220155a8a12a9f0fd8499f13795d2324c34cdb574a4f15b8d697c24aaec69525eb164736f6c63430007040033",
  "immutableReferences": {},
  "source": "// SPDX-License-Identifier: MIT\r\npragma solidity >=0.4.22 <0.8.4;\r\nimport \"@openzeppelin/contracts/introspection/ERC165.sol\";\r\n\r\ncontract RoyaltyFactory is ERC165 {\r\n    mapping(uint256 => address) _originalCreators;\r\n    mapping(uint256 => uint256) _royaltyFees; // 100% = 1000000, 1% = 10000\r\n    /*\r\n     *     bytes4(keccak256('setRoyaltyFee(uint256, uint256)')) == 0x4e30ff2d\r\n     *     bytes4(keccak256('setOriginalCreator(uint256, uint256)')) == 0x1db8209f\r\n     *     bytes4(keccak256('getRoyaltyFee(uint256)')) == 0x9e4c0141\r\n     *     bytes4(keccak256('getOriginalCreator(uint256)')) == 0xcaa47fbf\r\n     *\r\n     *     => 0x4e30ff2d ^ 0x1db8209f ^ 0x9e4c0141 ^ 0xcaa47fbf == 0x0760a14c\r\n     */\r\n    bytes4 private constant _INTERFACE_ID_ROYALTY = 0x0760a14c;\r\n\r\n    constructor() {\r\n        _registerInterface(_INTERFACE_ID_ROYALTY);\r\n    }\r\n\r\n    function setRoyaltyFee(uint256 tokenID, uint256 fee) internal {\r\n        _royaltyFees[tokenID] = fee;\r\n    }\r\n\r\n    function setOriginalCreator(uint256 tokenID, address creator) internal {\r\n        _originalCreators[tokenID] = creator;\r\n    }\r\n\r\n    function getRoyaltyFee(uint256 tokenID)\r\n        public\r\n        view\r\n        virtual\r\n        returns (uint256)\r\n    {\r\n        return _royaltyFees[tokenID];\r\n    }\r\n\r\n    function getOriginalCreator(uint256 tokenID)\r\n        public\r\n        view\r\n        virtual\r\n        returns (address)\r\n    {\r\n        return _originalCreators[tokenID];\r\n    }\r\n}\r\n",
  "sourcePath": "F:\\MyWork\\LianHe\\Citizen\\ArtGallery\\src\\contracts\\interface\\RoyaltyFactory.sol",
  "compiler": {
    "name": "solc",
    "version": "0.7.4+commit.3f05b770.Emscripten.clang"
  },
  "schemaVersion": "3.3.4",
  "updatedAt": "2021-06-23T01:36:18.495Z",
  "devdoc": {
    "kind": "dev",
    "methods": {
      "supportsInterface(bytes4)": {
        "details": "See {IERC165-supportsInterface}. Time complexity O(1), guaranteed to always use less than 30 000 gas."
      }
    },
    "version": 1
  },
  "userdoc": {
    "kind": "user",
    "methods": {},
    "version": 1
  }
}