{
  "contractName": "TokenizedArt",
  "abi": [
    {
      "inputs": [],
      "stateMutability": "nonpayable",
      "type": "constructor"
    },
    {
      "anonymous": false,
      "inputs": [
        {
          "indexed": true,
          "internalType": "address",
          "name": "owner",
          "type": "address"
        },
        {
          "indexed": true,
          "internalType": "address",
          "name": "approved",
          "type": "address"
        },
        {
          "indexed": true,
          "internalType": "uint256",
          "name": "tokenId",
          "type": "uint256"
        }
      ],
      "name": "Approval",
      "type": "event"
    },
    {
      "anonymous": false,
      "inputs": [
        {
          "indexed": true,
          "internalType": "address",
          "name": "owner",
          "type": "address"
        },
        {
          "indexed": true,
          "internalType": "address",
          "name": "operator",
          "type": "address"
        },
        {
          "indexed": false,
          "internalType": "bool",
          "name": "approved",
          "type": "bool"
        }
      ],
      "name": "ApprovalForAll",
      "type": "event"
    },
    {
      "anonymous": false,
      "inputs": [
        {
          "indexed": true,
          "internalType": "address",
          "name": "previousOwner",
          "type": "address"
        },
        {
          "indexed": true,
          "internalType": "address",
          "name": "newOwner",
          "type": "address"
        }
      ],
      "name": "GovernanceTransferred",
      "type": "event"
    },
    {
      "anonymous": false,
      "inputs": [
        {
          "indexed": false,
          "internalType": "string",
          "name": "url",
          "type": "string"
        },
        {
          "indexed": false,
          "internalType": "uint256",
          "name": "tokenId",
          "type": "uint256"
        },
        {
          "indexed": false,
          "internalType": "string",
          "name": "symbol",
          "type": "string"
        },
        {
          "indexed": false,
          "internalType": "uint256",
          "name": "amount",
          "type": "uint256"
        }
      ],
      "name": "Mint",
      "type": "event"
    },
    {
      "anonymous": false,
      "inputs": [
        {
          "indexed": true,
          "internalType": "address",
          "name": "from",
          "type": "address"
        },
        {
          "indexed": true,
          "internalType": "address",
          "name": "to",
          "type": "address"
        },
        {
          "indexed": true,
          "internalType": "uint256",
          "name": "tokenId",
          "type": "uint256"
        }
      ],
      "name": "Transfer",
      "type": "event"
    },
    {
      "inputs": [],
      "name": "_governance",
      "outputs": [
        {
          "internalType": "address",
          "name": "",
          "type": "address"
        }
      ],
      "stateMutability": "view",
      "type": "function"
    },
    {
      "inputs": [
        {
          "internalType": "uint256",
          "name": "",
          "type": "uint256"
        }
      ],
      "name": "acceptedTokenSymbols",
      "outputs": [
        {
          "internalType": "string",
          "name": "",
          "type": "string"
        }
      ],
      "stateMutability": "view",
      "type": "function"
    },
    {
      "inputs": [
        {
          "internalType": "address",
          "name": "to",
          "type": "address"
        },
        {
          "internalType": "uint256",
          "name": "tokenId",
          "type": "uint256"
        }
      ],
      "name": "approve",
      "outputs": [],
      "stateMutability": "nonpayable",
      "type": "function"
    },
    {
      "inputs": [
        {
          "internalType": "address",
          "name": "owner",
          "type": "address"
        }
      ],
      "name": "balanceOf",
      "outputs": [
        {
          "internalType": "uint256",
          "name": "",
          "type": "uint256"
        }
      ],
      "stateMutability": "view",
      "type": "function"
    },
    {
      "inputs": [],
      "name": "baseURI",
      "outputs": [
        {
          "internalType": "string",
          "name": "",
          "type": "string"
        }
      ],
      "stateMutability": "view",
      "type": "function"
    },
    {
      "inputs": [],
      "name": "feeAmount",
      "outputs": [
        {
          "internalType": "uint256",
          "name": "",
          "type": "uint256"
        }
      ],
      "stateMutability": "view",
      "type": "function"
    },
    {
      "inputs": [
        {
          "internalType": "uint256",
          "name": "tokenId",
          "type": "uint256"
        }
      ],
      "name": "getApproved",
      "outputs": [
        {
          "internalType": "address",
          "name": "",
          "type": "address"
        }
      ],
      "stateMutability": "view",
      "type": "function"
    },
    {
      "inputs": [
        {
          "internalType": "address",
          "name": "owner",
          "type": "address"
        },
        {
          "internalType": "address",
          "name": "operator",
          "type": "address"
        }
      ],
      "name": "isApprovedForAll",
      "outputs": [
        {
          "internalType": "bool",
          "name": "",
          "type": "bool"
        }
      ],
      "stateMutability": "view",
      "type": "function"
    },
    {
      "inputs": [],
      "name": "name",
      "outputs": [
        {
          "internalType": "string",
          "name": "",
          "type": "string"
        }
      ],
      "stateMutability": "view",
      "type": "function"
    },
    {
      "inputs": [
        {
          "internalType": "uint256",
          "name": "tokenId",
          "type": "uint256"
        }
      ],
      "name": "ownerOf",
      "outputs": [
        {
          "internalType": "address",
          "name": "",
          "type": "address"
        }
      ],
      "stateMutability": "view",
      "type": "function"
    },
    {
      "inputs": [
        {
          "internalType": "address",
          "name": "from",
          "type": "address"
        },
        {
          "internalType": "address",
          "name": "to",
          "type": "address"
        },
        {
          "internalType": "uint256",
          "name": "tokenId",
          "type": "uint256"
        }
      ],
      "name": "safeTransferFrom",
      "outputs": [],
      "stateMutability": "nonpayable",
      "type": "function"
    },
    {
      "inputs": [
        {
          "internalType": "address",
          "name": "from",
          "type": "address"
        },
        {
          "internalType": "address",
          "name": "to",
          "type": "address"
        },
        {
          "internalType": "uint256",
          "name": "tokenId",
          "type": "uint256"
        },
        {
          "internalType": "bytes",
          "name": "_data",
          "type": "bytes"
        }
      ],
      "name": "safeTransferFrom",
      "outputs": [],
      "stateMutability": "nonpayable",
      "type": "function"
    },
    {
      "inputs": [
        {
          "internalType": "address",
          "name": "operator",
          "type": "address"
        },
        {
          "internalType": "bool",
          "name": "approved",
          "type": "bool"
        }
      ],
      "name": "setApprovalForAll",
      "outputs": [],
      "stateMutability": "nonpayable",
      "type": "function"
    },
    {
      "inputs": [
        {
          "internalType": "address",
          "name": "governance",
          "type": "address"
        }
      ],
      "name": "setGovernance",
      "outputs": [],
      "stateMutability": "nonpayable",
      "type": "function"
    },
    {
      "inputs": [
        {
          "internalType": "bytes4",
          "name": "interfaceId",
          "type": "bytes4"
        }
      ],
      "name": "supportsInterface",
      "outputs": [
        {
          "internalType": "bool",
          "name": "",
          "type": "bool"
        }
      ],
      "stateMutability": "view",
      "type": "function"
    },
    {
      "inputs": [],
      "name": "symbol",
      "outputs": [
        {
          "internalType": "string",
          "name": "",
          "type": "string"
        }
      ],
      "stateMutability": "view",
      "type": "function"
    },
    {
      "inputs": [
        {
          "internalType": "uint256",
          "name": "index",
          "type": "uint256"
        }
      ],
      "name": "tokenByIndex",
      "outputs": [
        {
          "internalType": "uint256",
          "name": "",
          "type": "uint256"
        }
      ],
      "stateMutability": "view",
      "type": "function"
    },
    {
      "inputs": [
        {
          "internalType": "address",
          "name": "owner",
          "type": "address"
        },
        {
          "internalType": "uint256",
          "name": "index",
          "type": "uint256"
        }
      ],
      "name": "tokenOfOwnerByIndex",
      "outputs": [
        {
          "internalType": "uint256",
          "name": "",
          "type": "uint256"
        }
      ],
      "stateMutability": "view",
      "type": "function"
    },
    {
      "inputs": [
        {
          "internalType": "uint256",
          "name": "tokenId",
          "type": "uint256"
        }
      ],
      "name": "tokenURI",
      "outputs": [
        {
          "internalType": "string",
          "name": "",
          "type": "string"
        }
      ],
      "stateMutability": "view",
      "type": "function"
    },
    {
      "inputs": [],
      "name": "totalSupply",
      "outputs": [
        {
          "internalType": "uint256",
          "name": "",
          "type": "uint256"
        }
      ],
      "stateMutability": "view",
      "type": "function"
    },
    {
      "inputs": [
        {
          "internalType": "address",
          "name": "from",
          "type": "address"
        },
        {
          "internalType": "address",
          "name": "to",
          "type": "address"
        },
        {
          "internalType": "uint256",
          "name": "tokenId",
          "type": "uint256"
        }
      ],
      "name": "transferFrom",
      "outputs": [],
      "stateMutability": "nonpayable",
      "type": "function"
    },
    {
      "inputs": [
        {
          "internalType": "string",
          "name": "baseURI",
          "type": "string"
        }
      ],
      "name": "setURIPrefix",
      "outputs": [],
      "stateMutability": "nonpayable",
      "type": "function"
    },
    {
      "inputs": [
        {
          "internalType": "uint256",
          "name": "id",
          "type": "uint256"
        },
        {
          "internalType": "string",
          "name": "uri",
          "type": "string"
        }
      ],
      "name": "assignDataToToken",
      "outputs": [],
      "stateMutability": "nonpayable",
      "type": "function"
    },
    {
      "inputs": [
        {
          "internalType": "address",
          "name": "owner",
          "type": "address"
        }
      ],
      "name": "tokensOfOwner",
      "outputs": [
        {
          "internalType": "uint256[]",
          "name": "",
          "type": "uint256[]"
        }
      ],
      "stateMutability": "view",
      "type": "function"
    },
    {
      "inputs": [
        {
          "internalType": "address",
          "name": "_to",
          "type": "address"
        },
        {
          "internalType": "uint256[]",
          "name": "_tokenIds",
          "type": "uint256[]"
        }
      ],
      "name": "approveMany",
      "outputs": [],
      "stateMutability": "nonpayable",
      "type": "function"
    },
    {
      "inputs": [
        {
          "internalType": "address",
          "name": "_to",
          "type": "address"
        }
      ],
      "name": "approveAll",
      "outputs": [],
      "stateMutability": "nonpayable",
      "type": "function"
    },
    {
      "inputs": [
        {
          "internalType": "string",
          "name": "url",
          "type": "string"
        },
        {
          "internalType": "string",
          "name": "tokenSymbol",
          "type": "string"
        },
        {
          "internalType": "uint256",
          "name": "amount",
          "type": "uint256"
        }
      ],
      "name": "mint",
      "outputs": [],
      "stateMutability": "nonpayable",
      "type": "function"
    },
    {
      "inputs": [
        {
          "internalType": "uint256",
          "name": "_id",
          "type": "uint256"
        }
      ],
      "name": "burn",
      "outputs": [
        {
          "internalType": "bool",
          "name": "",
          "type": "bool"
        }
      ],
      "stateMutability": "nonpayable",
      "type": "function"
    },
    {
      "inputs": [
        {
          "internalType": "address",
          "name": "acceptedTokenAddress",
          "type": "address"
        },
        {
          "internalType": "string",
          "name": "acceptedTokenSymbol",
          "type": "string"
        }
      ],
      "name": "addAcceptedToken",
      "outputs": [
        {
          "internalType": "bool",
          "name": "",
          "type": "bool"
        }
      ],
      "stateMutability": "nonpayable",
      "type": "function"
    }
  ],
  "bytecode": "0x608060405273e56ab536c90e5a8f06524ea639be9cb3589b8146600b60006101000a81548173ffffffffffffffffffffffffffffffffffffffff021916908373ffffffffffffffffffffffffffffffffffffffff1602179055506064600c55600b60009054906101000a900473ffffffffffffffffffffffffffffffffffffffff1673ffffffffffffffffffffffffffffffffffffffff1663313ce5676040518163ffffffff1660e01b815260040160206040518083038186803b158015620000c757600080fd5b505afa158015620000dc573d6000803e3d6000fd5b505050506040513d601f19601f82011682018060405250810190620001029190620006a7565b600d60006101000a81548160ff021916908360ff16021790555062000167606462000153600d60009054906101000a900460ff1660ff16600a0a600c546200039760201b62001e141790919060201c565b6200042260201b62001e9a1790919060201c565b600e556000600f60006101000a81548173ffffffffffffffffffffffffffffffffffffffff021916908373ffffffffffffffffffffffffffffffffffffffff160217905550348015620001b957600080fd5b506040518060400160405280600c81526020017f546f6b656e697a656441727400000000000000000000000000000000000000008152506040518060400160405280600581526020017f63504f57410000000000000000000000000000000000000000000000000000008152506200023e6301ffc9a760e01b620004ad60201b60201c565b816006908051906020019062000256929190620005da565b5080600790805190602001906200026f929190620005da565b50620002886380ac58cd60e01b620004ad60201b60201c565b620002a0635b5e139f60e01b620004ad60201b60201c565b620002b863780e9d6360e01b620004ad60201b60201c565b505032600a60006101000a81548173ffffffffffffffffffffffffffffffffffffffff021916908373ffffffffffffffffffffffffffffffffffffffff1602179055506200030b620005b660201b60201c565b600f60006101000a81548173ffffffffffffffffffffffffffffffffffffffff021916908373ffffffffffffffffffffffffffffffffffffffff160217905550620003916040518060400160405280601581526020017f68747470733a2f2f697066732e696f2f697066732f0000000000000000000000815250620005be60201b60201c565b620006fa565b600080831415620003ac57600090506200041c565b6000828402905082848281620003be57fe5b041462000417576040517f08c379a000000000000000000000000000000000000000000000000000000000815260040180806020018281038252602181526020018062004b6b6021913960400191505060405180910390fd5b809150505b92915050565b60008082116200049a576040517f08c379a000000000000000000000000000000000000000000000000000000000815260040180806020018281038252601a8152602001807f536166654d6174683a206469766973696f6e206279207a65726f00000000000081525060200191505060405180910390fd5b818381620004a457fe5b04905092915050565b63ffffffff60e01b817bffffffffffffffffffffffffffffffffffffffffffffffffffffffff191614156200054a576040517f08c379a000000000000000000000000000000000000000000000000000000000815260040180806020018281038252601c8152602001807f4552433136353a20696e76616c696420696e746572666163652069640000000081525060200191505060405180910390fd5b6001600080837bffffffffffffffffffffffffffffffffffffffffffffffffffffffff19167bffffffffffffffffffffffffffffffffffffffffffffffffffffffff1916815260200190815260200160002060006101000a81548160ff02191690831515021790555050565b600033905090565b8060099080519060200190620005d6929190620005da565b5050565b828054600181600116156101000203166002900490600052602060002090601f0160209004810192826200061257600085556200065e565b82601f106200062d57805160ff19168380011785556200065e565b828001600101855582156200065e579182015b828111156200065d57825182559160200191906001019062000640565b5b5090506200066d919062000671565b5090565b5b808211156200068c57600081600090555060010162000672565b5090565b600081519050620006a181620006e0565b92915050565b600060208284031215620006ba57600080fd5b6000620006ca8482850162000690565b91505092915050565b600060ff82169050919050565b620006eb81620006d3565b8114620006f757600080fd5b50565b614461806200070a6000396000f3fe608060405234801561001057600080fd5b50600436106101cf5760003560e01c80636352211e1161010457806399bb8134116100a2578063c87b56dd11610071578063c87b56dd14610564578063d41d9a2714610594578063e69c20cf146105b0578063e985e9c5146105cc576101cf565b806399bb8134146104f4578063a22cb46514610510578063ab033ea91461052c578063b88d4fde14610548576101cf565b80636c0360eb116100de5780636c0360eb1461045857806370a08231146104765780638462151c146104a657806395d89b41146104d6576101cf565b80636352211e146103ee57806369e154041461041e5780636bff2c241461043c576101cf565b80631c2f3e3d11610171578063304149d81161014b578063304149d81461034257806342842e0e1461037257806342966c681461038e5780634f6ccce7146103be576101cf565b80631c2f3e3d146102d857806323b872dd146102f65780632f745c5914610312576101cf565b8063081812fc116101ad578063081812fc1461023e578063095ea7b31461026e5780631272a9131461028a57806318160ddd146102ba576101cf565b806301ffc9a7146101d45780630621472c1461020457806306fdde0314610220575b600080fd5b6101ee60048036038101906101e991906139fb565b6105fc565b6040516101fb9190613e0e565b60405180910390f35b61021e60048036038101906102199190613783565b610663565b005b6102286106ab565b6040516102359190613e29565b60405180910390f35b61025860048036038101906102539190613ae4565b61074d565b6040516102659190613d63565b60405180910390f35b61028860048036038101906102839190613996565b6107e8565b005b6102a4600480360381019061029f9190613ae4565b61092c565b6040516102b19190613e29565b60405180910390f35b6102c26109e8565b6040516102cf9190613efe565b60405180910390f35b6102e06109f9565b6040516102ed9190613d63565b60405180910390f35b610310600480360381019061030b91906137e8565b610a1f565b005b61032c60048036038101906103279190613996565b610a95565b6040516103399190613efe565b60405180910390f35b61035c60048036038101906103579190613942565b610af0565b6040516103699190613e0e565b60405180910390f35b61038c600480360381019061038791906137e8565b610c58565b005b6103a860048036038101906103a39190613ae4565b610c78565b6040516103b59190613e0e565b60405180910390f35b6103d860048036038101906103d39190613ae4565b610e88565b6040516103e59190613efe565b60405180910390f35b61040860048036038101906104039190613ae4565b610eab565b6040516104159190613d63565b60405180910390f35b610426610ee2565b6040516104339190613efe565b60405180910390f35b61045660048036038101906104519190613a24565b610ee8565b005b610460610fb7565b60405161046d9190613e29565b60405180910390f35b610490600480360381019061048b9190613783565b611059565b60405161049d9190613efe565b60405180910390f35b6104c060048036038101906104bb9190613783565b61112e565b6040516104cd9190613dec565b60405180910390f35b6104de61123d565b6040516104eb9190613e29565b60405180910390f35b61050e600480360381019061050991906138b2565b6112df565b005b61052a60048036038101906105259190613906565b61131a565b005b61054660048036038101906105419190613783565b6114d0565b005b610562600480360381019061055d9190613837565b6116f6565b005b61057e60048036038101906105799190613ae4565b61176e565b60405161058b9190613e29565b60405180910390f35b6105ae60048036038101906105a99190613a65565b611a3f565b005b6105ca60048036038101906105c59190613b0d565b611cf5565b005b6105e660048036038101906105e191906137ac565b611d80565b6040516105f39190613e0e565b60405180910390f35b6000806000837bffffffffffffffffffffffffffffffffffffffffffffffffffffffff19167bffffffffffffffffffffffffffffffffffffffffffffffffffffffff1916815260200190815260200160002060009054906101000a900460ff169050919050565b606061066e3361112e565b905060005b81518110156106a6576106998383838151811061068c57fe5b60200260200101516107e8565b8080600101915050610673565b505050565b606060068054600181600116156101000203166002900480601f0160208091040260200160405190810160405280929190818152602001828054600181600116156101000203166002900480156107435780601f1061071857610100808354040283529160200191610743565b820191906000526020600020905b81548152906001019060200180831161072657829003601f168201915b5050505050905090565b600061075882611f23565b6107ad576040517f08c379a000000000000000000000000000000000000000000000000000000000815260040180806020018281038252602c81526020018061432a602c913960400191505060405180910390fd5b6004600083815260200190815260200160002060009054906101000a900473ffffffffffffffffffffffffffffffffffffffff169050919050565b60006107f382610eab565b90508073ffffffffffffffffffffffffffffffffffffffff168373ffffffffffffffffffffffffffffffffffffffff16141561087a576040517f08c379a00000000000000000000000000000000000000000000000000000000081526004018080602001828103825260218152602001806143da6021913960400191505060405180910390fd5b8073ffffffffffffffffffffffffffffffffffffffff16610899611f40565b73ffffffffffffffffffffffffffffffffffffffff1614806108c857506108c7816108c2611f40565b611d80565b5b61091d576040517f08c379a000000000000000000000000000000000000000000000000000000000815260040180806020018281038252603881526020018061425c6038913960400191505060405180910390fd5b6109278383611f48565b505050565b6013818154811061093c57600080fd5b906000526020600020016000915090508054600181600116156101000203166002900480601f0160208091040260200160405190810160405280929190818152602001828054600181600116156101000203166002900480156109e05780601f106109b5576101008083540402835291602001916109e0565b820191906000526020600020905b8154815290600101906020018083116109c357829003601f168201915b505050505081565b60006109f46002612001565b905090565b600a60009054906101000a900473ffffffffffffffffffffffffffffffffffffffff1681565b610a30610a2a611f40565b82612016565b610a85576040517f08c379a00000000000000000000000000000000000000000000000000000000081526004018080602001828103825260318152602001806143fb6031913960400191505060405180910390fd5b610a9083838361210a565b505050565b6000610ae882600160008673ffffffffffffffffffffffffffffffffffffffff1673ffffffffffffffffffffffffffffffffffffffff16815260200190815260200160002061234d90919063ffffffff16565b905092915050565b6000600a60009054906101000a900473ffffffffffffffffffffffffffffffffffffffff1673ffffffffffffffffffffffffffffffffffffffff163373ffffffffffffffffffffffffffffffffffffffff1614610bb5576040517f08c379a000000000000000000000000000000000000000000000000000000000815260040180806020018281038252600e8152602001807f6e6f7420676f7665726e616e636500000000000000000000000000000000000081525060200191505060405180910390fd5b82601283604051610bc69190613d4c565b908152602001604051809103902060006101000a81548173ffffffffffffffffffffffffffffffffffffffff021916908373ffffffffffffffffffffffffffffffffffffffff160217905550601382908060018154018082558091505060019003906000526020600020016000909190919091509080519060200190610c4d9291906134fc565b506001905092915050565b610c73838383604051806020016040528060008152506116f6565b505050565b6000610c8b610c85611f40565b83612016565b610cca576040517f08c379a0000000000000000000000000000000000000000000000000000000008152600401610cc190613ebe565b60405180910390fd5b6000610cd583610eab565b90506060601060008581526020019081526020016000208054600181600116156101000203166002900480601f016020809104026020016040519081016040528092919081815260200182805460018160011615610100020316600290048015610d805780601f10610d5557610100808354040283529160200191610d80565b820191906000526020600020905b815481529060010190602001808311610d6357829003601f168201915b505050505090506000601160008681526020019081526020016000205490506000601283604051610db19190613d4c565b908152602001604051809103902060009054906101000a900473ffffffffffffffffffffffffffffffffffffffff1690508073ffffffffffffffffffffffffffffffffffffffff166323b872dd3086856040518463ffffffff1660e01b8152600401610e1f93929190613db5565b602060405180830381600087803b158015610e3957600080fd5b505af1158015610e4d573d6000803e3d6000fd5b505050506040513d601f19601f82011682018060405250810190610e7191906139d2565b50610e7b86612367565b6001945050505050919050565b600080610e9f8360026124a190919063ffffffff16565b50905080915050919050565b6000610edb826040518060600160405280602981526020016142be6029913960026124cd9092919063ffffffff16565b9050919050565b600e5481565b600a60009054906101000a900473ffffffffffffffffffffffffffffffffffffffff1673ffffffffffffffffffffffffffffffffffffffff163373ffffffffffffffffffffffffffffffffffffffff1614610fab576040517f08c379a000000000000000000000000000000000000000000000000000000000815260040180806020018281038252600e8152602001807f6e6f7420676f7665726e616e636500000000000000000000000000000000000081525060200191505060405180910390fd5b610fb4816124ec565b50565b606060098054600181600116156101000203166002900480601f01602080910402602001604051908101604052809291908181526020018280546001816001161561010002031660029004801561104f5780601f106110245761010080835404028352916020019161104f565b820191906000526020600020905b81548152906001019060200180831161103257829003601f168201915b5050505050905090565b60008073ffffffffffffffffffffffffffffffffffffffff168273ffffffffffffffffffffffffffffffffffffffff1614156110e0576040517f08c379a000000000000000000000000000000000000000000000000000000000815260040180806020018281038252602a815260200180614294602a913960400191505060405180910390fd5b611127600160008473ffffffffffffffffffffffffffffffffffffffff1673ffffffffffffffffffffffffffffffffffffffff168152602001908152602001600020612506565b9050919050565b6060600073ffffffffffffffffffffffffffffffffffffffff168273ffffffffffffffffffffffffffffffffffffffff1614156111a0576040517f08c379a000000000000000000000000000000000000000000000000000000000815260040161119790613e9e565b60405180910390fd5b60006111ab83611059565b905060608167ffffffffffffffff811180156111c657600080fd5b506040519080825280602002602001820160405280156111f55781602001602082028036833780820191505090505b50905060005b828110156112325761120d8582610a95565b82828151811061121957fe5b60200260200101818152505080806001019150506111fb565b508092505050919050565b606060078054600181600116156101000203166002900480601f0160208091040260200160405190810160405280929190818152602001828054600181600116156101000203166002900480156112d55780601f106112aa576101008083540402835291602001916112d5565b820191906000526020600020905b8154815290600101906020018083116112b857829003601f168201915b5050505050905090565b60005b815181101561131557611308838383815181106112fb57fe5b60200260200101516107e8565b80806001019150506112e2565b505050565b611322611f40565b73ffffffffffffffffffffffffffffffffffffffff168273ffffffffffffffffffffffffffffffffffffffff1614156113c3576040517f08c379a00000000000000000000000000000000000000000000000000000000081526004018080602001828103825260198152602001807f4552433732313a20617070726f766520746f2063616c6c65720000000000000081525060200191505060405180910390fd5b80600560006113d0611f40565b73ffffffffffffffffffffffffffffffffffffffff1673ffffffffffffffffffffffffffffffffffffffff16815260200190815260200160002060008473ffffffffffffffffffffffffffffffffffffffff1673ffffffffffffffffffffffffffffffffffffffff16815260200190815260200160002060006101000a81548160ff0219169083151502179055508173ffffffffffffffffffffffffffffffffffffffff1661147d611f40565b73ffffffffffffffffffffffffffffffffffffffff167f17307eab39ab6107e8899845ad3d59bd9653f200f220920489ca2b5937696c318360405180821515815260200191505060405180910390a35050565b600a60009054906101000a900473ffffffffffffffffffffffffffffffffffffffff1673ffffffffffffffffffffffffffffffffffffffff163373ffffffffffffffffffffffffffffffffffffffff1614611593576040517f08c379a000000000000000000000000000000000000000000000000000000000815260040180806020018281038252600e8152602001807f6e6f7420676f7665726e616e636500000000000000000000000000000000000081525060200191505060405180910390fd5b600073ffffffffffffffffffffffffffffffffffffffff168173ffffffffffffffffffffffffffffffffffffffff161415611636576040517f08c379a000000000000000000000000000000000000000000000000000000000815260040180806020018281038252601f8152602001807f6e657720676f7665726e616e636520746865207a65726f20616464726573730081525060200191505060405180910390fd5b8073ffffffffffffffffffffffffffffffffffffffff16600a60009054906101000a900473ffffffffffffffffffffffffffffffffffffffff1673ffffffffffffffffffffffffffffffffffffffff167f5f56bee8cffbe9a78652a74a60705edede02af10b0bbb888ca44b79a0d42ce8060405160405180910390a380600a60006101000a81548173ffffffffffffffffffffffffffffffffffffffff021916908373ffffffffffffffffffffffffffffffffffffffff16021790555050565b611707611701611f40565b83612016565b61175c576040517f08c379a00000000000000000000000000000000000000000000000000000000081526004018080602001828103825260318152602001806143fb6031913960400191505060405180910390fd5b6117688484848461251b565b50505050565b606061177982611f23565b6117ce576040517f08c379a000000000000000000000000000000000000000000000000000000000815260040180806020018281038252602f8152602001806143ab602f913960400191505060405180910390fd5b6060600860008481526020019081526020016000208054600181600116156101000203166002900480601f0160208091040260200160405190810160405280929190818152602001828054600181600116156101000203166002900480156118775780601f1061184c57610100808354040283529160200191611877565b820191906000526020600020905b81548152906001019060200180831161185a57829003601f168201915b505050505090506060611888610fb7565b905060008151141561189e578192505050611a3a565b60008251111561196f5780826040516020018083805190602001908083835b602083106118e057805182526020820191506020810190506020830392506118bd565b6001836020036101000a03801982511681845116808217855250505050505090500182805190602001908083835b60208310611931578051825260208201915060208101905060208303925061190e565b6001836020036101000a0380198251168184511680821785525050505050509050019250505060405160208183030381529060405292505050611a3a565b806119798561258d565b6040516020018083805190602001908083835b602083106119af578051825260208201915060208101905060208303925061198c565b6001836020036101000a03801982511681845116808217855250505050505090500182805190602001908083835b60208310611a0057805182526020820191506020810190506020830392506119dd565b6001836020036101000a03801982511681845116808217855250505050505090500192505050604051602081830303815290604052925050505b919050565b6000611a5c6001611a4e6109e8565b6126d490919063ffffffff16565b9050611a68338261275c565b611a728185612950565b6000601284604051611a849190613d4c565b908152602001604051809103902060009054906101000a900473ffffffffffffffffffffffffffffffffffffffff169050600b60009054906101000a900473ffffffffffffffffffffffffffffffffffffffff1673ffffffffffffffffffffffffffffffffffffffff168173ffffffffffffffffffffffffffffffffffffffff1614611be157600b60009054906101000a900473ffffffffffffffffffffffffffffffffffffffff1673ffffffffffffffffffffffffffffffffffffffff166323b872dd33600f60009054906101000a900473ffffffffffffffffffffffffffffffffffffffff16600e546040518463ffffffff1660e01b8152600401611b8d93929190613d7e565b602060405180830381600087803b158015611ba757600080fd5b505af1158015611bbb573d6000803e3d6000fd5b505050506040513d601f19601f82011682018060405250810190611bdf91906139d2565b505b8073ffffffffffffffffffffffffffffffffffffffff166323b872dd3330866040518463ffffffff1660e01b8152600401611c1e93929190613d7e565b602060405180830381600087803b158015611c3857600080fd5b505af1158015611c4c573d6000803e3d6000fd5b505050506040513d601f19601f82011682018060405250810190611c7091906139d2565b5083601060008481526020019081526020016000209080519060200190611c989291906134fc565b508260116000848152602001908152602001600020819055507fa7041cb159bfc274377ebd891eb3e918d399c2fdd611c52738b38509ec79965585838686604051611ce69493929190613e4b565b60405180910390a15050505050565b611cfe82610eab565b73ffffffffffffffffffffffffffffffffffffffff16611d1c611f40565b73ffffffffffffffffffffffffffffffffffffffff1614611d72576040517f08c379a0000000000000000000000000000000000000000000000000000000008152600401611d6990613ede565b60405180910390fd5b611d7c8282612950565b5050565b6000600560008473ffffffffffffffffffffffffffffffffffffffff1673ffffffffffffffffffffffffffffffffffffffff16815260200190815260200160002060008373ffffffffffffffffffffffffffffffffffffffff1673ffffffffffffffffffffffffffffffffffffffff16815260200190815260200160002060009054906101000a900460ff16905092915050565b600080831415611e275760009050611e94565b6000828402905082848281611e3857fe5b0414611e8f576040517f08c379a00000000000000000000000000000000000000000000000000000000081526004018080602001828103825260218152602001806143096021913960400191505060405180910390fd5b809150505b92915050565b6000808211611f11576040517f08c379a000000000000000000000000000000000000000000000000000000000815260040180806020018281038252601a8152602001807f536166654d6174683a206469766973696f6e206279207a65726f00000000000081525060200191505060405180910390fd5b818381611f1a57fe5b04905092915050565b6000611f398260026129da90919063ffffffff16565b9050919050565b600033905090565b816004600083815260200190815260200160002060006101000a81548173ffffffffffffffffffffffffffffffffffffffff021916908373ffffffffffffffffffffffffffffffffffffffff160217905550808273ffffffffffffffffffffffffffffffffffffffff16611fbb83610eab565b73ffffffffffffffffffffffffffffffffffffffff167f8c5be1e5ebec7d5bd14f71427d1e84f3dd0314c0f7b2291e5b200ac8c7c3b92560405160405180910390a45050565b600061200f826000016129f4565b9050919050565b600061202182611f23565b612076576040517f08c379a000000000000000000000000000000000000000000000000000000000815260040180806020018281038252602c815260200180614230602c913960400191505060405180910390fd5b600061208183610eab565b90508073ffffffffffffffffffffffffffffffffffffffff168473ffffffffffffffffffffffffffffffffffffffff1614806120f057508373ffffffffffffffffffffffffffffffffffffffff166120d88461074d565b73ffffffffffffffffffffffffffffffffffffffff16145b8061210157506121008185611d80565b5b91505092915050565b8273ffffffffffffffffffffffffffffffffffffffff1661212a82610eab565b73ffffffffffffffffffffffffffffffffffffffff1614612196576040517f08c379a00000000000000000000000000000000000000000000000000000000081526004018080602001828103825260298152602001806143826029913960400191505060405180910390fd5b600073ffffffffffffffffffffffffffffffffffffffff168273ffffffffffffffffffffffffffffffffffffffff16141561221c576040517f08c379a00000000000000000000000000000000000000000000000000000000081526004018080602001828103825260248152602001806141e66024913960400191505060405180910390fd5b612227838383612a05565b612232600082611f48565b61228381600160008673ffffffffffffffffffffffffffffffffffffffff1673ffffffffffffffffffffffffffffffffffffffff168152602001908152602001600020612a0a90919063ffffffff16565b506122d581600160008573ffffffffffffffffffffffffffffffffffffffff1673ffffffffffffffffffffffffffffffffffffffff168152602001908152602001600020612a2490919063ffffffff16565b506122ec81836002612a3e9092919063ffffffff16565b50808273ffffffffffffffffffffffffffffffffffffffff168473ffffffffffffffffffffffffffffffffffffffff167fddf252ad1be2c89b69c2b068fc378daa952ba7f163c4a11628f55a4df523b3ef60405160405180910390a4505050565b600061235c8360000183612a73565b60001c905092915050565b600061237282610eab565b905061238081600084612a05565b61238b600083611f48565b600060086000848152602001908152602001600020805460018160011615610100020316600290049050146123da576008600083815260200190815260200160002060006123d9919061358a565b5b61242b82600160008473ffffffffffffffffffffffffffffffffffffffff1673ffffffffffffffffffffffffffffffffffffffff168152602001908152602001600020612a0a90919063ffffffff16565b50612440826002612af690919063ffffffff16565b5081600073ffffffffffffffffffffffffffffffffffffffff168273ffffffffffffffffffffffffffffffffffffffff167fddf252ad1be2c89b69c2b068fc378daa952ba7f163c4a11628f55a4df523b3ef60405160405180910390a45050565b6000806000806124b48660000186612b10565b915091508160001c8160001c9350935050509250929050565b60006124e0846000018460001b84612ba9565b60001c90509392505050565b80600990805190602001906125029291906134fc565b5050565b600061251482600001612c9f565b9050919050565b61252684848461210a565b61253284848484612cb0565b612587576040517f08c379a00000000000000000000000000000000000000000000000000000000081526004018080602001828103825260328152602001806141b46032913960400191505060405180910390fd5b50505050565b606060008214156125d5576040518060400160405280600181526020017f300000000000000000000000000000000000000000000000000000000000000081525090506126cf565b600082905060005b600082146125ff578080600101915050600a82816125f757fe5b0491506125dd565b60608167ffffffffffffffff8111801561261857600080fd5b506040519080825280601f01601f19166020018201604052801561264b5781602001600182028036833780820191505090505b50905060006001830390508593505b600084146126c757600a848161266c57fe5b0660300160f81b8282806001900393508151811061268657fe5b60200101907effffffffffffffffffffffffffffffffffffffffffffffffffffffffffffff1916908160001a905350600a84816126bf57fe5b04935061265a565b819450505050505b919050565b600080828401905083811015612752576040517f08c379a000000000000000000000000000000000000000000000000000000000815260040180806020018281038252601b8152602001807f536166654d6174683a206164646974696f6e206f766572666c6f77000000000081525060200191505060405180910390fd5b8091505092915050565b600073ffffffffffffffffffffffffffffffffffffffff168273ffffffffffffffffffffffffffffffffffffffff1614156127ff576040517f08c379a00000000000000000000000000000000000000000000000000000000081526004018080602001828103825260208152602001807f4552433732313a206d696e7420746f20746865207a65726f206164647265737381525060200191505060405180910390fd5b61280881611f23565b1561287b576040517f08c379a000000000000000000000000000000000000000000000000000000000815260040180806020018281038252601c8152602001807f4552433732313a20746f6b656e20616c7265616479206d696e7465640000000081525060200191505060405180910390fd5b61288760008383612a05565b6128d881600160008573ffffffffffffffffffffffffffffffffffffffff1673ffffffffffffffffffffffffffffffffffffffff168152602001908152602001600020612a2490919063ffffffff16565b506128ef81836002612a3e9092919063ffffffff16565b50808273ffffffffffffffffffffffffffffffffffffffff16600073ffffffffffffffffffffffffffffffffffffffff167fddf252ad1be2c89b69c2b068fc378daa952ba7f163c4a11628f55a4df523b3ef60405160405180910390a45050565b61295982611f23565b6129ae576040517f08c379a000000000000000000000000000000000000000000000000000000000815260040180806020018281038252602c815260200180614356602c913960400191505060405180910390fd5b806008600084815260200190815260200160002090805190602001906129d59291906134fc565b505050565b60006129ec836000018360001b612ec9565b905092915050565b600081600001805490509050919050565b505050565b6000612a1c836000018360001b612eec565b905092915050565b6000612a36836000018360001b612fd4565b905092915050565b6000612a6a846000018460001b8473ffffffffffffffffffffffffffffffffffffffff1660001b613044565b90509392505050565b600081836000018054905011612ad4576040517f08c379a00000000000000000000000000000000000000000000000000000000081526004018080602001828103825260228152602001806141926022913960400191505060405180910390fd5b826000018281548110612ae357fe5b9060005260206000200154905092915050565b6000612b08836000018360001b613120565b905092915050565b60008082846000018054905011612b72576040517f08c379a00000000000000000000000000000000000000000000000000000000081526004018080602001828103825260228152602001806142e76022913960400191505060405180910390fd5b6000846000018481548110612b8357fe5b906000526020600020906002020190508060000154816001015492509250509250929050565b60008084600101600085815260200190815260200160002054905060008114158390612c70576040517f08c379a00000000000000000000000000000000000000000000000000000000081526004018080602001828103825283818151815260200191508051906020019080838360005b83811015612c35578082015181840152602081019050612c1a565b50505050905090810190601f168015612c625780820380516001836020036101000a031916815260200191505b509250505060405180910390fd5b50846000016001820381548110612c8357fe5b9060005260206000209060020201600101549150509392505050565b600081600001805490509050919050565b6000612cd18473ffffffffffffffffffffffffffffffffffffffff16613239565b612cde5760019050612ec1565b6060612e4863150b7a0260e01b612cf3611f40565b888787604051602401808573ffffffffffffffffffffffffffffffffffffffff1681526020018473ffffffffffffffffffffffffffffffffffffffff16815260200183815260200180602001828103825283818151815260200191508051906020019080838360005b83811015612d77578082015181840152602081019050612d5c565b50505050905090810190601f168015612da45780820380516001836020036101000a031916815260200191505b5095505050505050604051602081830303815290604052907bffffffffffffffffffffffffffffffffffffffffffffffffffffffff19166020820180517bffffffffffffffffffffffffffffffffffffffffffffffffffffffff83818316178352505050506040518060600160405280603281526020016141b4603291398773ffffffffffffffffffffffffffffffffffffffff1661324c9092919063ffffffff16565b90506000818060200190516020811015612e6157600080fd5b8101908080519060200190929190505050905063150b7a0260e01b7bffffffffffffffffffffffffffffffffffffffffffffffffffffffff1916817bffffffffffffffffffffffffffffffffffffffffffffffffffffffff191614925050505b949350505050565b600080836001016000848152602001908152602001600020541415905092915050565b60008083600101600084815260200190815260200160002054905060008114612fc85760006001820390506000600186600001805490500390506000866000018281548110612f3757fe5b9060005260206000200154905080876000018481548110612f5457fe5b9060005260206000200181905550600183018760010160008381526020019081526020016000208190555086600001805480612f8c57fe5b60019003818190600052602060002001600090559055866001016000878152602001908152602001600020600090556001945050505050612fce565b60009150505b92915050565b6000612fe08383613264565b61303957826000018290806001815401808255809150506001900390600052602060002001600090919091909150558260000180549050836001016000848152602001908152602001600020819055506001905061303e565b600090505b92915050565b60008084600101600085815260200190815260200160002054905060008114156130eb57846000016040518060400160405280868152602001858152509080600181540180825580915050600190039060005260206000209060020201600090919091909150600082015181600001556020820151816001015550508460000180549050856001016000868152602001908152602001600020819055506001915050613119565b828560000160018303815481106130fe57fe5b90600052602060002090600202016001018190555060009150505b9392505050565b6000808360010160008481526020019081526020016000205490506000811461322d576000600182039050600060018660000180549050039050600086600001828154811061316b57fe5b906000526020600020906002020190508087600001848154811061318b57fe5b90600052602060002090600202016000820154816000015560018201548160010155905050600183018760010160008360000154815260200190815260200160002081905550866000018054806131de57fe5b6001900381819060005260206000209060020201600080820160009055600182016000905550509055866001016000878152602001908152602001600020600090556001945050505050613233565b60009150505b92915050565b600080823b905060008111915050919050565b606061325b8484600085613287565b90509392505050565b600080836001016000848152602001908152602001600020541415905092915050565b6060824710156132e2576040517f08c379a000000000000000000000000000000000000000000000000000000000815260040180806020018281038252602681526020018061420a6026913960400191505060405180910390fd5b6132eb85613239565b61335d576040517f08c379a000000000000000000000000000000000000000000000000000000000815260040180806020018281038252601d8152602001807f416464726573733a2063616c6c20746f206e6f6e2d636f6e747261637400000081525060200191505060405180910390fd5b600060608673ffffffffffffffffffffffffffffffffffffffff1685876040518082805190602001908083835b602083106133ad578051825260208201915060208101905060208303925061338a565b6001836020036101000a03801982511681845116808217855250505050505090500191505060006040518083038185875af1925050503d806000811461340f576040519150601f19603f3d011682016040523d82523d6000602084013e613414565b606091505b5091509150613424828286613430565b92505050949350505050565b60608315613440578290506134f5565b6000835111156134535782518084602001fd5b816040517f08c379a00000000000000000000000000000000000000000000000000000000081526004018080602001828103825283818151815260200191508051906020019080838360005b838110156134ba57808201518184015260208101905061349f565b50505050905090810190601f1680156134e75780820380516001836020036101000a031916815260200191505b509250505060405180910390fd5b9392505050565b828054600181600116156101000203166002900490600052602060002090601f0160209004810192826135325760008555613579565b82601f1061354b57805160ff1916838001178555613579565b82800160010185558215613579579182015b8281111561357857825182559160200191906001019061355d565b5b50905061358691906135d2565b5090565b50805460018160011615610100020316600290046000825580601f106135b057506135cf565b601f0160209004906000526020600020908101906135ce91906135d2565b5b50565b5b808211156135eb5760008160009055506001016135d3565b5090565b6000813590506135fe81614135565b92915050565b600082601f83011261361557600080fd5b813561362861362382613f4a565b613f19565b9150818183526020840193506020810190508385602084028201111561364d57600080fd5b60005b8381101561367d5781613663888261376e565b845260208401935060208301925050600181019050613650565b5050505092915050565b6000813590506136968161414c565b92915050565b6000815190506136ab8161414c565b92915050565b6000813590506136c081614163565b92915050565b600082601f8301126136d757600080fd5b81356136ea6136e582613f76565b613f19565b9150808252602083016020830185838301111561370657600080fd5b6137118382846140e0565b50505092915050565b600082601f83011261372b57600080fd5b813561373e61373982613fa6565b613f19565b9150808252602083016020830185838301111561375a57600080fd5b6137658382846140e0565b50505092915050565b60008135905061377d8161417a565b92915050565b60006020828403121561379557600080fd5b60006137a3848285016135ef565b91505092915050565b600080604083850312156137bf57600080fd5b60006137cd858286016135ef565b92505060206137de858286016135ef565b9150509250929050565b6000806000606084860312156137fd57600080fd5b600061380b868287016135ef565b935050602061381c868287016135ef565b925050604061382d8682870161376e565b9150509250925092565b6000806000806080858703121561384d57600080fd5b600061385b878288016135ef565b945050602061386c878288016135ef565b935050604061387d8782880161376e565b925050606085013567ffffffffffffffff81111561389a57600080fd5b6138a6878288016136c6565b91505092959194509250565b600080604083850312156138c557600080fd5b60006138d3858286016135ef565b925050602083013567ffffffffffffffff8111156138f057600080fd5b6138fc85828601613604565b9150509250929050565b6000806040838503121561391957600080fd5b6000613927858286016135ef565b925050602061393885828601613687565b9150509250929050565b6000806040838503121561395557600080fd5b6000613963858286016135ef565b925050602083013567ffffffffffffffff81111561398057600080fd5b61398c8582860161371a565b9150509250929050565b600080604083850312156139a957600080fd5b60006139b7858286016135ef565b92505060206139c88582860161376e565b9150509250929050565b6000602082840312156139e457600080fd5b60006139f28482850161369c565b91505092915050565b600060208284031215613a0d57600080fd5b6000613a1b848285016136b1565b91505092915050565b600060208284031215613a3657600080fd5b600082013567ffffffffffffffff811115613a5057600080fd5b613a5c8482850161371a565b91505092915050565b600080600060608486031215613a7a57600080fd5b600084013567ffffffffffffffff811115613a9457600080fd5b613aa08682870161371a565b935050602084013567ffffffffffffffff811115613abd57600080fd5b613ac98682870161371a565b9250506040613ada8682870161376e565b9150509250925092565b600060208284031215613af657600080fd5b6000613b048482850161376e565b91505092915050565b60008060408385031215613b2057600080fd5b6000613b2e8582860161376e565b925050602083013567ffffffffffffffff811115613b4b57600080fd5b613b578582860161371a565b9150509250929050565b6000613b6d8383613d2e565b60208301905092915050565b613b82816140aa565b82525050565b613b9181614036565b82525050565b6000613ba282613fe6565b613bac8185614009565b9350613bb783613fd6565b8060005b83811015613be8578151613bcf8882613b61565b9750613bda83613ffc565b925050600181019050613bbb565b5085935050505092915050565b613bfe81614048565b82525050565b6000613c0f82613ff1565b613c19818561401a565b9350613c298185602086016140ef565b613c3281614124565b840191505092915050565b6000613c4882613ff1565b613c52818561402b565b9350613c628185602086016140ef565b80840191505092915050565b6000613c7b600d8361401a565b91507f696e76616c6964206f776e6572000000000000000000000000000000000000006000830152602082019050919050565b6000613cbb60208361401a565b91507f63616c6c6572206973206e6f74206f776e6572206e6f7220617070726f7665646000830152602082019050919050565b6000613cfb60138361401a565b91507f696e76616c696420746f6b656e206f776e6572000000000000000000000000006000830152602082019050919050565b613d37816140a0565b82525050565b613d46816140a0565b82525050565b6000613d588284613c3d565b915081905092915050565b6000602082019050613d786000830184613b88565b92915050565b6000606082019050613d936000830186613b79565b613da06020830185613b88565b613dad6040830184613d3d565b949350505050565b6000606082019050613dca6000830186613b88565b613dd76020830185613b88565b613de46040830184613d3d565b949350505050565b60006020820190508181036000830152613e068184613b97565b905092915050565b6000602082019050613e236000830184613bf5565b92915050565b60006020820190508181036000830152613e438184613c04565b905092915050565b60006080820190508181036000830152613e658187613c04565b9050613e746020830186613d3d565b8181036040830152613e868185613c04565b9050613e956060830184613d3d565b95945050505050565b60006020820190508181036000830152613eb781613c6e565b9050919050565b60006020820190508181036000830152613ed781613cae565b9050919050565b60006020820190508181036000830152613ef781613cee565b9050919050565b6000602082019050613f136000830184613d3d565b92915050565b6000604051905081810181811067ffffffffffffffff82111715613f4057613f3f614122565b5b8060405250919050565b600067ffffffffffffffff821115613f6557613f64614122565b5b602082029050602081019050919050565b600067ffffffffffffffff821115613f9157613f90614122565b5b601f19601f8301169050602081019050919050565b600067ffffffffffffffff821115613fc157613fc0614122565b5b601f19601f8301169050602081019050919050565b6000819050602082019050919050565b600081519050919050565b600081519050919050565b6000602082019050919050565b600082825260208201905092915050565b600082825260208201905092915050565b600081905092915050565b600061404182614080565b9050919050565b60008115159050919050565b60007fffffffff0000000000000000000000000000000000000000000000000000000082169050919050565b600073ffffffffffffffffffffffffffffffffffffffff82169050919050565b6000819050919050565b60006140b5826140bc565b9050919050565b60006140c7826140ce565b9050919050565b60006140d982614080565b9050919050565b82818337600083830152505050565b60005b8381101561410d5780820151818401526020810190506140f2565b8381111561411c576000848401525b50505050565bfe5b6000601f19601f8301169050919050565b61413e81614036565b811461414957600080fd5b50565b61415581614048565b811461416057600080fd5b50565b61416c81614054565b811461417757600080fd5b50565b614183816140a0565b811461418e57600080fd5b5056fe456e756d657261626c655365743a20696e646578206f7574206f6620626f756e64734552433732313a207472616e7366657220746f206e6f6e20455243373231526563656976657220696d706c656d656e7465724552433732313a207472616e7366657220746f20746865207a65726f2061646472657373416464726573733a20696e73756666696369656e742062616c616e636520666f722063616c6c4552433732313a206f70657261746f7220717565727920666f72206e6f6e6578697374656e7420746f6b656e4552433732313a20617070726f76652063616c6c6572206973206e6f74206f776e6572206e6f7220617070726f76656420666f7220616c6c4552433732313a2062616c616e636520717565727920666f7220746865207a65726f20616464726573734552433732313a206f776e657220717565727920666f72206e6f6e6578697374656e7420746f6b656e456e756d657261626c654d61703a20696e646578206f7574206f6620626f756e6473536166654d6174683a206d756c7469706c69636174696f6e206f766572666c6f774552433732313a20617070726f76656420717565727920666f72206e6f6e6578697374656e7420746f6b656e4552433732314d657461646174613a2055524920736574206f66206e6f6e6578697374656e7420746f6b656e4552433732313a207472616e73666572206f6620746f6b656e2074686174206973206e6f74206f776e4552433732314d657461646174613a2055524920717565727920666f72206e6f6e6578697374656e7420746f6b656e4552433732313a20617070726f76616c20746f2063757272656e74206f776e65724552433732313a207472616e736665722063616c6c6572206973206e6f74206f776e6572206e6f7220617070726f766564a264697066735822122082a082b76f73834ee02c30f3167d915aee079ae57c8066a629671cf657e6176364736f6c63430007040033536166654d6174683a206d756c7469706c69636174696f6e206f766572666c6f77",
  "immutableReferences": {},
  "source": "// SPDX-License-Identifier: MIT\r\npragma solidity >=0.4.22 <0.8.4;\r\npragma experimental ABIEncoderV2;\r\n\r\nimport \"@openzeppelin/contracts/token/ERC721/ERC721.sol\";\r\nimport \"@openzeppelin/contracts/token/ERC20/ERC20.sol\";\r\nimport \"@openzeppelin/contracts/math/SafeMath.sol\";\r\nimport \"./library/Governance.sol\";\r\n\r\ncontract TokenizedArt is ERC721, Governance {\r\n    using SafeMath for uint256;\r\n\r\n    ERC20 cifiTokenContractTest =\r\n        ERC20(0xe56aB536c90E5A8f06524EA639bE9cB3589B8146);\r\n    uint256 FEE = 100;\r\n    uint8 cifiDecimals = cifiTokenContractTest.decimals();\r\n    uint256 public feeAmount = FEE.mul(10**cifiDecimals).div(100);\r\n\r\n    address feeWallet = address(0x000000000000000000000000);\r\n\r\n    // Mapping from owner to list of owned token IDs\r\n\r\n    // Metadata is a URL that points to a json dictionary\r\n    mapping(uint256 => string) tokenID_symbol;\r\n    mapping(uint256 => uint256) tokenID_amount;\r\n\r\n    mapping(string => address) acceptedTokens;\r\n\r\n    string[] public acceptedTokenSymbols;\r\n\r\n    event Mint(string url, uint256 tokenId, string symbol, uint256 amount);\r\n\r\n    /**\r\n     * a gallery function that is been called by the ART gallery smart contract\r\n     */\r\n\r\n    constructor() ERC721(\"TokenizedArt\", \"cPOWA\") {\r\n        feeWallet = _msgSender();\r\n        _setBaseURI(\"https://ipfs.io/ipfs/\");\r\n    }\r\n\r\n    function setURIPrefix(string memory baseURI) public onlyGovernance {\r\n        _setBaseURI(baseURI);\r\n    }\r\n\r\n    /**\r\n     * this function assignes the URI to automatically add the id number at the end of the URI\r\n     */\r\n    function assignDataToToken(uint256 id, string memory uri) public {\r\n        require(_msgSender() == ownerOf(id), \"invalid token owner\");\r\n        _setTokenURI(id, uri);\r\n    }\r\n\r\n    /**\r\n     * this function helps with queries to Fetch all the tokens that the address owns by givine address\r\n     */\r\n    function tokensOfOwner(address owner)\r\n        public\r\n        view\r\n        returns (uint256[] memory)\r\n    {\r\n        require(owner != address(0), \"invalid owner\");\r\n        uint256 length = balanceOf(owner);\r\n        uint256[] memory tokens = new uint256[](length);\r\n        for (uint256 i = 0; i < length; i++) {\r\n            tokens[i] = tokenOfOwnerByIndex(owner, i);\r\n        }\r\n        return tokens;\r\n    }\r\n\r\n    /**\r\n     * this function allows to approve more than one token id at once\r\n     */\r\n    function approveMany(address _to, uint256[] memory _tokenIds) public {\r\n        /* Allows bulk-approval of many tokens. This function is useful for\r\n       exchanges where users can make a single tx to enable the call of\r\n       transferFrom for those tokens by an exchange contract. */\r\n        for (uint256 i = 0; i < _tokenIds.length; i++) {\r\n            // approve handles the check for if one who is approving is the owner.\r\n            approve(_to, _tokenIds[i]);\r\n        }\r\n    }\r\n\r\n    /**\r\n     * this function allows to approve all the tokens the address owns at once\r\n     */\r\n    function approveAll(address _to) public {\r\n        uint256[] memory tokens = tokensOfOwner(msg.sender);\r\n        for (uint256 t = 0; t < tokens.length; t++) {\r\n            approve(_to, tokens[t]);\r\n        }\r\n    }\r\n\r\n    /**\r\n     * this function allows to mint more of your ART\r\n     */\r\n    function mint(\r\n        string memory url,\r\n        string memory tokenSymbol,\r\n        uint256 amount\r\n    ) public {\r\n        uint256 currentTokenCount = totalSupply().add(1);\r\n        // The index of the newest token is at the # totalTokens.\r\n        _mint(msg.sender, currentTokenCount);\r\n        _setTokenURI(currentTokenCount, url);\r\n        ERC20 acceptedToken = ERC20(acceptedTokens[tokenSymbol]);\r\n        if (acceptedToken != cifiTokenContractTest) {\r\n            cifiTokenContractTest.transferFrom(\r\n                msg.sender,\r\n                feeWallet,\r\n                feeAmount\r\n            );\r\n        }\r\n        acceptedToken.transferFrom(msg.sender, address(this), amount);\r\n        tokenID_symbol[currentTokenCount] = tokenSymbol;\r\n        tokenID_amount[currentTokenCount] = amount;\r\n        emit Mint(url, currentTokenCount, tokenSymbol, amount);\r\n    }\r\n\r\n    /**\r\n     * this function allows you burn your NFT\r\n     */\r\n    function burn(uint256 _id) public returns (bool) {\r\n        require(\r\n            _isApprovedOrOwner(_msgSender(), _id),\r\n            \"caller is not owner nor approved\"\r\n        );\r\n        address owner = ownerOf(_id);\r\n        string memory tokenSymbol = tokenID_symbol[_id];\r\n        uint256 amount = tokenID_amount[_id];\r\n        ERC20 acceptedToken = ERC20(acceptedTokens[tokenSymbol]);\r\n        acceptedToken.transferFrom(address(this), owner, amount);\r\n        _burn(_id);\r\n        return true;\r\n    }\r\n\r\n    function addAcceptedToken(\r\n        address acceptedTokenAddress,\r\n        string memory acceptedTokenSymbol\r\n    ) public onlyGovernance returns (bool) {\r\n        acceptedTokens[acceptedTokenSymbol] = acceptedTokenAddress;\r\n        acceptedTokenSymbols.push(acceptedTokenSymbol);\r\n        return true;\r\n    }\r\n}\r\n",
  "sourcePath": "F:/MyWork/LianHe/Citizen/ArtGallery/src/contracts/TokenizedArt.sol",
  "compiler": {
    "name": "solc",
    "version": "0.7.4+commit.3f05b770.Emscripten.clang"
  },
  "schemaVersion": "3.3.4",
  "updatedAt": "2021-06-22T14:04:40.332Z",
  "devdoc": {
    "kind": "dev",
    "methods": {
      "approve(address,uint256)": {
        "details": "See {IERC721-approve}."
      },
      "balanceOf(address)": {
        "details": "See {IERC721-balanceOf}."
      },
      "baseURI()": {
        "details": "Returns the base URI set via {_setBaseURI}. This will be automatically added as a prefix in {tokenURI} to each token's URI, or to the token ID if no specific URI is set for that token ID."
      },
      "getApproved(uint256)": {
        "details": "See {IERC721-getApproved}."
      },
      "isApprovedForAll(address,address)": {
        "details": "See {IERC721-isApprovedForAll}."
      },
      "name()": {
        "details": "See {IERC721Metadata-name}."
      },
      "ownerOf(uint256)": {
        "details": "See {IERC721-ownerOf}."
      },
      "safeTransferFrom(address,address,uint256)": {
        "details": "See {IERC721-safeTransferFrom}."
      },
      "safeTransferFrom(address,address,uint256,bytes)": {
        "details": "See {IERC721-safeTransferFrom}."
      },
      "setApprovalForAll(address,bool)": {
        "details": "See {IERC721-setApprovalForAll}."
      },
      "supportsInterface(bytes4)": {
        "details": "See {IERC165-supportsInterface}. Time complexity O(1), guaranteed to always use less than 30 000 gas."
      },
      "symbol()": {
        "details": "See {IERC721Metadata-symbol}."
      },
      "tokenByIndex(uint256)": {
        "details": "See {IERC721Enumerable-tokenByIndex}."
      },
      "tokenOfOwnerByIndex(address,uint256)": {
        "details": "See {IERC721Enumerable-tokenOfOwnerByIndex}."
      },
      "tokenURI(uint256)": {
        "details": "See {IERC721Metadata-tokenURI}."
      },
      "totalSupply()": {
        "details": "See {IERC721Enumerable-totalSupply}."
      },
      "transferFrom(address,address,uint256)": {
        "details": "See {IERC721-transferFrom}."
      }
    },
    "version": 1
  },
  "userdoc": {
    "kind": "user",
    "methods": {
      "approveAll(address)": {
        "notice": "this function allows to approve all the tokens the address owns at once"
      },
      "approveMany(address,uint256[])": {
        "notice": "this function allows to approve more than one token id at once"
      },
      "assignDataToToken(uint256,string)": {
        "notice": "this function assignes the URI to automatically add the id number at the end of the URI"
      },
      "burn(uint256)": {
        "notice": "this function allows you burn your NFT"
      },
      "constructor": {
        "notice": "a gallery function that is been called by the ART gallery smart contract"
      },
      "mint(string,string,uint256)": {
        "notice": "this function allows to mint more of your ART"
      },
      "tokensOfOwner(address)": {
        "notice": "this function helps with queries to Fetch all the tokens that the address owns by givine address"
      }
    },
    "version": 1
  }
}