{
  "contractName": "TokenizedArtFactory",
  "abi": [
    {
      "inputs": [
        {
          "internalType": "string",
          "name": "_name",
          "type": "string"
        },
        {
          "internalType": "string",
          "name": "_symbol",
          "type": "string"
        },
        {
          "internalType": "string",
          "name": "_description",
          "type": "string"
        },
        {
          "internalType": "address",
          "name": "_caller",
          "type": "address"
        }
      ],
      "stateMutability": "nonpayable",
      "type": "constructor"
    },
    {
      "anonymous": false,
      "inputs": [
        {
          "indexed": true,
          "internalType": "address",
          "name": "owner",
          "type": "address"
        },
        {
          "indexed": true,
          "internalType": "address",
          "name": "approved",
          "type": "address"
        },
        {
          "indexed": true,
          "internalType": "uint256",
          "name": "tokenId",
          "type": "uint256"
        }
      ],
      "name": "Approval",
      "type": "event"
    },
    {
      "anonymous": false,
      "inputs": [
        {
          "indexed": true,
          "internalType": "address",
          "name": "owner",
          "type": "address"
        },
        {
          "indexed": true,
          "internalType": "address",
          "name": "operator",
          "type": "address"
        },
        {
          "indexed": false,
          "internalType": "bool",
          "name": "approved",
          "type": "bool"
        }
      ],
      "name": "ApprovalForAll",
      "type": "event"
    },
    {
      "anonymous": false,
      "inputs": [
        {
          "indexed": false,
          "internalType": "string",
          "name": "url",
          "type": "string"
        },
        {
          "indexed": false,
          "internalType": "uint256",
          "name": "tokenId",
          "type": "uint256"
        },
        {
          "indexed": false,
          "internalType": "string",
          "name": "symbol",
          "type": "string"
        },
        {
          "indexed": false,
          "internalType": "uint256",
          "name": "amount",
          "type": "uint256"
        }
      ],
      "name": "Mint",
      "type": "event"
    },
    {
      "anonymous": false,
      "inputs": [
        {
          "indexed": true,
          "internalType": "address",
          "name": "from",
          "type": "address"
        },
        {
          "indexed": true,
          "internalType": "address",
          "name": "to",
          "type": "address"
        },
        {
          "indexed": true,
          "internalType": "uint256",
          "name": "tokenId",
          "type": "uint256"
        }
      ],
      "name": "Transfer",
      "type": "event"
    },
    {
      "inputs": [],
      "name": "Artcreator",
      "outputs": [
        {
          "internalType": "address",
          "name": "",
          "type": "address"
        }
      ],
      "stateMutability": "view",
      "type": "function"
    },
    {
      "inputs": [],
      "name": "Artdescription",
      "outputs": [
        {
          "internalType": "string",
          "name": "",
          "type": "string"
        }
      ],
      "stateMutability": "view",
      "type": "function"
    },
    {
      "inputs": [],
      "name": "Artname",
      "outputs": [
        {
          "internalType": "string",
          "name": "",
          "type": "string"
        }
      ],
      "stateMutability": "view",
      "type": "function"
    },
    {
      "inputs": [],
      "name": "Artsymbol",
      "outputs": [
        {
          "internalType": "string",
          "name": "",
          "type": "string"
        }
      ],
      "stateMutability": "view",
      "type": "function"
    },
    {
      "inputs": [
        {
          "internalType": "uint256",
          "name": "",
          "type": "uint256"
        }
      ],
      "name": "acceptedTokenSymbols",
      "outputs": [
        {
          "internalType": "string",
          "name": "",
          "type": "string"
        }
      ],
      "stateMutability": "view",
      "type": "function"
    },
    {
      "inputs": [
        {
          "internalType": "address",
          "name": "to",
          "type": "address"
        },
        {
          "internalType": "uint256",
          "name": "tokenId",
          "type": "uint256"
        }
      ],
      "name": "approve",
      "outputs": [],
      "stateMutability": "nonpayable",
      "type": "function"
    },
    {
      "inputs": [
        {
          "internalType": "address",
          "name": "owner",
          "type": "address"
        }
      ],
      "name": "balanceOf",
      "outputs": [
        {
          "internalType": "uint256",
          "name": "",
          "type": "uint256"
        }
      ],
      "stateMutability": "view",
      "type": "function"
    },
    {
      "inputs": [],
      "name": "baseURI",
      "outputs": [
        {
          "internalType": "string",
          "name": "",
          "type": "string"
        }
      ],
      "stateMutability": "view",
      "type": "function"
    },
    {
      "inputs": [],
      "name": "feeAmount",
      "outputs": [
        {
          "internalType": "uint256",
          "name": "",
          "type": "uint256"
        }
      ],
      "stateMutability": "view",
      "type": "function"
    },
    {
      "inputs": [
        {
          "internalType": "uint256",
          "name": "tokenId",
          "type": "uint256"
        }
      ],
      "name": "getApproved",
      "outputs": [
        {
          "internalType": "address",
          "name": "",
          "type": "address"
        }
      ],
      "stateMutability": "view",
      "type": "function"
    },
    {
      "inputs": [
        {
          "internalType": "address",
          "name": "owner",
          "type": "address"
        },
        {
          "internalType": "address",
          "name": "operator",
          "type": "address"
        }
      ],
      "name": "isApprovedForAll",
      "outputs": [
        {
          "internalType": "bool",
          "name": "",
          "type": "bool"
        }
      ],
      "stateMutability": "view",
      "type": "function"
    },
    {
      "inputs": [],
      "name": "name",
      "outputs": [
        {
          "internalType": "string",
          "name": "",
          "type": "string"
        }
      ],
      "stateMutability": "view",
      "type": "function"
    },
    {
      "inputs": [
        {
          "internalType": "uint256",
          "name": "tokenId",
          "type": "uint256"
        }
      ],
      "name": "ownerOf",
      "outputs": [
        {
          "internalType": "address",
          "name": "",
          "type": "address"
        }
      ],
      "stateMutability": "view",
      "type": "function"
    },
    {
      "inputs": [
        {
          "internalType": "address",
          "name": "from",
          "type": "address"
        },
        {
          "internalType": "address",
          "name": "to",
          "type": "address"
        },
        {
          "internalType": "uint256",
          "name": "tokenId",
          "type": "uint256"
        }
      ],
      "name": "safeTransferFrom",
      "outputs": [],
      "stateMutability": "nonpayable",
      "type": "function"
    },
    {
      "inputs": [
        {
          "internalType": "address",
          "name": "from",
          "type": "address"
        },
        {
          "internalType": "address",
          "name": "to",
          "type": "address"
        },
        {
          "internalType": "uint256",
          "name": "tokenId",
          "type": "uint256"
        },
        {
          "internalType": "bytes",
          "name": "_data",
          "type": "bytes"
        }
      ],
      "name": "safeTransferFrom",
      "outputs": [],
      "stateMutability": "nonpayable",
      "type": "function"
    },
    {
      "inputs": [
        {
          "internalType": "address",
          "name": "operator",
          "type": "address"
        },
        {
          "internalType": "bool",
          "name": "approved",
          "type": "bool"
        }
      ],
      "name": "setApprovalForAll",
      "outputs": [],
      "stateMutability": "nonpayable",
      "type": "function"
    },
    {
      "inputs": [
        {
          "internalType": "bytes4",
          "name": "interfaceId",
          "type": "bytes4"
        }
      ],
      "name": "supportsInterface",
      "outputs": [
        {
          "internalType": "bool",
          "name": "",
          "type": "bool"
        }
      ],
      "stateMutability": "view",
      "type": "function"
    },
    {
      "inputs": [],
      "name": "symbol",
      "outputs": [
        {
          "internalType": "string",
          "name": "",
          "type": "string"
        }
      ],
      "stateMutability": "view",
      "type": "function"
    },
    {
      "inputs": [
        {
          "internalType": "uint256",
          "name": "index",
          "type": "uint256"
        }
      ],
      "name": "tokenByIndex",
      "outputs": [
        {
          "internalType": "uint256",
          "name": "",
          "type": "uint256"
        }
      ],
      "stateMutability": "view",
      "type": "function"
    },
    {
      "inputs": [
        {
          "internalType": "address",
          "name": "owner",
          "type": "address"
        },
        {
          "internalType": "uint256",
          "name": "index",
          "type": "uint256"
        }
      ],
      "name": "tokenOfOwnerByIndex",
      "outputs": [
        {
          "internalType": "uint256",
          "name": "",
          "type": "uint256"
        }
      ],
      "stateMutability": "view",
      "type": "function"
    },
    {
      "inputs": [
        {
          "internalType": "uint256",
          "name": "tokenId",
          "type": "uint256"
        }
      ],
      "name": "tokenURI",
      "outputs": [
        {
          "internalType": "string",
          "name": "",
          "type": "string"
        }
      ],
      "stateMutability": "view",
      "type": "function"
    },
    {
      "inputs": [],
      "name": "totalSupply",
      "outputs": [
        {
          "internalType": "uint256",
          "name": "",
          "type": "uint256"
        }
      ],
      "stateMutability": "view",
      "type": "function"
    },
    {
      "inputs": [
        {
          "internalType": "address",
          "name": "from",
          "type": "address"
        },
        {
          "internalType": "address",
          "name": "to",
          "type": "address"
        },
        {
          "internalType": "uint256",
          "name": "tokenId",
          "type": "uint256"
        }
      ],
      "name": "transferFrom",
      "outputs": [],
      "stateMutability": "nonpayable",
      "type": "function"
    },
    {
      "inputs": [
        {
          "internalType": "string",
          "name": "baseURI",
          "type": "string"
        }
      ],
      "name": "setURIPrefix",
      "outputs": [],
      "stateMutability": "nonpayable",
      "type": "function"
    },
    {
      "inputs": [
        {
          "internalType": "uint256",
          "name": "id",
          "type": "uint256"
        },
        {
          "internalType": "string",
          "name": "uri",
          "type": "string"
        }
      ],
      "name": "assignDataToToken",
      "outputs": [],
      "stateMutability": "nonpayable",
      "type": "function"
    },
    {
      "inputs": [
        {
          "internalType": "address",
          "name": "owner",
          "type": "address"
        }
      ],
      "name": "tokensOfOwner",
      "outputs": [
        {
          "internalType": "uint256[]",
          "name": "",
          "type": "uint256[]"
        }
      ],
      "stateMutability": "view",
      "type": "function"
    },
    {
      "inputs": [
        {
          "internalType": "address",
          "name": "_to",
          "type": "address"
        },
        {
          "internalType": "uint256[]",
          "name": "_tokenIds",
          "type": "uint256[]"
        }
      ],
      "name": "approveMany",
      "outputs": [],
      "stateMutability": "nonpayable",
      "type": "function"
    },
    {
      "inputs": [
        {
          "internalType": "address",
          "name": "_to",
          "type": "address"
        }
      ],
      "name": "approveAll",
      "outputs": [],
      "stateMutability": "nonpayable",
      "type": "function"
    },
    {
      "inputs": [
        {
          "internalType": "string",
          "name": "url",
          "type": "string"
        },
        {
          "internalType": "string",
          "name": "tokenSymbol",
          "type": "string"
        },
        {
          "internalType": "uint256",
          "name": "amount",
          "type": "uint256"
        }
      ],
      "name": "mint",
      "outputs": [],
      "stateMutability": "nonpayable",
      "type": "function"
    },
    {
      "inputs": [
        {
          "internalType": "uint256",
          "name": "_id",
          "type": "uint256"
        }
      ],
      "name": "burn",
      "outputs": [
        {
          "internalType": "bool",
          "name": "",
          "type": "bool"
        }
      ],
      "stateMutability": "nonpayable",
      "type": "function"
    },
    {
      "inputs": [
        {
          "internalType": "address",
          "name": "acceptedTokenAddress",
          "type": "address"
        },
        {
          "internalType": "string",
          "name": "acceptedTokenSymbol",
          "type": "string"
        }
      ],
      "name": "addAcceptedToken",
      "outputs": [
        {
          "internalType": "bool",
          "name": "",
          "type": "bool"
        }
      ],
      "stateMutability": "nonpayable",
      "type": "function"
    }
  ],
  "bytecode": "0x608060405273e56ab536c90e5a8f06524ea639be9cb3589b8146600a60006101000a81548173ffffffffffffffffffffffffffffffffffffffff021916908373ffffffffffffffffffffffffffffffffffffffff1602179055506064600b55600a60009054906101000a900473ffffffffffffffffffffffffffffffffffffffff1673ffffffffffffffffffffffffffffffffffffffff1663313ce5676040518163ffffffff1660e01b815260040160206040518083038186803b158015620000c757600080fd5b505afa158015620000dc573d6000803e3d6000fd5b505050506040513d6020811015620000f357600080fd5b8101908080519060200190929190505050600c60006101000a81548160ff021916908360ff16021790555062000169606462000155600c60009054906101000a900460ff1660ff16600a0a600b546200055560201b62002be31790919060201c565b620005e060201b62002c691790919060201c565b600d556000600e60006101000a81548173ffffffffffffffffffffffffffffffffffffffff021916908373ffffffffffffffffffffffffffffffffffffffff160217905550348015620001bb57600080fd5b5060405162004ee938038062004ee983398181016040526080811015620001e157600080fd5b81019080805160405193929190846401000000008211156200020257600080fd5b838201915060208201858111156200021957600080fd5b82518660018202830111640100000000821117156200023757600080fd5b8083526020830192505050908051906020019080838360005b838110156200026d57808201518184015260208101905062000250565b50505050905090810190601f1680156200029b5780820380516001836020036101000a031916815260200191505b5060405260200180516040519392919084640100000000821115620002bf57600080fd5b83820191506020820185811115620002d657600080fd5b8251866001820283011164010000000082111715620002f457600080fd5b8083526020830192505050908051906020019080838360005b838110156200032a5780820151818401526020810190506200030d565b50505050905090810190601f168015620003585780820380516001836020036101000a031916815260200191505b50604052602001805160405193929190846401000000008211156200037c57600080fd5b838201915060208201858111156200039357600080fd5b8251866001820283011164010000000082111715620003b157600080fd5b8083526020830192505050908051906020019080838360005b83811015620003e7578082015181840152602081019050620003ca565b50505050905090810190601f168015620004155780820380516001836020036101000a031916815260200191505b50604052602001805190602001909291905050508383620004436301ffc9a760e01b6200066b60201b60201c565b81600690805190602001906200045b92919062000774565b5080600790805190602001906200047492919062000774565b506200048d6380ac58cd60e01b6200066b60201b60201c565b620004a5635b5e139f60e01b6200066b60201b60201c565b620004bd63780e9d6360e01b6200066b60201b60201c565b505083600f9080519060200190620004d792919062000774565b508260109080519060200190620004f092919062000774565b5081601190805190602001906200050992919062000774565b5080601260006101000a81548173ffffffffffffffffffffffffffffffffffffffff021916908373ffffffffffffffffffffffffffffffffffffffff160217905550505050506200082a565b6000808314156200056a5760009050620005da565b60008284029050828482816200057c57fe5b0414620005d5576040517f08c379a000000000000000000000000000000000000000000000000000000000815260040180806020018281038252602181526020018062004ec86021913960400191505060405180910390fd5b809150505b92915050565b600080821162000658576040517f08c379a000000000000000000000000000000000000000000000000000000000815260040180806020018281038252601a8152602001807f536166654d6174683a206469766973696f6e206279207a65726f00000000000081525060200191505060405180910390fd5b8183816200066257fe5b04905092915050565b63ffffffff60e01b817bffffffffffffffffffffffffffffffffffffffffffffffffffffffff1916141562000708576040517f08c379a000000000000000000000000000000000000000000000000000000000815260040180806020018281038252601c8152602001807f4552433136353a20696e76616c696420696e746572666163652069640000000081525060200191505060405180910390fd5b6001600080837bffffffffffffffffffffffffffffffffffffffffffffffffffffffff19167bffffffffffffffffffffffffffffffffffffffffffffffffffffffff1916815260200190815260200160002060006101000a81548160ff02191690831515021790555050565b828054600181600116156101000203166002900490600052602060002090601f016020900481019282620007ac5760008555620007f8565b82601f10620007c757805160ff1916838001178555620007f8565b82800160010185558215620007f8579182015b82811115620007f7578251825591602001919060010190620007da565b5b5090506200080791906200080b565b5090565b5b80821115620008265760008160009055506001016200080c565b5090565b61468e806200083a6000396000f3fe608060405234801561001057600080fd5b50600436106101e55760003560e01c806369e154041161010f578063a22cb465116100a2578063cc41103a11610071578063cc41103a14610e6a578063d41d9a2714610eed578063e69c20cf14611049578063e985e9c51461110e576101e5565b8063a22cb46514610c3a578063a7aca43c14610c8a578063b88d4fde14610cbe578063c87b56dd14610dc3576101e5565b80637b31a4d8116100de5780637b31a4d8146109c35780638462151c14610a4657806395d89b4114610adf57806399bb813414610b62576101e5565b806369e154041461080f5780636bff2c241461082d5780636c0360eb146108e857806370a082311461096b576101e5565b806323b872dd1161018757806342842e0e1161015657806342842e0e146106c357806342966c68146107315780634f6ccce7146107755780636352211e146107b7576101e5565b806323b872dd1461047f57806329360ff1146104ed5780632f745c5914610570578063304149d8146105d2576101e5565b8063081812fc116101c3578063081812fc14610314578063095ea7b31461036c5780631272a913146103ba57806318160ddd14610461576101e5565b806301ffc9a7146101ea5780630621472c1461024d57806306fdde0314610291575b600080fd5b6102356004803603602081101561020057600080fd5b8101908080357bffffffffffffffffffffffffffffffffffffffffffffffffffffffff19169060200190929190505050611188565b60405180821515815260200191505060405180910390f35b61028f6004803603602081101561026357600080fd5b81019080803573ffffffffffffffffffffffffffffffffffffffff1690602001909291905050506111ef565b005b610299611237565b6040518080602001828103825283818151815260200191508051906020019080838360005b838110156102d95780820151818401526020810190506102be565b50505050905090810190601f1680156103065780820380516001836020036101000a031916815260200191505b509250505060405180910390f35b6103406004803603602081101561032a57600080fd5b81019080803590602001909291905050506112d9565b604051808273ffffffffffffffffffffffffffffffffffffffff16815260200191505060405180910390f35b6103b86004803603604081101561038257600080fd5b81019080803573ffffffffffffffffffffffffffffffffffffffff16906020019092919080359060200190929190505050611374565b005b6103e6600480360360208110156103d057600080fd5b81019080803590602001909291905050506114b8565b6040518080602001828103825283818151815260200191508051906020019080838360005b8381101561042657808201518184015260208101905061040b565b50505050905090810190601f1680156104535780820380516001836020036101000a031916815260200191505b509250505060405180910390f35b610469611574565b6040518082815260200191505060405180910390f35b6104eb6004803603606081101561049557600080fd5b81019080803573ffffffffffffffffffffffffffffffffffffffff169060200190929190803573ffffffffffffffffffffffffffffffffffffffff16906020019092919080359060200190929190505050611585565b005b6104f56115fb565b6040518080602001828103825283818151815260200191508051906020019080838360005b8381101561053557808201518184015260208101905061051a565b50505050905090810190601f1680156105625780820380516001836020036101000a031916815260200191505b509250505060405180910390f35b6105bc6004803603604081101561058657600080fd5b81019080803573ffffffffffffffffffffffffffffffffffffffff16906020019092919080359060200190929190505050611699565b6040518082815260200191505060405180910390f35b6106ab600480360360408110156105e857600080fd5b81019080803573ffffffffffffffffffffffffffffffffffffffff1690602001909291908035906020019064010000000081111561062557600080fd5b82018360208201111561063757600080fd5b8035906020019184600183028401116401000000008311171561065957600080fd5b91908080601f016020809104026020016040519081016040528093929190818152602001838380828437600081840152601f19601f8201169050808301925050505050505091929192905050506116f4565b60405180821515815260200191505060405180910390f35b61072f600480360360608110156106d957600080fd5b81019080803573ffffffffffffffffffffffffffffffffffffffff169060200190929190803573ffffffffffffffffffffffffffffffffffffffff1690602001909291908035906020019092919050505061183e565b005b61075d6004803603602081101561074757600080fd5b810190808035906020019092919050505061185e565b60405180821515815260200191505060405180910390f35b6107a16004803603602081101561078b57600080fd5b8101908080359060200190929190505050611b27565b6040518082815260200191505060405180910390f35b6107e3600480360360208110156107cd57600080fd5b8101908080359060200190929190505050611b4a565b604051808273ffffffffffffffffffffffffffffffffffffffff16815260200191505060405180910390f35b610817611b81565b6040518082815260200191505060405180910390f35b6108e66004803603602081101561084357600080fd5b810190808035906020019064010000000081111561086057600080fd5b82018360208201111561087257600080fd5b8035906020019184600183028401116401000000008311171561089457600080fd5b91908080601f016020809104026020016040519081016040528093929190818152602001838380828437600081840152601f19601f820116905080830192505050505050509192919290505050611b87565b005b6108f0611bed565b6040518080602001828103825283818151815260200191508051906020019080838360005b83811015610930578082015181840152602081019050610915565b50505050905090810190601f16801561095d5780820380516001836020036101000a031916815260200191505b509250505060405180910390f35b6109ad6004803603602081101561098157600080fd5b81019080803573ffffffffffffffffffffffffffffffffffffffff169060200190929190505050611c8f565b6040518082815260200191505060405180910390f35b6109cb611d64565b6040518080602001828103825283818151815260200191508051906020019080838360005b83811015610a0b5780820151818401526020810190506109f0565b50505050905090810190601f168015610a385780820380516001836020036101000a031916815260200191505b509250505060405180910390f35b610a8860048036036020811015610a5c57600080fd5b81019080803573ffffffffffffffffffffffffffffffffffffffff169060200190929190505050611e02565b6040518080602001828103825283818151815260200191508051906020019060200280838360005b83811015610acb578082015181840152602081019050610ab0565b505050509050019250505060405180910390f35b610ae7611f44565b6040518080602001828103825283818151815260200191508051906020019080838360005b83811015610b27578082015181840152602081019050610b0c565b50505050905090810190601f168015610b545780820380516001836020036101000a031916815260200191505b509250505060405180910390f35b610c3860048036036040811015610b7857600080fd5b81019080803573ffffffffffffffffffffffffffffffffffffffff16906020019092919080359060200190640100000000811115610bb557600080fd5b820183602082011115610bc757600080fd5b80359060200191846020830284011164010000000083111715610be957600080fd5b919080806020026020016040519081016040528093929190818152602001838360200280828437600081840152601f19601f820116905080830192505050505050509192919290505050611fe6565b005b610c8860048036036040811015610c5057600080fd5b81019080803573ffffffffffffffffffffffffffffffffffffffff169060200190929190803515159060200190929190505050612021565b005b610c926121d7565b604051808273ffffffffffffffffffffffffffffffffffffffff16815260200191505060405180910390f35b610dc160048036036080811015610cd457600080fd5b81019080803573ffffffffffffffffffffffffffffffffffffffff169060200190929190803573ffffffffffffffffffffffffffffffffffffffff1690602001909291908035906020019092919080359060200190640100000000811115610d3b57600080fd5b820183602082011115610d4d57600080fd5b80359060200191846001830284011164010000000083111715610d6f57600080fd5b91908080601f016020809104026020016040519081016040528093929190818152602001838380828437600081840152601f19601f8201169050808301925050505050505091929192905050506121fd565b005b610def60048036036020811015610dd957600080fd5b8101908080359060200190929190505050612275565b6040518080602001828103825283818151815260200191508051906020019080838360005b83811015610e2f578082015181840152602081019050610e14565b50505050905090810190601f168015610e5c5780820380516001836020036101000a031916815260200191505b509250505060405180910390f35b610e72612546565b6040518080602001828103825283818151815260200191508051906020019080838360005b83811015610eb2578082015181840152602081019050610e97565b50505050905090810190601f168015610edf5780820380516001836020036101000a031916815260200191505b509250505060405180910390f35b61104760048036036060811015610f0357600080fd5b8101908080359060200190640100000000811115610f2057600080fd5b820183602082011115610f3257600080fd5b80359060200191846001830284011164010000000083111715610f5457600080fd5b91908080601f016020809104026020016040519081016040528093929190818152602001838380828437600081840152601f19601f82011690508083019250505050505050919291929080359060200190640100000000811115610fb757600080fd5b820183602082011115610fc957600080fd5b80359060200191846001830284011164010000000083111715610feb57600080fd5b91908080601f016020809104026020016040519081016040528093929190818152602001838380828437600081840152601f19601f820116905080830192505050505050509192919290803590602001909291905050506125e4565b005b61110c6004803603604081101561105f57600080fd5b81019080803590602001909291908035906020019064010000000081111561108657600080fd5b82018360208201111561109857600080fd5b803590602001918460018302840111640100000000831117156110ba57600080fd5b91908080601f016020809104026020016040519081016040528093929190818152602001838380828437600081840152601f19601f820116905080830192505050505050509192919290505050612a91565b005b6111706004803603604081101561112457600080fd5b81019080803573ffffffffffffffffffffffffffffffffffffffff169060200190929190803573ffffffffffffffffffffffffffffffffffffffff169060200190929190505050612b4f565b60405180821515815260200191505060405180910390f35b6000806000837bffffffffffffffffffffffffffffffffffffffffffffffffffffffff19167bffffffffffffffffffffffffffffffffffffffffffffffffffffffff1916815260200190815260200160002060009054906101000a900460ff169050919050565b60606111fa33611e02565b905060005b8151811015611232576112258383838151811061121857fe5b6020026020010151611374565b80806001019150506111ff565b505050565b606060068054600181600116156101000203166002900480601f0160208091040260200160405190810160405280929190818152602001828054600181600116156101000203166002900480156112cf5780601f106112a4576101008083540402835291602001916112cf565b820191906000526020600020905b8154815290600101906020018083116112b257829003601f168201915b5050505050905090565b60006112e482612cf2565b611339576040517f08c379a000000000000000000000000000000000000000000000000000000000815260040180806020018281038252602c815260200180614557602c913960400191505060405180910390fd5b6004600083815260200190815260200160002060009054906101000a900473ffffffffffffffffffffffffffffffffffffffff169050919050565b600061137f82611b4a565b90508073ffffffffffffffffffffffffffffffffffffffff168373ffffffffffffffffffffffffffffffffffffffff161415611406576040517f08c379a00000000000000000000000000000000000000000000000000000000081526004018080602001828103825260218152602001806146076021913960400191505060405180910390fd5b8073ffffffffffffffffffffffffffffffffffffffff16611425612d0f565b73ffffffffffffffffffffffffffffffffffffffff16148061145457506114538161144e612d0f565b612b4f565b5b6114a9576040517f08c379a00000000000000000000000000000000000000000000000000000000081526004018080602001828103825260388152602001806144896038913960400191505060405180910390fd5b6114b38383612d17565b505050565b601681815481106114c857600080fd5b906000526020600020016000915090508054600181600116156101000203166002900480601f01602080910402602001604051908101604052809291908181526020018280546001816001161561010002031660029004801561156c5780601f106115415761010080835404028352916020019161156c565b820191906000526020600020905b81548152906001019060200180831161154f57829003601f168201915b505050505081565b60006115806002612dd0565b905090565b611596611590612d0f565b82612de5565b6115eb576040517f08c379a00000000000000000000000000000000000000000000000000000000081526004018080602001828103825260318152602001806146286031913960400191505060405180910390fd5b6115f6838383612ed9565b505050565b600f8054600181600116156101000203166002900480601f0160208091040260200160405190810160405280929190818152602001828054600181600116156101000203166002900480156116915780601f1061166657610100808354040283529160200191611691565b820191906000526020600020905b81548152906001019060200180831161167457829003601f168201915b505050505081565b60006116ec82600160008673ffffffffffffffffffffffffffffffffffffffff1673ffffffffffffffffffffffffffffffffffffffff16815260200190815260200160002061311c90919063ffffffff16565b905092915050565b6000601260009054906101000a900473ffffffffffffffffffffffffffffffffffffffff1673ffffffffffffffffffffffffffffffffffffffff163373ffffffffffffffffffffffffffffffffffffffff161461175057600080fd5b826015836040518082805190602001908083835b602083106117875780518252602082019150602081019050602083039250611764565b6001836020036101000a038019825116818451168082178552505050505050905001915050908152602001604051809103902060006101000a81548173ffffffffffffffffffffffffffffffffffffffff021916908373ffffffffffffffffffffffffffffffffffffffff1602179055506016829080600181540180825580915050600190039060005260206000200160009091909190915090805190602001906118339291906142cb565b506001905092915050565b611859838383604051806020016040528060008152506121fd565b505050565b600061187161186b612d0f565b83612de5565b6118e3576040517f08c379a00000000000000000000000000000000000000000000000000000000081526004018080602001828103825260208152602001807f63616c6c6572206973206e6f74206f776e6572206e6f7220617070726f76656481525060200191505060405180910390fd5b60006118ee83611b4a565b90506060601360008581526020019081526020016000208054600181600116156101000203166002900480601f0160208091040260200160405190810160405280929190818152602001828054600181600116156101000203166002900480156119995780601f1061196e57610100808354040283529160200191611999565b820191906000526020600020905b81548152906001019060200180831161197c57829003601f168201915b5050505050905060006014600086815260200190815260200160002054905060006015836040518082805190602001908083835b602083106119f057805182526020820191506020810190506020830392506119cd565b6001836020036101000a038019825116818451168082178552505050505050905001915050908152602001604051809103902060009054906101000a900473ffffffffffffffffffffffffffffffffffffffff1690508073ffffffffffffffffffffffffffffffffffffffff166323b872dd3086856040518463ffffffff1660e01b8152600401808473ffffffffffffffffffffffffffffffffffffffff1681526020018373ffffffffffffffffffffffffffffffffffffffff1681526020018281526020019350505050602060405180830381600087803b158015611ad557600080fd5b505af1158015611ae9573d6000803e3d6000fd5b505050506040513d6020811015611aff57600080fd5b810190808051906020019092919050505050611b1a86613136565b6001945050505050919050565b600080611b3e83600261327090919063ffffffff16565b50905080915050919050565b6000611b7a826040518060600160405280602981526020016144eb60299139600261329c9092919063ffffffff16565b9050919050565b600d5481565b601260009054906101000a900473ffffffffffffffffffffffffffffffffffffffff1673ffffffffffffffffffffffffffffffffffffffff163373ffffffffffffffffffffffffffffffffffffffff1614611be157600080fd5b611bea816132bb565b50565b606060098054600181600116156101000203166002900480601f016020809104026020016040519081016040528092919081815260200182805460018160011615610100020316600290048015611c855780601f10611c5a57610100808354040283529160200191611c85565b820191906000526020600020905b815481529060010190602001808311611c6857829003601f168201915b5050505050905090565b60008073ffffffffffffffffffffffffffffffffffffffff168273ffffffffffffffffffffffffffffffffffffffff161415611d16576040517f08c379a000000000000000000000000000000000000000000000000000000000815260040180806020018281038252602a8152602001806144c1602a913960400191505060405180910390fd5b611d5d600160008473ffffffffffffffffffffffffffffffffffffffff1673ffffffffffffffffffffffffffffffffffffffff1681526020019081526020016000206132d5565b9050919050565b60118054600181600116156101000203166002900480601f016020809104026020016040519081016040528092919081815260200182805460018160011615610100020316600290048015611dfa5780601f10611dcf57610100808354040283529160200191611dfa565b820191906000526020600020905b815481529060010190602001808311611ddd57829003601f168201915b505050505081565b6060600073ffffffffffffffffffffffffffffffffffffffff168273ffffffffffffffffffffffffffffffffffffffff161415611ea7576040517f08c379a000000000000000000000000000000000000000000000000000000000815260040180806020018281038252600d8152602001807f696e76616c6964206f776e65720000000000000000000000000000000000000081525060200191505060405180910390fd5b6000611eb283611c8f565b905060608167ffffffffffffffff81118015611ecd57600080fd5b50604051908082528060200260200182016040528015611efc5781602001602082028036833780820191505090505b50905060005b82811015611f3957611f148582611699565b828281518110611f2057fe5b6020026020010181815250508080600101915050611f02565b508092505050919050565b606060078054600181600116156101000203166002900480601f016020809104026020016040519081016040528092919081815260200182805460018160011615610100020316600290048015611fdc5780601f10611fb157610100808354040283529160200191611fdc565b820191906000526020600020905b815481529060010190602001808311611fbf57829003601f168201915b5050505050905090565b60005b815181101561201c5761200f8383838151811061200257fe5b6020026020010151611374565b8080600101915050611fe9565b505050565b612029612d0f565b73ffffffffffffffffffffffffffffffffffffffff168273ffffffffffffffffffffffffffffffffffffffff1614156120ca576040517f08c379a00000000000000000000000000000000000000000000000000000000081526004018080602001828103825260198152602001807f4552433732313a20617070726f766520746f2063616c6c65720000000000000081525060200191505060405180910390fd5b80600560006120d7612d0f565b73ffffffffffffffffffffffffffffffffffffffff1673ffffffffffffffffffffffffffffffffffffffff16815260200190815260200160002060008473ffffffffffffffffffffffffffffffffffffffff1673ffffffffffffffffffffffffffffffffffffffff16815260200190815260200160002060006101000a81548160ff0219169083151502179055508173ffffffffffffffffffffffffffffffffffffffff16612184612d0f565b73ffffffffffffffffffffffffffffffffffffffff167f17307eab39ab6107e8899845ad3d59bd9653f200f220920489ca2b5937696c318360405180821515815260200191505060405180910390a35050565b601260009054906101000a900473ffffffffffffffffffffffffffffffffffffffff1681565b61220e612208612d0f565b83612de5565b612263576040517f08c379a00000000000000000000000000000000000000000000000000000000081526004018080602001828103825260318152602001806146286031913960400191505060405180910390fd5b61226f848484846132ea565b50505050565b606061228082612cf2565b6122d5576040517f08c379a000000000000000000000000000000000000000000000000000000000815260040180806020018281038252602f8152602001806145d8602f913960400191505060405180910390fd5b6060600860008481526020019081526020016000208054600181600116156101000203166002900480601f01602080910402602001604051908101604052809291908181526020018280546001816001161561010002031660029004801561237e5780601f106123535761010080835404028352916020019161237e565b820191906000526020600020905b81548152906001019060200180831161236157829003601f168201915b50505050509050606061238f611bed565b90506000815114156123a5578192505050612541565b6000825111156124765780826040516020018083805190602001908083835b602083106123e757805182526020820191506020810190506020830392506123c4565b6001836020036101000a03801982511681845116808217855250505050505090500182805190602001908083835b602083106124385780518252602082019150602081019050602083039250612415565b6001836020036101000a0380198251168184511680821785525050505050509050019250505060405160208183030381529060405292505050612541565b806124808561335c565b6040516020018083805190602001908083835b602083106124b65780518252602082019150602081019050602083039250612493565b6001836020036101000a03801982511681845116808217855250505050505090500182805190602001908083835b6020831061250757805182526020820191506020810190506020830392506124e4565b6001836020036101000a03801982511681845116808217855250505050505090500192505050604051602081830303815290604052925050505b919050565b60108054600181600116156101000203166002900480601f0160208091040260200160405190810160405280929190818152602001828054600181600116156101000203166002900480156125dc5780601f106125b1576101008083540402835291602001916125dc565b820191906000526020600020905b8154815290600101906020018083116125bf57829003601f168201915b505050505081565b601260009054906101000a900473ffffffffffffffffffffffffffffffffffffffff1673ffffffffffffffffffffffffffffffffffffffff163373ffffffffffffffffffffffffffffffffffffffff161461263e57600080fd5b600061265b600161264d611574565b6134a390919063ffffffff16565b9050612667338261352b565b612671818561371f565b60006015846040518082805190602001908083835b602083106126a95780518252602082019150602081019050602083039250612686565b6001836020036101000a038019825116818451168082178552505050505050905001915050908152602001604051809103902060009054906101000a900473ffffffffffffffffffffffffffffffffffffffff169050600a60009054906101000a900473ffffffffffffffffffffffffffffffffffffffff1673ffffffffffffffffffffffffffffffffffffffff168173ffffffffffffffffffffffffffffffffffffffff161461286657600a60009054906101000a900473ffffffffffffffffffffffffffffffffffffffff1673ffffffffffffffffffffffffffffffffffffffff166323b872dd33600e60009054906101000a900473ffffffffffffffffffffffffffffffffffffffff16600d546040518463ffffffff1660e01b8152600401808473ffffffffffffffffffffffffffffffffffffffff1681526020018373ffffffffffffffffffffffffffffffffffffffff1681526020018281526020019350505050602060405180830381600087803b15801561282957600080fd5b505af115801561283d573d6000803e3d6000fd5b505050506040513d602081101561285357600080fd5b8101908080519060200190929190505050505b8073ffffffffffffffffffffffffffffffffffffffff166323b872dd3330866040518463ffffffff1660e01b8152600401808473ffffffffffffffffffffffffffffffffffffffff1681526020018373ffffffffffffffffffffffffffffffffffffffff1681526020018281526020019350505050602060405180830381600087803b1580156128f557600080fd5b505af1158015612909573d6000803e3d6000fd5b505050506040513d602081101561291f57600080fd5b810190808051906020019092919050505050836013600084815260200190815260200160002090805190602001906129589291906142cb565b508260146000848152602001908152602001600020819055507fa7041cb159bfc274377ebd891eb3e918d399c2fdd611c52738b38509ec79965585838686604051808060200185815260200180602001848152602001838103835287818151815260200191508051906020019080838360005b838110156129e65780820151818401526020810190506129cb565b50505050905090810190601f168015612a135780820380516001836020036101000a031916815260200191505b50838103825285818151815260200191508051906020019080838360005b83811015612a4c578082015181840152602081019050612a31565b50505050905090810190601f168015612a795780820380516001836020036101000a031916815260200191505b50965050505050505060405180910390a15050505050565b612a9a82611b4a565b73ffffffffffffffffffffffffffffffffffffffff16612ab8612d0f565b73ffffffffffffffffffffffffffffffffffffffff1614612b41576040517f08c379a00000000000000000000000000000000000000000000000000000000081526004018080602001828103825260138152602001807f696e76616c696420746f6b656e206f776e65720000000000000000000000000081525060200191505060405180910390fd5b612b4b828261371f565b5050565b6000600560008473ffffffffffffffffffffffffffffffffffffffff1673ffffffffffffffffffffffffffffffffffffffff16815260200190815260200160002060008373ffffffffffffffffffffffffffffffffffffffff1673ffffffffffffffffffffffffffffffffffffffff16815260200190815260200160002060009054906101000a900460ff16905092915050565b600080831415612bf65760009050612c63565b6000828402905082848281612c0757fe5b0414612c5e576040517f08c379a00000000000000000000000000000000000000000000000000000000081526004018080602001828103825260218152602001806145366021913960400191505060405180910390fd5b809150505b92915050565b6000808211612ce0576040517f08c379a000000000000000000000000000000000000000000000000000000000815260040180806020018281038252601a8152602001807f536166654d6174683a206469766973696f6e206279207a65726f00000000000081525060200191505060405180910390fd5b818381612ce957fe5b04905092915050565b6000612d088260026137a990919063ffffffff16565b9050919050565b600033905090565b816004600083815260200190815260200160002060006101000a81548173ffffffffffffffffffffffffffffffffffffffff021916908373ffffffffffffffffffffffffffffffffffffffff160217905550808273ffffffffffffffffffffffffffffffffffffffff16612d8a83611b4a565b73ffffffffffffffffffffffffffffffffffffffff167f8c5be1e5ebec7d5bd14f71427d1e84f3dd0314c0f7b2291e5b200ac8c7c3b92560405160405180910390a45050565b6000612dde826000016137c3565b9050919050565b6000612df082612cf2565b612e45576040517f08c379a000000000000000000000000000000000000000000000000000000000815260040180806020018281038252602c81526020018061445d602c913960400191505060405180910390fd5b6000612e5083611b4a565b90508073ffffffffffffffffffffffffffffffffffffffff168473ffffffffffffffffffffffffffffffffffffffff161480612ebf57508373ffffffffffffffffffffffffffffffffffffffff16612ea7846112d9565b73ffffffffffffffffffffffffffffffffffffffff16145b80612ed05750612ecf8185612b4f565b5b91505092915050565b8273ffffffffffffffffffffffffffffffffffffffff16612ef982611b4a565b73ffffffffffffffffffffffffffffffffffffffff1614612f65576040517f08c379a00000000000000000000000000000000000000000000000000000000081526004018080602001828103825260298152602001806145af6029913960400191505060405180910390fd5b600073ffffffffffffffffffffffffffffffffffffffff168273ffffffffffffffffffffffffffffffffffffffff161415612feb576040517f08c379a00000000000000000000000000000000000000000000000000000000081526004018080602001828103825260248152602001806144136024913960400191505060405180910390fd5b612ff68383836137d4565b613001600082612d17565b61305281600160008673ffffffffffffffffffffffffffffffffffffffff1673ffffffffffffffffffffffffffffffffffffffff1681526020019081526020016000206137d990919063ffffffff16565b506130a481600160008573ffffffffffffffffffffffffffffffffffffffff1673ffffffffffffffffffffffffffffffffffffffff1681526020019081526020016000206137f390919063ffffffff16565b506130bb8183600261380d9092919063ffffffff16565b50808273ffffffffffffffffffffffffffffffffffffffff168473ffffffffffffffffffffffffffffffffffffffff167fddf252ad1be2c89b69c2b068fc378daa952ba7f163c4a11628f55a4df523b3ef60405160405180910390a4505050565b600061312b8360000183613842565b60001c905092915050565b600061314182611b4a565b905061314f816000846137d4565b61315a600083612d17565b600060086000848152602001908152602001600020805460018160011615610100020316600290049050146131a9576008600083815260200190815260200160002060006131a89190614359565b5b6131fa82600160008473ffffffffffffffffffffffffffffffffffffffff1673ffffffffffffffffffffffffffffffffffffffff1681526020019081526020016000206137d990919063ffffffff16565b5061320f8260026138c590919063ffffffff16565b5081600073ffffffffffffffffffffffffffffffffffffffff168273ffffffffffffffffffffffffffffffffffffffff167fddf252ad1be2c89b69c2b068fc378daa952ba7f163c4a11628f55a4df523b3ef60405160405180910390a45050565b60008060008061328386600001866138df565b915091508160001c8160001c9350935050509250929050565b60006132af846000018460001b84613978565b60001c90509392505050565b80600990805190602001906132d19291906142cb565b5050565b60006132e382600001613a6e565b9050919050565b6132f5848484612ed9565b61330184848484613a7f565b613356576040517f08c379a00000000000000000000000000000000000000000000000000000000081526004018080602001828103825260328152602001806143e16032913960400191505060405180910390fd5b50505050565b606060008214156133a4576040518060400160405280600181526020017f3000000000000000000000000000000000000000000000000000000000000000815250905061349e565b600082905060005b600082146133ce578080600101915050600a82816133c657fe5b0491506133ac565b60608167ffffffffffffffff811180156133e757600080fd5b506040519080825280601f01601f19166020018201604052801561341a5781602001600182028036833780820191505090505b50905060006001830390508593505b6000841461349657600a848161343b57fe5b0660300160f81b8282806001900393508151811061345557fe5b60200101907effffffffffffffffffffffffffffffffffffffffffffffffffffffffffffff1916908160001a905350600a848161348e57fe5b049350613429565b819450505050505b919050565b600080828401905083811015613521576040517f08c379a000000000000000000000000000000000000000000000000000000000815260040180806020018281038252601b8152602001807f536166654d6174683a206164646974696f6e206f766572666c6f77000000000081525060200191505060405180910390fd5b8091505092915050565b600073ffffffffffffffffffffffffffffffffffffffff168273ffffffffffffffffffffffffffffffffffffffff1614156135ce576040517f08c379a00000000000000000000000000000000000000000000000000000000081526004018080602001828103825260208152602001807f4552433732313a206d696e7420746f20746865207a65726f206164647265737381525060200191505060405180910390fd5b6135d781612cf2565b1561364a576040517f08c379a000000000000000000000000000000000000000000000000000000000815260040180806020018281038252601c8152602001807f4552433732313a20746f6b656e20616c7265616479206d696e7465640000000081525060200191505060405180910390fd5b613656600083836137d4565b6136a781600160008573ffffffffffffffffffffffffffffffffffffffff1673ffffffffffffffffffffffffffffffffffffffff1681526020019081526020016000206137f390919063ffffffff16565b506136be8183600261380d9092919063ffffffff16565b50808273ffffffffffffffffffffffffffffffffffffffff16600073ffffffffffffffffffffffffffffffffffffffff167fddf252ad1be2c89b69c2b068fc378daa952ba7f163c4a11628f55a4df523b3ef60405160405180910390a45050565b61372882612cf2565b61377d576040517f08c379a000000000000000000000000000000000000000000000000000000000815260040180806020018281038252602c815260200180614583602c913960400191505060405180910390fd5b806008600084815260200190815260200160002090805190602001906137a49291906142cb565b505050565b60006137bb836000018360001b613c98565b905092915050565b600081600001805490509050919050565b505050565b60006137eb836000018360001b613cbb565b905092915050565b6000613805836000018360001b613da3565b905092915050565b6000613839846000018460001b8473ffffffffffffffffffffffffffffffffffffffff1660001b613e13565b90509392505050565b6000818360000180549050116138a3576040517f08c379a00000000000000000000000000000000000000000000000000000000081526004018080602001828103825260228152602001806143bf6022913960400191505060405180910390fd5b8260000182815481106138b257fe5b9060005260206000200154905092915050565b60006138d7836000018360001b613eef565b905092915050565b60008082846000018054905011613941576040517f08c379a00000000000000000000000000000000000000000000000000000000081526004018080602001828103825260228152602001806145146022913960400191505060405180910390fd5b600084600001848154811061395257fe5b906000526020600020906002020190508060000154816001015492509250509250929050565b60008084600101600085815260200190815260200160002054905060008114158390613a3f576040517f08c379a00000000000000000000000000000000000000000000000000000000081526004018080602001828103825283818151815260200191508051906020019080838360005b83811015613a045780820151818401526020810190506139e9565b50505050905090810190601f168015613a315780820380516001836020036101000a031916815260200191505b509250505060405180910390fd5b50846000016001820381548110613a5257fe5b9060005260206000209060020201600101549150509392505050565b600081600001805490509050919050565b6000613aa08473ffffffffffffffffffffffffffffffffffffffff16614008565b613aad5760019050613c90565b6060613c1763150b7a0260e01b613ac2612d0f565b888787604051602401808573ffffffffffffffffffffffffffffffffffffffff1681526020018473ffffffffffffffffffffffffffffffffffffffff16815260200183815260200180602001828103825283818151815260200191508051906020019080838360005b83811015613b46578082015181840152602081019050613b2b565b50505050905090810190601f168015613b735780820380516001836020036101000a031916815260200191505b5095505050505050604051602081830303815290604052907bffffffffffffffffffffffffffffffffffffffffffffffffffffffff19166020820180517bffffffffffffffffffffffffffffffffffffffffffffffffffffffff83818316178352505050506040518060600160405280603281526020016143e1603291398773ffffffffffffffffffffffffffffffffffffffff1661401b9092919063ffffffff16565b90506000818060200190516020811015613c3057600080fd5b8101908080519060200190929190505050905063150b7a0260e01b7bffffffffffffffffffffffffffffffffffffffffffffffffffffffff1916817bffffffffffffffffffffffffffffffffffffffffffffffffffffffff191614925050505b949350505050565b600080836001016000848152602001908152602001600020541415905092915050565b60008083600101600084815260200190815260200160002054905060008114613d975760006001820390506000600186600001805490500390506000866000018281548110613d0657fe5b9060005260206000200154905080876000018481548110613d2357fe5b9060005260206000200181905550600183018760010160008381526020019081526020016000208190555086600001805480613d5b57fe5b60019003818190600052602060002001600090559055866001016000878152602001908152602001600020600090556001945050505050613d9d565b60009150505b92915050565b6000613daf8383614033565b613e08578260000182908060018154018082558091505060019003906000526020600020016000909190919091505582600001805490508360010160008481526020019081526020016000208190555060019050613e0d565b600090505b92915050565b6000808460010160008581526020019081526020016000205490506000811415613eba57846000016040518060400160405280868152602001858152509080600181540180825580915050600190039060005260206000209060020201600090919091909150600082015181600001556020820151816001015550508460000180549050856001016000868152602001908152602001600020819055506001915050613ee8565b82856000016001830381548110613ecd57fe5b90600052602060002090600202016001018190555060009150505b9392505050565b60008083600101600084815260200190815260200160002054905060008114613ffc5760006001820390506000600186600001805490500390506000866000018281548110613f3a57fe5b9060005260206000209060020201905080876000018481548110613f5a57fe5b9060005260206000209060020201600082015481600001556001820154816001015590505060018301876001016000836000015481526020019081526020016000208190555086600001805480613fad57fe5b6001900381819060005260206000209060020201600080820160009055600182016000905550509055866001016000878152602001908152602001600020600090556001945050505050614002565b60009150505b92915050565b600080823b905060008111915050919050565b606061402a8484600085614056565b90509392505050565b600080836001016000848152602001908152602001600020541415905092915050565b6060824710156140b1576040517f08c379a00000000000000000000000000000000000000000000000000000000081526004018080602001828103825260268152602001806144376026913960400191505060405180910390fd5b6140ba85614008565b61412c576040517f08c379a000000000000000000000000000000000000000000000000000000000815260040180806020018281038252601d8152602001807f416464726573733a2063616c6c20746f206e6f6e2d636f6e747261637400000081525060200191505060405180910390fd5b600060608673ffffffffffffffffffffffffffffffffffffffff1685876040518082805190602001908083835b6020831061417c5780518252602082019150602081019050602083039250614159565b6001836020036101000a03801982511681845116808217855250505050505090500191505060006040518083038185875af1925050503d80600081146141de576040519150601f19603f3d011682016040523d82523d6000602084013e6141e3565b606091505b50915091506141f38282866141ff565b92505050949350505050565b6060831561420f578290506142c4565b6000835111156142225782518084602001fd5b816040517f08c379a00000000000000000000000000000000000000000000000000000000081526004018080602001828103825283818151815260200191508051906020019080838360005b8381101561428957808201518184015260208101905061426e565b50505050905090810190601f1680156142b65780820380516001836020036101000a031916815260200191505b509250505060405180910390fd5b9392505050565b828054600181600116156101000203166002900490600052602060002090601f0160209004810192826143015760008555614348565b82601f1061431a57805160ff1916838001178555614348565b82800160010185558215614348579182015b8281111561434757825182559160200191906001019061432c565b5b50905061435591906143a1565b5090565b50805460018160011615610100020316600290046000825580601f1061437f575061439e565b601f01602090049060005260206000209081019061439d91906143a1565b5b50565b5b808211156143ba5760008160009055506001016143a2565b509056fe456e756d657261626c655365743a20696e646578206f7574206f6620626f756e64734552433732313a207472616e7366657220746f206e6f6e20455243373231526563656976657220696d706c656d656e7465724552433732313a207472616e7366657220746f20746865207a65726f2061646472657373416464726573733a20696e73756666696369656e742062616c616e636520666f722063616c6c4552433732313a206f70657261746f7220717565727920666f72206e6f6e6578697374656e7420746f6b656e4552433732313a20617070726f76652063616c6c6572206973206e6f74206f776e6572206e6f7220617070726f76656420666f7220616c6c4552433732313a2062616c616e636520717565727920666f7220746865207a65726f20616464726573734552433732313a206f776e657220717565727920666f72206e6f6e6578697374656e7420746f6b656e456e756d657261626c654d61703a20696e646578206f7574206f6620626f756e6473536166654d6174683a206d756c7469706c69636174696f6e206f766572666c6f774552433732313a20617070726f76656420717565727920666f72206e6f6e6578697374656e7420746f6b656e4552433732314d657461646174613a2055524920736574206f66206e6f6e6578697374656e7420746f6b656e4552433732313a207472616e73666572206f6620746f6b656e2074686174206973206e6f74206f776e4552433732314d657461646174613a2055524920717565727920666f72206e6f6e6578697374656e7420746f6b656e4552433732313a20617070726f76616c20746f2063757272656e74206f776e65724552433732313a207472616e736665722063616c6c6572206973206e6f74206f776e6572206e6f7220617070726f766564a2646970667358221220afc18b703e7ce0867fbbe7073fe7eb30a9e67fe568d20b13fa0109397e5aa38364736f6c63430007040033536166654d6174683a206d756c7469706c69636174696f6e206f766572666c6f77",
  "immutableReferences": {},
  "source": "// SPDX-License-Identifier: MIT\r\npragma solidity >=0.4.22 <0.8.4;\r\n\r\nimport \"@openzeppelin/contracts/token/ERC721/ERC721.sol\";\r\nimport \"@openzeppelin/contracts/token/ERC20/ERC20.sol\";\r\nimport \"@openzeppelin/contracts/access/Ownable.sol\";\r\n\r\ncontract TokenizedArtFactory is ERC721 {\r\n    using SafeMath for uint256;\r\n\r\n    ERC20 cifiTokenContractTest =\r\n        ERC20(0xe56aB536c90E5A8f06524EA639bE9cB3589B8146);\r\n    uint256 FEE = 100;\r\n    uint8 cifiDecimals = cifiTokenContractTest.decimals();\r\n    uint256 public feeAmount = FEE.mul(10**cifiDecimals).div(100);\r\n\r\n    address feeWallet = address(0x000000000000000000000000);\r\n\r\n    string public Artname;\r\n    string public Artsymbol;\r\n    string public Artdescription;\r\n\r\n    address public Artcreator;\r\n\r\n    mapping(uint256 => string) tokenID_symbol;\r\n    mapping(uint256 => uint256) tokenID_amount;\r\n\r\n    mapping(string => address) acceptedTokens;\r\n\r\n    string[] public acceptedTokenSymbols;\r\n\r\n    event Mint(string url, uint256 tokenId, string symbol, uint256 amount);\r\n\r\n    /**\r\n     * a registry function that iis been called by the NFT registry smart contract\r\n     */\r\n\r\n    constructor(\r\n        string memory _name,\r\n        string memory _symbol,\r\n        string memory _description,\r\n        address _caller\r\n    ) ERC721(_name, _symbol) {\r\n        Artname = _name;\r\n        Artsymbol = _symbol;\r\n        Artdescription = _description;\r\n        Artcreator = _caller;\r\n    }\r\n\r\n    /**\r\n     * this function helps with queries to Fetch the metadata for a givine token id\r\n     */\r\n    function setURIPrefix(string memory baseURI) public {\r\n        require(msg.sender == Artcreator);\r\n        _setBaseURI(baseURI);\r\n    }\r\n\r\n    function assignDataToToken(uint256 id, string memory uri) public {\r\n        require(_msgSender() == ownerOf(id), \"invalid token owner\");\r\n        _setTokenURI(id, uri);\r\n    }\r\n\r\n    /**\r\n     * this function helps with queries to Fetch all the tokens that the address owns by givine address\r\n     */\r\n    function tokensOfOwner(address owner)\r\n        public\r\n        view\r\n        returns (uint256[] memory)\r\n    {\r\n        require(owner != address(0), \"invalid owner\");\r\n        uint256 length = balanceOf(owner);\r\n        uint256[] memory tokens = new uint256[](length);\r\n        for (uint256 i = 0; i < length; i++) {\r\n            tokens[i] = tokenOfOwnerByIndex(owner, i);\r\n        }\r\n        return tokens;\r\n    }\r\n\r\n    /**\r\n     * this function allows to approve more than one token id at once\r\n     */\r\n    function approveMany(address _to, uint256[] memory _tokenIds) public {\r\n        /* Allows bulk-approval of many tokens. This function is useful for\r\n      exchanges where users can make a single tx to enable the call of\r\n      transferFrom for those tokens by an exchange contract. */\r\n        for (uint256 i = 0; i < _tokenIds.length; i++) {\r\n            // approve handles the check for if one who is approving is the owner.\r\n            approve(_to, _tokenIds[i]);\r\n        }\r\n    }\r\n\r\n    /**\r\n     * this function allows to approve all the tokens the address owns at once\r\n     */\r\n    function approveAll(address _to) public {\r\n        uint256[] memory tokens = tokensOfOwner(msg.sender);\r\n        for (uint256 t = 0; t < tokens.length; t++) {\r\n            approve(_to, tokens[t]);\r\n        }\r\n    }\r\n\r\n    /**\r\n     * this function allows to mint more of your Art\r\n     */\r\n    function mint(\r\n        string memory url,\r\n        string memory tokenSymbol,\r\n        uint256 amount\r\n    ) public {\r\n        require(msg.sender == Artcreator);\r\n        uint256 currentTokenCount = totalSupply().add(1);\r\n        // The index of the newest token is at the # totalTokens.\r\n        _mint(msg.sender, currentTokenCount);\r\n        _setTokenURI(currentTokenCount, url);\r\n\r\n        ERC20 acceptedToken = ERC20(acceptedTokens[tokenSymbol]);\r\n        if (acceptedToken != cifiTokenContractTest) {\r\n            cifiTokenContractTest.transferFrom(\r\n                msg.sender,\r\n                feeWallet,\r\n                feeAmount\r\n            );\r\n        }\r\n        acceptedToken.transferFrom(msg.sender, address(this), amount);\r\n        tokenID_symbol[currentTokenCount] = tokenSymbol;\r\n        tokenID_amount[currentTokenCount] = amount;\r\n\r\n        emit Mint(url, currentTokenCount, tokenSymbol, amount);\r\n    }\r\n\r\n    function burn(uint256 _id) public returns (bool) {\r\n        require(\r\n            _isApprovedOrOwner(_msgSender(), _id),\r\n            \"caller is not owner nor approved\"\r\n        );\r\n        address owner = ownerOf(_id);\r\n        string memory tokenSymbol = tokenID_symbol[_id];\r\n        uint256 amount = tokenID_amount[_id];\r\n        ERC20 acceptedToken = ERC20(acceptedTokens[tokenSymbol]);\r\n        acceptedToken.transferFrom(address(this), owner, amount);\r\n        _burn(_id);\r\n        return true;\r\n    }\r\n\r\n    function addAcceptedToken(\r\n        address acceptedTokenAddress,\r\n        string memory acceptedTokenSymbol\r\n    ) public returns (bool) {\r\n        require(msg.sender == Artcreator);\r\n        acceptedTokens[acceptedTokenSymbol] = acceptedTokenAddress;\r\n        acceptedTokenSymbols.push(acceptedTokenSymbol);\r\n        return true;\r\n    }\r\n}\r\n",
  "sourcePath": "F:/MyWork/LianHe/Citizen/ArtGallery/src/contracts/TokenizedArtFactory.sol",
  "compiler": {
    "name": "solc",
    "version": "0.7.4+commit.3f05b770.Emscripten.clang"
  },
  "schemaVersion": "3.4.1",
  "updatedAt": "2021-06-26T13:17:46.009Z",
  "devdoc": {
    "kind": "dev",
    "methods": {
      "approve(address,uint256)": {
        "details": "See {IERC721-approve}."
      },
      "balanceOf(address)": {
        "details": "See {IERC721-balanceOf}."
      },
      "baseURI()": {
        "details": "Returns the base URI set via {_setBaseURI}. This will be automatically added as a prefix in {tokenURI} to each token's URI, or to the token ID if no specific URI is set for that token ID."
      },
      "getApproved(uint256)": {
        "details": "See {IERC721-getApproved}."
      },
      "isApprovedForAll(address,address)": {
        "details": "See {IERC721-isApprovedForAll}."
      },
      "name()": {
        "details": "See {IERC721Metadata-name}."
      },
      "ownerOf(uint256)": {
        "details": "See {IERC721-ownerOf}."
      },
      "safeTransferFrom(address,address,uint256)": {
        "details": "See {IERC721-safeTransferFrom}."
      },
      "safeTransferFrom(address,address,uint256,bytes)": {
        "details": "See {IERC721-safeTransferFrom}."
      },
      "setApprovalForAll(address,bool)": {
        "details": "See {IERC721-setApprovalForAll}."
      },
      "supportsInterface(bytes4)": {
        "details": "See {IERC165-supportsInterface}. Time complexity O(1), guaranteed to always use less than 30 000 gas."
      },
      "symbol()": {
        "details": "See {IERC721Metadata-symbol}."
      },
      "tokenByIndex(uint256)": {
        "details": "See {IERC721Enumerable-tokenByIndex}."
      },
      "tokenOfOwnerByIndex(address,uint256)": {
        "details": "See {IERC721Enumerable-tokenOfOwnerByIndex}."
      },
      "tokenURI(uint256)": {
        "details": "See {IERC721Metadata-tokenURI}."
      },
      "totalSupply()": {
        "details": "See {IERC721Enumerable-totalSupply}."
      },
      "transferFrom(address,address,uint256)": {
        "details": "See {IERC721-transferFrom}."
      }
    },
    "version": 1
  },
  "userdoc": {
    "kind": "user",
    "methods": {
      "approveAll(address)": {
        "notice": "this function allows to approve all the tokens the address owns at once"
      },
      "approveMany(address,uint256[])": {
        "notice": "this function allows to approve more than one token id at once"
      },
      "constructor": {
        "notice": "a registry function that iis been called by the NFT registry smart contract"
      },
      "mint(string,string,uint256)": {
        "notice": "this function allows to mint more of your Art"
      },
      "setURIPrefix(string)": {
        "notice": "this function helps with queries to Fetch the metadata for a givine token id"
      },
      "tokensOfOwner(address)": {
        "notice": "this function helps with queries to Fetch all the tokens that the address owns by givine address"
      }
    },
    "version": 1
  }
}