{
  "contractName": "TokenizedArtFactory",
  "abi": [
    {
      "inputs": [
        {
          "internalType": "string",
          "name": "_name",
          "type": "string"
        },
        {
          "internalType": "string",
          "name": "_symbol",
          "type": "string"
        },
        {
          "internalType": "string",
          "name": "_description",
          "type": "string"
        },
        {
          "internalType": "string",
          "name": "_uri",
          "type": "string"
        },
        {
          "internalType": "address",
          "name": "_caller",
          "type": "address"
        },
        {
          "internalType": "bool",
          "name": "_isPrivate",
          "type": "bool"
        }
      ],
      "stateMutability": "nonpayable",
      "type": "constructor"
    },
    {
      "anonymous": false,
      "inputs": [
        {
          "indexed": true,
          "internalType": "address",
          "name": "owner",
          "type": "address"
        },
        {
          "indexed": true,
          "internalType": "address",
          "name": "approved",
          "type": "address"
        },
        {
          "indexed": true,
          "internalType": "uint256",
          "name": "tokenId",
          "type": "uint256"
        }
      ],
      "name": "Approval",
      "type": "event"
    },
    {
      "anonymous": false,
      "inputs": [
        {
          "indexed": true,
          "internalType": "address",
          "name": "owner",
          "type": "address"
        },
        {
          "indexed": true,
          "internalType": "address",
          "name": "operator",
          "type": "address"
        },
        {
          "indexed": false,
          "internalType": "bool",
          "name": "approved",
          "type": "bool"
        }
      ],
      "name": "ApprovalForAll",
      "type": "event"
    },
    {
      "anonymous": false,
      "inputs": [
        {
          "indexed": true,
          "internalType": "address",
          "name": "_owner",
          "type": "address"
        },
        {
          "indexed": false,
          "internalType": "uint256",
          "name": "_tokenId",
          "type": "uint256"
        },
        {
          "indexed": false,
          "internalType": "string",
          "name": "_url",
          "type": "string"
        }
      ],
      "name": "MetadataAssigned",
      "type": "event"
    },
    {
      "anonymous": false,
      "inputs": [
        {
          "indexed": false,
          "internalType": "string",
          "name": "url",
          "type": "string"
        },
        {
          "indexed": false,
          "internalType": "uint256",
          "name": "tokenId",
          "type": "uint256"
        },
        {
          "indexed": false,
          "internalType": "string",
          "name": "symbol",
          "type": "string"
        },
        {
          "indexed": false,
          "internalType": "uint256",
          "name": "amount",
          "type": "uint256"
        }
      ],
      "name": "Mint",
      "type": "event"
    },
    {
      "anonymous": false,
      "inputs": [
        {
          "indexed": true,
          "internalType": "address",
          "name": "previousOwner",
          "type": "address"
        },
        {
          "indexed": true,
          "internalType": "address",
          "name": "newOwner",
          "type": "address"
        }
      ],
      "name": "OwnershipTransferred",
      "type": "event"
    },
    {
      "anonymous": false,
      "inputs": [
        {
          "indexed": true,
          "internalType": "address",
          "name": "from",
          "type": "address"
        },
        {
          "indexed": true,
          "internalType": "address",
          "name": "to",
          "type": "address"
        },
        {
          "indexed": true,
          "internalType": "uint256",
          "name": "tokenId",
          "type": "uint256"
        }
      ],
      "name": "Transfer",
      "type": "event"
    },
    {
      "inputs": [],
      "name": "Artcreator",
      "outputs": [
        {
          "internalType": "address",
          "name": "",
          "type": "address"
        }
      ],
      "stateMutability": "view",
      "type": "function"
    },
    {
      "inputs": [],
      "name": "Artdescription",
      "outputs": [
        {
          "internalType": "string",
          "name": "",
          "type": "string"
        }
      ],
      "stateMutability": "view",
      "type": "function"
    },
    {
      "inputs": [],
      "name": "Artname",
      "outputs": [
        {
          "internalType": "string",
          "name": "",
          "type": "string"
        }
      ],
      "stateMutability": "view",
      "type": "function"
    },
    {
      "inputs": [],
      "name": "Artsymbol",
      "outputs": [
        {
          "internalType": "string",
          "name": "",
          "type": "string"
        }
      ],
      "stateMutability": "view",
      "type": "function"
    },
    {
      "inputs": [],
      "name": "Arturi",
      "outputs": [
        {
          "internalType": "string",
          "name": "",
          "type": "string"
        }
      ],
      "stateMutability": "view",
      "type": "function"
    },
    {
      "inputs": [
        {
          "internalType": "uint256",
          "name": "",
          "type": "uint256"
        }
      ],
      "name": "acceptedTokenSymbols",
      "outputs": [
        {
          "internalType": "string",
          "name": "",
          "type": "string"
        }
      ],
      "stateMutability": "view",
      "type": "function"
    },
    {
      "inputs": [
        {
          "internalType": "address",
          "name": "to",
          "type": "address"
        },
        {
          "internalType": "uint256",
          "name": "tokenId",
          "type": "uint256"
        }
      ],
      "name": "approve",
      "outputs": [],
      "stateMutability": "nonpayable",
      "type": "function"
    },
    {
      "inputs": [
        {
          "internalType": "address",
          "name": "owner",
          "type": "address"
        }
      ],
      "name": "balanceOf",
      "outputs": [
        {
          "internalType": "uint256",
          "name": "",
          "type": "uint256"
        }
      ],
      "stateMutability": "view",
      "type": "function"
    },
    {
      "inputs": [],
      "name": "baseURI",
      "outputs": [
        {
          "internalType": "string",
          "name": "",
          "type": "string"
        }
      ],
      "stateMutability": "view",
      "type": "function"
    },
    {
      "inputs": [],
      "name": "feeAmount",
      "outputs": [
        {
          "internalType": "uint256",
          "name": "",
          "type": "uint256"
        }
      ],
      "stateMutability": "view",
      "type": "function"
    },
    {
      "inputs": [
        {
          "internalType": "uint256",
          "name": "tokenId",
          "type": "uint256"
        }
      ],
      "name": "getApproved",
      "outputs": [
        {
          "internalType": "address",
          "name": "",
          "type": "address"
        }
      ],
      "stateMutability": "view",
      "type": "function"
    },
    {
      "inputs": [
        {
          "internalType": "address",
          "name": "owner",
          "type": "address"
        },
        {
          "internalType": "address",
          "name": "operator",
          "type": "address"
        }
      ],
      "name": "isApprovedForAll",
      "outputs": [
        {
          "internalType": "bool",
          "name": "",
          "type": "bool"
        }
      ],
      "stateMutability": "view",
      "type": "function"
    },
    {
      "inputs": [],
      "name": "isPrivate",
      "outputs": [
        {
          "internalType": "bool",
          "name": "",
          "type": "bool"
        }
      ],
      "stateMutability": "view",
      "type": "function"
    },
    {
      "inputs": [],
      "name": "name",
      "outputs": [
        {
          "internalType": "string",
          "name": "",
          "type": "string"
        }
      ],
      "stateMutability": "view",
      "type": "function"
    },
    {
      "inputs": [],
      "name": "owner",
      "outputs": [
        {
          "internalType": "address",
          "name": "",
          "type": "address"
        }
      ],
      "stateMutability": "view",
      "type": "function"
    },
    {
      "inputs": [
        {
          "internalType": "uint256",
          "name": "tokenId",
          "type": "uint256"
        }
      ],
      "name": "ownerOf",
      "outputs": [
        {
          "internalType": "address",
          "name": "",
          "type": "address"
        }
      ],
      "stateMutability": "view",
      "type": "function"
    },
    {
      "inputs": [],
      "name": "renounceOwnership",
      "outputs": [],
      "stateMutability": "nonpayable",
      "type": "function"
    },
    {
      "inputs": [
        {
          "internalType": "address",
          "name": "operator",
          "type": "address"
        },
        {
          "internalType": "bool",
          "name": "approved",
          "type": "bool"
        }
      ],
      "name": "setApprovalForAll",
      "outputs": [],
      "stateMutability": "nonpayable",
      "type": "function"
    },
    {
      "inputs": [
        {
          "internalType": "bytes4",
          "name": "interfaceId",
          "type": "bytes4"
        }
      ],
      "name": "supportsInterface",
      "outputs": [
        {
          "internalType": "bool",
          "name": "",
          "type": "bool"
        }
      ],
      "stateMutability": "view",
      "type": "function"
    },
    {
      "inputs": [],
      "name": "symbol",
      "outputs": [
        {
          "internalType": "string",
          "name": "",
          "type": "string"
        }
      ],
      "stateMutability": "view",
      "type": "function"
    },
    {
      "inputs": [
        {
          "internalType": "uint256",
          "name": "index",
          "type": "uint256"
        }
      ],
      "name": "tokenByIndex",
      "outputs": [
        {
          "internalType": "uint256",
          "name": "",
          "type": "uint256"
        }
      ],
      "stateMutability": "view",
      "type": "function"
    },
    {
      "inputs": [
        {
          "internalType": "address",
          "name": "owner",
          "type": "address"
        },
        {
          "internalType": "uint256",
          "name": "index",
          "type": "uint256"
        }
      ],
      "name": "tokenOfOwnerByIndex",
      "outputs": [
        {
          "internalType": "uint256",
          "name": "",
          "type": "uint256"
        }
      ],
      "stateMutability": "view",
      "type": "function"
    },
    {
      "inputs": [
        {
          "internalType": "uint256",
          "name": "tokenId",
          "type": "uint256"
        }
      ],
      "name": "tokenURI",
      "outputs": [
        {
          "internalType": "string",
          "name": "",
          "type": "string"
        }
      ],
      "stateMutability": "view",
      "type": "function"
    },
    {
      "inputs": [],
      "name": "totalSupply",
      "outputs": [
        {
          "internalType": "uint256",
          "name": "",
          "type": "uint256"
        }
      ],
      "stateMutability": "view",
      "type": "function"
    },
    {
      "inputs": [],
      "name": "totalTokens",
      "outputs": [
        {
          "internalType": "uint256",
          "name": "",
          "type": "uint256"
        }
      ],
      "stateMutability": "view",
      "type": "function"
    },
    {
      "inputs": [
        {
          "internalType": "address",
          "name": "from",
          "type": "address"
        },
        {
          "internalType": "address",
          "name": "to",
          "type": "address"
        },
        {
          "internalType": "uint256",
          "name": "tokenId",
          "type": "uint256"
        }
      ],
      "name": "transferFrom",
      "outputs": [],
      "stateMutability": "nonpayable",
      "type": "function"
    },
    {
      "inputs": [
        {
          "internalType": "address",
          "name": "newOwner",
          "type": "address"
        }
      ],
      "name": "transferOwnership",
      "outputs": [],
      "stateMutability": "nonpayable",
      "type": "function"
    },
    {
      "inputs": [
        {
          "internalType": "uint256",
          "name": "_tokenId",
          "type": "uint256"
        }
      ],
      "name": "getMetadataAtID",
      "outputs": [
        {
          "internalType": "string",
          "name": "",
          "type": "string"
        }
      ],
      "stateMutability": "view",
      "type": "function"
    },
    {
      "inputs": [
        {
          "internalType": "address",
          "name": "_owner",
          "type": "address"
        }
      ],
      "name": "tokensOf",
      "outputs": [
        {
          "internalType": "uint256[]",
          "name": "",
          "type": "uint256[]"
        }
      ],
      "stateMutability": "view",
      "type": "function"
    },
    {
      "inputs": [
        {
          "internalType": "address",
          "name": "_to",
          "type": "address"
        },
        {
          "internalType": "uint256[]",
          "name": "_tokenIds",
          "type": "uint256[]"
        }
      ],
      "name": "approveMany",
      "outputs": [],
      "stateMutability": "nonpayable",
      "type": "function"
    },
    {
      "inputs": [
        {
          "internalType": "address",
          "name": "_to",
          "type": "address"
        }
      ],
      "name": "approveAll",
      "outputs": [],
      "stateMutability": "nonpayable",
      "type": "function"
    },
    {
      "inputs": [
        {
          "internalType": "address",
          "name": "from",
          "type": "address"
        },
        {
          "internalType": "address",
          "name": "to",
          "type": "address"
        },
        {
          "internalType": "uint256",
          "name": "tokenId",
          "type": "uint256"
        }
      ],
      "name": "safeTransferFrom",
      "outputs": [],
      "stateMutability": "nonpayable",
      "type": "function"
    },
    {
      "inputs": [
        {
          "internalType": "address",
          "name": "from",
          "type": "address"
        },
        {
          "internalType": "address",
          "name": "to",
          "type": "address"
        },
        {
          "internalType": "uint256",
          "name": "tokenId",
          "type": "uint256"
        },
        {
          "internalType": "bytes",
          "name": "_data",
          "type": "bytes"
        }
      ],
      "name": "safeTransferFrom",
      "outputs": [],
      "stateMutability": "nonpayable",
      "type": "function"
    },
    {
      "inputs": [
        {
          "internalType": "string",
          "name": "url",
          "type": "string"
        },
        {
          "internalType": "string",
          "name": "tokenSymbol",
          "type": "string"
        },
        {
          "internalType": "uint256",
          "name": "amount",
          "type": "uint256"
        }
      ],
      "name": "mint",
      "outputs": [],
      "stateMutability": "nonpayable",
      "type": "function"
    },
    {
      "inputs": [],
      "name": "changeGalleryPrivacy",
      "outputs": [],
      "stateMutability": "nonpayable",
      "type": "function"
    },
    {
      "inputs": [
        {
          "internalType": "uint256",
          "name": "_id",
          "type": "uint256"
        }
      ],
      "name": "burn",
      "outputs": [
        {
          "internalType": "bool",
          "name": "",
          "type": "bool"
        }
      ],
      "stateMutability": "nonpayable",
      "type": "function"
    },
    {
      "inputs": [],
      "name": "getTotalTokens",
      "outputs": [
        {
          "internalType": "uint256",
          "name": "",
          "type": "uint256"
        }
      ],
      "stateMutability": "view",
      "type": "function"
    },
    {
      "inputs": [
        {
          "internalType": "address",
          "name": "acceptedTokenAddress",
          "type": "address"
        },
        {
          "internalType": "string",
          "name": "acceptedTokenSymbol",
          "type": "string"
        }
      ],
      "name": "addAcceptedToken",
      "outputs": [
        {
          "internalType": "bool",
          "name": "",
          "type": "bool"
        }
      ],
      "stateMutability": "nonpayable",
      "type": "function"
    }
  ],
  "bytecode": "0x608060405273e56ab536c90e5a8f06524ea639be9cb3589b8146600b60006101000a81548173ffffffffffffffffffffffffffffffffffffffff021916908373ffffffffffffffffffffffffffffffffffffffff1602179055506064600c55600b60009054906101000a900473ffffffffffffffffffffffffffffffffffffffff1673ffffffffffffffffffffffffffffffffffffffff1663313ce5676040518163ffffffff1660e01b815260040160206040518083038186803b158015620000c757600080fd5b505afa158015620000dc573d6000803e3d6000fd5b505050506040513d6020811015620000f357600080fd5b8101908080519060200190929190505050600d60006101000a81548160ff021916908360ff16021790555062000169606462000155600d60009054906101000a900460ff1660ff16600a0a600c546200070f60201b6200362c1790919060201c565b6200079a60201b620036b21790919060201c565b600e556000600f60006101000a81548173ffffffffffffffffffffffffffffffffffffffff021916908373ffffffffffffffffffffffffffffffffffffffff1602179055506000601555348015620001c057600080fd5b5060405162005ae938038062005ae9833981810160405260c0811015620001e657600080fd5b81019080805160405193929190846401000000008211156200020757600080fd5b838201915060208201858111156200021e57600080fd5b82518660018202830111640100000000821117156200023c57600080fd5b8083526020830192505050908051906020019080838360005b838110156200027257808201518184015260208101905062000255565b50505050905090810190601f168015620002a05780820380516001836020036101000a031916815260200191505b5060405260200180516040519392919084640100000000821115620002c457600080fd5b83820191506020820185811115620002db57600080fd5b8251866001820283011164010000000082111715620002f957600080fd5b8083526020830192505050908051906020019080838360005b838110156200032f57808201518184015260208101905062000312565b50505050905090810190601f1680156200035d5780820380516001836020036101000a031916815260200191505b50604052602001805160405193929190846401000000008211156200038157600080fd5b838201915060208201858111156200039857600080fd5b8251866001820283011164010000000082111715620003b657600080fd5b8083526020830192505050908051906020019080838360005b83811015620003ec578082015181840152602081019050620003cf565b50505050905090810190601f1680156200041a5780820380516001836020036101000a031916815260200191505b50604052602001805160405193929190846401000000008211156200043e57600080fd5b838201915060208201858111156200045557600080fd5b82518660018202830111640100000000821117156200047357600080fd5b8083526020830192505050908051906020019080838360005b83811015620004a95780820151818401526020810190506200048c565b50505050905090810190601f168015620004d75780820380516001836020036101000a031916815260200191505b50604052602001805190602001909291908051906020019092919050505085856200050f6301ffc9a760e01b6200082560201b60201c565b81600690805190602001906200052792919062000936565b5080600790805190602001906200054092919062000936565b50620005596380ac58cd60e01b6200082560201b60201c565b62000571635b5e139f60e01b6200082560201b60201c565b6200058963780e9d6360e01b6200082560201b60201c565b505060006200059d6200092e60201b60201c565b905080600a60006101000a81548173ffffffffffffffffffffffffffffffffffffffff021916908373ffffffffffffffffffffffffffffffffffffffff1602179055508073ffffffffffffffffffffffffffffffffffffffff16600073ffffffffffffffffffffffffffffffffffffffff167f8be0079c531659141344cd1fd0a4f28419497f9722a3daafe3b4186f6b6457e060405160405180910390a35085601090805190602001906200065492919062000936565b5084601190805190602001906200066d92919062000936565b5083601290805190602001906200068692919062000936565b5082601390805190602001906200069f92919062000936565b5081601660006101000a81548173ffffffffffffffffffffffffffffffffffffffff021916908373ffffffffffffffffffffffffffffffffffffffff16021790555080601460006101000a81548160ff0219169083151502179055506000601581905550505050505050620009ec565b60008083141562000724576000905062000794565b60008284029050828482816200073657fe5b04146200078f576040517f08c379a000000000000000000000000000000000000000000000000000000000815260040180806020018281038252602181526020018062005ac86021913960400191505060405180910390fd5b809150505b92915050565b600080821162000812576040517f08c379a000000000000000000000000000000000000000000000000000000000815260040180806020018281038252601a8152602001807f536166654d6174683a206469766973696f6e206279207a65726f00000000000081525060200191505060405180910390fd5b8183816200081c57fe5b04905092915050565b63ffffffff60e01b817bffffffffffffffffffffffffffffffffffffffffffffffffffffffff19161415620008c2576040517f08c379a000000000000000000000000000000000000000000000000000000000815260040180806020018281038252601c8152602001807f4552433136353a20696e76616c696420696e746572666163652069640000000081525060200191505060405180910390fd5b6001600080837bffffffffffffffffffffffffffffffffffffffffffffffffffffffff19167bffffffffffffffffffffffffffffffffffffffffffffffffffffffff1916815260200190815260200160002060006101000a81548160ff02191690831515021790555050565b600033905090565b828054600181600116156101000203166002900490600052602060002090601f0160209004810192826200096e5760008555620009ba565b82601f106200098957805160ff1916838001178555620009ba565b82800160010185558215620009ba579182015b82811115620009b95782518255916020019190600101906200099c565b5b509050620009c99190620009cd565b5090565b5b80821115620009e8576000816000905550600101620009ce565b5090565b6150cc80620009fc6000396000f3fe608060405234801561001057600080fd5b50600436106102325760003560e01c8063715018a611610130578063b88d4fde116100b8578063e268cd241161007c578063e268cd24146110c4578063e985e9c51461116b578063f08b82e6146111e5578063f2fde38b14611203578063faff660e1461124757610232565b8063b88d4fde14610cb6578063c87b56dd14610dbb578063cc41103a14610e62578063d1e3fe6114610ee5578063d41d9a2714610f6857610232565b806392bc7909116100ff57806392bc790914610acd57806395d89b4114610ad757806399bb813414610b5a578063a22cb46514610c32578063a7aca43c14610c8257610232565b8063715018a6146109ee5780637b31a4d8146109f85780637e1c0c0914610a7b5780638da5cb5b14610a9957610232565b80632f745c59116101be5780635a3f2672116101825780635a3f2672146108045780636352211e1461089d57806369e15404146108f55780636c0360eb1461091357806370a082311461099657610232565b80632f745c59146105bd578063304149d81461061f57806342842e0e1461071057806342966c681461077e5780634f6ccce7146107c257610232565b8063095ea7b311610205578063095ea7b3146103b95780631272a9131461040757806318160ddd146104ae57806323b872dd146104cc57806329360ff11461053a57610232565b806301ffc9a7146102375780630621472c1461029a57806306fdde03146102de578063081812fc14610361575b600080fd5b6102826004803603602081101561024d57600080fd5b8101908080357bffffffffffffffffffffffffffffffffffffffffffffffffffffffff19169060200190929190505050611267565b60405180821515815260200191505060405180910390f35b6102dc600480360360208110156102b057600080fd5b81019080803573ffffffffffffffffffffffffffffffffffffffff1690602001909291905050506112ce565b005b6102e6611316565b6040518080602001828103825283818151815260200191508051906020019080838360005b8381101561032657808201518184015260208101905061030b565b50505050905090810190601f1680156103535780820380516001836020036101000a031916815260200191505b509250505060405180910390f35b61038d6004803603602081101561037757600080fd5b81019080803590602001909291905050506113b8565b604051808273ffffffffffffffffffffffffffffffffffffffff16815260200191505060405180910390f35b610405600480360360408110156103cf57600080fd5b81019080803573ffffffffffffffffffffffffffffffffffffffff16906020019092919080359060200190929190505050611453565b005b6104336004803603602081101561041d57600080fd5b8101908080359060200190929190505050611597565b6040518080602001828103825283818151815260200191508051906020019080838360005b83811015610473578082015181840152602081019050610458565b50505050905090810190601f1680156104a05780820380516001836020036101000a031916815260200191505b509250505060405180910390f35b6104b6611653565b6040518082815260200191505060405180910390f35b610538600480360360608110156104e257600080fd5b81019080803573ffffffffffffffffffffffffffffffffffffffff169060200190929190803573ffffffffffffffffffffffffffffffffffffffff16906020019092919080359060200190929190505050611664565b005b6105426116da565b6040518080602001828103825283818151815260200191508051906020019080838360005b83811015610582578082015181840152602081019050610567565b50505050905090810190601f1680156105af5780820380516001836020036101000a031916815260200191505b509250505060405180910390f35b610609600480360360408110156105d357600080fd5b81019080803573ffffffffffffffffffffffffffffffffffffffff16906020019092919080359060200190929190505050611778565b6040518082815260200191505060405180910390f35b6106f86004803603604081101561063557600080fd5b81019080803573ffffffffffffffffffffffffffffffffffffffff1690602001909291908035906020019064010000000081111561067257600080fd5b82018360208201111561068457600080fd5b803590602001918460018302840111640100000000831117156106a657600080fd5b91908080601f016020809104026020016040519081016040528093929190818152602001838380828437600081840152601f19601f8201169050808301925050505050505091929192905050506117d3565b60405180821515815260200191505060405180910390f35b61077c6004803603606081101561072657600080fd5b81019080803573ffffffffffffffffffffffffffffffffffffffff169060200190929190803573ffffffffffffffffffffffffffffffffffffffff16906020019092919080359060200190929190505050611972565b005b6107aa6004803603602081101561079457600080fd5b8101908080359060200190929190505050611d99565b60405180821515815260200191505060405180910390f35b6107ee600480360360208110156107d857600080fd5b8101908080359060200190929190505050611fde565b6040518082815260200191505060405180910390f35b6108466004803603602081101561081a57600080fd5b81019080803573ffffffffffffffffffffffffffffffffffffffff169060200190929190505050612001565b6040518080602001828103825283818151815260200191508051906020019060200280838360005b8381101561088957808201518184015260208101905061086e565b505050509050019250505060405180910390f35b6108c9600480360360208110156108b357600080fd5b810190808035906020019092919050505061213b565b604051808273ffffffffffffffffffffffffffffffffffffffff16815260200191505060405180910390f35b6108fd612172565b6040518082815260200191505060405180910390f35b61091b612178565b6040518080602001828103825283818151815260200191508051906020019080838360005b8381101561095b578082015181840152602081019050610940565b50505050905090810190601f1680156109885780820380516001836020036101000a031916815260200191505b509250505060405180910390f35b6109d8600480360360208110156109ac57600080fd5b81019080803573ffffffffffffffffffffffffffffffffffffffff16906020019092919050505061221a565b6040518082815260200191505060405180910390f35b6109f66122ef565b005b610a0061245f565b6040518080602001828103825283818151815260200191508051906020019080838360005b83811015610a40578082015181840152602081019050610a25565b50505050905090810190601f168015610a6d5780820380516001836020036101000a031916815260200191505b509250505060405180910390f35b610a836124fd565b6040518082815260200191505060405180910390f35b610aa1612503565b604051808273ffffffffffffffffffffffffffffffffffffffff16815260200191505060405180910390f35b610ad561252d565b005b610adf6125fe565b6040518080602001828103825283818151815260200191508051906020019080838360005b83811015610b1f578082015181840152602081019050610b04565b50505050905090810190601f168015610b4c5780820380516001836020036101000a031916815260200191505b509250505060405180910390f35b610c3060048036036040811015610b7057600080fd5b81019080803573ffffffffffffffffffffffffffffffffffffffff16906020019092919080359060200190640100000000811115610bad57600080fd5b820183602082011115610bbf57600080fd5b80359060200191846020830284011164010000000083111715610be157600080fd5b919080806020026020016040519081016040528093929190818152602001838360200280828437600081840152601f19601f8201169050808301925050505050505091929192905050506126a0565b005b610c8060048036036040811015610c4857600080fd5b81019080803573ffffffffffffffffffffffffffffffffffffffff1690602001909291908035151590602001909291905050506126db565b005b610c8a612891565b604051808273ffffffffffffffffffffffffffffffffffffffff16815260200191505060405180910390f35b610db960048036036080811015610ccc57600080fd5b81019080803573ffffffffffffffffffffffffffffffffffffffff169060200190929190803573ffffffffffffffffffffffffffffffffffffffff1690602001909291908035906020019092919080359060200190640100000000811115610d3357600080fd5b820183602082011115610d4557600080fd5b80359060200191846001830284011164010000000083111715610d6757600080fd5b91908080601f016020809104026020016040519081016040528093929190818152602001838380828437600081840152601f19601f8201169050808301925050505050505091929192905050506128b7565b005b610de760048036036020811015610dd157600080fd5b810190808035906020019092919050505061292f565b6040518080602001828103825283818151815260200191508051906020019080838360005b83811015610e27578082015181840152602081019050610e0c565b50505050905090810190601f168015610e545780820380516001836020036101000a031916815260200191505b509250505060405180910390f35b610e6a612c00565b6040518080602001828103825283818151815260200191508051906020019080838360005b83811015610eaa578082015181840152602081019050610e8f565b50505050905090810190601f168015610ed75780820380516001836020036101000a031916815260200191505b509250505060405180910390f35b610eed612c9e565b6040518080602001828103825283818151815260200191508051906020019080838360005b83811015610f2d578082015181840152602081019050610f12565b50505050905090810190601f168015610f5a5780820380516001836020036101000a031916815260200191505b509250505060405180910390f35b6110c260048036036060811015610f7e57600080fd5b8101908080359060200190640100000000811115610f9b57600080fd5b820183602082011115610fad57600080fd5b80359060200191846001830284011164010000000083111715610fcf57600080fd5b91908080601f016020809104026020016040519081016040528093929190818152602001838380828437600081840152601f19601f8201169050808301925050505050505091929192908035906020019064010000000081111561103257600080fd5b82018360208201111561104457600080fd5b8035906020019184600183028401116401000000008311171561106657600080fd5b91908080601f016020809104026020016040519081016040528093929190818152602001838380828437600081840152601f19601f82011690508083019250505050505050919291929080359060200190929190505050612d3c565b005b6110f0600480360360208110156110da57600080fd5b81019080803590602001909291905050506132d1565b6040518080602001828103825283818151815260200191508051906020019080838360005b83811015611130578082015181840152602081019050611115565b50505050905090810190601f16801561115d5780820380516001836020036101000a031916815260200191505b509250505060405180910390f35b6111cd6004803603604081101561118157600080fd5b81019080803573ffffffffffffffffffffffffffffffffffffffff169060200190929190803573ffffffffffffffffffffffffffffffffffffffff169060200190929190505050613386565b60405180821515815260200191505060405180910390f35b6111ed61341a565b6040518082815260200191505060405180910390f35b6112456004803603602081101561121957600080fd5b81019080803573ffffffffffffffffffffffffffffffffffffffff169060200190929190505050613424565b005b61124f613619565b60405180821515815260200191505060405180910390f35b6000806000837bffffffffffffffffffffffffffffffffffffffffffffffffffffffff19167bffffffffffffffffffffffffffffffffffffffffffffffffffffffff1916815260200190815260200160002060009054906101000a900460ff169050919050565b60606112d933612001565b905060005b815181101561131157611304838383815181106112f757fe5b6020026020010151611453565b80806001019150506112de565b505050565b606060068054600181600116156101000203166002900480601f0160208091040260200160405190810160405280929190818152602001828054600181600116156101000203166002900480156113ae5780601f10611383576101008083540402835291602001916113ae565b820191906000526020600020905b81548152906001019060200180831161139157829003601f168201915b5050505050905090565b60006113c38261373b565b611418576040517f08c379a000000000000000000000000000000000000000000000000000000000815260040180806020018281038252602c815260200180614fc1602c913960400191505060405180910390fd5b6004600083815260200190815260200160002060009054906101000a900473ffffffffffffffffffffffffffffffffffffffff169050919050565b600061145e8261213b565b90508073ffffffffffffffffffffffffffffffffffffffff168373ffffffffffffffffffffffffffffffffffffffff1614156114e5576040517f08c379a00000000000000000000000000000000000000000000000000000000081526004018080602001828103825260218152602001806150456021913960400191505060405180910390fd5b8073ffffffffffffffffffffffffffffffffffffffff16611504613758565b73ffffffffffffffffffffffffffffffffffffffff16148061153357506115328161152d613758565b613386565b5b611588576040517f08c379a0000000000000000000000000000000000000000000000000000000008152600401808060200182810382526038815260200180614ef36038913960400191505060405180910390fd5b6115928383613760565b505050565b601c81815481106115a757600080fd5b906000526020600020016000915090508054600181600116156101000203166002900480601f01602080910402602001604051908101604052809291908181526020018280546001816001161561010002031660029004801561164b5780601f106116205761010080835404028352916020019161164b565b820191906000526020600020905b81548152906001019060200180831161162e57829003601f168201915b505050505081565b600061165f6002613819565b905090565b61167561166f613758565b8261382e565b6116ca576040517f08c379a00000000000000000000000000000000000000000000000000000000081526004018080602001828103825260318152602001806150666031913960400191505060405180910390fd5b6116d5838383613922565b505050565b60108054600181600116156101000203166002900480601f0160208091040260200160405190810160405280929190818152602001828054600181600116156101000203166002900480156117705780601f1061174557610100808354040283529160200191611770565b820191906000526020600020905b81548152906001019060200180831161175357829003601f168201915b505050505081565b60006117cb82600160008673ffffffffffffffffffffffffffffffffffffffff1673ffffffffffffffffffffffffffffffffffffffff168152602001908152602001600020613b6590919063ffffffff16565b905092915050565b60006117dd613758565b73ffffffffffffffffffffffffffffffffffffffff166117fb612503565b73ffffffffffffffffffffffffffffffffffffffff1614611884576040517f08c379a00000000000000000000000000000000000000000000000000000000081526004018080602001828103825260208152602001807f4f776e61626c653a2063616c6c6572206973206e6f7420746865206f776e657281525060200191505060405180910390fd5b82601b836040518082805190602001908083835b602083106118bb5780518252602082019150602081019050602083039250611898565b6001836020036101000a038019825116818451168082178552505050505050905001915050908152602001604051809103902060006101000a81548173ffffffffffffffffffffffffffffffffffffffff021916908373ffffffffffffffffffffffffffffffffffffffff160217905550601c82908060018154018082558091505060019003906000526020600020016000909190919091509080519060200190611967929190614c70565b506001905092915050565b61198361197d613758565b8261382e565b6119d8576040517f08c379a00000000000000000000000000000000000000000000000000000000081526004018080602001828103825260318152602001806150666031913960400191505060405180910390fd5b600073ffffffffffffffffffffffffffffffffffffffff168373ffffffffffffffffffffffffffffffffffffffff161415611a7b576040517f08c379a000000000000000000000000000000000000000000000000000000000815260040180806020018281038252600f8152602001807f696e76616c69642061646472657373000000000000000000000000000000000081525060200191505060405180910390fd5b600073ffffffffffffffffffffffffffffffffffffffff168273ffffffffffffffffffffffffffffffffffffffff161415611b1e576040517f08c379a000000000000000000000000000000000000000000000000000000000815260040180806020018281038252600f8152602001807f696e76616c69642061646472657373000000000000000000000000000000000081525060200191505060405180910390fd5b611b3983838360405180602001604052806000815250613b7f565b6060601760008573ffffffffffffffffffffffffffffffffffffffff1673ffffffffffffffffffffffffffffffffffffffff168152602001908152602001600020805480602002602001604051908101604052809291908181526020018280548015611bc457602002820191906000526020600020905b815481526020019060010190808311611bb0575b505050505090506060600182510367ffffffffffffffff81118015611be857600080fd5b50604051908082528060200260200182016040528015611c175781602001602082028036833780820191505090505b5090506000601760008673ffffffffffffffffffffffffffffffffffffffff1673ffffffffffffffffffffffffffffffffffffffff16815260200190815260200160002090508084908060018154018082558091505060019003906000526020600020016000909190919091505580601760008773ffffffffffffffffffffffffffffffffffffffff1673ffffffffffffffffffffffffffffffffffffffff168152602001908152602001600020908054611cd3929190614cfe565b506000805b8451811015611d3b5785858281518110611cee57fe5b602002602001015114611d2e57848181518110611d0757fe5b6020026020010151848380600101945081518110611d2157fe5b6020026020010181815250505b8080600101915050611cd8565b5082601760008973ffffffffffffffffffffffffffffffffffffffff1673ffffffffffffffffffffffffffffffffffffffff1681526020019081526020016000209080519060200190611d8f929190614d50565b5050505050505050565b600080611da58361213b565b90506060601960008581526020019081526020016000208054600181600116156101000203166002900480601f016020809104026020016040519081016040528092919081815260200182805460018160011615610100020316600290048015611e505780601f10611e2557610100808354040283529160200191611e50565b820191906000526020600020905b815481529060010190602001808311611e3357829003601f168201915b505050505090506000601a60008681526020019081526020016000205490506000601b836040518082805190602001908083835b60208310611ea75780518252602082019150602081019050602083039250611e84565b6001836020036101000a038019825116818451168082178552505050505050905001915050908152602001604051809103902060009054906101000a900473ffffffffffffffffffffffffffffffffffffffff1690508073ffffffffffffffffffffffffffffffffffffffff166323b872dd3086856040518463ffffffff1660e01b8152600401808473ffffffffffffffffffffffffffffffffffffffff1681526020018373ffffffffffffffffffffffffffffffffffffffff1681526020018281526020019350505050602060405180830381600087803b158015611f8c57600080fd5b505af1158015611fa0573d6000803e3d6000fd5b505050506040513d6020811015611fb657600080fd5b810190808051906020019092919050505050611fd186613bf1565b6001945050505050919050565b600080611ff5836002613d2b90919063ffffffff16565b50905080915050919050565b6060600073ffffffffffffffffffffffffffffffffffffffff168273ffffffffffffffffffffffffffffffffffffffff1614156120a6576040517f08c379a000000000000000000000000000000000000000000000000000000000815260040180806020018281038252600d8152602001807f696e76616c6964206f776e65720000000000000000000000000000000000000081525060200191505060405180910390fd5b601760008373ffffffffffffffffffffffffffffffffffffffff1673ffffffffffffffffffffffffffffffffffffffff16815260200190815260200160002080548060200260200160405190810160405280929190818152602001828054801561212f57602002820191906000526020600020905b81548152602001906001019080831161211b575b50505050509050919050565b600061216b82604051806060016040528060298152602001614f55602991396002613d579092919063ffffffff16565b9050919050565b600e5481565b606060098054600181600116156101000203166002900480601f0160208091040260200160405190810160405280929190818152602001828054600181600116156101000203166002900480156122105780601f106121e557610100808354040283529160200191612210565b820191906000526020600020905b8154815290600101906020018083116121f357829003601f168201915b5050505050905090565b60008073ffffffffffffffffffffffffffffffffffffffff168273ffffffffffffffffffffffffffffffffffffffff1614156122a1576040517f08c379a000000000000000000000000000000000000000000000000000000000815260040180806020018281038252602a815260200180614f2b602a913960400191505060405180910390fd5b6122e8600160008473ffffffffffffffffffffffffffffffffffffffff1673ffffffffffffffffffffffffffffffffffffffff168152602001908152602001600020613d76565b9050919050565b6122f7613758565b73ffffffffffffffffffffffffffffffffffffffff16612315612503565b73ffffffffffffffffffffffffffffffffffffffff161461239e576040517f08c379a00000000000000000000000000000000000000000000000000000000081526004018080602001828103825260208152602001807f4f776e61626c653a2063616c6c6572206973206e6f7420746865206f776e657281525060200191505060405180910390fd5b600073ffffffffffffffffffffffffffffffffffffffff16600a60009054906101000a900473ffffffffffffffffffffffffffffffffffffffff1673ffffffffffffffffffffffffffffffffffffffff167f8be0079c531659141344cd1fd0a4f28419497f9722a3daafe3b4186f6b6457e060405160405180910390a36000600a60006101000a81548173ffffffffffffffffffffffffffffffffffffffff021916908373ffffffffffffffffffffffffffffffffffffffff160217905550565b60128054600181600116156101000203166002900480601f0160208091040260200160405190810160405280929190818152602001828054600181600116156101000203166002900480156124f55780601f106124ca576101008083540402835291602001916124f5565b820191906000526020600020905b8154815290600101906020018083116124d857829003601f168201915b505050505081565b60155481565b6000600a60009054906101000a900473ffffffffffffffffffffffffffffffffffffffff16905090565b601660009054906101000a900473ffffffffffffffffffffffffffffffffffffffff1673ffffffffffffffffffffffffffffffffffffffff163373ffffffffffffffffffffffffffffffffffffffff161461258757600080fd5b60011515601460009054906101000a900460ff16151514156125c3576000601460006101000a81548160ff0219169083151502179055506125fc565b60001515601460009054906101000a900460ff16151514156125fb576001601460006101000a81548160ff0219169083151502179055505b5b565b606060078054600181600116156101000203166002900480601f0160208091040260200160405190810160405280929190818152602001828054600181600116156101000203166002900480156126965780601f1061266b57610100808354040283529160200191612696565b820191906000526020600020905b81548152906001019060200180831161267957829003601f168201915b5050505050905090565b60005b81518110156126d6576126c9838383815181106126bc57fe5b6020026020010151611453565b80806001019150506126a3565b505050565b6126e3613758565b73ffffffffffffffffffffffffffffffffffffffff168273ffffffffffffffffffffffffffffffffffffffff161415612784576040517f08c379a00000000000000000000000000000000000000000000000000000000081526004018080602001828103825260198152602001807f4552433732313a20617070726f766520746f2063616c6c65720000000000000081525060200191505060405180910390fd5b8060056000612791613758565b73ffffffffffffffffffffffffffffffffffffffff1673ffffffffffffffffffffffffffffffffffffffff16815260200190815260200160002060008473ffffffffffffffffffffffffffffffffffffffff1673ffffffffffffffffffffffffffffffffffffffff16815260200190815260200160002060006101000a81548160ff0219169083151502179055508173ffffffffffffffffffffffffffffffffffffffff1661283e613758565b73ffffffffffffffffffffffffffffffffffffffff167f17307eab39ab6107e8899845ad3d59bd9653f200f220920489ca2b5937696c318360405180821515815260200191505060405180910390a35050565b601660009054906101000a900473ffffffffffffffffffffffffffffffffffffffff1681565b6128c86128c2613758565b8361382e565b61291d576040517f08c379a00000000000000000000000000000000000000000000000000000000081526004018080602001828103825260318152602001806150666031913960400191505060405180910390fd5b61292984848484613b7f565b50505050565b606061293a8261373b565b61298f576040517f08c379a000000000000000000000000000000000000000000000000000000000815260040180806020018281038252602f815260200180615016602f913960400191505060405180910390fd5b6060600860008481526020019081526020016000208054600181600116156101000203166002900480601f016020809104026020016040519081016040528092919081815260200182805460018160011615610100020316600290048015612a385780601f10612a0d57610100808354040283529160200191612a38565b820191906000526020600020905b815481529060010190602001808311612a1b57829003601f168201915b505050505090506060612a49612178565b9050600081511415612a5f578192505050612bfb565b600082511115612b305780826040516020018083805190602001908083835b60208310612aa15780518252602082019150602081019050602083039250612a7e565b6001836020036101000a03801982511681845116808217855250505050505090500182805190602001908083835b60208310612af25780518252602082019150602081019050602083039250612acf565b6001836020036101000a0380198251168184511680821785525050505050509050019250505060405160208183030381529060405292505050612bfb565b80612b3a85613d8b565b6040516020018083805190602001908083835b60208310612b705780518252602082019150602081019050602083039250612b4d565b6001836020036101000a03801982511681845116808217855250505050505090500182805190602001908083835b60208310612bc15780518252602082019150602081019050602083039250612b9e565b6001836020036101000a03801982511681845116808217855250505050505090500192505050604051602081830303815290604052925050505b919050565b60118054600181600116156101000203166002900480601f016020809104026020016040519081016040528092919081815260200182805460018160011615610100020316600290048015612c965780601f10612c6b57610100808354040283529160200191612c96565b820191906000526020600020905b815481529060010190602001808311612c7957829003601f168201915b505050505081565b60138054600181600116156101000203166002900480601f016020809104026020016040519081016040528092919081815260200182805460018160011615610100020316600290048015612d345780601f10612d0957610100808354040283529160200191612d34565b820191906000526020600020905b815481529060010190602001808311612d1757829003601f168201915b505050505081565b601660009054906101000a900473ffffffffffffffffffffffffffffffffffffffff1673ffffffffffffffffffffffffffffffffffffffff163373ffffffffffffffffffffffffffffffffffffffff1614612d9657600080fd5b612db16001612da3611653565b613ed290919063ffffffff16565b601581905550612dc333601554613f5a565b6000601760003373ffffffffffffffffffffffffffffffffffffffff1673ffffffffffffffffffffffffffffffffffffffff168152602001908152602001600020905080601554908060018154018082558091505060019003906000526020600020016000909190919091505580601760003373ffffffffffffffffffffffffffffffffffffffff1673ffffffffffffffffffffffffffffffffffffffff168152602001908152602001600020908054612e7e929190614cfe565b50836018600060155481526020019081526020016000209080519060200190612ea8929190614c70565b506000601b846040518082805190602001908083835b60208310612ee15780518252602082019150602081019050602083039250612ebe565b6001836020036101000a038019825116818451168082178552505050505050905001915050908152602001604051809103902060009054906101000a900473ffffffffffffffffffffffffffffffffffffffff169050600b60009054906101000a900473ffffffffffffffffffffffffffffffffffffffff1673ffffffffffffffffffffffffffffffffffffffff168173ffffffffffffffffffffffffffffffffffffffff161461309e57600b60009054906101000a900473ffffffffffffffffffffffffffffffffffffffff1673ffffffffffffffffffffffffffffffffffffffff166323b872dd33600f60009054906101000a900473ffffffffffffffffffffffffffffffffffffffff16600e546040518463ffffffff1660e01b8152600401808473ffffffffffffffffffffffffffffffffffffffff1681526020018373ffffffffffffffffffffffffffffffffffffffff1681526020018281526020019350505050602060405180830381600087803b15801561306157600080fd5b505af1158015613075573d6000803e3d6000fd5b505050506040513d602081101561308b57600080fd5b8101908080519060200190929190505050505b8073ffffffffffffffffffffffffffffffffffffffff166323b872dd3330600e546040518463ffffffff1660e01b8152600401808473ffffffffffffffffffffffffffffffffffffffff1681526020018373ffffffffffffffffffffffffffffffffffffffff1681526020018281526020019350505050602060405180830381600087803b15801561312f57600080fd5b505af1158015613143573d6000803e3d6000fd5b505050506040513d602081101561315957600080fd5b810190808051906020019092919050505050836019600060155481526020019081526020016000209080519060200190613194929190614c70565b5082601a60006015548152602001908152602001600020819055507fa7041cb159bfc274377ebd891eb3e918d399c2fdd611c52738b38509ec799655856015548686604051808060200185815260200180602001848152602001838103835287818151815260200191508051906020019080838360005b8381101561322657808201518184015260208101905061320b565b50505050905090810190601f1680156132535780820380516001836020036101000a031916815260200191505b50838103825285818151815260200191508051906020019080838360005b8381101561328c578082015181840152602081019050613271565b50505050905090810190601f1680156132b95780820380516001836020036101000a031916815260200191505b50965050505050505060405180910390a15050505050565b6060601860008381526020019081526020016000208054600181600116156101000203166002900480601f01602080910402602001604051908101604052809291908181526020018280546001816001161561010002031660029004801561337a5780601f1061334f5761010080835404028352916020019161337a565b820191906000526020600020905b81548152906001019060200180831161335d57829003601f168201915b50505050509050919050565b6000600560008473ffffffffffffffffffffffffffffffffffffffff1673ffffffffffffffffffffffffffffffffffffffff16815260200190815260200160002060008373ffffffffffffffffffffffffffffffffffffffff1673ffffffffffffffffffffffffffffffffffffffff16815260200190815260200160002060009054906101000a900460ff16905092915050565b6000601554905090565b61342c613758565b73ffffffffffffffffffffffffffffffffffffffff1661344a612503565b73ffffffffffffffffffffffffffffffffffffffff16146134d3576040517f08c379a00000000000000000000000000000000000000000000000000000000081526004018080602001828103825260208152602001807f4f776e61626c653a2063616c6c6572206973206e6f7420746865206f776e657281525060200191505060405180910390fd5b600073ffffffffffffffffffffffffffffffffffffffff168173ffffffffffffffffffffffffffffffffffffffff161415613559576040517f08c379a0000000000000000000000000000000000000000000000000000000008152600401808060200182810382526026815260200180614e576026913960400191505060405180910390fd5b8073ffffffffffffffffffffffffffffffffffffffff16600a60009054906101000a900473ffffffffffffffffffffffffffffffffffffffff1673ffffffffffffffffffffffffffffffffffffffff167f8be0079c531659141344cd1fd0a4f28419497f9722a3daafe3b4186f6b6457e060405160405180910390a380600a60006101000a81548173ffffffffffffffffffffffffffffffffffffffff021916908373ffffffffffffffffffffffffffffffffffffffff16021790555050565b601460009054906101000a900460ff1681565b60008083141561363f57600090506136ac565b600082840290508284828161365057fe5b04146136a7576040517f08c379a0000000000000000000000000000000000000000000000000000000008152600401808060200182810382526021815260200180614fa06021913960400191505060405180910390fd5b809150505b92915050565b6000808211613729576040517f08c379a000000000000000000000000000000000000000000000000000000000815260040180806020018281038252601a8152602001807f536166654d6174683a206469766973696f6e206279207a65726f00000000000081525060200191505060405180910390fd5b81838161373257fe5b04905092915050565b600061375182600261414e90919063ffffffff16565b9050919050565b600033905090565b816004600083815260200190815260200160002060006101000a81548173ffffffffffffffffffffffffffffffffffffffff021916908373ffffffffffffffffffffffffffffffffffffffff160217905550808273ffffffffffffffffffffffffffffffffffffffff166137d38361213b565b73ffffffffffffffffffffffffffffffffffffffff167f8c5be1e5ebec7d5bd14f71427d1e84f3dd0314c0f7b2291e5b200ac8c7c3b92560405160405180910390a45050565b600061382782600001614168565b9050919050565b60006138398261373b565b61388e576040517f08c379a000000000000000000000000000000000000000000000000000000000815260040180806020018281038252602c815260200180614ec7602c913960400191505060405180910390fd5b60006138998361213b565b90508073ffffffffffffffffffffffffffffffffffffffff168473ffffffffffffffffffffffffffffffffffffffff16148061390857508373ffffffffffffffffffffffffffffffffffffffff166138f0846113b8565b73ffffffffffffffffffffffffffffffffffffffff16145b8061391957506139188185613386565b5b91505092915050565b8273ffffffffffffffffffffffffffffffffffffffff166139428261213b565b73ffffffffffffffffffffffffffffffffffffffff16146139ae576040517f08c379a0000000000000000000000000000000000000000000000000000000008152600401808060200182810382526029815260200180614fed6029913960400191505060405180910390fd5b600073ffffffffffffffffffffffffffffffffffffffff168273ffffffffffffffffffffffffffffffffffffffff161415613a34576040517f08c379a0000000000000000000000000000000000000000000000000000000008152600401808060200182810382526024815260200180614e7d6024913960400191505060405180910390fd5b613a3f838383614179565b613a4a600082613760565b613a9b81600160008673ffffffffffffffffffffffffffffffffffffffff1673ffffffffffffffffffffffffffffffffffffffff16815260200190815260200160002061417e90919063ffffffff16565b50613aed81600160008573ffffffffffffffffffffffffffffffffffffffff1673ffffffffffffffffffffffffffffffffffffffff16815260200190815260200160002061419890919063ffffffff16565b50613b04818360026141b29092919063ffffffff16565b50808273ffffffffffffffffffffffffffffffffffffffff168473ffffffffffffffffffffffffffffffffffffffff167fddf252ad1be2c89b69c2b068fc378daa952ba7f163c4a11628f55a4df523b3ef60405160405180910390a4505050565b6000613b7483600001836141e7565b60001c905092915050565b613b8a848484613922565b613b968484848461426a565b613beb576040517f08c379a0000000000000000000000000000000000000000000000000000000008152600401808060200182810382526032815260200180614e256032913960400191505060405180910390fd5b50505050565b6000613bfc8261213b565b9050613c0a81600084614179565b613c15600083613760565b60006008600084815260200190815260200160002080546001816001161561010002031660029004905014613c6457600860008381526020019081526020016000206000613c639190614d9d565b5b613cb582600160008473ffffffffffffffffffffffffffffffffffffffff1673ffffffffffffffffffffffffffffffffffffffff16815260200190815260200160002061417e90919063ffffffff16565b50613cca82600261448390919063ffffffff16565b5081600073ffffffffffffffffffffffffffffffffffffffff168273ffffffffffffffffffffffffffffffffffffffff167fddf252ad1be2c89b69c2b068fc378daa952ba7f163c4a11628f55a4df523b3ef60405160405180910390a45050565b600080600080613d3e866000018661449d565b915091508160001c8160001c9350935050509250929050565b6000613d6a846000018460001b84614536565b60001c90509392505050565b6000613d848260000161462c565b9050919050565b60606000821415613dd3576040518060400160405280600181526020017f30000000000000000000000000000000000000000000000000000000000000008152509050613ecd565b600082905060005b60008214613dfd578080600101915050600a8281613df557fe5b049150613ddb565b60608167ffffffffffffffff81118015613e1657600080fd5b506040519080825280601f01601f191660200182016040528015613e495781602001600182028036833780820191505090505b50905060006001830390508593505b60008414613ec557600a8481613e6a57fe5b0660300160f81b82828060019003935081518110613e8457fe5b60200101907effffffffffffffffffffffffffffffffffffffffffffffffffffffffffffff1916908160001a905350600a8481613ebd57fe5b049350613e58565b819450505050505b919050565b600080828401905083811015613f50576040517f08c379a000000000000000000000000000000000000000000000000000000000815260040180806020018281038252601b8152602001807f536166654d6174683a206164646974696f6e206f766572666c6f77000000000081525060200191505060405180910390fd5b8091505092915050565b600073ffffffffffffffffffffffffffffffffffffffff168273ffffffffffffffffffffffffffffffffffffffff161415613ffd576040517f08c379a00000000000000000000000000000000000000000000000000000000081526004018080602001828103825260208152602001807f4552433732313a206d696e7420746f20746865207a65726f206164647265737381525060200191505060405180910390fd5b6140068161373b565b15614079576040517f08c379a000000000000000000000000000000000000000000000000000000000815260040180806020018281038252601c8152602001807f4552433732313a20746f6b656e20616c7265616479206d696e7465640000000081525060200191505060405180910390fd5b61408560008383614179565b6140d681600160008573ffffffffffffffffffffffffffffffffffffffff1673ffffffffffffffffffffffffffffffffffffffff16815260200190815260200160002061419890919063ffffffff16565b506140ed818360026141b29092919063ffffffff16565b50808273ffffffffffffffffffffffffffffffffffffffff16600073ffffffffffffffffffffffffffffffffffffffff167fddf252ad1be2c89b69c2b068fc378daa952ba7f163c4a11628f55a4df523b3ef60405160405180910390a45050565b6000614160836000018360001b61463d565b905092915050565b600081600001805490509050919050565b505050565b6000614190836000018360001b614660565b905092915050565b60006141aa836000018360001b614748565b905092915050565b60006141de846000018460001b8473ffffffffffffffffffffffffffffffffffffffff1660001b6147b8565b90509392505050565b600081836000018054905011614248576040517f08c379a0000000000000000000000000000000000000000000000000000000008152600401808060200182810382526022815260200180614e036022913960400191505060405180910390fd5b82600001828154811061425757fe5b9060005260206000200154905092915050565b600061428b8473ffffffffffffffffffffffffffffffffffffffff16614894565b614298576001905061447b565b606061440263150b7a0260e01b6142ad613758565b888787604051602401808573ffffffffffffffffffffffffffffffffffffffff1681526020018473ffffffffffffffffffffffffffffffffffffffff16815260200183815260200180602001828103825283818151815260200191508051906020019080838360005b83811015614331578082015181840152602081019050614316565b50505050905090810190601f16801561435e5780820380516001836020036101000a031916815260200191505b5095505050505050604051602081830303815290604052907bffffffffffffffffffffffffffffffffffffffffffffffffffffffff19166020820180517bffffffffffffffffffffffffffffffffffffffffffffffffffffffff8381831617835250505050604051806060016040528060328152602001614e25603291398773ffffffffffffffffffffffffffffffffffffffff166148a79092919063ffffffff16565b9050600081806020019051602081101561441b57600080fd5b8101908080519060200190929190505050905063150b7a0260e01b7bffffffffffffffffffffffffffffffffffffffffffffffffffffffff1916817bffffffffffffffffffffffffffffffffffffffffffffffffffffffff191614925050505b949350505050565b6000614495836000018360001b6148bf565b905092915050565b600080828460000180549050116144ff576040517f08c379a0000000000000000000000000000000000000000000000000000000008152600401808060200182810382526022815260200180614f7e6022913960400191505060405180910390fd5b600084600001848154811061451057fe5b906000526020600020906002020190508060000154816001015492509250509250929050565b600080846001016000858152602001908152602001600020549050600081141583906145fd576040517f08c379a00000000000000000000000000000000000000000000000000000000081526004018080602001828103825283818151815260200191508051906020019080838360005b838110156145c25780820151818401526020810190506145a7565b50505050905090810190601f1680156145ef5780820380516001836020036101000a031916815260200191505b509250505060405180910390fd5b5084600001600182038154811061461057fe5b9060005260206000209060020201600101549150509392505050565b600081600001805490509050919050565b600080836001016000848152602001908152602001600020541415905092915050565b6000808360010160008481526020019081526020016000205490506000811461473c57600060018203905060006001866000018054905003905060008660000182815481106146ab57fe5b90600052602060002001549050808760000184815481106146c857fe5b906000526020600020018190555060018301876001016000838152602001908152602001600020819055508660000180548061470057fe5b60019003818190600052602060002001600090559055866001016000878152602001908152602001600020600090556001945050505050614742565b60009150505b92915050565b600061475483836149d8565b6147ad5782600001829080600181540180825580915050600190039060005260206000200160009091909190915055826000018054905083600101600084815260200190815260200160002081905550600190506147b2565b600090505b92915050565b600080846001016000858152602001908152602001600020549050600081141561485f5784600001604051806040016040528086815260200185815250908060018154018082558091505060019003906000526020600020906002020160009091909190915060008201518160000155602082015181600101555050846000018054905085600101600086815260200190815260200160002081905550600191505061488d565b8285600001600183038154811061487257fe5b90600052602060002090600202016001018190555060009150505b9392505050565b600080823b905060008111915050919050565b60606148b684846000856149fb565b90509392505050565b600080836001016000848152602001908152602001600020549050600081146149cc576000600182039050600060018660000180549050039050600086600001828154811061490a57fe5b906000526020600020906002020190508087600001848154811061492a57fe5b906000526020600020906002020160008201548160000155600182015481600101559050506001830187600101600083600001548152602001908152602001600020819055508660000180548061497d57fe5b60019003818190600052602060002090600202016000808201600090556001820160009055505090558660010160008781526020019081526020016000206000905560019450505050506149d2565b60009150505b92915050565b600080836001016000848152602001908152602001600020541415905092915050565b606082471015614a56576040517f08c379a0000000000000000000000000000000000000000000000000000000008152600401808060200182810382526026815260200180614ea16026913960400191505060405180910390fd5b614a5f85614894565b614ad1576040517f08c379a000000000000000000000000000000000000000000000000000000000815260040180806020018281038252601d8152602001807f416464726573733a2063616c6c20746f206e6f6e2d636f6e747261637400000081525060200191505060405180910390fd5b600060608673ffffffffffffffffffffffffffffffffffffffff1685876040518082805190602001908083835b60208310614b215780518252602082019150602081019050602083039250614afe565b6001836020036101000a03801982511681845116808217855250505050505090500191505060006040518083038185875af1925050503d8060008114614b83576040519150601f19603f3d011682016040523d82523d6000602084013e614b88565b606091505b5091509150614b98828286614ba4565b92505050949350505050565b60608315614bb457829050614c69565b600083511115614bc75782518084602001fd5b816040517f08c379a00000000000000000000000000000000000000000000000000000000081526004018080602001828103825283818151815260200191508051906020019080838360005b83811015614c2e578082015181840152602081019050614c13565b50505050905090810190601f168015614c5b5780820380516001836020036101000a031916815260200191505b509250505060405180910390fd5b9392505050565b828054600181600116156101000203166002900490600052602060002090601f016020900481019282614ca65760008555614ced565b82601f10614cbf57805160ff1916838001178555614ced565b82800160010185558215614ced579182015b82811115614cec578251825591602001919060010190614cd1565b5b509050614cfa9190614de5565b5090565b828054828255906000526020600020908101928215614d3f5760005260206000209182015b82811115614d3e578254825591600101919060010190614d23565b5b509050614d4c9190614de5565b5090565b828054828255906000526020600020908101928215614d8c579160200282015b82811115614d8b578251825591602001919060010190614d70565b5b509050614d999190614de5565b5090565b50805460018160011615610100020316600290046000825580601f10614dc35750614de2565b601f016020900490600052602060002090810190614de19190614de5565b5b50565b5b80821115614dfe576000816000905550600101614de6565b509056fe456e756d657261626c655365743a20696e646578206f7574206f6620626f756e64734552433732313a207472616e7366657220746f206e6f6e20455243373231526563656976657220696d706c656d656e7465724f776e61626c653a206e6577206f776e657220697320746865207a65726f20616464726573734552433732313a207472616e7366657220746f20746865207a65726f2061646472657373416464726573733a20696e73756666696369656e742062616c616e636520666f722063616c6c4552433732313a206f70657261746f7220717565727920666f72206e6f6e6578697374656e7420746f6b656e4552433732313a20617070726f76652063616c6c6572206973206e6f74206f776e6572206e6f7220617070726f76656420666f7220616c6c4552433732313a2062616c616e636520717565727920666f7220746865207a65726f20616464726573734552433732313a206f776e657220717565727920666f72206e6f6e6578697374656e7420746f6b656e456e756d657261626c654d61703a20696e646578206f7574206f6620626f756e6473536166654d6174683a206d756c7469706c69636174696f6e206f766572666c6f774552433732313a20617070726f76656420717565727920666f72206e6f6e6578697374656e7420746f6b656e4552433732313a207472616e73666572206f6620746f6b656e2074686174206973206e6f74206f776e4552433732314d657461646174613a2055524920717565727920666f72206e6f6e6578697374656e7420746f6b656e4552433732313a20617070726f76616c20746f2063757272656e74206f776e65724552433732313a207472616e736665722063616c6c6572206973206e6f74206f776e6572206e6f7220617070726f766564a264697066735822122092443e812956bb130495fd15952043e10cf74982b3a4878ab55f1eb5913b598964736f6c63430007040033536166654d6174683a206d756c7469706c69636174696f6e206f766572666c6f77",
  "immutableReferences": {},
  "source": "// SPDX-License-Identifier: MIT\r\npragma solidity >=0.4.22 <0.8.4;\r\n\r\nimport \"@openzeppelin/contracts/token/ERC721/ERC721.sol\";\r\nimport \"@openzeppelin/contracts/token/ERC20/ERC20.sol\";\r\nimport \"@openzeppelin/contracts/access/Ownable.sol\";\r\n\r\ncontract TokenizedArtFactory is ERC721, Ownable {\r\n    using SafeMath for uint256;\r\n\r\n    ERC20 cifiTokenContractTest =\r\n        ERC20(0xe56aB536c90E5A8f06524EA639bE9cB3589B8146);\r\n    uint256 FEE = 100;\r\n    uint8 cifiDecimals = cifiTokenContractTest.decimals();\r\n    uint256 public feeAmount = FEE.mul(10**cifiDecimals).div(100);\r\n\r\n    address feeWallet = address(0x000000000000000000000000);\r\n\r\n    string public Artname;\r\n    string public Artsymbol;\r\n    string public Artdescription;\r\n    string public Arturi;\r\n    bool public isPrivate;\r\n\r\n    // Total tokens starts at 0 because each new token must be minted and the\r\n    // _mint() call adds 1 to totalTokens\r\n    uint256 public totalTokens = 0;\r\n\r\n    address public Artcreator;\r\n\r\n    // Mapping from owner to list of owned token IDs\r\n    mapping(address => uint256[]) ownedTokens;\r\n\r\n    // Metadata is a URL that points to a json dictionary\r\n    mapping(uint256 => string) tokenIdToMetadata;\r\n\r\n    mapping(uint256 => string) tokenID_symbol;\r\n    mapping(uint256 => uint256) tokenID_amount;\r\n\r\n    mapping(string => address) acceptedTokens;\r\n\r\n    string[] public acceptedTokenSymbols;\r\n\r\n    event MetadataAssigned(\r\n        address indexed _owner,\r\n        uint256 _tokenId,\r\n        string _url\r\n    );\r\n    event Mint(string url, uint256 tokenId, string symbol, uint256 amount);\r\n\r\n    /**\r\n     * a registry function that iis been called by the NFT registry smart contract\r\n     */\r\n\r\n    constructor(\r\n        string memory _name,\r\n        string memory _symbol,\r\n        string memory _description,\r\n        string memory _uri,\r\n        address _caller,\r\n        bool _isPrivate\r\n    ) ERC721(_name, _symbol) {\r\n        Artname = _name;\r\n        Artsymbol = _symbol;\r\n        Artdescription = _description;\r\n        Arturi = _uri;\r\n        Artcreator = _caller;\r\n        isPrivate = _isPrivate;\r\n        totalTokens = 0;\r\n    }\r\n\r\n    /**\r\n     * this function helps with queries to Fetch the metadata for a givine token id\r\n     */\r\n    function getMetadataAtID(uint256 _tokenId)\r\n        public\r\n        view\r\n        returns (string memory)\r\n    {\r\n        return tokenIdToMetadata[_tokenId];\r\n    }\r\n\r\n    /**\r\n     * this function helps with queries to Fetch all the tokens that the address owns by givine address\r\n     */\r\n    function tokensOf(address _owner) public view returns (uint256[] memory) {\r\n        require(_owner != address(0), \"invalid owner\");\r\n        return ownedTokens[_owner];\r\n    }\r\n\r\n    /**\r\n     * this function allows to approve more than one token id at once\r\n     */\r\n    function approveMany(address _to, uint256[] memory _tokenIds) public {\r\n        /* Allows bulk-approval of many tokens. This function is useful for\r\n      exchanges where users can make a single tx to enable the call of\r\n      transferFrom for those tokens by an exchange contract. */\r\n        for (uint256 i = 0; i < _tokenIds.length; i++) {\r\n            // approve handles the check for if one who is approving is the owner.\r\n            approve(_to, _tokenIds[i]);\r\n        }\r\n    }\r\n\r\n    /**\r\n     * this function allows to approve all the tokens the address owns at once\r\n     */\r\n    function approveAll(address _to) public {\r\n        uint256[] memory tokens = tokensOf(msg.sender);\r\n        for (uint256 t = 0; t < tokens.length; t++) {\r\n            approve(_to, tokens[t]);\r\n        }\r\n    }\r\n\r\n    /**\r\n     * this overload function allows to transfer tokens and updates all the mapping queries(without filling the URI)\r\n     */\r\n    function safeTransferFrom(\r\n        address from,\r\n        address to,\r\n        uint256 tokenId\r\n    ) public virtual override {\r\n        require(\r\n            _isApprovedOrOwner(_msgSender(), tokenId),\r\n            \"ERC721: transfer caller is not owner nor approved\"\r\n        );\r\n        require(from != address(0), \"invalid address\");\r\n        require(to != address(0), \"invalid address\");\r\n        _safeTransfer(from, to, tokenId, \"\");\r\n        uint256[] memory fromIds = ownedTokens[from];\r\n        uint256[] memory newFromIds = new uint256[](fromIds.length - 1);\r\n        uint256[] storage toIds = ownedTokens[to];\r\n        toIds.push(tokenId);\r\n        ownedTokens[to] = toIds;\r\n        uint256 j = 0;\r\n        for (uint256 i = 0; i < fromIds.length; i++) {\r\n            if (fromIds[i] != tokenId) newFromIds[j++] = (fromIds[i]);\r\n        }\r\n        ownedTokens[from] = newFromIds;\r\n    }\r\n\r\n    /**\r\n     * this function allows to mint more of your Art\r\n     */\r\n    function mint(\r\n        string memory url,\r\n        string memory tokenSymbol,\r\n        uint256 amount\r\n    ) public {\r\n        require(msg.sender == Artcreator);\r\n        totalTokens = totalSupply().add(1);\r\n        // The index of the newest token is at the # totalTokens.\r\n        _mint(msg.sender, totalTokens);\r\n        // assign address to array of owned tokens aned you can qury what ids the address owns\r\n        uint256[] storage ids = ownedTokens[msg.sender];\r\n        ids.push(totalTokens);\r\n        ownedTokens[msg.sender] = ids;\r\n        // _mint() call adds 1 to total tokens, but we want the token at index - 1\r\n        tokenIdToMetadata[totalTokens] = url;\r\n\r\n        ERC20 acceptedToken = ERC20(acceptedTokens[tokenSymbol]);\r\n        if (acceptedToken != cifiTokenContractTest) {\r\n            cifiTokenContractTest.transferFrom(\r\n                msg.sender,\r\n                feeWallet,\r\n                feeAmount\r\n            );\r\n        }\r\n        acceptedToken.transferFrom(msg.sender, address(this), feeAmount);\r\n        tokenID_symbol[totalTokens] = tokenSymbol;\r\n        tokenID_amount[totalTokens] = amount;\r\n\r\n        emit Mint(url, totalTokens, tokenSymbol, amount);\r\n    }\r\n\r\n    /**\r\n     * this function allows you to change the Registry privacy if its false it will change to true, if its true it will change to false\r\n     */\r\n\r\n    function changeGalleryPrivacy() public {\r\n        require(msg.sender == Artcreator);\r\n        if (isPrivate == true) {\r\n            isPrivate = false;\r\n        } else if (isPrivate == false) {\r\n            isPrivate = true;\r\n        }\r\n    }\r\n\r\n    /**\r\n     * this function allows you burn your Art\r\n     */\r\n    function burn(uint256 _id) public returns (bool) {\r\n        address owner = ownerOf(_id);\r\n        string memory tokenSymbol = tokenID_symbol[_id];\r\n        uint256 amount = tokenID_amount[_id];\r\n        ERC20 acceptedToken = ERC20(acceptedTokens[tokenSymbol]);\r\n        acceptedToken.transferFrom(address(this), owner, amount);\r\n        _burn(_id);\r\n        return true;\r\n    }\r\n\r\n    function getTotalTokens() public view returns (uint256) {\r\n        return totalTokens;\r\n    }\r\n\r\n    function addAcceptedToken(\r\n        address acceptedTokenAddress,\r\n        string memory acceptedTokenSymbol\r\n    ) public onlyOwner returns (bool) {\r\n        acceptedTokens[acceptedTokenSymbol] = acceptedTokenAddress;\r\n        acceptedTokenSymbols.push(acceptedTokenSymbol);\r\n        return true;\r\n    }\r\n}\r\n",
  "sourcePath": "F:/MyWork/LianHe/Citizen/ArtGallery/src/contracts/TokenizedArtFactory.sol",
  "compiler": {
    "name": "solc",
    "version": "0.7.4+commit.3f05b770.Emscripten.clang"
  },
  "schemaVersion": "3.3.4",
  "updatedAt": "2021-06-10T13:18:08.125Z",
  "devdoc": {
    "kind": "dev",
    "methods": {
      "approve(address,uint256)": {
        "details": "See {IERC721-approve}."
      },
      "balanceOf(address)": {
        "details": "See {IERC721-balanceOf}."
      },
      "baseURI()": {
        "details": "Returns the base URI set via {_setBaseURI}. This will be automatically added as a prefix in {tokenURI} to each token's URI, or to the token ID if no specific URI is set for that token ID."
      },
      "getApproved(uint256)": {
        "details": "See {IERC721-getApproved}."
      },
      "isApprovedForAll(address,address)": {
        "details": "See {IERC721-isApprovedForAll}."
      },
      "name()": {
        "details": "See {IERC721Metadata-name}."
      },
      "owner()": {
        "details": "Returns the address of the current owner."
      },
      "ownerOf(uint256)": {
        "details": "See {IERC721-ownerOf}."
      },
      "renounceOwnership()": {
        "details": "Leaves the contract without owner. It will not be possible to call `onlyOwner` functions anymore. Can only be called by the current owner. NOTE: Renouncing ownership will leave the contract without an owner, thereby removing any functionality that is only available to the owner."
      },
      "safeTransferFrom(address,address,uint256,bytes)": {
        "details": "See {IERC721-safeTransferFrom}."
      },
      "setApprovalForAll(address,bool)": {
        "details": "See {IERC721-setApprovalForAll}."
      },
      "supportsInterface(bytes4)": {
        "details": "See {IERC165-supportsInterface}. Time complexity O(1), guaranteed to always use less than 30 000 gas."
      },
      "symbol()": {
        "details": "See {IERC721Metadata-symbol}."
      },
      "tokenByIndex(uint256)": {
        "details": "See {IERC721Enumerable-tokenByIndex}."
      },
      "tokenOfOwnerByIndex(address,uint256)": {
        "details": "See {IERC721Enumerable-tokenOfOwnerByIndex}."
      },
      "tokenURI(uint256)": {
        "details": "See {IERC721Metadata-tokenURI}."
      },
      "totalSupply()": {
        "details": "See {IERC721Enumerable-totalSupply}."
      },
      "transferFrom(address,address,uint256)": {
        "details": "See {IERC721-transferFrom}."
      },
      "transferOwnership(address)": {
        "details": "Transfers ownership of the contract to a new account (`newOwner`). Can only be called by the current owner."
      }
    },
    "version": 1
  },
  "userdoc": {
    "kind": "user",
    "methods": {
      "approveAll(address)": {
        "notice": "this function allows to approve all the tokens the address owns at once"
      },
      "approveMany(address,uint256[])": {
        "notice": "this function allows to approve more than one token id at once"
      },
      "burn(uint256)": {
        "notice": "this function allows you burn your Art"
      },
      "changeGalleryPrivacy()": {
        "notice": "this function allows you to change the Registry privacy if its false it will change to true, if its true it will change to false"
      },
      "constructor": {
        "notice": "a registry function that iis been called by the NFT registry smart contract"
      },
      "getMetadataAtID(uint256)": {
        "notice": "this function helps with queries to Fetch the metadata for a givine token id"
      },
      "mint(string,string,uint256)": {
        "notice": "this function allows to mint more of your Art"
      },
      "safeTransferFrom(address,address,uint256)": {
        "notice": "this overload function allows to transfer tokens and updates all the mapping queries(without filling the URI)"
      },
      "tokensOf(address)": {
        "notice": "this function helps with queries to Fetch all the tokens that the address owns by givine address"
      }
    },
    "version": 1
  }
}