{
  "contractName": "TokenizedArt",
  "abi": [
    {
      "inputs": [],
      "stateMutability": "nonpayable",
      "type": "constructor"
    },
    {
      "anonymous": false,
      "inputs": [
        {
          "indexed": true,
          "internalType": "address",
          "name": "owner",
          "type": "address"
        },
        {
          "indexed": true,
          "internalType": "address",
          "name": "approved",
          "type": "address"
        },
        {
          "indexed": true,
          "internalType": "uint256",
          "name": "tokenId",
          "type": "uint256"
        }
      ],
      "name": "Approval",
      "type": "event"
    },
    {
      "anonymous": false,
      "inputs": [
        {
          "indexed": true,
          "internalType": "address",
          "name": "owner",
          "type": "address"
        },
        {
          "indexed": true,
          "internalType": "address",
          "name": "operator",
          "type": "address"
        },
        {
          "indexed": false,
          "internalType": "bool",
          "name": "approved",
          "type": "bool"
        }
      ],
      "name": "ApprovalForAll",
      "type": "event"
    },
    {
      "anonymous": false,
      "inputs": [
        {
          "indexed": true,
          "internalType": "address",
          "name": "_owner",
          "type": "address"
        },
        {
          "indexed": false,
          "internalType": "uint256",
          "name": "_tokenId",
          "type": "uint256"
        },
        {
          "indexed": false,
          "internalType": "string",
          "name": "_url",
          "type": "string"
        }
      ],
      "name": "MetadataAssigned",
      "type": "event"
    },
    {
      "anonymous": false,
      "inputs": [
        {
          "indexed": false,
          "internalType": "string",
          "name": "url",
          "type": "string"
        },
        {
          "indexed": false,
          "internalType": "uint256",
          "name": "tokenId",
          "type": "uint256"
        },
        {
          "indexed": false,
          "internalType": "string",
          "name": "symbol",
          "type": "string"
        },
        {
          "indexed": false,
          "internalType": "uint256",
          "name": "amount",
          "type": "uint256"
        }
      ],
      "name": "Mint",
      "type": "event"
    },
    {
      "anonymous": false,
      "inputs": [
        {
          "indexed": true,
          "internalType": "address",
          "name": "previousOwner",
          "type": "address"
        },
        {
          "indexed": true,
          "internalType": "address",
          "name": "newOwner",
          "type": "address"
        }
      ],
      "name": "OwnershipTransferred",
      "type": "event"
    },
    {
      "anonymous": false,
      "inputs": [
        {
          "indexed": true,
          "internalType": "bytes32",
          "name": "role",
          "type": "bytes32"
        },
        {
          "indexed": true,
          "internalType": "bytes32",
          "name": "previousAdminRole",
          "type": "bytes32"
        },
        {
          "indexed": true,
          "internalType": "bytes32",
          "name": "newAdminRole",
          "type": "bytes32"
        }
      ],
      "name": "RoleAdminChanged",
      "type": "event"
    },
    {
      "anonymous": false,
      "inputs": [
        {
          "indexed": true,
          "internalType": "bytes32",
          "name": "role",
          "type": "bytes32"
        },
        {
          "indexed": true,
          "internalType": "address",
          "name": "account",
          "type": "address"
        },
        {
          "indexed": true,
          "internalType": "address",
          "name": "sender",
          "type": "address"
        }
      ],
      "name": "RoleGranted",
      "type": "event"
    },
    {
      "anonymous": false,
      "inputs": [
        {
          "indexed": true,
          "internalType": "bytes32",
          "name": "role",
          "type": "bytes32"
        },
        {
          "indexed": true,
          "internalType": "address",
          "name": "account",
          "type": "address"
        },
        {
          "indexed": true,
          "internalType": "address",
          "name": "sender",
          "type": "address"
        }
      ],
      "name": "RoleRevoked",
      "type": "event"
    },
    {
      "anonymous": false,
      "inputs": [
        {
          "indexed": true,
          "internalType": "address",
          "name": "from",
          "type": "address"
        },
        {
          "indexed": true,
          "internalType": "address",
          "name": "to",
          "type": "address"
        },
        {
          "indexed": true,
          "internalType": "uint256",
          "name": "tokenId",
          "type": "uint256"
        }
      ],
      "name": "Transfer",
      "type": "event"
    },
    {
      "inputs": [],
      "name": "Artcreator",
      "outputs": [
        {
          "internalType": "address",
          "name": "",
          "type": "address"
        }
      ],
      "stateMutability": "view",
      "type": "function"
    },
    {
      "inputs": [],
      "name": "Artdescription",
      "outputs": [
        {
          "internalType": "string",
          "name": "",
          "type": "string"
        }
      ],
      "stateMutability": "view",
      "type": "function"
    },
    {
      "inputs": [],
      "name": "Artname",
      "outputs": [
        {
          "internalType": "string",
          "name": "",
          "type": "string"
        }
      ],
      "stateMutability": "view",
      "type": "function"
    },
    {
      "inputs": [],
      "name": "Artsymbol",
      "outputs": [
        {
          "internalType": "string",
          "name": "",
          "type": "string"
        }
      ],
      "stateMutability": "view",
      "type": "function"
    },
    {
      "inputs": [],
      "name": "Arturi",
      "outputs": [
        {
          "internalType": "string",
          "name": "",
          "type": "string"
        }
      ],
      "stateMutability": "view",
      "type": "function"
    },
    {
      "inputs": [],
      "name": "DEFAULT_ADMIN_ROLE",
      "outputs": [
        {
          "internalType": "bytes32",
          "name": "",
          "type": "bytes32"
        }
      ],
      "stateMutability": "view",
      "type": "function"
    },
    {
      "inputs": [
        {
          "internalType": "uint256",
          "name": "",
          "type": "uint256"
        }
      ],
      "name": "acceptedTokenSymbols",
      "outputs": [
        {
          "internalType": "string",
          "name": "",
          "type": "string"
        }
      ],
      "stateMutability": "view",
      "type": "function"
    },
    {
      "inputs": [
        {
          "internalType": "address",
          "name": "to",
          "type": "address"
        },
        {
          "internalType": "uint256",
          "name": "tokenId",
          "type": "uint256"
        }
      ],
      "name": "approve",
      "outputs": [],
      "stateMutability": "nonpayable",
      "type": "function"
    },
    {
      "inputs": [
        {
          "internalType": "address",
          "name": "owner",
          "type": "address"
        }
      ],
      "name": "balanceOf",
      "outputs": [
        {
          "internalType": "uint256",
          "name": "",
          "type": "uint256"
        }
      ],
      "stateMutability": "view",
      "type": "function"
    },
    {
      "inputs": [],
      "name": "baseURI",
      "outputs": [
        {
          "internalType": "string",
          "name": "",
          "type": "string"
        }
      ],
      "stateMutability": "view",
      "type": "function"
    },
    {
      "inputs": [],
      "name": "feeAmount",
      "outputs": [
        {
          "internalType": "uint256",
          "name": "",
          "type": "uint256"
        }
      ],
      "stateMutability": "view",
      "type": "function"
    },
    {
      "inputs": [
        {
          "internalType": "uint256",
          "name": "tokenId",
          "type": "uint256"
        }
      ],
      "name": "getApproved",
      "outputs": [
        {
          "internalType": "address",
          "name": "",
          "type": "address"
        }
      ],
      "stateMutability": "view",
      "type": "function"
    },
    {
      "inputs": [
        {
          "internalType": "bytes32",
          "name": "role",
          "type": "bytes32"
        }
      ],
      "name": "getRoleAdmin",
      "outputs": [
        {
          "internalType": "bytes32",
          "name": "",
          "type": "bytes32"
        }
      ],
      "stateMutability": "view",
      "type": "function"
    },
    {
      "inputs": [
        {
          "internalType": "bytes32",
          "name": "role",
          "type": "bytes32"
        },
        {
          "internalType": "uint256",
          "name": "index",
          "type": "uint256"
        }
      ],
      "name": "getRoleMember",
      "outputs": [
        {
          "internalType": "address",
          "name": "",
          "type": "address"
        }
      ],
      "stateMutability": "view",
      "type": "function"
    },
    {
      "inputs": [
        {
          "internalType": "bytes32",
          "name": "role",
          "type": "bytes32"
        }
      ],
      "name": "getRoleMemberCount",
      "outputs": [
        {
          "internalType": "uint256",
          "name": "",
          "type": "uint256"
        }
      ],
      "stateMutability": "view",
      "type": "function"
    },
    {
      "inputs": [
        {
          "internalType": "bytes32",
          "name": "role",
          "type": "bytes32"
        },
        {
          "internalType": "address",
          "name": "account",
          "type": "address"
        }
      ],
      "name": "grantRole",
      "outputs": [],
      "stateMutability": "nonpayable",
      "type": "function"
    },
    {
      "inputs": [
        {
          "internalType": "bytes32",
          "name": "role",
          "type": "bytes32"
        },
        {
          "internalType": "address",
          "name": "account",
          "type": "address"
        }
      ],
      "name": "hasRole",
      "outputs": [
        {
          "internalType": "bool",
          "name": "",
          "type": "bool"
        }
      ],
      "stateMutability": "view",
      "type": "function"
    },
    {
      "inputs": [
        {
          "internalType": "address",
          "name": "owner",
          "type": "address"
        },
        {
          "internalType": "address",
          "name": "operator",
          "type": "address"
        }
      ],
      "name": "isApprovedForAll",
      "outputs": [
        {
          "internalType": "bool",
          "name": "",
          "type": "bool"
        }
      ],
      "stateMutability": "view",
      "type": "function"
    },
    {
      "inputs": [],
      "name": "name",
      "outputs": [
        {
          "internalType": "string",
          "name": "",
          "type": "string"
        }
      ],
      "stateMutability": "view",
      "type": "function"
    },
    {
      "inputs": [],
      "name": "owner",
      "outputs": [
        {
          "internalType": "address",
          "name": "",
          "type": "address"
        }
      ],
      "stateMutability": "view",
      "type": "function"
    },
    {
      "inputs": [
        {
          "internalType": "uint256",
          "name": "tokenId",
          "type": "uint256"
        }
      ],
      "name": "ownerOf",
      "outputs": [
        {
          "internalType": "address",
          "name": "",
          "type": "address"
        }
      ],
      "stateMutability": "view",
      "type": "function"
    },
    {
      "inputs": [],
      "name": "renounceOwnership",
      "outputs": [],
      "stateMutability": "nonpayable",
      "type": "function"
    },
    {
      "inputs": [
        {
          "internalType": "bytes32",
          "name": "role",
          "type": "bytes32"
        },
        {
          "internalType": "address",
          "name": "account",
          "type": "address"
        }
      ],
      "name": "renounceRole",
      "outputs": [],
      "stateMutability": "nonpayable",
      "type": "function"
    },
    {
      "inputs": [
        {
          "internalType": "bytes32",
          "name": "role",
          "type": "bytes32"
        },
        {
          "internalType": "address",
          "name": "account",
          "type": "address"
        }
      ],
      "name": "revokeRole",
      "outputs": [],
      "stateMutability": "nonpayable",
      "type": "function"
    },
    {
      "inputs": [
        {
          "internalType": "address",
          "name": "operator",
          "type": "address"
        },
        {
          "internalType": "bool",
          "name": "approved",
          "type": "bool"
        }
      ],
      "name": "setApprovalForAll",
      "outputs": [],
      "stateMutability": "nonpayable",
      "type": "function"
    },
    {
      "inputs": [
        {
          "internalType": "bytes4",
          "name": "interfaceId",
          "type": "bytes4"
        }
      ],
      "name": "supportsInterface",
      "outputs": [
        {
          "internalType": "bool",
          "name": "",
          "type": "bool"
        }
      ],
      "stateMutability": "view",
      "type": "function"
    },
    {
      "inputs": [],
      "name": "symbol",
      "outputs": [
        {
          "internalType": "string",
          "name": "",
          "type": "string"
        }
      ],
      "stateMutability": "view",
      "type": "function"
    },
    {
      "inputs": [
        {
          "internalType": "uint256",
          "name": "index",
          "type": "uint256"
        }
      ],
      "name": "tokenByIndex",
      "outputs": [
        {
          "internalType": "uint256",
          "name": "",
          "type": "uint256"
        }
      ],
      "stateMutability": "view",
      "type": "function"
    },
    {
      "inputs": [
        {
          "internalType": "address",
          "name": "owner",
          "type": "address"
        },
        {
          "internalType": "uint256",
          "name": "index",
          "type": "uint256"
        }
      ],
      "name": "tokenOfOwnerByIndex",
      "outputs": [
        {
          "internalType": "uint256",
          "name": "",
          "type": "uint256"
        }
      ],
      "stateMutability": "view",
      "type": "function"
    },
    {
      "inputs": [
        {
          "internalType": "uint256",
          "name": "tokenId",
          "type": "uint256"
        }
      ],
      "name": "tokenURI",
      "outputs": [
        {
          "internalType": "string",
          "name": "",
          "type": "string"
        }
      ],
      "stateMutability": "view",
      "type": "function"
    },
    {
      "inputs": [],
      "name": "totalSupply",
      "outputs": [
        {
          "internalType": "uint256",
          "name": "",
          "type": "uint256"
        }
      ],
      "stateMutability": "view",
      "type": "function"
    },
    {
      "inputs": [
        {
          "internalType": "address",
          "name": "from",
          "type": "address"
        },
        {
          "internalType": "address",
          "name": "to",
          "type": "address"
        },
        {
          "internalType": "uint256",
          "name": "tokenId",
          "type": "uint256"
        }
      ],
      "name": "transferFrom",
      "outputs": [],
      "stateMutability": "nonpayable",
      "type": "function"
    },
    {
      "inputs": [
        {
          "internalType": "address",
          "name": "newOwner",
          "type": "address"
        }
      ],
      "name": "transferOwnership",
      "outputs": [],
      "stateMutability": "nonpayable",
      "type": "function"
    },
    {
      "inputs": [
        {
          "internalType": "uint256",
          "name": "id",
          "type": "uint256"
        },
        {
          "internalType": "string",
          "name": "uri",
          "type": "string"
        }
      ],
      "name": "assignDataToToken",
      "outputs": [],
      "stateMutability": "nonpayable",
      "type": "function"
    },
    {
      "inputs": [
        {
          "internalType": "uint256",
          "name": "_tokenId",
          "type": "uint256"
        }
      ],
      "name": "getMetadataAtID",
      "outputs": [
        {
          "internalType": "string",
          "name": "",
          "type": "string"
        }
      ],
      "stateMutability": "view",
      "type": "function"
    },
    {
      "inputs": [
        {
          "internalType": "address",
          "name": "_owner",
          "type": "address"
        }
      ],
      "name": "tokensOf",
      "outputs": [
        {
          "internalType": "uint256[]",
          "name": "",
          "type": "uint256[]"
        }
      ],
      "stateMutability": "view",
      "type": "function"
    },
    {
      "inputs": [
        {
          "internalType": "address",
          "name": "_to",
          "type": "address"
        },
        {
          "internalType": "uint256[]",
          "name": "_tokenIds",
          "type": "uint256[]"
        }
      ],
      "name": "approveMany",
      "outputs": [],
      "stateMutability": "nonpayable",
      "type": "function"
    },
    {
      "inputs": [
        {
          "internalType": "address",
          "name": "_to",
          "type": "address"
        }
      ],
      "name": "approveAll",
      "outputs": [],
      "stateMutability": "nonpayable",
      "type": "function"
    },
    {
      "inputs": [
        {
          "internalType": "address",
          "name": "from",
          "type": "address"
        },
        {
          "internalType": "address",
          "name": "to",
          "type": "address"
        },
        {
          "internalType": "uint256",
          "name": "tokenId",
          "type": "uint256"
        }
      ],
      "name": "safeTransferFrom",
      "outputs": [],
      "stateMutability": "nonpayable",
      "type": "function"
    },
    {
      "inputs": [
        {
          "internalType": "address",
          "name": "from",
          "type": "address"
        },
        {
          "internalType": "address",
          "name": "to",
          "type": "address"
        },
        {
          "internalType": "uint256",
          "name": "tokenId",
          "type": "uint256"
        },
        {
          "internalType": "bytes",
          "name": "_data",
          "type": "bytes"
        }
      ],
      "name": "safeTransferFrom",
      "outputs": [],
      "stateMutability": "nonpayable",
      "type": "function"
    },
    {
      "inputs": [
        {
          "internalType": "string",
          "name": "url",
          "type": "string"
        },
        {
          "internalType": "string",
          "name": "tokenSymbol",
          "type": "string"
        },
        {
          "internalType": "uint256",
          "name": "amount",
          "type": "uint256"
        }
      ],
      "name": "mint",
      "outputs": [],
      "stateMutability": "nonpayable",
      "type": "function"
    },
    {
      "inputs": [
        {
          "internalType": "uint256",
          "name": "_id",
          "type": "uint256"
        }
      ],
      "name": "burn",
      "outputs": [
        {
          "internalType": "bool",
          "name": "",
          "type": "bool"
        }
      ],
      "stateMutability": "nonpayable",
      "type": "function"
    },
    {
      "inputs": [
        {
          "internalType": "address",
          "name": "acceptedTokenAddress",
          "type": "address"
        },
        {
          "internalType": "string",
          "name": "acceptedTokenSymbol",
          "type": "string"
        }
      ],
      "name": "addAcceptedToken",
      "outputs": [
        {
          "internalType": "bool",
          "name": "",
          "type": "bool"
        }
      ],
      "stateMutability": "nonpayable",
      "type": "function"
    }
  ],
  "bytecode": "0x608060405273e56ab536c90e5a8f06524ea639be9cb3589b8146600c60006101000a81548173ffffffffffffffffffffffffffffffffffffffff021916908373ffffffffffffffffffffffffffffffffffffffff1602179055506064600d55600c60009054906101000a900473ffffffffffffffffffffffffffffffffffffffff1673ffffffffffffffffffffffffffffffffffffffff1663313ce5676040518163ffffffff1660e01b815260040160206040518083038186803b158015620000c757600080fd5b505afa158015620000dc573d6000803e3d6000fd5b505050506040513d601f19601f8201168201806040525081019062000102919062000991565b600e60006101000a81548160ff021916908360ff16021790555062000167606462000153600e60009054906101000a900460ff1660ff16600a0a600d546200050e60201b62002c641790919060201c565b6200059960201b62002cea1790919060201c565b600f556000601060006101000a81548173ffffffffffffffffffffffffffffffffffffffff021916908373ffffffffffffffffffffffffffffffffffffffff1602179055506000601555348015620001be57600080fd5b506040518060400160405280600c81526020017f546f6b656e697a656441727400000000000000000000000000000000000000008152506040518060400160405280600581526020017f63504f5741000000000000000000000000000000000000000000000000000000815250620002436301ffc9a760e01b6200062460201b60201c565b81600690805190602001906200025b929190620008c4565b50806007908051906020019062000274929190620008c4565b506200028d6380ac58cd60e01b6200062460201b60201c565b620002a5635b5e139f60e01b6200062460201b60201c565b620002bd63780e9d6360e01b6200062460201b60201c565b50506000620002d16200072d60201b60201c565b905080600b60006101000a81548173ffffffffffffffffffffffffffffffffffffffff021916908373ffffffffffffffffffffffffffffffffffffffff1602179055508073ffffffffffffffffffffffffffffffffffffffff16600073ffffffffffffffffffffffffffffffffffffffff167f8be0079c531659141344cd1fd0a4f28419497f9722a3daafe3b4186f6b6457e060405160405180910390a3506040518060400160405280600c81526020017f546f6b656e697a6564417274000000000000000000000000000000000000000081525060119080519060200190620003bd929190620008c4565b506040518060400160405280600581526020017f63504f5741000000000000000000000000000000000000000000000000000000815250601290805190602001906200040b929190620008c4565b506040518060400160405280600c81526020017f546f6b656e697a656441727400000000000000000000000000000000000000008152506013908051906020019062000459929190620008c4565b506040518060600160405280602481526020016200626f60249139601490805190602001906200048b929190620008c4565b506200049c6200072d60201b60201c565b601660006101000a81548173ffffffffffffffffffffffffffffffffffffffff021916908373ffffffffffffffffffffffffffffffffffffffff1602179055506000601581905550620005086000801b620004fc6200072d60201b60201c565b6200073560201b60201c565b620009e4565b60008083141562000523576000905062000593565b60008284029050828482816200053557fe5b04146200058e576040517f08c379a0000000000000000000000000000000000000000000000000000000008152600401808060200182810382526021815260200180620062936021913960400191505060405180910390fd5b809150505b92915050565b600080821162000611576040517f08c379a000000000000000000000000000000000000000000000000000000000815260040180806020018281038252601a8152602001807f536166654d6174683a206469766973696f6e206279207a65726f00000000000081525060200191505060405180910390fd5b8183816200061b57fe5b04905092915050565b63ffffffff60e01b817bffffffffffffffffffffffffffffffffffffffffffffffffffffffff19161415620006c1576040517f08c379a000000000000000000000000000000000000000000000000000000000815260040180806020018281038252601c8152602001807f4552433136353a20696e76616c696420696e746572666163652069640000000081525060200191505060405180910390fd5b6001600080837bffffffffffffffffffffffffffffffffffffffffffffffffffffffff19167bffffffffffffffffffffffffffffffffffffffffffffffffffffffff1916815260200190815260200160002060006101000a81548160ff02191690831515021790555050565b600033905090565b6200074782826200074b60201b60201c565b5050565b6200077a81600a6000858152602001908152602001600020600001620007ef60201b62002d731790919060201c565b15620007eb57620007906200072d60201b60201c565b73ffffffffffffffffffffffffffffffffffffffff168173ffffffffffffffffffffffffffffffffffffffff16837f2f8788117e7eff1d82e926ec794901d17c78024a50270940304540a733656f0d60405160405180910390a45b5050565b60006200081f836000018373ffffffffffffffffffffffffffffffffffffffff1660001b6200082760201b60201c565b905092915050565b60006200083b8383620008a160201b60201c565b620008965782600001829080600181540180825580915050600190039060005260206000200160009091909190915055826000018054905083600101600084815260200190815260200160002081905550600190506200089b565b600090505b92915050565b600080836001016000848152602001908152602001600020541415905092915050565b828054600181600116156101000203166002900490600052602060002090601f016020900481019282620008fc576000855562000948565b82601f106200091757805160ff191683800117855562000948565b8280016001018555821562000948579182015b82811115620009475782518255916020019190600101906200092a565b5b5090506200095791906200095b565b5090565b5b80821115620009765760008160009055506001016200095c565b5090565b6000815190506200098b81620009ca565b92915050565b600060208284031215620009a457600080fd5b6000620009b4848285016200097a565b91505092915050565b600060ff82169050919050565b620009d581620009bd565b8114620009e157600080fd5b50565b61587b80620009f46000396000f3fe608060405234801561001057600080fd5b50600436106102695760003560e01c806370a0823111610151578063b88d4fde116100c3578063d41d9a2711610087578063d41d9a27146107ac578063d547741f146107c8578063e268cd24146107e4578063e69c20cf14610814578063e985e9c514610830578063f2fde38b1461086057610269565b8063b88d4fde146106f4578063c87b56dd14610710578063ca15c87314610740578063cc41103a14610770578063d1e3fe611461078e57610269565b806391d148541161011557806391d148541461063257806395d89b411461066257806399bb813414610680578063a217fddf1461069c578063a22cb465146106ba578063a7aca43c146106d657610269565b806370a082311461058c578063715018a6146105bc5780637b31a4d8146105c65780638da5cb5b146105e45780639010d07c1461060257610269565b80632f2ff15d116101ea57806342966c68116101ae57806342966c68146104905780634f6ccce7146104c05780635a3f2672146104f05780636352211e1461052057806369e15404146105505780636c0360eb1461056e57610269565b80632f2ff15d146103dc5780632f745c59146103f8578063304149d81461042857806336568abe1461045857806342842e0e1461047457610269565b80631272a913116102315780631272a9131461032457806318160ddd1461035457806323b872dd14610372578063248a9ca31461038e57806329360ff1146103be57610269565b806301ffc9a71461026e5780630621472c1461029e57806306fdde03146102ba578063081812fc146102d8578063095ea7b314610308575b600080fd5b61028860048036038101906102839190614cc2565b61087c565b604051610295919061511e565b60405180910390f35b6102b860048036038101906102b391906149a9565b6108e3565b005b6102c261092b565b6040516102cf9190615154565b60405180910390f35b6102f260048036038101906102ed9190614d6a565b6109cd565b6040516102ff9190615073565b60405180910390f35b610322600480360381019061031d9190614bbc565b610a68565b005b61033e60048036038101906103399190614d6a565b610bac565b60405161034b9190615154565b60405180910390f35b61035c610c68565b6040516103699190615229565b60405180910390f35b61038c60048036038101906103879190614a0e565b610c79565b005b6103a860048036038101906103a39190614c21565b610cef565b6040516103b59190615139565b60405180910390f35b6103c6610d0f565b6040516103d39190615154565b60405180910390f35b6103f660048036038101906103f19190614c4a565b610dad565b005b610412600480360381019061040d9190614bbc565b610e37565b60405161041f9190615229565b60405180910390f35b610442600480360381019061043d9190614b68565b610e92565b60405161044f919061511e565b60405180910390f35b610472600480360381019061046d9190614c4a565b610fe6565b005b61048e60048036038101906104899190614a0e565b61107f565b005b6104aa60048036038101906104a59190614d6a565b61117f565b6040516104b7919061511e565b60405180910390f35b6104da60048036038101906104d59190614d6a565b61133e565b6040516104e79190615229565b60405180910390f35b61050a600480360381019061050591906149a9565b611361565b60405161051791906150fc565b60405180910390f35b61053a60048036038101906105359190614d6a565b611468565b6040516105479190615073565b60405180910390f35b61055861149f565b6040516105659190615229565b60405180910390f35b6105766114a5565b6040516105839190615154565b60405180910390f35b6105a660048036038101906105a191906149a9565b611547565b6040516105b39190615229565b60405180910390f35b6105c461161c565b005b6105ce61178c565b6040516105db9190615154565b60405180910390f35b6105ec61182a565b6040516105f99190615073565b60405180910390f35b61061c60048036038101906106179190614c86565b611854565b6040516106299190615073565b60405180910390f35b61064c60048036038101906106479190614c4a565b611886565b604051610659919061511e565b60405180910390f35b61066a6118b8565b6040516106779190615154565b60405180910390f35b61069a60048036038101906106959190614ad8565b61195a565b005b6106a4611995565b6040516106b19190615139565b60405180910390f35b6106d460048036038101906106cf9190614b2c565b61199c565b005b6106de611b52565b6040516106eb9190615073565b60405180910390f35b61070e60048036038101906107099190614a5d565b611b78565b005b61072a60048036038101906107259190614d6a565b611f15565b6040516107379190615154565b60405180910390f35b61075a60048036038101906107559190614c21565b6121e6565b6040516107679190615229565b60405180910390f35b61077861220d565b6040516107859190615154565b60405180910390f35b6107966122ab565b6040516107a39190615154565b60405180910390f35b6107c660048036038101906107c19190614ceb565b612349565b005b6107e260048036038101906107dd9190614c4a565b6126da565b005b6107fe60048036038101906107f99190614d6a565b612764565b60405161080b9190615154565b60405180910390f35b61082e60048036038101906108299190614d93565b612819565b005b61084a600480360381019061084591906149d2565b6129db565b604051610857919061511e565b60405180910390f35b61087a600480360381019061087591906149a9565b612a6f565b005b6000806000837bffffffffffffffffffffffffffffffffffffffffffffffffffffffff19167bffffffffffffffffffffffffffffffffffffffffffffffffffffffff1916815260200190815260200160002060009054906101000a900460ff169050919050565b60606108ee33611361565b905060005b8151811015610926576109198383838151811061090c57fe5b6020026020010151610a68565b80806001019150506108f3565b505050565b606060068054600181600116156101000203166002900480601f0160208091040260200160405190810160405280929190818152602001828054600181600116156101000203166002900480156109c35780601f10610998576101008083540402835291602001916109c3565b820191906000526020600020905b8154815290600101906020018083116109a657829003601f168201915b5050505050905090565b60006109d882612da3565b610a2d576040517f08c379a000000000000000000000000000000000000000000000000000000000815260040180806020018281038252602c815260200180615741602c913960400191505060405180910390fd5b6004600083815260200190815260200160002060009054906101000a900473ffffffffffffffffffffffffffffffffffffffff169050919050565b6000610a7382611468565b90508073ffffffffffffffffffffffffffffffffffffffff168373ffffffffffffffffffffffffffffffffffffffff161415610afa576040517f08c379a00000000000000000000000000000000000000000000000000000000081526004018080602001828103825260218152602001806157c56021913960400191505060405180910390fd5b8073ffffffffffffffffffffffffffffffffffffffff16610b19612dc0565b73ffffffffffffffffffffffffffffffffffffffff161480610b485750610b4781610b42612dc0565b6129db565b5b610b9d576040517f08c379a00000000000000000000000000000000000000000000000000000000081526004018080602001828103825260388152602001806156736038913960400191505060405180910390fd5b610ba78383612dc8565b505050565b601c8181548110610bbc57600080fd5b906000526020600020016000915090508054600181600116156101000203166002900480601f016020809104026020016040519081016040528092919081815260200182805460018160011615610100020316600290048015610c605780601f10610c3557610100808354040283529160200191610c60565b820191906000526020600020905b815481529060010190602001808311610c4357829003601f168201915b505050505081565b6000610c746002612e81565b905090565b610c8a610c84612dc0565b82612e96565b610cdf576040517f08c379a00000000000000000000000000000000000000000000000000000000081526004018080602001828103825260318152602001806157e66031913960400191505060405180910390fd5b610cea838383612f8a565b505050565b6000600a6000838152602001908152602001600020600201549050919050565b60118054600181600116156101000203166002900480601f016020809104026020016040519081016040528092919081815260200182805460018160011615610100020316600290048015610da55780601f10610d7a57610100808354040283529160200191610da5565b820191906000526020600020905b815481529060010190602001808311610d8857829003601f168201915b505050505081565b610dd4600a600084815260200190815260200160002060020154610dcf612dc0565b611886565b610e29576040517f08c379a000000000000000000000000000000000000000000000000000000000815260040180806020018281038252602f815260200180615546602f913960400191505060405180910390fd5b610e3382826131cd565b5050565b6000610e8a82600160008673ffffffffffffffffffffffffffffffffffffffff1673ffffffffffffffffffffffffffffffffffffffff16815260200190815260200160002061326190919063ffffffff16565b905092915050565b6000610e9c612dc0565b73ffffffffffffffffffffffffffffffffffffffff16610eba61182a565b73ffffffffffffffffffffffffffffffffffffffff1614610f43576040517f08c379a00000000000000000000000000000000000000000000000000000000081526004018080602001828103825260208152602001807f4f776e61626c653a2063616c6c6572206973206e6f7420746865206f776e657281525060200191505060405180910390fd5b82601b83604051610f54919061505c565b908152602001604051809103902060006101000a81548173ffffffffffffffffffffffffffffffffffffffff021916908373ffffffffffffffffffffffffffffffffffffffff160217905550601c82908060018154018082558091505060019003906000526020600020016000909190919091509080519060200190610fdb92919061466e565b506001905092915050565b610fee612dc0565b73ffffffffffffffffffffffffffffffffffffffff168173ffffffffffffffffffffffffffffffffffffffff1614611071576040517f08c379a000000000000000000000000000000000000000000000000000000000815260040180806020018281038252602f815260200180615817602f913960400191505060405180910390fd5b61107b828261327b565b5050565b600073ffffffffffffffffffffffffffffffffffffffff168373ffffffffffffffffffffffffffffffffffffffff1614156110ef576040517f08c379a00000000000000000000000000000000000000000000000000000000081526004016110e6906151e9565b60405180910390fd5b600073ffffffffffffffffffffffffffffffffffffffff168273ffffffffffffffffffffffffffffffffffffffff16141561115f576040517f08c379a0000000000000000000000000000000000000000000000000000000008152600401611156906151e9565b60405180910390fd5b61117a83838360405180602001604052806000815250611b78565b505050565b60008061118b83611468565b90506060601960008581526020019081526020016000208054600181600116156101000203166002900480601f0160208091040260200160405190810160405280929190818152602001828054600181600116156101000203166002900480156112365780601f1061120b57610100808354040283529160200191611236565b820191906000526020600020905b81548152906001019060200180831161121957829003601f168201915b505050505090506000601a60008681526020019081526020016000205490506000601b83604051611267919061505c565b908152602001604051809103902060009054906101000a900473ffffffffffffffffffffffffffffffffffffffff1690508073ffffffffffffffffffffffffffffffffffffffff166323b872dd3086856040518463ffffffff1660e01b81526004016112d5939291906150c5565b602060405180830381600087803b1580156112ef57600080fd5b505af1158015611303573d6000803e3d6000fd5b505050506040513d601f19601f820116820180604052508101906113279190614bf8565b506113318661330f565b6001945050505050919050565b60008061135583600261344990919063ffffffff16565b50905080915050919050565b6060600073ffffffffffffffffffffffffffffffffffffffff168273ffffffffffffffffffffffffffffffffffffffff1614156113d3576040517f08c379a00000000000000000000000000000000000000000000000000000000081526004016113ca906151c9565b60405180910390fd5b601760008373ffffffffffffffffffffffffffffffffffffffff1673ffffffffffffffffffffffffffffffffffffffff16815260200190815260200160002080548060200260200160405190810160405280929190818152602001828054801561145c57602002820191906000526020600020905b815481526020019060010190808311611448575b50505050509050919050565b6000611498826040518060600160405280602981526020016156d56029913960026134759092919063ffffffff16565b9050919050565b600f5481565b606060098054600181600116156101000203166002900480601f01602080910402602001604051908101604052809291908181526020018280546001816001161561010002031660029004801561153d5780601f106115125761010080835404028352916020019161153d565b820191906000526020600020905b81548152906001019060200180831161152057829003601f168201915b5050505050905090565b60008073ffffffffffffffffffffffffffffffffffffffff168273ffffffffffffffffffffffffffffffffffffffff1614156115ce576040517f08c379a000000000000000000000000000000000000000000000000000000000815260040180806020018281038252602a8152602001806156ab602a913960400191505060405180910390fd5b611615600160008473ffffffffffffffffffffffffffffffffffffffff1673ffffffffffffffffffffffffffffffffffffffff168152602001908152602001600020613494565b9050919050565b611624612dc0565b73ffffffffffffffffffffffffffffffffffffffff1661164261182a565b73ffffffffffffffffffffffffffffffffffffffff16146116cb576040517f08c379a00000000000000000000000000000000000000000000000000000000081526004018080602001828103825260208152602001807f4f776e61626c653a2063616c6c6572206973206e6f7420746865206f776e657281525060200191505060405180910390fd5b600073ffffffffffffffffffffffffffffffffffffffff16600b60009054906101000a900473ffffffffffffffffffffffffffffffffffffffff1673ffffffffffffffffffffffffffffffffffffffff167f8be0079c531659141344cd1fd0a4f28419497f9722a3daafe3b4186f6b6457e060405160405180910390a36000600b60006101000a81548173ffffffffffffffffffffffffffffffffffffffff021916908373ffffffffffffffffffffffffffffffffffffffff160217905550565b60138054600181600116156101000203166002900480601f0160208091040260200160405190810160405280929190818152602001828054600181600116156101000203166002900480156118225780601f106117f757610100808354040283529160200191611822565b820191906000526020600020905b81548152906001019060200180831161180557829003601f168201915b505050505081565b6000600b60009054906101000a900473ffffffffffffffffffffffffffffffffffffffff16905090565b600061187e82600a60008681526020019081526020016000206000016134a990919063ffffffff16565b905092915050565b60006118b082600a60008681526020019081526020016000206000016134c390919063ffffffff16565b905092915050565b606060078054600181600116156101000203166002900480601f0160208091040260200160405190810160405280929190818152602001828054600181600116156101000203166002900480156119505780601f1061192557610100808354040283529160200191611950565b820191906000526020600020905b81548152906001019060200180831161193357829003601f168201915b5050505050905090565b60005b8151811015611990576119838383838151811061197657fe5b6020026020010151610a68565b808060010191505061195d565b505050565b6000801b81565b6119a4612dc0565b73ffffffffffffffffffffffffffffffffffffffff168273ffffffffffffffffffffffffffffffffffffffff161415611a45576040517f08c379a00000000000000000000000000000000000000000000000000000000081526004018080602001828103825260198152602001807f4552433732313a20617070726f766520746f2063616c6c65720000000000000081525060200191505060405180910390fd5b8060056000611a52612dc0565b73ffffffffffffffffffffffffffffffffffffffff1673ffffffffffffffffffffffffffffffffffffffff16815260200190815260200160002060008473ffffffffffffffffffffffffffffffffffffffff1673ffffffffffffffffffffffffffffffffffffffff16815260200190815260200160002060006101000a81548160ff0219169083151502179055508173ffffffffffffffffffffffffffffffffffffffff16611aff612dc0565b73ffffffffffffffffffffffffffffffffffffffff167f17307eab39ab6107e8899845ad3d59bd9653f200f220920489ca2b5937696c318360405180821515815260200191505060405180910390a35050565b601660009054906101000a900473ffffffffffffffffffffffffffffffffffffffff1681565b611b89611b83612dc0565b83612e96565b611bc8576040517f08c379a0000000000000000000000000000000000000000000000000000000008152600401611bbf90615209565b60405180910390fd5b600073ffffffffffffffffffffffffffffffffffffffff168473ffffffffffffffffffffffffffffffffffffffff161415611c38576040517f08c379a0000000000000000000000000000000000000000000000000000000008152600401611c2f906151e9565b60405180910390fd5b600073ffffffffffffffffffffffffffffffffffffffff168373ffffffffffffffffffffffffffffffffffffffff161415611ca8576040517f08c379a0000000000000000000000000000000000000000000000000000000008152600401611c9f906151e9565b60405180910390fd5b611cb4848484846134f3565b6060601760008673ffffffffffffffffffffffffffffffffffffffff1673ffffffffffffffffffffffffffffffffffffffff168152602001908152602001600020805480602002602001604051908101604052809291908181526020018280548015611d3f57602002820191906000526020600020905b815481526020019060010190808311611d2b575b505050505090506060600182510367ffffffffffffffff81118015611d6357600080fd5b50604051908082528060200260200182016040528015611d925781602001602082028036833780820191505090505b5090506000601760008773ffffffffffffffffffffffffffffffffffffffff1673ffffffffffffffffffffffffffffffffffffffff16815260200190815260200160002090508085908060018154018082558091505060019003906000526020600020016000909190919091505580601760008873ffffffffffffffffffffffffffffffffffffffff1673ffffffffffffffffffffffffffffffffffffffff168152602001908152602001600020908054611e4e9291906146fc565b506000805b8451811015611eb65786858281518110611e6957fe5b602002602001015114611ea957848181518110611e8257fe5b6020026020010151848380600101945081518110611e9c57fe5b6020026020010181815250505b8080600101915050611e53565b5082601760008a73ffffffffffffffffffffffffffffffffffffffff1673ffffffffffffffffffffffffffffffffffffffff1681526020019081526020016000209080519060200190611f0a92919061474e565b505050505050505050565b6060611f2082612da3565b611f75576040517f08c379a000000000000000000000000000000000000000000000000000000000815260040180806020018281038252602f815260200180615796602f913960400191505060405180910390fd5b6060600860008481526020019081526020016000208054600181600116156101000203166002900480601f01602080910402602001604051908101604052809291908181526020018280546001816001161561010002031660029004801561201e5780601f10611ff35761010080835404028352916020019161201e565b820191906000526020600020905b81548152906001019060200180831161200157829003601f168201915b50505050509050606061202f6114a5565b90506000815114156120455781925050506121e1565b6000825111156121165780826040516020018083805190602001908083835b602083106120875780518252602082019150602081019050602083039250612064565b6001836020036101000a03801982511681845116808217855250505050505090500182805190602001908083835b602083106120d857805182526020820191506020810190506020830392506120b5565b6001836020036101000a03801982511681845116808217855250505050505090500192505050604051602081830303815290604052925050506121e1565b8061212085613565565b6040516020018083805190602001908083835b602083106121565780518252602082019150602081019050602083039250612133565b6001836020036101000a03801982511681845116808217855250505050505090500182805190602001908083835b602083106121a75780518252602082019150602081019050602083039250612184565b6001836020036101000a03801982511681845116808217855250505050505090500192505050604051602081830303815290604052925050505b919050565b6000612206600a60008481526020019081526020016000206000016136ac565b9050919050565b60128054600181600116156101000203166002900480601f0160208091040260200160405190810160405280929190818152602001828054600181600116156101000203166002900480156122a35780601f10612278576101008083540402835291602001916122a3565b820191906000526020600020905b81548152906001019060200180831161228657829003601f168201915b505050505081565b60148054600181600116156101000203166002900480601f0160208091040260200160405190810160405280929190818152602001828054600181600116156101000203166002900480156123415780601f1061231657610100808354040283529160200191612341565b820191906000526020600020905b81548152906001019060200180831161232457829003601f168201915b505050505081565b60006123666001612358610c68565b6136c190919063ffffffff16565b90506123723382613749565b6000601760003373ffffffffffffffffffffffffffffffffffffffff1673ffffffffffffffffffffffffffffffffffffffff16815260200190815260200160002090508082908060018154018082558091505060019003906000526020600020016000909190919091505580601760003373ffffffffffffffffffffffffffffffffffffffff1673ffffffffffffffffffffffffffffffffffffffff16815260200190815260200160002090805461242b9291906146fc565b508460186000848152602001908152602001600020908051906020019061245392919061466e565b506000601b85604051612466919061505c565b908152602001604051809103902060009054906101000a900473ffffffffffffffffffffffffffffffffffffffff169050600c60009054906101000a900473ffffffffffffffffffffffffffffffffffffffff1673ffffffffffffffffffffffffffffffffffffffff168173ffffffffffffffffffffffffffffffffffffffff16146125c357600c60009054906101000a900473ffffffffffffffffffffffffffffffffffffffff1673ffffffffffffffffffffffffffffffffffffffff166323b872dd33601060009054906101000a900473ffffffffffffffffffffffffffffffffffffffff16600f546040518463ffffffff1660e01b815260040161256f9392919061508e565b602060405180830381600087803b15801561258957600080fd5b505af115801561259d573d6000803e3d6000fd5b505050506040513d601f19601f820116820180604052508101906125c19190614bf8565b505b8073ffffffffffffffffffffffffffffffffffffffff166323b872dd3330600f546040518463ffffffff1660e01b81526004016126029392919061508e565b602060405180830381600087803b15801561261c57600080fd5b505af1158015612630573d6000803e3d6000fd5b505050506040513d601f19601f820116820180604052508101906126549190614bf8565b508460196000858152602001908152602001600020908051906020019061267c92919061466e565b5083601a6000858152602001908152602001600020819055507fa7041cb159bfc274377ebd891eb3e918d399c2fdd611c52738b38509ec799655868487876040516126ca9493929190615176565b60405180910390a1505050505050565b612701600a6000848152602001908152602001600020600201546126fc612dc0565b611886565b612756576040517f08c379a00000000000000000000000000000000000000000000000000000000081526004018080602001828103825260308152602001806156436030913960400191505060405180910390fd5b612760828261327b565b5050565b6060601860008381526020019081526020016000208054600181600116156101000203166002900480601f01602080910402602001604051908101604052809291908181526020018280546001816001161561010002031660029004801561280d5780601f106127e25761010080835404028352916020019161280d565b820191906000526020600020905b8154815290600101906020018083116127f057829003601f168201915b50505050509050919050565b601660009054906101000a900473ffffffffffffffffffffffffffffffffffffffff1673ffffffffffffffffffffffffffffffffffffffff163373ffffffffffffffffffffffffffffffffffffffff161461287357600080fd5b6060819050806040518060400160405280600181526020017f2f000000000000000000000000000000000000000000000000000000000000008152506040516020016128c0929190615038565b6040516020818303038152906040529050806128db8461393d565b6040516020016128ec929190615038565b6040516020818303038152906040529050806040518060400160405280600581526020017f2e6a736f6e000000000000000000000000000000000000000000000000000000815250604051602001612945929190615038565b60405160208183030381529060405290508060186000858152602001908152602001600020908051906020019061297d92919061466e565b5061298783611468565b73ffffffffffffffffffffffffffffffffffffffff167f533b52bf6683c1d8929816db9f4f8221ca670c6815cbd30bd5e92b4b8eb0957884836040516129ce929190615244565b60405180910390a2505050565b6000600560008473ffffffffffffffffffffffffffffffffffffffff1673ffffffffffffffffffffffffffffffffffffffff16815260200190815260200160002060008373ffffffffffffffffffffffffffffffffffffffff1673ffffffffffffffffffffffffffffffffffffffff16815260200190815260200160002060009054906101000a900460ff16905092915050565b612a77612dc0565b73ffffffffffffffffffffffffffffffffffffffff16612a9561182a565b73ffffffffffffffffffffffffffffffffffffffff1614612b1e576040517f08c379a00000000000000000000000000000000000000000000000000000000081526004018080602001828103825260208152602001807f4f776e61626c653a2063616c6c6572206973206e6f7420746865206f776e657281525060200191505060405180910390fd5b600073ffffffffffffffffffffffffffffffffffffffff168173ffffffffffffffffffffffffffffffffffffffff161415612ba4576040517f08c379a00000000000000000000000000000000000000000000000000000000081526004018080602001828103825260268152602001806155a76026913960400191505060405180910390fd5b8073ffffffffffffffffffffffffffffffffffffffff16600b60009054906101000a900473ffffffffffffffffffffffffffffffffffffffff1673ffffffffffffffffffffffffffffffffffffffff167f8be0079c531659141344cd1fd0a4f28419497f9722a3daafe3b4186f6b6457e060405160405180910390a380600b60006101000a81548173ffffffffffffffffffffffffffffffffffffffff021916908373ffffffffffffffffffffffffffffffffffffffff16021790555050565b600080831415612c775760009050612ce4565b6000828402905082848281612c8857fe5b0414612cdf576040517f08c379a00000000000000000000000000000000000000000000000000000000081526004018080602001828103825260218152602001806157206021913960400191505060405180910390fd5b809150505b92915050565b6000808211612d61576040517f08c379a000000000000000000000000000000000000000000000000000000000815260040180806020018281038252601a8152602001807f536166654d6174683a206469766973696f6e206279207a65726f00000000000081525060200191505060405180910390fd5b818381612d6a57fe5b04905092915050565b6000612d9b836000018373ffffffffffffffffffffffffffffffffffffffff1660001b613b1c565b905092915050565b6000612db9826002613b8c90919063ffffffff16565b9050919050565b600033905090565b816004600083815260200190815260200160002060006101000a81548173ffffffffffffffffffffffffffffffffffffffff021916908373ffffffffffffffffffffffffffffffffffffffff160217905550808273ffffffffffffffffffffffffffffffffffffffff16612e3b83611468565b73ffffffffffffffffffffffffffffffffffffffff167f8c5be1e5ebec7d5bd14f71427d1e84f3dd0314c0f7b2291e5b200ac8c7c3b92560405160405180910390a45050565b6000612e8f82600001613ba6565b9050919050565b6000612ea182612da3565b612ef6576040517f08c379a000000000000000000000000000000000000000000000000000000000815260040180806020018281038252602c815260200180615617602c913960400191505060405180910390fd5b6000612f0183611468565b90508073ffffffffffffffffffffffffffffffffffffffff168473ffffffffffffffffffffffffffffffffffffffff161480612f7057508373ffffffffffffffffffffffffffffffffffffffff16612f58846109cd565b73ffffffffffffffffffffffffffffffffffffffff16145b80612f815750612f8081856129db565b5b91505092915050565b8273ffffffffffffffffffffffffffffffffffffffff16612faa82611468565b73ffffffffffffffffffffffffffffffffffffffff1614613016576040517f08c379a000000000000000000000000000000000000000000000000000000000815260040180806020018281038252602981526020018061576d6029913960400191505060405180910390fd5b600073ffffffffffffffffffffffffffffffffffffffff168273ffffffffffffffffffffffffffffffffffffffff16141561309c576040517f08c379a00000000000000000000000000000000000000000000000000000000081526004018080602001828103825260248152602001806155cd6024913960400191505060405180910390fd5b6130a7838383613bb7565b6130b2600082612dc8565b61310381600160008673ffffffffffffffffffffffffffffffffffffffff1673ffffffffffffffffffffffffffffffffffffffff168152602001908152602001600020613bbc90919063ffffffff16565b5061315581600160008573ffffffffffffffffffffffffffffffffffffffff1673ffffffffffffffffffffffffffffffffffffffff168152602001908152602001600020613bd690919063ffffffff16565b5061316c81836002613bf09092919063ffffffff16565b50808273ffffffffffffffffffffffffffffffffffffffff168473ffffffffffffffffffffffffffffffffffffffff167fddf252ad1be2c89b69c2b068fc378daa952ba7f163c4a11628f55a4df523b3ef60405160405180910390a4505050565b6131f581600a6000858152602001908152602001600020600001612d7390919063ffffffff16565b1561325d57613202612dc0565b73ffffffffffffffffffffffffffffffffffffffff168173ffffffffffffffffffffffffffffffffffffffff16837f2f8788117e7eff1d82e926ec794901d17c78024a50270940304540a733656f0d60405160405180910390a45b5050565b60006132708360000183613c25565b60001c905092915050565b6132a381600a6000858152602001908152602001600020600001613ca890919063ffffffff16565b1561330b576132b0612dc0565b73ffffffffffffffffffffffffffffffffffffffff168173ffffffffffffffffffffffffffffffffffffffff16837ff6391f5c32d9c69d2a47ea670b442974b53935d1edc7fd64eb21e047a839171b60405160405180910390a45b5050565b600061331a82611468565b905061332881600084613bb7565b613333600083612dc8565b6000600860008481526020019081526020016000208054600181600116156101000203166002900490501461338257600860008381526020019081526020016000206000613381919061479b565b5b6133d382600160008473ffffffffffffffffffffffffffffffffffffffff1673ffffffffffffffffffffffffffffffffffffffff168152602001908152602001600020613bbc90919063ffffffff16565b506133e8826002613cd890919063ffffffff16565b5081600073ffffffffffffffffffffffffffffffffffffffff168273ffffffffffffffffffffffffffffffffffffffff167fddf252ad1be2c89b69c2b068fc378daa952ba7f163c4a11628f55a4df523b3ef60405160405180910390a45050565b60008060008061345c8660000186613cf2565b915091508160001c8160001c9350935050509250929050565b6000613488846000018460001b84613d8b565b60001c90509392505050565b60006134a282600001613e81565b9050919050565b60006134b88360000183613c25565b60001c905092915050565b60006134eb836000018373ffffffffffffffffffffffffffffffffffffffff1660001b613e92565b905092915050565b6134fe848484612f8a565b61350a84848484613eb5565b61355f576040517f08c379a00000000000000000000000000000000000000000000000000000000081526004018080602001828103825260328152602001806155756032913960400191505060405180910390fd5b50505050565b606060008214156135ad576040518060400160405280600181526020017f300000000000000000000000000000000000000000000000000000000000000081525090506136a7565b600082905060005b600082146135d7578080600101915050600a82816135cf57fe5b0491506135b5565b60608167ffffffffffffffff811180156135f057600080fd5b506040519080825280601f01601f1916602001820160405280156136235781602001600182028036833780820191505090505b50905060006001830390508593505b6000841461369f57600a848161364457fe5b0660300160f81b8282806001900393508151811061365e57fe5b60200101907effffffffffffffffffffffffffffffffffffffffffffffffffffffffffffff1916908160001a905350600a848161369757fe5b049350613632565b819450505050505b919050565b60006136ba82600001613e81565b9050919050565b60008082840190508381101561373f576040517f08c379a000000000000000000000000000000000000000000000000000000000815260040180806020018281038252601b8152602001807f536166654d6174683a206164646974696f6e206f766572666c6f77000000000081525060200191505060405180910390fd5b8091505092915050565b600073ffffffffffffffffffffffffffffffffffffffff168273ffffffffffffffffffffffffffffffffffffffff1614156137ec576040517f08c379a00000000000000000000000000000000000000000000000000000000081526004018080602001828103825260208152602001807f4552433732313a206d696e7420746f20746865207a65726f206164647265737381525060200191505060405180910390fd5b6137f581612da3565b15613868576040517f08c379a000000000000000000000000000000000000000000000000000000000815260040180806020018281038252601c8152602001807f4552433732313a20746f6b656e20616c7265616479206d696e7465640000000081525060200191505060405180910390fd5b61387460008383613bb7565b6138c581600160008573ffffffffffffffffffffffffffffffffffffffff1673ffffffffffffffffffffffffffffffffffffffff168152602001908152602001600020613bd690919063ffffffff16565b506138dc81836002613bf09092919063ffffffff16565b50808273ffffffffffffffffffffffffffffffffffffffff16600073ffffffffffffffffffffffffffffffffffffffff167fddf252ad1be2c89b69c2b068fc378daa952ba7f163c4a11628f55a4df523b3ef60405160405180910390a45050565b606060006064905060608167ffffffffffffffff8111801561395e57600080fd5b506040519080825280601f01601f1916602001820160405280156139915781602001600182028036833780820191505090505b5090506000808514156139de576040518060400160405280600181526020017f30000000000000000000000000000000000000000000000000000000000000008152509350505050613b17565b5b60008514613a51576000600a86816139f357fe5b069050600a8681613a0057fe5b0495508060300160f81b838380600101945081518110613a1c57fe5b60200101907effffffffffffffffffffffffffffffffffffffffffffffffffffffffffffff1916908160001a905350506139df565b60606001820167ffffffffffffffff81118015613a6d57600080fd5b506040519080825280601f01601f191660200182016040528015613aa05781602001600182028036833780820191505090505b50905060005b828111613b0e578381840381518110613abb57fe5b602001015160f81c60f81b828281518110613ad257fe5b60200101907effffffffffffffffffffffffffffffffffffffffffffffffffffffffffffff1916908160001a9053508080600101915050613aa6565b50809450505050505b919050565b6000613b288383613e92565b613b81578260000182908060018154018082558091505060019003906000526020600020016000909190919091505582600001805490508360010160008481526020019081526020016000208190555060019050613b86565b600090505b92915050565b6000613b9e836000018360001b6140ce565b905092915050565b600081600001805490509050919050565b505050565b6000613bce836000018360001b6140f1565b905092915050565b6000613be8836000018360001b613b1c565b905092915050565b6000613c1c846000018460001b8473ffffffffffffffffffffffffffffffffffffffff1660001b6141d9565b90509392505050565b600081836000018054905011613c86576040517f08c379a00000000000000000000000000000000000000000000000000000000081526004018080602001828103825260228152602001806155246022913960400191505060405180910390fd5b826000018281548110613c9557fe5b9060005260206000200154905092915050565b6000613cd0836000018373ffffffffffffffffffffffffffffffffffffffff1660001b6140f1565b905092915050565b6000613cea836000018360001b6142b5565b905092915050565b60008082846000018054905011613d54576040517f08c379a00000000000000000000000000000000000000000000000000000000081526004018080602001828103825260228152602001806156fe6022913960400191505060405180910390fd5b6000846000018481548110613d6557fe5b906000526020600020906002020190508060000154816001015492509250509250929050565b60008084600101600085815260200190815260200160002054905060008114158390613e52576040517f08c379a00000000000000000000000000000000000000000000000000000000081526004018080602001828103825283818151815260200191508051906020019080838360005b83811015613e17578082015181840152602081019050613dfc565b50505050905090810190601f168015613e445780820380516001836020036101000a031916815260200191505b509250505060405180910390fd5b50846000016001820381548110613e6557fe5b9060005260206000209060020201600101549150509392505050565b600081600001805490509050919050565b600080836001016000848152602001908152602001600020541415905092915050565b6000613ed68473ffffffffffffffffffffffffffffffffffffffff166143ce565b613ee357600190506140c6565b606061404d63150b7a0260e01b613ef8612dc0565b888787604051602401808573ffffffffffffffffffffffffffffffffffffffff1681526020018473ffffffffffffffffffffffffffffffffffffffff16815260200183815260200180602001828103825283818151815260200191508051906020019080838360005b83811015613f7c578082015181840152602081019050613f61565b50505050905090810190601f168015613fa95780820380516001836020036101000a031916815260200191505b5095505050505050604051602081830303815290604052907bffffffffffffffffffffffffffffffffffffffffffffffffffffffff19166020820180517bffffffffffffffffffffffffffffffffffffffffffffffffffffffff8381831617835250505050604051806060016040528060328152602001615575603291398773ffffffffffffffffffffffffffffffffffffffff166143e19092919063ffffffff16565b9050600081806020019051602081101561406657600080fd5b8101908080519060200190929190505050905063150b7a0260e01b7bffffffffffffffffffffffffffffffffffffffffffffffffffffffff1916817bffffffffffffffffffffffffffffffffffffffffffffffffffffffff191614925050505b949350505050565b600080836001016000848152602001908152602001600020541415905092915050565b600080836001016000848152602001908152602001600020549050600081146141cd576000600182039050600060018660000180549050039050600086600001828154811061413c57fe5b906000526020600020015490508087600001848154811061415957fe5b906000526020600020018190555060018301876001016000838152602001908152602001600020819055508660000180548061419157fe5b600190038181906000526020600020016000905590558660010160008781526020019081526020016000206000905560019450505050506141d3565b60009150505b92915050565b6000808460010160008581526020019081526020016000205490506000811415614280578460000160405180604001604052808681526020018581525090806001815401808255809150506001900390600052602060002090600202016000909190919091506000820151816000015560208201518160010155505084600001805490508560010160008681526020019081526020016000208190555060019150506142ae565b8285600001600183038154811061429357fe5b90600052602060002090600202016001018190555060009150505b9392505050565b600080836001016000848152602001908152602001600020549050600081146143c2576000600182039050600060018660000180549050039050600086600001828154811061430057fe5b906000526020600020906002020190508087600001848154811061432057fe5b906000526020600020906002020160008201548160000155600182015481600101559050506001830187600101600083600001548152602001908152602001600020819055508660000180548061437357fe5b60019003818190600052602060002090600202016000808201600090556001820160009055505090558660010160008781526020019081526020016000206000905560019450505050506143c8565b60009150505b92915050565b600080823b905060008111915050919050565b60606143f084846000856143f9565b90509392505050565b606082471015614454576040517f08c379a00000000000000000000000000000000000000000000000000000000081526004018080602001828103825260268152602001806155f16026913960400191505060405180910390fd5b61445d856143ce565b6144cf576040517f08c379a000000000000000000000000000000000000000000000000000000000815260040180806020018281038252601d8152602001807f416464726573733a2063616c6c20746f206e6f6e2d636f6e747261637400000081525060200191505060405180910390fd5b600060608673ffffffffffffffffffffffffffffffffffffffff1685876040518082805190602001908083835b6020831061451f57805182526020820191506020810190506020830392506144fc565b6001836020036101000a03801982511681845116808217855250505050505090500191505060006040518083038185875af1925050503d8060008114614581576040519150601f19603f3d011682016040523d82523d6000602084013e614586565b606091505b50915091506145968282866145a2565b92505050949350505050565b606083156145b257829050614667565b6000835111156145c55782518084602001fd5b816040517f08c379a00000000000000000000000000000000000000000000000000000000081526004018080602001828103825283818151815260200191508051906020019080838360005b8381101561462c578082015181840152602081019050614611565b50505050905090810190601f1680156146595780820380516001836020036101000a031916815260200191505b509250505060405180910390fd5b9392505050565b828054600181600116156101000203166002900490600052602060002090601f0160209004810192826146a457600085556146eb565b82601f106146bd57805160ff19168380011785556146eb565b828001600101855582156146eb579182015b828111156146ea5782518255916020019190600101906146cf565b5b5090506146f891906147e3565b5090565b82805482825590600052602060002090810192821561473d5760005260206000209182015b8281111561473c578254825591600101919060010190614721565b5b50905061474a91906147e3565b5090565b82805482825590600052602060002090810192821561478a579160200282015b8281111561478957825182559160200191906001019061476e565b5b50905061479791906147e3565b5090565b50805460018160011615610100020316600290046000825580601f106147c157506147e0565b601f0160209004906000526020600020908101906147df91906147e3565b5b50565b5b808211156147fc5760008160009055506001016147e4565b5090565b60008135905061480f816154b0565b92915050565b600082601f83011261482657600080fd5b8135614839614834826152a5565b615274565b9150818183526020840193506020810190508385602084028201111561485e57600080fd5b60005b8381101561488e57816148748882614994565b845260208401935060208301925050600181019050614861565b5050505092915050565b6000813590506148a7816154c7565b92915050565b6000815190506148bc816154c7565b92915050565b6000813590506148d1816154de565b92915050565b6000813590506148e6816154f5565b92915050565b600082601f8301126148fd57600080fd5b813561491061490b826152d1565b615274565b9150808252602083016020830185838301111561492c57600080fd5b61493783828461545b565b50505092915050565b600082601f83011261495157600080fd5b813561496461495f82615301565b615274565b9150808252602083016020830185838301111561498057600080fd5b61498b83828461545b565b50505092915050565b6000813590506149a38161550c565b92915050565b6000602082840312156149bb57600080fd5b60006149c984828501614800565b91505092915050565b600080604083850312156149e557600080fd5b60006149f385828601614800565b9250506020614a0485828601614800565b9150509250929050565b600080600060608486031215614a2357600080fd5b6000614a3186828701614800565b9350506020614a4286828701614800565b9250506040614a5386828701614994565b9150509250925092565b60008060008060808587031215614a7357600080fd5b6000614a8187828801614800565b9450506020614a9287828801614800565b9350506040614aa387828801614994565b925050606085013567ffffffffffffffff811115614ac057600080fd5b614acc878288016148ec565b91505092959194509250565b60008060408385031215614aeb57600080fd5b6000614af985828601614800565b925050602083013567ffffffffffffffff811115614b1657600080fd5b614b2285828601614815565b9150509250929050565b60008060408385031215614b3f57600080fd5b6000614b4d85828601614800565b9250506020614b5e85828601614898565b9150509250929050565b60008060408385031215614b7b57600080fd5b6000614b8985828601614800565b925050602083013567ffffffffffffffff811115614ba657600080fd5b614bb285828601614940565b9150509250929050565b60008060408385031215614bcf57600080fd5b6000614bdd85828601614800565b9250506020614bee85828601614994565b9150509250929050565b600060208284031215614c0a57600080fd5b6000614c18848285016148ad565b91505092915050565b600060208284031215614c3357600080fd5b6000614c41848285016148c2565b91505092915050565b60008060408385031215614c5d57600080fd5b6000614c6b858286016148c2565b9250506020614c7c85828601614800565b9150509250929050565b60008060408385031215614c9957600080fd5b6000614ca7858286016148c2565b9250506020614cb885828601614994565b9150509250929050565b600060208284031215614cd457600080fd5b6000614ce2848285016148d7565b91505092915050565b600080600060608486031215614d0057600080fd5b600084013567ffffffffffffffff811115614d1a57600080fd5b614d2686828701614940565b935050602084013567ffffffffffffffff811115614d4357600080fd5b614d4f86828701614940565b9250506040614d6086828701614994565b9150509250925092565b600060208284031215614d7c57600080fd5b6000614d8a84828501614994565b91505092915050565b60008060408385031215614da657600080fd5b6000614db485828601614994565b925050602083013567ffffffffffffffff811115614dd157600080fd5b614ddd85828601614940565b9150509250929050565b6000614df3838361501a565b60208301905092915050565b614e0881615425565b82525050565b614e17816153a7565b82525050565b6000614e2882615341565b614e32818561536f565b9350614e3d83615331565b8060005b83811015614e6e578151614e558882614de7565b9750614e6083615362565b925050600181019050614e41565b5085935050505092915050565b614e84816153b9565b82525050565b614e93816153c5565b82525050565b6000614ea48261534c565b614eae8185615380565b9350614ebe81856020860161546a565b80840191505092915050565b6000614ed582615357565b614edf818561538b565b9350614eef81856020860161546a565b614ef88161549f565b840191505092915050565b6000614f0e82615357565b614f18818561539c565b9350614f2881856020860161546a565b80840191505092915050565b6000614f41600d8361538b565b91507f696e76616c6964206f776e6572000000000000000000000000000000000000006000830152602082019050919050565b6000614f81600f8361538b565b91507f696e76616c6964206164647265737300000000000000000000000000000000006000830152602082019050919050565b6000614fc160318361538b565b91507f4552433732313a207472616e736665722063616c6c6572206973206e6f74206f60008301527f776e6572206e6f7220617070726f7665640000000000000000000000000000006020830152604082019050919050565b6150238161541b565b82525050565b6150328161541b565b82525050565b60006150448285614e99565b91506150508284614e99565b91508190509392505050565b60006150688284614f03565b915081905092915050565b60006020820190506150886000830184614e0e565b92915050565b60006060820190506150a36000830186614dff565b6150b06020830185614e0e565b6150bd6040830184615029565b949350505050565b60006060820190506150da6000830186614e0e565b6150e76020830185614e0e565b6150f46040830184615029565b949350505050565b600060208201905081810360008301526151168184614e1d565b905092915050565b60006020820190506151336000830184614e7b565b92915050565b600060208201905061514e6000830184614e8a565b92915050565b6000602082019050818103600083015261516e8184614eca565b905092915050565b600060808201905081810360008301526151908187614eca565b905061519f6020830186615029565b81810360408301526151b18185614eca565b90506151c06060830184615029565b95945050505050565b600060208201905081810360008301526151e281614f34565b9050919050565b6000602082019050818103600083015261520281614f74565b9050919050565b6000602082019050818103600083015261522281614fb4565b9050919050565b600060208201905061523e6000830184615029565b92915050565b60006040820190506152596000830185615029565b818103602083015261526b8184614eca565b90509392505050565b6000604051905081810181811067ffffffffffffffff8211171561529b5761529a61549d565b5b8060405250919050565b600067ffffffffffffffff8211156152c0576152bf61549d565b5b602082029050602081019050919050565b600067ffffffffffffffff8211156152ec576152eb61549d565b5b601f19601f8301169050602081019050919050565b600067ffffffffffffffff82111561531c5761531b61549d565b5b601f19601f8301169050602081019050919050565b6000819050602082019050919050565b600081519050919050565b600081519050919050565b600081519050919050565b6000602082019050919050565b600082825260208201905092915050565b600081905092915050565b600082825260208201905092915050565b600081905092915050565b60006153b2826153fb565b9050919050565b60008115159050919050565b6000819050919050565b60007fffffffff0000000000000000000000000000000000000000000000000000000082169050919050565b600073ffffffffffffffffffffffffffffffffffffffff82169050919050565b6000819050919050565b600061543082615437565b9050919050565b600061544282615449565b9050919050565b6000615454826153fb565b9050919050565b82818337600083830152505050565b60005b8381101561548857808201518184015260208101905061546d565b83811115615497576000848401525b50505050565bfe5b6000601f19601f8301169050919050565b6154b9816153a7565b81146154c457600080fd5b50565b6154d0816153b9565b81146154db57600080fd5b50565b6154e7816153c5565b81146154f257600080fd5b50565b6154fe816153cf565b811461550957600080fd5b50565b6155158161541b565b811461552057600080fd5b5056fe456e756d657261626c655365743a20696e646578206f7574206f6620626f756e6473416363657373436f6e74726f6c3a2073656e646572206d75737420626520616e2061646d696e20746f206772616e744552433732313a207472616e7366657220746f206e6f6e20455243373231526563656976657220696d706c656d656e7465724f776e61626c653a206e6577206f776e657220697320746865207a65726f20616464726573734552433732313a207472616e7366657220746f20746865207a65726f2061646472657373416464726573733a20696e73756666696369656e742062616c616e636520666f722063616c6c4552433732313a206f70657261746f7220717565727920666f72206e6f6e6578697374656e7420746f6b656e416363657373436f6e74726f6c3a2073656e646572206d75737420626520616e2061646d696e20746f207265766f6b654552433732313a20617070726f76652063616c6c6572206973206e6f74206f776e6572206e6f7220617070726f76656420666f7220616c6c4552433732313a2062616c616e636520717565727920666f7220746865207a65726f20616464726573734552433732313a206f776e657220717565727920666f72206e6f6e6578697374656e7420746f6b656e456e756d657261626c654d61703a20696e646578206f7574206f6620626f756e6473536166654d6174683a206d756c7469706c69636174696f6e206f766572666c6f774552433732313a20617070726f76656420717565727920666f72206e6f6e6578697374656e7420746f6b656e4552433732313a207472616e73666572206f6620746f6b656e2074686174206973206e6f74206f776e4552433732314d657461646174613a2055524920717565727920666f72206e6f6e6578697374656e7420746f6b656e4552433732313a20617070726f76616c20746f2063757272656e74206f776e65724552433732313a207472616e736665722063616c6c6572206973206e6f74206f776e6572206e6f7220617070726f766564416363657373436f6e74726f6c3a2063616e206f6e6c792072656e6f756e636520726f6c657320666f722073656c66a2646970667358221220b480581e68c545f9468d5bc4397edd3084a00b158e294473167648a3562ad75d64736f6c6343000704003377652063616e206a757374206164642075726c206f66206d657461646174612068657265536166654d6174683a206d756c7469706c69636174696f6e206f766572666c6f77",
  "immutableReferences": {},
  "source": "// SPDX-License-Identifier: MIT\r\npragma solidity >=0.4.22 <0.8.4;\r\npragma experimental ABIEncoderV2;\r\n\r\nimport \"@openzeppelin/contracts/token/ERC721/ERC721.sol\";\r\nimport \"@openzeppelin/contracts/access/AccessControl.sol\";\r\nimport \"@openzeppelin/contracts/access/Ownable.sol\";\r\nimport \"@openzeppelin/contracts/token/ERC20/ERC20.sol\";\r\nimport \"@openzeppelin/contracts/math/SafeMath.sol\";\r\n\r\ncontract TokenizedArt is ERC721, AccessControl, Ownable {\r\n    using SafeMath for uint256;\r\n\r\n    ERC20 cifiTokenContractTest =\r\n        ERC20(0xe56aB536c90E5A8f06524EA639bE9cB3589B8146);\r\n    uint256 FEE = 100;\r\n    uint8 cifiDecimals = cifiTokenContractTest.decimals();\r\n    uint256 public feeAmount = FEE.mul(10**cifiDecimals).div(100);\r\n\r\n    address feeWallet = address(0x000000000000000000000000);\r\n\r\n    string public Artname;\r\n    string public Artsymbol;\r\n    string public Artdescription;\r\n    string public Arturi;\r\n    // Total tokens starts at 0 because each new token must be minted and the\r\n    // _mint() call adds 1 to totalTokens\r\n    uint256 totalTokens = 0;\r\n\r\n    address public Artcreator;\r\n\r\n    // Mapping from owner to list of owned token IDs\r\n    mapping(address => uint256[]) ownedTokens;\r\n\r\n    // Metadata is a URL that points to a json dictionary\r\n    mapping(uint256 => string) tokenIdToMetadata;\r\n\r\n    mapping(uint256 => string) tokenID_symbol;\r\n    mapping(uint256 => uint256) tokenID_amount;\r\n\r\n    mapping(string => address) acceptedTokens;\r\n\r\n    string[] public acceptedTokenSymbols;\r\n\r\n    event MetadataAssigned(\r\n        address indexed _owner,\r\n        uint256 _tokenId,\r\n        string _url\r\n    );\r\n    event Mint(string url, uint256 tokenId, string symbol, uint256 amount);\r\n\r\n    /**\r\n     * a gallery function that is been called by the ART gallery smart contract\r\n     */\r\n\r\n    constructor() ERC721(\"TokenizedArt\", \"cPOWA\") {\r\n        Artname = \"TokenizedArt\";\r\n        Artsymbol = \"cPOWA\";\r\n        Artdescription = \"TokenizedArt\";\r\n        Arturi = \"we can just add url of metadata here\";\r\n        Artcreator = _msgSender();\r\n        totalTokens = 0;\r\n        _setupRole(DEFAULT_ADMIN_ROLE, _msgSender());\r\n    }\r\n\r\n    /**\r\n     * this function assignes the URI to automatically add the id number at the end of the URI\r\n     */\r\n    function assignDataToToken(uint256 id, string memory uri) public {\r\n        require(msg.sender == Artcreator);\r\n        bytes memory _url = bytes(uri);\r\n\r\n        _url = abi.encodePacked(_url, bytes(\"/\"));\r\n        _url = abi.encodePacked(_url, _uintToBytes(id));\r\n        _url = abi.encodePacked(_url, bytes(\".json\"));\r\n\r\n        tokenIdToMetadata[id] = string(_url);\r\n        emit MetadataAssigned(ownerOf(id), id, string(_url));\r\n    }\r\n\r\n    /**\r\n     * this function helps with queries to Fetch the metadata for a givine token id\r\n     */\r\n    function getMetadataAtID(uint256 _tokenId)\r\n        public\r\n        view\r\n        returns (string memory)\r\n    {\r\n        return tokenIdToMetadata[_tokenId];\r\n    }\r\n\r\n    /**\r\n     * this function helps with queries to Fetch all the tokens that the address owns by givine address\r\n     */\r\n    function tokensOf(address _owner) public view returns (uint256[] memory) {\r\n        require(_owner != address(0), \"invalid owner\");\r\n        return ownedTokens[_owner];\r\n    }\r\n\r\n    /**\r\n     * this function allows to approve more than one token id at once\r\n     */\r\n    function approveMany(address _to, uint256[] memory _tokenIds) public {\r\n        /* Allows bulk-approval of many tokens. This function is useful for\r\n       exchanges where users can make a single tx to enable the call of\r\n       transferFrom for those tokens by an exchange contract. */\r\n        for (uint256 i = 0; i < _tokenIds.length; i++) {\r\n            // approve handles the check for if one who is approving is the owner.\r\n            approve(_to, _tokenIds[i]);\r\n        }\r\n    }\r\n\r\n    /**\r\n     * this function allows to approve all the tokens the address owns at once\r\n     */\r\n    function approveAll(address _to) public {\r\n        uint256[] memory tokens = tokensOf(msg.sender);\r\n        for (uint256 t = 0; t < tokens.length; t++) {\r\n            approve(_to, tokens[t]);\r\n        }\r\n    }\r\n\r\n    /**\r\n     * this overload function allows to transfer tokens and updates all the mapping queries(without filling the URI)\r\n     */\r\n    function safeTransferFrom(\r\n        address from,\r\n        address to,\r\n        uint256 tokenId\r\n    ) public virtual override {\r\n        require(from != address(0), \"invalid address\");\r\n        require(to != address(0), \"invalid address\");\r\n        // add require to make sure that the tokenid exsistes\r\n        safeTransferFrom(from, to, tokenId, \"\");\r\n    }\r\n\r\n    /**\r\n     * this overload function allows to transfer tokens and updates all the mapping queries(with filling the URI)\r\n     */\r\n    function safeTransferFrom(\r\n        address from,\r\n        address to,\r\n        uint256 tokenId,\r\n        bytes memory _data\r\n    ) public virtual override {\r\n        require(\r\n            _isApprovedOrOwner(_msgSender(), tokenId),\r\n            \"ERC721: transfer caller is not owner nor approved\"\r\n        );\r\n        require(from != address(0), \"invalid address\");\r\n        require(to != address(0), \"invalid address\");\r\n        _safeTransfer(from, to, tokenId, _data);\r\n        uint256[] memory fromIds = ownedTokens[from];\r\n        uint256[] memory newFromIds = new uint256[](fromIds.length - 1);\r\n        uint256[] storage toIds = ownedTokens[to];\r\n        toIds.push(tokenId);\r\n        ownedTokens[to] = toIds;\r\n        uint256 j = 0;\r\n        for (uint256 i = 0; i < fromIds.length; i++) {\r\n            if (fromIds[i] != tokenId) newFromIds[j++] = (fromIds[i]);\r\n        }\r\n        ownedTokens[from] = newFromIds;\r\n    }\r\n\r\n    /**\r\n     * this function allows to mint more of your ART\r\n     */\r\n    function mint(\r\n        string memory url,\r\n        string memory tokenSymbol,\r\n        uint256 amount\r\n    ) public {\r\n        uint256 currentTokenCount = totalSupply().add(1);\r\n        // The index of the newest token is at the # totalTokens.\r\n        _mint(msg.sender, currentTokenCount);\r\n        // assign address to array of owned tokens aned you can qury what ids the address owns\r\n        uint256[] storage ids = ownedTokens[msg.sender];\r\n        ids.push(currentTokenCount);\r\n        ownedTokens[msg.sender] = ids;\r\n        // _mint() call adds 1 to total tokens, but we want the token at index - 1\r\n        tokenIdToMetadata[currentTokenCount] = url;\r\n\r\n        ERC20 acceptedToken = ERC20(acceptedTokens[tokenSymbol]);\r\n        if (acceptedToken != cifiTokenContractTest) {\r\n            cifiTokenContractTest.transferFrom(\r\n                msg.sender,\r\n                feeWallet,\r\n                feeAmount\r\n            );\r\n        }\r\n        acceptedToken.transferFrom(msg.sender, address(this), feeAmount);\r\n        tokenID_symbol[currentTokenCount] = tokenSymbol;\r\n        tokenID_amount[currentTokenCount] = amount;\r\n        emit Mint(url, currentTokenCount, tokenSymbol, amount);\r\n    }\r\n\r\n    /**\r\n     * this function allows you burn your NFT\r\n     */\r\n    function burn(uint256 _id) public returns (bool) {\r\n        address owner = ownerOf(_id);\r\n        string memory tokenSymbol = tokenID_symbol[_id];\r\n        uint256 amount = tokenID_amount[_id];\r\n        ERC20 acceptedToken = ERC20(acceptedTokens[tokenSymbol]);\r\n        acceptedToken.transferFrom(address(this), owner, amount);\r\n        _burn(_id);\r\n        return true;\r\n    }\r\n\r\n    /**\r\n     * this function is been created just to convert uint variable to bytes\r\n     *(private function only used in the \"assignDataToToken\" function in order to convert the uint variable to bytes\r\n     * in order to concatenate it )\r\n     */\r\n    function _uintToBytes(uint256 _int) internal pure returns (bytes memory) {\r\n        uint256 maxlength = 100;\r\n        bytes memory reversed = new bytes(maxlength);\r\n        uint256 i = 0;\r\n        if (_int == 0) return bytes(\"0\");\r\n        while (_int != 0) {\r\n            uint256 remainder = _int % 10;\r\n            _int = _int / 10;\r\n            reversed[i++] = bytes1(uint8(48 + remainder));\r\n        }\r\n        bytes memory s = new bytes(i + 1);\r\n        for (uint256 j = 0; j <= i; j++) {\r\n            s[j] = reversed[i - j];\r\n        }\r\n        return s;\r\n    }\r\n\r\n    /**\r\n     * this function is been created just to convert small strings to capital\r\n     *(private function only used in functions that we want to make the symbol auto capital\r\n     * in order to concatenate it )\r\n     */\r\n\r\n    function _upperCase(string memory enter)\r\n        internal\r\n        pure\r\n        returns (string memory)\r\n    {\r\n        bytes memory strbyte = bytes(enter);\r\n        for (uint256 i = 0; i < strbyte.length; i++) {\r\n            if (\r\n                uint8(strbyte[i]) >= uint8(bytes1(\"a\")) &&\r\n                uint8(strbyte[i]) <= uint8(bytes1(\"z\"))\r\n            ) strbyte[i] = bytes1(uint8(strbyte[i]) - 32);\r\n        }\r\n        enter = string(strbyte);\r\n        return enter;\r\n    }\r\n\r\n    function addAcceptedToken(\r\n        address acceptedTokenAddress,\r\n        string memory acceptedTokenSymbol\r\n    ) public onlyOwner returns (bool) {\r\n        acceptedTokens[acceptedTokenSymbol] = acceptedTokenAddress;\r\n        acceptedTokenSymbols.push(acceptedTokenSymbol);\r\n        return true;\r\n    }\r\n}\r\n",
  "sourcePath": "F:/MyWork/LianHe/Citizen/ArtGallery/src/contracts/TokenizedArt.sol",
  "compiler": {
    "name": "solc",
    "version": "0.7.4+commit.3f05b770.Emscripten.clang"
  },
  "schemaVersion": "3.3.4",
  "updatedAt": "2021-06-10T13:18:08.109Z",
  "devdoc": {
    "kind": "dev",
    "methods": {
      "approve(address,uint256)": {
        "details": "See {IERC721-approve}."
      },
      "balanceOf(address)": {
        "details": "See {IERC721-balanceOf}."
      },
      "baseURI()": {
        "details": "Returns the base URI set via {_setBaseURI}. This will be automatically added as a prefix in {tokenURI} to each token's URI, or to the token ID if no specific URI is set for that token ID."
      },
      "getApproved(uint256)": {
        "details": "See {IERC721-getApproved}."
      },
      "getRoleAdmin(bytes32)": {
        "details": "Returns the admin role that controls `role`. See {grantRole} and {revokeRole}. To change a role's admin, use {_setRoleAdmin}."
      },
      "getRoleMember(bytes32,uint256)": {
        "details": "Returns one of the accounts that have `role`. `index` must be a value between 0 and {getRoleMemberCount}, non-inclusive. Role bearers are not sorted in any particular way, and their ordering may change at any point. WARNING: When using {getRoleMember} and {getRoleMemberCount}, make sure you perform all queries on the same block. See the following https://forum.openzeppelin.com/t/iterating-over-elements-on-enumerableset-in-openzeppelin-contracts/2296[forum post] for more information."
      },
      "getRoleMemberCount(bytes32)": {
        "details": "Returns the number of accounts that have `role`. Can be used together with {getRoleMember} to enumerate all bearers of a role."
      },
      "grantRole(bytes32,address)": {
        "details": "Grants `role` to `account`. If `account` had not been already granted `role`, emits a {RoleGranted} event. Requirements: - the caller must have ``role``'s admin role."
      },
      "hasRole(bytes32,address)": {
        "details": "Returns `true` if `account` has been granted `role`."
      },
      "isApprovedForAll(address,address)": {
        "details": "See {IERC721-isApprovedForAll}."
      },
      "name()": {
        "details": "See {IERC721Metadata-name}."
      },
      "owner()": {
        "details": "Returns the address of the current owner."
      },
      "ownerOf(uint256)": {
        "details": "See {IERC721-ownerOf}."
      },
      "renounceOwnership()": {
        "details": "Leaves the contract without owner. It will not be possible to call `onlyOwner` functions anymore. Can only be called by the current owner. NOTE: Renouncing ownership will leave the contract without an owner, thereby removing any functionality that is only available to the owner."
      },
      "renounceRole(bytes32,address)": {
        "details": "Revokes `role` from the calling account. Roles are often managed via {grantRole} and {revokeRole}: this function's purpose is to provide a mechanism for accounts to lose their privileges if they are compromised (such as when a trusted device is misplaced). If the calling account had been granted `role`, emits a {RoleRevoked} event. Requirements: - the caller must be `account`."
      },
      "revokeRole(bytes32,address)": {
        "details": "Revokes `role` from `account`. If `account` had been granted `role`, emits a {RoleRevoked} event. Requirements: - the caller must have ``role``'s admin role."
      },
      "setApprovalForAll(address,bool)": {
        "details": "See {IERC721-setApprovalForAll}."
      },
      "supportsInterface(bytes4)": {
        "details": "See {IERC165-supportsInterface}. Time complexity O(1), guaranteed to always use less than 30 000 gas."
      },
      "symbol()": {
        "details": "See {IERC721Metadata-symbol}."
      },
      "tokenByIndex(uint256)": {
        "details": "See {IERC721Enumerable-tokenByIndex}."
      },
      "tokenOfOwnerByIndex(address,uint256)": {
        "details": "See {IERC721Enumerable-tokenOfOwnerByIndex}."
      },
      "tokenURI(uint256)": {
        "details": "See {IERC721Metadata-tokenURI}."
      },
      "totalSupply()": {
        "details": "See {IERC721Enumerable-totalSupply}."
      },
      "transferFrom(address,address,uint256)": {
        "details": "See {IERC721-transferFrom}."
      },
      "transferOwnership(address)": {
        "details": "Transfers ownership of the contract to a new account (`newOwner`). Can only be called by the current owner."
      }
    },
    "version": 1
  },
  "userdoc": {
    "kind": "user",
    "methods": {
      "approveAll(address)": {
        "notice": "this function allows to approve all the tokens the address owns at once"
      },
      "approveMany(address,uint256[])": {
        "notice": "this function allows to approve more than one token id at once"
      },
      "assignDataToToken(uint256,string)": {
        "notice": "this function assignes the URI to automatically add the id number at the end of the URI"
      },
      "burn(uint256)": {
        "notice": "this function allows you burn your NFT"
      },
      "constructor": {
        "notice": "a gallery function that is been called by the ART gallery smart contract"
      },
      "getMetadataAtID(uint256)": {
        "notice": "this function helps with queries to Fetch the metadata for a givine token id"
      },
      "mint(string,string,uint256)": {
        "notice": "this function allows to mint more of your ART"
      },
      "safeTransferFrom(address,address,uint256)": {
        "notice": "this overload function allows to transfer tokens and updates all the mapping queries(without filling the URI)"
      },
      "safeTransferFrom(address,address,uint256,bytes)": {
        "notice": "this overload function allows to transfer tokens and updates all the mapping queries(with filling the URI)"
      },
      "tokensOf(address)": {
        "notice": "this function helps with queries to Fetch all the tokens that the address owns by givine address"
      }
    },
    "version": 1
  }
}