{
  "contractName": "NftRegistry",
  "abi": [
    {
      "anonymous": false,
      "inputs": [
        {
          "indexed": true,
          "internalType": "address",
          "name": "owner",
          "type": "address"
        },
        {
          "indexed": true,
          "internalType": "address",
          "name": "approved",
          "type": "address"
        },
        {
          "indexed": true,
          "internalType": "uint256",
          "name": "tokenId",
          "type": "uint256"
        }
      ],
      "name": "Approval",
      "type": "event"
    },
    {
      "anonymous": false,
      "inputs": [
        {
          "indexed": true,
          "internalType": "address",
          "name": "owner",
          "type": "address"
        },
        {
          "indexed": true,
          "internalType": "address",
          "name": "operator",
          "type": "address"
        },
        {
          "indexed": false,
          "internalType": "bool",
          "name": "approved",
          "type": "bool"
        }
      ],
      "name": "ApprovalForAll",
      "type": "event"
    },
    {
      "anonymous": false,
      "inputs": [
        {
          "indexed": true,
          "internalType": "address",
          "name": "_owner",
          "type": "address"
        },
        {
          "indexed": false,
          "internalType": "uint256",
          "name": "_tokenId",
          "type": "uint256"
        },
        {
          "indexed": false,
          "internalType": "string",
          "name": "_url",
          "type": "string"
        }
      ],
      "name": "MetadataAssigned",
      "type": "event"
    },
    {
      "anonymous": false,
      "inputs": [
        {
          "indexed": true,
          "internalType": "address",
          "name": "from",
          "type": "address"
        },
        {
          "indexed": true,
          "internalType": "address",
          "name": "to",
          "type": "address"
        },
        {
          "indexed": true,
          "internalType": "uint256",
          "name": "tokenId",
          "type": "uint256"
        }
      ],
      "name": "Transfer",
      "type": "event"
    },
    {
      "inputs": [
        {
          "internalType": "address",
          "name": "to",
          "type": "address"
        },
        {
          "internalType": "uint256",
          "name": "tokenId",
          "type": "uint256"
        }
      ],
      "name": "approve",
      "outputs": [],
      "stateMutability": "nonpayable",
      "type": "function"
    },
    {
      "inputs": [
        {
          "internalType": "address",
          "name": "owner",
          "type": "address"
        }
      ],
      "name": "balanceOf",
      "outputs": [
        {
          "internalType": "uint256",
          "name": "",
          "type": "uint256"
        }
      ],
      "stateMutability": "view",
      "type": "function",
      "constant": true
    },
    {
      "inputs": [],
      "name": "baseURI",
      "outputs": [
        {
          "internalType": "string",
          "name": "",
          "type": "string"
        }
      ],
      "stateMutability": "view",
      "type": "function",
      "constant": true
    },
    {
      "inputs": [
        {
          "internalType": "uint256",
          "name": "tokenId",
          "type": "uint256"
        }
      ],
      "name": "getApproved",
      "outputs": [
        {
          "internalType": "address",
          "name": "",
          "type": "address"
        }
      ],
      "stateMutability": "view",
      "type": "function",
      "constant": true
    },
    {
      "inputs": [
        {
          "internalType": "address",
          "name": "owner",
          "type": "address"
        },
        {
          "internalType": "address",
          "name": "operator",
          "type": "address"
        }
      ],
      "name": "isApprovedForAll",
      "outputs": [
        {
          "internalType": "bool",
          "name": "",
          "type": "bool"
        }
      ],
      "stateMutability": "view",
      "type": "function",
      "constant": true
    },
    {
      "inputs": [],
      "name": "name",
      "outputs": [
        {
          "internalType": "string",
          "name": "",
          "type": "string"
        }
      ],
      "stateMutability": "view",
      "type": "function",
      "constant": true
    },
    {
      "inputs": [
        {
          "internalType": "uint256",
          "name": "tokenId",
          "type": "uint256"
        }
      ],
      "name": "ownerOf",
      "outputs": [
        {
          "internalType": "address",
          "name": "",
          "type": "address"
        }
      ],
      "stateMutability": "view",
      "type": "function",
      "constant": true
    },
    {
      "inputs": [
        {
          "internalType": "string",
          "name": "",
          "type": "string"
        }
      ],
      "name": "registries",
      "outputs": [
        {
          "internalType": "string",
          "name": "name",
          "type": "string"
        },
        {
          "internalType": "string",
          "name": "symbol",
          "type": "string"
        },
        {
          "internalType": "string",
          "name": "description",
          "type": "string"
        },
        {
          "internalType": "address",
          "name": "creator",
          "type": "address"
        }
      ],
      "stateMutability": "view",
      "type": "function",
      "constant": true
    },
    {
      "inputs": [
        {
          "internalType": "address",
          "name": "operator",
          "type": "address"
        },
        {
          "internalType": "bool",
          "name": "approved",
          "type": "bool"
        }
      ],
      "name": "setApprovalForAll",
      "outputs": [],
      "stateMutability": "nonpayable",
      "type": "function"
    },
    {
      "inputs": [
        {
          "internalType": "bytes4",
          "name": "interfaceId",
          "type": "bytes4"
        }
      ],
      "name": "supportsInterface",
      "outputs": [
        {
          "internalType": "bool",
          "name": "",
          "type": "bool"
        }
      ],
      "stateMutability": "view",
      "type": "function",
      "constant": true
    },
    {
      "inputs": [],
      "name": "symbol",
      "outputs": [
        {
          "internalType": "string",
          "name": "",
          "type": "string"
        }
      ],
      "stateMutability": "view",
      "type": "function",
      "constant": true
    },
    {
      "inputs": [
        {
          "internalType": "uint256",
          "name": "index",
          "type": "uint256"
        }
      ],
      "name": "tokenByIndex",
      "outputs": [
        {
          "internalType": "uint256",
          "name": "",
          "type": "uint256"
        }
      ],
      "stateMutability": "view",
      "type": "function",
      "constant": true
    },
    {
      "inputs": [
        {
          "internalType": "address",
          "name": "owner",
          "type": "address"
        },
        {
          "internalType": "uint256",
          "name": "index",
          "type": "uint256"
        }
      ],
      "name": "tokenOfOwnerByIndex",
      "outputs": [
        {
          "internalType": "uint256",
          "name": "",
          "type": "uint256"
        }
      ],
      "stateMutability": "view",
      "type": "function",
      "constant": true
    },
    {
      "inputs": [
        {
          "internalType": "uint256",
          "name": "tokenId",
          "type": "uint256"
        }
      ],
      "name": "tokenURI",
      "outputs": [
        {
          "internalType": "string",
          "name": "",
          "type": "string"
        }
      ],
      "stateMutability": "view",
      "type": "function",
      "constant": true
    },
    {
      "inputs": [],
      "name": "totalSupply",
      "outputs": [
        {
          "internalType": "uint256",
          "name": "",
          "type": "uint256"
        }
      ],
      "stateMutability": "view",
      "type": "function",
      "constant": true
    },
    {
      "inputs": [
        {
          "internalType": "address",
          "name": "from",
          "type": "address"
        },
        {
          "internalType": "address",
          "name": "to",
          "type": "address"
        },
        {
          "internalType": "uint256",
          "name": "tokenId",
          "type": "uint256"
        }
      ],
      "name": "transferFrom",
      "outputs": [],
      "stateMutability": "nonpayable",
      "type": "function"
    },
    {
      "inputs": [
        {
          "internalType": "string",
          "name": "name",
          "type": "string"
        },
        {
          "internalType": "string",
          "name": "symbol",
          "type": "string"
        },
        {
          "internalType": "string",
          "name": "description",
          "type": "string"
        },
        {
          "internalType": "address",
          "name": "caller",
          "type": "address"
        }
      ],
      "name": "Registry",
      "outputs": [],
      "stateMutability": "nonpayable",
      "type": "function"
    },
    {
      "inputs": [
        {
          "internalType": "uint256",
          "name": "id",
          "type": "uint256"
        },
        {
          "internalType": "string",
          "name": "uri",
          "type": "string"
        }
      ],
      "name": "assignDataToToken",
      "outputs": [],
      "stateMutability": "nonpayable",
      "type": "function"
    },
    {
      "inputs": [
        {
          "internalType": "uint256",
          "name": "_tokenId",
          "type": "uint256"
        }
      ],
      "name": "getMetadataAtID",
      "outputs": [
        {
          "internalType": "string",
          "name": "",
          "type": "string"
        }
      ],
      "stateMutability": "view",
      "type": "function",
      "constant": true
    },
    {
      "inputs": [
        {
          "internalType": "uint256",
          "name": "id",
          "type": "uint256"
        }
      ],
      "name": "getTokenOwner",
      "outputs": [
        {
          "internalType": "address",
          "name": "",
          "type": "address"
        }
      ],
      "stateMutability": "view",
      "type": "function",
      "constant": true
    },
    {
      "inputs": [
        {
          "internalType": "address",
          "name": "_owner",
          "type": "address"
        }
      ],
      "name": "tokensOf",
      "outputs": [
        {
          "internalType": "uint256[]",
          "name": "",
          "type": "uint256[]"
        }
      ],
      "stateMutability": "view",
      "type": "function",
      "constant": true
    },
    {
      "inputs": [
        {
          "internalType": "address",
          "name": "_to",
          "type": "address"
        },
        {
          "internalType": "uint256[]",
          "name": "_tokenIds",
          "type": "uint256[]"
        }
      ],
      "name": "approveMany",
      "outputs": [],
      "stateMutability": "nonpayable",
      "type": "function"
    },
    {
      "inputs": [
        {
          "internalType": "address",
          "name": "_to",
          "type": "address"
        }
      ],
      "name": "approveAll",
      "outputs": [],
      "stateMutability": "nonpayable",
      "type": "function"
    },
    {
      "inputs": [
        {
          "internalType": "address",
          "name": "from",
          "type": "address"
        },
        {
          "internalType": "address",
          "name": "to",
          "type": "address"
        },
        {
          "internalType": "uint256",
          "name": "tokenId",
          "type": "uint256"
        }
      ],
      "name": "safeTransferFrom",
      "outputs": [],
      "stateMutability": "nonpayable",
      "type": "function"
    },
    {
      "inputs": [
        {
          "internalType": "address",
          "name": "from",
          "type": "address"
        },
        {
          "internalType": "address",
          "name": "to",
          "type": "address"
        },
        {
          "internalType": "uint256",
          "name": "tokenId",
          "type": "uint256"
        },
        {
          "internalType": "bytes",
          "name": "_data",
          "type": "bytes"
        }
      ],
      "name": "safeTransferFrom",
      "outputs": [],
      "stateMutability": "nonpayable",
      "type": "function"
    },
    {
      "inputs": [
        {
          "internalType": "string",
          "name": "url",
          "type": "string"
        }
      ],
      "name": "Mint",
      "outputs": [],
      "stateMutability": "nonpayable",
      "type": "function"
    },
    {
      "inputs": [
        {
          "internalType": "address",
          "name": "newFeeAccount",
          "type": "address"
        }
      ],
      "name": "ChangeFeeAccount",
      "outputs": [
        {
          "internalType": "bool",
          "name": "",
          "type": "bool"
        }
      ],
      "stateMutability": "nonpayable",
      "type": "function"
    },
    {
      "inputs": [
        {
          "internalType": "uint256",
          "name": "newFeePercent",
          "type": "uint256"
        }
      ],
      "name": "ChangeFeePercent",
      "outputs": [
        {
          "internalType": "bool",
          "name": "",
          "type": "bool"
        }
      ],
      "stateMutability": "nonpayable",
      "type": "function"
    },
    {
      "inputs": [
        {
          "internalType": "string",
          "name": "symbol",
          "type": "string"
        },
        {
          "internalType": "uint256",
          "name": "_id",
          "type": "uint256"
        }
      ],
      "name": "burn",
      "outputs": [
        {
          "internalType": "bool",
          "name": "",
          "type": "bool"
        }
      ],
      "stateMutability": "nonpayable",
      "type": "function"
    }
  ],
  "bytecode": "0x60806040526000600d553480156200001657600080fd5b506200002f6301ffc9a760e01b6200003560201b60201c565b6200013e565b63ffffffff60e01b817bffffffffffffffffffffffffffffffffffffffffffffffffffffffff19161415620000d2576040517f08c379a000000000000000000000000000000000000000000000000000000000815260040180806020018281038252601c8152602001807f4552433136353a20696e76616c696420696e746572666163652069640000000081525060200191505060405180910390fd5b6001600080837bffffffffffffffffffffffffffffffffffffffffffffffffffffffff19167bffffffffffffffffffffffffffffffffffffffffffffffffffffffff1916815260200190815260200160002060006101000a81548160ff02191690831515021790555050565b614ce9806200014e6000396000f3fe608060405234801561001057600080fd5b50600436106101cf5760003560e01c80636c0360eb11610104578063b88d4fde116100a2578063df5cbf7d11610071578063df5cbf7d14610efa578063e268cd2414611123578063e69c20cf146111ca578063e985e9c51461128f576101cf565b8063b88d4fde14610c39578063c548e76114610d3e578063c5e1d73114610d98578063c87b56dd14610e53576101cf565b806399bb8134116100de57806399bb8134146109de578063a22cb46514610ab6578063a5cd761f14610b06578063b48272cc14610b5e576101cf565b80636c0360eb1461088057806370a082311461090357806395d89b411461095b576101cf565b80632f745c59116101715780634f6ccce71161014b5780634f6ccce7146107095780635a3f26721461074b5780636352211e146107e457806367cdadf41461083c576101cf565b80632f745c591461043057806342842e0e1461049257806346f62f6c14610500576101cf565b8063081812fc116101ad578063081812fc146102fe578063095ea7b31461035657806318160ddd146103a457806323b872dd146103c2576101cf565b806301ffc9a7146101d45780630621472c1461023757806306fdde031461027b575b600080fd5b61021f600480360360208110156101ea57600080fd5b8101908080357bffffffffffffffffffffffffffffffffffffffffffffffffffffffff19169060200190929190505050611309565b60405180821515815260200191505060405180910390f35b6102796004803603602081101561024d57600080fd5b81019080803573ffffffffffffffffffffffffffffffffffffffff169060200190929190505050611370565b005b6102836113b8565b6040518080602001828103825283818151815260200191508051906020019080838360005b838110156102c35780820151818401526020810190506102a8565b50505050905090810190601f1680156102f05780820380516001836020036101000a031916815260200191505b509250505060405180910390f35b61032a6004803603602081101561031457600080fd5b810190808035906020019092919050505061145a565b604051808273ffffffffffffffffffffffffffffffffffffffff16815260200191505060405180910390f35b6103a26004803603604081101561036c57600080fd5b81019080803573ffffffffffffffffffffffffffffffffffffffff169060200190929190803590602001909291905050506114f5565b005b6103ac611639565b6040518082815260200191505060405180910390f35b61042e600480360360608110156103d857600080fd5b81019080803573ffffffffffffffffffffffffffffffffffffffff169060200190929190803573ffffffffffffffffffffffffffffffffffffffff1690602001909291908035906020019092919050505061164a565b005b61047c6004803603604081101561044657600080fd5b81019080803573ffffffffffffffffffffffffffffffffffffffff169060200190929190803590602001909291905050506116c0565b6040518082815260200191505060405180910390f35b6104fe600480360360608110156104a857600080fd5b81019080803573ffffffffffffffffffffffffffffffffffffffff169060200190929190803573ffffffffffffffffffffffffffffffffffffffff1690602001909291908035906020019092919050505061171b565b005b6107076004803603608081101561051657600080fd5b810190808035906020019064010000000081111561053357600080fd5b82018360208201111561054557600080fd5b8035906020019184600183028401116401000000008311171561056757600080fd5b91908080601f016020809104026020016040519081016040528093929190818152602001838380828437600081840152601f19601f820116905080830192505050505050509192919290803590602001906401000000008111156105ca57600080fd5b8201836020820111156105dc57600080fd5b803590602001918460018302840111640100000000831117156105fe57600080fd5b91908080601f016020809104026020016040519081016040528093929190818152602001838380828437600081840152601f19601f8201169050808301925050505050505091929192908035906020019064010000000081111561066157600080fd5b82018360208201111561067357600080fd5b8035906020019184600183028401116401000000008311171561069557600080fd5b91908080601f016020809104026020016040519081016040528093929190818152602001838380828437600081840152601f19601f820116905080830192505050505050509192919290803573ffffffffffffffffffffffffffffffffffffffff169060200190929190505050611881565b005b6107356004803603602081101561071f57600080fd5b8101908080359060200190929190505050611a61565b6040518082815260200191505060405180910390f35b61078d6004803603602081101561076157600080fd5b81019080803573ffffffffffffffffffffffffffffffffffffffff169060200190929190505050611a84565b6040518080602001828103825283818151815260200191508051906020019060200280838360005b838110156107d05780820151818401526020810190506107b5565b505050509050019250505060405180910390f35b610810600480360360208110156107fa57600080fd5b8101908080359060200190929190505050611bbe565b604051808273ffffffffffffffffffffffffffffffffffffffff16815260200191505060405180910390f35b6108686004803603602081101561085257600080fd5b8101908080359060200190929190505050611bf5565b60405180821515815260200191505060405180910390f35b610888611c07565b6040518080602001828103825283818151815260200191508051906020019080838360005b838110156108c85780820151818401526020810190506108ad565b50505050905090810190601f1680156108f55780820380516001836020036101000a031916815260200191505b509250505060405180910390f35b6109456004803603602081101561091957600080fd5b81019080803573ffffffffffffffffffffffffffffffffffffffff169060200190929190505050611ca9565b6040518082815260200191505060405180910390f35b610963611d7e565b6040518080602001828103825283818151815260200191508051906020019080838360005b838110156109a3578082015181840152602081019050610988565b50505050905090810190601f1680156109d05780820380516001836020036101000a031916815260200191505b509250505060405180910390f35b610ab4600480360360408110156109f457600080fd5b81019080803573ffffffffffffffffffffffffffffffffffffffff16906020019092919080359060200190640100000000811115610a3157600080fd5b820183602082011115610a4357600080fd5b80359060200191846020830284011164010000000083111715610a6557600080fd5b919080806020026020016040519081016040528093929190818152602001838360200280828437600081840152601f19601f820116905080830192505050505050509192919290505050611e20565b005b610b0460048036036040811015610acc57600080fd5b81019080803573ffffffffffffffffffffffffffffffffffffffff169060200190929190803515159060200190929190505050611e5b565b005b610b3260048036036020811015610b1c57600080fd5b8101908080359060200190929190505050612011565b604051808273ffffffffffffffffffffffffffffffffffffffff16815260200191505060405180910390f35b610c2160048036036040811015610b7457600080fd5b8101908080359060200190640100000000811115610b9157600080fd5b820183602082011115610ba357600080fd5b80359060200191846001830284011164010000000083111715610bc557600080fd5b91908080601f016020809104026020016040519081016040528093929190818152602001838380828437600081840152601f19601f8201169050808301925050505050505091929192908035906020019092919050505061204e565b60405180821515815260200191505060405180910390f35b610d3c60048036036080811015610c4f57600080fd5b81019080803573ffffffffffffffffffffffffffffffffffffffff169060200190929190803573ffffffffffffffffffffffffffffffffffffffff1690602001909291908035906020019092919080359060200190640100000000811115610cb657600080fd5b820183602082011115610cc857600080fd5b80359060200191846001830284011164010000000083111715610cea57600080fd5b91908080601f016020809104026020016040519081016040528093929190818152602001838380828437600081840152601f19601f82011690508083019250505050505050919291929050505061215d565b005b610d8060048036036020811015610d5457600080fd5b81019080803573ffffffffffffffffffffffffffffffffffffffff169060200190929190505050612536565b60405180821515815260200191505060405180910390f35b610e5160048036036020811015610dae57600080fd5b8101908080359060200190640100000000811115610dcb57600080fd5b820183602082011115610ddd57600080fd5b80359060200191846001830284011164010000000083111715610dff57600080fd5b91908080601f016020809104026020016040519081016040528093929190818152602001838380828437600081840152601f19601f820116905080830192505050505050509192919290505050612582565b005b610e7f60048036036020811015610e6957600080fd5b810190808035906020019092919050505061272b565b6040518080602001828103825283818151815260200191508051906020019080838360005b83811015610ebf578082015181840152602081019050610ea4565b50505050905090810190601f168015610eec5780820380516001836020036101000a031916815260200191505b509250505060405180910390f35b610fb360048036036020811015610f1057600080fd5b8101908080359060200190640100000000811115610f2d57600080fd5b820183602082011115610f3f57600080fd5b80359060200191846001830284011164010000000083111715610f6157600080fd5b91908080601f016020809104026020016040519081016040528093929190818152602001838380828437600081840152601f19601f8201169050808301925050505050505091929192905050506129fc565b604051808060200180602001806020018573ffffffffffffffffffffffffffffffffffffffff168152602001848103845288818151815260200191508051906020019080838360005b83811015611017578082015181840152602081019050610ffc565b50505050905090810190601f1680156110445780820380516001836020036101000a031916815260200191505b50848103835287818151815260200191508051906020019080838360005b8381101561107d578082015181840152602081019050611062565b50505050905090810190601f1680156110aa5780820380516001836020036101000a031916815260200191505b50848103825286818151815260200191508051906020019080838360005b838110156110e35780820151818401526020810190506110c8565b50505050905090810190601f1680156111105780820380516001836020036101000a031916815260200191505b5097505050505050505060405180910390f35b61114f6004803603602081101561113957600080fd5b8101908080359060200190929190505050612c2a565b6040518080602001828103825283818151815260200191508051906020019080838360005b8381101561118f578082015181840152602081019050611174565b50505050905090810190601f1680156111bc5780820380516001836020036101000a031916815260200191505b509250505060405180910390f35b61128d600480360360408110156111e057600080fd5b81019080803590602001909291908035906020019064010000000081111561120757600080fd5b82018360208201111561121957600080fd5b8035906020019184600183028401116401000000008311171561123b57600080fd5b91908080601f016020809104026020016040519081016040528093929190818152602001838380828437600081840152601f19601f820116905080830192505050505050509192919290505050612cdf565b005b6112f1600480360360408110156112a557600080fd5b81019080803573ffffffffffffffffffffffffffffffffffffffff169060200190929190803573ffffffffffffffffffffffffffffffffffffffff1690602001909291905050506130e0565b60405180821515815260200191505060405180910390f35b6000806000837bffffffffffffffffffffffffffffffffffffffffffffffffffffffff19167bffffffffffffffffffffffffffffffffffffffffffffffffffffffff1916815260200190815260200160002060009054906101000a900460ff169050919050565b606061137b33611a84565b905060005b81518110156113b3576113a68383838151811061139957fe5b60200260200101516114f5565b8080600101915050611380565b505050565b606060068054600181600116156101000203166002900480601f0160208091040260200160405190810160405280929190818152602001828054600181600116156101000203166002900480156114505780601f1061142557610100808354040283529160200191611450565b820191906000526020600020905b81548152906001019060200180831161143357829003601f168201915b5050505050905090565b600061146582613174565b6114ba576040517f08c379a000000000000000000000000000000000000000000000000000000000815260040180806020018281038252602c815260200180614bde602c913960400191505060405180910390fd5b6004600083815260200190815260200160002060009054906101000a900473ffffffffffffffffffffffffffffffffffffffff169050919050565b600061150082611bbe565b90508073ffffffffffffffffffffffffffffffffffffffff168373ffffffffffffffffffffffffffffffffffffffff161415611587576040517f08c379a0000000000000000000000000000000000000000000000000000000008152600401808060200182810382526021815260200180614c626021913960400191505060405180910390fd5b8073ffffffffffffffffffffffffffffffffffffffff166115a6613191565b73ffffffffffffffffffffffffffffffffffffffff1614806115d557506115d4816115cf613191565b6130e0565b5b61162a576040517f08c379a0000000000000000000000000000000000000000000000000000000008152600401808060200182810382526038815260200180614b316038913960400191505060405180910390fd5b6116348383613199565b505050565b60006116456002613252565b905090565b61165b611655613191565b82613267565b6116b0576040517f08c379a0000000000000000000000000000000000000000000000000000000008152600401808060200182810382526031815260200180614c836031913960400191505060405180910390fd5b6116bb83838361335b565b505050565b600061171382600160008673ffffffffffffffffffffffffffffffffffffffff1673ffffffffffffffffffffffffffffffffffffffff16815260200190815260200160002061359e90919063ffffffff16565b905092915050565b600073ffffffffffffffffffffffffffffffffffffffff168373ffffffffffffffffffffffffffffffffffffffff1614156117be576040517f08c379a000000000000000000000000000000000000000000000000000000000815260040180806020018281038252600f8152602001807f696e76616c69642061646472657373000000000000000000000000000000000081525060200191505060405180910390fd5b600073ffffffffffffffffffffffffffffffffffffffff168273ffffffffffffffffffffffffffffffffffffffff161415611861576040517f08c379a000000000000000000000000000000000000000000000000000000000815260040180806020018281038252600f8152602001807f696e76616c69642061646472657373000000000000000000000000000000000081525060200191505060405180910390fd5b61187c8383836040518060200160405280600081525061215d565b505050565b61188a836135b8565b925083600a90805190602001906118a2929190614921565b5082600b90805190602001906118b9929190614921565b5081600c90805190602001906118d0929190614921565b5080600e60006101000a81548173ffffffffffffffffffffffffffffffffffffffff021916908373ffffffffffffffffffffffffffffffffffffffff1602179055506000600d8190555060405180608001604052808581526020018481526020018381526020013373ffffffffffffffffffffffffffffffffffffffff168152506015846040518082805190602001908083835b602083106119875780518252602082019150602081019050602083039250611964565b6001836020036101000a038019825116818451168082178552505050505050905001915050908152602001604051809103902060008201518160000190805190602001906119d6929190614921565b5060208201518160010190805190602001906119f3929190614921565b506040820151816002019080519060200190611a10929190614921565b5060608201518160030160006101000a81548173ffffffffffffffffffffffffffffffffffffffff021916908373ffffffffffffffffffffffffffffffffffffffff16021790555090505050505050565b600080611a788360026136d990919063ffffffff16565b50905080915050919050565b6060600073ffffffffffffffffffffffffffffffffffffffff168273ffffffffffffffffffffffffffffffffffffffff161415611b29576040517f08c379a000000000000000000000000000000000000000000000000000000000815260040180806020018281038252600d8152602001807f696e76616c6964206f776e65720000000000000000000000000000000000000081525060200191505060405180910390fd5b601260008373ffffffffffffffffffffffffffffffffffffffff1673ffffffffffffffffffffffffffffffffffffffff168152602001908152602001600020805480602002602001604051908101604052809291908181526020018280548015611bb257602002820191906000526020600020905b815481526020019060010190808311611b9e575b50505050509050919050565b6000611bee82604051806060016040528060298152602001614b936029913960026137059092919063ffffffff16565b9050919050565b60008160108190555060019050919050565b606060098054600181600116156101000203166002900480601f016020809104026020016040519081016040528092919081815260200182805460018160011615610100020316600290048015611c9f5780601f10611c7457610100808354040283529160200191611c9f565b820191906000526020600020905b815481529060010190602001808311611c8257829003601f168201915b5050505050905090565b60008073ffffffffffffffffffffffffffffffffffffffff168273ffffffffffffffffffffffffffffffffffffffff161415611d30576040517f08c379a000000000000000000000000000000000000000000000000000000000815260040180806020018281038252602a815260200180614b69602a913960400191505060405180910390fd5b611d77600160008473ffffffffffffffffffffffffffffffffffffffff1673ffffffffffffffffffffffffffffffffffffffff168152602001908152602001600020613724565b9050919050565b606060078054600181600116156101000203166002900480601f016020809104026020016040519081016040528092919081815260200182805460018160011615610100020316600290048015611e165780601f10611deb57610100808354040283529160200191611e16565b820191906000526020600020905b815481529060010190602001808311611df957829003601f168201915b5050505050905090565b60005b8151811015611e5657611e4983838381518110611e3c57fe5b60200260200101516114f5565b8080600101915050611e23565b505050565b611e63613191565b73ffffffffffffffffffffffffffffffffffffffff168273ffffffffffffffffffffffffffffffffffffffff161415611f04576040517f08c379a00000000000000000000000000000000000000000000000000000000081526004018080602001828103825260198152602001807f4552433732313a20617070726f766520746f2063616c6c65720000000000000081525060200191505060405180910390fd5b8060056000611f11613191565b73ffffffffffffffffffffffffffffffffffffffff1673ffffffffffffffffffffffffffffffffffffffff16815260200190815260200160002060008473ffffffffffffffffffffffffffffffffffffffff1673ffffffffffffffffffffffffffffffffffffffff16815260200190815260200160002060006101000a81548160ff0219169083151502179055508173ffffffffffffffffffffffffffffffffffffffff16611fbe613191565b73ffffffffffffffffffffffffffffffffffffffff167f17307eab39ab6107e8899845ad3d59bd9653f200f220920489ca2b5937696c318360405180821515815260200191505060405180910390a35050565b60006011600083815260200190815260200160002060009054906101000a900473ffffffffffffffffffffffffffffffffffffffff169050919050565b60003373ffffffffffffffffffffffffffffffffffffffff166015846040518082805190602001908083835b6020831061209d578051825260208201915060208101905060208303925061207a565b6001836020036101000a038019825116818451168082178552505050505050905001915050908152602001604051809103902060030160009054906101000a900473ffffffffffffffffffffffffffffffffffffffff1673ffffffffffffffffffffffffffffffffffffffff161461211457600080fd5b61211d82613739565b6011600083815260200190815260200160002060006101000a81549073ffffffffffffffffffffffffffffffffffffffff02191690556001905092915050565b61216e612168613191565b83613267565b6121c3576040517f08c379a0000000000000000000000000000000000000000000000000000000008152600401808060200182810382526031815260200180614c836031913960400191505060405180910390fd5b600073ffffffffffffffffffffffffffffffffffffffff168473ffffffffffffffffffffffffffffffffffffffff161415612266576040517f08c379a000000000000000000000000000000000000000000000000000000000815260040180806020018281038252600f8152602001807f696e76616c69642061646472657373000000000000000000000000000000000081525060200191505060405180910390fd5b600073ffffffffffffffffffffffffffffffffffffffff168373ffffffffffffffffffffffffffffffffffffffff161415612309576040517f08c379a000000000000000000000000000000000000000000000000000000000815260040180806020018281038252600f8152602001807f696e76616c69642061646472657373000000000000000000000000000000000081525060200191505060405180910390fd5b61231584848484613873565b826011600084815260200190815260200160002060006101000a81548173ffffffffffffffffffffffffffffffffffffffff021916908373ffffffffffffffffffffffffffffffffffffffff1602179055506000601260008673ffffffffffffffffffffffffffffffffffffffff1673ffffffffffffffffffffffffffffffffffffffff1681526020019081526020016000209050600080601260008773ffffffffffffffffffffffffffffffffffffffff1673ffffffffffffffffffffffffffffffffffffffff16815260200190815260200160002090508085908060018154018082558091505060019003906000526020600020016000909190919091505580601260008873ffffffffffffffffffffffffffffffffffffffff1673ffffffffffffffffffffffffffffffffffffffff1681526020019081526020016000209080546124649291906149af565b5060005b83805490508110156124dd578584828154811061248157fe5b9060005260206000200154146124d0578284828154811061249e57fe5b906000526020600020015490806001815401808255809150506001900390600052602060002001600090919091909150555b8080600101915050612468565b5081601260008973ffffffffffffffffffffffffffffffffffffffff1673ffffffffffffffffffffffffffffffffffffffff16815260200190815260200160002090805461252c9291906149af565b5050505050505050565b600081600f60006101000a81548173ffffffffffffffffffffffffffffffffffffffff021916908373ffffffffffffffffffffffffffffffffffffffff16021790555060019050919050565b600e60009054906101000a900473ffffffffffffffffffffffffffffffffffffffff1673ffffffffffffffffffffffffffffffffffffffff163373ffffffffffffffffffffffffffffffffffffffff16146125dc57600080fd5b60006125e6611639565b90506125f233826138e5565b336011600083815260200190815260200160002060006101000a81548173ffffffffffffffffffffffffffffffffffffffff021916908373ffffffffffffffffffffffffffffffffffffffff1602179055506000601260003373ffffffffffffffffffffffffffffffffffffffff1673ffffffffffffffffffffffffffffffffffffffff16815260200190815260200160002090508082908060018154018082558091505060019003906000526020600020016000909190919091505580601260003373ffffffffffffffffffffffffffffffffffffffff1673ffffffffffffffffffffffffffffffffffffffff1681526020019081526020016000209080546126fd9291906149af565b5082601460008481526020019081526020016000209080519060200190612725929190614921565b50505050565b606061273682613174565b61278b576040517f08c379a000000000000000000000000000000000000000000000000000000000815260040180806020018281038252602f815260200180614c33602f913960400191505060405180910390fd5b6060600860008481526020019081526020016000208054600181600116156101000203166002900480601f0160208091040260200160405190810160405280929190818152602001828054600181600116156101000203166002900480156128345780601f1061280957610100808354040283529160200191612834565b820191906000526020600020905b81548152906001019060200180831161281757829003601f168201915b505050505090506060612845611c07565b905060008151141561285b5781925050506129f7565b60008251111561292c5780826040516020018083805190602001908083835b6020831061289d578051825260208201915060208101905060208303925061287a565b6001836020036101000a03801982511681845116808217855250505050505090500182805190602001908083835b602083106128ee57805182526020820191506020810190506020830392506128cb565b6001836020036101000a03801982511681845116808217855250505050505090500192505050604051602081830303815290604052925050506129f7565b8061293685613ad9565b6040516020018083805190602001908083835b6020831061296c5780518252602082019150602081019050602083039250612949565b6001836020036101000a03801982511681845116808217855250505050505090500182805190602001908083835b602083106129bd578051825260208201915060208101905060208303925061299a565b6001836020036101000a03801982511681845116808217855250505050505090500192505050604051602081830303815290604052925050505b919050565b601581805160208101820180518482526020830160208501208183528095505050505050600091509050806000018054600181600116156101000203166002900480601f016020809104026020016040519081016040528092919081815260200182805460018160011615610100020316600290048015612abe5780601f10612a9357610100808354040283529160200191612abe565b820191906000526020600020905b815481529060010190602001808311612aa157829003601f168201915b505050505090806001018054600181600116156101000203166002900480601f016020809104026020016040519081016040528092919081815260200182805460018160011615610100020316600290048015612b5c5780601f10612b3157610100808354040283529160200191612b5c565b820191906000526020600020905b815481529060010190602001808311612b3f57829003601f168201915b505050505090806002018054600181600116156101000203166002900480601f016020809104026020016040519081016040528092919081815260200182805460018160011615610100020316600290048015612bfa5780601f10612bcf57610100808354040283529160200191612bfa565b820191906000526020600020905b815481529060010190602001808311612bdd57829003601f168201915b5050505050908060030160009054906101000a900473ffffffffffffffffffffffffffffffffffffffff16905084565b6060601460008381526020019081526020016000208054600181600116156101000203166002900480601f016020809104026020016040519081016040528092919081815260200182805460018160011615610100020316600290048015612cd35780601f10612ca857610100808354040283529160200191612cd3565b820191906000526020600020905b815481529060010190602001808311612cb657829003601f168201915b50505050509050919050565b600e60009054906101000a900473ffffffffffffffffffffffffffffffffffffffff1673ffffffffffffffffffffffffffffffffffffffff163373ffffffffffffffffffffffffffffffffffffffff1614612d3957600080fd5b6060819050806040518060400160405280600181526020017f2f000000000000000000000000000000000000000000000000000000000000008152506040516020018083805190602001908083835b60208310612dab5780518252602082019150602081019050602083039250612d88565b6001836020036101000a03801982511681845116808217855250505050505090500182805190602001908083835b60208310612dfc5780518252602082019150602081019050602083039250612dd9565b6001836020036101000a03801982511681845116808217855250505050505090500192505050604051602081830303815290604052905080612e3d84613c20565b6040516020018083805190602001908083835b60208310612e735780518252602082019150602081019050602083039250612e50565b6001836020036101000a03801982511681845116808217855250505050505090500182805190602001908083835b60208310612ec45780518252602082019150602081019050602083039250612ea1565b6001836020036101000a038019825116818451168082178552505050505050905001925050506040516020818303038152906040529050806040518060400160405280600581526020017f2e6a736f6e0000000000000000000000000000000000000000000000000000008152506040516020018083805190602001908083835b60208310612f685780518252602082019150602081019050602083039250612f45565b6001836020036101000a03801982511681845116808217855250505050505090500182805190602001908083835b60208310612fb95780518252602082019150602081019050602083039250612f96565b6001836020036101000a03801982511681845116808217855250505050505090500192505050604051602081830303815290604052905080601460008581526020019081526020016000209080519060200190613017929190614921565b5061302183611bbe565b73ffffffffffffffffffffffffffffffffffffffff167f533b52bf6683c1d8929816db9f4f8221ca670c6815cbd30bd5e92b4b8eb0957884836040518083815260200180602001828103825283818151815260200191508051906020019080838360005b838110156130a0578082015181840152602081019050613085565b50505050905090810190601f1680156130cd5780820380516001836020036101000a031916815260200191505b50935050505060405180910390a2505050565b6000600560008473ffffffffffffffffffffffffffffffffffffffff1673ffffffffffffffffffffffffffffffffffffffff16815260200190815260200160002060008373ffffffffffffffffffffffffffffffffffffffff1673ffffffffffffffffffffffffffffffffffffffff16815260200190815260200160002060009054906101000a900460ff16905092915050565b600061318a826002613dff90919063ffffffff16565b9050919050565b600033905090565b816004600083815260200190815260200160002060006101000a81548173ffffffffffffffffffffffffffffffffffffffff021916908373ffffffffffffffffffffffffffffffffffffffff160217905550808273ffffffffffffffffffffffffffffffffffffffff1661320c83611bbe565b73ffffffffffffffffffffffffffffffffffffffff167f8c5be1e5ebec7d5bd14f71427d1e84f3dd0314c0f7b2291e5b200ac8c7c3b92560405160405180910390a45050565b600061326082600001613e19565b9050919050565b600061327282613174565b6132c7576040517f08c379a000000000000000000000000000000000000000000000000000000000815260040180806020018281038252602c815260200180614b05602c913960400191505060405180910390fd5b60006132d283611bbe565b90508073ffffffffffffffffffffffffffffffffffffffff168473ffffffffffffffffffffffffffffffffffffffff16148061334157508373ffffffffffffffffffffffffffffffffffffffff166133298461145a565b73ffffffffffffffffffffffffffffffffffffffff16145b80613352575061335181856130e0565b5b91505092915050565b8273ffffffffffffffffffffffffffffffffffffffff1661337b82611bbe565b73ffffffffffffffffffffffffffffffffffffffff16146133e7576040517f08c379a0000000000000000000000000000000000000000000000000000000008152600401808060200182810382526029815260200180614c0a6029913960400191505060405180910390fd5b600073ffffffffffffffffffffffffffffffffffffffff168273ffffffffffffffffffffffffffffffffffffffff16141561346d576040517f08c379a0000000000000000000000000000000000000000000000000000000008152600401808060200182810382526024815260200180614abb6024913960400191505060405180910390fd5b613478838383613e2a565b613483600082613199565b6134d481600160008673ffffffffffffffffffffffffffffffffffffffff1673ffffffffffffffffffffffffffffffffffffffff168152602001908152602001600020613e2f90919063ffffffff16565b5061352681600160008573ffffffffffffffffffffffffffffffffffffffff1673ffffffffffffffffffffffffffffffffffffffff168152602001908152602001600020613e4990919063ffffffff16565b5061353d81836002613e639092919063ffffffff16565b50808273ffffffffffffffffffffffffffffffffffffffff168473ffffffffffffffffffffffffffffffffffffffff167fddf252ad1be2c89b69c2b068fc378daa952ba7f163c4a11628f55a4df523b3ef60405160405180910390a4505050565b60006135ad8360000183613e98565b60001c905092915050565b60608082905060005b81518110156136cc577f610000000000000000000000000000000000000000000000000000000000000060f81c60ff168282815181106135fd57fe5b602001015160f81c60f81b60f81c60ff161015801561365e57507f7a0000000000000000000000000000000000000000000000000000000000000060f81c60ff1682828151811061364a57fe5b602001015160f81c60f81b60f81c60ff1611155b156136bf57602082828151811061367157fe5b602001015160f81c60f81b60f81c0360f81b82828151811061368f57fe5b60200101907effffffffffffffffffffffffffffffffffffffffffffffffffffffffffffff1916908160001a9053505b80806001019150506135c1565b5080925082915050919050565b6000806000806136ec8660000186613f1b565b915091508160001c8160001c9350935050509250929050565b6000613718846000018460001b84613fb4565b60001c90509392505050565b6000613732826000016140aa565b9050919050565b600061374482611bbe565b905061375281600084613e2a565b61375d600083613199565b600060086000848152602001908152602001600020805460018160011615610100020316600290049050146137ac576008600083815260200190815260200160002060006137ab9190614a01565b5b6137fd82600160008473ffffffffffffffffffffffffffffffffffffffff1673ffffffffffffffffffffffffffffffffffffffff168152602001908152602001600020613e2f90919063ffffffff16565b506138128260026140bb90919063ffffffff16565b5081600073ffffffffffffffffffffffffffffffffffffffff168273ffffffffffffffffffffffffffffffffffffffff167fddf252ad1be2c89b69c2b068fc378daa952ba7f163c4a11628f55a4df523b3ef60405160405180910390a45050565b61387e84848461335b565b61388a848484846140d5565b6138df576040517f08c379a0000000000000000000000000000000000000000000000000000000008152600401808060200182810382526032815260200180614a896032913960400191505060405180910390fd5b50505050565b600073ffffffffffffffffffffffffffffffffffffffff168273ffffffffffffffffffffffffffffffffffffffff161415613988576040517f08c379a00000000000000000000000000000000000000000000000000000000081526004018080602001828103825260208152602001807f4552433732313a206d696e7420746f20746865207a65726f206164647265737381525060200191505060405180910390fd5b61399181613174565b15613a04576040517f08c379a000000000000000000000000000000000000000000000000000000000815260040180806020018281038252601c8152602001807f4552433732313a20746f6b656e20616c7265616479206d696e7465640000000081525060200191505060405180910390fd5b613a1060008383613e2a565b613a6181600160008573ffffffffffffffffffffffffffffffffffffffff1673ffffffffffffffffffffffffffffffffffffffff168152602001908152602001600020613e4990919063ffffffff16565b50613a7881836002613e639092919063ffffffff16565b50808273ffffffffffffffffffffffffffffffffffffffff16600073ffffffffffffffffffffffffffffffffffffffff167fddf252ad1be2c89b69c2b068fc378daa952ba7f163c4a11628f55a4df523b3ef60405160405180910390a45050565b60606000821415613b21576040518060400160405280600181526020017f30000000000000000000000000000000000000000000000000000000000000008152509050613c1b565b600082905060005b60008214613b4b578080600101915050600a8281613b4357fe5b049150613b29565b60608167ffffffffffffffff81118015613b6457600080fd5b506040519080825280601f01601f191660200182016040528015613b975781602001600182028036833780820191505090505b50905060006001830390508593505b60008414613c1357600a8481613bb857fe5b0660300160f81b82828060019003935081518110613bd257fe5b60200101907effffffffffffffffffffffffffffffffffffffffffffffffffffffffffffff1916908160001a905350600a8481613c0b57fe5b049350613ba6565b819450505050505b919050565b606060006064905060608167ffffffffffffffff81118015613c4157600080fd5b506040519080825280601f01601f191660200182016040528015613c745781602001600182028036833780820191505090505b509050600080851415613cc1576040518060400160405280600181526020017f30000000000000000000000000000000000000000000000000000000000000008152509350505050613dfa565b5b60008514613d34576000600a8681613cd657fe5b069050600a8681613ce357fe5b0495508060300160f81b838380600101945081518110613cff57fe5b60200101907effffffffffffffffffffffffffffffffffffffffffffffffffffffffffffff1916908160001a90535050613cc2565b60606001820167ffffffffffffffff81118015613d5057600080fd5b506040519080825280601f01601f191660200182016040528015613d835781602001600182028036833780820191505090505b50905060005b828111613df1578381840381518110613d9e57fe5b602001015160f81c60f81b828281518110613db557fe5b60200101907effffffffffffffffffffffffffffffffffffffffffffffffffffffffffffff1916908160001a9053508080600101915050613d89565b50809450505050505b919050565b6000613e11836000018360001b6142ee565b905092915050565b600081600001805490509050919050565b505050565b6000613e41836000018360001b614311565b905092915050565b6000613e5b836000018360001b6143f9565b905092915050565b6000613e8f846000018460001b8473ffffffffffffffffffffffffffffffffffffffff1660001b614469565b90509392505050565b600081836000018054905011613ef9576040517f08c379a0000000000000000000000000000000000000000000000000000000008152600401808060200182810382526022815260200180614a676022913960400191505060405180910390fd5b826000018281548110613f0857fe5b9060005260206000200154905092915050565b60008082846000018054905011613f7d576040517f08c379a0000000000000000000000000000000000000000000000000000000008152600401808060200182810382526022815260200180614bbc6022913960400191505060405180910390fd5b6000846000018481548110613f8e57fe5b906000526020600020906002020190508060000154816001015492509250509250929050565b6000808460010160008581526020019081526020016000205490506000811415839061407b576040517f08c379a00000000000000000000000000000000000000000000000000000000081526004018080602001828103825283818151815260200191508051906020019080838360005b83811015614040578082015181840152602081019050614025565b50505050905090810190601f16801561406d5780820380516001836020036101000a031916815260200191505b509250505060405180910390fd5b5084600001600182038154811061408e57fe5b9060005260206000209060020201600101549150509392505050565b600081600001805490509050919050565b60006140cd836000018360001b614545565b905092915050565b60006140f68473ffffffffffffffffffffffffffffffffffffffff1661465e565b61410357600190506142e6565b606061426d63150b7a0260e01b614118613191565b888787604051602401808573ffffffffffffffffffffffffffffffffffffffff1681526020018473ffffffffffffffffffffffffffffffffffffffff16815260200183815260200180602001828103825283818151815260200191508051906020019080838360005b8381101561419c578082015181840152602081019050614181565b50505050905090810190601f1680156141c95780820380516001836020036101000a031916815260200191505b5095505050505050604051602081830303815290604052907bffffffffffffffffffffffffffffffffffffffffffffffffffffffff19166020820180517bffffffffffffffffffffffffffffffffffffffffffffffffffffffff8381831617835250505050604051806060016040528060328152602001614a89603291398773ffffffffffffffffffffffffffffffffffffffff166146719092919063ffffffff16565b9050600081806020019051602081101561428657600080fd5b8101908080519060200190929190505050905063150b7a0260e01b7bffffffffffffffffffffffffffffffffffffffffffffffffffffffff1916817bffffffffffffffffffffffffffffffffffffffffffffffffffffffff191614925050505b949350505050565b600080836001016000848152602001908152602001600020541415905092915050565b600080836001016000848152602001908152602001600020549050600081146143ed576000600182039050600060018660000180549050039050600086600001828154811061435c57fe5b906000526020600020015490508087600001848154811061437957fe5b90600052602060002001819055506001830187600101600083815260200190815260200160002081905550866000018054806143b157fe5b600190038181906000526020600020016000905590558660010160008781526020019081526020016000206000905560019450505050506143f3565b60009150505b92915050565b60006144058383614689565b61445e578260000182908060018154018082558091505060019003906000526020600020016000909190919091505582600001805490508360010160008481526020019081526020016000208190555060019050614463565b600090505b92915050565b60008084600101600085815260200190815260200160002054905060008114156145105784600001604051806040016040528086815260200185815250908060018154018082558091505060019003906000526020600020906002020160009091909190915060008201518160000155602082015181600101555050846000018054905085600101600086815260200190815260200160002081905550600191505061453e565b8285600001600183038154811061452357fe5b90600052602060002090600202016001018190555060009150505b9392505050565b60008083600101600084815260200190815260200160002054905060008114614652576000600182039050600060018660000180549050039050600086600001828154811061459057fe5b90600052602060002090600202019050808760000184815481106145b057fe5b906000526020600020906002020160008201548160000155600182015481600101559050506001830187600101600083600001548152602001908152602001600020819055508660000180548061460357fe5b6001900381819060005260206000209060020201600080820160009055600182016000905550509055866001016000878152602001908152602001600020600090556001945050505050614658565b60009150505b92915050565b600080823b905060008111915050919050565b606061468084846000856146ac565b90509392505050565b600080836001016000848152602001908152602001600020541415905092915050565b606082471015614707576040517f08c379a0000000000000000000000000000000000000000000000000000000008152600401808060200182810382526026815260200180614adf6026913960400191505060405180910390fd5b6147108561465e565b614782576040517f08c379a000000000000000000000000000000000000000000000000000000000815260040180806020018281038252601d8152602001807f416464726573733a2063616c6c20746f206e6f6e2d636f6e747261637400000081525060200191505060405180910390fd5b600060608673ffffffffffffffffffffffffffffffffffffffff1685876040518082805190602001908083835b602083106147d257805182526020820191506020810190506020830392506147af565b6001836020036101000a03801982511681845116808217855250505050505090500191505060006040518083038185875af1925050503d8060008114614834576040519150601f19603f3d011682016040523d82523d6000602084013e614839565b606091505b5091509150614849828286614855565b92505050949350505050565b606083156148655782905061491a565b6000835111156148785782518084602001fd5b816040517f08c379a00000000000000000000000000000000000000000000000000000000081526004018080602001828103825283818151815260200191508051906020019080838360005b838110156148df5780820151818401526020810190506148c4565b50505050905090810190601f16801561490c5780820380516001836020036101000a031916815260200191505b509250505060405180910390fd5b9392505050565b828054600181600116156101000203166002900490600052602060002090601f016020900481019282614957576000855561499e565b82601f1061497057805160ff191683800117855561499e565b8280016001018555821561499e579182015b8281111561499d578251825591602001919060010190614982565b5b5090506149ab9190614a49565b5090565b8280548282559060005260206000209081019282156149f05760005260206000209182015b828111156149ef5782548255916001019190600101906149d4565b5b5090506149fd9190614a49565b5090565b50805460018160011615610100020316600290046000825580601f10614a275750614a46565b601f016020900490600052602060002090810190614a459190614a49565b5b50565b5b80821115614a62576000816000905550600101614a4a565b509056fe456e756d657261626c655365743a20696e646578206f7574206f6620626f756e64734552433732313a207472616e7366657220746f206e6f6e20455243373231526563656976657220696d706c656d656e7465724552433732313a207472616e7366657220746f20746865207a65726f2061646472657373416464726573733a20696e73756666696369656e742062616c616e636520666f722063616c6c4552433732313a206f70657261746f7220717565727920666f72206e6f6e6578697374656e7420746f6b656e4552433732313a20617070726f76652063616c6c6572206973206e6f74206f776e6572206e6f7220617070726f76656420666f7220616c6c4552433732313a2062616c616e636520717565727920666f7220746865207a65726f20616464726573734552433732313a206f776e657220717565727920666f72206e6f6e6578697374656e7420746f6b656e456e756d657261626c654d61703a20696e646578206f7574206f6620626f756e64734552433732313a20617070726f76656420717565727920666f72206e6f6e6578697374656e7420746f6b656e4552433732313a207472616e73666572206f6620746f6b656e2074686174206973206e6f74206f776e4552433732314d657461646174613a2055524920717565727920666f72206e6f6e6578697374656e7420746f6b656e4552433732313a20617070726f76616c20746f2063757272656e74206f776e65724552433732313a207472616e736665722063616c6c6572206973206e6f74206f776e6572206e6f7220617070726f766564a2646970667358221220bae757471b13e63e8d6586b7904c0dd8098ee1ee59459ae2b4a354d76b8bf0bc64736f6c63430007040033",
  "immutableReferences": {},
  "source": "// SPDX-License-Identifier: MIT\r\npragma solidity >=0.4.22 <0.8.4;\r\n\r\nimport \"./ERC721_FORKED.sol\";\r\n\r\ncontract NftRegistry is ERC721_FORKED {\r\n    \r\n  string internal _name;\r\n  string internal _symbol;\r\n  string internal _description;\r\n  // Total tokens starts at 0 because each new token must be minted and the\r\n  // _mint() call adds 1 to totalTokens\r\n  uint256 totalTokens = 0;\r\n\r\n  address internal _creator;\r\n\r\n\r\n  address internal feeAccount; // the account that receives exchange\r\n  uint256 internal feePercent; // the fee percentage\r\n  \r\n  // Mapping from token ID to owner\r\n  mapping (uint256 => address) tokenOwner;\r\n\r\n  // Mapping from owner to list of owned token IDs\r\n  mapping (address => uint256[]) ownedTokens;\r\n\r\n  // Mapping from token ID to index of the owner tokens list\r\n  mapping(uint256 => uint256) ownedTokensIndex;\r\n  \r\n  // Metadata is a URL that points to a json dictionary\r\n  mapping(uint256 => string) tokenIdToMetadata;\r\n\r\n  // mapping from symbol to full registration info\r\n  mapping(string => REGISTRY) public registries;\r\n  \r\n  event MetadataAssigned(address indexed _owner, uint256 _tokenId, string _url);\r\n\r\n  struct REGISTRY {\r\n    string name;\r\n    string symbol;\r\n    string description;\r\n    address creator;\r\n  }\r\n\r\n\r\n  function Registry(\r\n    string memory name,\r\n    string memory symbol,\r\n    string memory description,\r\n    address caller) public {\r\n\r\n    symbol = _upperCase(symbol);\r\n    \r\n      _name = name;\r\n      _symbol = symbol;\r\n      _description = description;\r\n      _creator = caller;\r\n      totalTokens = 0;\r\n\r\n      \r\n      registries[symbol] = REGISTRY(\r\n      name,\r\n      symbol,\r\n      description,\r\n      msg.sender\r\n    );\r\n    }\r\n    \r\n    modifier isOwnedToken(uint256 _tokenId) {\r\n    require(ownerOf(_tokenId) != address(0));\r\n    _;\r\n  }\r\n  \r\n  function assignDataToToken(uint256 id, string memory uri) public{\r\n    require(msg.sender == _creator);\r\n    bytes memory _url = bytes(uri);\r\n    \r\n    _url = abi.encodePacked(_url, bytes(\"/\"));\r\n    _url = abi.encodePacked(_url, _uintToBytes(id));\r\n    _url = abi.encodePacked(_url, bytes(\".json\"));\r\n        \r\n    tokenIdToMetadata[id] = string(_url);\r\n    MetadataAssigned(ownerOf(id), id, string(_url));\r\n  }\r\n  \r\n  function getMetadataAtID(uint256 _tokenId) public view returns (string memory) {\r\n    return tokenIdToMetadata[_tokenId];\r\n  }\r\n  \r\n  function getTokenOwner(uint256 id) public view returns (address){\r\n      return tokenOwner[id];\r\n  }\r\n  \r\n  \r\n  function tokensOf(address _owner) public view returns (uint256[] memory){\r\n      require(_owner != address(0),\"invalid owner\");\r\n      return ownedTokens[_owner];\r\n  }\r\n  \r\n  \r\n  function approveMany(address _to, uint256[] memory _tokenIds) public {\r\n    /* Allows bulk-approval of many tokens. This function is useful for\r\n       exchanges where users can make a single tx to enable the call of\r\n       transferFrom for those tokens by an exchange contract. */\r\n    for (uint256 i=0; i<_tokenIds.length; i++) {\r\n      // approve handles the check for if one who is approving is the owner.\r\n      approve(_to, _tokenIds[i]);\r\n    }\r\n  }\r\n\r\n  function approveAll(address _to) public {\r\n    uint256[] memory tokens = tokensOf(msg.sender);\r\n    for (uint256 t=0; t < tokens.length; t++) {\r\n      approve(_to, tokens[t]);\r\n    }\r\n  }\r\n  function safeTransferFrom(address from, address to, uint256 tokenId)public virtual override{\r\n      require(from != address(0),\"invalid address\");\r\n      require(to != address(0),\"invalid address\");\r\n      // add require to make sure that the tokenid exsistes\r\n      safeTransferFrom(from, to, tokenId, \"\");\r\n  }\r\n  \r\n  function safeTransferFrom(address from, address to, uint256 tokenId, bytes memory _data)public virtual override{\r\n      require(_isApprovedOrOwner(_msgSender(), tokenId), \"ERC721: transfer caller is not owner nor approved\");\r\n      require(from != address(0),\"invalid address\");\r\n      require(to != address(0),\"invalid address\");\r\n      _safeTransfer(from, to, tokenId, _data);\r\n      tokenOwner[tokenId] = to;\r\n      uint256[] storage fromIds = ownedTokens[from];\r\n      uint256[] storage newFromIds;\r\n      uint256[] storage toIds = ownedTokens[to];\r\n      toIds.push(tokenId);\r\n      ownedTokens[to] = toIds;\r\n      for(uint i = 0; i < fromIds.length; i++){\r\n          if(fromIds[i] != tokenId) {\r\n              newFromIds.push(fromIds[i]);\r\n          }\r\n      }\r\n      \r\n      ownedTokens[from]= newFromIds;\r\n  }\r\n\r\nfunction Mint(string memory url) public {\r\n    require(msg.sender == _creator);\r\n    uint256 currentTokenCount = totalSupply();\r\n    // The index of the newest token is at the # totalTokens.\r\n    _mint(msg.sender, currentTokenCount);\r\n    // assign id to owner\r\n    tokenOwner[currentTokenCount] = msg.sender;\r\n    // assign address to array of owned tokens aned you can qury what ids the address owns  \r\n    uint256[] storage ids= ownedTokens[msg.sender];\r\n    ids.push(currentTokenCount);\r\n    ownedTokens[msg.sender]=ids;\r\n    // _mint() call adds 1 to total tokens, but we want the token at index - 1\r\n    tokenIdToMetadata[currentTokenCount] = url;\r\n  }\r\n\r\n  function ChangeFeeAccount(address newFeeAccount) public returns (bool) {\r\n    feeAccount = newFeeAccount;\r\n    return true;\r\n  }\r\n\r\n  function ChangeFeePercent(uint256 newFeePercent) public returns (bool) {\r\n    feePercent = newFeePercent;\r\n    return true;\r\n  }\r\n  \r\n  function burn (string memory symbol, uint256 _id) public returns (bool) {\r\n      require(registries[symbol].creator == msg.sender);\r\n      _burn(_id);\r\n      delete tokenOwner[_id];\r\n      return true;\r\n  }\r\n  \r\n  function _uintToBytes(uint256 _int) internal pure  returns (bytes memory) {\r\n        uint maxlength = 100;\r\n        bytes memory reversed = new bytes(maxlength);\r\n        uint256 i = 0;\r\n        if (_int == 0) return bytes(\"0\");\r\n        while (_int != 0) {\r\n            uint256 remainder = _int % 10;\r\n            _int = _int / 10;\r\n            reversed[i++] = bytes1(uint8(48 + remainder));\r\n        }\r\n        bytes memory s = new bytes(i + 1);\r\n        for (uint j = 0; j <= i; j++) {\r\n            s[j] = reversed[i - j];\r\n        }\r\n        return s;\r\n    }\r\n    \r\n    \r\n    function _upperCase(string memory enter)\r\n        internal\r\n        pure\r\n        returns (string memory)\r\n    {\r\n        bytes memory strbyte = bytes(enter);\r\n        for (uint256 i = 0; i < strbyte.length; i++) {\r\n            if (\r\n                uint8(strbyte[i]) >= uint8(bytes1(\"a\")) &&\r\n                uint8(strbyte[i]) <= uint8(bytes1(\"z\"))\r\n            ) strbyte[i] = bytes1(uint8(strbyte[i]) - 32);\r\n        }\r\n        enter = string(strbyte);\r\n        return enter;\r\n    }\r\n\r\n\r\n}",
  "sourcePath": "C:/Users/Zaid/Desktop/NFT_FACTORY/contracts/NftRegistry.sol",
  "compiler": {
    "name": "solc",
    "version": "0.7.4+commit.3f05b770.Emscripten.clang"
  },
  "schemaVersion": "3.3.4",
  "updatedAt": "2021-03-28T23:06:46.643Z",
  "networkType": "ethereum",
  "devdoc": {
    "kind": "dev",
    "methods": {
      "approve(address,uint256)": {
        "details": "See {IERC721-approve}."
      },
      "balanceOf(address)": {
        "details": "See {IERC721-balanceOf}."
      },
      "baseURI()": {
        "details": "Returns the base URI set via {_setBaseURI}. This will be automatically added as a prefix in {tokenURI} to each token's URI, or to the token ID if no specific URI is set for that token ID."
      },
      "getApproved(uint256)": {
        "details": "See {IERC721-getApproved}."
      },
      "isApprovedForAll(address,address)": {
        "details": "See {IERC721-isApprovedForAll}."
      },
      "name()": {
        "details": "See {IERC721Metadata-name}."
      },
      "ownerOf(uint256)": {
        "details": "See {IERC721-ownerOf}."
      },
      "safeTransferFrom(address,address,uint256)": {
        "details": "See {IERC721-safeTransferFrom}."
      },
      "safeTransferFrom(address,address,uint256,bytes)": {
        "details": "See {IERC721-safeTransferFrom}."
      },
      "setApprovalForAll(address,bool)": {
        "details": "See {IERC721-setApprovalForAll}."
      },
      "supportsInterface(bytes4)": {
        "details": "See {IERC165-supportsInterface}. Time complexity O(1), guaranteed to always use less than 30 000 gas."
      },
      "symbol()": {
        "details": "See {IERC721Metadata-symbol}."
      },
      "tokenByIndex(uint256)": {
        "details": "See {IERC721Enumerable-tokenByIndex}."
      },
      "tokenOfOwnerByIndex(address,uint256)": {
        "details": "See {IERC721Enumerable-tokenOfOwnerByIndex}."
      },
      "tokenURI(uint256)": {
        "details": "See {IERC721Metadata-tokenURI}."
      },
      "totalSupply()": {
        "details": "See {IERC721Enumerable-totalSupply}."
      },
      "transferFrom(address,address,uint256)": {
        "details": "See {IERC721-transferFrom}."
      }
    },
    "version": 1
  },
  "userdoc": {
    "kind": "user",
    "methods": {},
    "version": 1
  }
}